:100000000C94BE040C94DB040C94DB040C94651477
:100010000C94DB040C94DB040C94DB040C94DB04E4
:100020000C94DB040C94B0240C94DB040C942B2073
:100030000C94DB040C94B81F0C94CA1F0C94DB04C2
:100040000C94DB040C94DB040C944B1F0C94DB0429
:100050000C94DB040C948A140C94DB040C94DB04E5
:100060000C94DB040C94DB04691A6C1A661A6F1A80
:10007000721A771A751A841A871A0A47505320532E
:10008000657475700001000B4F66667365742020FF
:100090003A20001153746174757320203A204E4F3A
:1000A0004C4F434B000B47505320446174653A203A
:1000B00000154750532054696D653A2020202020B8
:1000C000202020555443000100144D656E753D45B8
:1000D0007869742C205365743D2D2C202B003A0038
:1000E0002B002D00F602960364726177007965613A
:1000F000722100646174652100646F6E6520696E11
:10010000697400202020202055532031326872006D
:1001100020202020205553203234687200202020D7
:1001200020204555203132687200202020202045B3
:1001300055203234687200D4524154544368726F6F
:100140006E00D2496E7472756465724368726F6E28
:1001500000D3536576656E4368726F6E00D5584460
:10016000414C494368726F6E00D654696D65735394
:10017000714368726F6E00D752616E646F6D00D804
:10018000526F7461746500D947505320536574757C
:100190007000DA41626F757400FF736574207365D7
:1001A0006373006368616E676520736563007365E0
:1001B00074206D696E73006368616E6765206D6998
:1001C0006E0073657420686F7572006368616E6796
:1001D0006520687200736574206D696E73006368D2
:1001E000616E6765206D696E0073657420686F7558
:1001F00072006368616E67652068722E00526567E1
:10020000696F6E3A200073657420796561720063CE
:1002100068616E67652079722E0073657420646171
:100220007465006368616E67652064617900736559
:1002300074206D6F6E2E006368616E6765206D6F50
:100240006E0020202020200020202020200044615B
:1002500074653A004D6F64653A00536574204261DD
:10026000636B6C696768743A200053657420546945
:100270006D653A200053657420416C61726D3A20BF
:1002800020009F1058BC1C16163F3F16161CBC5869
:1002900000000000101EB87D363C3C3C3C367DB86A
:1002A0001E00000000109C9E5E76375F5F37765E12
:1002B0009E9C0000000010181C9C56B65F5FB6564E
:1002C0009C1C18000000001070187DB6BC3C3CBCA3
:1002D000B67D187000000000101C5EFEB6375F5F30
:1002E00037B6FE5E1C000000000CF8FCFEFE3F1F4F
:1002F0001F3FFEFEFCF8ECEFEAF1FFE9F2E8CB70FD
:10030000872B464AB1866A45CAD1856A644AF18418
:10031000A963E91283A983691282A982693282A939
:1003200082E93282A981E95281A9A1695281A9A1F8
:10033000695281A9A1695281A9A1695281A9A069C3
:100340007280A9A0E97280A9A0E97280A9A0E972CF
:1003500081A9A1695281A9A1695281A9A16952818A
:10036000A9A1695281A9A2693282A982E93282A92E
:1003700082E91283A983691283A98449F2846A6598
:10038000CAD1856A664AB1866A47CB90882B29F222
:10039000FFEAF1ECEFFFF1F1EFF1FFEEF1ECF1FF2D
:1003A000EBF1E9F1FFE8F1E6F1FFE5F1E3F1FF42FE
:1003B0002502C329E9F1E9F1FFE9F1EAF1FFEAF1E8
:1003C000EAF1FFEAF1EAF1FFEAF1EAF1FFEAF1EA24
:1003D000F1FFEAF1EAF1FFEAF1EAF1FFEAF1EAF10D
:1003E000FFEAF1EAF1FFEAF1EAF1FFEAF1EAF1FFEF
:1003F000EAF1EAF1FFEAF1EAF1FFEAF1EAF1FFEAF4
:10040000F1EAF1FFEAF1EAF1FFEAF1EAF1FFEAF1DC
:10041000EAF1FFEAF1EAF1FFEAF1EAF1FFEAF1E9D4
:10042000F2FFE9F2E9F2FFE9F2E8F2FFE7F3E4F6BE
:10043000FFE2F8E2F8FFECF0EAF2FFE9F3E8F4FF9C
:10044000E7F5E6F6FFE6F6E5F7FFE5F7E4F7FFE4A4
:10045000F8E3E60D63A583640F62E48263108223F0
:1004600081621181629178FFF1F8F1F8FFF1F8F102
:10047000F8FFF1F8F1F7FFF1F7F1F7FFF1F6F0F619
:10048000FFF0F5F0F5FFEFF4EFF4FFEFF3EEF3FF1D
:10049000EEF2EEF1FFEDF1EDF0FFECEFECEFFFEB44
:1004A000EEEBEDFFCAEDAAEC7BC9ABA9EB7AC86A0B
:1004B000A7E959C728A66854E6FAE5FAFFE5FAE481
:1004C000F9FFE3F9E3F9FFE2F9E2F9FFE1F9E0F915
:1004D000FFE0F8E0F8FFECF1EAF4FFE9F5E8F6FFF9
:1004E000E7F6E6F7FFE5F7E4E80B646683650E637D
:1004F000E4826410822382631082229078FFF0F8F5
:10050000F0F8FFF0F7F0F7FFF0F6F0F6FFEFF5EF99
:10051000F4FFEEF4EDF5FFECF6EBF7FFE9F8E9F8A0
:10052000FFE9F9EBF9FFECF9EEFAFFEFFAF0FAFF69
:10053000F1FAF2FAFFF2FAF3FAFFF3FAF4FAFFF43F
:10054000FAF4FAFFF4FAF4FAFFF5FAF5FAFFF5F91E
:10055000F5F9FFF5F9E2E615A127816814A02960F5
:10056000C9D480EA614BB2816C4173FFE2F2E3F1DE
:10057000FFE4EFE6ECFFF3F7F2F7FFF2F7F1F7FF36
:10058000F1F7F0F7FFF0F7EFF7FFEFF7EEF7FFEE19
:10059000F7EDF7FFEDF7ECF7FFECF7EBCDEF6BEDD9
:1005A0006ACCEF6AEC69CBEF69EB68CAEF68EA677F
:1005B000C9EF67E966C8EF66E865C7EF65E764C637
:1005C000EF64E663C5EF63E562C4EF62E461C3EF25
:1005D00061E360C2EF60E260C2EFE0FBE0FBFFE0DE
:1005E000FBE0FBFFE0FBE0FBFFE0FBE0FBFFE0FBF1
:1005F000E0FBFFE0FBEFF7FFEFF7EFF7FFEFF7EFC1
:10060000F7FFEFF7EFF7FFEFF7EFF7FFEFF7EFF792
:10061000FFEFF7EFF7FFE8FBE8FAFFE8FAE8FAFF89
:10062000E7FAE7F9FFE7F9E7F9FFE7F9E6F8FFE6A8
:10063000F8E6F8FFE6E7E6E7FFE6E7E5E7FFE5E6E9
:10064000E5E6FFE5E6E5E6FFE4ECE4EFFFE4F1E4F0
:10065000F2FFE4F4E4F4FFE3F5E3F6FFE3F6E3F797
:10066000FFE3F7E2F8FFE2F8EAF8FFECF9EEF9FF52
:10067000F0F9F1F9FFF2F9F3F9FFF3F9F4F9FFF406
:10068000F9F5F9FFF5F9F5F9FFF6F9F6F9FFF6F9DD
:10069000F6F8FFA3A5826615A16861C9F5A02960D7
:1006A000CAD480EB40CDB2E1F4E1F3FFE2F2E3F132
:1006B000FFE4EFE6ECFFF8FAF5FAFFF3FAF1F7FFE3
:1006C000F0F6EEF4FFEDF3ECF2FFEBF1EAF0FFE908
:1006D000F0E8EFFFE8EEE7EEFFE6EDE6EDFFE5ED33
:1006E000E5ECFFE4ECE4ECFFE4EBE3EBFFE3EBE34E
:1006F000EBFF626A02F4FFE2F5E2F6FF61AB61EA4A
:1007000010812A816931816981E93181A9A1695208
:1007100081A9A1695281A9A1697281A9A1E9728106
:10072000A9A1E97281A9A1E97281A9A1695282A94D
:10073000A2695282A9A2693283AA83EA3283AA8477
:100740006A1284AA854AF285AB66CBD1876C48F4DD
:10075000FFEAF3ECF0FFE3FBE3FBFFE2FAE2FAFF70
:10076000E2FAE2FAFFE2F9E2F9FFE2F9E2F9FFE187
:10077000F8E1F8FFE1F8E1E414A1238142F380E21B
:1007800060C1F380E160C1D280A17276FFF2F6F120
:10079000F6FFF1F5F1F5FFF1F5F1F5FFF0F4F0F406
:1007A000FFF0F4F0F4FFEFF4EFF3FFEFF3EFF3FFFC
:1007B000EEF3EEF2FFEEF2EEF2FFEDF2EDF2FFED10
:1007C000F1EDF1FFECF1ECF1FFECF0ECF0FFECF00F
:1007D000EBF0FFEBF0EBEFFFEBEFEAEFFFEAEFEA16
:1007E000EEFFEAEEE9EEFFE9EEE9EEFFE9EDE8ED16
:1007F000FFE8EDE8EDFFEBF1E8F4FFE7F5E6CBD03D
:10080000856A64E91284A983681383E882E83382E5
:10081000E882E83382E881E83381E981E93381EADB
:1008200081EA3381EB82EB1382AC824DF282AE63BC
:100830004FB1E3F4E3F2FFE4F2E5F3FFE5F4E6F5AC
:10084000FFE7F6E8F6FFE9F7E9F7FFE7F8E6EA0C75
:10085000656984E92E63A883E84F8228A2685181E4
:1008600067A1675281A7A1675281E7A1675381E71A
:10087000A1675381E7A1675381E781E73381E8826C
:10088000E81382A88348F2836964CAD1852B46F4B1
:10089000FFE8F2EAEFFFEBF0E8F2FFE7F3E6CB8FD9
:1008A000852A45CAD184696449F1836963E9118263
:1008B000A982693282A981E93281A981E95281A99B
:1008C000A1695281A9A1695281A9A1695281A9A1F5
:1008D000695281A9A1695281A9A1695281AAA26A1A
:1008E0005282AAA26A5283AAA36B52846CA47AFF92
:1008F000E5FAE6F9FF876F8AEC31F0F9F0F8FFF0DE
:10090000F8F0F8FFEFF7EFF7FFEFF6EEF6FFEEF592
:10091000EEF5FFEDF4EDF3FFECF3EBF2FFEBF1EAB4
:10092000F0FFE9EFE8EEFFE7EDE5EBFFE4EAE1E8F1
:10093000FFE1E5E1E2FF20746F2000507265737300
:100940002000534554002B00736176650063686195
:100950006E6765007361766500534554006578697C
:1009600074004D454E550073657400534554006145
:100970006476616E6365004D454E550011241FBEBF
:10098000CFEFD8E0DEBFCDBF11E0A0E0B1E0EEE8F0
:10099000F9E502C005900D92AC3EB107D9F713E01E
:1009A000ACEEB1E001C01D92A131B107E1F70E94A8
:1009B000CB250C94C52C0C940000A0E0B0E0E3EE35
:1009C000F4E00C94712C00E010E00E940E1FDD2476
:1009D000CC24AA24BB24CC2009F03FC0E801C75C8A
:1009E000DD4F0F5F1F4FCE010E94AF2CE82E8FEF1F
:1009F000E81691F4DD2019F0CC24C3942EC087E0D2
:100A000090E00E94AF2C8093F0020E94571ACDB75D
:100A1000DEB7EAE00C948D2CDD2019F45801AE0C01
:100A2000B11C2E2D30E0C901880F991F820F931F32
:100A3000909581959F4F815C6D2D0E94041FFE2C27
:100A400007C0CE010E94AF2C60E00E941B1BFA94ED
:100A50002196FF20B1F70E0D111DD39488E0D81612
:100A600009F0B9CF84EF91E00E9433278501ADCF23
:100A70000F931F93CF93DF9388E090E00E94AF2CF9
:100A8000809324020E940E1F00E010E004C088E062
:100A9000602F0E94041FC12FD0E0CE0185589F4FC8
:100AA00060E00E94451BC658DF4FFE018491180F7D
:100AB0001F5F0F5F083059F791E000ED18E3809158
:100AC00013028823A1F180911302823089F08430CF
:100AD00019F0813051F518C0809124028F5F809306
:100AE0002402809124028933FCF0109324021CC05C
:100AF0008091240281508093240280912402803DC1
:100B00009CF40093240210C087E090E00E94AF2C78
:100B10008093F0020E940E1F82E68093F902DF911B
:100B2000CF911F910F91089591E010921302992394
:100B300031F26091240288E090E00E94B72C85E3B6
:100B400062E00E94041F8091240287FF03C082EEAE
:100B500090E002C080EE90E060E00E94451B809132
:100B60002402992787FD909597FF03C09095819562
:100B70009F4F959587959595879560E00E94AE204B
:100B80008EED90E060E00E94451B80912402282FAA
:100B9000332727FD309537FF03C0309521953F4F10
:100BA00023703070C90134E0880F991F3A95E1F73E
:100BB000821B60E00E94AE2090E081CF8091020114
:100BC0008150809302018823F1F485E08093020133
:100BD000809100018093EC0190910101980F909316
:100BE0000001903218F08FEF80930101992319F4DE
:100BF00081E08093010190E08091ED01882309F468
:100C000091E09093ED0108951F93182F80E060E02C
:100C10000E94041F8091CA02612F0E94AE20809121
:100C2000C902612F0E94AE2086E660E00E94041F88
:100C30008091CB02612F0E94AE208091C802612F6B
:100C40000E94AE201F9108950F931F93082F14E167
:100C5000812F67E00E94041F86E0602F0E94EC1A3B
:100C6000185E1437A9F71F910F910895DF92EF9244
:100C7000FF920F931F93E82E909100018091EC0159
:100C8000981718F4892F805A02C0892F815068E084
:100C900041E020E30E2D0E946D1B60E083E0D82E22
:100CA00015C080910001800F612F0E94041F809168
:100CB000ED018D9DC00111248F0D6E2D0E94EC1A47
:100CC000005F003671F7163039F0612FF62EF6947A
:100CD00000E0162F1F5FE5CF1F910F91FF90EF905F
:100CE000DF9008951F93182F80911E02882359F4D6
:100CF00080911F02882339F4909122028091EF01A4
:100D0000891709F44EC010921F0280911F02809330
:100D10001E028091EE01882309F043C081E0809398
:100D2000EE01809122028093EF018091E8020E94FF
:100D3000F1288093CA028091F3028093C9028091C6
:100D40002202833049F48091F7020E94F1288093B7
:100D5000CB028091ED021BC080912202813031F4E0
:100D600084E18093CB028091EC0211C08091F60265
:100D7000882339F48091FD028093CB028091F202A6
:100D800006C08091F2028093CB028091FD02809395
:100D9000C8028091EE0181508093EE01812F0E9464
:100DA00004061F9108951F93182F0E943606809104
:100DB000F802882321F48091F001882339F0812FF3
:100DC0000E9424068091F8028093F001812F0E94F6
:100DD00072061F9108950F931F93182F80E060E013
:100DE00040E820E4012F0E946D1B83E68093EF0111
:100DF000812F0E947206812F0E940406812F0E947B
:100E00003606812F0E9424061F910F91089581E0DC
:100E1000809300011092EC0180E00E94EB0608959F
:100E2000803819F4E0E0F0E027C087FF08C0819522
:100E30000E941007EE27FF27E81BF90B1DC0803426
:100E400019F4EFEFFFE718C0A82FBB27A7FDB09557
:100E500080343CF4AA0FBB1FAD5FBE4FED91FC91F7
:100E60000BC0E0E8F0E0EA1BFB0BEE0FFF1FED5FAD
:100E7000FE4F0190F081E02DCF010895805C0E942B
:100E800010070895FC0120813181C901861B970B51
:100E900081509B4F8F5F994018F471836083089550
:100EA000621773071CF42050354002C020503B4F9E
:100EB000318320830895A8E0B0E0E1E6F7E00C94E8
:100EC0006A2C5A8349831C830B83FE82ED827887C8
:100ED0006F83BC016901332420E089819A812C0150
:100EE000662457FC6094762C76C0AF80B884AC0C36
:100EF000BD1C89809A80860E971E91E0A9169AE300
:100F0000B90644F0D094C194D108D394A12C4AE3FB
:100F1000B42E0CC0E0E0AE16E2E0BE063CF4D09485
:100F2000C194D108D394A12C32E0B32EF0E08F16F7
:100F3000FFE69F0604F13FE660307307E4F47601B4
:100F40000027F7FC0095102F80E09FE6861B970B8B
:100F5000BC01882777FD8095982FA30192010E94FC
:100F60004E2CC801B7010E94DA2BEF81F885E60FFD
:100F7000F71F9F0123C031E083163DE093061CF567
:100F80008DE061307807FCF076010027F7FC0095D2
:100F9000102FE0E0FDE0E61BF70BBF01882777FD8F
:100FA0008095982FA30192010E944E2CC801B70191
:100FB0000E94DA2B2F813885260F371FEB81FC81A9
:100FC0003183208304C0222311F4339401C021E033
:100FD000B886AF82B401CB01815096408F5F9F46A7
:100FE00008F483CF2F813885ED81FE813183208302
:100FF000832D2896E1E10C94862CEF92FF920F93BB
:101000001F9380E00E94342AA0E0B0E0BC01CD0133
:1010100022E230E040E050E00E94DA2B2FEF3FE781
:1010200040E050E00E942C2C79018A0181E00E946E
:10103000342A2FE030E040E050E0E20EF31E041FBF
:10104000151F8295880F880F807C8E0D1F910F9140
:10105000FF90EF900895A0E0B0E0E1E3F8E00C9499
:10106000712C5C016B01EA018091DA029091DB0244
:101070006091D2027091D3024091D6025091D70272
:10108000E091D002F091D102222389F09F018501E5
:1010900076010E945B078093D4021092D502F5017D
:1010A000808191819983888380911E0210C09F0165
:1010B000860175010E945B078093D4021092D502CD
:1010C000F601808191819983888380911F02882312
:1010D00011F021E001C020E0888199818C0100504D
:1010E0001440198308832223E1F0F5E100341F073F
:1010F00018F480509C4E13C02AE20138120718F0F1
:1011000080509C410CC082E00E94342A892B19F443
:1011100080E098EE02C080E098E1800F911F9983F3
:1011200088838091D402CDB7DEB7EAE00C948D2C91
:10113000AF92CF92DF92EF92FF920F931F93162FF1
:10114000F42ED22E882389F48091D9026091E10295
:1011500044E024E0012FE4E0EE2E7AE0C72E50E1D7
:10116000A52E0E94862A882331F0812F64E04F2D1E
:101170002D2D0E94912B1F910F91FF90EF90DF90EA
:10118000CF90AF9008950F931F93182F062F809143
:10119000CA026AE00E94F92B482F812F6EE1202FAE
:1011A0000E9498088091CA026AE00E94F92B812F60
:1011B0006DE2492F202F0E9498088091CB026AE0AF
:1011C0000E94F92B482F812F66E4202F0E94980857
:1011D0008091CB026AE00E94F92B812F65E5492FAF
:1011E000202F0E9498081F910F9108950F931F932D
:1011F000082F10E08FE3612F0E94041F002311F0DD
:1012000080EF01C08FE00E94AB1E1F5F173091F787
:101210008FE367E00E94041F002311F080E201C009
:101220008FEC0E94AB1E1F910F91089590912202A6
:101230008091F201981739F081E08093F10180915B
:1012400022028093F20180912202813059F1813093
:1012500030F08230C9F1833009F048C03DC0809140
:101260001E02882321F480911F02882391F080912F
:101270001F02882339F08091F4020E94F1288093A4
:10128000CA0204C080911E02882381F18091EA0283
:1012900020C08091E8020E94F1288093CA028091C8
:1012A000F30217C08091F602882339F48091FD0281
:1012B0008093CA028091F2020CC08091F202809366
:1012C000CA028091FD0205C084E18093CA02809128
:1012D000EC028093CB0208958091F7020E94F128DE
:1012E0008093CA028091ED028093CB020895AF9261
:1012F000CF92EF92FF920F931F93F82E0E94160940
:101300008091D9026091E10244E024E00F2D0E9417
:101310006D1B10E0FF2009F411E08091DB02609169
:10132000D30244E024E0012F0E946D1B8091D9027A
:101330006091E10244E024E00FE3EE24CC24C39466
:1013400030E4A32E0E94862A882319F08F2D0E9454
:10135000F6082091CC023091CD028091CE0290917E
:10136000CF022817390741F08AE06091CD0243E0AF
:101370002CE00F2D0E946D1B8AE06091CF0243E0AC
:101380002CE0012F0E946D1B2091DE023091DF02C4
:101390008091DC029091DD022817390741F083E744
:1013A0006091DF0243E02CE00F2D0E946D1B83E76C
:1013B0006091DD0243E02CE0012F0E946D1B8091C3
:1013C000D9026091E10244E024E003E7E090DD020D
:1013D00093E0C92EBCE0AB2E0E94862A882341F000
:1013E00083E76091DD0243E02CE0012F0E946D1B3A
:1013F0008091D9026091E10244E024E00AE0E090AB
:10140000CF02A3E0CA2EFCE0AF2E0E94862A8823DA
:1014100041F08AE06091CF0243E02CE0012F0E946E
:101420006D1B109270008091F101882311F01092D1
:10143000F10181E0809370006F2D0E94C3081F911D
:101440000F91FF90EF90CF90AF900895AF92CF9211
:10145000EF920F931F938091DA029091DB029093A9
:10146000D9028093D8022091D2023091D3023093D6
:10147000E1022093E0026091D6027091D702860FBC
:10148000971F9093DB028093DA024091D002509133
:10149000D102CA01820F931F9093D3028093D2028C
:1014A00081509A4374F080E09AE39093D302809342
:1014B000D20288279927841B950B9093D1028093A1
:1014C000D0028091D2029091D302805092408CF44D
:1014D00080E092E09093D3028093D2028091D00278
:1014E0009091D102909581959F4F9093D1028093D6
:1014F000D0028091DB0281508C3750F4672B09F0C9
:1015000082C08091D0029091D102892B09F07BC0DA
:1015100080E09EE39093DB028093DA0280E09EE11C
:101520009093D3028093D2020E94FD07182F0E944D
:101530003E07AA2797FDA095BA2FBC01CD0120E058
:1015400035E040E050E00E94DA2B2FEF3FE740E02B
:1015500050E00E944E2C3093D7022093D602812F68
:101560000E941007AA2797FDA095BA2FBC01CD01B4
:1015700020E035E040E050E00E94DA2B2FEF3FE71B
:1015800040E050E00E944E2C3093D1022093D002D4
:101590006091FA012091F901261B8AE043E000E006
:1015A0000E946D1B6091FC012091FB01261B83E7CB
:1015B00043E00E946D1B1092FB011092FC011092FF
:1015C000F9011092FA0181E08093F10110921F025B
:1015D00080911F0280931E0220E08091D60290919C
:1015E000D702181619060CF421E083EF91E065EF9D
:1015F00071E047EF51E00E942B088093D4021092D3
:10160000D5020E9416098091CE029091CF0290934C
:10161000CD028093CC028091DC029091DD02909308
:10162000DF028093DE028091D6029091D70297FF6D
:1016300019C08091DA029091DB02805090447CF5D1
:1016400080911E02882329F06091F7017091F801C2
:1016500006C06091D2027091D302605074408EEC4B
:1016600092E01AC0892B19F18091DA029091DB0285
:1016700081509044E4F080911F02882329F060910A
:10168000F7017091F80106C06091D2027091D30207
:10169000605074408CED92E00E94420715C083EFC9
:1016A00091E065EF71E047EF51E021E007C083EF83
:1016B00091E065EF71E047EF51E020E00E942B08D8
:1016C0008093D4021092D5028091CE029091CF02E5
:1016D0008150924034F481E092E09093CF02809365
:1016E000CE028091DC029091DD028150924034F470
:1016F00081E092E09093DD028093DC028091CE0243
:101700009091CF028050924334F08FEF91E3909309
:10171000CF028093CE028091DC029091DD02805056
:10172000924334F08FEF91E39093DD028093DC02DB
:101730008091D6029091D7021816190614F580915F
:10174000DB026091D30244E024E003E7E090DD0295
:10175000F3E0CF2EECE0AE2E0E94862A882389F09B
:101760008091D6029091D702909581959F4F90934A
:10177000D7028093D60280E09FE69093DB028093AD
:10178000DA028091D6029091D70297FF22C0809111
:10179000DB026091D30244E024E00AE0E090CF0253
:1017A00073E0C72E5CE0A52E0E94862A882389F06C
:1017B0008091D6029091D702909581959F4F9093FA
:1017C000D7028093D60280E09DE09093DB02809365
:1017D000DA021F910F91EF90CF90AF900895FF9292
:1017E0000F931F93F82E80E060E040E820E40F2D77
:1017F0000E946D1B10E0FF2009F411E080E060E022
:1018000040E822E0012F0E946D1B80E06EE340E87B
:1018100022E00E946D1B8AE06091CF0243E02CE041
:101820000E946D1B83E76091DD0243E02CE00E9483
:101830006D1B0E9416098091CA026AE00E94F92B72
:10184000482F8EE164E02F2D0E94912B8091CA02D7
:101850006AE00E94F92B8DE264E0492F2F2D0E944F
:10186000912B8091CB026AE00E94F92B482F86E4ED
:1018700064E02F2D0E94912B8091CB026AE00E94A0
:10188000F92B85E564E0492F2F2D0E94912B8F2D98
:101890000E94F6081F910F91FF90089580E099E152
:1018A0009093DB028093DA029093D9028093D8025E
:1018B0009093D3028093D2029093E1028093E0024E
:1018C0009093CF028093CE029093CD028093CC026E
:1018D0009093DD028093DC029093DF028093DE021E
:1018E0000E942B2A1092D1021092D0021092D7029D
:1018F0001092D60280E00E94EF0B08958091FC02C6
:10190000882341F080911E02823021F080911F02D5
:10191000823031F410921F0280911F0280931E02C8
:101920000895A1E0B0E0E7E9FCE00C94732CE82E08
:10193000F42E122FC02E962F9E5F1450D62EDA94BE
:1019400000E0CC2009F401E08E2D692F4F2D212FCE
:1019500099830E946D1BE394998191508EEFF80E4C
:101960001E5F9D1569F72196E8E00C948F2C0F936C
:10197000362F022F90E0FC01EE0FFF1FE80FF91F3A
:10198000ED57FE4F8081882339F481816281640F95
:10199000830F42E126E006C081816281640F830FDC
:1019A00046E029E10E94910C0F910895A0E0B0E07B
:1019B000ECEDFCE00C94732CC82ED62E022F10E018
:1019C000C7E0D0E0E42EFF24C7010C2E02C095959D
:1019D00087950A94E2F780FF05C0812F6C2D4D2D6D
:1019E000202F07C020E0002309F421E0812F6C2D77
:1019F0004D2D0E94B70C1F5F2197173029F7CDB7E7
:101A0000DEB7E8E00C948F2C0F93082F80E060E0A5
:101A100040E820E40E946D1B0F9108950F9380E031
:101A200060E040E820E400E00E946D1B0F91089503
:101A3000FF920F931F93182F062FF22E842F90E002
:101A40004A3028F4815D9D4F0E94AF2C04C08C5415
:101A50009E4F0E94AF2C482F812F602F2F2D0E9468
:101A6000D60C1F910F91FF900895FF920F931F9333
:101A7000F82E142F062F0F7767FF08C020E04423AD
:101A800009F421E080E060E048E008C0802F6AE0CF
:101A90000E94F92B482F8F2D60E0212F0E94180DF6
:101AA000802F6AE00E94F92B8F2D825E60E0492F23
:101AB000212F0E94180D1F910F91FF90089520E093
:101AC000442309F421E044E00E94431C0895EF926E
:101AD000FF920F931F93082F809122028823C9F051
:101AE000809122028330A9F0102F011111E080E4CF
:101AF00065E144E0212F0E94431C80E46AE244E057
:101B0000212F0E94431C80E466E044E0212F0E94C4
:101B1000431C80912202823069F480E064E1402F0E
:101B20000E94350D8091EC0264E60E94F92B88E456
:101B3000692F17C0809122028130B9F48091F6029A
:101B4000882329F46091FD021091F20204C0609193
:101B5000F2021091FD0280E0402F0E94350D88E4D2
:101B6000612F402F0E94350D67C08091220288238B
:101B700029F080912202833009F05EC08091220218
:101B8000833029F41091F702E090ED0204C0109127
:101B9000E802E090F3028091EB02882399F4812F10
:101BA0000E94F128F82E1C3020F420E0002321F4BC
:101BB00002C020E0011121E080E466E044E00E94E0
:101BC000431C09C020E0011121E080E466E044E00C
:101BD0000E94431CF12E89E08F1510F060E801C0CF
:101BE00060E06F2980E0402F0E94350D88E46E2D63
:101BF000402F0E94350D809120028823E9F08091CA
:101C0000FE028170809320028091200220E08823D0
:101C100009F421E080E465E144E00E94431C8091E6
:101C2000200220E0882309F421E080E46AE244E015
:101C30000E94431C109220021F910F91FF90EF9081
:101C40000895462F282F30E0862F6AE00E94F92B56
:101C5000A8E9B1E0FD01E20FF31F80832F5F3F4F42
:101C6000842F0E94F92BA20FB31F9C93089580919B
:101C7000FC02882341F080911E02823021F0809185
:101C80001F02823031F410921F0280911F02809354
:101C90001E0208950F93502FE82FF0E030E080915E
:101CA0000002882369F48091FE01E81BF109F7FF27
:101CB00011C02E0F3F1F37FD19C0E0E0F0E00DC04E
:101CC000C9018E0F9F1F8038910524F020E830E075
:101CD0002E1B3F0BE038F1054CF400E0442309F4DF
:101CE00001E08E2F422F252F0E946D1B0F9108952A
:101CF0000F93362F90E0FC01EE0FFF1FE80FF91F46
:101D0000E555FE4F8081882341F481816281640F13
:101D1000830F422F22E106E007C081816281640FB8
:101D2000830F422F26E000E20E944A0E0F91089591
:101D3000A0E0B0E0EEE9FEE00C94732CC82ED62EA5
:101D4000022F10E0C7E0D0E0E42EFF24C7010C2EE4
:101D500002C0959587950A94E2F780FF06C0812F0F
:101D60006C2D4D2D202F0E94780E1F5F219717306C
:101D700069F7CDB7DEB7E8E00C948F2C0F93625073
:101D800024E004E00E944A0E0F910895CF92DF9262
:101D9000EF92FF920F931F93182FC62EF42EE22E70
:101DA0008093000284E1809301028AE3481719F0CE
:101DB0008DE2481719F486E0809301022091010218
:101DC000112341F48091FE01422F481B14168CF020
:101DD000DD2440C0422F812F992787FD909533271E
:101DE00027FD3095820F931F8038910514F040E84D
:101DF000411BD42E812F60E020E40E2D0E946D1B2C
:101E000089E08F1568F08F2D90E0815D9D4F0E94D5
:101E1000AF2C482F812F6C2D2E2D0E94980E1AC0AA
:101E20008AE3F81641F4812F60E14E2D0E94BE0E28
:101E3000812F6FE20CC08DE2F81661F4812F60E013
:101E40004D2D20E40E2D0E946D1B812F6FE14E2D34
:101E50000E94BE0E8D2D1F910F91FF90EF90DF908D
:101E6000CF90089580912202833019F48091F70277
:101E700002C08091E8020E94F128682F80E00E9451
:101E8000210E80912202833019F46091ED0202C08C
:101E90006091F30283E00E94210E80912202833040
:101EA00011F460E002C06091FE0286E00E94210E03
:101EB0008091F602882311F08CE001C089E06091E6
:101EC000FD020E94210E8091F602882311F089E024
:101ED00001C08CE06091F2020E94210E6091EC0240
:101EE0008FE00E94210E0895FF920F931F93F82E0A
:101EF000809102028F5F80930202863008F458C0FE
:101F0000109202020091FF0180912202833059F465
:101F100080912102882339F0109221028091FF01E3
:101F20008091FF010AC080912202833031F48091B8
:101F3000FF01882311F4109222020E94320F10E058
:101F400035C0E02FF0E0E856FE4F40810F5F812F53
:101F500060E02F2D0E94C60E282F023108F000E00D
:101F6000112319F52223E1F49091FE0180910102E1
:101F7000891740F48091FE0190910102891B8093A2
:101F8000FE0102C01092FE018091FF018F5F8093DD
:101F9000FF018091FF01823140F01092FF0105C0E6
:101FA0008091FE018B5F8093FE01120F17FFC9CF56
:101FB0001F910F91FF9008950F931F93182F8091F9
:101FC000F802882331F460E040E820E4012F0E9409
:101FD0006D1B0E94320F812F0E94740F1F910F9171
:101FE00008951092FE011092FF0180E00E94DC0F24
:101FF00008950F931F93CF93DF93DA01E901262F02
:10200000269595E0299F8001112490EA899FC001BF
:102010001124080F191F0A501D4F98012E5F3F4FC2
:10202000A8014D5F5F4F60FF22C0F9012491FA01C2
:102030008491F8013496E4912F712C93282F2F71FD
:1020400011962C9311972E2F2F7112962C93129775
:1020500090E0807690709595879595958795E29517
:10206000E695E770E82B1396EC93139729C0F801D7
:10207000949131966491F9012491FA013491892F58
:102080008F718C93862F8F7111968C9311979695E3
:10209000969596959C71862F8295869586958370E8
:1020A000982B12969C9312976695607122952E70CC
:1020B000622B331F3327331F632B13966C931397B5
:1020C00018828C918F3111F081E0888312968C9167
:1020D0008F3119F088818F5F8883DF91CF911F91B5
:1020E0000F910895A0E0B0E0E8E7F0E10C94732CC4
:1020F000C82EF62ED22EE02EF694F694F694EA012F
:1021000010E019C00881812F6CE10E94F92B9923FE
:1021100041F4812F0E94F92B682F6F0D8C2D0E94A6
:10212000041FEE2019F0802F809501C0802F0E949F
:10213000AB1E1F5F21961D1528F3CDB7DEB7E8E073
:102140000C948F2CA0EFB0E0E8EAF0E10C94692C3D
:10215000C451DF4F8883CC5ED040C351DF4F6883CA
:10216000CD5ED040C251DF4F4883CE5ED040C151DA
:10217000DF4F2883CF5ED040C051DF4F0883C05F60
:10218000D040FE013B9680EEDF011D928A95E9F773
:10219000CC24DD2427E0822E912C8C0E9D1E1C2D3C
:1021A000C251DF4FB881CE5ED040BF3F39F41E82AE
:1021B0001D821C821B82E2E0E9830EC0C251DF4F08
:1021C0008881CE5ED0406C2DAE014D5F5F4F9E0189
:1021D0002F5F3F4F0E94F90FC151DF4F8881CF5EC3
:1021E000D040612FA4019E012E5F3F4F0E94F90F46
:1021F0008A812981281708F4282FFB81C551DF4FD8
:10220000F883CB5ED0402C8080910602A82EBB24A0
:102210001695169516954CE1149F30011124C601B0
:1022200087709070A1E0B0E002C0AA0FBB1F8A9532
:10223000E2F73A2E4F805884840193E0E92EF12C86
:10224000EC0EFD1E622F70E0660F771F680D791D82
:1022500057C0F70120812F3111F0518106C0C551BF
:10226000DF4F2881CB5ED040522DD8018C918F3129
:10227000B9F111964C9190E030E0821B930B8A9D4E
:10228000F0018B9DF00D9A9DF00D11247096B5E034
:10229000F695E795BA95E1F7E20FF31FF070842FFA
:1022A00090E0252F30E0821B930B8A9DA0018B9D2F
:1022B000500D9A9D500D1124405F5F4FA5E056953B
:1022C0004795AA95E1F7420F531F5070D301AE0F07
:1022D000BF1F8BE090E08C0F9D1FA80FB91F07C098
:1022E000842D452DC8CF8C9183298D933196E41789
:1022F000F507C8F30E5F1F4FA2E0B0E0EA0EFB1E29
:102300000617170709F0A5CF0894C11CD11CB0E42B
:10231000CB16D10409F043CFC451DF4F8881CC5E86
:10232000D040C351DF4F6881CD5ED040AE01455FE4
:102330005F4F20EEC051DF4F0881C05FD0400E9448
:102340007210C051DF4FE2E10C94852C0F93342FB3
:10235000022F90E290930602232F0E94A2100F9169
:102360000895EF92FF920F931F93E82E162FFF24EC
:10237000442311F4FF24F39413508E2D8150612FC8
:1023800042E026E00F2D0E946D1B1F5F8E2D8250B4
:10239000612F44E024E00E946D1B1F5F8E2D83504F
:1023A000612F46E022E00E946D1B1F910F91FF906C
:1023B000EF9008951F93182F80E464E1412F0E944D
:1023C000B11180E46AE3412F0E94B1111F91089579
:1023D00080912202882359F480912002882339F0C9
:1023E000109220028091FE0281700E94DA110895FD
:1023F0000F931F93CF93DF93182F8091220288238E
:1024000029F080912202833009F0C8C09091220205
:1024100080911002891709F450C08091030288232B
:1024200009F04BC080910B028093070280910C024F
:102430008093080280910D028093090280910E0220
:1024400080930A0280912202882341F48091E8025D
:102450000E94F128382F2091F30207C08091F702E3
:102460000E94F128382F2091ED02822F6AE00E940D
:10247000F92B90930E02822F0E94F92B80930D026C
:10248000832F0E94F92B80930B02832F0E94F92B3C
:1024900090930C02812F0E94DA118CE363E247E0F3
:1024A00025E0012F0E946D1B809122028093100273
:1024B000809103028F5F8093030280912202882320
:1024C00009F046C080911E02882321F480911F02EA
:1024D0008823F1F1809103028823D1F581E0809374
:1024E000030280910E0280930A028091F3026AE057
:1024F0000E94F92B90930E0280910D0280930902A5
:102500008091F3020E94F92B80930D0280911F02AB
:102510008823C1F08091E8020E94F128282F809141
:102520000B028093070280910C0280930802822F95
:102530006AE00E94F92B80930B02822F0E94F92BF4
:1025400090930C0210921F0280911F0280931E0232
:1025500080910F02811709F474C0809103028823CF
:1025600009F06FC060E040E820E4012F0E946D1B7D
:10257000812F0E94DA11C0E0D0E0FE01E054FE4F4E
:10258000DE01A55FBD4F808160E04C91212F0E944C
:10259000A6112196C430D10581F753C000912202C3
:1025A000013009F051C090912202809110028917E8
:1025B00009F447C083EF90E061E00E9467278091B3
:1025C00003028823F1F50093030280912202809395
:1025D000100280910B028093070280910C0280937D
:1025E000080280910D028093090280910E0280936F
:1025F0000A028091F602882329F42091FD0230918D
:10260000F20204C02091F2023091FD02822F6AE0B2
:102610000E94F92B80930B02822F0E94F92B90933A
:102620000C02832F0E94F92B80930D02832F0E94AE
:10263000F92B90930E0280E0112309F481E00E94AF
:10264000DA11C0E0D0E04EC0009122020230C9F79A
:102650009091220280911002891799F38DEE90E0FB
:1026600061E00E94672780910302882351F781E08F
:102670008093030288EE90E061E00E9467278091DA
:1026800022028093100280910B02809307028091B6
:102690000C028093080280910D02809309028091C0
:1026A0000E0280930A0200930B0210920C0280919A
:1026B000EC026AE00E94F92B80930D028091EC02FB
:1026C0000E94F92B90930E0280E0112309F481E01F
:1026D0000E94DA118CE363E247E025E0012F0E94BB
:1026E0006D1BAFCFFE01E95FFD4F4081FE01E55F4D
:1026F000FD4F2081421741F0FE01E054FE4F8081E2
:1027000060E0012F0E94A2102196C430D10551F73C
:1027100090910302992389F1809106028F5F809343
:102720000602813250F11092060280910B028093D2
:10273000070280910C028093080280910D02809321
:10274000090280910E0280930A0291509093030235
:1027500080912202813059F400E0112309F401E054
:102760008CE363E247E025E00E946D1B06C0809188
:102770002202823011F08091220210930F02DF9129
:10278000CF911F910F9108950F931F93CF93DF93D4
:10279000182F80E060E040E820E4012F0E946D1BCC
:1027A000109206028091E8020E94F128382F2091B1
:1027B000F3028FEF80930A0280930902809308024C
:1027C00080930702822F6AE00E94F92B90930E02F9
:1027D000822F0E94F92B80930D02832F0E94F92BE8
:1027E00090930C02832F0E94F92B80930B0217C049
:1027F000C0E0D0E0FE01E054FE4FDE01A95FBD4F16
:102800009E01255F3D4F808160E04C91F901208160
:10281000012F0E94A2102196C430D10559F7809152
:1028200006028F5F809306028150813208F389EFA0
:1028300090E060E00E94672780910B02809307027E
:1028400080910C028093080280910D02809309020E
:1028500080910E0280930A02812F0E94DA11109259
:102860000602DF91CF911F910F91089580E00E94A1
:10287000C413089526982E9A81E080936800EBE6B1
:10288000F0E080818064808382E080937C001092FD
:102890007B00EAE7F0E08EE88083808180648083BB
:1028A000089580917A00877F80937A0080917A00E2
:1028B000806480937A0080917A0084FFFCCF20911D
:1028C000780030917900C90108951F920F920FB6D8
:1028D0000F9211242F933F934F935F936F937F93A6
:1028E0008F939F93AF93BF93EF93FF9378940E943E
:1028F0003D20FF91EF91BF91AF919F918F917F917B
:102900006F915F914F913F912F910F900FBE0F905C
:102910001F9018951F920F920FB60F9211242F93AC
:102920003F934F935F936F937F938F939F93AF9357
:10293000BF93EF93FF937894809178009091790002
:1029400022E0803E920728F01092140210921102A9
:102950004AC022E083369207F0F08091110288236A
:10296000A1F48AE090E00E9433270E94511482561D
:1029700092408E379105B8F582E08093150284E08D
:1029800080931102809313022EC080911502882338
:1029900051F584E026C08F50914088F0809111025B
:1029A000882309F58AE090E00E9433270E945114A1
:1029B0008E50914085559140B0F482E00EC08091D8
:1029C0001102882381F48AE090E00E9433270E945C
:1029D00051148F50914038F481E08093130280931A
:1029E00011028093140280917A00886480937A00A7
:1029F000FF91EF91BF91AF919F918F917F916F91D7
:102A00005F914F913F912F910F900FBE0F901F90AC
:102A100018951F93182F8BE260E00E94041F20E09E
:102A200030E090E006C0F901E95CFE4F2F5F3F4FB8
:102A300094918091F002981719F09F3FA1F708C078
:102A40009F3F31F0C901895C9E4F612F0E94451B59
:102A50001F9108951F93182F88E064E00E94041FBF
:102A60008DEF91E060E00E94451B8091F60220917D
:102A7000EB0290E0880F991F820F911D2DE030E04E
:102A8000AC01429FC001439F900D529F900D1124B5
:102A90008D5F9E4F612F0E94451B1F9108950F93DC
:102AA0001F93CF93DF93182F062F8091EB0288237B
:102AB00071F584E761E00E94041F1C3010F080E58E
:102AC00001C081E460E00E941B1B8DE460E00E9475
:102AD0001B1B80E561E00E94041F812F90E0479658
:102AE0006CE070E00E94192CEC018930910524F013
:102AF0009C012F5F822F10C080E260E00E941B1BB0
:102B00009E012F5C822F602F0E941B1B08C080E556
:102B100061E00E94041F812F602F0E94AE20DF9190
:102B2000CF911F910F9108950F931F93CF93DF9330
:102B3000082F162F8091EB028823D1F4802F90E08C
:102B400047966CE070E00E94192CEC0189309105E9
:102B500024F09C012F5F822F14C080E260E00E946D
:102B60001B1B9E012F5C822F612F0E941B1B0CC020
:102B700080E260E00E941B1B80E260E00E941B1B61
:102B8000802F612F0E94AE20DF91CF911F910F9176
:102B900008950E94AE208FE260E00E941B1B089502
:102BA000EF92FF920F931F93F82E162FE42E022F11
:102BB00088E063E00E94041F8EE492E060E00E94DF
:102BC000451B8091F602882391F488E492E060E04E
:102BD0000E94451B60E00B3009F461E08F2D0E94DC
:102BE000C91560E00C3009F461E0812F15C08091B7
:102BF000F602813099F482E492E060E00E94451B85
:102C000060E00C3009F461E0812F0E94C91560E09A
:102C10000B3009F461E08F2D0E94C91510E00D30D2
:102C200009F411E084E1612F0E94AE208E2D612F06
:102C30000E94AE201F910F91FF90EF9008951F9377
:102C4000182F88E065E00E94041F8AE592E060E0AA
:102C50000E94451B8091B40060E0193609F461E0E0
:102C60000E94AE201F910895DF92EF92FF920F9382
:102C70001F93E82EF62ED42E122F88E062E00E94D9
:102C8000041F8AE692E060E00E94451B00E01536D2
:102C900009F401E08E2D602F0E9494158AE360E014
:102CA0000E941B1B60E0163609F461E08F2D0E9424
:102CB000AE208AE360E00E941B1B60E0173609F437
:102CC00061E08D2D0E94AE208091EB02882369F493
:102CD00080E260E00E941B1B8BE08E1510F480E503
:102CE00001C081E4602F0E941B1B1F910F91FF9078
:102CF000EF90DF9008951F93182F88E061E00E9405
:102D0000041F85E792E060E00E94451B8091F70276
:102D100060E0153609F461E00E944F158AE360E037
:102D20000E941B1B8091ED0260E0163609F461E001
:102D30000E94AE201F9108958B3029F487E392E022
:102D40006EE272E00DC08C3029F483E292E06AE119
:102D500072E006C08D3039F48FE092E066E072E0F8
:102D60000E946A2B08950E94862B08951F93182FA6
:102D7000809117028F5F809317020E940E1F88E0D8
:102D800060E00E94041F84E592E060E00E94451B21
:102D900080E00E94091584E00E947B168091E80281
:102DA0006091F3024091FE0223E00E94341680916C
:102DB000FD026091F2024091EC0225E00E94D015E4
:102DC00080E00E942A1586E00E941F168091F90279
:102DD000863019F40E947B2B02C00E94862B110FB3
:102DE000110F110F1D5F80E0612F47E00E94A325A6
:102DF000809117028150809317021F9108950E94BD
:102E0000B6168AE0809316028091F9020895CF9257
:102E1000DF92EF92FF920F931F9382E00E94FF16C2
:102E2000082F1091E802D090F302F090FE028DC0BE
:102E30008091130281FF45C0109213028091170206
:102E40008F5F80931702033041F48BEC91E062ECCA
:102E500071E00E946A2B05E629C0053641F487EB34
:102E600091E06EEA71E00E946A2B06E61FC006360A
:102E700041F483EA91E06AE971E00E946A2B07E677
:102E800015C00E94862B0091F202E090FD02C090D6
:102E9000EC028F2D6D2D412F20E00E94F622109321
:102EA000E802D092F302F092FE0203E0812F6D2D32
:102EB0004F2D202F0E94341680911702815080934D
:102EC00017028091130282FD04C08091140282FFD8
:102ED0003CC010921302809117028F5F80931702FB
:102EE000053659F4812F90E0019668E170E00E9468
:102EF000192C182F8093E80215C0063649F48D2D41
:102F000090E001966CE370E00E94192CD82E0AC064
:102F1000073641F48F2D90E001966CE370E00E943B
:102F2000192CF82E812F6D2D4F2D202F0E94341635
:102F3000809117028150809317028091140282FFC2
:102F400004C088EC90E00E9433270E94E92A88237D
:102F500009F46ECF1F910F91FF90EF90DF90CF900B
:102F600008951F9381E00E94FF16182F6CC0809176
:102F7000130281FF26C010921302809117028F5F07
:102F800080931702143041F482EF91E069EE71E012
:102F90000E946A2B15E60DC0153641F48EED91E0C6
:102FA00065ED71E00E946A2B16E603C00E94862B35
:102FB00014E0812F0E947B1680911702815080932C
:102FC00017028091130282FD04C08091140282FFD7
:102FD0003AC010921302809117028F5F80931702FC
:102FE000153679F48091F70290E0019668E170E07F
:102FF0000E94192C8093F7026091F70281E090E023
:1030000010C0163681F48091ED0290E001966CE3D9
:1030100070E00E94192C8093ED026091ED0282E035
:1030200090E00E94B72C812F0E947B16809117029E
:103030008150809317028091140282FF04C088ECB3
:1030400090E00E9433270E94E92A882309F48FCF59
:103050001F9108951F9385E00E94FF16182F46C008
:103060008091130281FF18C0109213028091170201
:103070008F5F80931702163021F40E94742B19E69B
:1030800003C00E947B2B16E0812F0E941F168091A7
:1030900017028150809317028091130282FD04C0B1
:1030A0008091140282FF22C0109213021936F1F4AB
:1030B0008091B4008F5F8093B4008091B40081311F
:1030C00010F01092B400809117028F5F8093170266
:1030D00089E60E941F168091170281508093170283
:1030E0006091B40083E090E00E94B72C0E94E92A2E
:1030F000882309F4B5CF1F9108958F929F92AF92C4
:10310000BF92CF92EF920F931F93DF93CF9300D094
:10311000CDB7DEB783E00E94FF16082F8091F20240
:1031200089838091FD028A831091EC0242E0842E13
:10313000912C8C0E9D1E5E010894A11CB11C85C0B3
:103140008091130281FF43C01092130280911702F5
:103150008F5F80931702053031F4E091F602F0E0C2
:10316000EC53FE4F07C00B3039F4E091F602F0E06B
:10317000EA53FE4F00811DC00C3031F4E091F6029D
:10318000F0E0E853FE4FF6CF8091FE026091F3022B
:103190004091E80220E00981EA80C12E0E94F622D7
:1031A0001093EC028A818093FD0289818093F20260
:1031B00005E0802F0E949C168A816981412F202F73
:1031C0000E94D01580911702815080931702809140
:1031D000130282FD04C08091140282FF36C0109257
:1031E0001302809117028F5F809317020B3021F436
:1031F0008A818F5F8A8310C00C3021F489818F5FB0
:1032000089830AC00D3041F4812F90E0019664E675
:1032100070E00E94192C182FC401B501412F50E015
:103220000E94B02A8A816981412F202F0E94D015E7
:10323000809117028150809317028091140282FFBF
:1032400004C088EC90E00E9433270E94E92A88237A
:1032500009F476CF0F900F90CF91DF911F910F91CE
:10326000EF90CF90BF90AF909F908F9008951F9355
:1032700084E00E94FF16182F60C08091130281FF26
:103280001BC010921302809117028F5F8093170268
:10329000183039F481E00E942A150E94742B18E638
:1032A00006C080E00E942A150E94862B18E08091BB
:1032B00017028150809317028091130282FD04C08F
:1032C0008091140282FF39C0109213021836A9F5BA
:1032D0008091EB02882359F08091F6028F5F8093F2
:1032E000F6028091F602823010F01092F602809180
:1032F000EB0290E0882309F491E09093EB02809137
:1033000017028F5F8093170284E00E94B6160E9416
:10331000742B81E00E942A158091170281508093BE
:1033200017026091F60284E090E00E94B72C609151
:10333000EB0285E090E00E94B72C0E94E92A8823E6
:1033400009F49BCF1F9108950F931F9387E090E09E
:103350000E94AF2C8093F00280E00E94FF16182F8D
:1033600002ED5EC08091130281FF29C0109213020A
:10337000809117028F5F80931702183C61F481E0FF
:103380000E9409150E94742B80911702815080932E
:10339000170219EC14C080E00E9409150E94862BC8
:1033A0001092FC021092F9028091F002893DE8F53A
:1033B0006091F00287E090E00E94B72C36C08091C7
:1033C000130282FD04C08091140282FF29C0109272
:1033D0001302193C29F58091F0028F5F8093F0026F
:1033E0008091F0028B3D10F00093F0028091170263
:1033F0008F5F8093170280E00E94B6160E94742BA4
:1034000081E00E9409158091170281508093170274
:103410008091140282FF04C088EC90E00E94332760
:103420000E94E92A882309F49DCF1F910F910895E6
:103430008091F002843D61F0853D28F4823D59F091
:10344000833DA1F40BC0853D61F0863D79F40CC04D
:103450000E94260A08950E94DE0508950E947E0CAF
:1034600008950E94E81108950E94370E08959091E2
:10347000F002943D61F0953D28F4923D59F0933D62
:10348000A9F40BC0953D61F0963D81F40CC00E94FB
:10349000EF0B08950E94EB0608950E94040D089515
:1034A0000E94C413089590E00E94DC0F08951F93BA
:1034B0001FE08091F00290E0FC01E25DF040E93015
:1034C000F10538F5EC5CFF4F0C94A02C0E944E0CDB
:1034D00020C00E9407071DC00E940E0D1AC00E9446
:1034E000361417C00E94F10F14C01093FC020E9402
:1034F0002B2A80E00E94342A65E070E00E94052CAF
:103500008E528093F002D5CF0E94380502C00E94EF
:10351000DD041F9108951F93182F8091FC028823CA
:1035200081F180911E02813021F080911F02813053
:1035300041F580911E02882319F082E080931E02DB
:1035400080911F02882319F082E080931F028091EE
:10355000FC0281508093FC028091FC02882389F454
:103560008FE08093FC028091F0028F5F8093F002E5
:103570008091F002873D19F482ED8093F0020E9461
:10358000571A8091F002843D61F0853D28F4823D18
:1035900061F0833DD1F40DC0853D79F0863DA9F4FD
:1035A00010C0812F0E94770910C0812F0E94D3067E
:1035B0000CC0812F0E94670D08C0812F0E94F81156
:1035C00004C0812F90E00E94740F1F9108958B5CBE
:1035D0009F4F0E94AF2C0895FF920F931F93CF939C
:1035E000DF93482FF62E30E020E007C08D579D4F27
:1035F000FC0184918F5F280F3F5F822F90E034178A
:10360000A8F3FC01ED57FD4F0491EC01CC57DD4FC1
:1036100010E00AC0FE018491F1E0FF1609F48095E4
:103620000E94AB1E1F5F21961017A0F3CDB7DEB727
:10363000E5E00C94922CFF920F931F93CF93DF93AE
:10364000F62E95E0899FC0011124EC01CB56D040A5
:103650008C0106561040CE010E94AF2CF1108095CF
:103660000E94AB1E2196C017D107A9F7FF2011F0C9
:103670008FEF01C080E00E94AB1E80E00E94F71E29
:10368000CDB7DEB7E5E00C94922C0F931F93CF9348
:10369000DF93EC01062F10E004C0602F0E941B1B7B
:1036A0001F5FFE01E10FF11D84918823B1F7DF91C7
:1036B000CF911F910F9108951F93CF93DF93EC014A
:1036C000162F04C0612F0E941B1B2196888188231E
:1036D000C9F7DF91CF911F910895A0E0B0E0E3E733
:1036E000FBE10C94692C282E162F342EF22E402E3E
:1036F000C62FD0E0C770D070209709F45BC0562E5B
:10370000569456945694EE2437E0C32EC6228C2C41
:10371000992487FC90945E01A20EB11C21E0622ED8
:10372000712C35C0DE2CD20C8D2D652D0E94041F0E
:103730000E945E1E0E945E1E082F40E050E015C0F1
:1037400081E0481641F4C30102C0880F991F2A95F1
:10375000E2F7082B08C0C30102C0880F991F2A9501
:10376000E2F7809508234F5F5F4F9A01280D391DBE
:103770002A153B0524F48C2D840F883009F78D2DF4
:10378000652D0E94041F802F0E94AB1EE394E3145A
:1037900048F22F2D30E088E090E08C1B9D0B8217C3
:1037A000930714F0FF2404C0812F87708850F80E0F
:1037B000187F185FE12EE694E694E694C12FD0E0DE
:1037C000CF0DD11D93E0D595C7959A95E1F712C01D
:1037D000822D6E2D0E94041F10E009C081E0481662
:1037E00011F48FEF01C080E00E94AB1E1F5F131524
:1037F000A8F3E3948E2D90E08C179D074CF32F2DAA
:103800002770C9F100E0C22FD0E081E0A82EB12CD2
:1038100030C0F02EF20C8F2D6E2D0E94041F0E94DE
:103820005E1E0E945E1E182F20E030E017C081E06F
:10383000481649F4C501022E02C0880F991F0A9448
:10384000E2F7182B09C0C501022E02C0880F991F8C
:103850000A94E2F7809518232F5F3F4F2C173D07FE
:1038600034F38F2D6E2D0E94041F812F0E94AB1EFA
:103870000F5F031570F280E00E94F71ECDB7DEB730
:10388000E2E10C94852CA3E0B0E0E9E4FCE10C94C7
:10389000692C382E462E522E262E281AA42EBB24F2
:1038A000C501880F991F22273327281B390B2D5F4D
:1038B0003F4F3B832A838824992466247724342D20
:1038C00032193983182DCA2CD42CDA187501EE0C54
:1038D000FF1C882D830D6D2D41E02E2D052D0E949E
:1038E0006D1B832D88196D2D41E02E2D0E946D1BBF
:1038F000F42CF818110F89818A0D6F2D41E0212FCA
:103900000E946D1B8D2D82196F2D41E0212F0E9489
:103910006D1B8A819B8197FF06C00696860D971DB9
:103920009B838A8311C0EA81FB813A96C4018A197C
:103930009B09880F991F880F991FE80FF91FFB83B8
:10394000EA830894A108B1080894811C911C24E022
:1039500030E0620E731EA814B9040CF0B3CF2396A6
:10396000E2E10C94852CEF92FF920F931F93F82EB7
:10397000162F062F069506950695602F0E94041FA8
:103980000E945E1E0E945E1EE82E8F2D602F0E94F8
:10399000041F177081E090E002C0880F991F1A95EC
:1039A000E2F78E290E94AB1E80E00E94F71E1F9155
:1039B0000F91FF90EF900895459A449A10921A0241
:1039C0001092190210921C0210921B0280E2809346
:1039D000B800ECEBF0E080818460808310921802E4
:1039E0008081816080838081806480837894089561
:1039F00080E28093B8000895ECEBF0E080818F7056
:103A0000806A80830895ECEBF0E080818F70806D98
:103A1000808308958091BC0087FFFCCF0895809338
:103A2000BB00ECEBF0E080818F70806880830895AC
:103A3000882329F08091BC008F70806C04C0809135
:103A4000BC008F7080688093BC0008958091BB009B
:103A500008958091B9000895982FFA018091BC00D3
:103A60008E7F8093BC008091BC008F70806A8093B1
:103A7000BC008091BC0087FFFCCF9E7F9093BB0071
:103A80008091BC008F7080688093BC008091BC00E6
:103A900087FFFCCF8091B900883189F091E012C096
:103AA00080818093BB008091BC008F708068809380
:103AB000BC008091BC0087FFFCCF3196615066232B
:103AC00079F790E08091BC008F70806D8093BC008E
:103AD0008091BC0084FFFCCF8091BC00816080930A
:103AE000BC00892F08951F93CF93DF93982F162F33
:103AF000EA018091BC008E7F8093BC008091BC0065
:103B00008F70806A8093BC008091BC0087FFFCCFDF
:103B100091609093BB008091BC008F70806880930F
:103B2000BC008091BC0087FFFCCF8091B90080343D
:103B300069F091E018C08FEF0E94181D8091BC00C1
:103B400087FFFCCF8091BB0089931150123098F70A
:103B500080E00E94181D8091BC0087FFFCCF8091FF
:103B6000BB00888390E08091BC008F70806D809353
:103B7000BC008091BC0081608093BC00892FDF91E4
:103B8000CF911F9108952F982D982C9840985A986E
:103B9000279A259A249A389A529A8BB18F708BB9AA
:103BA00085B1807F85B98AB1806F8AB984B18F6011
:103BB00084B9089540985A98882319F0813021F4E7
:103BC00002C0409A08955A9A0895F8940E94DA1D06
:103BD0008BB1806F8BB985B18F6085B92F988AB111
:103BE0008F708AB984B1807F84B92D9A2C9A000095
:103BF00000000AC02C9800000000000000002C9A71
:103C0000000000000000000089B193B187FDF2CFF1
:103C10002C982D988AB1806F8AB984B18F6084B94D
:103C2000789408951F93162FF8940E94E51D2F98FD
:103C30002D982C9A8AB1806F8AB984B18F6084B92B
:103C40008BB18F708BB99BB1812F807F892B8BB902
:103C500085B1807F85B985B11F70812B85B9000042
:103C600000000000000000000000000000002C9890
:103C700078941F910895F8940E94E51D2F988AB1B9
:103C80008F708AB984B1807F84B92D9A2C9A0000F4
:103C9000000000000000000000000000000029B14A
:103CA00083B12C982D989AB1906F9AB994B19F6076
:103CB00094B978948F70207F822B0895F894809126
:103CC000E20282958695869583700E94E51D2F9A63
:103CD0008AB18F708AB984B1807F84B92D9A2C9A69
:103CE00000000000000000000000000000000000D4
:103CF00099B183B12C982D9878948F70907F892BEF
:103D0000089508958093E20280E060E40E94121E0C
:103D10001092E40281E060E40E94121E1092E6021A
:103D20008091E202682F6F73606482958695869514
:103D300083700E94121E08951F93182F8093E30230
:103D4000186B80E0612F0E94121E81E0612F0E949B
:103D5000121E1F9108950F931F93182F0091E202D6
:103D60000295069506950370F894802F0E94E51D34
:103D70002F9A2D982C9A8AB1806F8AB984B18F605E
:103D800084B98BB18F708BB99BB1812F807F892BC8
:103D90008BB985B1807F85B985B11F70812B85B9BD
:103DA0000000000000000000000000000000000013
:103DB0002C987894E02FF0E0EE0FFF1FEC51FD4FB0
:103DC00080818F5F80838091E2028F5F8093E20227
:103DD00087FF0AC08091E3028F5F8093E3020E9415
:103DE0009C1E80E00E94821E1F910F9108951F93D8
:103DF000182F106C80E0612F0E94121E81E0612F4D
:103E00000E94121E1F9108951F93182F862F0E9443
:103E10009C1E812F0E94821E1F9108950F931F9355
:103E200000E080E0602F0E94041F10E080E00E940C
:103E3000AB1E1F5F1038D1F70F5F083091F71F914D
:103E40000F91089580E00E94F71E80E060E00E94DC
:103E5000041F1092E4021092E5021092E602109202
:103E6000E70208950E94C31D80E06FE30E94121EC6
:103E700081E06FE30E94121E0E940E1F0E94221F0B
:103E80000895982F86E0689F802D1124692F0E9445
:103E9000041F089508951F920F920FB60F921124D8
:103EA0002F933F934F935F936F937F938F939F9342
:103EB000AF93BF93EF93FF934091C600E091A702A9
:103EC000F091A802CF01019660E870E00E94192CE1
:103ED0009C018091A9029091AA022817390739F014
:103EE000E95DFD4F40833093A8022093A702FF9124
:103EF000EF91BF91AF919F918F917F916F915F9162
:103F00004F913F912F910F900FBE0F901F901895DA
:103F10008091A7029091A80280589F4F2091A902FA
:103F20003091AA02821B930B60E870E00E94192C6A
:103F300008954091A9025091AA028091A702909100
:103F4000A8028417950719F42FEF3FEF0FC0FA016D
:103F5000E95DFD4F2081CA01019660E870E00E9492
:103F6000192C9093AA028093A90230E0C901089508
:103F70001F920F920FB60F9211248F939F9388B1C7
:103F800098E0892788B99F918F910F900FBE0F906D
:103F90001F9018951F920F920FB60F9211248F93B6
:103FA0009F938091AD029091AE02892B49F0809150
:103FB000AD029091AE0201979093AE028093AD0254
:103FC0008091FA029091FB02892B49F08091FA02CC
:103FD0009091FB0201979093FB028093FA028091EB
:103FE000F802882389F18091AB029091AC02892B71
:103FF00059F58091EE029091EF02892BE1F48CE269
:1040000091E09093EF028093EE02809181008823EB
:1040100079F41092800089E08093810083E080939E
:104020006F0088EE93E0909389008093880003C02E
:104030001092810043988091EE029091EF020197D7
:104040009093EF028093EE029F918F910F900FBE9D
:104050000F901F9018951F920F920FB60F92112478
:104060008F939F9388B198E0892788B99F918F910A
:104070000F900FBE0F901F9018951E9B16C0809139
:10408000F502882349F11092F5021092FF02109276
:10409000AC021092AB028091F8028823E9F01092F2
:1040A000F80210928100439808958091F5028823C8
:1040B00099F481E08093F5021092AC021092AB0269
:1040C00083E0809322028091F002853D11F083E02D
:1040D00001C085E0809321020895FC0183709070F7
:1040E000892B39F4CF0164E670E00E94052C892BFE
:1040F00049F420E030E0CF0160E971E00E94052C36
:10410000892B11F421E030E0822F08950895482F83
:104110006AE00E94F92B282F30E084E0220F331F41
:104120008A95E1F7842F0E94F92B892F822B08951D
:1041300088E592E09093AC028093AB0210928100EC
:1041400043981092F9020895FC01818180512081E9
:104150009AE0299F90011124820F08950F931F93D5
:10416000182F062F6AE00E94F92B805D602F0E94B5
:104170001B1B812F6AE00E94F92B892F805D602F25
:104180000E941B1B1F910F910895ACE0B0E0EBEC77
:10419000F0E20C94722C082F88E090E00E94AF2C83
:1041A0008093240280912402992787FD909597FFA0
:1041B00003C0909581959F4F959587959595879587
:1041C0008093250280912402992787FD909597FF7F
:1041D00003C0909581959F4F837090709C0144E03F
:1041E000220F331F4A95E1F7281B390B2093260233
:1041F0008091240287FF0AC08091250281958093D7
:10420000250280912602819580932602DE01119677
:10421000EFEDF1E08CE001900D928150E1F7AAC141
:104220000E94991F182F8052803608F0ADC10023DC
:10423000D1F08091B1028F5F8093B10281508C9D4B
:10424000802D112466E00E94041F812F60E00E94EF
:104250001B1B80E260E00E941B1B8091B102843135
:1042600010F01092B102143229F4E092BF021092C1
:10427000BE028AC18091BF02882309F485C1909152
:10428000BE021C3251F48F5F8093BF02992311F458
:104290001092B3021092BE020FC09A3068F4E92F58
:1042A000F0E0ED54FD4F1083E92FEF5FE093BE0285
:1042B000F0E0ED54FD4F10828091BF02823099F4FE
:1042C00083EB92E06AEC71E00E94A62C009741F427
:1042D00083E08093BF021092BE021092B30254C1D9
:1042E0001092BF0251C1843009F0A2C0B092BF0247
:1042F000002361F01092B90284E465E00E94041F7B
:1043000083EB92E060E00E945C1B3EC1F894209138
:10431000B80220518091B7028F9DC0011124280F4F
:104320002093FE022091B60220518091B5028F9D0C
:10433000C0011124280F2093F3022091B4022051D0
:104340008091B3028F9DC0011124280F2093E802B1
:104350001092B2028091260287FF20C0809126022F
:104360009091F302282F332727FD309537FF03C0A4
:10437000309521953F4F892F90E08217930774F471
:10438000809125028150809325028091F3029091C3
:104390002602845C890F8093F30215C08091F3029A
:1043A00090912602980F9093F3028091F3028D333F
:1043B00050F08091F3028C538093F3028091250298
:1043C0008F5F809325028091250287FF1DC0809119
:1043D00025029091E802282F332727FD309537FFDB
:1043E00003C0309521953F4F892F90E082179307A6
:1043F0005CF4D092B2028091E80290912502885E2E
:10440000890F8093E802C0C08091E8029091250254
:10441000980F9093E8028091E802893108F4B4C0C3
:104420008091E80288518093E802E092B202ACC029
:104430008630B9F4002381F084E463E00E94041F15
:104440008091B302882319F080ED91E002C087EDDE
:1044500091E060E00E945C1B8091B302882309F424
:1044600098C08091BF028D3009F08EC0002361F0AA
:1044700084E464E00E94041F83EB92E060E00E9409
:104480005C1B1092BF0287C0F8942091B4022051A7
:104490008091B3023AE0839FC0011124280F20933A
:1044A000F2022091B60220518091B502839FC00193
:1044B0001124280F2093FD022091B80220518091F1
:1044C000B702839FC0011124280F2093EC02809132
:1044D000EC0290E083709070892B11F08CE101C0A8
:1044E0008DE19091B202992309F455C08A8380919D
:1044F000F202980F9093F2028091F2028823E1F485
:104500008091FD0281508093FD028091FD028823FD
:1045100051F48091EC0281508093EC028CE0809306
:10452000FD028FE106C08091FD02FE01E80FF11D42
:1045300080818093F2022FC09091F2028091FD025F
:10454000FE01E80FF11D8081891728F591E0909315
:10455000F2028091FD028F5F8093FD028091FD0247
:104560008D30C8F08091EC028F5F8093EC029093C5
:10457000FD0211C035E0B32E2AE0F22EEE24E394C2
:10458000DD24DA9496E0C92E0E94881F882309F062
:1045900047CE80E001C081E02C96E9E00C948E2C9F
:1045A000FF920F931F93F62E1092800001E810E007
:1045B00029E0F801208323E020936F009C0140E074
:1045C00050E060E079E08DE390E00E944E2C309363
:1045D0008900209388008F2D90E00E943327F801F6
:1045E000108243981F910F91FF900895A8E0B0E0CA
:1045F000ECEFF2E20C94732C162FF42ED22EFE0167
:10460000319698E0DF011D929A95E9F719820E9490
:1046100087208A83812F0E9487208B838F2D0E9481
:1046200087208C838D2D0E9487208D83802F0E9470
:1046300087208E838E2D0E9487208F838C2D0E9451
:1046400087208887F89480ED68E0AE014F5F5F4F68
:104650000E942C1D7894882399F080EA9FE064E6FC
:104660000E94D02284E690E00E94332780EA9FE0F7
:1046700064E60E94D02288EE93E00E943327EDCFBB
:104680002896E8E00C948F2CCF92DF92EF92FF9265
:104690000F931F93182F0E94C5208823E9F0112340
:1046A000D9F41091FE02F090F302D090E8028091CC
:1046B000FD026091F2024091EC020E94AD28282F89
:1046C0000091F202E090FD02C090EC02812F6F2D6C
:1046D0004D2D0E94F62278941F910F91FF90EF903C
:1046E000DF90CF90089580E090E00E94AF2CE2E848
:1046F000F2E0E4918E17E1F080EA9FE064E60E9428
:10470000D02284E690E00E94332780EA9FE064E6AE
:104710000E94D02284E690E00E94332780EA9FE046
:1047200064E60E94D02288EE93E00E943327E4CF13
:104730000895A9E0B0E0EFE9F3E20C94792C198236
:10474000F89480ED61E0AE014F5F5F4F0E942C1D39
:104750008823A1F0789480EA9FE064E60E94D0224A
:1047600084E690E00E94332780EA9FE064E60E949E
:10477000D02288EE93E00E943327ECCF80ED67E0F3
:10478000AE014E5F5F4F0E94731D7894882399F0AD
:1047900080EA9FE064E60E94D02284E690E00E94D6
:1047A000332780EA9FE064E60E94D02288EE93E0FF
:1047B0000E943327EDCF7A81872F82958F7090E00A
:1047C000877090709C01F3E0220F331FFA95E1F798
:1047D000880F991F280F391F872F8F70820F8093A2
:1047E000FE024B81842F82958F7090E087709070CD
:1047F0009C0163E0220F331F6A95E1F7880F991F30
:10480000280F391F4F70420F4093F3028C81482FBD
:1048100042954F70682F6F7086FF22C082958695F3
:10482000877090E0817090709C01220F331F280FD9
:10483000391F220F331F220F331F842F90E0817006
:104840009070AC01F3E0440F551FFA95E1F7880F23
:10485000991F480F591F240F260F2093E80211C0FB
:10486000842F90E0837090709C0143E0220F331FEF
:104870004A95E1F7880F991F280F391F620F60933F
:10488000E8024E81842F82958F7090E08370907043
:104890009C01A3E0220F331FAA95E1F7880F991F0F
:1048A000280F391F4F70420F4093F2024F81842F1F
:1048B00082958F7090E0817090709C01E3E0220FF0
:1048C000331FEA95E1F7880F991F280F391F4F70A2
:1048D000420F4093FD022885822F82958F703AE027
:1048E000839FC00111242F70280F2093EC02872F83
:1048F00080782996E2E00C94952CCF92EF920F935A
:104900000E94DC1C0E949923882359F080E060E01B
:104910004CE020E001E0EE24E394A9E0CA2E0E94DE
:10492000F6220E94992382E090E00E94AF2C6CE373
:104930000E94F92B9093ED0281E090E00E94AF2C51
:1049400068E10E94F92B9093F70287E08093B10011
:1049500081E08093700078940F91EF90CF9008954C
:104960001F920F920FB60F921124FF920F931F9375
:104970002F933F934F935F936F937F938F939F9367
:10498000AF93BF93EF93FF93A8958091AF028035CB
:1049900089F41092AF021091FE020091F302F090A0
:1049A000E8020E9499238091F002893D39F080E06D
:1049B00090E00DC08F5F8093AF02B1C08091F9028B
:1049C00090E0811191E081E09827892F90E00E948A
:1049D00044238091E8028F1531F081E080931F021B
:1049E000F092F40207C08091F302801731F081E069
:1049F00080931E020093EA0209C08091FE02811793
:104A000029F081E080932002109300038091FE0240
:104A1000811709F43FC08091F802882359F08091F2
:104A2000AB029091AC02009729F001979093AC02F1
:104A30008093AB0280912102882361F18091210251
:104A400081508093210280912102882319F5809161
:104A500022028093E9021092220280911F02882391
:104A600029F08091F4028093E80204C080911E0234
:104A7000882321F08091EA028093F30280911F0243
:104A8000882321F480911E02882321F0F092E8020D
:104A90000093F3028091F502882399F08091FE0241
:104AA000882379F49091F3028091ED02981749F4EC
:104AB0009091E8028091F702981719F481E08093B1
:104AC000FF0280911E02882369F480911F028823CF
:104AD00049F48091FF02882329F081E08093F80255
:104AE0001092FF028091B002863039F41092B00229
:104AF00080911502882329F409C08F5F8093B0024A
:104B00000EC080911502815080931502809116028B
:104B1000882329F080911602815080931602FF911C
:104B2000EF91BF91AF919F918F917F916F915F9125
:104B30004F913F912F911F910F91FF900F900FBEBA
:104B40000F901F901895EF92FF920F931F93F82EDE
:104B5000162FE42E21E001E00E946D1BFE0C0F2DAC
:104B600002501150802F612F0E94B31C1E5F802FB6
:104B7000612F0E94B31C01501350802F612F0E949F
:104B8000B31C1C5F802F612F0E94B31C1F910F91DB
:104B9000FF90EF900895A0E0B0E0E1EDF5E20C9415
:104BA0006D2C84B714BE88E10FB6F8948093600032
:104BB000109260000FBE87E690E00E941C27809153
:104BC000C10088698093C1003B9A0E947D240E94A5
:104BD000732384E090E00E94AF2C8093F60285E07E
:104BE00090E00E94AF2C8093EB020E943A140E9446
:104BF0003D2082E084BD83E085BD8DE787BD809147
:104C00006E00826080936E00539A80E28093B000C1
:104C10008091B00083608093B0008091B100886083
:104C20008093B10080E18093B30083E090E00E9424
:104C3000AF2C8093B400259A80EA9FE064E60E943E
:104C4000D0222FE088E190E00FB6F894A8958093E9
:104C500060000FBE209360000E94321F0E940E1F52
:104C600087E090E00E94AF2C8093F0028091F002E8
:104C70008A3D48F088ED8093F0026091F00287E071
:104C800090E00E94B72C1092FC020E94571A00E09C
:104C900010E06BE4E62EF12CC8E5D2E052E0D52E10
:104CA00045E0642E33E0732E9924939428E0822EFD
:104CB00098ECB92E84E0A82EB6E0CB2EF092FB0241
:104CC000E092FA0280911302882379F08091F80231
:104CD000882359F010921302D093AC02C093AB0218
:104CE0001092810043981092F902133081F4809160
:104CF0002102882361F4D09222028091F002853D46
:104D000011F083E001C085E08093210210E08091E2
:104D1000130282FF02C0D09213028091130281FF1E
:104D20000EC010921302909222028091F002853DF3
:104D300011F083E001C085E08093210213E08091AF
:104D4000130280FF45C010921302109222021092AB
:104D500021028091F902853031F1863038F48330B8
:104D6000E9F08430A0F4882341F027C0823629F08E
:104D7000883C41F0883009F51BC0B092F9020E94CE
:104D8000A4191DC0A092F9020E94B11718C0709218
:104D9000F9020E9407171092DE0111C06092F90219
:104DA0000E947D180CC08092F9020E94371907C03A
:104DB000C092F9020E942A1802C01092F902809152
:104DC000F902882321F40E940E1F0E94571A10E056
:104DD0000E94181A8091F902882339F5002369F49A
:104DE0008091F802882369F08091FE0280FF09C05B
:104DF00081E00E94371A01E018C08091F8028823F0
:104E000051F08091F802882359F0002349F08091F5
:104E1000FE0280FD05C080E00E94371A00E005C058
:104E20002D9A802F0E948B1A2D988091FA029091D2
:104E3000FB02892BD1F742CF9093C5008093C40029
:104E400088E18093C1008EE08093C200519A50980F
:104E5000089506C090E000009F5F9E31E1F7815009
:104E60008823C1F7089520E23EE407C0F901319795
:104E7000F1F78A30910518F00A970097B9F708956D
:104E800040E25EE40CC028EE33E0FA013197F1F71E
:104E90002A30310518F02A503040B9F78150882364
:104EA00091F70895982F8091C00085FFFCCF9093D3
:104EB000C60080E090E008958091C00087FFFCCF9D
:104EC0008091C60008958091C00080780895AC015B
:104ED00020E007C08091C00085FFFCCF3093C60062
:104EE0002F5FFA01E20FF11D3491332399F7662306
:104EF00071F08091C00085FFFCCF8AE08093C600EE
:104F00008091C00085FFFCCF8DE08093C60008959E
:104F1000FC0107C08091C00085FFFCCF31969093C3
:104F2000C60090819923B1F70895282F982F929564
:104F30009F709A3030F48091C00085FFFCCF905D67
:104F400005C08091C00085FFFCCF995A9093C600A0
:104F5000822F90E08F7090700A973CF48091C0008F
:104F600085FFFCCF2F70205D06C08091C00085FFBB
:104F7000FCCF2F70295A2093C60008951F93182F35
:104F8000892F0E949527812F0E9495271F910895B0
:104F9000EF92FF920F931F937B018C01C801AA2708
:104FA000BB270E94BE27C7010E94BE271F910F91F9
:104FB000FF90EF9008950F931F93CF93DF938C0191
:104FC000E0E1F7E240E0C0E0D0E0C801BF010E94AC
:104FD000052C262F662329F4442319F4E130F1052A
:104FE00049F48091C00085FFFCCF205D2093C6006E
:104FF000205341E0CF016AE070E00E94052C219629
:10500000C530D10571F0822F90E09C012E9FC00128
:105010002F9F900D3E9F900D1124081B190BFB0133
:10502000D4CFDF91CF911F910F9108951F93CF930C
:10503000DF93482F87FF08C08091C00085FFFCCF19
:105040008DE28093C6004195E4E6F0E010E0C0E018
:10505000D0E0842F992787FD9095BF010E94052CF1
:10506000262F16162CF0112319F4E130F10549F41E
:105070008091C00085FFFCCF205D2093C6002053A7
:1050800011E0CF016AE070E00E94052C2196C33048
:10509000D10531F02E9F802D1124481BFB01D9CF63
:1050A000DF91CF911F910895A0E0B0E0EAE5F8E22A
:1050B0000C946B2C4B015C01E12C9AECF92E9AE9D3
:1050C000092F9BE3192F4424C0E0D0E0C501B401AF
:1050D000A80197010E942C2CD22E222341F44420B7
:1050E00031F481E0E816F1040105110561F48091C5
:1050F000C00085FFFCCF80E3D80ED092C60080EDC3
:10510000D80E44244394C801B7012AE030E040E0BF
:1051100050E00E942C2CC22E732E642E552E219608
:10512000CA30D105A9F06D2D70E080E090E0A801B3
:1051300097010E94DA2B861A970AA80AB90A2C2D21
:10514000372D462D552DC901DA017C018D01BECFC9
:10515000CDB7DEB7E0E10C94872CCF93DF93C82F57
:10516000D0E0E42FF0E0E053F84F833010F42C96B9
:105170003197262F30E02F5F3F4F2E0F3F1FCE017C
:10518000880F991F280F391FCF01969587959695FF
:105190008795280F391FCF0160E971E00E94052C27
:1051A000260F371FCF0164E670E00E94052C261BF6
:1051B000370BAE014F5F5F4FCA01880F991F840FF5
:1051C000951F880F991F6AE070E00E94052CC901A5
:1051D000860F971F67E070E00E94052CDF91CF914A
:1051E0000895982F8091EB02882349F4892F90E04D
:1051F00047966CE070E00E94192C982F9F5F892FD2
:1052000008952F923F924F925F926F927F928F926A
:105210009F92AF92BF92CF92DF92EF92FF920F9345
:105220001F932090C0023090C1024090C202509063
:10523000C3026090C4027090C5028090C602909034
:10524000C702AA24BB246501F501E370F070EE0FDC
:10525000FF1FEE0FFF1FEF5FFC4FE080F180028128
:105260001381EA0CFB1C0C1D1D1DD401C30175E04C
:10527000B695A795979587957A95D1F7A40193014F
:1052800064E0220F331F441F551F6A95D1F7822710
:105290009327A427B527860D971DA81DB91DE826BD
:1052A000F9260A271B272E0C3F1C401E511E89EB96
:1052B00099E7A7E3BEE9A80EB91ECA1EDB1EA2012C
:1052C000910185E056954795379527958A95D1F7B1
:1052D000D201C10104E0880F991FAA1FBB1F0A95C4
:1052E000D1F7282739274A275B27220D331D441D74
:1052F000551DD601C5011BE0B695A79597958795D5
:105300001A95D1F783709070880F991F880F991F95
:105310008F5F9C4FFC0180819181A281B3818A0DB6
:105320009B1DAC1DBD1D282739274A275B27620E10
:10533000731E841E951EF0E2AF16F7E3BF06FFEE64
:10534000CF06F6ECDF0609F07FCF2092C002309244
:10535000C1024092C2025092C3026092C402709293
:10536000C5028092C6029092C7021F910F91FF90D2
:10537000EF90DF90CF90BF90AF909F908F907F90F5
:105380006F905F904F903F902F900895CF92DF9253
:10539000EF92FF920F931F93C62E00EB16EE22E7BB
:1053A00031EB00930D0310930E0320930F03309302
:1053B000100350E060E070E00EE611E729EE3DE2F8
:1053C000402751276227732740930103509302031C
:1053D0006093030370930403DD24EE24FF2421ED86
:1053E0003DED4FE359E9C226D326E426F526C092C7
:1053F0000503D0920603E0920703F092080390E0C1
:10540000A0E0B0E027E53BEF47E75AE28227932789
:10541000A427B5278093090390930A03A0930B0355
:10542000B0930C031092C0021092C1021092C202FB
:105430001092C3021092C4021092C5021092C602CA
:105440001092C7020E9401291F910F91FF90EF90C7
:10545000DF90CF9008958091E8026091F30240912F
:10546000FE020E94C62908958130F9F48091C40299
:105470009091C502A091C602B091C7022091C002CE
:105480003091C1024091C2025091C30282279327FA
:10549000A427B5273FE0B695A795979587953A95A8
:1054A000D1F79C01237030702FC08230F9F48091C5
:1054B000C4029091C502A091C602B091C70220918A
:1054C000C0023091C1024091C2025091C3028227B2
:1054D0009327A427B52721E1B695A795979587959A
:1054E0002A95D1F79C01217030700EC0A8950E94BA
:1054F00001292091C4023091C5028091C00290918F
:10550000C102282739273F77C9010895AF92CF926A
:10551000EF920F93A82FB0E0E02FF0E0CD01840FC1
:10552000911D8E179F07B4F0EC0DF11DEA17FB07D4
:105530008CF070E04E2D50E0CB01820F911D84174E
:10554000950744F080E04A0D511D461757071CF09F
:1055500081E001C080E00F91EF90CF90AF9008956F
:105560000F931F93CF93DF93FC01EB018A0180819E
:105570008D3010F081E0808380818230A1F4C801F9
:105580000E946D20882329F088818E3110F08DE1F2
:105590001AC0C8010E946D208823B1F488818D3122
:1055A00098F08CE110C08081843049F08081863091
:1055B00031F08081893019F080818B3029F4888125
:1055C0008F3110F08EE18883DF91CF911F910F9181
:1055D00008958091F9028330B9F08091F002893DFD
:1055E00098F4809117028F5F809317028091E802F0
:1055F0006091F3024091FE0223E00E9434168091F4
:1056000017028150809317028091130280FF02C01D
:1056100081E0089580911302882321F4809114027F
:10562000882321F08AE08093160204C0809116023C
:10563000882311F080E008951092F90282E0089525
:10564000EF92FF920F931F93982F8B017A0180E0C6
:10565000692F0E94041F8BE399E060E00E94451BC4
:10566000C80160E00E94451B86E399E060E00E946B
:10567000451BC70160E00E94451B1F910F91FF90E1
:10568000EF9008958F929F92AF92BF92CF92DF9248
:10569000EF92FF920F937C016B015A01490180E068
:1056A00060E340E820E100E00E946D1B86E0B70166
:1056B000A6010E94202B87E0B501A4010E94202BA7
:1056C0000F91FF90EF90DF90CF90BF90AF909F90A1
:1056D0008F900895AC019B0186E499E0BA0142E401
:1056E00059E00E94422B08958DE499E068E479E046
:1056F0000E946A2B089582E699E06DE579E049E51C
:1057000059E024E539E00E94422B089587E799E0AB
:105710006FE679E04BE659E027E639E00E94422B3C
:105720000895A0E0B0E0E7E9FBE20C946F2CD82EDE
:10573000862E922EC42FD0E0CC0FDD1FCC0FDD1FA4
:10574000C75FDF4FCC24CE010E94AF2C182D47E05D
:10575000E42EF12CA82EBB24C5010E2C02C0959579
:1057600087950A94E2F780FF09C000E0992009F4C8
:1057700001E08D2D612F42E022E005C08D2D612FCB
:1057800042E022E0092D0E946D1B0894E108F10817
:105790001E5F8FEFE8168FEFF806F1F6C39421969F
:1057A00082E0D80E84E0C81671F6CDB7DEB7ECE023
:1057B0000C948B2C629FD001739FF001829FE00DAF
:1057C000F11D649FE00DF11D929FF00D839FF00D80
:1057D000749FF00D659FF00D9927729FB00DE11D2C
:1057E000F91F639FB00DE11DF91FBD01CF01112409
:1057F0000895991B79E004C0991F961708F0961B2D
:10580000881F7A95C9F780950895AA1BBB1B51E1A3
:1058100007C0AA1FBB1FA617B70710F0A61BB70B20
:10582000881F991F5A95A9F780959095BC01CD01C5
:10583000089597FB092E07260AD077FD04D0E5DFEF
:1058400006D000201AF4709561957F4F0895F6F701
:10585000909581959F4F0895A1E21A2EAA1BBB1B1C
:10586000FD010DC0AA1FBB1FEE1FFF1FA217B3072C
:10587000E407F50720F0A21BB30BE40BF50B661F42
:10588000771F881F991F1A9469F760957095809506
:1058900090959B01AC01BD01CF01089597FB092EA6
:1058A00005260ED057FD04D0D7DF0AD0001C38F4EF
:1058B00050954095309521953F4F4F4F5F4F08953C
:1058C000F6F790958095709561957F4F8F4F9F4F1C
:1058D00008952F923F924F925F926F927F928F9294
:1058E0009F92AF92BF92CF92DF92EF92FF920F936F
:1058F0001F93CF93DF93CDB7DEB7CA1BDB0B0FB679
:10590000F894DEBF0FBECDBF09942A883988488835
:105910005F846E847D848C849B84AA84B984C884CB
:10592000DF80EE80FD800C811B81AA81B981CE0FC2
:10593000D11D0FB6F894DEBF0FBECDBFED010895A7
:10594000EE0FFF1F0590F491E02D0994FB01DC019F
:105950008D91019080190110D9F3990B0895F9994F
:10596000FECF92BD81BDF89A992780B50895262F64
:10597000F999FECF1FBA92BD81BD20BD0FB6F89434
:0E598000FA9AF99A0FBE01960895F894FFCF97
:10598E000101050000240347066A098B0CAB0FC802
:10599E0012E215F8180B1C191F2322282526281F82
:1059AE002B112EFB30DE33BA368C39563C173FCED8
:1059BE00417A441C47B4493F4CBF4E33519B53F57B
:1059CE00554258825AB45CD75EEC60F262E864CFFE
:1059DE0066A6686D6A246CCA6D5F6FE2705572B50B
:1059EE0073047541766C7784788A797D7A5D7B292C
:1059FE007CE37C8A7D1D7E9D7E097F627FA77FD89A
:105A0E007FF67F00040001140501142200043A0100
:105A1E00002201000500041D31323A31353A30358D
:105A2E002030392D30312D31302000000000010C96
:105A3E0000010C2000003A01002001000000001DB2
:105A4E00001F45640B0C0C0D0D0B4750524D4300BF
:105A5E004C4F434B4544004E4F4C4F434B00011FA0
:0C5A6E001C1F1E1F1E1F1F1E1F1E1F00DE
:00000001FF
