:100000000C94E2050C94FF050C94FF050C94CB16A0
:100010000C94FF050C94FF050C94FF050C94FF0550
:100020000C94FF050C948D090C94FF050C94740638
:100030000C94FF050C9401060C9413060C94FF0518
:100040000C94FF050C94FF050C94FF050C94FF0520
:100050000C94FF050C9423160C94FF050C94FF05DB
:100060000C940B2A0C94FF05B40272035A04120577
:10007000C8059A069807FF8181FF000000FF9F9145
:1000800091F1919191FFF01010FFF191919FFF91EB
:10009000919F808080FFFF9191FFF19191FF14006B
:1000A0000000000000000000000000000000000050
:1000B0000000000000280000000001010101020210
:1000C00002030303040404050506060832000000C9
:1000D00000000101010102020202030304040405FD
:1000E0000505073C000000000000010101010202BB
:1000F0000203030304040405050646000000000192
:1001000001010101020202020303030404040400CA
:1001100000C8000000000000000000000000000017
:1001200000000000000000051400000000000000B6
:100130000000000000000000000000000000001EA1
:10014000000000010101010202030303040405058C
:1001500006060707080D2800000001010101020240
:100160000203030304040505060606070B3200001C
:10017000000000010101020202030303040404055C
:100180000506060A3C000000000000000101010114
:1001900002020203030304040405074600000000F2
:1001A0000000000001010101020202020203030338
:1001B0000305C8000000000000000000000000016E
:1001C0000101010101010102021400000000000010
:1001D000000000000000000000000000000000001F
:1001E000C80000000000000000010101010101023F
:1001F00002020202030304140000000000000000D9
:1002000000000000000000000000000000001E00D0
:1002100000000000000001010101010202020203CE
:100220000303030406C800000000000000010101F0
:100230000101010202020203030303051900000089
:100240001E00B30A23008F0A2800FD092D00D809DB
:1002500032006A093700D9083C00FE074100FE065B
:1002600046004706C800B504190000001E003F09FB
:100270002D001B093200F6083700D1083C00900819
:100280004100F606460022074B006505C8004804F9
:10029000190000001E00FE04C800DA041900000066
:1002A0001E009005C8006C051F1C1F1E1F1E1F1F6F
:1002B0001E1F1E1F000000000000011B1B011A1B57
:1002C00001191B01181B01171B01161B01161B012D
:1002D000151B01151B01151B01141B01141B011417
:1002E0001B01141B01141B01141B020A0C141B021A
:1002F000080D141B02070E141B02070E151B020724
:1003000010151B020612151B020613161B020514FC
:10031000171B020514171B020614171B02071517DB
:100320001B03090A1015171B021315171B01181BB5
:1003300001181B01191B011A1B000000000000011D
:10034000181A01151A01121A02080A0F1A01061BBF
:1003500001051B010519010517010514010511010E
:10036000060F01060E01060E01070D01080C000024
:1003700000000000010A0E0104130102150100161D
:1003800001001801001901001A01001B01001B01E6
:10039000001B01001B01001B01001B01001B0100D1
:1003A0001B01001B01001B01001B01001B01001BA6
:1003B00001001B01001B020000061B0300000811C6
:1003C000161B020910181B020A10181B0300000953
:1003D00011191B0300020711181B020011171B0241
:1003E0000011151B02000C0F1B02000A0F1B02005C
:1003F000090E1B0200080F1B020008101B02000858
:10040000101B02000D0F1B01031901041601051535
:100410000105140300010C13181A0400020D0E1339
:1004200013181A02000218190501020507090C0E1B
:100430001518190101190101190201181B1B0202EB
:10044000171B1B01031701041601051501061301F3
:100450000911000000000000000000000000000082
:100460000000000001000001000101000101000284
:100470000100020100030100030100030100040167
:1004800000040100040100040200040D0F02000436
:100490000B100200030A110200030A1202000309F2
:1004A00012020003071202000205130200020413E5
:1004B00002000104130200010413020001031203ED
:1004C000000103080E1102000103060100010100F2
:1004D0000101000101000000000000000101010114
:1004E000000301000601000802000B1014010015B2
:1004F0000100150102160104150106150109150177
:100500000C14010C14010D14010D13010E12000046
:10051000000000000000000001191B01171B01165C
:100520001B01151B01141B011317011215011113D7
:100530000211121B1B021011171B020F10161B01B8
:10054000161B01171B01181B01191B01191B011890
:100550001B01171B01161B01151B01151B01141B89
:1005600001141B01131B01131B01121B01121B01A0
:10057000121B01121B01111B01111B01111B011187
:100580001B01111B01111B01111B01101B01101B71
:1005900001101B01101B01101B01101B010F1B017F
:1005A0000F1B010E1B010D1B010B1B01091B010879
:1005B0001B01091B010A1B010B1B010C1B010F1B5B
:1005C00001141B01181B00000000000000010206BE
:1005D00001000A01000D01000F01001001001201CD
:1005E0000812010B13010D120200070D1102000881
:1005F0000C0E0200070C0E0200070C0D0200070B88
:100600000D0200070B0D0200060A0C0200060A0C80
:100610000200060A0B020006090B020005090B0284
:100620000005080A020005080A0200050809020080
:10063000040709020004070901000801000801007D
:10064000090100080100080100070100060100057A
:10065000010005010005010005010004010004017D
:10066000000401000401000501000501000501006E
:100670000501000601000601000601000601000652
:1006800001000701000801000901000B01000A0137
:10069000000801000501000000000000000112191F
:1006A000010E1B010C1B010A1B03090C1214191B60
:1006B00002080A14140107090106080106070105CA
:1006C00007010506010506010506010506020405E8
:1006D000090A020406080E020406081103040608AB
:1006E000131719040406080B0F13171A040406083D
:1006F0000B1114171903040608141619030405082E
:10070000131619040406080B0D1216190404050823
:100710000A0E111619040405070A0F12161904040B
:1007200005070A0F121619040406090A10131619F0
:1007300003040611141618030406131316180104F3
:10074000060104060104060104060104060104066C
:100750000104060105060104050104050104050163
:10076000040501040501040701050701050701054A
:100770000601040601030801030901010903030836
:100780000D101415010F1501121A01141B01151B70
:100790000115180000000000000000000100020127
:1007A000000501000701000901000A01020C010413
:1007B0000D01060E01070F010810010A11010B12AD
:1007C000010B12010C13010D13010D14010E140283
:1007D00002040E150202090F1502020B0F15020288
:1007E0000C0F15030205090D0F160302050A0D1063
:1007F0001602010D101602010C101602010B101644
:100800000201040F160201040E1602010410160163
:100810001016011016011016011016011016011005
:1008200016011016011016011016010F16010F16F1
:1008300001101601101601101601101601101601F4
:1008400010160110160110160110180110180110D1
:1008500017021016181A02000110190200041018CD
:10086000020108101702040B1016010716010B15E0
:10087000010F11000B3E41414141424242423C00C6
:1008800006FFFFFFFFFFFF000000000000005F0009
:10089000000007000700147F147F14242A7F2A1207
:1008A00023130864623649552250000503000000F6
:1008B0001C2241000041221C00082A1C2A080808AA
:1008C0003E08080050300000080808080800606072
:1008D000000020100804023E5149453E00427F407E
:1008E0000042615149462141454B311814127F1095
:1008F00027454545393C4A494930017109050336C8
:1009000049494936064949291E0036360000005635
:100910003600000008142241141414141441221447
:1009200008000201510906324979413E7E11111138
:100930007E7F494949363E414141227F4141221C47
:100940007F494949417F090901013E414151327FB7
:100950000808087F00417F41002040413F017F0897
:100960001422417F404040407F0204027F7F040800
:10097000107F3E4141413E7F090909063E41512118
:100980005E7F09192946464949493101017F010124
:100990003F4040403F1F2040201F7F2018207F63A2
:1009A00014081463030478040361514945430000AB
:1009B0007F4141020408102041417F0000040201F0
:1009C00002044040404040000102040020545454BE
:1009D000787F484444383844444420384444487F6D
:1009E0003854545418087E090102081454543C7FAA
:1009F0000804047800447D40002040443D00007F0E
:100A000010284400417F40007C041804787C0804CE
:100A1000047838444444387C141414080814141816
:100A20007C7C080404084854545420043F4440206B
:100A30003C4040207C1C2040201C3C4030403C443A
:100A4000281028440C5050503C4464544C44000836
:100A500036410000007F0000004136080008082AE7
:100A60001C08081C2A08084932433A204255535FA3
:100A70004552524F520D0A004932433A204E4F5FC1
:100A8000494E464F0D0A004932433A2053542D3EF9
:100A9000444154415F4E41434B206F72204C4153BF
:100AA000545F444154410D0A004932433A205354A3
:100AB0002D3E444154415F41434B0D0A00493243AE
:100AC0003A2053542D3E534C415F41434B0D0A0095
:100AD0004932433A2053522D3E53525F53544F50A4
:100AE0000D0A004932433A2053522D3E44415441AD
:100AF0005F4E41434B0D0A004932433A2053522D79
:100B00003E444154415F41434B0D0A004932433A50
:100B10002053522D3E534C415F41434B0D0A004937
:100B200032433A204D522D3E534C415F41434B0DD1
:100B30000A004932433A204D522D3E444154415F10
:100B400041434B0D0A004932433A204D542D3E415A
:100B500052425F4C4F53540D0A004932433A204DE4
:100B600054522D3E534C415F4E41434B206F7220F7
:100B70004D542D3E444154415F4E41434B0D0A00BC
:100B80004932433A204D522D3E444154415F4E413B
:100B9000434B0D0A004932433A204D542D3E534CED
:100BA000415F41434B206F7220444154415F4143B8
:100BB0004B0D0A004932433A204D2D3E53544152C9
:100BC000540D0A0011241FBECFEFD8E0DEBFCDBF09
:100BD00014E0A0E0B1E0E0E5F5E602C005900D927A
:100BE000A636B107D9F715E0A6E6B4E001C01D921C
:100BF000A431B107E1F70E94830C0C94A6320C9447
:100C000000001F920F920FB60F9211248F939F93A3
:100C100088B198E0892788B99F918F910F900FBE76
:100C20000F901F9018951F920F920FB60F921124DC
:100C30008F939F938091710490917204892B49F056
:100C40008091710490917204019790937204809343
:100C500071048091D9049091DA04892B49F0809134
:100C6000D9049091DA0401979093DA048093D9041F
:100C70008091D704882389F180916F04909170044A
:100C8000892B59F58091CD049091CE04892BE1F404
:100C90008CE291E09093CE048093CD04809181000A
:100CA000882379F41092800089E08093810083E0AA
:100CB00080936F0088EE93E0909389008093880082
:100CC00003C01092810043988091CD049091CE048E
:100CD00001979093CE048093CD049F918F910F90B4
:100CE0000FBE0F901F9018951F920F920FB60F9284
:100CF00011248F939F9388B198E0892788B99F9199
:100D00008F910F900FBE0F901F901895AF92BF92CA
:100D1000CF92DF92EF92FF920F931F93E62E1092E5
:100D2000800029E02093810023E020936F009C0144
:100D300040E050E060E079E08DE390E00E942332F3
:100D40003093890020938800FF2400E010E0C80160
:100D5000B7010E94412F5B016C0120E030E04AEFB7
:100D600054E40E94632D7B018C0120E030E040E8D8
:100D70005FE30E94BD2E88231CF461E070E024C074
:100D8000C801B70120E03FEF4FE757E40E945D2E16
:100D90001816B4F4C601B50120E030E040E251E499
:100DA0000E94632D0E948D2B88EC90E005C0FC0111
:100DB0003197F1F76150704061157105C1F707C0B7
:100DC000C801B7010E948D2BCB010197F1F710925A
:100DD000810043981F910F91FF90EF90DF90CF908B
:100DE000BF90AF900895FC0183709070892B39F407
:100DF000CF0164E670E00E94DA31892B49F420E0EB
:100E000030E0CF0160E971E00E94DA31892B11F402
:100E100021E030E0822F0895DF92EF92FF920F934E
:100E20001F93E0906B04F0906C0400916D0410919E
:100E30006E048091D0048093C7048091DB0480937A
:100E4000DC048091CB048093D604DD24D39450C07D
:100E50008091C7048F5F8093C7048091C70480325C
:100E600068F58091C7048F3181F48091DC0484306F
:100E700029F18091DC04863009F18091DC0489300D
:100E8000E9F08091DC048B30C9F08091C7048E3189
:100E900021F48091DC04823089F08091C7048D3187
:100EA000A1F48091DC04823081F48091D60490E03A
:100EB0008053984F0E94F306882339F4D092C704D8
:100EC0008091DC048F5F8093DC048091DC048D30A2
:100ED00038F0D092DC048091D6048F5F8093D604E2
:100EE00080E69AEFAFEFBFEFE80EF91E0A1F1B1F57
:100EF00090EAE91695E0F90690E0090790E01907F5
:100F000008F0A6CF1F910F91FF90EF90DF9008950A
:100F10000895482F6AE00E94CE31282F30E084E007
:100F2000220F331F8A95E1F7842F0E94CE31892F3B
:100F3000822B089588E592E09093700480936F046B
:100F40001092810043981092D80408951E9B16C0F9
:100F50008091D304882359F11092D3041092DE04B7
:100F60001092700410926F048091D7048823F9F0D6
:100F70001092D70410928100439808958091D30471
:100F80008823A9F481E08093D30410927004109216
:100F90006F0480916A04843010F483E001C087E01C
:100FA00080936A0483E0809369040E94F016089598
:100FB0000F931F93182F062F6AE00E94CE31805D99
:100FC000602F0E94E124812F6AE00E94CE31892F98
:100FD000805D602F0E94E1241F910F910895AF92D0
:100FE000BF92CF92DF92EF92FF920F931F93DF9306
:100FF000CF93CDB7DEB728970FB6F894DEBF0FBEFC
:10100000CDBF162FF42ED22E5E010894A11CB11C68
:1010100098E0F50111929A95E9F719820E948907E3
:101020008A83812F0E9489078B838F2D0E948907D5
:101030008C838D2D0E9489078D83802F0E948907C4
:101040008E838E2D0E9489078F838C2D0E948907A5
:10105000888780ED68E0A5010E9471298823D9F076
:1010600008EC10E080EA9FE064E60E94860688EEC5
:1010700093E0F8013197F1F70197D9F780EA9FE003
:1010800064E60E94860680E197E2F8013197F1F765
:101090000197D9F7E7CF28960FB6F894DEBF0FBEB9
:1010A000CDBFCF91DF911F910F91FF90EF90DF9017
:1010B000CF90BF90AF9008950F931F93DF93CF937E
:1010C000CDB7DEB729970FB6F894DEBF0FBECDBF00
:1010D000198280ED61E0AE014F5F5F4F0E94712980
:1010E0008823D9F008EC10E080EA9FE064E60E94D3
:1010F000860688EE93E0F8013197F1F70197D9F76A
:1011000080EA9FE064E60E94860680E197E2F801AB
:101110003197F1F70197D9F7E7CF80ED67E0AE019E
:101120004E5F5F4F0E94B8298823D9F008EC10E089
:1011300080EA9FE064E60E94860688EE93E0F8016C
:101140003197F1F70197D9F780EA9FE064E60E94B2
:10115000860680E197E2F8013197F1F70197D9F718
:10116000E7CF7A81872F82958F7090E0877090709B
:101170009C01A3E0220F331FAA95E1F7880F991F66
:10118000280F391F872F8F70820F8093DD044B81CA
:10119000842F82958F7090E0877090709C01E3E0BF
:1011A000220F331FEA95E1F7880F991F280F391F87
:1011B0004F70420F4093D1048C81482F42954F705D
:1011C000682F6F7086FF22C082958695877090E0A9
:1011D000817090709C01220F331F280F391F220F3E
:1011E000331F220F331F842F90E081709070AC0169
:1011F00003E0440F551F0A95E1F7880F991F480F28
:10120000591F240F260F2093C80411C0842F90E08B
:10121000837090709C01B3E0220F331FBA95E1F701
:10122000880F991F280F391F620F6093C8044E81E1
:10123000842F82958F7090E0837090709C01F3E012
:10124000220F331FFA95E1F7880F991F280F391FD6
:101250004F70420F4093D0044F81842F82958F703E
:1012600090E0817090709C0163E0220F331F6A95BB
:10127000E1F7880F991F280F391F4F70420F4093D5
:10128000DB042885822F82958F703AE0839FC0010E
:1012900011242F70280F2093CB04872F8078299654
:1012A0000FB6F894DEBF0FBECDBFCF91DF911F9177
:1012B0000F910895CF92EF920F930E94CB280E9436
:1012C0005C08882359F080E060E04CE020E001E019
:1012D000EE24E394B9E0CB2E0E94EF070E945C0855
:1012E00082E090E00E9475326CE30E94CE319093D0
:1012F000CC0481E090E00E94753268E10E94CE311A
:101300009093D50487E08093B10081E080937000D2
:1013100078940F91EF90CF9008951F920F920FB68F
:101320000F921124FF920F931F932F933F934F938C
:101330005F936F937F938F939F93AF93BF93EF933D
:10134000FF93A89580917304803579F4109273040B
:10135000F090DD041091D1040091C8040E945C0853
:101360008091C804801729F40AC08F5F80937304AA
:1013700002C181E0809368040093D20407C0809189
:10138000D104811741F181E0809367041093C9046F
:1013900080916B0490916C04A0916D04B0916E04E7
:1013A0008093DF049093E004A093E104B093E204FF
:1013B00080916B0490916C04A0916D04B0916E04C7
:1013C0000197A109B10980936B0490936C04A093D9
:1013D0006D04B0936E048091DD048F1509F445C04F
:1013E0008091D704882359F080916F049091700404
:1013F000009729F001979093700480936F04809177
:101400006904882391F18091690481508093690473
:1014100080916904882349F580916A04843020F022
:1014200084E080936A0402C010926A048091680488
:10143000882329F08091D2048093C80404C080914D
:101440006704882321F08091C9048093D1040E940D
:10145000F01680916804882321F480916704882322
:1014600021F00093C8041093D1048091D8048430F3
:1014700061F08091D804853041F08091D8048830A3
:1014800021F08091D804863089F5809176048823F4
:1014900069F584E462E00E9484288091C80460E0D9
:1014A0000E94420E8AE360E00E94E1248091D10410
:1014B00060E00E94D8078AE360E00E94E124809106
:1014C000DD0460E00E94D8078091CA04882371F48B
:1014D00080E260E00E94E1248091C8048C3010F02A
:1014E00080E501C081E460E00E94E1248091D304A2
:1014F000882399F08091DD04882379F49091D104B8
:101500008091CC04981749F49091C8048091D50437
:10151000981719F481E08093DE0480916704882392
:1015200069F480916804882349F48091DE0488235B
:1015300029F081E08093D7041092DE048091740436
:10154000863039F41092740480917A04882329F447
:1015500009C08F5F809374040EC080917A0481501B
:1015600080937A0480917504882329F08091750412
:10157000815080937504FF91EF91BF91AF919F913E
:101580008F917F916F915F914F913F912F911F911B
:101590000F91FF900F900FBE0F901F901895EF9234
:1015A000FF920F931F93F82E162FE42E21E001E0F7
:1015B0000E942A25FE0C0F2D02501150802F612F02
:1015C0000E946D261E5F802F612F0E946D260150A4
:1015D0001350802F612F0E946D261C5F802F612F7A
:1015E0000E946D261F910F91FF90EF90089580E06B
:1015F00090E00E947532843C09F475C081E090E06F
:1016000068E00E94833282E090E060E00E948332D2
:1016100083E090E060E10E94833284E090E061E04A
:101620000E94833285E090E060E00E94833286E091
:1016300090E060E00E94833287E090E06AE00E94E0
:10164000833289E090E06BE00E9483328AE090E090
:101650006EE00E9483328BE090E060E50E9483326E
:101660008CE090E067E00E9483328DE090E06CE1D6
:101670000E9483328EE090E06AE00E94833287E12C
:1016800090E064E10E94833288E190E065E00E948E
:10169000833289E190E069E10E9483328FE090E03B
:1016A00060E00E94833280E190E060E00E9483323B
:1016B00081E190E060E00E94833282E190E060E9A5
:1016C00071E00E94913284E190E06EE470E00E944B
:1016D000913286E190E060E00E94833280E090E009
:1016E00064EC0E94833208956F927F928F929F9252
:1016F000AF92BF92CF92DF92EF92FF920F931F9320
:10170000CF93DF9380E190E00E9475328093E304F1
:1017100089E090E00E947532682E8AE090E00E9495
:101720007532782E8BE090E00E947532B82E8CE0F6
:1017300090E00E947532982E8DE090E00E94753204
:10174000082F8EE090E00E947532D82E8FE090E056
:101750000E947532C82EA090E30481E190E00E94BF
:101760007532182F84E190E00E947D327C0182E185
:1017700090E00E947D32AC01812FB7010E94A31F2F
:10178000882E86E190E00E947532E82E87E190E095
:101790000E947532F82E88E190E00E947532182F71
:1017A00089E190E00E94753200D000D0EDB7FEB71D
:1017B00031962CE6B20E30EDD30EADB7BEB7119612
:1017C000EC92F18212838383862D672D4B2D292D78
:1017D000ED2C0E9496205B016C010F900F900F90F2
:1017E0000F908CE090E00E947532F82E8DE090E032
:1017F0000E947532182F8EE090E00E947532209181
:10180000DB040091D0049091CB04482F40539053B7
:101810008F2D612FE92E0E94861E9B01AC018091C5
:10182000E304833031F071E0E72EF12C012D112D0E
:1018300005C064E0E62EF12C012D112D6090C80446
:101840008091E304833021F091E0892E912C03C034
:1018500084E0882E912C7090D1048091E304833031
:1018600019F0C1E0D0E002C0C4E0D0E0CA01B90183
:1018700020EA35E040E050E00E94AF31A801970136
:101880000E94AF31A61AB70AC80AD90A8CE3689E2B
:10189000C00111249C01289DC001299D900D389DF7
:1018A000900D1124AA2797FDA095BA2FA81AB90A5E
:1018B000CA0ADB0A872D90E0DC01CA9FC001CB9FDA
:1018C000900DDA9F900D1124AA2797FDA095BA2FAD
:1018D000A81AB90ACA0ADB0AA0926B04B0926C0477
:1018E000C0926D04D0926E04DF91CF911F910F9141
:1018F000FF90EF90DF90CF90BF90AF909F908F9030
:101900007F906F9008956F927F928F929F92AF9287
:10191000BF92CF92DF92EF92FF920F931F93CF93DC
:10192000DF9384B714BE88E10FB6F894809360000B
:10193000109260000FBE8AE190E00E9421233B9A42
:101940000E945A090E94F70A85E090E00E947532D1
:101950008093D40486E090E00E9475328093CA049C
:101960000E94F8150E94A60782E084BD83E085BD31
:101970008DE787BD80916E00826080936E00539AE0
:1019800080E28093B0008091B00083608093B000CB
:101990008091B10088608093B10080E18093B300B2
:1019A00083E090E00E9475328093B400259A80EA2B
:1019B0009FE064E60E9486062FE088E190E00FB683
:1019C000F894A895809360000FBE209360000E9459
:1019D000B2280E948E2880E060E040E820E401E028
:1019E0000E942A25CCEADFEFE12C3DE7F32E08EC3C
:1019F00010E080E0BE0141E00E94331AC701019768
:101A0000F1F7CC31D10539F480E29EE4F801319749
:101A1000F1F70197D9F72196C43DD10551F70E94FE
:101A20000D1980E00E940D1B0E94740B10E0FF2432
:101A300000E02BE4C22ED12CC8E5D2E092E0692E62
:101A400083E0E82EB6E09B2EA5E0AA2E77247394BF
:101A5000F4E0BF2EE8E08E2ED092DA04C092D904D2
:101A600080917804882379F08091D704882359F0F5
:101A700010927804D0937004C0936F041092810088
:101A800043981092D804FF2059F08091690488236C
:101A900039F460926A04E09269040E94F016FF240F
:101AA000002359F080916904882339F490926A04E4
:101AB000E09269040E94F01600E08091780481FFB2
:101AC00014C01092780480916A04843028F47092D3
:101AD0006A04FF24F39405C00E940C07A0926A04D4
:101AE00001E0E09269040E94F0168091780482FF80
:101AF0000FC01092780480916A04843018F4B09278
:101B00006A0402C010926A04E09269040E94F0160E
:101B10008091780480FF3DC0109278048091D804B1
:101B2000843089F0853028F4882341F0833009F52A
:101B300011C08530A1F08830E1F416C0B092D8040D
:101B40000E94F4101DC0E092D8040E94550F10921C
:101B5000000116C0A092D8040E94FD1311C080920B
:101B6000D8040E94F4110CC09092D8040E942D1346
:101B700007C01092D8040E948E2880E00E940D1B9E
:101B80008091D804882329F40E948E2880E00E9446
:101B90000D1B0E940E1E8091D804882339F5112355
:101BA00069F48091D704882369F08091DD0480FF77
:101BB00009C081E00E940D1B11E018C08091D7047C
:101BC000882351F08091D704882359F0112349F0DC
:101BD0008091DD0480FD05C080E00E940D1B10E0B7
:101BE00005C02D9A812F0E94711C2D988091D904D7
:101BF0009091DA04892BD1F72FCF0F931F93CF93B6
:101C0000DF93182F062F8091CA04882371F584E78B
:101C100061E00E9484281C3010F080E501C081E45E
:101C200060E00E94E1248DE460E00E94E12480E510
:101C300061E00E948428812F90E047966CE070E07C
:101C40000E94EE31EC018930910524F09C012F5F58
:101C5000822F10C080E260E00E94E1249E012F5C90
:101C6000822F602F0E94E12408C080E561E00E947D
:101C70008428812F602F0E94D807DF91CF911F9178
:101C80000F9108950F931F93CF93DF93082F162F73
:101C90008091CA048823D1F4802F90E047966CE0AD
:101CA00070E00E94EE31EC018930910524F09C0136
:101CB0002F5F822F14C080E260E00E94E1249E0129
:101CC0002F5C822F612F0E94E1240CC080E260E033
:101CD0000E94E12480E260E00E94E124802F612FD5
:101CE0000E94D807DF91CF911F910F9108958091A5
:101CF00076048F5F809376040E948E2880E060E0F7
:101D00000E94842881E091E060E00E94192588E02B
:101D100061E00E94842884E191E060E00E9419253E
:101D20008091D50460E00E94FD0D8AE360E00E948E
:101D3000E1248091CC0460E00E94D80788E062E052
:101D40000E94842881E291E060E00E941925809140
:101D5000C80460E00E94420E8AE360E00E94E12431
:101D60008091D10460E00E94D8078AE360E00E947D
:101D7000E1248091DD0460E00E94D8078091CA04CC
:101D8000882371F480E260E00E94E1248091C8041D
:101D90008C3010F080E501C081E460E00E94E12415
:101DA00088E063E00E9484288CE291E060E00E9479
:101DB00019258091D404882361F48091DB0460E0CC
:101DC0000E94D8078FE260E00E94E1248091D00455
:101DD0000BC08091D00460E00E94D8078FE260E0E1
:101DE0000E94E1248091DB0460E00E94D8078FE22A
:101DF00060E00E94E1248091CB0460E00E94D8075B
:101E000088E064E00E94842889E391E060E00E9419
:101E100019258091D404882339F48091CA04882339
:101E200019F486E491E018C08091D404882339F431
:101E30008091CA04813019F48EE491E00DC0809144
:101E4000D404813039F48091CA04882319F486E5DA
:101E500091E002C08EE591E060E00E94192588E0E3
:101E600065E00E94842886E691E060E00E941925E2
:101E70008091B40060E00E94D80780E066E00E9494
:101E8000842886E791E060E00E94192580E067E001
:101E90000E9484288CE891E060E00E9419258091DE
:101EA00076048150809376040895BF92CF92DF929A
:101EB000EF92FF920F931F93CF93DF931091C8047B
:101EC000D090D104F090DD040E94770E80917604CA
:101ED0008F5F8093760480E063E147E00E94CF0A41
:101EE000809176048150809376048AE08093750413
:101EF00003E08AE0B82EC8ECD0E08091780480FD41
:101F000069C180917804882321F480917904882321
:101F100019F0B092750407C080917504882319F4F4
:101F20001092D80457C18091780481FFDAC01092D2
:101F30007804809176048F5F80937604033081F576
:101F400084E462E00E948428812F61E00E94420EB6
:101F500084E762E00E9484288091CA04882361F4A7
:101F600080E260E00E94E1241C3010F080E501C0B6
:101F700081E461E00E94E12480E066E00E94842820
:101F80008DE991E060E00E94192580E067E00E9401
:101F9000842883EB91E060E00E94192505E69CC04F
:101FA0000536C1F584E462E00E948428812F60E058
:101FB0000E94420E8AE360E00E94E1248D2D61E0E0
:101FC0000E94D80780E066E00E94842889EC91E0B6
:101FD00060E00E94192580E067E00E9484288FED70
:101FE00091E060E00E94192584E762E00E94842865
:101FF0008091CA04882361F480E260E00E94E124B9
:102000001C3010F080E501C081E460E00E94E12412
:1020100006E662C0063651F58091CA04882311F4A1
:1020200086E501C082E662E00E9484288D2D60E092
:102030000E94D8078AE360E00E94E1248F2D61E0CE
:102040000E94D80780E066E00E94842885EF91E036
:1020500060E00E94192580E067E00E9484288BE000
:1020600092E060E00E94192507E636C08091CA041C
:10207000882311F488E601C084E762E00E94842886
:102080008F2D60E00E94D80780E066E00E948428DF
:1020900086E791E060E00E94192580E067E00E94F9
:1020A00084288CE891E060E00E9419251093C80410
:1020B000D092D104F092DD048091DD046091D104CE
:1020C0004091C8040091D004E090DB04C090CB04A0
:1020D00020E00E94EF0703E0809176048150809316
:1020E00076048091780482FD04C08091790482FF97
:1020F00004CF10927804809176048F5F80937604E9
:10210000053649F5812F90E0019668E170E00E9464
:10211000EE31182F8093C80484E462E00E94842882
:10212000812F61E00E94420E84E762E00E948428D1
:102130008091CA048823E9F580E260E00E94E124EE
:102140008091C8048C3010F080E501C081E461E02A
:102150000E94E1242EC00636A1F48D2D90E0019658
:102160006CE370E00E94EE31D82E8091CA0488237F
:1021700011F486E501C082E662E00E9484288D2D7C
:1021800015C00736B1F48F2D90E001966CE370E036
:102190000E94EE31F82E8091CA04882311F488E65B
:1021A00001C084E762E00E9484288F2D61E00E94D4
:1021B000D8078091760481508093760480917904C9
:1021C00082FF9BCE80ED97E0FE013197F1F70197FA
:1021D000D9F793CEDF91CF911F910F91FF90EF90A0
:1021E000DF90CF90BF9008950F931F93CF93DF930D
:1021F0000E94770E809176048F5F8093760480E052
:102200006BE047E00E94CF0A809176048150809372
:1022100076048AE08093750414E00AE0C8ECD0E00C
:102220008091780480FDDBC080917804882321F4BC
:1022300080917904882319F00093750407C0809178
:102240007504882319F41092D804C9C080917804C9
:1022500081FF74C010927804809176048F5F809320
:1022600076041430C9F48091D50461E00E94FD0D1C
:1022700080E066E00E9484288DE991E060E00E94A1
:10228000192580E067E00E94842883EB91E060E0FC
:102290000E94192515E64DC0153631F580E561E03F
:1022A0000E9484288091D50460E00E94FD0D82E6A2
:1022B00061E00E9484288091CC0461E00E94D807EC
:1022C00080E066E00E94842889EC91E060E00E9452
:1022D000192580E067E00E9484288FED91E060E09E
:1022E0000E94192516E625C080E561E00E94842839
:1022F0008091D50460E00E94FD0D82E661E00E94BD
:1023000084288091CC0460E00E94D80780E066E0D9
:102310000E94842886E791E060E00E94192580E011
:1023200067E00E9484288CE891E060E00E94192513
:1023300014E0809176048150809376048091780433
:1023400082FD04C08091790482FF6ACF10927804E4
:10235000809176048F5F809376041536A1F4809186
:10236000D50490E0019668E170E00E94EE31809320
:10237000D5048091D50461E00E94FD0D6091D504E3
:1023800081E090E019C01636C9F48091CC0490E049
:1023900001966CE370E00E94EE318093CC0482E6FB
:1023A00061E00E9484288091CC0461E00E94D807FB
:1023B0006091CC0482E090E00E94833280917604A8
:1023C0008150809376048091790482FF29CF80ED3B
:1023D00097E0FE013197F1F70197D9F721CFDF910F
:1023E000CF911F910F9108950F931F930E94770E25
:1023F000809176048F5F8093760480E063E247E00B
:102400000E94CF0A809176048150809376048AE0FE
:102410008093750418E00AE08091780480FD1AC169
:1024200080917804882321F480917904882319F01D
:102430000093750407C080917504882319F41092E5
:10244000D80408C18091780481FF89C01092780473
:10245000809176048F5F809376041830F1F580E5E3
:1024600064E00E9484288091D404882339F4809108
:10247000CA04882319F486E491E018C08091D4043A
:10248000882339F48091CA04813019F48EE491E0F4
:102490000DC08091D404813039F48091CA0488231E
:1024A00019F486E591E002C08EE591E061E00E94BA
:1024B000192580E066E00E94842881E292E060E0D5
:1024C0000E94192580E067E00E94842887E392E05B
:1024D00060E00E94192518E63DC080E564E00E9496
:1024E00084288091D404882339F48091CA048823F5
:1024F00019F486E491E018C08091D404882339F45B
:102500008091CA04813019F48EE491E00DC080916D
:10251000D404813039F48091CA04882319F486E503
:1025200091E002C08EE591E060E00E94192580E014
:1025300066E00E94842886E791E060E00E94192509
:1025400080E067E00E9484288DE492E060E00E94D1
:10255000192518E08091760481508093760480914B
:10256000780482FD04C08091790482FF55CF1092D7
:102570007804183609F050CF8091CA04882341F0BE
:102580008091D40490E0882309F491E09093D404DE
:102590008091CA0490E0882309F491E09093CA04E2
:1025A000809176048F5F809376040E94770E80E09E
:1025B00066E00E94842881E292E060E00E94192592
:1025C00080E067E00E94842887E392E060E00E9458
:1025D000192580E063E247E00E94CF0A80E564E0CD
:1025E0000E9484288091D404882339F48091CA04FD
:1025F000882319F486E491E018C08091D4048823DC
:1026000039F48091CA04813019F48EE491E00DC050
:102610008091D404813039F48091CA04882319F45C
:1026200086E591E002C08EE591E061E00E94192507
:10263000809176048150809376046091D40485E083
:1026400090E00E9483326091CA0486E090E00E948C
:102650008332E2CE1F910F9108950F931F930E9432
:10266000770E809176048F5F8093760480E066E039
:102670000E94842883E692E060E00E94192580E0B1
:102680006BE247E00E94CF0A8091760481508093EC
:1026900076048AE08093750416E00AE0809178045D
:1026A00080FDA8C080917804882321F4809179046A
:1026B000882319F00093750407C08091750488235E
:1026C00019F41092D80496C08091780481FF47C015
:1026D00010927804809176048F5F80937604163090
:1026E000E9F482E665E00E9484288091B40061E00C
:1026F0000E94D80780E066E00E94842889E792E083
:1027000060E00E94192580E067E00E9484288EE83E
:1027100092E060E00E94192519E61CC082E665E09F
:102720000E9484288091B40060E00E94D80780E075
:1027300066E00E94842883EA92E060E00E94192506
:1027400080E067E00E94842886EB92E060E00E94CF
:10275000192516E08091760481508093760480914B
:10276000780482FD04C08091790482FF97CF109293
:102770007804193609F092CF8091B4008F5F80936E
:10278000B4008091B400813110F01092B4008091B7
:1027900076048F5F809376040E94770E80E066E077
:1027A0000E94842881E292E060E00E94192580E086
:1027B00067E00E94842887E392E060E00E94192588
:1027C00080E06BE247E00E94CF0A82E665E00E946B
:1027D00084288091B40061E00E94D807809176043B
:1027E0008150809376046091B40083E090E00E9471
:1027F000833254CF1F910F910895BF92CF92DF92F1
:10280000EF92FF920F931F93CF93DF93F090D0043A
:102810001091DB04D090CB040E94770E8091760457
:102820008F5F8093760480E06BE147E00E94CF0ADF
:10283000809176048150809376048AE080937504B9
:1028400005E04AE0B42EC8ECD0E08091780480FD29
:10285000C5C180917804882321F48091790488236C
:1028600019F0B092750407C080917504882319F49B
:102870001092D804B3C18091780481FFEAC010920D
:102880007804809176048F5F80937604053099F404
:102890008091D404882329F480E563E00E94842891
:1028A00048C08091D404813009F09EC080E563E087
:1028B0000E94842813C00B3049F58091D4048823EA
:1028C00009F054C080E563E00E948428812F60E015
:1028D0000E94D8078FE260E00E94E1248F2D61E022
:1028E0000E94D80780E066E00E94842886EF92E08C
:1028F00060E00E94192580E067E00E9484288CE057
:1029000093E060E00E9419250CE09EC00C3009F0B5
:102910006BC08091D404813021F580E563E00E9492
:1029200084288F2D60E00E94D8078FE260E00E942B
:10293000E124812F61E00E94D80780E066E00E94D8
:1029400084288AEC92E060E00E94192580E067E02C
:102950000E94842880EE92E060E00E9419250BE03E
:1029600073C08091D404882329F03EC08091D404A0
:102970008130D1F580E563E00E9484288091D40401
:10298000882351F4812F60E00E94D8078FE260E035
:102990000E94E1248F2D09C08F2D60E00E94D8078E
:1029A0008FE260E00E94E124812F60E00E94D8075E
:1029B0008FE260E00E94E1248D2D61E00E94D80743
:1029C00080E066E00E94842882E293E060E00E945A
:1029D000192580E067E00E94842888E393E060E0A6
:1029E0000E9419250DE030C084E763E00E9484282E
:1029F0008D2D60E00E94D80780E066E00E94842868
:102A000086E791E060E00E94192580E067E00E947F
:102A100084288CE891E060E00E941925D092CB04D4
:102A20001093DB04F092D0048091DD046091D10416
:102A30004091C8040091D004E090DB04C090CB0426
:102A400020E00E94EF0705E080917604815080939A
:102A500076048091780482FD04C08091790482FF1D
:102A6000F4CE10927804809176048F5F8093760480
:102A70000B3009F048C01F5F1D3010F011E027C077
:102A80001230C1F48D2D90E00E94F306882331F0BE
:102A90008DE18F1518F43DE1F32E19C08D2D90E0D6
:102AA0000E94F306882399F48CE18F1580F42CE1C1
:102AB000F22E0DC0143031F0163021F0193011F023
:102AC0001B3029F48EE18F1510F49EE1F92E80E57C
:102AD00063E00E9484288091D404882351F4812FDC
:102AE00061E00E94D8078FE260E00E94E1248F2D10
:102AF00050C08F2D60E00E94D8078FE260E00E94F6
:102B0000E124812F57C00C3009F045C0F3948FE1C8
:102B10008F1510F4FF24F394123099F48D2D90E06A
:102B20000E94F306882319F08DE18F15A8F08D2DF2
:102B300090E00E94F306882389F48CE18F1560F001
:102B40000DC0143031F0163021F0193011F01B3067
:102B500029F48FE1F81611F4FF24F39480E563E083
:102B60000E9484288091D404882351F4812F60E04E
:102B70000E94D8078FE260E00E94E1248F2D1AC0E6
:102B80008F2D61E00E94D8078FE260E00E94E1246F
:102B9000812F60E010C00D3081F48D2D90E0019602
:102BA00064E670E00E94EE31D82E84E763E00E9474
:102BB00084288D2D61E00E94D80780917604815091
:102BC000809376048091790482FF3FCE80ED97E078
:102BD000FE013197F1F70197D9F737CEDF91CF9109
:102BE0001F910F91FF90EF90DF90CF90BF900895CD
:102BF00026982E9A81E080936800EBE6F0E08081D1
:102C00008064808382E080937C0010927B00EAE7FE
:102C1000F0E08EE8808380818064808308958091D5
:102C20007A00877F80937A0080917A008064809315
:102C30007A0080917A0084FFFCCF20917800309157
:102C40007900C90108951F920F920FB60F921124B7
:102C50002F933F934F935F936F937F938F939F93A4
:102C6000AF93BF93EF93FF93789480917800909106
:102C7000790022E0803E920728F0109279041092A9
:102C8000770473C022E08336920798F1809177042D
:102C900082FD6BC080E29EE40197F1F70E940F165F
:102CA000825692408E37910508F05FC082E0809393
:102CB0007A0412C00E940F16825692408E379105F8
:102CC00058F0809177048B7F80937704809178040B
:102CD00084608093780449C080917A04882351F7F6
:102CE0008091770484608093770480917904846074
:102CF0003AC08F509140E8F08091770481FD10C078
:102D000080E29EE40197F1F70E940F168E509140E9
:102D10008555914050F580917804826080937804C5
:102D20008091770482608093770480917904826037
:102D30001AC08091770480FD0EC080E29EE4019766
:102D4000F1F70E940F168F50914078F4809178042B
:102D50008160809378048091770481608093770408
:102D60008091790481608093790480917A008864ED
:102D700080937A00FF91EF91BF91AF919F918F91D6
:102D80007F916F915F914F913F912F910F900FBE67
:102D90000F901F9018951F920F920FB60F9211244B
:102DA0002F933F934F935F936F937F938F939F9353
:102DB000AF93BF93EF93FF9378940E94A607FF9180
:102DC000EF91BF91AF919F918F917F916F915F91A3
:102DD0004F913F912F910F900FBE0F901F9018951C
:102DE000EF92FF920F931F9390916A0480917C045D
:102DF000981749F180916A04843021F080916A0427
:102E0000873041F480917C04843021F080917C04EF
:102E1000873081F480917C04843021F080917C049F
:102E2000873051F480916A04843031F080916A04D3
:102E3000873011F082E001C081E080937B048091B3
:102E40006A0480937C0480916A04833009F40CC185
:102E5000843038F4813009F447C0823008F068C00B
:102E60000DC0853009F4CDC0853008F470C08630BF
:102E700009F4EBC0873009F0CBC111C18091D704B0
:102E8000882311F180916704882321F480916804DC
:102E90008823D1F080916804882371F08091D20456
:102EA00090E0A0E0B0E08093060590930705A09322
:102EB0000805B093090505C080916704882309F4CB
:102EC000A7C18091C904DFC08091C80490E0A0E050
:102ED000B0E08093060590930705A0930805B09392
:102EE00009058091D104CFC08091D404882381F456
:102EF0008091DB0490E0A0E0B0E080930605909321
:102F00000705A0930805B09309058091D004BBC0C4
:102F10008091D00490E0A0E0B0E08093060590930B
:102F20000705A0930805B09309058091DB04ABC0A9
:102F300084E190E0A0E0B0E080930605909307055F
:102F4000A0930805B09309058091CB049CC08091A3
:102F5000D704882389F180916704882321F4809124
:102F60006804882349F1809168048823B9F060914E
:102F7000DF047091E0048091E1049091E20420E18B
:102F800037E240E050E00E94233220930605309360
:102F90000705409308055093090505C08091670413
:102FA000882309F435C16091DF047091E0048091B9
:102FB000E1049091E2041EC060916B0470916C0476
:102FC00080916D0490916E0420E137E240E050E082
:102FD0000E9423322093060530930705409308058D
:102FE0005093090560916B0470916C0480916D049D
:102FF00090916E0420E137E240E050E00E942332DD
:10300000FFC08091D404882381F48091DC0490E097
:10301000A0E0B0E08093060590930705A093080513
:10302000B09309058091C7042EC08091C70490E039
:10303000A0E0B0E08093060590930705A0930805F3
:10304000B09309058091DC041EC084E190E0A0E00B
:10305000B0E08093060590930705A0930805B09310
:1030600009058091D6040FC08091D50490E0A0E0BE
:10307000B0E08093060590930705A0930805B093F0
:1030800009058091CC0490E0A0E0B0E080930A05AF
:1030900090930B05A0930C05B0930D05B9C0E0907B
:1030A0006B04F0906C0400916D0410916E04E0923A
:1030B000F404F092F5040093F6041093F704909151
:1030C000C8048091D504891760F09091C80480915C
:1030D000D5049817B9F59091D1048091CC04891743
:1030E00088F55091D5042091CC044091C80490916A
:1030F000D1048091E304833019F061E070E002C0F4
:1031000064E070E030E020563A4F291B31098CE32F
:10311000589FC0011124280F391F50E084EC9FEF05
:10312000DC014A9FC0014B9F900D5A9F900D1124C6
:10313000280F391F629FC001639F900D729F900DF1
:1031400011242EC09091D504F091CC044091C80474
:10315000E091D1048091E304833019F061E070E0E4
:1031600002C064E070E08CE3989FC001112450E03D
:1031700024EC3FEFD9014A9F90014B9F300D5A9F9D
:10318000300D1124820F931F8F0F911D8E1B9109FB
:10319000FC016E9FC0016F9F900D7E9F900D1124CA
:1031A000AA2797FDA095BA2FE81AF90A0A0B1B0B5C
:1031B000E092F404F092F5040093F6041093F704FF
:1031C000E090F404F090F5040091F6041091F704F7
:1031D000C801B70120E137E240E050E00E9401322F
:1031E0002093060530930705409308055093090581
:1031F000C801B70120E137E240E050E00E9401320F
:1032000060930A0570930B0580930C0590930D0550
:103210001F910F91FF90EF9008950895AF92CF9274
:10322000EF920F93A82FB0E0E02FF0E0CD01840FD4
:10323000911D8E179F07B4F0EC0DF11DEA17FB07E7
:103240008CF070E04E2D50E0CB01820F911D841761
:10325000950744F080E04A0D511D461757071CF0B2
:1032600081E001C080E00F91EF90CF90AF90089582
:103270009F92AF92BF92CF92DF92EF92FF920F9305
:103280001F93CF93DF937C016A01922EA02E2FEF24
:10329000833E9207F4F1B62EB694B694B69410E03D
:1032A00036C0F601E10FF11D0081812F6CE10E9413
:1032B000CE31C92FD0E0209761F01BC01F5FF6010F
:1032C000E10FF11D0081812F6CE10E94CE31C92FE9
:1032D000D0E0CE018E0D9F1D97FDF0CF812F6CE1C8
:1032E0000E94CE31682F6B0D9E012E0D822F0E9401
:1032F0008428CE0DDF1DC038D10544F4AA2019F072
:10330000802F809501C0802F0E942B281F5F1915E8
:1033100040F2DF91CF911F910F91FF90EF90DF90DE
:10332000CF90BF90AF909F9008953F924F925F9241
:103330006F927F928F929F92AF92BF92CF92DF92C5
:10334000EF92FF920F931F93DF93CF93CDB7DEB72A
:10335000C05ED0400FB6F894DEBF0FBECDBF7C017B
:10336000A62E6A01522E402E84EEE8168FEFF80644
:103370000CF460C0A0E8EA16F1040CF05BC0BFE3F7
:10338000B61708F457C0FE01319680EEDF011D929A
:103390008A95E9F720E030E040E07CE1372E61E0FB
:1033A000662E712C4F013AC0F601E20FF31F6491B3
:1033B000842F869586958695839D80011124842F80
:1033C0008770B62C01C0BB0C8A95EAF72F5F3F4F80
:1033D000D601A20FB31F21503040962F15C0FD011A
:1033E00084911196FD0154911197782F09C0F8012D
:1033F000E70FF11DE80DF91D80818B2980837F5F28
:103400005717A8F791501296992349F7862F90E005
:10341000880F991F0196280F391F4F5F451508F433
:10342000C3CFC7016A2DAE014F5F5F4F20EE042D61
:103430000E943819C052DF4F0FB6F894DEBF0FBE9E
:10344000CDBFCF91DF911F910F91FF90EF90DF9053
:10345000CF90BF90AF909F908F907F906F905F9034
:103460004F903F900895FF920F931F93CF93DF9358
:10347000EB01F42E813099F19B01255E3F4F8230A4
:1034800009F449C0273B310558F4CB0160E070E0F6
:1034900044EB52E020E430E00F2D10E00E9495193B
:1034A000CE01C7968F3E910560F4CE014C9660E048
:1034B00070E042E753E020E430E00F2D10E00E947E
:1034C0009519CE018D5A9F4F8752914008F042C006
:1034D000CE01C89660E070E04AE554E035C0CB010B
:1034E0004B96873B910558F4CB0160E070E042E1D8
:1034F00055E020E430E00F2D10E00E949519CE0138
:10350000C7968F3E910530F5CE014C9660E070E095
:1035100048EC55E019C0273B310558F4CB0160E079
:1035200070E04AE956E020E430E00F2D10E00E9400
:103530009519CE01C7968F3E910560F4CE014C9649
:1035400060E070E048E957E020E430E00F2D10E043
:103550000E949519DF91CF911F910F91FF900895CF
:103560007F928F929F92AF92BF92CF92DF92EF9213
:10357000FF920F931F93CF93DF93D82E762EC22EF8
:1035800050E0440F551F440F551FF6E7EF2EF0E0B3
:10359000FF2EE40EF51EEAE78E2EE0E09E2E840E4E
:1035A000951EF7018491172DC7E0D0E0A82EBB240B
:1035B000C5010C2E02C0959587950A94E2F780FF0D
:1035C00009C000E0CC2009F401E08D2D612F42E01C
:1035D00022E005C08D2D612F42E022E00C2D0E94DB
:1035E0002A2521971E5FFFEFCF3FDF0709F70894D9
:1035F000E11CF11C82E0D80EE814F90491F6DF9189
:10360000CF911F910F91FF90EF90DF90CF90BF90DF
:10361000AF909F908F907F9008950F931F93182FD6
:1036200080E060E040E820E4012F0E942A250E940B
:10363000F01680916A04843009F498C080916A047D
:10364000873009F493C08091CA048823F9F48091EB
:103650006A04882321F080916A048330B9F4609170
:103660000605709107058091080590910905695E2E
:103670007F4F8F4F9F4F2CE030E040E050E00E94A2
:1036800001326F5F7F4F8F4F9F4F08C060910605DB
:103690007091070580910805909109052AE030E0B6
:1036A00040E050E00E9401328EE164E0422F212F81
:1036B0000E94B01A8091CA048823F9F480916A04A8
:1036C000882321F080916A048330B9F46091060563
:1036D000709107058091080590910905695E7F4FFB
:1036E0008F4F9F4F2CE030E040E050E00E940132CD
:1036F0006F5F7F4F8F4F9F4F08C06091060570919D
:10370000070580910805909109052AE030E040E026
:1037100050E00E940132462F8DE264E0212F0E948A
:10372000B01A60910A0570910B0580910C0590917B
:103730000D052AE030E040E050E00E94013286E4CE
:1037400064E0422F212F0E94B01A60910A05709107
:103750000B0580910C0590910D052AE030E040E0CA
:1037600050E00E940132462F85E5B4C06091060505
:1037700070910705809108059091090528EE33E0C6
:1037800040E050E00E9401328EE064E0422F212FA1
:103790000E94B01A60910605709107058091080596
:1037A0009091090528EE33E040E050E00E9401329C
:1037B00024E630E040E050E00E9401328BE164E01A
:1037C000422F212F0E94B01A6091060570910705C3
:1037D000809108059091090524E630E040E050E032
:1037E0000E9401322AE030E040E050E00E940132C5
:1037F00088E264E0422F212F0E94B01A60910605F2
:103800007091070580910805909109052AE030E044
:1038100040E050E00E940132462F85E364E0212F12
:103820000E94B01A60910A0570910B0580910C05F9
:1038300090910D0528EE33E040E050E00E94013207
:1038400082E464E0422F212F0E94B01A60910A05A1
:1038500070910B0580910C0590910D0528EE33E0D9
:1038600040E050E00E94013224E630E040E050E0C9
:103870000E9401328FE464E0422F212F0E94B01A8F
:1038800060910A0570910B0580910C0590910D05D2
:1038900024E630E040E050E00E9401322AE030E0CF
:1038A00040E050E00E9401328CE564E0422F212F7D
:1038B0000E94B01A60910A0570910B0580910C0569
:1038C00090910D052AE030E040E050E00E94013286
:1038D000462F89E664E0212F0E94B01A1F910F91B4
:1038E00008951F93DF93CF930F92CDB7DEB7182FB4
:1038F00019821092700080917B04882361F080917E
:103900007B04823021F4812F0E940D1B02C081E0D4
:10391000898310927B0481E08093700080916A0417
:10392000843009F4A5C080916A04873009F4A0C0EE
:1039300089818823B9F18091CA048823F9F48091A0
:103940006A04882321F080916A048330B9F460917D
:103950000605709107058091080590910905695E3B
:103960007F4F8F4F9F4F2CE030E040E050E00E94AF
:1039700001326F5F7F4F8F4F9F4F08C060910605E8
:103980007091070580910805909109052AE030E0C3
:1039900040E050E00E9401328EE164E0422F212F8E
:1039A0000E94B01A89818823B9F18091CA048823C2
:1039B000F9F480916A04882321F080916A048330AD
:1039C000B9F4609106057091070580910805909102
:1039D0000905695E7F4F8F4F9F4F2CE030E040E03C
:1039E00050E00E9401326F5F7F4F8F4F9F4F08C0A2
:1039F0006091060570910705809108059091090571
:103A00002AE030E040E050E00E940132462F8DE293
:103A100064E0212F0E94B01A89818823A1F060916F
:103A20000A0570910B0580910C0590910D052AE017
:103A300030E040E050E00E94013286E464E0422F32
:103A4000212F0E94B01A8981882309F4E1C0609176
:103A50000A0570910B0580910C0590910D052AE0E7
:103A600030E040E050E00E940132462F85E5CCC0B6
:103A700089818823A1F060910605709107058091E6
:103A800008059091090528EE33E040E050E00E94DF
:103A900001328EE064E0422F212F0E94B01A89810A
:103AA0008823D1F060910605709107058091080583
:103AB0009091090528EE33E040E050E00E94013289
:103AC00024E630E040E050E00E9401328BE164E007
:103AD000422F212F0E94B01A89818823D1F0609152
:103AE000060570910705809108059091090524E667
:103AF00030E040E050E00E9401322AE030E040E057
:103B000050E00E94013288E264E0422F212F0E949F
:103B1000B01A89818823A1F060910605709107058C
:103B200080910805909109052AE030E040E050E0DE
:103B30000E940132462F85E364E0212F0E94B01AD3
:103B400089818823A1F060910A0570910B0580910D
:103B50000C0590910D0528EE33E040E050E00E9406
:103B6000013282E464E0422F212F0E94B01A898141
:103B70008823D1F060910A0570910B0580910C05A6
:103B800090910D0528EE33E040E050E00E940132B4
:103B900024E630E040E050E00E9401328FE464E02F
:103BA000422F212F0E94B01A89818823D1F0609181
:103BB0000A0570910B0580910C0590910D0524E686
:103BC00030E040E050E00E9401322AE030E040E086
:103BD00050E00E9401328CE564E0422F212F0E94C8
:103BE000B01A89818823A1F060910A0570910B05B4
:103BF00080910C0590910D052AE030E040E050E006
:103C00000E940132462F89E664E0212F0E94B01AFB
:103C100019820F90CF91DF911F910895DF92EF925B
:103C2000FF920F931F93CF93DF93809167048823B4
:103C300059F081E080937B041092680480916804BD
:103C4000809367040E94F01680916804882309F429
:103C50003CC080E060E040E820E401E00E942A25CA
:103C6000C8ECDFEFDD24D394E12CBDE7FB2E08EC9C
:103C700010E0D0927B0481E00E94711C81E0BE01C3
:103C800041E00E94331AC7010197F1F7CC31D10509
:103C900059F480E197E2F8013197F1F70197D9F7EC
:103CA000109268040E94F0162196C83BD10509F7CE
:103CB00080E060E040E820E400E00E942A2581E006
:103CC00080937B0480E00E94711CDF91CF911F9153
:103CD0000F91FF90EF90DF9008959C0160E971E0F3
:103CE0000E94DA31892B11F481E00895C90164E65C
:103CF00070E00E94DA31892B11F480E0089580E0B1
:103D000023703070232B09F481E008954F925F9265
:103D10006F927F928F929F92AF92BF92CF92DF92DB
:103D2000EF92FF920F931F93CF93DF93382F562F6D
:103D3000942E522E402E8E2CE41620F0E41691F490
:103D4000281780F4852D642D482D232F052FE92C6D
:103D50000E94861E22273327A901261B370B480BFA
:103D6000590BDEC0351569F4981409F053C0842D41
:103D700090E0851B91099C01442737FD4095542F05
:103D8000CFC0981409F046C0C32FD0E0FE01E9551A
:103D9000FD4FE4918E2F90E0851B91097C01002757
:103DA000F7FC0095102F323041F4892D90E00E94ED
:103DB0006D1EE80EF11C011D111D98EAA92E92E05E
:103DC000B92EAC0EBD1ECC24DD243E010894611C2E
:103DD000711CC52DD0E017C0F5018491E80EF11CCF
:103DE000011D111D2230310541F4892D90E00E9402
:103DF0006D1EE80EF11C011D111D0894C11CD11C83
:103E00000894A11CB11C93012C0D3D1D2C173D07DE
:103E10001CF380C0C32FD0E0FE01E955FD4FE491B3
:103E20008E2F90E0851B91097C010027F7FC0095FF
:103E3000102F323041F4892D90E00E946D1EE80E63
:103E4000F11C011D111D88EAA82E82E0B82EAC0ECF
:103E5000BD1ECC24DD24219617C0F5018491E80E07
:103E6000F11C011D111D2230310541F4892D90E016
:103E70000E946D1EE80EF11C011D111D0894C11C4D
:103E8000D11C0894A11CB11C9E012C0D3D1D2D3090
:103E900031051CF3892D90E06C010894C11CD11CE4
:103EA000C0E0D0E03C01A82CBB2411C0C6010E9498
:103EB0006D1E90E083599E4FAA2797FDA095BA2FBB
:103EC000E80EF91E0A1F1B1F0894C11CD11C219665
:103ED000CE01860D971D8A159B0544F3C1E0D0E005
:103EE000C52CDD2414C0FE01E955FD4FE491EE0E12
:103EF000F11C011D111DC230D10541F4882D90E047
:103F00000E946D1EE80EF11C011D111D2196CC159D
:103F1000DD054CF3A8019701240D311D411D511DF4
:103F2000B901CA01DF91CF911F910F91FF90EF90DE
:103F3000DF90CF90BF90AF909F908F907F906F90C9
:103F40005F904F900895EF92FF920F931F937B0124
:103F5000882341F4BA0180E090E02FEB32E040E0AA
:103F600050E009C0813011F5BA0180E090E020E115
:103F700037E240E050E00E94AF3100E010E0A801DD
:103F800097010E940132CA01B901A80197010E945C
:103F90000132C901DA018F3F9105A105B10539F060
:103FA00030F08FEF90E0A0E0B0E001C0842F1F91CF
:103FB0000F91FF90EF9008952F923F924F925F9252
:103FC0006F927F928F929F92AF92BF92CF92DF9229
:103FD000EF92FF920F931F93CF93DF93EC01288012
:103FE00039804A805B806C807D808E809F80AA248F
:103FF000BB246501F501E370F070EE0FFF1FEE0FBB
:10400000FF1FE25BFC4FE080F18002811381EA0C2C
:10401000FB1C0C1D1D1DD401C30175E0B695A795B1
:10402000979587957A95D1F7A401930164E0220FC3
:10403000331F441F551F6A95D1F782279327A42762
:10404000B527860D971DA81DB91DE826F9260A2754
:104050001B272E0C3F1C401E511E89EB99E7A7E33E
:10406000BEE9A80EB91ECA1EDB1EA2019101F5E031
:104070005695479537952795FA95D1F7D201C10105
:10408000E4E0880F991FAA1FBB1FEA95D1F72827E4
:1040900039274A275B27220D331D441D551DD601A4
:1040A000C5017BE0B695A795979587957A95D1F749
:1040B00083709070880F991F880F991F825B9C4FA7
:1040C000FC0180819181A281B3818A0D9B1DAC1D71
:1040D000BD1D282739274A275B27620E731E841EC1
:1040E000951EF0E2AF16F7E3BF06FFEECF06F6EC43
:1040F000DF0609F07FCF288239824A825B826C8298
:104100007D828E829F82DF91CF911F910F91FF90D0
:10411000EF90DF90CF90BF90AF909F908F907F9067
:104120006F905F904F903F902F9008958F92AF9235
:10413000BF92CF92DF92EF92FF920F931F93DF9384
:10414000CF93CDB7DEB728970FB6F894DEBF0FBE7A
:10415000CDBFE82FF42F722FBC2C8A2D81508230D6
:1041600008F040C030E040E050E03961802F90E03E
:10417000A0E0B0E0B82FAA2799278827282B392B51
:104180004A2B5B2B8E2D90E0A0E0B0E0DC0199275C
:104190008827282B392B4A2B5B2B29833A834B8387
:1041A0005C832F8930E040E050E0542F432F322FC2
:1041B0002227888D90E0A0E0B0E0282B392B4A2BF5
:1041C0005B2B426B898D90E0A0E0B0E0B82FAA276E
:1041D00099278827282B392B4A2B5B2B2D833E834D
:1041E0004F8358878E2F4F2F272F0E94861E2AE03D
:1041F00030E040E050E00E94AF317B018C0125E4CB
:104200003EE040E050E00E9401326901BB2029F00D
:1042100026E33BE644E050E004C02AE83CE144E009
:1042200050E0BA01A9014E195F09600B710B882D8E
:1042300090E08E3291051CF08DE290E005C088314F
:10424000910514F488E190E08C010851104083E05E
:10425000A81609F0A5C0BB2009F04BC0475E5F401F
:10426000624070409E89913051F5A0E9B2E020E0B3
:1042700030E0FD0185919491C816D906D0F4F9017A
:10428000EE0FFF1FEE0FFF1FEE56FD4F25913491ED
:10429000C901E3E0880F991FEA95E1F7220F331F68
:1042A000820F931FA0E0B0E0481B590B6A0B7B0BF9
:1042B00006C02F5F3F4F149623303105D1F6E9EC4D
:1042C000F1E0849190E0C816D9061CF480E090E0FB
:1042D00009C07796849190E0C816D9060CF08CC17D
:1042E00087E190E0080F191F06531E4FF8018491D3
:1042F0003FC0445B5A4362407040ACE9B2E020E00A
:1043000030E0FD0185919491C816D906D0F4F901E9
:10431000EE0FFF1FEE0FFF1FE256FD4F2591349168
:10432000C901E3E0880F991FEA95E1F7220F331FD7
:10433000820F931FA0E0B0E0481B590B6A0B7B0B68
:1043400006C02F5F3F4F149623303105D1F620E091
:1043500030E0F901E950FE4FE4918E2F90E0C8164D
:10436000D906C4F4020F131F08501E4FF8018491A0
:1043700090E025E43EE0DC01A29FC001A39F900DE8
:10438000B29F900D1124A0E0B0E0481B590B6A0BBE
:104390007B0B32C1295E3F4F25343105D1F62CC14C
:1043A000BB2009F045C0BE89B13051F5ACE3B2E0A5
:1043B00020E030E0FD0185919491C816D906D0F433
:1043C000F901EE0FFF1FEE0FFF1FE25CFD4F25917D
:1043D0003491C901E3E0880F991FEA95E1F7220FB4
:1043E000331F820F931FA0E0B0E0481B590B6A0BEC
:1043F0007B0B06C02F5F3F4F14962B303105D1F653
:1044000020E030E0F901E256FF4FE4918E2F90E07A
:10441000C816D9063CF4020F131F01561F4FF801AE
:10442000849144C0295E3F4F2A38310559F755C061
:10443000BE89B13051F5A8E6B2E020E030E0FD01E0
:1044400085919491C816D906D0F4F901EE0FFF1F9B
:10445000EE0FFF1FE659FD4F25913491C901F3E09E
:10446000880F991FFA95E1F7220F331F820F931FD0
:10447000A0E0B0E0481B590B6A0B7B0B06C02F5F16
:104480003F4F14962A303105D1F620E030E0F90193
:10449000E85DFE4FE4918E2F90E0C816D906C4F473
:1044A000020F131F075D1E4FF801849190E025E471
:1044B0003EE0DC01A29FC001A39F900DB29F900D32
:1044C0001124A0E0B0E0481B590B6A0B7B0B05C020
:1044D000295E3F4F213A3105D1F6B2E0AB1609F023
:1044E00042C08DEAE82E8EE8F82E012D112DE40E43
:1044F000F51E061F171F89819A81AB81BC818E250D
:104500009F25A027B12789839A83AB83BC83CE01E3
:1045100001960E94DC1F69817A818B819C817F7763
:104520008070907028EE33E040E050E00E94AF31A0
:104530002FEF3FE740E050E00E940132CA01B9018D
:1045400026E036ED40E050E00E94AF3128EE33E047
:1045500040E050E00E940132BA01A9014E0D5F1DFA
:10456000601F711F49C0E1E0AE1609F045C0BCEF05
:10457000EB2EB9E2FB2EBFEF0B2FBFEF1B2FE40E8C
:10458000F51E061F171F8D819E81AF81B8858E2570
:104590009F25A027B1278D839E83AF83B887CE0147
:1045A00001960E94DC1F6D817E818F8198857F77C7
:1045B0008070907028EE33E040E050E00E94AF3110
:1045C0002FEF3FE740E050E00E940132CA01B901FD
:1045D00022EB3EE840E050E00E94AF3128EE33E0AD
:1045E00040E050E00E940132D801C701821B930BCA
:1045F000A40BB50BAC01BD0177FF05C020E030E096
:1046000040E050E00AC0CB01BA0120E930E040E0D0
:1046100050E00E94AF319B01AC01B901CA0128965C
:104620000FB6F894DEBF0FBECDBFCF91DF911F91C3
:104630000F91FF90EF90DF90CF90BF90AF908F9051
:1046400008959093C5008093C40088E18093C100D1
:104650008EE08093C200519A5098089506C090E071
:1046600000009F5F9E31E1F781508823C1F70895D4
:1046700048EC50E009C020E137E2FA013197F1F748
:1046800021503040D1F781508823A9F70895982F01
:104690008091C00085FFFCCF9093C60080E090E041
:1046A00008958091C00087FFFCCF8091C6000895D7
:1046B0008091C00080780895AC0120E007C080910F
:1046C000C00085FFFCCF3093C6002F5FFA01E20FD8
:1046D000F11D3491332399F7662371F08091C00066
:1046E00085FFFCCF8AE08093C6008091C00085FFE3
:1046F000FCCF8DE08093C6000895FC0107C0809137
:10470000C00085FFFCCF31969093C600908199231D
:10471000B1F70895282F982F92959F709A3030F412
:104720008091C00085FFFCCF905D05C08091C000E6
:1047300085FFFCCF995A9093C600822F90E08F702E
:1047400090700A973CF48091C00085FFFCCF2F70D9
:10475000205D06C08091C00085FFFCCF2F70295AD4
:104760002093C60008951F93182F892F0E948A2333
:10477000812F0E948A231F910895EF92FF920F9339
:104780001F937B018C01C801AA27BB270E94B3237A
:10479000C7010E94B3231F910F91FF90EF900895DE
:1047A0000F931F93CF93DF938C01E0E1F7E240E09A
:1047B000C0E0D0E0C801BF010E94DA31262F662395
:1047C00029F4442319F4E130F10549F48091C00043
:1047D00085FFFCCF205D2093C600205341E0CF0130
:1047E0006AE070E00E94DA312196C530D10571F09F
:1047F000822F90E09C012E9FC0012F9F900D3E9F25
:10480000900D1124081B190BFB01D4CFDF91CF9120
:104810001F910F9108951F93CF93DF93482F87FF28
:1048200008C08091C00085FFFCCF8DE28093C60058
:104830004195E4E6F0E010E0C0E0D0E0842F992755
:1048400087FD9095BF010E94DA31262F16162CF0B5
:10485000112319F4E130F10549F48091C00085FF7E
:10486000FCCF205D2093C600205311E0CF016AE009
:1048700070E00E94DA312196C330D10531F02E9FCD
:10488000802D1124481BFB01D9CFDF91CF911F91BF
:1048900008954F925F926F927F928F929F92AF9204
:1048A000BF92CF92DF92EF92FF920F931F93CF931D
:1048B000DF934B015C01E12C9AECF92E9AE9092F68
:1048C0009BE3192F4424C0E0D0E0C501B401A80146
:1048D00097010E940132D22E222341F4442031F468
:1048E00081E0E816F1040105110561F48091C00032
:1048F00085FFFCCF80E3D80ED092C60080EDD80EA5
:1049000044244394C801B7012AE030E040E050E07D
:104910000E940132C22E732E642E552E2196CA306B
:10492000D105A9F06D2D70E080E090E0A80197011D
:104930000E94AF31861A970AA80AB90A2C2D372D82
:10494000462D552DC901DA017C018D01BECFDF91C5
:10495000CF911F910F91FF90EF90DF90CF90BF907C
:10496000AF909F908F907F906F905F904F90089541
:1049700008950F931F93CF93DF93482F30E020E0EB
:1049800006C08C58974FFC018491280F3F5F822FFF
:1049900090E03417B0F3FC01EC58F74F0491EC01B0
:1049A000CB58D74F10E006C0FE0184910E942B28FF
:1049B0001F5F21961017C0F3DF91CF911F910F91C8
:1049C0000895DF92EF92FF920F931F93CF93DF939F
:1049D000D62E95E0899FC0011124EC01C951D84F12
:1049E0008E012CEEE22E27E0F22EE80EF91EDD20DD
:1049F00021F0FE018491809502C0F80184910E940B
:104A00002B2821960F5F1F4FCE15DF0581F7DD2084
:104A100011F08FEF01C080E00E942B2880E00E94FF
:104A20007728DF91CF911F910F91FF90EF90DF904A
:104A300008951F93CF93DF93EC01162F04C0612FCD
:104A40000E94E124219688818823C9F7DF91CF91C4
:104A50001F9108952F923F924F925F926F927F9293
:104A60008F929F92AF92BF92CF92DF92EF92FF927E
:104A70000F931F93CF93DF93282E162F342EF22EF1
:104A8000402EC62FD0E0C770D070209709F45BC0CD
:104A9000562E569456945694EE2467E0C62EC122A4
:104AA0008C2C992487FC90945E01A20EB11C51E0DD
:104AB000652E712C35C0DE2CD20C8D2D652D0E94FB
:104AC00084280E94DE270E94DE27082F40E050E065
:104AD00015C081E0481641F4C30102C0880F991F38
:104AE0002A95E2F7082B08C0C30102C0880F991F5E
:104AF0002A95E2F7809508234F5F5F4F9A01280DB2
:104B0000391D2A153B0524F48C2D840F883009F7B4
:104B10008D2D652D0E948428802F0E942B28E394E0
:104B2000E31448F22F2D30E088E090E08C1B9D0BC1
:104B30008217930714F0FF2404C0812F87708850D8
:104B4000F80E187F185FE12EE694E694E694C12FE4
:104B5000D0E0CF0DD11D43E0D595C7954A95E1F73B
:104B600012C0822D6E2D0E94842810E009C081E0C1
:104B7000481611F48FEF01C080E00E942B281F5FC0
:104B80001315A8F3E3948E2D90E08C179D074CF33A
:104B90002F2D2770C9F100E0C22FD0E031E0A32E05
:104BA000B12C30C0F02EF20C8F2D6E2D0E94842877
:104BB0000E94DE270E94DE27182F20E030E017C079
:104BC00081E0481649F4C501022E02C0880F991FE2
:104BD0000A94E2F7182B09C0C501022E02C0880F03
:104BE000991F0A94E2F7809518232F5F3F4F2C17E7
:104BF0003D0734F38F2D6E2D0E948428812F0E9453
:104C00002B280F5F031570F280E00E947728DF9158
:104C1000CF911F910F91FF90EF90DF90CF90BF90B9
:104C2000AF909F908F907F906F905F904F903F904C
:104C30002F900895DF92EF92FF920F931F93F82E1B
:104C4000162FD42EE22E41E001E00E942A258F2D5E
:104C500081508D0D612F41E02E2D0E942A258F2D30
:104C6000612F4D2D21E00E942A2511501E0D8F2D00
:104C7000612F4D2D21E00E942A251F910F91FF9059
:104C8000EF90DF900895EF92FF920F931F93F82E0D
:104C9000162F062F069506950695602F0E948428EC
:104CA0000E94DE270E94DE27E82E8F2D602F0E94B3
:104CB0008428177081E090E002C0880F991F1A9530
:104CC000E2F780958E210E942B2880E00E947728B1
:104CD0001F910F91FF90EF900895EF92FF920F9325
:104CE0001F93F82E162F062F069506950695602F12
:104CF0000E9484280E94DE270E94DE27E82E8F2D46
:104D0000602F0E948428177081E090E002C0880F15
:104D1000991F1A95E2F78E290E942B2880E00E94A5
:104D200077281F910F91FF90EF9008953F924F9237
:104D30005F926F927F928F929F92AF92BF92CF922B
:104D4000DF92EF92FF920F931F93CF93DF93D82EB2
:104D5000C62E322E462E481AE42EFF24C701880F95
:104D6000991FCC27DD27C81BD90B23965D2C662EF7
:104D7000762EAA24BB248824992481E0381641F594
:104D80000E2D0C0D8D2D602F0E946D269C2D9E19D1
:104D9000192F8D2D692F0E946D26852D602F0E9461
:104DA0006D26852D612F0E946D260419802F662D9A
:104DB0000E946D26802F672D0E946D261419812F69
:104DC000662D0E946D26812F672D0E946D2627C0BB
:104DD0000E2D0C0D8D2D602F0E9443268C2D8E19CB
:104DE000182F8D2D612F0E944326852D602F0E9444
:104DF0004326852D612F0E9443260419802F662D9E
:104E00000E944326802F672D0E9443261419812F6C
:104E1000662D0E944326812F672D0E944326D7FFCF
:104E200004C02696C80DD91D0DC02A96C5018E193D
:104E30009F09880F991F880F991FC80FD91F0894C1
:104E4000E108F1080894A11CB11C84E090E0880EF0
:104E5000991ED3945A9463947A94EA14FB040CF048
:104E60008CCFDF91CF911F910F91FF90EF90DF904A
:104E7000CF90BF90AF909F908F907F906F905F90FA
:104E80004F903F9008952F982D982C9840985A98BD
:104E9000279A259A249A389A529A8BB18F708BB997
:104EA00085B1807F85B98AB1806F8AB984B18F60FE
:104EB00084B9089540985A98882319F0813021F4D4
:104EC00002C0409A08955A9A0895F8940E945A2769
:104ED0008BB1806F8BB985B18F6085B92F988AB1FE
:104EE0008F708AB984B1807F84B92D9A2C9A000082
:104EF00000000AC02C9800000000000000002C9A5E
:104F0000000000000000000089B193B187FDF2CFDE
:104F10002C982D988AB1806F8AB984B18F6084B93A
:104F2000789408951F93162FF8940E9465272F9860
:104F30002D982C9A8AB1806F8AB984B18F6084B918
:104F40008BB18F708BB99BB1812F807F892B8BB9EF
:104F500085B1807F85B985B11F70812B85B900002F
:104F600000000000000000000000000000002C987D
:104F700078941F910895F8940E9465272F988AB11C
:104F80008F708AB984B1807F84B92D9A2C9A0000E1
:104F9000000000000000000000000000000029B137
:104FA00083B12C982D989AB1906F9AB994B19F6063
:104FB00094B978948F70207F822B0895F894809113
:104FC0000E0582958695869583700E9465272F9A97
:104FD0008AB18F708AB984B1807F84B92D9A2C9A56
:104FE00000000000000000000000000000000000C1
:104FF00099B183B12C982D9878948F70907F892BDC
:105000000895089580930E0580E060E40E94922741
:105010001092100581E060E40E9492271092120520
:1050200080910E05682F6F736064829586958695D2
:1050300083700E94922708951F93182F80930F0565
:10504000186B80E0612F0E94922781E0612F0E94FF
:1050500092271F9108950F931F93182F00910E050B
:105060000295069506950370F894802F0E94652797
:105070002F9A2D982C9A8AB1806F8AB984B18F604B
:1050800084B98BB18F708BB99BB1812F807F892BB5
:105090008BB985B1807F85B985B11F70812B85B9AA
:1050A0000000000000000000000000000000000000
:1050B0002C987894E02FF0E0EE0FFF1FE05FFA4F9E
:1050C00080818F5F808380910E058F5F80930E05B6
:1050D00087FF0AC080910F058F5F80930F050E94A4
:1050E0001C2880E00E9402281F910F9108951F93B1
:1050F000182F106C80E0612F0E94922781E0612FB1
:105100000E9492271F9108951F93182F862F0E94A7
:105110001C28812F0E9402281F9108950F931F932E
:1051200000E080E0602F0E94842810E080E00E9470
:105130002B281F5F1038D1F70F5F083091F71F91B0
:105140000F91089580E00E94772880E060E00E943F
:1051500084281092100510921105109212051092D9
:10516000130508950E94432780E06FE30E94922771
:1051700081E06FE30E9492270E948E280E94A2285D
:105180000895982F86E0689F802D1124692F0E9432
:10519000842808950895459A449A1092C404109260
:1051A000C3041092C6041092C50480E28093B80034
:1051B000ECEBF0E080818460808310927D0480813C
:1051C000816080838081806480837894089580E208
:1051D0008093B800089590E0611191E08E7F982B44
:1051E0009093BA0008959093C4048093C3040895E3
:1051F0009093C6048093C5040895ECEBF0E08081A1
:105200008F70806A80830895ECEBF0E080818F706E
:10521000806D808308958091BC0087FFFCCF089546
:105220008093BB00ECEBF0E080818F70806880831E
:105230000895882329F08091BC008F70806C04C091
:105240008091BC008F7080688093BC00089580912D
:10525000BB0008958091B9000895982F80917D0436
:105260008823E1F782E080937D049E7F90937E0403
:10527000AFE7B4E0FA0102C081918D938E2F841BB9
:105280008617D0F310929F046093A0048091BC0015
:105290008F70806A8093BC000895982F80917D0460
:1052A0008823E1F783E080937D04916090937E04EE
:1052B0001092C1046093C2048091BC008F70806A18
:1052C0008093BC0080917D048823E1F7A1EAB4E0DB
:1052D000FA0102C08D9181938E2F841B8617D0F323
:1052E0000895982FFA018091BC008E7F8093BC00B6
:1052F0008091BC008F70806A8093BC008091BC005C
:1053000087FFFCCF9E7F9093BB008091BC008F7085
:1053100080688093BC008091BC0087FFFCCF8091A7
:10532000B900883189F091E012C080818093BB0080
:105330008091BC008F7080688093BC008091BC001D
:1053400087FFFCCF31966150662379F790E080911A
:10535000BC008F70806D8093BC008091BC0084FF86
:10536000FCCF8091BC0081608093BC00892F0895A0
:105370001F93CF93DF93982F162FEA018091BC00E3
:105380008E7F8093BC008091BC008F70806A809378
:10539000BC008091BC0087FFFCCF91609093BB0064
:1053A0008091BC008F7080688093BC008091BC00AD
:1053B00087FFFCCF8091B900803469F091E018C07C
:1053C0008FEF0E9419298091BC0087FFFCCF80914C
:1053D000BB0089931150123098F780E00E94192980
:1053E0008091BC0087FFFCCF8091BB00888390E058
:1053F0008091BC008F70806D8093BC008091BC0058
:1054000081608093BC00892FDF91CF911F91089517
:1054100080917D0408951F920F920FB60F92112470
:105420002F933F934F935F936F937F938F939F93AC
:10543000AF93BF93EF93FF938091B900887F883635
:1054400009F4CBC0893688F5803309F495C08133DF
:10545000B0F4803109F45AC0813138F4882309F45A
:105460003EC1883009F048C151C0803209F484C07F
:10547000883209F453C0883109F03EC14FC08834E6
:1054800009F47AC0893438F4883309F478C0803458
:1054900009F032C192C0883509F45DC0803609F444
:1054A0009CC0803509F028C174C0803A09F4BEC0A0
:1054B000813AB0F4803809F49BC0813838F48037E1
:1054C00009F48BC0883709F017C187C0803909F407
:1054D0008FC0883909F4A1C0883809F00DC19DC07A
:1054E000883B09F4D1C0893B38F4883A09F4B6C046
:1054F000803B09F001C1B2C0883C09F4E0C0883F9C
:1055000009F4E7C0803C09F0F7C0D9C084EB9BE008
:1055100060E00E945C2380917E0414C085E99BE0DA
:1055200060E00E945C2390919F048091A0049817F2
:1055300008F0DAC0E92FF0E0E158FB4F80819F5F6F
:1055400090939F048093BB008091BC008F70806813
:105550008093BC00D1C080E89BE060E00E945C23A7
:105560008091C1049091BB00E82FF0E0EF55FB4F14
:1055700090838F5F8093C1048AE59BE0B2C086E48C
:105580009BE060E00E945C238091BC008F7080688B
:10559000AFC082E39BE060E00E945C238091BB008F
:1055A0009091C104E92FF0E0EF55FB4F80839F5F9E
:1055B0009093C10490E00E94B3238FE19BE060E0F0
:1055C0000E945C232091C10430E08091C20490E0ED
:1055D00001972817390734F51EC08CE09BE060E086
:1055E0000E945C2385E080937D041092C10462C018
:1055F00088EF9AE060E00E945C238091C104909162
:10560000BB00E82FF0E0EF55FB4F90838F5F809356
:10561000C104803238F48FEF06C083EE9AE060E078
:105620000E945C2380E00E94192966C080ED9AE008
:1056300060E00E945C238091BC008F70806C80933E
:10564000BC00E091C304F091C404309709F452C047
:105650008091C10461EA74E009954CC08DEB9AE039
:1056600060E00E945C2384E080937D04E091C504A7
:10567000F091C604309731F080E26FE774E009954D
:105680008093A00410929F0489EA9AE060E00E944F
:105690005C2390919F04E92FF0E0E158FB4F80815B
:1056A0008093BB009F5F90939F048091A004981704
:1056B00008F04ACF8091BC008F70806C49CF87E89A
:1056C0009AE060E00E945C238091BC008F70806C47
:1056D0000FC088E79AE060E00E945C230DC087E677
:1056E0009AE060E00E945C238091BC008F70806D26
:1056F0008093BC0010927D04FF91EF91BF91AF9118
:105700009F918F917F916F915F914F913F912F91D9
:105710000F900FBE0F901F901895EF92FF920F936E
:105720001F937B018C0120E030E040E05FE40E94A9
:105730008D2E88238CF0C801B70120E030E040E0D6
:105740005FE40E94052D0E94ED2E9B01AC012050CC
:1057500030404040504806C0C801B7010E94ED2EBD
:105760009B01AC01B901CA011F910F91FF90EF900D
:105770000895A0E0B0E0EFEBFBE20C943E32DC01D8
:105780002B01FA019C91923008F439C1EB01888118
:10579000823008F433C1943069F4843009F02FC1A9
:1057A00011969C9111978981981709F428C1AEE54B
:1057B000B3E025C1843009F421C18230A9F49230CC
:1057C00009F01DC19A01AD0188E0EA010990AE011E
:1057D000E90109929E018150C1F7E2018981119688
:1057E0009C918923818308C1923009F407C11296E4
:1057F0002D903C901397EB018A819B811496AD907C
:10580000BD90CD90DC901797EC80FD800E811F81BC
:105810009101281B390BB90137FF04C06627772790
:10582000621B730B603271050CF061C01216130617
:105830006CF537014801062E04C09694879477943E
:1058400067940A94D2F721E030E040E050E004C0D1
:10585000220F331F441F551F6A95D2F72150304045
:10586000404050402E213F21402351232115310536
:105870004105510521F021E030E040E050E07901A0
:105880008A01E628F728082919293CC0232BD1F1E1
:10589000260E371E35014601062E04C096948794C5
:1058A000779467940A94D2F721E030E040E050E02A
:1058B00004C0220F331F441F551F6A95D2F7215091
:1058C0003040404050402A213B214C215D21211590
:1058D00031054105510521F021E030E040E050E084
:1058E00059016A01A628B728C828D9280BC08215F3
:1058F00093052CF01C01AA24BB24650103C0EE24EF
:10590000FF24870111969C91D20111968C919817D2
:1059100009F445C0992339F0A80197012A193B09D8
:105920004C095D0906C0A60195012E193F09400BDF
:10593000510B57FD08C011823382228224833583A4
:10594000468357831DC081E081833382228288276A
:105950009927DC01821B930BA40BB50B84839583E1
:10596000A683B7830DC0220F331F441F551F248306
:105970003583468357838281938101979383828302
:105980002481358146815781DA01C9010197A10936
:10599000B1098F5F9F4FAF4FBF4328F30BC0918377
:1059A00033822282EA0CFB1C0C1D1D1DE482F58251
:1059B0000683178383E08083248135814681578164
:1059C00057FF1AC0C901AA2797FDA095BA2F817069
:1059D0009070A070B0705695479537952795822B9B
:1059E000932BA42BB52B84839583A683B7838281C5
:1059F0009381019693838283DF0101C0D201CD019F
:105A0000CDB7DEB7E2E10C945A32A0E2B0E0EBE0B1
:105A1000FDE20C944A3269837A838B839C832D83C5
:105A20003E834F835887E9E0EE2EF12CEC0EFD1EED
:105A3000CE010196B7010E94DE308E010F5E1F4F2E
:105A4000CE010596B8010E94DE308A8991E089274F
:105A50008A8BC701B801AE01475E5F4F0E94B92B28
:105A60000E940930A096E6E00C946632A0E2B0E015
:105A7000ECE3FDE20C944A3269837A838B839C8346
:105A80002D833E834F835887F9E0EF2EF12CEC0EE7
:105A9000FD1ECE010196B7010E94DE308E010F5E21
:105AA0001F4FCE010596B8010E94DE30C701B80134
:105AB000AE01475E5F4F0E94B92B0E940930A0964D
:105AC000E6E00C946632A0E2B0E0E9E6FDE20C9478
:105AD0003E3269837A838B839C832D833E834F83FD
