:100000000C9446070C9463070C9463070C94111E20
:100010000C9463070C9463070C9463070C946307B8
:100020000C9463070C94A20A0C9463070C94D807F1
:100030000C9463070C9465070C9477070C94630782
:100040000C9463070C9463070C9463070C94630788
:100050000C9463070C94691D0C9463070C9463075C
:100060000C9431350C946307000000000000011B64
:100070001B011A1B01191B01181B01171B01161B61
:1000800001161B01151B01151B01151B01141B017A
:10009000141B01141B01141B01141B01141B020A65
:1000A0000C141B02080D141B02070E141B02070E72
:1000B000151B020710151B020612151B020613164C
:1000C0001B020514171B020514171B020614171B2D
:1000D000020715171B03090A1015171B0213151722
:1000E0001B01181B01181B01191B011A1B00000022
:1000F00000000001181A01151A01121A02080A0F4D
:100100001A01061B01051B0105190105170105143C
:1001100001051101060F01060E01060E01070D0172
:10012000080C000000000000010A0E010413010287
:100130001501001601001801001901001A01001B29
:1001400001001B01001B01001B01001B01001B0122
:10015000001B01001B01001B01001B01001B010013
:100160001B01001B01001B01001B020000061B03FA
:1001700000000811161B020910181B020A10181B98
:100180000300000911191B0300020711181B0200CC
:1001900011171B020011151B02000C0F1B02000A95
:1001A0000F1B0200090E1B0200080F1B02000810A3
:1001B0001B020008101B02000D0F1B010319010494
:1001C000160105150105140300010C13181A04008B
:1001D000020D0E1313181A02000218190501020568
:1001E00007090C0E1518190101190101190201184E
:1001F0001B1B0202171B1B01031701041601051527
:1002000001061301091100000000000000000000B9
:1002100000000000000000000100000100010100DA
:1002200001010002010002010003010003010003BB
:100230000100040100040100040100040200040D97
:100240000F0200040B100200030A110200030A123D
:100250000200030912020003071202000205130242
:10026000000204130200010413020001041302003F
:1002700001031203000103080E110200010306012D
:100280000001010001010001010000000000000068
:1002900001010101000301000601000802000B102A
:1002A00014010015010015010216010415010615BF
:1002B000010915010C14010C14010D14010D130199
:1002C0000E120000000000000000000001191B01D8
:1002D000171B01161B01151B01141B01131701121B
:1002E000150111130211121B1B021011171B020F13
:1002F00010161B01161B01171B01181B01191B01EE
:10030000191B01181B01171B01161B01151B0115D9
:100310001B01141B01141B01131B01131B01121BD6
:1003200001121B01121B01121B01111B01111B01E8
:10033000111B01111B01111B01111B01111B0110CC
:100340001B01101B01101B01101B01101B01101BB6
:10035000010F1B010F1B010E1B010D1B010B1B01CC
:10036000091B01081B01091B010A1B010B1B010CC6
:100370001B010F1B01141B01181B000000000000D3
:100380000001020601000A01000D01000F0100102A
:10039000010012010812010B13010D120200070DDA
:1003A000110200080C0E0200070C0E0200070C0DD3
:1003B0000200070B0D0200070B0D0200060A0C02DB
:1003C00000060A0C0200060A0B020006090B0200D6
:1003D00005090B020005080A020005080A020005CB
:1003E00008090200040709020004070901000801C6
:1003F00000080100090100080100080100070100D0
:1004000006010005010005010005010005010004C9
:1004100001000401000401000401000501000501C0
:1004200000050100050100060100060100060100AB
:100430000601000601000701000801000901000B88
:1004400001000A0100080100050100000000000091
:1004500000011219010E1B010C1B010A1B03090CE0
:100460001214191B02080A141401070901060801D5
:100470000607010507010506010506010506010538
:1004800006020405090A020406080E020406081101
:1004900003040608131719040406080B0F13171A90
:1004A000040406080B11141719030406081416197E
:1004B00003040508131619040406080B0D12161977
:1004C000040405080A0E111619040405070A0F1280
:1004D0001619040405070A0F121619040406090A5E
:1004E0001013161903040611141618030406131327
:1004F000161801040601040601040601040601049D
:1005000006010406010406010506010405010405AF
:1005100001040501040501040501040701050701A3
:10052000050701050601040601030801030901018D
:10053000090303080D101415010F1501121A0114F7
:100540001B01151B01151800000000000000000031
:1005500001000201000501000701000901000A0174
:10056000020C01040D01060E01070F010810010A1B
:1005700011010B12010B12010C13010D13010D14CB
:10058000010E140202040E150202090F1502020BDD
:100590000F1502020C0F15030205090D0F160302B9
:1005A000050A0D101602010D101602010C1016029C
:1005B000010B10160201040F160201040E160201AF
:1005C0000410160110160110160110160110160164
:1005D0001016011016011016011016011016010F49
:1005E00016010F1601101601101601101601101633
:1005F0000110160110160110160110160110180135
:100600001018011017021016181A02000110190212
:1006100000041018020108101702040B101601073D
:1006200016010B15010F11002073657420736563AB
:100630007300207365630020736574206D696E73A9
:1006400000206D696E002073657420686F757200FC
:100650002068722E0020736574206D696E7300200F
:100660006D696E002073657420686F757200206874
:10067000722E002073657420796561720020797292
:100680002E0020736574206D6F6E2E00206D6F6ECE
:1006900000207365742064617465002064617900D2
:1006A00020736574206461746500206461790020A2
:1006B000736574206D6F6E2E00206D6F6E00436F3A
:1006C0006E66696775726174696F6E204D656E75CF
:1006D00000536574204261636B6C696768743A20EB
:1006E0000045552032346872004555203132687219
:1006F00000555320323468720055532031326872ED
:100700000053657420726567696F6E3A2000536507
:100710007420446174653A2020200053657420548D
:10072000696D653A200053657420416C61726D3AC1
:10073000202000207365742068742E2000206874C7
:100740002E002073657420626D69200020626D693F
:1007500000207365742077742E20002077742E009B
:100760002073657420756E6974002075742E0020E6
:100770007365742079656172002079722E00207390
:100780006574206D6F6E2E00206D6F6E0020736596
:10079000742064617465002064617900207365745D
:1007A00020646174650020646179002073657420A1
:1007B0006D6F6E2E00206D6F6E0044656174682051
:1007C000436C6F636B204D656E7500204E6F005952
:1007D000657300536D6F6B65723F3A2020202020B7
:1007E0002020202000202020202020202020004227
:1007F0004D493A00636D006B6720004D65743A0007
:100800006674006C622000496D703A005365742074
:1008100000202020536164697374696300204F7065
:1008200074696D69737469630050657373696D6988
:10083000737469630020202020204E6F726D616CFC
:1008400000536574204D6F64653A0046656D616CB8
:10085000650020204D616C65005365742047656E0E
:100860006465723A2020200053657420444F423A58
:100870002020002073617665202020200020202089
:10088000200050726573732053455420746F0050DC
:1008900072657373202B20746F206368616E6765C7
:1008A0000050726573732053455420746F20736534
:1008B000742020202020005072657373204D454E17
:1008C0005520746F2065786974202020005072656F
:1008D0007373204D454E5520746F20616476616EB0
:1008E000636500680026010E02C6027C034E044CBC
:1008F00005FF8181FF000000FF9F9191F19191918F
:10090000FFF01010FFF191919FFF91919F808080E7
:10091000FFFF9191FFF19191FF00666600001818AA
:1009200000000000001400000000000000000000B3
:10093000000000000000000000000000280000008F
:10094000000101010102020203030304040405057E
:100950000606083200000000000101010102020247
:10096000020303040404050505073C000000000021
:10097000000101010102020203030304040405054E
:10098000064600000000010101010102020202030B
:100990000303040404040000C80000000000000079
:1009A000000000000000000000000000000005142E
:1009B0000000000000000000000000000000000037
:1009C0000000000000001E00000001010101020201
:1009D0000303030404050506060707080D280000A5
:1009E00000010101010202020303030404050506DC
:1009F0000606070B3200000000000101010202029E
:100A0000030303040404050506060A3C0000000075
:100A100000000001010101020202030303040404B7
:100A2000050746000000000000000001010101026E
:100A3000020202020303030305C8000000000000D5
:100A4000000000000000010101010101010102029A
:100A50001400000000000000000000000000000082
:100A600000000000000000C80000000000000000BE
:100A70000101010101010202020202030304140048
:100A80000000000000000000000000000000000066
:100A900000000000001E0000000000000001010135
:100AA000010102020202030303030406C80000005E
:100AB0000000000001010101010102020202030322
:100AC000030305190000001E00B30A23008F0A2843
:100AD00000FD092D00D80932006A093700D9083C09
:100AE00000FE074100FE0646004706C800B504198F
:100AF0000000001E003F092D001B093200F60837D8
:100B000000D1083C0090084100F606460022074B41
:100B1000006505C8004804190000001E00FE04C856
:100B200000DA04190000001E009005C8006C051FC3
:100B30001C1F1E1F1E1F1F1E1F1E1F0B3E4141415B
:100B400041424242423C0006FFFFFFFFFFFF000020
:100B500000000000005F00000007000700147F1481
:100B60007F14242A7F2A12231308646236495522EF
:100B7000500005030000001C2241000041221C001F
:100B8000082A1C2A0808083E0808005030000008FF
:100B900008080808006060000020100804023E51A8
:100BA00049453E00427F400042615149462141454E
:100BB0004B311814127F1027454545393C4A4949A5
:100BC0003001710905033649494936064949291E4C
:100BD000003636000000563600000008142241148A
:100BE0001414141441221408000201510906324958
:100BF00079413E7E1111117E7F494949363E41417E
:100C000041227F4141221C7F494949417F09090115
:100C1000013E414151327F0808087F00417F410079
:100C20002040413F017F081422417F404040407FE7
:100C30000204027F7F0408107F3E4141413E7F094C
:100C40000909063E4151215E7F0919294646494955
:100C5000493101017F01013F4040403F1F204020BA
:100C60001F7F2018207F6314081463030478040393
:100C7000615149454300007F414102040810204171
:100C8000417F000004020102044040404040000156
:100C900002040020545454787F4844443838444473
:100CA0004420384444487F3854545418087E09017D
:100CB00002081454543C7F0804047800447D40002A
:100CC0002040443D00007F10284400417F40007CCC
:100CD000041804787C0804047838444444387C14AC
:100CE000141408081414187C7C080404084854548C
:100CF0005420043F4440203C4040207C1C204020A5
:100D00001C3C4030403C44281028440C5050503C7F
:100D10004464544C44000836410000007F00000049
:100D20004136080008082A1C08081C2A080849320D
:100D3000433A204255535F4552524F520D0A0049E3
:100D400032433A204E4F5F494E464F0D0A0049321A
:100D5000433A2053542D3E444154415F4E41434B4E
:100D6000206F72204C4153545F444154410D0A009E
:100D70004932433A2053542D3E444154415F41434C
:100D80004B0D0A004932433A2053542D3E534C41F7
:100D90005F41434B0D0A004932433A2053522D3EE6
:100DA00053525F53544F500D0A004932433A205377
:100DB000522D3E444154415F4E41434B0D0A004980
:100DC00032433A2053522D3E444154415F41434BFC
:100DD0000D0A004932433A2053522D3E534C415F95
:100DE00041434B0D0A004932433A204D522D3E53A8
:100DF0004C415F41434B0D0A004932433A204D526A
:100E00002D3E444154415F41434B0D0A004932435A
:100E10003A204D542D3E4152425F4C4F53540D0ADF
:100E2000004932433A204D54522D3E534C415F4EBF
:100E300041434B206F72204D542D3E444154415F3D
:100E40004E41434B0D0A004932433A204D522D3E4C
:100E5000444154415F4E41434B0D0A004932433AED
:100E6000204D542D3E534C415F41434B206F722027
:100E7000444154415F41434B0D0A004932433A20FB
:100E80004D2D3E53544152540D0A000011241FBEF3
:100E9000CFEFD8E0DEBFCDBF12E0A0E0B1E0ECE9DB
:100EA000FBE702C005900D92AA3AB107D9F713E00B
:100EB000AAEAB2E001C01D92AC36B107E1F70E9488
:100EC000FA0E0C94CC3D0C9400001F920F920FB6BA
:100ED0000F9211248F939F9388B198E0892788B946
:100EE0009F918F910F900FBE0F901F9018951F929A
:100EF0000F920FB60F9211248F939F938091B5029A
:100F00009091B602892B49F08091B5029091B6027A
:100F100001979093B6028093B5028091240390913B
:100F20002503892B49F08091240390912503019793
:100F3000909325038093240380912203882389F1D1
:100F40008091B3029091B402892B59F580911603D8
:100F500090911703892BE1F48CE291E090931703B1
:100F60008093160380918100882379F41092800089
:100F700089E08093810083E080936F0088EE93E0A6
:100F8000909389008093880003C010928100439859
:100F90008091160390911703019790931703809304
:100FA00016039F918F910F900FBE0F901F90189571
:100FB0001F920F920FB60F9211248F939F9388B1B7
:100FC00098E0892788B99F918F910F900FBE0F905D
:100FD0001F901895AF92BF92CF92DF92EF92FF923F
:100FE0000F931F93E62E1092800029E0209381003A
:100FF00023E020936F009C0140E050E060E079E046
:101000008DE390E00E94493D309389002093880051
:10101000FF2400E010E0C801B7010E94673A5B01BD
:101020006C0120E030E04AEF54E40E9489387B01F3
:101030008C0120E030E040E85FE30E94E339882340
:101040001CF461E070E024C0C801B70120E03FEF6C
:101050004FE757E40E9483391816B4F4C601B5016E
:1010600020E030E040E251E40E9489380E94B3362B
:1010700088EC90E005C0FC013197F1F761507040B9
:1010800061157105C1F707C0C801B7010E94B336E9
:10109000CB010197F1F71092810043981F910F91B6
:1010A000FF90EF90DF90CF90BF90AF900895FC013C
:1010B00083709070892B39F4CF0164E670E00E9450
:1010C000003D892B49F420E030E0CF0160E971E078
:1010D0000E94003D892B11F421E030E0822F089519
:1010E0000895482F6AE00E94F43C282F30E084E005
:1010F000220F331F8A95E1F7842F0E94F43C892F39
:10110000822B089588E592E09093B4028093B30215
:101110001092810043981092230308951E9B16C0DD
:1011200080911E03882359F110921E031092290307
:101130001092B4021092B302809122038823F9F036
:1011400010922203109281004398089580911E030B
:101150008823A9F481E080931E031092B4021092B8
:10116000B3028091AE02843010F483E001C087E0C6
:101170008093AE0283E08093AD020E94361E0895F4
:10118000FF920F931F938C01F62E64E670E00E948D
:10119000003D862F805D6F2D0E94F02FC80164E610
:1011A00070E00E94003D6AE070E00E94003D862FE2
:1011B000805D6F2D0E94F02FC8016AE070E00E94F0
:1011C000003D805D6F2D0E94F02F1F910F91FF90C9
:1011D0000895FF920F931F938C01F62E6AE070E042
:1011E0000E94003D862F805D6F2D0E94F02FC80168
:1011F0006AE070E00E94003D805D6F2D0E94F02F3C
:101200001F910F91FF900895AF92BF92CF92DF92FE
:10121000EF92FF920F931F93DF93CF93CDB7DEB77B
:1012200028970FB6F894DEBF0FBECDBF162FF42E51
:10123000D22E5E010894A11CB11C98E0F501119218
:101240009A95E9F719820E9471088A83812F0E947A
:1012500071088B838F2D0E9471088C838D2D0E94C5
:1012600071088D83802F0E9471088E838E2D0E94BD
:1012700071088F838C2D0E947108888780ED68E04B
:10128000A5010E9497348823D9F008EC10E080EA89
:101290009FE064E60E94EA0788EE93E0F801319748
:1012A000F1F70197D9F780EA9FE064E60E94EA0728
:1012B00080E197E2F8013197F1F70197D9F7E7CF8D
:1012C00028960FB6F894DEBF0FBECDBFCF91DF9149
:1012D0001F910F91FF90EF90DF90CF90BF90AF9054
:1012E00008950F931F93DF93CF93CDB7DEB7299760
:1012F0000FB6F894DEBF0FBECDBF198280ED61E05E
:10130000AE014F5F5F4F0E9497348823D9F008ECFD
:1013100010E080EA9FE064E60E94EA0788EE93E02E
:10132000F8013197F1F70197D9F780EA9FE064E679
:101330000E94EA0780E197E2F8013197F1F70197FF
:10134000D9F7E7CF80ED67E0AE014E5F5F4F0E94B7
:10135000DE348823D9F008EC10E080EA9FE064E6F0
:101360000E94EA0788EE93E0F8013197F1F70197C0
:10137000D9F780EA9FE064E60E94EA0780E197E2FD
:10138000F8013197F1F70197D9F7E7CF7A81872FE5
:1013900082958F7090E0877090709C01A3E0220F7F
:1013A000331FAA95E1F7880F991F280F391F872F40
:1013B0008F70820F809328034B81842F82958F70CA
:1013C00090E0877090709C01E3E0220F331FEA9554
:1013D000E1F7880F991F280F391F4F70420F409374
:1013E0001C038C81482F42954F70682F6F7086FFC9
:1013F00022C082958695877090E0817090709C01E4
:10140000220F331F280F391F220F331F220F331FC4
:10141000842F90E081709070AC0103E0440F551F61
:101420000A95E1F7880F991F480F591F240F260FBF
:101430002093110311C0842F90E0837090709C0161
:10144000B3E0220F331FBA95E1F7880F991F280FD9
:10145000391F620F609311034E81842F82958F7024
:1014600090E0837090709C01F3E0220F331FFA9597
:10147000E1F7880F991F280F391F4F70420F4093D3
:101480001A034F81842F82958F7090E08170907045
:101490009C0163E0220F331F6A95E1F7880F991FC3
:1014A000280F391F4F70420F409326032885822F43
:1014B00082958F703AE0839FC00111242F70280F0E
:1014C00020931403872F807829960FB6F894DEBFF7
:1014D0000FBECDBFCF91DF911F910F910895CF9295
:1014E000EF920F930E94F1330E947109882359F003
:1014F00080E060E04CE020E001E0EE24E394B9E01D
:10150000CB2E0E9404090E94710982E090E00E94A3
:101510009B3D6CE30E94F43C9093150381E090E0C6
:101520000E949B3D68E10E94F43C9093200387E079
:101530008093B10081E08093700078940F91EF90D8
:10154000CF9008951F920F920FB60F921124EF9231
:10155000FF920F931F932F933F934F935F936F933C
:101560007F938F939F93AF93BF93EF93FF93A89530
:101570008091B702803599F41092B70280911B03D5
:101580008F5F80931B03E090280300911C03F09071
:10159000110380912E03833031F010E00AC08F5F79
:1015A0008093B70266C1809128036FE00E94F43CEB
:1015B000182F0E947109809111038F1531F081E07D
:1015C0008093AC02F0921D0308C040911C034017A9
:1015D00009F445C081E08093AB020093120380912F
:1015E000AF029091B002A091B102B091B20280938B
:1015F0002A0390932B03A0932C03B0932D03809187
:10160000AF029091B002A091B102B091B20218164F
:1016100019061A061B060CF05AC02091AF02309131
:10162000B0024091B1025091B20280912E038330FA
:1016300029F081E090E0A0E0B0E004C084E090E018
:10164000A0E0B0E0281B390B4A0B5B0B2093AF02E4
:101650003093B0024093B1025093B20238C08091EF
:101660002E038330A1F58091AF029091B002A0913A
:10167000B102B091B2020097A105B10541F180918C
:101680002E03833019F020E030E007C0809128035A
:101690006FE00E94F43C282F30E0812F90E0281763
:1016A0003907A9F081E08093AB0240931203809147
:1016B000AF029091B002A091B102B091B2028093BA
:1016C0002A0390932B03A0932C03B0932D038091B6
:1016D00028038E1509F445C080912203882359F010
:1016E0008091B3029091B402009729F001979093F2
:1016F000B4028093B3028091AD02882391F180916E
:10170000AD0281508093AD028091AD02882349F5EE
:101710008091AE02843020F084E08093AE0202C05B
:101720001092AE028091AC02882329F080911D03B3
:101730008093110304C08091AB02882321F0809133
:10174000120380931C030E94361E8091AC028823F2
:1017500021F48091AB02882321F0F09211030093D1
:101760001C0380912303843061F080912303853032
:1017700041F080912303883021F08091230386304B
:1017800099F58091BA02882379F584E462E00E9499
:10179000AA338091110360E00E94FD108AE360E0AB
:1017A0000E94F02F80911C0390E060E00E94E90805
:1017B0008AE360E00E94F02F8091280390E060E0CF
:1017C0000E94E90880911303882371F480E260E0AD
:1017D0000E94F02F809111038C3010F080E501C041
:1017E00081E460E00E94F02F80911E03882399F02D
:1017F00080912803882379F490911C03809115032C
:10180000981749F49091110380912003981719F4C7
:1018100081E0809329038091AB02882369F4809151
:10182000AC02882349F480912903882329F081E0C0
:1018300080932203109229038091B802863039F4F4
:101840001092B8028091BE02882329F409C08F5FEC
:101850008093B8020EC08091BE0281508093BE0278
:101860008091B902882329F08091B9028150809338
:10187000B902FF91EF91BF91AF919F918F917F91AD
:101880006F915F914F913F912F911F910F91FF9019
:10189000EF900F900FBE0F901F901895EF92FF9250
:1018A0000F931F93F82E162FE42E21E001E00E94E3
:1018B0005030FE0C0F2D02501150802F612F0E94CE
:1018C00093311E5F802F612F0E949331015013507E
:1018D000802F612F0E9493311C5F802F612F0E9407
:1018E00093311F910F91FF90EF9008951F93182F40
:1018F00007C080911E03181719F082E00E942A2366
:101900008091BD0281FDF5CF1F91089580E090E0A8
:101910000E949B3D843C09F475C081E090E068E042
:101920000E94A93D82E090E060E00E94A93D83E032
:1019300090E060E10E94A93D84E090E061E00E94B7
:10194000A93D85E090E060E00E94A93D86E090E03E
:1019500060E00E94A93D87E090E06AE00E94A93D16
:1019600089E090E06BE00E94A93D8AE090E06EE0A3
:101970000E94A93D8BE090E060E50E94A93D8CE0CB
:1019800090E067E00E94A93D8DE090E06CE10E944C
:10199000A93D8EE090E06EE60E94A93D87E190E0CF
:1019A00064E10E94A93D88E190E065E00E94A93DC4
:1019B00089E190E069E10E94A93D8FE090E060E05C
:1019C0000E94A93D80E190E060E00E94A93D81E194
:1019D00090E060E00E94A93D82E190E060E971E062
:1019E0000E94B73D84E190E06EE470E00E94B73D54
:1019F00086E190E060E00E94A93D80E090E064EC28
:101A00000E94A93D08956F927F928F929F92AF920C
:101A1000BF92CF92DF92EF92FF920F931F9380E1DC
:101A200090E00E949B3D80932E0389E090E00E940D
:101A30009B3D682E8AE090E00E949B3D782E8BE0D3
:101A400090E00E949B3DB82E8CE090E00E949B3D70
:101A5000982E8DE090E00E949B3D082F8EE090E054
:101A60000E949B3DD82E8FE090E00E949B3DC82EA7
:101A7000A0902E0381E190E00E949B3D182F84E10D
:101A800090E00E94A33D7C0182E190E00E94A33D92
:101A9000AC01812FB7010E94B22A882E86E190E026
:101AA0000E949B3DE82E87E190E00E949B3DF82E2E
:101AB00088E190E00E949B3D182F89E190E00E9410
:101AC0009B3D00D000D0EDB7FEB731969CE6B90E35
:101AD000D90EADB7BEB71196EC92F1821283838313
:101AE000862D672D4B2D292DED2C0E94A52B0F90B7
:101AF0000F900F900F901F910F91FF90EF90DF903C
:101B0000CF90BF90AF909F908F907F906F900895EF
:101B1000DF92EF92FF920F931F938CE090E00E9470
:101B20009B3D809327038DE090E00E949B3D809336
:101B300010038EE090E00E949B3D809321030E9461
:101B4000030D7B018C01DD24D39450C080911003E0
:101B50008F5F8093100380911003803268F580912D
:101B600010038F3181F480912703843029F1809113
:101B70002703863009F1809127038930E9F08091AD
:101B800027038B30C9F0809110038E3121F48091AE
:101B90002703823089F0809110038D31A1F4809168
:101BA0002703823081F48091210390E08459984F7B
:101BB0000E945708882339F4D0921003809127039C
:101BC0008F5F80932703809127038D3038F0D09268
:101BD0002703809121038F5F8093210380E69AEF92
:101BE000AFEFBFEFE80EF91E0A1F1B1F90EAE916C0
:101BF00095E0F90690E0090790E0190708F0A6CFF4
:101C00001F910F91FF90EF90DF9008956F927F9258
:101C10008F929F92AF92BF92CF92DF92EF92FF92FC
:101C20000F931F93CF93DF930E94030D5B016C0111
:101C30008CE090E00E949B3DF82E8DE090E00E94A9
:101C40009B3D182F8EE090E00E949B3D2091260343
:101C500000911A0390911403482F445990538F2DEB
:101C6000612FE92E0E9495299B01AC0180912E03E2
:101C7000833031F071E0E72EF12C012D112D05C0DC
:101C800064E0E62EF12C012D112D6090110380915E
:101C90002E03833021F091E0892E912C03C084E043
:101CA000882E912C70901C0380912E03833019F0A4
:101CB000C1E0D0E002C0C4E0D0E0CA01B90120EA2E
:101CC00035E040E050E00E94D53CA80197010E9419
:101CD000D53CA61AB70AC80AD90A8CE3689EC00187
:101CE00011249C01289DC001299D900D389D900DC7
:101CF0001124AA2797FDA095BA2FA81AB90ACA0AD3
:101D0000DB0A872D90E09C01C29FC001C39F900D0C
:101D1000D29F900D1124AA2797FDA095BA2FA81A3B
:101D2000B90ACA0ADB0AA092AF02B092B002C0920E
:101D3000B102D092B2020E94880D809114032091CA
:101D4000210390E08D599F4F30E08217930744F5AF
:101D5000209121038091140330E090E08C599F4F33
:101D60002817390731F4909127038091260398179B
:101D7000B8F0209121038091140330E090E08C5959
:101D80009F4F28173907A1F49091270380912603CC
:101D9000981771F49091100380911A03981740F4EA
:101DA0001092AF021092B0021092B1021092B202E1
:101DB0008091AF029091B002A091B102B091B202B5
:101DC000181619061A061B0624F081E080931903E1
:101DD00002C010921903DF91CF911F910F91FF90D4
:101DE000EF90DF90CF90BF90AF909F908F907F90BB
:101DF0006F9008952F923F924F925F926F927F92D1
:101E00008F929F92AF92BF92CF92DF92EF92FF920A
:101E10000F931F93CF93DF9384B714BE88E10FB65F
:101E2000F89480936000109260000FBE8AE190E009
:101E30000E94302E3B9A0E946F0A0E94860C85E019
:101E400090E00E949B3D80931F0386E090E00E94FB
:101E50009B3D809313030E943E1D0E948E0882E0EA
:101E600084BD83E085BD8DE787BD80916E00826073
:101E700080936E00539A80E28093B0008091B0000E
:101E800083608093B0008091B10088608093B1003E
:101E900080E18093B30083E090E00E949B3D8093BB
:101EA000B400259A80EA9FE064E60E94EA072FE0EA
:101EB00088E190E00FB6F894A895809360000FBE7B
:101EC000209360000E94D8330E94B43380E060E029
:101ED00040E820E401E00E945030CCEADFEFE12C42
:101EE0007DE7F72E08EC10E080E0BE0141E00E94A3
:101EF0001B22C7010197F1F7CC31D10539F480E2FB
:101F00009EE4F8013197F1F70197D9F72196C43D86
:101F1000D10551F70E949A2080E00E942A230E9456
:101F2000060E10E0FF2400E06BE4C62ED12CC8E5BD
:101F3000D2E053E0E52E46E0A42E35E0932E222495
:101F4000239424E0B22E9BE0592E8DE0482EBEE073
:101F50003B2EAFE08A2EFCE07F2EE8E06E2ED09282
:101F60002503C09224038091BC02882379F08091DC
:101F70002203882359F01092BC02D093B402C0937C
:101F8000B30210928100439810922303FF2061F066
:101F90008091AD02882341F482E08093AE02E0920A
:101FA000AD020E94361EFF24002359F08091AD023D
:101FB000882339F4A092AE02E092AD020E94361E50
:101FC00000E080911E030E94760C8091BC0281FF8C
:101FD00014C01092BC028091AE02843028F420928A
:101FE000AE02FF24F39405C00E94880D9092AE02C9
:101FF00001E0E092AD020E94361E8091BC0282FF99
:102000000FC01092BC028091AE02843018F4B092DE
:10201000AE0202C01092AE02E092AD020E94361EE5
:102020008091BC0280FF71C01092BC02809123039A
:10203000863009F441C0873068F4833061F1843020
:1020400018F48823B1F051C08430C1F0853009F014
:102050004CC026C08C30D1F18D3030F4883039F14D
:102060008B3009F042C02DC08D30A9F18E30E9F5DA
:1020700037C0B09223030E9443143EC0E092230372
:102080000E944D138091AC02882311F01092AC0293
:102090001092000131C0909223030E940B162CC0B5
:1020A0000E94060E609223030E94F91425C0A0929C
:1020B00023030E948E1520C0509223030E94C01B50
:1020C0001BC0709223030E943D1B16C04092230345
:1020D0000E94C11A11C0309223030E9448190CC0FB
:1020E000809223030E94C91807C0109223030E9404
:1020F000B43380E00E942A2380912303882329F4AB
:102100000E94B43380E00E942A2380912303882315
:1021100049F50E941429112369F480912203882330
:1021200069F08091280380FF09C081E00E942A2382
:1021300011E018C080912203882351F0809122037E
:10214000882359F0112349F08091280380FD05C0B0
:1021500080E00E942A2310E005C02D9A812F0E9462
:10216000AF252D988091240390912503892BD1F7D9
:10217000F6CE0F931F93CF93DF93182F062F8091E6
:102180001303882361F584E761E00E94AA331C30C1
:1021900010F080E501C081E460E00E94F02F8DE442
:1021A00060E00E94F02F80E561E00E94AA33812F59
:1021B00090E047966CE070E00E94143DEC0189309D
:1021C000910514F0019611C080E260E00E94F02FAA
:1021D0009E012F5C822F602F0E94F02F09C080E5A6
:1021E00061E00E94AA33812F90E0602F0E94E908ED
:1021F000DF91CF911F910F9108950F931F93CF936C
:10220000DF93082F162F809113038823C1F4802FAA
:1022100090E047966CE070E00E94143DEC0189303C
:10222000910514F0019615C080E260E00E94F02F45
:102230009E012F5C822F612F0E94F02F0DC080E243
:1022400060E00E94F02F80E260E00E94F02F802F7B
:1022500090E0612F0E94E908DF91CF911F910F91CB
:1022600008951F93182F88E065E00E94AA3381ED3E
:1022700096E060E00E9428308091B40090E0612FE9
:102280000E94E9081F9108951F93182F88E064E0C9
:102290000E94AA3381E097E060E00E94283080919C
:1022A0001F03882339F480911303882319F489EFDD
:1022B00096E018C080911F03882339F4809113039E
:1022C000813019F481EF96E00DC080911F038130B9
:1022D00039F480911303882319F489EE96E002C043
:1022E00081EE96E0612F0E9428301F910895CF92D1
:1022F000DF92EF92FF920F931F93D82EE62EC42EFB
:10230000122F88E063E00E94AA338EE097E060E03D
:102310000E94283080911F03FF24F394F122012FA3
:102320000270882369F48D2D90E06F2D0E94E908DA
:102330008FE260E00E94F02F8E2D90E0602F0CC0A5
:102340008E2D90E0602F0E94E9088FE260E00E94ED
:10235000F02F8D2D90E06F2D0E94E9088FE260E054
:102360000E94F02F14708C2D90E0612F0E94E908DC
:102370001F910F91FF90EF90DF90CF900895DF9223
:10238000EF92FF920F931F93D82EE62EF42E122F6A
:1023900088E062E00E94AA338BE197E060E00E944F
:1023A0002830012F01708D2D602F0E94FD108AE3CF
:1023B00060E00E94F02F612F62708E2D90E00E94ED
:1023C000E9088AE360E00E94F02F14708F2D90E0FE
:1023D000612F0E94E90880911303882369F480E249
:1023E00060E00E94F02F8BE08D1510F480E501C0B5
:1023F00081E4602F0E94F02F1F910F91FF90EF90CA
:10240000DF9008950F931F93182F062F88E061E047
:102410000E94AA3386E297E060E00E942830809113
:102420002003612F0E94B9108AE360E00E94F02F20
:102430008091150390E0602F0E94E9081F910F9191
:1024400008951F93182F88E065E00E94AA3383ED5A
:1024500097E060E00E94283080913703882319F0CC
:102460008FEC97E002C08BEC97E0612F0E94283040
:102470001F9108951F93182F88E063E00E94AA33EC
:1024800081E498E060E00E94283080913103882345
:1024900019F485E398E010C080913103813019F47C
:1024A00089E298E009C080913103823019F48DE10E
:1024B00098E002C081E198E0612F0E9428301F91CE
:1024C00008951F93182F88E062E00E94AA3389E5DF
:1024D00098E060E00E94283080912F03882319F44F
:1024E00082E598E002C08BE498E0612F0E942830DA
:1024F0001F910895FF920F931F93182F88E061E0BA
:102500000E94AA3388E698E060E00E94283080911B
:102510001F03FF24F394F122012F0270882379F422
:102520008091350390E06F2D0E94E9088FE260E012
:102530000E94F02F8091320390E0602F0EC08091B6
:10254000320390E0602F0E94E9088FE260E00E9471
:10255000F02F8091350390E06F2D0E94E9088FE203
:1025600060E00E94F02F80913003147090E0845955
:10257000984F64E670E00E94143DCB01612F0E94E9
:10258000E9088091300390E08459984F64E670E048
:102590000E94143D612F0E94E9081F910F91FF9046
:1025A0000895EF92FF920F931F938C017B0180E0BF
:1025B00066E00E94AA338FE898E060E00E9428302D
:1025C000C80160E00E94283080E067E00E94AA33E2
:1025D00082E898E060E00E942830C70160E00E9435
:1025E00028301F910F91FF90EF9008958DE798E0AC
:1025F00063E778E00E94D11208951F93182F80E0BE
:1026000066E00E94AA33112319F48DEC98E002C011
:1026100087EB98E060E00E94283080E067E00E944D
:10262000AA3381EA98E060E00E9428301F91089563
:102630008091BA028F5F8093BA020E94B43380E027
:1026400060E00E94AA338EEB96E060E00E942830A2
:1026500080E060E00E9402128091110360911C03EF
:102660004091280320E00E94BF11809126036091D1
:102670001A034091140320E00E94771180E00E9429
:10268000441180E00E94311180E00E94FD1280918F
:10269000BA0281508093BA020895BF92CF92DF921E
:1026A000EF92FF920F931F93CF93DF93109111033B
:1026B000D0901C03F09028030E9418138091BA0256
:1026C0008F5F8093BA0280E063E147E00E944E0C86
:1026D0008091BA0281508093BA028AE08093B90255
:1026E00003E08AE0B82EC8ECD0E08091BC0280FD07
:1026F000C0C08091BC02882321F48091BD02882350
:1027000019F0B092B90207C08091B902882319F478
:1027100010922303AEC08091BC0281FF5BC0109277
:10272000BC028091BA028F5F8093BA02033071F4C9
:10273000812F6D2D4F2D21E00E94BF1180E596E085
:1027400066E476E00E94D11208E63FC0083671F4D4
:10275000812F6D2D4F2D22E00E94BF1181E496E064
:1027600067E376E00E94D11209E62FC0093671F4C2
:10277000812F6D2D4F2D24E00E94BF1182E396E042
:1027800068E276E00E94D1120AE61FC0812F6D2D0B
:102790004F2D20E00E94BF1180E00E94FD12109397
:1027A0001103D0921C03F0922803809128036091BA
:1027B0001C034091110300911A03E0902603C0907E
:1027C000140320E00E94040903E08091BA028150C2
:1027D0008093BA028091BC0282FD04C08091BD0248
:1027E00082FF83CF1092BC028091BA028F5F8093E8
:1027F000BA02083671F4812F90E0019668E170E02A
:102800000E94143D182F809311036D2D4F2D21E050
:102810001DC0093669F48D2D90E001966CE370E0DF
:102820000E94143DD82E812F6D2D4F2D22E00EC019
:102830000A3671F48F2D90E001966CE370E00E94EF
:10284000143DF82E812F6D2D4F2D24E00E94BF11D5
:102850008091BA0281508093BA028091BD0282FFBA
:1028600044CF80ED97E0FE013197F1F70197D9F75A
:102870003CCFDF91CF911F910F91FF90EF90DF90B0
:10288000CF90BF9008950F931F93CF93DF930E9433
:1028900018138091BA028F5F8093BA0280E06BE0D8
:1028A00047E00E944E0C8091BA0281508093BA0298
:1028B0008AE08093B90214E00AE0C8ECD0E080918D
:1028C000BC0280FD91C08091BC02882321F48091DC
:1028D000BD02882319F00093B90207C08091B902A4
:1028E000882319F4109223037FC08091BC0281FFDA
:1028F00030C01092BC028091BA028F5F8093BA02FE
:10290000143061F481E060E00E9402128EE696E0ED
:1029100064E676E00E94D11218E616C0183661F41B
:1029200080E061E00E9402128FE596E065E576E0C6
:102930000E94D11219E608C080E060E00E940212F5
:1029400080E00E94FD1214E08091BA0281508093D1
:10295000BA028091BC0282FD04C08091BD0282FF58
:10296000AECF1092BC028091BA028F5F8093BA0200
:10297000183699F48091200390E0019668E170E0A8
:102980000E94143D8093200381E060E00E940212C7
:102990006091200381E090E014C01936A1F4809189
:1029A000150390E001966CE370E00E94143D809363
:1029B000150380E061E00E9402126091150382E03D
:1029C00090E00E94A93D8091BA0281508093BA02A2
:1029D0008091BD0282FF73CF80ED97E0FE013197B9
:1029E000F1F70197D9F76BCFDF91CF911F910F913D
:1029F00008950F931F930E9418138091BA028F5F5E
:102A00008093BA0280E063E247E00E944E0C80911E
:102A1000BA0281508093BA028AE08093B90218E02A
:102A20000AE08091BC0280FD76C08091BC028823C0
:102A300021F48091BD02882319F00093B90207C0E8
:102A40008091B902882319F41092230364C0809105
:102A5000BC0281FF1CC01092BC028091BA028F5F41
:102A60008093BA02183039F481E00E9444110E9428
:102A7000F6121BE607C080E00E94441180E00E942D
:102A8000FD1218E08091BA0281508093BA028091C1
:102A9000BC0282FD04C08091BD0282FFC2CF1092B1
:102AA000BC021B3609F0BDCF80911303882341F08F
:102AB00080911F0390E0882309F491E090931F0315
:102AC0008091130390E0882309F491E0909313031D
:102AD0008091BA028F5F8093BA020E9418130E94FD
:102AE000F61280E063E247E00E944E0C81E00E9413
:102AF00044118091BA0281508093BA0260911F0301
:102B000085E090E00E94A93D6091130386E090E08B
:102B10000E94A93D86CF1F910F9108950F931F9397
:102B20000E9418138091BA028F5F8093BA0280E0EE
:102B30006BE247E00E944E0C8091BA028150809374
:102B4000BA028AE08093B90216E00AE08091BC02E2
:102B500080FD5EC08091BC02882321F48091BD027B
:102B6000882319F00093B90207C08091B902882325
:102B700019F4109223034CC08091BC0281FF1CC049
:102B80001092BC028091BA028F5F8093BA02163015
:102B900039F481E00E9431110E94F6121CE607C050
:102BA00080E00E94311180E00E94FD1216E08091C9
:102BB000BA0281508093BA028091BC0282FD04C0A7
:102BC0008091BD0282FFC2CF1092BC021C3609F078
:102BD000BDCF8091B4008F5F8093B4008091B4002A
:102BE000813110F01092B4008091BA028F5F80930F
:102BF000BA0281E00E9431118091BA028150809323
:102C0000BA026091B40083E090E00E94A93D9ECF9B
:102C10001F910F910895BF92CF92DF92EF92FF9292
:102C20000F931F93CF93DF93F0901A031091260315
:102C3000D09014030E9418138091BA028F5F809382
:102C4000BA0280E06BE147E00E944E0C8091BA022C
:102C500081508093BA028AE08093B90205E04AE08D
:102C6000B42EC8ECD0E08091BC0280FD33C18091CD
:102C7000BC02882321F48091BD02882319F0B09210
:102C8000B90207C08091B902882319F41092230376
:102C900021C18091BC0281FF8BC01092BC02809147
:102CA000BA028F5F8093BA020530F9F480911F0356
:102CB000882359F4812F6F2D4D2D21E00E9477112B
:102CC00089EB96E06FEA76E034C080911F03813093
:102CD00009F04AC0812F6F2D4D2D22E00E947711FF
:102CE0008AEA96E060EA76E010C0053691F48091B9
:102CF0001F03882339F5812F6F2D4D2D22E00E946F
:102D000077118BE996E061E976E00E94D11206E640
:102D10004AC0063649F580911F03813071F4812F36
:102D20006F2D4D2D21E00E9477118CE896E062E82E
:102D300076E00E94D11205E636C080911F038823F9
:102D400029F012C080911F03813071F4812F6F2D03
:102D50004D2D24E00E9477118DE796E063E776E041
:102D60000E94D11207E61FC0812F6F2D4D2D20E04C
:102D70000E94771180E00E94FD12D09214031093FC
:102D80002603F0921A038091280360911C0340915E
:102D9000110300911A03E0902603C090140320E071
:102DA0000E94040905E08091BA0281508093BA0222
:102DB0008091BC0282FD04C08091BD0282FF53CF8E
:102DC0001092BC028091BA028F5F8093BA020536DE
:102DD00089F51F5F1D3010F011E027C01230C1F4DB
:102DE0008D2D90E00E945708882331F08DE18F15DA
:102DF00018F43DE1F32E19C08D2D90E00E94570884
:102E0000882399F48CE18F1580F42CE1F22E0DC00B
:102E1000143031F0163021F0193011F01B3029F444
:102E20008EE18F1510F49EE1F92E812F6F2D4D2D1F
:102E300021E03DC0063669F5F3948FE18F1510F45B
:102E4000FF24F394123099F48D2D90E00E945708DE
:102E5000882319F08DE18F15A8F08D2D90E00E9448
:102E60005708882389F48CE18F1560F00DC0143069
:102E700031F0163021F0193011F01B3029F48FE1B8
:102E8000F81611F4FF24F394812F6F2D4D2D22E0BD
:102E90000EC0073671F48D2D90E0019664E670E067
:102EA0000E94143DD82E812F6F2D4D2D24E00E94BD
:102EB00077118091BA0281508093BA028091BD024D
:102EC00082FFD1CE80ED97E0FE013197F1F70197B7
:102ED000D9F7C9CEDF91CF911F910F91FF90EF905D
:102EE000DF90CF90BF9008950F931F93082F88E035
:102EF00064E00E94AA338CE098E060E00E942830F1
:102F000080913603882399F5602F617087E098E0FF
:102F10000E9428308091330390913403102F127057
:102F2000612F0E94C00883E098E0612F0E94283042
:102F30008091380390913903102F14706CE070E089
:102F40000E94003DCB01612F0E94E90880E098E0DB
:102F5000612F0E94283080913803909139036CE0F2
:102F600070E00E94003D612F0E94E9083BC0809103
:102F70003603602F6170102F1270813019F58BEFBE
:102F800097E00E94283080E260E00E94F02F80915C
:102F9000330390913403612F0E94C00887EF97E0BC
:102FA000612F0E9428308091380390913903102FAF
:102FB0001470612F0E94C00884EF97E0612F0E9477
:102FC000283010C08FEE97E00E94283085EE97E001
:102FD00060E00E9428308091330390913403612F88
:102FE0000E94C0081F910F91089589E090E00E940F
:102FF0009B3D809335038AE090E00E949B3D809347
:1030000032038BE090E00E949B3D809330038FE081
:1030100090E00E949B3D80932F0380E190E00E940E
:103020009B3D8093310381E190E00E949B3D809322
:10303000360384E190E00E94A33D9093390380938E
:10304000380382E190E00E94A33D90933403809383
:10305000330386E190E00E949B3D8093370380918B
:10306000BA028F5F8093BA020E94B43380E060E0BE
:103070000E94AA338AEB97E060E00E94283080E04B
:103080000E947A1280E00E94611280E00E943A124F
:1030900080E00E94741780E00E94211280E00E946C
:1030A000FD128091BA0281508093BA0208951F9355
:1030B000DF93CF93CDB7DEB728970FB6F894DEBF76
:1030C0000FBECDBF60911403DE011196E1E0F1E087
:1030D00088E001900D928150E1F7209114038091D6
:1030E0003003E091310390912F0330E02C593F4F92
:1030F000281B3109F0E0EE0FFF1FE90FF11DDE0183
:103100001196EA0FFB1F808190E0821793071CF055
:10311000162F1C590FC0109130038091310320915C
:103120002F0390E0880F991F820F911DA80FB91FE0
:103130008C91180F609126038CE090E00E94A93DCD
:1031400060911A038DE090E00E94A93D8EE090E02E
:10315000612F0E94A93D6091110387E190E00E94D8
:10316000A93D60911C0388E190E00E94A93D609117
:10317000280389E190E00E94A93D0E94060E28964E
:103180000FB6F894DEBF0FBECDBFCF91DF911F9178
:1031900008950F931F930E94F51781E00E94FD127E
:1031A0008091BA028F5F8093BA0280E06BE247E0C1
:1031B0000E944E0C8091BA0281508093BA028AE03C
:1031C0008093B9021FE00AE08091BC0280FD5DC0DF
:1031D0008091BC02882321F48091BD02882319F0DC
:1031E0000093B90207C08091B902882319F41092A4
:1031F00023034BC08091BC0281FF1CC01092BC0213
:103200008091BA028F5F8093BA021F3039F481E057
:103210000E9421120E94F61212E707C080E00E946D
:10322000211281E00E94FD121FE08091BA028150BC
:103230008093BA028091BC0282FD04C08091BD02DD
:1032400082FFC2CF1092BC02123709F0BDCF80912D
:10325000370390E0882309F491E09093370380913D
:10326000BA028F5F8093BA0281E00E94211280919E
:10327000BA0281508093BA026091370386E190E0F0
:103280000E94A93D0E9457189FCF1F910F9108954A
:103290008F929F92AF92BF92CF92DF92EF92FF9266
:1032A0000F931F93CF93DF930E94F5178091BA027B
:1032B0008F5F8093BA0280E063E247E00E944E0C89
:1032C0008091BA0281508093BA028AE08093B90259
:1032D0001EE00AE0B8EC8B2E912CACE5AA2EB12CA6
:1032E000F4E2CF2ED12CEFE0EE2EF12CC3E2D0E0B1
:1032F0008091BC0280FD38C18091BC02882321F4FA
:103300008091BD02882319F00093B90207C0809113
:10331000B902882319F41092230326C18091BC02BC
:1033200081FF47C01092BC028091BA028F5F8093E8
:10333000BA021E3059F481E00E9474178AE697E0C1
:1033400060E677E00E94D1121FE62EC01F36A1F47E
:1033500082E00E94741780913603823029F08BE559
:1033600097E061E577E004C08CE497E062E477E001
:103370000E94D11210E718C0103779F480913603FB
:10338000823059F084E00E9474178DE397E063E384
:1033900077E00E94D11211E707C080E00E94741705
:1033A00080E00E94FD121EE08091BA02815080935D
:1033B000BA028091BC0282FD04C08091BD0282FFEE
:1033C00097CF1092BC028091BA028F5F8093BA02AD
:1033D0001F3651F58091360390E0019663E070E06E
:1033E0000E94143D8093360380913603882349F46C
:1033F000D0933403C0933303D0923903C09238037F
:1034000011C080913603813049F4F0923403E09288
:103410003303B0923903A092380304C010923403EE
:103420001092330381E075C0103709F03EC08091DF
:1034300036038823A9F480913303909134030596D1
:10344000909334038093330380913303909134033A
:103450008559924040F1D0933403C093330323C085
:10346000809136038130A9F4809133039091340325
:1034700005969093340380933303809133039091A6
:1034800034038D52914078F0F0923403E09233038C
:103490000AC0809133039091340301969070909309
:1034A00034038093330382E034C01137A1F5809157
:1034B00036038823A9F4809138039091390301964B
:1034C00090933903809338038091380390913903A6
:1034D00089379105E8F0D0923903C092380318C0BB
:1034E000809136038130A1F48091380390913903A3
:1034F000019690933903809338038091380390911B
:1035000039038253914020F0B0923903A0923803DE
:1035100084E00E9474176091360381E190E00E947C
:10352000A93D609133037091340382E190E00E94E1
:10353000B73D609138037091390384E190E00E94B7
:10354000B73D0E9457188091BA0281508093BA0209
:103550008091BD0282FFCCCE80ED97E0F4013197DF
:10356000F1F70197D9F7C4CEDF91CF911F910F9159
:10357000FF90EF90DF90CF90BF90AF909F908F9093
:1035800008950F931F930E94F5178091BA028F5FE1
:103590008093BA0280E06BE147E00E944E0C80917C
:1035A000BA0281508093BA028AE08093B9021DE08A
:1035B0000AE08091BC0280FD5DC08091BC0288233E
:1035C00021F48091BD02882319F00093B90207C04D
:1035D0008091B902882319F4109223034BC0809183
:1035E000BC0281FF1CC01092BC028091BA028F5FA6
:1035F0008093BA021D3039F481E00E943A120E9491
:10360000F6121EE607C080E00E943A1280E00E9497
:10361000FD121DE08091BA0281508093BA02809120
:10362000BC0282FD04C08091BD0282FFC2CF109215
:10363000BC021E3609F0BDCF8091310390E00196A7
:1036400083709070809331038091BA028F5F809372
:10365000BA0281E00E943A128091BA0281508093AE
:10366000BA026091310380E190E00E94A93D0E947E
:1036700057189FCF1F910F9108950F931F930E948A
:10368000F5178091BA028F5F8093BA0280E063E100
:1036900047E00E944E0C8091BA0281508093BA029A
:1036A0008AE08093B9021CE00AE08091BC0280FDB0
:1036B00064C08091BC02882321F48091BD028823DC
:1036C00019F00093B90207C08091B902882319F458
:1036D0001092230352C08091BC0281FF1CC0109243
:1036E000BC028091BA028F5F8093BA021C3039F419
:1036F00081E00E9461120E94F6121DE607C080E080
:103700000E94611280E00E94FD121CE08091BA02CA
:1037100081508093BA028091BC0282FD04C08091E6
:10372000BD0282FFC2CF1092BC021D3609F0BDCF90
:1037300080912F0390E0882309F491E090932F0368
:103740008091BA028F5F8093BA020E94F61280E0E5
:1037500063E147E00E944E0C81E00E94611280917B
:10376000BA0281508093BA0260912F038FE090E0FB
:103770000E94A93D0E94571898CF1F910F9108955C
:10378000DF92EF92FF920F931F93CF93DF930E94EC
:10379000F5178091BA028F5F8093BA0280E06BE0E8
:1037A00047E00E944E0C8091BA0281508093BA0289
:1037B0008AE08093B9021BE09AE0F92EC8ECD0E0D1
:1037C0008EE1E82E0CE1D02E0DE18091BC0280FD4F
:1037D0004DC18091BC02882321F48091BD028823D1
:1037E00019F0F092B90207C08091B902882319F448
:1037F000109223033BC18091BC0281FF76C01092DE
:10380000BC028091BA028F5F8093BA021B30C1F470
:1038100080911F03882341F481E00E947A1285EB96
:1038200097E06BEA77E029C080911F038130E9F5CA
:1038300082E00E947A1286EA97E06CE977E00DC098
:10384000153679F480911F03882301F582E00E94E8
:103850007A1287E997E06DE877E00E94D11216E6C8
:103860003FC0163611F580911F03813051F40E943C
:103870007A1288E897E06EE777E00E94D11215E6A9
:103880002FC080911F03882329F00FC080911F0350
:10389000813059F484E00E947A1289E797E06FE65C
:1038A00077E00E94D11217E61BC080E00E947A12D6
:1038B00080E00E94FD126091350389E090E00E9453
:1038C000A93D609132038AE090E00E94A93D609199
:1038D00030038BE090E00E94A93D0E9457181BE046
:1038E0008091BA0281508093BA028091BC0282FD1D
:1038F00004C08091BD0282FF68CF1092BC0280910B
:10390000BA028F5F8093BA02153609F048C08091E1
:1039100035038F5F80933503809135038D3018F028
:1039200081E08093350380913503823001F58091E9
:10393000300390E08459984F0E945708882339F04B
:10394000809132038E3118F00093320326C08091AB
:10395000300390E08459984F0E9457088823E9F477
:10396000809132038D31C8F0D092320316C080911D
:103970003503843061F080913503863041F08091C9
:103980003503893021F0809135038B3031F48091FB
:1039900032038F3110F0E092320381E054C01636CA
:1039A00009F044C0809132038F5F8093320380918D
:1039B0003203803218F081E0809332038091350326
:1039C0008230D9F48091300390E08459984F0E945E
:1039D0005708882321F0809132038E3110F58091B1
:1039E000300390E08459984F0E9457088823E1F4EF
:1039F000809132038D31C0F014C080913503843042
:103A000061F080913503863041F080913503893033
:103A100021F0809135038B3039F4809132038F315E
:103A200018F081E08093320382E00DC0173669F40C
:103A30008091300390E0019668EC70E00E94143DA4
:103A40008093300384E00E947A128091BA02815000
:103A50008093BA028091BD0282FFB7CE80ED97E0DD
:103A6000FE013197F1F70197D9F7AFCEDF91CF91F2
:103A70001F910F91FF90EF90DF90089526982E9A56
:103A800081E080936800EBE6F0E0808180648083D1
:103A900082E080937C0010927B00EAE7F0E08EE801
:103AA0008083808180648083089580917A00877FFD
:103AB00080937A0080917A00806480937A0080916C
:103AC0007A0084FFFCCF2091780030917900C90101
:103AD00008951F920F920FB60F9211242F933F93C8
:103AE0004F935F936F937F938F939F93AF93BF9306
:103AF000EF93FF937894809178009091790022E081
:103B0000803E920728F01092BD021092BB0273C053
:103B100022E08336920798F18091BB0282FD6BC050
:103B200080E29EE40197F1F70E94551D8256924073
:103B30008E37910508F05FC082E08093BE0212C00C
:103B40000E94551D825692408E37910558F0809103
:103B5000BB028B7F8093BB028091BC028460809308
:103B6000BC0249C08091BE02882351F78091BB02FC
:103B700084608093BB028091BD0284603AC08F5004
:103B80009140E8F08091BB0281FD10C080E29EE48C
:103B90000197F1F70E94551D8E5091408555914037
:103BA00050F58091BC0282608093BC028091BB0280
:103BB00082608093BB028091BD0282601AC08091B6
:103BC000BB0280FD0EC080E29EE40197F1F70E94E7
:103BD000551D8F50914078F48091BC028160809394
:103BE000BC028091BB0281608093BB028091BD02C8
:103BF00081608093BD0280917A00886480937A000E
:103C0000FF91EF91BF91AF919F918F917F916F91B4
:103C10005F914F913F912F910F900FBE0F901F908A
:103C200018951F920F920FB60F9211242F933F9366
:103C30004F935F936F937F938F939F93AF93BF93B4
:103C4000EF93FF9378940E948E08FF91EF91BF91BC
:103C5000AF919F918F917F916F915F914F913F9124
:103C60002F910F900FBE0F901F901895EF92FF921B
:103C70000F931F939091AE028091C002981739F074
:103C800081E08093BF028091AE028093C002809158
:103C9000AE02833009F46AC1843038F4813009F40B
:103CA00047C0823008F068C00DC0853009F421C1DA
:103CB000853008F470C0863009F43FC1873009F0C0
:103CC00034C26FC180912203882311F18091AB022D
:103CD000882321F48091AC028823D1F08091AC023A
:103CE000882371F080911D0390E0A0E0B0E0809304
:103CF0005E0390935F03A0936003B093610305C0DC
:103D00008091AB02882309F410C2809112033DC157
:103D10008091110390E0A0E0B0E080935E03909367
:103D20005F03A0936003B093610380911C032DC1D6
:103D300080911F03882381F48091260390E0A0E006
:103D4000B0E080935E0390935F03A0936003B09311
:103D5000610380911A0319C180911A0390E0A0E0D9
:103D6000B0E080935E0390935F03A0936003B093F1
:103D700061038091260309C184E190E0A0E0B0E0F6
:103D800080935E0390935F03A0936003B0936103FD
:103D900080911403FAC080912203882389F18091D5
:103DA000AB02882321F48091AC02882349F18091F1
:103DB000AC028823B9F060912A0370912B038091A3
:103DC0002C0390912D0320E137E240E050E00E9467
:103DD000493D20935E0330935F034093600350930B
:103DE000610305C08091AB02882309F463C0609130
:103DF0002A0370912B0380912C0390912D034CC0CA
:103E00002091AF023091B0024091B1025091B202C4
:103E100080912E03833029F080E090E0A0E0B0E0B4
:103E200008C0809128036FE00E94F43C90E0A0E07D
:103E3000B0E0281B390B4A0B5B0BCA01B90120E12A
:103E400037E240E050E00E94493D20935E0330930A
:103E50005F0340936003509361032091AF02309160
:103E6000B0024091B1025091B20280912E03833092
:103E700029F080E090E0A0E0B0E008C08091280345
:103E80006FE00E94F43C90E0A0E0B0E0281B390B0A
:103E90004A0B5B0BCA01B90120E137E240E050E078
:103EA0000E94493D609362037093630380936403AF
:103EB000909365038091AF029091B002A091B102FE
:103EC000B091B202181619061A061B060CF42DC181
:103ED00010926203109263031092640310926503C0
:103EE00010925E0310925F031092600310926103C0
:103EF0001CC180911F03882381F48091270390E0E7
:103F0000A0E0B0E080935E0390935F03A093600312
:103F1000B09361038091100338C08091100390E04A
:103F2000A0E0B0E080935E0390935F03A0936003F2
:103F3000B09361038091270328C08091210364E638
:103F40000E94F43C90E04396AA2797FDA095BA2FD3
:103F500080935E0390935F03A0936003B09361032B
:103F6000809121030E94F43C892F0FC0809120038F
:103F700090E0A0E0B0E080935E0390935F03A09395
:103F80006003B09361038091150390E0A0E0B0E07E
:103F90008093620390936303A0936403B0936503DB
:103FA000C4C0E090AF02F090B0020091B102109155
:103FB000B202E0924C03F0924D0300934E03109333
:103FC0004F039091110380912003891760F0909125
:103FD000110380912003981781F590911C03809123
:103FE0001503891750F590912003209115034091F6
:103FF0001103E0911C0380912E03833019F061E0DE
:1040000070E002C064E070E030E020563A4F8CE38C
:10401000989FC0011124280F391F50E084EC9FEFB6
:10402000DC014A9FC0014B9F900D5A9F900D1124B7
:10403000280F391F2E1B310927C090912003F091C2
:10404000150340911103E0911C0380912E038330EE
:1040500019F061E070E002C064E070E08CE3989FCA
:10406000C001112450E024EC3FEFD9014A9F900198
:104070004B9F300D5A9F300D1124820F931F8F0FCD
:10408000911D8E1B91099C01629FC001639F900D41
:10409000729F900D1124AA2797FDA095BA2FE81AB8
:1040A000F90A0A0B1B0BE0924C03F0924D030093AC
:1040B0004E0310934F03E0904C03F0904D0300919A
:1040C0004E0310914F03C801B70120E137E240E0F1
:1040D00050E00E94493D20935E0330935F0340937C
:1040E000600350936103C801B70120E137E240E06B
:1040F00050E00E94493D6093620370936303809394
:1041000064039093650317FF10C010925E03109232
:104110005F03109260031092610310926203109289
:10412000630310926403109265031F910F91FF9037
:10413000EF9008950895AF92CF92EF920F93DC0124
:10414000E02FF0E0840F911D8E179F07B4F0EC0D67
:10415000F11DEA17FB078CF070E04E2D50E0CB010B
:10416000820F911D8417950744F080E04A0D511D80
:10417000461757071CF081E001C080E00F91EF90D7
:10418000CF90AF9008959F92AF92BF92CF92DF925F
:10419000EF92FF920F931F93CF93DF937C016A01FD
:1041A000922EA02E2FEF833E9207F4F1B62EB694F6
:1041B000B694B69410E036C0F601E10FF11D00810F
:1041C000812F6CE10E94F43CC92FD0E0209761F070
:1041D0001BC01F5FF601E10FF11D0081812F6CE113
:1041E0000E94F43CC92FD0E0CE018E0D9F1D97FD9B
:1041F000F0CF812F6CE10E94F43C682F6B0D9E0183
:104200002E0D822F0E94AA33CE0DDF1DC038D1059E
:1042100044F4AA2019F0802F809501C0802F0E94BD
:1042200051331F5F191540F2DF91CF911F910F910C
:10423000FF90EF90DF90CF90BF90AF909F90089548
:104240003F924F925F926F927F928F929F92AF9226
:10425000BF92CF92DF92EF92FF920F931F93DF9363
:10426000CF93CDB7DEB7C05ED0400FB6F894DEBFB7
:104270000FBECDBF7C01A62E6A01522E402E84EEC9
:10428000E8168FEFF8060CF460C0A0E8EA16F10417
:104290000CF05BC0BFE3B61708F457C0FE013196BF
:1042A00080EEDF011D928A95E9F720E030E040E0E2
:1042B0007CE1372E61E0662E712C4F013AC0F60189
:1042C000E20FF31F6491842F869586958695839DD2
:1042D00080011124842F8770B62C01C0BB0C8A95F5
:1042E000EAF72F5F3F4FD601A20FB31F2150304096
:1042F000962F15C0FD0184911196FD0154911197DF
:10430000782F09C0F801E70FF11DE80DF91D808134
:104310008B2980837F5F5717A8F7915012969923B6
:1043200049F7862F90E0880F991F0196280F391FB3
:104330004F5F451508F4C3CFC7016A2DAE014F5F2B
:104340005F4F20EE042D0E94C320C052DF4F0FB6F6
:10435000F894DEBF0FBECDBFCF91DF911F910F91BB
:10436000FF90EF90DF90CF90BF90AF909F908F9095
:104370007F906F905F904F903F9008957F928F92C3
:104380009F92AF92BF92CF92DF92EF92FF920F93E4
:104390001F93CF93DF93D82E762EC22E50E0440F7A
:1043A000551F440F551FF1EFEF2EF8E0FF2EE40EDE
:1043B000F51EE5EF8E2EE8E09E2E840E951EF70189
:1043C0008491172DC7E0D0E0A82EBB24C5010C2E88
:1043D00002C0959587950A94E2F780FF09C000E036
:1043E000CC2009F401E08D2D612F43E025E005C0CC
:1043F0008D2D612F43E025E00C2D0E945030219738
:104400001B5FFFEFCF3FDF0709F70894E11CF11CAA
:1044100083E0D80EE814F90491F6DF91CF911F9153
:104420000F91FF90EF90DF90CF90BF90AF909F9053
:104430008F907F9008950F931F93CF93DF93EB019D
:10444000142F823009F449C0833009F45FC09B0106
:10445000255E3F4F813031F1273B310540F4CB01E0
:1044600060E048E650E020E4012F0E942021CE01C8
:10447000C7968F3E910548F4CE014C9660E046E227
:1044800051E020E4012F0E942021CE018D5A9F4F40
:104490008752914008F0D9C0CE01C89660E04EE046
:1044A00052E016C0273B310540F4CB0160E046ECFA
:1044B00052E020E4012F0E942021CE01C7968F3EBA
:1044C000910508F0C2C0CE014C9660E04CE753E085
:1044D00020E4012F0E942021B8C0CB014B96873BDE
:1044E000910540F4CB0160E04EE454E020E4012F5C
:1044F0000E942021CE01C7968F3E910508F0A5C0ED
:10450000CE014C9660E04CE455E0E2CFCB014B96F7
:104510008034910540F4CB0160E04EE454E020E4A7
:10452000012F0E942021CE01C7968C35910548F4B9
:10453000CE014C9660E04CE455E020E4012F0E944F
:104540002021CE018D5A9F4F8752914048F4CE01D1
:10455000C89660E046EC52E020E4012F0E94202142
:10456000CE0181599F4F8F55914050F4CE018C5A06
:104570009F4F60E04CE753E020E4012F0E94202190
:10458000CE014E96069738F49E01225E822F65E09A
:104590000E94AA3350C0CE014896069738F49E0177
:1045A000285E822F65E00E94AA3338C0CE01429671
:1045B000069738F49E012E5E822F65E00E94AA3392
:1045C0001EC0CE010C96C09720F49E01245F822F5E
:1045D00003C0A497D4F180E365E00E94AA338091E0
:1045E000210364E60E94F43C90E043966AE070E0A8
:1045F0000E94143D862F805D612F0E94F02F8091D4
:10460000210364E60E94F43C90E043966AE070E087
:104610000E94143D805D612F0E94F02F8091210344
:1046200064E60E94F43C892F6AE00E94F43C805DBD
:10463000612F0E94F02F809121036AE00E94F43CD8
:10464000892F805D612F0E94F02FDF91CF911F9104
:104650000F910895EF92FF920F931F93CF93DF93E3
:10466000182F823009F059C080E060E040E820E473
:1046700000E00E94503084E060E00E94AA3389E0AC
:1046800091E060E00E943F3080E161E00E94AA3347
:104690008EE191E060E00E943F3081E062E00E94A4
:1046A000AA338FE291E060E00E943F3082E263E053
:1046B0000E94AA3385E491E060E00E943F308AE0E6
:1046C00064E00E94AA3380E591E060E00E943F3000
:1046D00086E165E00E94AA3383E691E060E00E94F3
:1046E0003F3083E166E00E94AA3382E791E060E018
:1046F0000E943F3083E167E00E94AA3382E891E0A4
:1047000060E00E943F308091BD0281FDFCCF80E0DF
:104710000E942A231092BC021BC280E060E040E8A5
:1047200020E4012F0E9450300E94361E8091AE027C
:10473000843009F4E6C08091AE02873009F4E1C00C
:10474000809113038823F9F48091AE02882321F02D
:104750008091AE028330B9F460915E0370915F0383
:104760008091600390916103695E7F4F8F4F9F4FEF
:104770002CE030E040E050E00E94273D6F5F7F4F2B
:104780008F4F9F4F08C060915E0370915F038091CF
:104790006003909161032AE030E040E050E00E9425
:1047A000273D85E06CE0422F212F0E94BE218091A1
:1047B00013038823F9F48091AE02882321F08091BD
:1047C000AE028330B9F460915E0370915F03809113
:1047D000600390916103695E7F4F8F4F9F4F2CE084
:1047E00030E040E050E00E94273D6F5F7F4F8F4FE9
:1047F0009F4F08C060915E0370915F0380916003DA
:10480000909161032AE030E040E050E00E94273DB3
:10481000462F84E16CE0212F0E94BE21609162034B
:104820007091630380916403909165032AE030E006
:1048300040E050E00E94273D82E36CE0422F212FB0
:104840000E94BE21609162037091630380916403B2
:10485000909165032AE030E040E050E00E94273D5F
:10486000462F81E46CE0212F0E94BE218091AE0290
:10487000882301F583E26CE04AE0212F0E94BE21EB
:1048800080E56CE04AE0212F0E94BE218091280340
:104890006AE00E94F43C482F8FE56CE0212F0E94D3
:1048A000BE21809128036AE00E94F43C8EE66CE011
:1048B000492FF0C08091AE028330B1F483E26CE006
:1048C0004AE0212F0E94BE2180E56CE04AE0212FC2
:1048D0000E94BE218FE56CE040E0212F0E94BE21A6
:1048E0008EE66CE040E0D6C08091AE02813029F0C7
:1048F0008091AE02853009F02BC183E26CE04BE081
:10490000C9C020915E0330915F03409160035091D4
:104910006103211531054105510569F48091620358
:1049200090916303A0916403B09165030097A10582
:10493000B10509F4B3C0CA01B90128EE33E040E083
:1049400050E00E94273D85E06CE0422F212F0E941D
:10495000BE2160915E0370915F038091600390912E
:10496000610328EE33E040E050E00E94273D24E65A
:1049700030E040E050E00E94273D84E16CE0422FAF
:10498000212F0E94BE2160915E0370915F03809190
:1049900060039091610324E630E040E050E00E9423
:1049A000273D2AE030E040E050E00E94273D83E2CE
:1049B0006CE0422F212F0E94BE2160915E03709116
:1049C0005F0380916003909161032AE030E040E052
:1049D00050E00E94273D462F82E36CE0212F0E9489
:1049E000BE21609162037091630380916403909192
:1049F000650328EE33E040E050E00E94273D81E46B
:104A00006CE0422F212F0E94BE21609162037091C1
:104A10006303809164039091650328EE33E040E0E6
:104A200050E00E94273D24E630E040E050E00E9444
:104A3000273D80E56CE0422F212F0E94BE2160912E
:104A4000620370916303809164039091650324E68F
:104A500030E040E050E00E94273D2AE030E040E0B6
:104A600050E00E94273D8FE56CE0422F212F0E94ED
:104A7000BE21609162037091630380916403909101
:104A800065032AE030E040E050E00E94273D462FD9
:104A90008EE66CE0212F0E94BE215AC00E94880D34
:104AA000809119038823A1F481E080931903C0E960
:104AB000DFEFE12CBDE7FB2E83E0BE01412F0E941A
:104AC0001B22C7010197F1F72196C03FD105A1F73D
:104AD00082E064E270E0412F0E941B2280E365E0E7
:104AE0000E94AA338091210364E60E94F43C90E086
:104AF00043966AE070E00E94143D862F805D60E07E
:104B00000E94F02F8091210364E60E94F43C90E023
:104B100043966AE070E00E94143D805D60E00E9470
:104B2000F02F8091210364E60E94F43C892F6AE013
:104B30000E94F43C805D60E00E94F02F8091210390
:104B40006AE00E94F43C892F805D60E00E94F02FB3
:104B5000DF91CF911F910F91FF90EF9008950F93E8
:104B6000DF93CF930F92CDB7DEB7082F1982109243
:104B700070008091BF02882321F081E08983109228
:104B8000BF0281E0809370008091AE02843009F40E
:104B900087C18091AE02873009F482C180914A03B7
:104BA00090914B038050914049F48FEF90E09093A7
:104BB0004B0380934A03802F0E942A2389818823F4
:104BC00051F480914A0390914B032FEF8D3C920753
:104BD000CCF14697BCF5809113038823F9F48091BA
:104BE000AE02882321F08091AE028330B9F4609147
:104BF0005E0370915F038091600390916103695E31
:104C00007F4F8F4F9F4F2CE030E040E050E00E94FC
:104C1000273D6F5F7F4F8F4F9F4F08C060915E03AE
:104C200070915F0380916003909161032AE030E00E
:104C300040E050E00E94273D85E06CE0422F202FAD
:104C40000E94BE218981882351F480914A0390916A
:104C50004B032FEF8C3D9207CCF18597BCF58091EB
:104C600013038823F9F48091AE02882321F0809108
:104C7000AE028330B9F460915E0370915F0380915E
:104C8000600390916103695E7F4F8F4F9F4F2CE0CF
:104C900030E040E050E00E94273D6F5F7F4F8F4F34
:104CA0009F4F08C060915E0370915F038091600325
:104CB000909161032AE030E040E050E00E94273DFF
:104CC000462F84E16CE0202F0E94BE218981882339
:104CD00059F480914A0390914B032FEF8A3F92073A
:104CE000BCF083349105A4F4609162037091630376
:104CF00080916403909165032AE030E040E050E049
:104D00000E94273D82E36CE0422F202F0E94BE21AB
:104D10008981882351F480914A0390914B03893013
:104D20009105BCF082359105A4F460916203709105
:104D3000630380916403909165032AE030E040E0D2
:104D400050E00E94273D462F81E46CE0202F0E9416
:104D5000BE218091AE028823E1F5809128036AE0AC
:104D60000E94F43C482F8FE56CE0202F0E94BE216A
:104D7000809128036AE00E94F43C8EE66CE0492FA3
:104D8000202F0E94BE218981882351F480914A03FB
:104D900090914B032FEF8B3E920744F0C49734F46D
:104DA00083E26CE04AE0202F0E94BE2189818823A3
:104DB00051F480914A0390914B03883191054CF056
:104DC0008136910534F480E56CE04AE0202F0E94A2
:104DD000BE218981882309F419C28091AE028823FB
:104DE00001F583E26CE04AE0202F0E94BE2180E5BD
:104DF0006CE04AE0202F0E94BE21809128036AE0E7
:104E00000E94F43C482F8FE56CE0202F0E94BE21C9
:104E1000809128036AE00E94F43C8EE66CE0492F02
:104E20003BC08091AE028330B1F483E26CE04AE093
:104E3000202F0E94BE2180E56CE04AE0202F0E94D6
:104E4000BE218FE56CE040E0202F0E94BE218EE65F
:104E50006CE040E021C08091AE02813021F0809171
:104E6000AE02853021F483E26CE04BE003C083E2C4
:104E70006CE04CE0202F0E94BE2180E56CE04CE00D
:104E8000202F0E94BE218FE56CE04CE0202F0E9475
:104E9000BE218EE66CE04CE0202F0E94BE21B6C100
:104EA0008091AF029091B002A091B102B091B20294
:104EB000181619061A061B060CF08EC180914A03BB
:104EC00090914B038050914049F48FEF90E0909384
:104ED0004B0380934A03802F0E942A2389818823D1
:104EE00051F480914A0390914B032FEF8D3C920730
:104EF000B4F04697A4F460915E0370915F038091D3
:104F000060039091610328EE33E040E050E00E949E
:104F1000273D85E06CE0422F202F0E94BE21898131
:104F2000882351F480914A0390914B032FEF8C3DDD
:104F30009207E4F08597D4F460915E0370915F036B
:104F4000809160039091610328EE33E040E050E0EF
:104F50000E94273D24E630E040E050E00E94273DDB
:104F600084E16CE0422F202F0E94BE21898188239A
:104F700051F480914A0390914B032FEF8B3E92079F
:104F8000E4F0C497D4F460915E0370915F03809164
:104F900060039091610324E630E040E050E00E941D
:104FA000273D2AE030E040E050E00E94273D83E2C8
:104FB0006CE0422F202F0E94BE218981882359F462
:104FC00080914A0390914B032FEF8A3F9207BCF0E8
:104FD00083349105A4F460915E0370915F03809126
:104FE0006003909161032AE030E040E050E00E94CD
:104FF000273D462F82E36CE0202F0E94BE2189814D
:10500000882351F480914A0390914B038930910594
:10501000BCF082359105A4F4609162037091630342
:10502000809164039091650328EE33E040E050E006
:105030000E94273D81E46CE0422F202F0E94BE2178
:105040008981882351F480914A0390914B038831E0
:105050009105ECF081369105D4F460916203709172
:105060006303809164039091650328EE33E040E090
:1050700050E00E94273D24E630E040E050E00E94EE
:10508000273D80E56CE0422F202F0E94BE218981C0
:10509000882351F480914A0390914B038732910504
:1050A000ECF080379105D4F4609162037091630352
:1050B000809164039091650324E630E040E050E085
:1050C0000E94273D2AE030E040E050E00E94273D6A
:1050D0008FE56CE0422F202F0E94BE21898188231A
:1050E00051F480914A0390914B0386339105BCF0B3
:1050F0008F379105A4F460916203709163038091EE
:105100006403909165032AE030E040E050E00E94A3
:10511000273D462F8EE66CE0202F0E94BE21909105
:105120001B038091C102981709F470C000E08091C0
:10513000C302823008F401E08091C5026091C4028C
:1051400042E022E00E9450308091C3028F5F809342
:10515000C302843010F01092C3029091C5029923CB
:10516000B9F48091C402882359F48091C3028E5F00
:105170008093C302843010F01092C30282E01BC0FF
:105180008E3310F48E5F17C08E3321F482E017C087
:105190009E3730F48091C4028E3311F49E5F19C0A3
:1051A0009E3781F48091C4028E3311F48CE303C0E6
:1051B000882321F082508093C40228C08CE780931A
:1051C000C50224C0992311F18091C4028823F1F40F
:1051D00092509093C5021AC08091AC02882311F0BE
:1051E0001092AC028981882341F480914A03909106
:1051F0004B038F3F910509F04CF480E091E09093D0
:105200004B0380934A03802F0E942A2380911B0323
:105210008093C102809128038093C20219820F906B
:10522000CF91DF910F9108950F931F93CF93DF9349
:105230008091AE02882329F08091AE02843009F07B
:1052400056C08091AB02882339F081E08093BF0281
:105250001092AB020E94361E8091AC02882309F4A2
:1052600046C081E00E942A2388EC9FEF90934B0375
:1052700080934A0300E01DE7C8ECD0E02EC08770A1
:105280009070892B19F481E00E94AF2560914A0348
:1052900070914B036F5F7F4F81E041E00E941B22C2
:1052A000C8010197F1F780914A0390914B038497CD
:1052B00059F480E197E2FE013197F1F70197D9F7B0
:1052C0001092AC020E94361E80914A0390914B03CB
:1052D000019690934B0380934A0380914A039091E7
:1052E0004B03883B91055CF280E00E942A23DF910A
:1052F000CF911F910F9108959C0160E971E00E9488
:10530000003D892B11F481E00895C90164E670E045
:105310000E94003D892B11F480E0089580E0237005
:105320003070232B09F481E008954F925F926F92C1
:105330007F928F929F92AF92BF92CF92DF92EF9225
:10534000FF920F931F93CF93DF93382F562F942EF6
:10535000522E402E8E2CE41620F0E41691F42817DD
:1053600080F4852D642D482D232F052FE92C0E94D4
:10537000952922273327A901261B370B480B590BE8
:10538000DEC0351569F4981409F053C0842D90E0FF
:10539000851B91099C01442737FD4095542FCFC0B0
:1053A000981409F046C0C32FD0E0FE01E25DF44F2F
:1053B000E4918E2F90E0851B91097C010027F7FC7A
:1053C0000095102F323041F4892D90E00E947C2905
:1053D000E80EF11C011D111D9FE2A92E9BE0B92EC4
:1053E000AC0EBD1ECC24DD243E010894611C711C52
:1053F000C52DD0E017C0F5018491E80EF11C011D08
:10540000111D2230310541F4892D90E00E947C2944
:10541000E80EF11C011D111D0894C11CD11C08943B
:10542000A11CB11C93012C0D3D1D2C173D071CF335
:1054300080C0C32FD0E0FE01E25DF44FE4918E2FD7
:1054400090E0851B91097C010027F7FC0095102F47
:10545000323041F4892D90E00E947C29E80EF11C45
:10546000011D111D8FE2A82E8BE0B82EAC0EBD1EC3
:10547000CC24DD24219617C0F5018491E80EF11C9F
:10548000011D111D2230310541F4892D90E00E944B
:105490007C29E80EF11C011D111D0894C11CD11CB2
:1054A0000894A11CB11C9E012C0D3D1D2D30310511
:1054B0001CF3892D90E06C010894C11CD11CC0E044
:1054C000D0E03C01A82CBB2411C0C6010E947C295D
:1054D00090E083599E4FAA2797FDA095BA2FE80E1A
:1054E000F91E0A1F1B1F0894C11CD11C2196CE0156
:1054F000860D971D8A159B0544F3C1E0D0E0C52CAD
:10550000DD2414C0FE01E25DF44FE491EE0EF11CC7
:10551000011D111DC230D10541F4882D90E00E947B
:105520007C29E80EF11C011D111D2196CC15DD050D
:105530004CF3A8019701240D311D411D511DB901E6
:10554000CA01DF91CF911F910F91FF90EF90DF90F3
:10555000CF90BF90AF909F908F907F906F905F9013
:105560004F900895EF92FF920F931F937B01882332
:1055700041F4BA0180E090E02FEB32E040E050E0EF
:1055800009C0813011F5BA0180E090E020E137E2F6
:1055900040E050E00E94D53C00E010E0A8019701F7
:1055A0000E94273DCA01B901A80197010E94273D29
:1055B000C901DA018F3F9105A105B10539F030F03D
:1055C0008FEF90E0A0E0B0E001C0842F1F910F9119
:1055D000FF90EF9008952F923F924F925F926F92BB
:1055E0007F928F929F92AF92BF92CF92DF92EF9273
:1055F000FF920F931F93CF93DF93EC0128803980A4
:105600004A805B806C807D808E809F80AA24BB2432
:105610006501F501E370F070EE0FFF1FEE0FFF1F45
:10562000EE56FE4FE080F18002811381EA0CFB1CF4
:105630000C1D1D1DD401C30175E0B695A795979566
:1056400087957A95D1F7A401930164E0220F331F67
:10565000441F551F6A95D1F782279327A427B527A2
:10566000860D971DA81DB91DE826F9260A271B27B8
:105670002E0C3F1C401E511E89EB99E7A7E3BEE9A3
:10568000A80EB91ECA1EDB1EA2019101F5E05695B7
:10569000479537952795FA95D1F7D201C101E4E0F6
:1056A000880F991FAA1FBB1FEA95D1F72827392712
:1056B0004A275B27220D331D441D551DD601C50108
:1056C0007BE0B695A795979587957A95D1F78370E6
:1056D0009070880F991F880F991F8E569E4FFC015E
:1056E00080819181A281B3818A0D9B1DAC1DBD1D5E
:1056F000282739274A275B27620E731E841E951EB2
:10570000F0E2AF16F7E3BF06FFEECF06F6ECDF06DA
:1057100009F07FCF288239824A825B826C827D8247
:105720008E829F82DF91CF911F910F91FF90EF901A
:10573000DF90CF90BF90AF909F908F907F906F90B1
:105740005F904F903F902F9008958F92AF92BF92AD
:10575000CF92DF92EF92FF920F931F93DF93CF933D
:10576000CDB7DEB728970FB6F894DEBF0FBECDBF1A
:10577000E82FF42F722FBC2C8A2D8150823008F034
:1057800040C030E040E050E03961802F90E0A0E080
:10579000B0E0B82FAA2799278827282B392B4A2B26
:1057A0005B2B8E2D90E0A0E0B0E0DC0199278827EC
:1057B000282B392B4A2B5B2B29833A834B835C8321
:1057C0002F8930E040E050E0542F432F322F222722
:1057D000888D90E0A0E0B0E0282B392B4A2B5B2B82
:1057E000426B898D90E0A0E0B0E0B82FAA279927FE
:1057F0008827282B392B4A2B5B2B2D833E834F8305
:1058000058878E2F4F2F272F0E9495292AE030E0AE
:1058100040E050E00E94D53C7B018C0125E43EE055
:1058200040E050E00E94273D6901BB2029F026E3BB
:105830003BE644E050E004C02AE83CE144E050E0AC
:10584000BA01A9014E195F09600B710B882D90E018
:105850008E3291051CF08DE290E005C088319105F3
:1058600014F488E190E08C010851104083E0A81600
:1058700009F0A5C0BB2009F04BC0475E5F40624005
:1058800070409E89913051F5A7E1BBE020E030E007
:10589000FD0185919491C816D906D0F4F901EE0F57
:1058A000FF1FEE0FFF1FE75EF44F25913491C901F2
:1058B000E3E0880F991FEA95E1F7220F331F820F6B
:1058C000931FA0E0B0E0481B590B6A0B7B0B06C08E
:1058D0002F5F3F4F149623303105D1F6E0E5FAE013
:1058E000849190E0C816D9061CF480E090E009C0CD
:1058F0007796849190E0C816D9060CF08CC187E1A8
:1059000090E0080F191F0F5A154FF80184913FC0FE
:10591000445B5A4362407040A3E2BBE020E030E0C9
:10592000FD0185919491C816D906D0F4F901EE0FC6
:10593000FF1FEE0FFF1FEB5DF44F25913491C9015E
:10594000E3E0880F991FEA95E1F7220F331F820FDA
:10595000931FA0E0B0E0481B590B6A0B7B0B06C0FD
:105960002F5F3F4F149623303105D1F620E030E011
:10597000F901E258F54FE4918E2F90E0C816D90650
:10598000C4F4020F131F0158154FF801849190E0E1
:1059900025E43EE0DC01A29FC001A39F900DB29FD1
:1059A000900D1124A0E0B0E0481B590B6A0B7B0B53
:1059B00032C1295E3F4F25343105D1F62CC1BB20C1
:1059C00009F045C0BE89B13051F5A3ECBAE020E042
:1059D00030E0FD0185919491C816D906D0F4F90103
:1059E000EE0FFF1FEE0FFF1FEB53F54F2591349184
:1059F000C901E3E0880F991FEA95E1F7220F331FF1
:105A0000820F931FA0E0B0E0481B590B6A0B7B0B81
:105A100006C02F5F3F4F14962B303105D1F620E0A2
:105A200030E0F901EB5DF64FE4918E2F90E0C8165F
:105A3000D9063CF4020F131F0A5D164FF80184913A
:105A400044C0295E3F4F2A38310559F755C0BE89F9
:105A5000B13051F5AFEEBAE020E030E0FD018591C4
:105A60009491C816D906D0F4F901EE0FFF1FEE0F7E
:105A7000FF1FEF50F54F25913491C901F3E0880FD6
:105A8000991FFA95E1F7220F331F820F931FA0E0B1
:105A9000B0E0481B590B6A0B7B0B06C02F5F3F4FD2
:105AA00014962A303105D1F620E030E0F901E155B5
:105AB000F64FE4918E2F90E0C816D906C4F4020F79
:105AC000131F0055164FF801849190E025E43EE045
:105AD000DC01A29FC001A39F900DB29F900D1124E5
