:100000000C940B030C9428030C9428030C94951166
:100010000C9428030C9428030C9428030C942803B4
:100020000C9428030C9433060C9428030C949D0321
:100030000C9428030C942A030C943C030C9428037E
:100040000C9428030C9428030C9428030C94280384
:100050000C9428030C94ED100C9428030C942803A2
:100060000C941D260C94280305A84CCDB2D44EB98F
:100070003836A9020C50B9918688083CA6AAAA2A4B
:10008000BE000000803FFF8181FF000000FF9F91C4
:1000900091F1919191FFF01010FFF191919FFF91DB
:1000A000919F808080FFFF9191FFF19191FF00145B
:1000B0000000000000000000000000000000000040
:1000C0000000000000002800000000010101010202
:1000D00002020303030404040505060608320000B7
:1000E00000000001010101020202020303040404F2
:1000F000050505073C0000000000000101010102A8
:100100000202030303040404050506460000000080
:1001100001010101010202020203030304040404B9
:100120000000C80000000000000000000000000007
:1001300000000000000000000514000000000000A6
:1001400000000000000000000000000000000000AF
:100150001E00000001010101020203030304040563
:100160000506060707080D2800000001010101022D
:10017000020203030304040505060606070B32000A
:100180000000000001010102020203030304040451
:10019000050506060A3C0000000000000001010100
:1001A00001020202030303040404050746000000E1
:1001B000000000000001010101020202020203032B
:1001C000030305C80000000000000000000000005C
:1001D00001010101010101010202140000000000FF
:1001E000000000000000000000000000000000000F
:1001F00000C8000000000000000001010101010131
:1002000002020202020303041400000000000000C6
:100210000000000000000000000000000000001EC0
:1002200000000000000000010101010102020202C1
:10023000030303030406C8000000000000000101DE
:100240000101010102020202030303030519000078
:10025000001E00B30A23008F0A2800FD092D00D8D4
:100260000932006A093700D9083C00FE074100FE48
:100270000646004706C800B504190000001E003FEE
:10028000092D001B093200F6083700D1083C009008
:10029000084100F606460022074B006505C80048E5
:1002A00004190000001E00FE04C800DA0419000052
:1002B000001E009005C8006C051F1C1F1E1F1E1F7E
:1002C0001F1E1F1E1F0B3E41414141424242423C04
:1002D0000006FFFFFFFFFFFF000000000000005FBF
:1002E00000000007000700147F147F14242A7F2ACF
:1002F000122313086462364955225000050300009A
:10030000001C2241000041221C00082A1C2A080867
:10031000083E08080050300000080808080800607F
:1003200060000020100804023E5149453E00427F13
:10033000400042615149462141454B311814127F1A
:100340001027454545393C4A4949300171090503A3
:100350003649494936064949291E0036360000000B
:1003600056360000000814224114141414144122BB
:100370001408000201510906324979413E7E1111EB
:10038000117E7F494949363E414141227F41412208
:100390001C7F494949417F090901013E41415132D0
:1003A0007F0808087F00417F41002040413F017FD6
:1003B000081422417F404040407F0204027F7F04B6
:1003C00008107F3E4141413E7F090909063E4151E7
:1003D000215E7F09192946464949493101017F01BA
:1003E000013F4040403F1F2040201F7F2018207FBA
:1003F00063140814630304780403615149454300FE
:10040000007F4141020408102041417F00000402A6
:1004100001020440404040400001020400205454C6
:1004200054787F484444383844444420384444484D
:100430007F3854545418087E090102081454543C5F
:100440007F0804047800447D40002040443D0000C3
:100450007F10284400417F40007C041804787C0809
:1004600004047838444444387C14141408081414E0
:10047000187C7C080404084854545420043F444029
:10048000203C4040207C1C2040201C3C4030403C14
:1004900044281028440C5050503C4464544C4400B0
:1004A0000836410000007F000000413608000808BF
:1004B0002A1C08081C2A08084932433A204255538E
:1004C0005F4552524F520D0A004932433A204E4F77
:1004D0005F494E464F0D0A004932433A2053542D8E
:1004E0003E444154415F4E41434B206F72204C418A
:1004F00053545F444154410D0A004932433A20535A
:10050000542D3E444154415F41434B0D0A00493252
:10051000433A2053542D3E534C415F41434B0D0A07
:10052000004932433A2053522D3E53525F53544FA9
:10053000500D0A004932433A2053522D3E44415453
:10054000415F4E41434B0D0A004932433A2053521A
:100550002D3E444154415F41434B0D0A0049324313
:100560003A2053522D3E534C415F41434B0D0A00FC
:100570004932433A204D522D3E534C415F41434B4B
:100580000D0A004932433A204D522D3E4441544118
:100590005F41434B0D0A004932433A204D542D3EF2
:1005A0004152425F4C4F53540D0A004932433A20A6
:1005B0004D54522D3E534C415F4E41434B206F7280
:1005C000204D542D3E444154415F4E41434B0D0A52
:1005D000004932433A204D522D3E444154415F4E32
:1005E00041434B0D0A004932433A204D542D3E53AE
:1005F0004C415F41434B206F7220444154415F4165
:10060000434B0D0A004932433A204D2D3E5354418D
:1006100052540D0A000011241FBECFEFD8E0DEBFF8
:10062000CDBF14E0A0E0B1E0E4E4F3E602C0059041
:100630000D92AA36B107D9F715E0AAE6B4E001C0D9
:100640001D92AD30B107E1F70E94A0070C94A031D4
:100650000C9400001F920F920FB60F9211248F93EB
:100660009F9388B198E0892788B99F918F910F90C7
:100670000FBE0F901F9018951F920F920FB60F92FA
:1006800011248F939F938091710490917204892B10
:1006900049F08091710490917204019790937204D3
:1006A000809371048091E2049091E304892B49F0D6
:1006B0008091E2049091E30401979093E304809386
:1006C000E2048091E004882389F180916F04909185
:1006D0007004892B59F58091D7049091D804892B07
:1006E000E1F48CE291E09093D8048093D704809158
:1006F0008100882379F41092800089E08093810042
:1007000083E080936F0088EE93E09093890080935C
:10071000880003C01092810043988091D704909183
:10072000D80401979093D8048093D7049F918F9118
:100730000F900FBE0F901F9018951F920F920FB63B
:100740000F9211248F939F9388B198E0892788B9DD
:100750009F918F910F900FBE0F901F901895AF92A1
:10076000BF92CF92DF92EF92FF920F931F93E62EEC
:100770001092800029E02093810023E020936F00F5
:100780009C0140E050E060E079E08DE390E00E9461
:100790003F2F3093890020938800FF2400E010E071
:1007A000C801B7010E945D2C5B016C0120E030E0C4
:1007B0004AEF54E40E9475297B018C0120E030E06F
:1007C00040E85FE30E947B2B88231CF461E070E02B
:1007D00024C0C801B70120E03FEF4FE757E40E9473
:1007E0001B2B1816B4F4C601B50120E030E040E23E
:1007F00051E40E9475290E949F2788EC90E005C073
:10080000FC013197F1F76150704061157105C1F736
:1008100007C0C801B7010E949F27CB010197F1F7DC
:100820001092810043981F910F91FF90EF90DF90FD
:10083000CF90BF90AF900895FC0183709070892B8A
:1008400039F4CF0164E670E00E94F62E892B49F45A
:1008500020E030E0CF0160E971E00E94F62E892BA4
:1008600011F421E030E0822F08950895482F6AE0C6
:100870000E94EA2E282F30E084E0220F331F8A9551
:10088000E1F7842F0E94EA2E892F822B089588E5B4
:1008900092E09093700480936F04109281004398CB
:1008A0001092E10408951E9B16C08091DD048823F8
:1008B00021F11092DD041092E6041092700410925F
:1008C0006F048091E0048823C1F01092E00410923C
:1008D0008100439808958091DD04882371F481E0BC
:1008E0008093DD041092700410926F0483E0809373
:1008F0006E0480936D040E94BA1108950F931F93A4
:10090000182F062F6AE00E94EA2E805D602F0E9459
:10091000F320812F6AE00E94EA2E892F805D602FEC
:100920000E94F3201F910F910895AF92BF92CF9232
:10093000DF92EF92FF920F931F93DF93CF93CDB788
:10094000DEB728970FB6F894DEBF0FBECDBF162FC7
:10095000F42ED22E5E010894A11CB11C98E0F50182
:1009600011929A95E9F719820E9436048A83812FA1
:100970000E9436048B838F2D0E9436048C838D2D2C
:100980000E9436048D83802F0E9436048E838E2D24
:100990000E9436048F838C2D0E943604888780ED58
:1009A00068E0A5010E9483258823D9F008EC10E0B7
:1009B00080EA9FE064E60E94AF0388EE93E0F801CE
:1009C0003197F1F70197D9F780EA9FE064E60E943A
:1009D000AF0380E197E2F8013197F1F70197D9F77A
:1009E000E7CF28960FB6F894DEBF0FBECDBFCF91EC
:1009F000DF911F910F91FF90EF90DF90CF90BF900C
:100A0000AF9008950F931F93DF93CF93CDB7DEB7C9
:100A100029970FB6F894DEBF0FBECDBF198280EDC7
:100A200061E0AE014F5F5F4F0E9483258823D9F0BC
:100A300008EC10E080EA9FE064E60E94AF0388EED5
:100A400093E0F8013197F1F70197D9F780EA9FE039
:100A500064E60E94AF0380E197E2F8013197F1F775
:100A60000197D9F7E7CF80ED67E0AE014E5F5F4FAA
:100A70000E94CA258823D9F008EC10E080EA9FE0A4
:100A800064E60E94AF0388EE93E0F8013197F1F736
:100A90000197D9F780EA9FE064E60E94AF0380E106
:100AA00097E2F8013197F1F70197D9F7E7CF7A810B
:100AB000872F82958F7090E0877090709C01A3E0E3
:100AC000220F331FAA95E1F7880F991F280F391FAE
:100AD000872F8F70820F8093E5044B81842F82953E
:100AE0008F7090E0877090709C01E3E0220F331FBD
:100AF000EA95E1F7880F991F280F391F4F70420FB1
:100B00004093DB048C81482F42954F70682F6F70A3
:100B100086FF22C082958695877090E081709070E4
:100B20009C01220F331F280F391F220F331F220F62
:100B3000331F842F90E081709070AC0103E0440F6C
:100B4000551F0A95E1F7880F991F480F591F240F69
:100B5000260F2093D20411C0842F90E083709070F0
:100B60009C01B3E0220F331FBA95E1F7880F991F5C
:100B7000280F391F620F6093D2044E81842F829513
:100B80008F7090E0837090709C01F3E0220F331F10
:100B9000FA95E1F7880F991F280F391F4F70420F00
:100BA0004093DA044F81842F82958F7090E081709A
:100BB00090709C0163E0220F331F6A95E1F7880F64
:100BC000991F280F391F4F70420F4093E404288566
:100BD000822F82958F703AE0839FC00111242F707D
:100BE000280F2093D504872F807829960FB6F89484
:100BF000DEBF0FBECDBFCF91DF911F910F91089542
:100C0000CF92EF920F930E94DD240E940205882369
:100C100059F080E060E04CE020E001E0EE24E39455
:100C2000B9E0CB2E0E9495040E94020582E090E07C
:100C30000E9456306CE30E94EA2E9093D60481E025
:100C400090E00E94563068E10E94EA2E9093DF0403
:100C500087E08093B10081E08093700078940F91D9
:100C6000EF90CF9008951F920F920FB60F9211241C
:100C7000FF920F931F932F933F934F935F936F9325
:100C80007F938F939F93AF93BF93EF93FF93A89519
:100C900080917304803579F410927304F090E50428
:100CA0001091DB040091D2040E9402058091D204CD
:100CB000801729F40AC08F5F80937304D6C081E047
:100CC00080936C040093DC0407C08091DB048117DF
:100CD00029F081E080936B041093D3048091E504A4
:100CE0008F15E9F18091E004882359F080916F0419
:100CF00090917004009729F001979093700480936D
:100D00006F0480916D04882351F180916D048150AE
:100D100080936D0480916D04882309F510926E0410
:100D200080916C04882329F08091DC048093D204A4
:100D300004C080916B04882321F08091D3048093B8
:100D4000DB040E94BA1180916C04882321F4809105
:100D50006B04882321F00093D2041093DB0480916C
:100D6000E104843061F08091E104853041F08091AC
:100D7000E104883021F08091E104863089F580918A
:100D80007604882369F584E462E00E9496248091C9
:100D9000D20460E00E940C098AE360E00E94F32024
:100DA0008091DB0460E00E947E048AE360E00E94A0
:100DB000F3208091E50460E00E947E048091D404D9
:100DC000882371F480E260E00E94F3208091D204D5
:100DD0008C3010F080E501C081E460E00E94F320D7
:100DE0008091DD04882399F08091E504882379F4CB
:100DF0009091DB048091D604981749F49091D20425
:100E00008091DF04981719F481E08093E6048091C3
:100E10006B04882369F480916C04882349F48091E1
:100E2000E604882329F081E08093E0041092E60430
:100E300080917404863039F41092740480917A049D
:100E4000882329F409C08F5F809374040EC08091B9
:100E50007A04815080937A0480917504882329F064
:100E600080917504815080937504FF91EF91BF913B
:100E7000AF919F918F917F916F915F914F913F9132
:100E80002F911F910F91FF900F900FBE0F901F9009
:100E90001895EF92FF920F931F93F82E162FE42EC2
:100EA00021E001E00E943C21FE0C0F2D0250115068
:100EB000802F612F0E947F221E5F802F612F0E9452
:100EC0007F2201501350802F612F0E947F221C5FD0
:100ED000802F612F0E947F221F910F91FF90EF9032
:100EE000089580E090E00E945630833C41F181E01B
:100EF00090E068E00E945E3082E090E060E00E9456
:100F00005E3083E090E060E10E945E3084E090E03B
:100F100061E00E945E3085E090E060E00E945E301B
:100F200086E090E060E00E945E3087E090E06AE05A
:100F30000E945E3080E090E063EC0E945E30089595
:100F40007F928F929F92AF92BF92CF92DF92EF9259
:100F5000FF920F931F93CF93DF9384B714BE88E162
:100F60000FB6F89480936000109260000FBE8AE183
:100F700090E00E94331F3B9A0E9400060E94710776
:100F800085E090E00E9456308093DE0486E090E099
:100F90000E9456308093D4040E94C2100E945304D1
:100FA00082E084BD83E085BD8DE787BD80916E00C2
:100FB000826080936E00539A80E28093B0008091AB
:100FC000B00083608093B0008091B100886080930E
:100FD000B10080E18093B30083E090E00E9456303E
:100FE0008093B400259A80EA9FE064E60E94AF03F4
:100FF0002FE088E190E00FB6F894A8958093600008
:101000000FBE209360000E94C4240E94A0240E946E
:10101000191280E00E94A01510E000E06BE4C62EDB
:10102000D12CC8E5D2E052E0752E43E0F42E99248D
:10103000939438E0832E26E0A22E94E0B92E85E02A
:10104000E82ED092E304C092E204809178048823D1
:1010500079F08091E004882359F010927804D093BD
:101060007004C0936F041092810043981092E104C1
:10107000002359F080916D04882339F470926E0436
:10108000F0926D040E94BA1100E08091780486709D
:1010900049F01092780490926E04F0926D040E94D0
:1010A000BA1101E08091780480FF3DC0109278046D
:1010B0008091E104843089F0853028F4882341F060
:1010C000833009F511C08530A1F08830E1F416C0F5
:1010D000B092E1040E94BE0B1DC0F092E1040E9498
:1010E0001F0A1092000116C0E092E1040E94C70E90
:1010F00011C08092E1040E94BE0C0CC0A092E104D9
:101100000E94F70D07C01092E1040E94A02480E025
:101110000E94A0158091E104882329F40E94A02454
:1011200080E00E94A0150E9437168091E104882378
:1011300039F5112369F48091E004882369F08091E6
:10114000E50480FF09C081E00E94A01511E018C0ED
:101150008091E004882351F08091E004882359F0C5
:10116000112349F08091E50480FD05C080E00E94D4
:10117000A01510E005C02D9A812F0E944F142D98C4
:101180008091E2049091E304892BD1F75ACF0F9319
:101190001F93CF93DF93182F062F8091D4048823B9
:1011A00071F584E761E00E9496241C3010F080E520
:1011B00001C081E460E00E94F3208DE460E00E94C1
:1011C000F32080E561E00E949624812F90E047960D
:1011D0006CE070E00E940A2FEC018930910524F048
:1011E0009C012F5F822F10C080E260E00E94F320FC
:1011F0009E012F5C822F602F0E94F32008C080E5A3
:1012000061E00E949624812F602F0E947E04DF916E
:10121000CF911F910F9108950F931F93CF93DF9359
:10122000082F162F8091D4048823D1F4802F90E0CA
:1012300047966CE070E00E940A2FEC01893091051E
:1012400024F09C012F5F822F14C080E260E00E9496
:10125000F3209E012F5C822F612F0E94F3200CC08F
:1012600080E260E00E94F32080E260E00E94F320D0
:10127000802F612F0E947E04DF91CF911F910F91EB
:101280000895809176048F5F809376040E94A02455
:1012900080E060E00E94962481E091E060E00E949E
:1012A0002B2188E061E00E94962484E191E060E0D7
:1012B0000E942B218091DF0460E00E94C7088AE32E
:1012C00060E00E94F3208091D60460E00E947E04DA
:1012D00088E062E00E94962481E291E060E00E9452
:1012E0002B218091D20460E00E940C098AE360E027
:1012F0000E94F3208091DB0460E00E947E048AE378
:1013000060E00E94F3208091E50460E00E947E048A
:101310008091D404882371F480E260E00E94F3207D
:101320008091D2048C3010F080E501C081E460E04F
:101330000E94F32088E063E00E9496248CE291E012
:1013400060E00E942B218091DE04882361F480916B
:10135000E40460E00E947E048FE260E00E94F320DB
:101360008091DA040BC08091DA0460E00E947E0470
:101370008FE260E00E94F3208091E40460E00E942C
:101380007E048FE260E00E94F3208091D50460E04B
:101390000E947E0488E064E00E94962489E391E044
:1013A00060E00E942B218091DE04882339F4809133
:1013B000D404882319F486E491E018C08091DE04F7
:1013C000882339F48091D404813019F48EE491E0BB
:1013D0000DC08091DE04813039F48091D4048823DB
:1013E00019F486E591E002C08EE591E060E00E948C
:1013F0002B2188E065E00E94962486E691E060E07B
:101400000E942B218091B40060E00E947E0480E065
:1014100066E00E94962486E791E060E00E942B211E
:1014200080E067E00E9496248CE891E060E00E94F2
:101430002B21809176048150809376040895BF9289
:10144000CF92DF92EF92FF920F931F93CF93DF9390
:101450001091D204D090DB04F090E5040E94410981
:10146000809176048F5F8093760480E063E147E0AB
:101470000E944907809176048150809376048AE027
:101480008093750403E08AE0B82EC8ECD0E0809128
:10149000780480FD69C180917804882321F48091CB
:1014A0007904882319F0B092750407C080917504FF
:1014B000882319F41092E10457C18091780481FFC8
:1014C000DAC010927804809176048F5F809376045E
:1014D000033081F584E462E00E949624812F61E06C
:1014E0000E940C0984E762E00E9496248091D40453
:1014F000882361F480E260E00E94F3201C3010F049
:1015000080E501C081E461E00E94F32080E066E0B4
:101510000E9496248DE991E060E00E942B2180E0FA
:1015200067E00E94962483EB91E060E00E942B210B
:1015300005E69CC00536C1F584E462E00E9496246D
:10154000812F60E00E940C098AE360E00E94F32092
:101550008D2D61E00E947E0480E066E00E9496246A
:1015600089EC91E060E00E942B2180E067E00E941E
:1015700096248FED91E060E00E942B2184E762E0E9
:101580000E9496248091D404882361F480E260E074
:101590000E94F3201C3010F080E501C081E460E07F
:1015A0000E94F32006E662C0063651F58091D4040D
:1015B000882311F486E501C082E662E00E94962449
:1015C0008D2D60E00E947E048AE360E00E94F3209B
:1015D0008F2D61E00E947E0480E066E00E949624E8
:1015E00085EF91E060E00E942B2180E067E00E949F
:1015F00096248BE092E060E00E942B2107E636C043
:101600008091D404882311F488E601C084E762E065
:101610000E9496248F2D60E00E947E0480E066E0A8
:101620000E94962486E791E060E00E942B2180E0F2
:1016300067E00E9496248CE891E060E00E942B21F4
:101640001093D204D092DB04F092E5048091E5047B
:101650006091DB044091D2040091DA04E090E4044C
:10166000C090D50420E00E94950403E080917604A8
:101670008150809376048091780482FD04C080912B
:10168000790482FF04CF10927804809176048F5FF2
:1016900080937604053649F5812F90E0019668E144
:1016A00070E00E940A2F182F8093D20484E462E035
:1016B0000E949624812F61E00E940C0984E762E079
:1016C0000E9496248091D4048823E9F580E260E0AA
:1016D0000E94F3208091D2048C3010F080E501C08C
:1016E00081E461E00E94F3202EC00636A1F48D2D26
:1016F00090E001966CE370E00E940A2FD82E809152
:10170000D404882311F486E501C082E662E00E94D9
:1017100096248D2D15C00736B1F48F2D90E00196DB
:101720006CE370E00E940A2FF82E8091D404882385
:1017300011F488E601C084E762E00E9496248F2DB0
:1017400061E00E947E04809176048150809376044B
:101750008091790482FF9BCE80ED97E0FE01319766
:10176000F1F70197D9F793CEDF91CF911F910F91A8
:10177000FF90EF90DF90CF90BF9008950F931F934D
:10178000CF93DF930E944109809176048F5F80930D
:10179000760480E06BE047E00E9449078091760480
:1017A0008150809376048AE08093750414E00AE007
:1017B000C8ECD0E08091780480FDDBC08091780493
:1017C000882321F480917904882319F0009375040B
:1017D00007C080917504882319F41092E104C9C0F0
:1017E0008091780481FF74C010927804809176040F
:1017F0008F5F809376041430C9F48091DF0461E038
:101800000E94C70880E066E00E9496248DE991E07E
:1018100060E00E942B2180E067E00E94962483EB29
:1018200091E060E00E942B2115E64DC0153631F5A0
:1018300080E561E00E9496248091DF0460E00E94D0
:10184000C70882E661E00E9496248091D60461E098
:101850000E947E0480E066E00E94962489EC91E07C
:1018600060E00E942B2180E067E00E9496248FEDCB
:1018700091E060E00E942B2116E625C080E561E042
:101880000E9496248091DF0460E00E94C70882E6EF
:1018900061E00E9496248091D60460E00E947E045C
:1018A00080E066E00E94962486E791E060E00E9476
:1018B0002B2180E067E00E9496248CE891E060E0B4
:1018C0000E942B2114E0809176048150809376044D
:1018D0008091780482FD04C08091790482FF6ACFF0
:1018E00010927804809176048F5F80937604153689
:1018F000A1F48091DF0490E0019668E170E00E941D
:101900000A2F8093DF048091DF0461E00E94C70802
:101910006091DF0481E090E019C01636C9F480912F
:10192000D60490E001966CE370E00E940A2F809349
:10193000D60482E661E00E9496248091D60461E09C
:101940000E947E046091D60482E090E00E945E30A6
:10195000809176048150809376048091790482FF8F
:1019600029CF80ED97E0FE013197F1F70197D9F784
:1019700021CFDF91CF911F910F9108950F931F9366
:101980000E944109809176048F5F8093760480E005
:1019900063E247E00E94490780917604815080937A
:1019A00076048AE08093750418E00AE08091780458
:1019B00080FD1AC180917804882321F480917904F4
:1019C000882319F00093750407C08091750488235B
:1019D00019F41092E10408C18091780481FF89C054
:1019E00010927804809176048F5F8093760418308B
:1019F000F1F580E564E00E9496248091DE0488235E
:101A000039F48091D404882319F486E491E018C055
:101A10008091DE04882339F48091D404813019F454
:101A20008EE491E00DC08091DE04813039F4809124
:101A3000D404882319F486E591E002C08EE591E094
:101A400061E00E942B2180E066E00E94962481E202
:101A500092E060E00E942B2180E067E00E949624E3
:101A600087E392E060E00E942B2118E63DC080E50C
:101A700064E00E9496248091DE04882339F48091EA
:101A8000D404882319F486E491E018C08091DE0420
:101A9000882339F48091D404813019F48EE491E0E4
:101AA0000DC08091DE04813039F48091D404882304
:101AB00019F486E591E002C08EE591E060E00E94B5
:101AC0002B2180E066E00E94962486E791E060E0AA
:101AD0000E942B2180E067E00E9496248DE492E032
:101AE00060E00E942B2118E0809176048150809361
:101AF00076048091780482FD04C08091790482FF8D
:101B000055CF10927804183609F050CF8091D40444
:101B1000882341F08091DE0490E0882309F491E06D
:101B20009093DE048091D40490E0882309F491E03E
:101B30009093D404809176048F5F809376040E9402
:101B4000410980E066E00E94962481E292E060E034
:101B50000E942B2180E067E00E94962487E392E0B8
:101B600060E00E942B2180E063E247E00E94490789
:101B700080E564E00E9496248091DE04882339F495
:101B80008091D404882319F486E491E018C08091F0
:101B9000DE04882339F48091D404813019F48EE472
:101BA00091E00DC08091DE04813039F48091D4043D
:101BB000882319F486E591E002C08EE591E061E0AA
:101BC0000E942B218091760481508093760460914D
:101BD000DE0485E090E00E945E306091D40486E0EF
:101BE00090E00E945E30E2CE1F910F9108950F9316
:101BF0001F930E944109809176048F5F8093760441
:101C000080E066E00E94962483E692E060E00E9415
:101C10002B2180E06BE247E00E9449078091760427
:101C20008150809376048AE08093750416E00AE080
:101C30008091780480FDA8C080917804882321F4E5
:101C400080917904882319F00093750407C080916E
:101C50007504882319F41092E10496C080917804E9
:101C600081FF47C010927804809176048F5F809343
:101C700076041630E9F482E665E00E9496248091AD
:101C8000B40061E00E947E0480E066E00E94962439
:101C900089E792E060E00E942B2180E067E00E94EB
:101CA00096248EE892E060E00E942B2119E61CC089
:101CB00082E665E00E9496248091B40060E00E9474
:101CC0007E0480E066E00E94962483EA92E060E071
:101CD0000E942B2180E067E00E94962486EB92E030
:101CE00060E00E942B2116E0809176048150809361
:101CF00076048091780482FD04C08091790482FF8B
:101D000097CF10927804193609F092CF8091B400E1
:101D10008F5F8093B4008091B400813110F01092F5
:101D2000B400809176048F5F809376040E9441090D
:101D300080E066E00E94962481E292E060E00E94EA
:101D40002B2180E067E00E94962487E392E060E028
:101D50000E942B2180E06BE247E00E94490782E667
:101D600065E00E9496248091B40061E00E947E04A8
:101D7000809176048150809376046091B40083E072
:101D800090E00E945E3054CF1F910F910895BF9252
:101D9000CF92DF92EF92FF920F931F93CF93DF9337
:101DA000F090DA041091E404D090D5040E94410927
:101DB000809176048F5F8093760480E06BE147E04A
:101DC0000E944907809176048150809376048AE0CE
:101DD0008093750405E04AE0B42EC8ECD0E0809111
:101DE000780480FDC5C180917804882321F4809116
:101DF0007904882319F0B092750407C080917504A6
:101E0000882319F41092E104B3C18091780481FF12
:101E1000EAC010927804809176048F5F80937604F4
:101E2000053099F48091DE04882329F480E563E08D
:101E30000E94962448C08091DE04813009F09EC043
:101E400080E563E00E94962413C00B3049F5809131
:101E5000DE04882309F054C080E563E00E949624E4
:101E6000812F60E00E947E048FE260E00E94F320F8
:101E70008F2D61E00E947E0480E066E00E9496243F
:101E800086EF92E060E00E942B2180E067E00E94F4
:101E900096248CE093E060E00E942B210CE09EC031
:101EA0000C3009F06BC08091DE04813021F580E5B3
:101EB00063E00E9496248F2D60E00E947E048FE2F2
:101EC00060E00E94F320812F61E00E947E0480E0A8
:101ED00066E00E9496248AEC92E060E00E942B214A
:101EE00080E067E00E94962480EE92E060E00E942D
:101EF0002B210BE073C08091DE04882329F03EC0C3
:101F00008091DE048130D1F580E563E00E94962463
:101F10008091DE04882351F4812F60E00E947E04CA
:101F20008FE260E00E94F3208F2D09C08F2D60E0CA
:101F30000E947E048FE260E00E94F320812F60E027
:101F40000E947E048FE260E00E94F3208D2D61E00C
:101F50000E947E0480E066E00E94962482E293E084
:101F600060E00E942B2180E067E00E94962488E3D5
:101F700093E060E00E942B210DE030C084E763E035
:101F80000E9496248D2D60E00E947E0480E066E031
:101F90000E94962486E791E060E00E942B2180E079
:101FA00067E00E9496248CE891E060E00E942B217B
:101FB000D092D5041093E404F092DA048091E50401
:101FC0006091DB044091D2040091DA04E090E404D3
:101FD000C090D50420E00E94950405E0809176042D
:101FE0008150809376048091780482FD04C08091B2
:101FF000790482FFF4CE10927804809176048F5F8A
:10200000809376040B3009F048C01F5F1D3010F03C
:1020100011E027C01230C1F48D2D90E00E941C0405
:10202000882331F08DE18F1518F43DE1F32E19C0AE
:102030008D2D90E00E941C04882399F48CE18F156B
:1020400080F42CE1F22E0DC0143031F0163021F066
:10205000193011F01B3029F48EE18F1510F49EE138
:10206000F92E80E563E00E9496248091DE048823A7
:1020700051F4812F61E00E947E048FE260E00E94B3
:10208000F3208F2D50C08F2D60E00E947E048FE2E0
:1020900060E00E94F320812F57C00C3009F045C04A
:1020A000F3948FE18F1510F4FF24F394123099F418
:1020B0008D2D90E00E941C04882319F08DE18F156E
:1020C000A8F08D2D90E00E941C04882389F48CE1F7
:1020D0008F1560F00DC0143031F0163021F019303A
:1020E00011F01B3029F48FE1F81611F4FF24F3945A
:1020F00080E563E00E9496248091DE04882351F4F9
:10210000812F60E00E947E048FE260E00E94F32055
:102110008F2D1AC08F2D61E00E947E048FE260E057
:102120000E94F320812F60E010C00D3081F48D2DCE
:1021300090E0019664E670E00E940A2FD82E84E7B2
:1021400063E00E9496248D2D61E00E947E048091C0
:1021500076048150809376048091790482FF3FCE8B
:1021600080ED97E0FE013197F1F70197D9F737CE6F
:10217000DF91CF911F910F91FF90EF90DF90CF9063
:10218000BF90089526982E9A81E080936800EBE630
:10219000F0E080818064808382E080937C001092F4
:1021A0007B00EAE7F0E08EE88083808180648083B2
:1021B000089580917A00877F80937A0080917A00D9
:1021C000806480937A0080917A0084FFFCCF209114
:1021D000780030917900C90108951F920F920FB6CF
:1021E0000F9211242F933F934F935F936F937F939D
:1021F0008F939F93AF93BF93EF93FF9378948091C6
:1022000078009091790022E0803E920728F01092A9
:1022100079041092770473C022E08336920798F114
:102220008091770482FD6BC080E29EE40197F1F714
:102230000E94D910825692408E37910508F05FC0F7
:1022400082E080937A0412C00E94D9108256924094
:102250008E37910558F0809177048B7F80937704B7
:102260008091780484608093780449C080917A04D6
:10227000882351F78091770484608093770480915C
:10228000790484603AC08F509140E8F080917704DF
:1022900081FD10C080E29EE40197F1F70E94D91001
:1022A0008E5091408555914050F580917804826020
:1022B0008093780480917704826080937704809182
:1022C000790482601AC08091770480FD0EC080E29C
:1022D0009EE40197F1F70E94D9108F50914078F455
:1022E0008091780481608093780480917704816084
:1022F0008093770480917904816080937904809140
:102300007A00886480937A00FF91EF91BF91AF913A
:102310009F918F917F916F915F914F913F912F91FD
:102320000F900FBE0F901F9018951F920F920FB62F
:102330000F9211242F933F934F935F936F937F934B
:102340008F939F93AF93BF93EF93FF9378940E94E3
:102350005304FF91EF91BF91AF919F918F917F9126
:102360006F915F914F913F912F910F900FBE0F9002
:102370001F90189590916E0480917C04981739F005
:1023800081E080937B0480916E0480937C04809133
:102390006E04813059F1813030F08230C9F18330E0
:1023A00009F046C03DC08091E0048823C1F08091CF
:1023B0006B04882321F480916C04882381F0809140
:1023C0006C04882329F08091DC048093050504C007
:1023D00080916B04882361F18091D3041EC08091A9
:1023E000D204809305058091DB0417C08091DE0440
:1023F000882339F48091E404809305058091DA0400
:102400000CC08091DA04809305058091E40405C036
:1024100084E1809305058091D50480930605089595
:102420008091DF04809305058091D6048093060592
:10243000089589E18093E8048093FF0480E090E0B0
:10244000ACE7B2E48093FB049093FC04A093FD04FA
:10245000B093FE0480E090E0A8EFB1E48093EE0436
:102460009093EF04A093F004B093F10480E090E027
:10247000A0E8B0EC8093F2049093F304A093F404EA
:10248000B093F5048093EA049093EB04A093EC04DA
:10249000B093ED040895AF92CF92EF920F93A82FCF
:1024A000B0E0E02FF0E0CD01840F911D8E179F0763
:1024B000B4F0EC0DF11DEA17FB078CF070E04E2D27
:1024C00050E0CB01820F911D8417950744F080E006
:1024D0004A0D511D461757071CF081E001C080E0EE
:1024E0000F91EF90CF90AF9008952F923F924F921F
:1024F0005F926F927F928F929F92AF92BF92CF9294
:10250000DF92EF92FF920F931F93DF93CF93CDB79C
:10251000DEB761970FB6F894DEBF0FBECDBFEC8675
:10252000FD860E871F87998A888A2D833E834F8375
:102530005887AC01CB01DA013C014D01C501D60140
:102540005C016D011A8619869FC06D817E818F8125
:102550009885A60195010E9448291B012C01C40100
:10256000B3012C853D854E855F850E94482969838E
:102570007A838B839C83C201B10120E030E048E67E
:1025800052E40E941B2B18167CF4D7FAD094D7F88B
:10259000D0940F2EF0E02F2EF0E03F2EF8E64F2ED5
:1025A000F2E45F2EF02D18C0C201B10120E030E04E
:1025B00040E050E40E947B2B882374F4D7FAD09437
:1025C000D7F8D0940F2EF0E02F2EF0E03F2EF0E061
:1025D0004F2EF0E45F2EF02D69817A818B819C81F2
:1025E0000E94092C6B876F368CF0C801B70120E080
:1025F00030E046EE52E40E947B2B88233CF460E0FE
:1026000070E086EE92E4A801970113C0FB85FE30CE
:1026100054F5C401B30120E030E040E551E40E94EC
:102620001B2B181604F560E070E080E591E4A4012E
:1026300093010E9417292C853D854E855F850E9458
:102640006F2AA60195010E9475299B01AC016D813D
:102650007E818F8198850E9448290E949F27E88962
:10266000F989608307C0F985FF2321F48A858F5F8C
:102670008A8702C0E1E0E9872D823E824F82588638
:1026800069807A808B809C80C401B30120E030E0B7
:102690004CEE52E40E947B2B88239CF4C401B301CE
:1026A00020E030E040E850E40E9448297B018C01A2
:1026B00020E030E040E251E40E941B2B18160CF49D
:1026C00044CF6D817E818F8198850E949F27EEA1E6
:1026D000FFA160838A8561960FB6F894DEBF0FBEB6
:1026E000CDBFCF91DF911F910F91FF90EF90DF90C1
:1026F000CF90BF90AF909F908F907F906F905F90A2
:102700004F903F902F900895EF92FF920F931F9359
:102710000E94E22FAA2797FDA095BA2FBC01CD01F8
:102720000E94AB2B20E030E048E452E40E9475297F
:1027300020E03EEF4FEF56E40E946F2A20E030E0A9
:1027400040EA51E40E9448297B018C010E94E22F5B
:10275000892F990F990B64E070E00E940A2F9AE587
:10276000899FC0011124AA2797FDA095BA2FBC010B
:10277000CD010E94AB2B9B01AC01C801B7010E94A7
:10278000482926E53EE049E450E40E94752920E00E
:1027900030E044E353E40E946F2A1F910F91FF90B1
:1027A000EF9008957F928F929F92AF92BF92CF92B7
:1027B000DF92EF92FF920F931F93CF93DF93D82E68
:1027C000762EC22E50E0440F551F440F551F66E869
:1027D000E62E60E0F62EE40EF51E3AE8832E30E099
:1027E000932E840E951EF7018491172DC7E0D0E03B
:1027F000A82EBB24C5010C2E02C0959587950A947E
:10280000E2F780FF09C000E0CC2009F401E08D2D43
:10281000612F42E022E005C08D2D612F42E022E0D1
:102820000C2D0E943C2121971E5FFFEFCF3FDF0759
:1028300009F70894E11CF11C82E0D80EE814F904B1
:1028400091F6DF91CF911F910F91FF90EF90DF9064
:10285000CF90BF90AF909F908F907F9008950F93EF
:102860001F93082F10E08FE3612F0E94962400230E
:1028700011F080EF01C08FE00E943D241F5F1730F0
:1028800091F78FE367E00E949624002311F080E225
:1028900001C08FEC0E943D241F910F910895BF92BB
:1028A000CF92DF92EF92FF920F931F93D82E6091F9
:1028B000F7047091F8048091F9049091FA040E9451
:1028C0009F277B018C016091010570910205809129
:1028D0000305909104050E949F279B01AC018E2D5A
:1028E000622F44E024E00D2D0E943C21BB24DD201A
:1028F00011F4BB24B3946091FB047091FC048091AB
:10290000FD049091FE040E949F277B018C01609141
:10291000EE047091EF048091F0049091F1040E9414
:102920009F279B01AC018E2D622F44E024E00B2DEC
:102930000E943C21E0900105F09002050091030502
:10294000109104056091F7047091F8048091F904E6
:102950009091FA040E949F2770E06B33710564F038
:10296000613471054CF4C801B7010E949F2770E0E3
:10297000613471050CF4D8C06091E704262F30E073
:102980008091E804992787FD90952817390771F001
:102990008AE043E02CE00D2D0E943C218AE060910A
:1029A000E80443E02CE00B2D0E943C2160910005DF
:1029B000262F30E08091FF04992787FD90952817F6
:1029C000390771F083E743E02CE00D2D0E943C2194
:1029D00083E76091FF0443E02CE00B2D0E943C2133
:1029E000E0900105F09002050091030510910405A7
:1029F000C090FF046091F7047091F8048091F9048D
:102A00009091FA040E949F2770E06F367105ACF038
:102A10006737710594F4C801B7010E949F2770E0E1
:102A20002C2D30E0CB0104968217930734F0245FFD
:102A30003F4F261737070CF07BC010927000809133
:102A40007B04882311F010927B0481E08093700056
:102A50008091D4048823B9F480916E04882321F0F6
:102A600080916E04833079F48091050590E047965B
:102A70006CE070E00E940A2F01966AE070E00E940C
:102A80000A2F462F06C0809105056AE00E94EA2EB3
:102A9000482F8EE164E02D2D0E94D2138091D40442
:102AA0008823C9F480916E04882321F080916E04FC
:102AB000833089F48091050590E047966CE070E0E2
:102AC0000E940A2F01966AE070E00E940A2F482FA8
:102AD0008DE264E008C0809105056AE00E94EA2E5C
:102AE0008DE264E0492F2D2D0E94D21380910605BE
:102AF0006AE00E94EA2E482F86E464E02D2D0E94B1
:102B0000D213809106056AE00E94EA2E85E564E012
:102B1000492F2D2D0E94D2131F910F91FF90EF90FE
:102B2000DF90CF90BF9008958D2D0E942F1424CF59
:102B300083E76C2D43E02CE00B2D0E943C217DCFE0
:102B4000FF920F931F93F82E80E060E040E820E4AE
:102B50000F2D0E943C2110E0FF2009F411E080E0DD
:102B600060E040E822E0012F0E943C2180E06EE31B
:102B700040E822E00E943C218AE06091E80443E0C2
:102B80002CE00E943C2183E76091FF0443E02CE0AD
:102B90000E943C210E94BA118091D4048823B9F488
:102BA00080916E04882321F080916E04833079F443
:102BB0008091050590E047966CE070E00E940A2F36
:102BC00001966AE070E00E940A2F462F06C08091AD
:102BD00005056AE00E94EA2E482F8EE164E02F2D61
:102BE0000E94D2138091D4048823C9F480916E048A
:102BF000882321F080916E04833089F4809105054B
:102C000090E047966CE070E00E940A2F01966AE01F
:102C100070E00E940A2F482F8DE264E008C0809186
:102C200005056AE00E94EA2E8DE264E0492F2F2D0F
:102C30000E94D213809106056AE00E94EA2E482F76
:102C400086E464E02F2D0E94D213809106056AE08D
:102C50000E94EA2E85E564E0492F2F2D0E94D213B1
:102C60008F2D0E942F141F910F91FF9008952F9286
:102C70003F924F925F926F927F928F929F92AF920C
:102C8000BF92CF92DF92EF92FF920F931F93DF9349
:102C9000CF93CDB7DEB72E970FB6F894DEBF0FBE39
:102CA000CDBF6091FB047091FC048091FD04909174
:102CB000FE046093F7047093F8048093F9049093F2
:102CC000FA04E090EE04F090EF040091F00410910B
:102CD000F104E0920105F0920205009303051093C0
:102CE00004052091F2043091F3044091F4045091D2
:102CF000F5040E9448295B016C016093FB0470930A
:102D0000FC048093FD049093FE046090EA047090AC
:102D1000EB048090EC049090ED04C801B701A4018D
:102D200093010E9448296093EE047093EF0480930E
:102D3000F0049093F10420E030E048E652E40E9471
:102D40001B2B1816BCF480E090E0A8E6B2E4809358
:102D5000EE049093EF04A093F004B093F104D40137
:102D6000C301B0588093EA049093EB04A093EC0461
:102D7000B093ED046091EE047091EF048091F00443
:102D80009091F10420E030E040E050E40E947B2B81
:102D90008823ECF480E090E0A0E0B0E48093EE04BF
:102DA0009093EF04A093F004B093F1048091EA04AF
:102DB0009091EB04A091EC04B091ED04B058809395
:102DC000EA049093EB04A093EC04B093ED04C601E5
:102DD000B50120E030E048EF52E40E941B2B1816AA
:102DE0003CF0C601B5010E94092C16160CF464C013
:102DF00080E090E0ACE7B2E48093FB049093FC04A5
:102E0000A093FD04B093FE0480E090E0A8EFB1E44D
:102E10008093EE049093EF04A093F004B093F10438
:102E20000E9484137B018C010E94F22F20E030E08D
:102E300040EA50E40E9475296093F2047093F30411
:102E40008093F4049093F504C801B7010E945030B8
:102E500020E030E040EA50E40E9475296093EA04E3
:102E60007093EB048093EC049093ED0460918304E1
:102E700020918204261B8AE043E000E00E943C216E
:102E80006091870420918604261B83E743E00E941B
:102E90003C211092860410928704109282041092B2
:102EA000830481E080937B0410926C0480916C0415
:102EB00080936B040E94BA118091E8048E83809302
:102EC000E7049091FF049D83909300052090F20405
:102ED0003090F3044090F4045090F504C201B10125
:102EE00020E030E040E050E00E941B2B18160CF070
:102EF0003DC16091FB047091FC048091FD049091B0
:102F0000FE040E94092C6F360CF467C0E090F704B1
:102F1000F090F8040091F9041091FA04C801B70187
:102F20000E94092C60370CF058C0C801B70120E09E
:102F300030E040E850E40E9448299B01AC0160E089
:102F400070E086EE92E40E9417295B016C016090AC
:102F5000EA047090EB048090EC049090ED04C801BA
:102F6000B701A60195010E9448296F837887898758
:102F70009A87E0900105F0900205009103051091F9
:102F800004050E949F2770E06F36710534F16737A2
:102F900071051CF5C601B501A20191010E946F2ABD
:102FA000A40193010E9475299B01AC01C801B701DE
:102FB0000E9448297B018C010E949F2770E0AD810F
:102FC0002A2F30E0CB0104968217930734F0245F58
:102FD0003F4F261737070CF034C2E090F204F09010
:102FE000F3040091F4041091F504C801B70120E046
:102FF00030E040E050E00E941B2B18160CF003C29A
:103000006090FB047090FC048090FD049090FE049E
:10301000C401B30120E030E040E850E40E944829B8
:1030200020E030E046EE52E40E947B2B88230CF037
:10303000EAC180918704882309F062C000D0209102
:10304000EE043091EF044091F0045091F104A0900F
:10305000EA04B090EB04C090EC04D090ED0484E856
:1030600094E0EDB7FEB792838183C401B301F5E824
:103070008F2EF4E09F2E0E94751280937D04909114
:103080008504809184040F900F90891738F4809301
:1030900087049C5F90938604945005C090938704A6
:1030A0008C5F8093860480916C04882379F4892F47
:1030B000845080937F04992787FD90950E94E21F9A
:1030C0008EEA90E061E00E946E1F1FC0909187041D
:1030D000809186049F3090F0813320F09D50909332
:1030E0007F0413C00E94E22F80FF06C080918704F6
:1030F0008D5080937F0409C0809186048F5FF9CF43
:1031000080917D04815080937D043091FF04609113
:103110007F04832F861B482F552747FD509557FF67
:1031200003C0509541955F4F80917D0425E0820258
:10313000C00111240497481759070CF464C1842F67
:1031400036173CF4463014F03B5F01C0340F309327
:10315000FF049091FF0469170CF055C1863014F0FC
:10316000955001C0981B9093FF044DC18091FB04C2
:103170009091FC04A091FD04B091FE0489839A8390
:10318000AB83BC83BC01CD010E94092C6E300CF0D6
:103190007DC0E090F704F090F8040091F9041091DC
:1031A000FA04C801B7010E94092C6D300CF46EC0FE
:1031B00060E070E080E591E4A80197010E94172982
:1031C0005B016C016090EA047090EB048090EC0469
:1031D0009090ED04C801B701A60195010E9448290D
:1031E0006B877C878D879E87E0900105F0900205B4
:1031F00000910305109104050E949F2770E066303E
:1032000071050CF443C06E3071050CF03FC0C6016F
:10321000B501A20191010E946F2AA40193010E94AD
:1032200075299B01AC01C801B7010E9448297B01A7
:103230008C010E949F2770E09E81292F30E0CB01F6
:1032400004968217930714F1245F3F4F2617370720
:10325000ECF027C18B859C85AD85BE858093FB04F2
:103260009093FC04A093FD04B093FE04E092EE045E
:10327000F092EF040093F0041093F1041092820492
:103280001092830410927E0410928104E090F20464
:10329000F090F3040091F4041091F504C801B70113
:1032A00020E030E040E050E00E947B2B88230CF0CF
:1032B000AAC06090FB047090FC048090FD04909084
:1032C000FE04C401B30120E030E040E651E40E9476
:1032D0001B2B18160CF097C080918304882309F0EB
:1032E00057C000D02091EE043091EF044091F004DB
:1032F0005091F104A090EA04B090EB04C090EC046B
:10330000D090ED0480E894E0ADB7BEB712969C93E0
:103310008E931197C401B301E1E88E2EE4E09E2E56
:103320000E94751280937D049091810480918004A5
:103330000F900F90891738F4809383049C5F9093CB
:103340008204945005C0909383048C5F8093820420
:1033500080916B04882311F4945009C090918304E8
:10336000809182049F3080F0813320F09D509093B3
:103370007E0413C00E94E22F80FF04C0809183046A
:103380008D5003C0809182048F5F80937E0405C0BE
:1033900080917D04815080937D044091E804609188
:1033A0007E04242F332727FD3095862F992787FD0C
:1033B0009095281B390B37FF03C0309521953F4F5F
:1033C000522F80917D0425E08202C00111240497D0
:1033D000252F332727FD309528173907A4F04617E6
:1033E0003CF4563014F04B5F01C0450F4093E804A5
:1033F0008091E80468173CF4563014F0855001C001
:10340000851B8093E8048091E80483301CF483E0FA
:103410008093E8048091FF0483301CF483E0809360
:10342000FF048091E80482331CF081E38093E80478
:103430008091FF0482330CF449C081E38093FF0440
:1034400045C08F819885A985BA858093FB049093A8
:10345000FC04A093FD04B093FE04E092EE04F0920D
:10346000EF040093F0041093F104D201C101B058AD
:103470008093F2049093F304A093F404B093F504C2
:10348000109286041092870410927F041092850493
:10349000109282041092830410927E041092810490
:1034A0009CCDD201C101B0588093F2049093F304F3
:1034B000A093F404B093F50469817A818B819C8197
:1034C0000E949F276D3009F0C5CED8CE2E960FB63C
:1034D000F894DEBF0FBECDBFCF91DF911F910F914A
:1034E000FF90EF90DF90CF90BF90AF909F908F9024
:1034F0007F906F905F904F903F902F9008959C0128
:1035000060E971E00E94F62E892B11F481E00895A4
:10351000C90164E670E00E94F62E892B11F480E068
:10352000089580E023703070232B09F481E0089522
:103530004F925F926F927F928F929F92AF92BF92C3
:10354000CF92DF92EF92FF920F931F93CF93DF936F
:10355000382F562F942E522E402E8E2CE41620F00B
:10356000E41691F4281780F4852D642D482D232F1F
:10357000052FE92C0E94981A22273327A901261B20
:10358000370B480B590BDEC0351569F4981409F058
:1035900053C0842D90E0851B91099C01442737FD81
:1035A0004095542FCFC0981409F046C0C32FD0E0E7
:1035B000FE01E854FD4FE4918E2F90E0851B9109A8
:1035C0007C010027F7FC0095102F323041F4892D43
:1035D00090E00E947F1AE80EF11C011D111D99EB6D
:1035E000A92E92E0B92EAC0EBD1ECC24DD243E01E6
:1035F0000894611C711CC52DD0E017C0F5018491A1
:10360000E80EF11C011D111D2230310541F4892DF8
:1036100090E00E947F1AE80EF11C011D111D089414
:10362000C11CD11C0894A11CB11C93012C0D3D1D83
:103630002C173D071CF380C0C32FD0E0FE01E854D7
:10364000FD4FE4918E2F90E0851B91097C010027AE
:10365000F7FC0095102F323041F4892D90E00E9444
:103660007F1AE80EF11C011D111D89EBA82E82E0C6
:10367000B82EAC0EBD1ECC24DD24219617C0F5015A
:103680008491E80EF11C011D111D2230310541F419
:10369000892D90E00E947F1AE80EF11C011D111D7A
:1036A0000894C11CD11C0894A11CB11C9E012C0DB6
:1036B0003D1D2D3031051CF3892D90E06C010894DF
:1036C000C11CD11CC0E0D0E03C01A82CBB2411C01F
:1036D000C6010E947F1A90E083599E4FAA2797FD4A
:1036E000A095BA2FE80EF91E0A1F1B1F0894C11CD3
:1036F000D11C2196CE01860D971D8A159B0544F39A
:10370000C1E0D0E0C52CDD2414C0FE01E854FD4F1B
:10371000E491EE0EF11C011D111DC230D10541F4E2
:10372000882D90E00E947F1AE80EF11C011D111DEA
:103730002196CC15DD054CF3A8019701240D311D10
:10374000411D511DB901CA01DF91CF911F910F9108
:10375000FF90EF90DF90CF90BF90AF909F908F90B1
:103760007F906F905F904F900895EF92FF920F932C
:103770001F937B01882341F4BA0180E090E02FEB96
:1037800032E040E050E009C0813011F5BA0180E03C
:1037900090E020E137E240E050E00E94CB2E00E0D4
:1037A00010E0A80197010E941D2FCA01B901A801CC
:1037B00097010E941D2FC901DA018F3F9105A105D4
:1037C000B10539F030F08FEF90E0A0E0B0E001C03B
:1037D000842F1F910F91FF90EF9008952F923F92A9
:1037E0004F925F926F927F928F929F92AF92BF9211
:1037F000CF92DF92EF92FF920F931F93CF93DF93BD
:10380000EC01288039804A805B806C807D808E80CE
:103810009F80AA24BB246501F501E370F070EE0FD0
:10382000FF1FEE0FFF1FE25BFC4FE080F180028183
:103830001381EA0CFB1C0C1D1D1DD401C30175E096
:10384000B695A795979587957A95D1F7A401930199
:1038500064E0220F331F441F551F6A95D1F782275A
:103860009327A427B527860D971DA81DB91DE82607
:10387000F9260A271B272E0C3F1C401E511E89EBE0
:1038800099E7A7E3BEE9A80EB91ECA1EDB1EA20176
:103890009101F5E05695479537952795FA95D1F71B
:1038A000D201C101E4E0880F991FAA1FBB1FEA954E
:1038B000D1F7282739274A275B27220D331D441DBE
:1038C000551DD601C5017BE0B695A79597958795BF
:1038D0007A95D1F783709070880F991F880F991F80
:1038E000825B9C4FFC0180819181A281B3818A0D12
:1038F0009B1DAC1DBD1D282739274A275B27620E5B
:10390000731E841E951EF0E2AF16F7E3BF06FFEEAE
:10391000CF06F6ECDF0609F07FCF288239824A8293
:103920005B826C827D828E829F82DF91CF911F911C
:103930000F91FF90EF90DF90CF90BF90AF909F904E
:103940008F907F906F905F904F903F902F90089551
:103950008F92AF92BF92CF92DF92EF92FF920F932E
:103960001F93DF93CF93CDB7DEB728970FB6F894A8
:10397000DEBF0FBECDBFE82FF42F722FBC2C8A2DD7
:103980008150823008F040C030E040E050E03961C2
:10399000802F90E0A0E0B0E0B82FAA2799278827D1
:1039A000282B392B4A2B5B2B8E2D90E0A0E0B0E02A
:1039B000DC0199278827282B392B4A2B5B2B29835D
:1039C0003A834B835C832F8930E040E050E0542FF2
:1039D000432F322F2227888D90E0A0E0B0E0282BE3
:1039E000392B4A2B5B2B426B898D90E0A0E0B0E035
:1039F000B82FAA2799278827282B392B4A2B5B2BEE
:103A00002D833E834F8358878E2F4F2F272F0E9461
:103A1000981A2AE030E040E050E00E94CB2E7B0173
:103A20008C0125E43EE040E050E00E941D2F69013A
:103A3000BB2029F026E33BE644E050E004C02AE83E
:103A40003CE144E050E0BA01A9014E195F09600B66
:103A5000710B882D90E08E3291051CF08DE290E084
:103A600005C08831910514F488E190E08C0108517B
:103A7000104083E0A81609F0A5C0BB2009F04BC098
:103A8000475E5F40624070409E89913051F5A1EAE7
:103A9000B2E020E030E0FD0185919491C816D9068E
:103AA000D0F4F901EE0FFF1FEE0FFF1FED55FD4F94
:103AB00025913491C901E3E0880F991FEA95E1F758
:103AC000220F331F820F931FA0E0B0E0481B590B59
:103AD0006A0B7B0B06C02F5F3F4F149623303105D6
:103AE000D1F6EAEDF1E0849190E0C816D9061CF415
:103AF00080E090E009C07796849190E0C816D906DE
:103B00000CF08CC187E190E0080F191F05521E4F81
:103B1000F80184913FC0445B5A4362407040ADEA73
:103B2000B2E020E030E0FD0185919491C816D906FD
:103B3000D0F4F901EE0FFF1FEE0FFF1FE155FD4F0F
:103B400025913491C901E3E0880F991FEA95E1F7C7
:103B5000220F331F820F931FA0E0B0E0481B590BC8
:103B60006A0B7B0B06C02F5F3F4F14962330310545
:103B7000D1F620E030E0F901E85FFD4FE4918E2FAF
:103B800090E0C816D906C4F4020F131F075F1D4F3B
:103B9000F801849190E025E43EE0DC01A29FC001A1
:103BA000A39F900DB29F900D1124A0E0B0E0481BA0
:103BB000590B6A0B7B0B32C1295E3F4F253431050F
:103BC000D1F62CC1BB2009F045C0BE89B13051F5FA
:103BD000ADE4B2E020E030E0FD0185919491C8169B
:103BE000D906D0F4F901EE0FFF1FEE0FFF1FE15BC6
:103BF000FD4F25913491C901E3E0880F991FEA95A3
:103C0000E1F7220F331F820F931FA0E0B0E0481BA3
:103C1000590B6A0B7B0B06C02F5F3F4F14962B305E
:103C20003105D1F620E030E0F901E155FF4FE49194
:103C30008E2F90E0C816D9063CF4020F131F0055D2
:103C40001F4FF801849144C0295E3F4F2A38310547
:103C500059F755C0BE89B13051F5A9E7B2E020E06F
:103C600030E0FD0185919491C816D906D0F4F90190
:103C7000EE0FFF1FEE0FFF1FE558FD4F259134910A
:103C8000C901F3E0880F991FFA95E1F7220F331F5E
:103C9000820F931FA0E0B0E0481B590B6A0B7B0B0F
:103CA00006C02F5F3F4F14962A303105D1F620E031
:103CB00030E0F901E75CFE4FE4918E2F90E0C816EA
:103CC000D906C4F4020F131F065C1E4FF80184913D
:103CD00090E025E43EE0DC01A29FC001A39F900D8F
:103CE000B29F900D1124A0E0B0E0481B590B6A0B65
:103CF0007B0B05C0295E3F4F213A3105D1F6B2E07A
:103D0000AB1609F042C08DEAE82E8EE8F82E012DA0
:103D1000112DE40EF51E061F171F89819A81AB81B4
:103D2000BC818E259F25A027B12789839A83AB83E9
:103D3000BC83CE0101960E94EE1B69817A818B8142
:103D40009C817F778070907028EE33E040E050E0F7
:103D50000E94CB2E2FEF3FE740E050E00E941D2F46
:103D6000CA01B90126E036ED40E050E00E94CB2EBA
:103D700028EE33E040E050E00E941D2FBA01A90177
:103D80004E0D5F1D601F711F49C0E1E0AE1609F0C6
:103D900045C0BCEFEB2EB9E2FB2EBFEF0B2FBFEF00
:103DA0001B2FE40EF51E061F171F8D819E81AF810C
:103DB000B8858E259F25A027B1278D839E83AF834D
:103DC000B887CE0101960E94EE1B6D817E818F81A6
:103DD00098857F778070907028EE33E040E050E067
:103DE0000E94CB2E2FEF3FE740E050E00E941D2FB6
:103DF000CA01B90122EB3EE840E050E00E94CB2E20
:103E000028EE33E040E050E00E941D2FD801C701AA
:103E1000821B930BA40BB50BAC01BD0177FF05C052
:103E200020E030E040E050E00AC0CB01BA0120E9D8
:103E300030E040E050E00E94CB2E9B01AC01B90184
:103E4000CA0128960FB6F894DEBF0FBECDBFCF9142
:103E5000DF911F910F91FF90EF90DF90CF90BF9077
:103E6000AF908F9008959093C5008093C40088E12F
:103E70008093C1008EE08093C200519A50980895BB
:103E800006C090E000009F5F9E31E1F781508823DB
:103E9000C1F7089548EC50E009C020E137E2FA018B
:103EA0003197F1F721503040D1F781508823A9F79D
:103EB0000895982F8091C00085FFFCCF9093C60095
:103EC00080E090E008958091C00087FFFCCF809152
:103ED000C60008958091C00080780895AC0120E06C
:103EE00007C08091C00085FFFCCF3093C6002F5FD4
:103EF000FA01E20FF11D3491332399F7662371F033
:103F00008091C00085FFFCCF8AE08093C60080913D
:103F1000C00085FFFCCF8DE08093C6000895FC01B2
:103F200007C08091C00085FFFCCF31969093C600FA
:103F300090819923B1F70895282F982F92959F701B
:103F40009A3030F48091C00085FFFCCF905D05C0B1
:103F50008091C00085FFFCCF995A9093C600822FB4
:103F600090E08F7090700A973CF48091C00085FFBC
:103F7000FCCF2F70205D06C08091C00085FFFCCF74
:103F80002F70295A2093C60008951F93182F892F48
:103F90000E949C1F812F0E949C1F1F910895EF92E9
:103FA000FF920F931F937B018C01C801AA27BB27A7
:103FB0000E94C51FC7010E94C51F1F910F91FF904E
:103FC000EF9008950F931F93CF93DF938C01E0E15F
:103FD000F7E240E0C0E0D0E0C801BF010E94F62E49
:103FE000262F662329F4442319F4E130F10549F41E
:103FF0008091C00085FFFCCF205D2093C600205338
:1040000041E0CF016AE070E00E94F62E2196C530B3
:10401000D10571F0822F90E09C012E9FC0012F9F4F
:10402000900D3E9F900D1124081B190BFB01D4CF5E
:10403000DF91CF911F910F9108951F93CF93DF933D
:10404000482F87FF08C08091C00085FFFCCF8DE21C
:104050008093C6004195E4E6F0E010E0C0E0D0E0D7
:10406000842F992787FD9095BF010E94F62E262F59
:1040700016162CF0112319F4E130F10549F4809162
:10408000C00085FFFCCF205D2093C600205311E0C7
:10409000CF016AE070E00E94F62E2196C330D10570
:1040A00031F02E9F802D1124481BFB01D9CFDF91C9
:1040B000CF911F9108954F925F926F927F928F924E
:1040C0009F92AF92BF92CF92DF92EF92FF920F93A7
:1040D0001F93CF93DF934B015C01E12C9AECF92EF7
:1040E0009AE9092F9BE3192F4424C0E0D0E0C501D1
:1040F000B401A80197010E941D2FD22E222341F462
:10410000442031F481E0E816F1040105110561F461
:104110008091C00085FFFCCF80E3D80ED092C6000E
:1041200080EDD80E44244394C801B7012AE030E062
:1041300040E050E00E941D2FC22E732E642E552E9B
:104140002196CA30D105A9F06D2D70E080E090E095
:10415000A80197010E94CB2E861A970AA80AB90ACD
:104160002C2D372D462D552DC901DA017C018D01ED
:10417000BECFDF91CF911F910F91FF90EF90DF9015
:10418000CF90BF90AF909F908F907F906F905F90F7
:104190004F90089508950F931F93CF93DF93482F67
:1041A00030E020E006C08B539D4FFC018491280F26
:1041B0003F5F822F90E03417B0F3FC01EB53FD4FCB
:1041C0000491EC01CA53DD4F10E006C0FE0184915A
:1041D0000E943D241F5F21961017C0F3DF91CF91FD
:1041E0001F910F910895DF92EF92FF920F931F930B
:1041F000CF93DF93D62E95E0899FC0011124EC0167
:10420000C85CDD4F8E012DE3E22E22E0F22EE80E97
:10421000F91EDD2021F0FE018491809502C0F80195
:1042200084910E943D2421960F5F1F4FCE15DF051C
:1042300081F7DD2011F08FEF01C080E00E943D2466
:1042400080E00E948924DF91CF911F910F91FF9010
:10425000EF90DF9008951F93CF93DF93EC01162F1B
:1042600004C0612F0E94F320219688818823C9F71A
:10427000DF91CF911F9108952F923F924F925F92BD
:104280006F927F928F929F92AF92BF92CF92DF9266
:10429000EF92FF920F931F93CF93DF93282E162F49
:1042A000342EF22E402EC62FD0E0C770D07020974B
:1042B00009F45BC0562E569456945694EE2467E04B
:1042C000C62EC1228C2C992487FC90945E01A20EEC
:1042D000B11C51E0652E712C35C0DE2CD20C8D2D19
:1042E000652D0E9496240E94F0230E94F023082F3F
:1042F00040E050E015C081E0481641F4C30102C01F
:10430000880F991F2A95E2F7082B08C0C30102C045
:10431000880F991F2A95E2F7809508234F5F5F4F1A
:104320009A01280D391D2A153B0524F48C2D840F84
:10433000883009F78D2D652D0E949624802F0E94CC
:104340003D24E394E31448F22F2D30E088E090E020
:104350008C1B9D0B8217930714F0FF2404C0812F40
:1043600087708850F80E187F185FE12EE694E69467
:10437000E694C12FD0E0CF0DD11D43E0D595C79570
:104380004A95E1F712C0822D6E2D0E94962410E00E
:1043900009C081E0481611F48FEF01C080E00E944F
:1043A0003D241F5F1315A8F3E3948E2D90E08C1726
:1043B0009D074CF32F2D2770C9F100E0C22FD0E0EC
:1043C00031E0A32EB12C30C0F02EF20C8F2D6E2DCB
:1043D0000E9496240E94F0230E94F023182F20E0D0
:1043E00030E017C081E0481649F4C501022E02C032
:1043F000880F991F0A94E2F7182B09C0C501022EF5
:1044000002C0880F991F0A94E2F7809518232F5F46
:104410003F4F2C173D0734F38F2D6E2D0E949624AD
:10442000812F0E943D240F5F031570F280E00E94EF
:104430008924DF91CF911F910F91FF90EF90DF9032
:10444000CF90BF90AF909F908F907F906F905F9034
:104450004F903F902F900895DF92EF92FF920F932D
:104460001F93F82E162FD42EE22E41E001E00E9479
:104470003C218F2D81508D0D612F41E02E2D0E940A
:104480003C218F2D612F4D2D21E00E943C211150A8
:104490001E0D8F2D612F4D2D21E00E943C211F917B
:1044A0000F91FF90EF90DF900895EF92FF920F939E
:1044B0001F93F82E162F062F069506950695602F4A
:1044C0000E9496240E94F0230E94F023E82E8F2D54
:1044D000602F0E949624177081E090E002C0880F40
:1044E000991F1A95E2F780958E210E943D2480E065
:1044F0000E9489241F910F91FF90EF900895EF92F1
:10450000FF920F931F93F82E162F062F06950695F0
:104510000695602F0E9496240E94F0230E94F023AB
:10452000E82E8F2D602F0E949624177081E090E076
:1045300002C0880F991F1A95E2F78E290E943D2428
:1045400080E00E9489241F910F91FF90EF900895C1
:104550003F924F925F926F927F928F929F92AF9213
:10456000BF92CF92DF92EF92FF920F931F93CF9360
:10457000DF93D82EC62E322E462E481AE42EFF2464
:10458000C701880F991FCC27DD27C81BD90B23969D
:104590005D2C662E762EAA24BB248824992481E0E3
:1045A000381641F50E2D0C0D8D2D602F0E947F22A7
:1045B0009C2D9E19192F8D2D692F0E947F22852DEC
:1045C000602F0E947F22852D612F0E947F22041977
:1045D000802F662D0E947F22802F672D0E947F22D0
:1045E0001419812F662D0E947F22812F672D0E9432
:1045F0007F2227C00E2D0C0D8D2D602F0E9455227D
:104600008C2D8E19182F8D2D612F0E945522852DEE
:10461000602F0E945522852D612F0E94552204197A
:10462000802F662D0E945522802F672D0E945522D3
:104630001419812F662D0E945522812F672D0E940B
:104640005522D7FF04C02696C80DD91D0DC02A9645
:10465000C5018E199F09880F991F880F991FC80FD0
:10466000D91F0894E108F1080894A11CB11C84E04A
:1046700090E0880E991ED3945A9463947A94EA1425
:10468000FB040CF08CCFDF91CF911F910F91FF9025
:10469000EF90DF90CF90BF90AF909F908F907F90E2
:1046A0006F905F904F903F9008952F982D982C9881
:1046B00040985A98279A259A249A389A529A8BB1F8
:1046C0008F708BB985B1807F85B98AB1806F8AB9C7
:1046D00084B18F6084B9089540985A98882319F05E
:1046E000813021F402C0409A08955A9A0895F894AE
:1046F0000E946C238BB1806F8BB985B18F6085B9B7
:104700002F988AB18F708AB984B1807F84B92D9A2D
:104710002C9A000000000AC02C9800000000000045
:1047200000002C9A000000000000000089B193B145
:1047300087FDF2CF2C982D988AB1806F8AB984B109
:104740008F6084B9789408951F93162FF8940E946F
:1047500077232F982D982C9A8AB1806F8AB984B1CB
:104760008F6084B98BB18F708BB99BB1812F807FA3
:10477000892B8BB985B1807F85B985B11F70812B5D
:1047800085B90000000000000000000000000000EB
:1047900000002C9878941F910895F8940E94772334
:1047A0002F988AB18F708AB984B1807F84B92D9A8D
:1047B0002C9A000000000000000000000000000033
:1047C000000029B183B12C982D989AB1906F9AB9B5
:1047D00094B19F6094B978948F70207F822B089554
:1047E000F8948091070582958695869583700E943E
:1047F00077232F9A8AB18F708AB984B1807F84B968
:104800002D9A2C9A0000000000000000000000001B
:104810000000000099B183B12C982D9878948F7086
:10482000907F892B089508958093070580E060E4C8
:104830000E94A4231092090581E060E40E94A42351
:1048400010920B0580910705682F6F736064829545
:104850008695869583700E94A42308951F93182F30
:1048600080930805186B80E0612F0E94A42381E0EB
:10487000612F0E94A4231F9108950F931F93182F57
:10488000009107050295069506950370F894802F10
:104890000E9477232F9A2D982C9A8AB1806F8AB91B
:1048A00084B18F6084B98BB18F708BB99BB1812F2C
:1048B000807F892B8BB985B1807F85B985B11F70C9
:1048C000812B85B9000000000000000000000000FE
:1048D000000000002C987894E02FF0E0EE0FFF1F0E
:1048E000E75FFA4F80818F5F8083809107058F5F3C
:1048F0008093070587FF0AC0809108058F5F80932A
:1049000008050E942E2480E00E9414241F910F911C
:1049100008951F93182F106C80E0612F0E94A4232C
:1049200081E0612F0E94A4231F9108951F93182FE7
:10493000862F0E942E24812F0E9414241F910895F7
:104940000F931F9300E080E0602F0E94962410E0F8
:1049500080E00E943D241F5F1038D1F70F5F0830C0
:1049600091F71F910F91089580E00E94892480E0C3
:1049700060E00E9496241092090510920A05109298
:104980000B0510920C0508950E94552380E06FE3FB
:104990000E94A42381E06FE30E94A4230E94A0242C
:1049A0000E94B4240895982F86E0689F802D1124DA
:1049B000692F0E94962408950895459A449A10926A
:1049C000CF041092CE041092D1041092D00480E251
:1049D0008093B800ECEBF0E08081846080831092DB
:1049E0008804808181608083808180648083789462
:1049F000089580E28093B800089590E0611191E0FD
:104A00008E7F982B9093BA0008959093CF04809353
:104A1000CE0408959093D1048093D0040895ECEBD4
:104A2000F0E080818F70806A80830895ECEBF0E085
:104A300080818F70806D808308958091BC0087FF96
:104A4000FCCF08958093BB00ECEBF0E080818F7089
:104A5000806880830895882329F08091BC008F703E
:104A6000806C04C08091BC008F7080688093BC0013
:104A700008958091BB0008958091B9000895982F02
:104A8000809188048823E1F782E0809388049E7FE8
:104A900090938904AAE8B4E0FA0102C081918D9351
:104AA0008E2F841B8617D0F31092AA046093AB0458
:104AB0008091BC008F70806A8093BC000895982F0D
:104AC000809188048823E1F783E0809388049160D3
:104AD000909389041092CC046093CD048091BC0023
:104AE0008F70806A8093BC00809188048823E1F7EE
:104AF000ACEAB4E0FA0102C08D9181938E2F841B41
:104B00008617D0F30895982FFA018091BC008E7F0C
:104B10008093BC008091BC008F70806A8093BC0041
:104B20008091BC0087FFFCCF9E7F9093BB0080915B
:104B3000BC008F7080688093BC008091BC0087FFB0
:104B4000FCCF8091B900883189F091E012C080815A
:104B50008093BB008091BC008F7080688093BC0004
:104B60008091BC0087FFFCCF31966150662379F7B6
:104B700090E08091BC008F70806D8093BC0080912C
:104B8000BC0084FFFCCF8091BC0081608093BC009E
:104B9000892F08951F93CF93DF93982F162FEA0143
:104BA0008091BC008E7F8093BC008091BC008F7090
:104BB000806A8093BC008091BC0087FFFCCF91602D
:104BC0009093BB008091BC008F7080688093BC0084
:104BD0008091BC0087FFFCCF8091B900803469F0E0
:104BE00091E018C08FEF0E942B258091BC0087FFB9
:104BF000FCCF8091BB0089931150123098F780E070
:104C00000E942B258091BC0087FFFCCF8091BB00C8
:104C1000888390E08091BC008F70806D8093BC0091
:104C20008091BC0081608093BC00892FDF91CF917F
:104C30001F9108958091880408951F920F920FB6D6
:104C40000F9211242F933F934F935F936F937F9312
:104C50008F939F93AF93BF93EF93FF938091B9008E
:104C6000887F883609F4CBC0893688F5803309F40B
:104C700095C08133B0F4803109F45AC0813138F4E1
:104C8000882309F43EC1883009F048C151C0803200
:104C900009F484C0883209F453C0883109F03EC158
:104CA0004FC0883409F47AC0893438F4883309F461
:104CB00078C0803409F032C192C0883509F45DC0F3
:104CC000803609F49CC0803509F028C174C0803A50
:104CD00009F4BEC0813AB0F4803809F49BC0813831
:104CE00038F4803709F48BC0883709F017C187C0C2
:104CF000803909F48FC0883909F4A1C0883809F0D7
:104D00000DC19DC0883B09F4D1C0893B38F4883A75
:104D100009F4B6C0803B09F001C1B2C0883C09F477
:104D2000E0C0883F09F4E7C0803C09F0F7C0D9C073
:104D300085E096E060E00E946E1F8091890414C0B7
:104D400086EE95E060E00E946E1F9091AA0480912B
:104D5000AB04981708F0DAC0E92FF0E0E657FB4FF4
:104D600080819F5F9093AA048093BB008091BC00D8
:104D70008F7080688093BC00D1C081ED95E060E0C9
:104D80000E946E1F8091CC049091BB00E82FF0E050
:104D9000E455FB4F90838F5F8093CC048BEA95E0C2
:104DA000B2C087E995E060E00E946E1F8091BC0070
:104DB0008F708068AFC083E895E060E00E946E1F4E
:104DC0008091BB009091CC04E92FF0E0E455FB4FBB
:104DD00080839F5F9093CC0490E00E94C51F80E782
:104DE00095E060E00E946E1F2091CC0430E080913D
:104DF000CD0490E001972817390734F51EC08DE5E2
:104E000095E060E00E946E1F85E080938804109218
:104E1000CC0462C089E495E060E00E946E1F80913E
:104E2000CC049091BB00E82FF0E0E455FB4F908359
:104E30008F5F8093CC04803238F48FEF06C084E318
:104E400095E060E00E946E1F80E00E942B2566C006
:104E500081E295E060E00E946E1F8091BC008F703F
:104E6000806C8093BC00E091CE04F091CF04309729
:104E700009F452C08091CC046CEA74E009954CC0EE
:104E80008EE095E060E00E946E1F84E080938804CD
:104E9000E091D004F091D104309731F080E26AE8DB
:104EA00074E009958093AB041092AA048AEF94E011
:104EB00060E00E946E1F9091AA04E92FF0E0E6578F
:104EC000FB4F80818093BB009F5F9093AA048091E9
:104ED000AB04981708F04ACF8091BC008F70806CAB
:104EE00049CF88ED94E060E00E946E1F8091BC0085
:104EF0008F70806C0FC089EC94E060E00E946E1FA0
:104F00000DC088EB94E060E00E946E1F8091BC00B1
:104F10008F70806D8093BC0010928804FF91EF9198
:104F2000BF91AF919F918F917F916F915F914F91C1
:104F30003F912F910F900FBE0F901F901895EF92F9
:104F4000FF920F931F937B018C0120E030E040E043
:104F50005FE40E944B2B88238CF0C801B70120E04E
:104F600030E040E05FE40E9417290E94092C9B0179
:104F7000AC01205030404040504806C0C801B70145
:104F80000E94092C9B01AC01B901CA011F910F912C
:104F9000FF90EF900895A0E0B0E0E1EDF7E20C940F
:104FA0005A2FDC012B01FA019C91923008F439C18F
:104FB000EB018881823008F433C1943069F4843085
:104FC00009F02FC111969C9111978981981709F4C6
:104FD00028C1AEE5B3E025C1843009F421C1823097
:104FE000A9F4923009F01DC19A01AD0188E0EA01EF
:104FF0000990AE01E90109929E018150C1F7E201D9
:10500000898111969C918923818308C1923009F48A
:1050100007C112962D903C901397EB018A819B81DA
:105020001496AD90BD90CD90DC901797EC80FD80EC
:105030000E811F819101281B390BB90137FF04C074
:1050400066277727621B730B603271050CF061C015
:10505000121613066CF537014801062E04C096940B
:105060008794779467940A94D2F721E030E040E087
:1050700050E004C0220F331F441F551F6A95D2F71A
:1050800021503040404050402E213F2140235123A9
:10509000211531054105510521F021E030E040E0C6
:1050A00050E079018A01E628F728082919293CC02F
:1050B000232BD1F1260E371E35014601062E04C0E2
:1050C00096948794779467940A94D2F721E030E01D
:1050D00040E050E004C0220F331F441F551F6A9563
:1050E000D2F721503040404050402A213B214C21F2
:1050F0005D21211531054105510521F021E030E008
:1051000040E050E059016A01A628B728C828D928EC
:105110000BC0821593052CF01C01AA24BB24650149
:1051200003C0EE24FF24870111969C91D2011196B1
:105130008C91981709F445C0992339F0A80197017B
:105140002A193B094C095D0906C0A60195012E19D3
:105150003F09400B510B57FD08C011823382228258
:1051600024833583468357831DC081E08183338246
:10517000228288279927DC01821B930BA40BB50B95
:1051800084839583A683B7830DC0220F331F441FEA
:10519000551F2483358346835783828193810197EA
:1051A000938382832481358146815781DA01C90145
:1051B0000197A109B1098F5F9F4FAF4FBF4328F3FC
:1051C0000BC0918333822282EA0CFB1C0C1D1D1D37
:1051D000E482F5820683178383E08083248135810E
:1051E0004681578157FF1AC0C901AA2797FDA0958C
:1051F000BA2F81709070A070B07056954795379512
:105200002795822B932BA42BB52B84839583A68380
:10521000B78382819381019693838283DF0101C0EA
:10522000D201CD01CDB7DEB7E2E10C94762FA0E23A
:10523000B0E0EDE1F9E20C94662F69837A838B8309
:105240009C832D833E834F835887E9E0EE2EF12C1B
:10525000EC0EFD1ECE010196B7010E94FA2D8E01C3
:105260000F5E1F4FCE010596B8010E94FA2D8A8964
:1052700091E089278A8BC701B801AE01475E5F4F75
:105280000E94CB270E94252DA096E6E00C94822F49
:10529000A0E2B0E0EEE4F9E20C94662F69837A8331
:1052A0008B839C832D833E834F835887F9E0EF2EB9
:1052B000F12CEC0EFD1ECE010196B7010E94FA2DD5
:1052C0008E010F5E1F4FCE010596B8010E94FA2D88
:1052D000C701B801AE01475E5F4F0E94CB270E9415
:1052E000252DA096E6E00C94822FA0E2B0E0EBE73B
:1052F000F9E20C945A2F69837A838B839C832D83E4
:105300003E834F835887CE010196BE01675F7F4F72
:105310000E94FA2DCE010596BE016F5E7F4F0E945E
:10532000FA2D9985923088F089898230C8F09430BE
:1053300019F4823051F404C0843029F4923081F49D
:105340008EE593E0C6C0923049F420E09A858A89C0
:10535000981321E02A87CE010996BBC0823049F418
:1053600020E09A858A89981321E02A8BCE01419604
:10537000B0C02D843E844F8458886D887E888F8885
:10538000988CEE24FF248701AA24BB24650140E009
:1053900050E060E070E0E0E0F0E0C101817090700A
:1053A000892BE9F0E60CF71C081D191D9A01AB01C9
:1053B0002A0D3B1D4C1D5D1D80E090E0A0E0B0E09B
:1053C000E614F7040805190520F481E090E0A0E058
:1053D000B0E0BA01A901480F591F6A1F7B1FAA0C30
:1053E000BB1CCC1CDD1C97FE08C081E090E0A0E057
:1053F000B0E0A82AB92ACA2ADB2A3196E032F105A0
:1054000049F0660C771C881C991C56944794379475
:105410002794C3CFFA85EA892B893C898B859C85A3
:10542000280F391F2E5F3F4F17C0CA01817090703F
:10543000892B61F016950795F794E79480E090E04A
:10544000A0E0B0E8E82AF92A0A2B1B2B769567958D
:10545000579547952F5F3F4F77FDE7CF0CC0440F1F
:10546000551F661F771F17FD4160EE0CFF1C001FC4
:10547000111F21503040403090E0590790E06907FB
:1054800090E4790760F32B8F3C8FDB01CA018F77A3
:105490009070A070B07080349105A105B10561F4E1
:1054A00047FD0AC0E114F1040105110529F0405C33
:1054B0005F4F6F4F7F4F40781A8EFE1711F081E0DB
:1054C0008A8F4D8F5E8F6F8F78A383E0898FCE0197
:1054D00049960E94252DA096E2E10C94762FA8E132
:1054E000B0E0E5E7FAE20C94622F69837A838B835C
:1054F0009C832D833E834F835887B9E0EB2EF12C9C
:10550000EC0EFD1ECE010196B7010E94FA2D8E0110
:105510000F5E1F4FCE010596B8010E94FA2D298516
:10552000223008F47EC03989323010F4B8017CC0D2
:105530008A859A8989278A87243011F0223031F4AC
:10554000231709F06EC06EE573E06EC0343039F495
:105550001D861E861F86188A1C861B8604C0323054
:1055600021F484E08987B7015FC02B853C858B8956
:105570009C89281B390B3C872B87ED84FE840F8583
:105580001889AD88BE88CF88D88CEA14FB040C0536
:105590001D0540F4EE0CFF1C001F111F2150304070
:1055A0003C872B8720E030E040E050E080E090E056
:1055B000A0E0B0E460E070E0EA14FB040C051D0517
:1055C00040F0282B392B4A2B5B2BEA18FB080C09DF
:1055D0001D09B695A79597958795EE0CFF1C001FA2
:1055E000111F6F5F7F4F6F31710531F7DA01C9010C
:1055F0008F779070A070B07080349105A105B105CF
:1056000061F427FD0AC0E114F1040105110529F038
:10561000205C3F4F4F4F5F4F20782D873E874F874D
:10562000588BBE01675F7F4FCB010E94252D689686
:10563000EAE00C947E2FA8E1B0E0E1E2FBE20C94FA
:10564000662F69837A838B839C832D833E834F836C
:10565000588789E0E82EF12CEC0EFD1ECE01019654
:10566000B7010E94FA2D8E010F5E1F4FCE010596E5
:10567000B8010E94FA2D8985823040F089898230F4
:1056800028F0C701B8010E94722E01C08FEF689602
:10569000E6E00C94822FA8E1B0E0E1E5FBE20C9497
:1056A000662F69837A838B839C832D833E834F830C
:1056B000588789E0E82EF12CEC0EFD1ECE010196F4
:1056C000B7010E94FA2D8E010F5E1F4FCE01059685
:1056D000B8010E94FA2D8985823040F08989823094
:1056E00028F0C701B8010E94722E01C08FEF6896A2
:1056F000E6E00C94822FA8E1B0E0E1E8FBE20C9434
:10570000662F69837A838B839C832D833E834F83AB
:10571000588789E0E82EF12CEC0EFD1ECE01019693
:10572000B7010E94FA2D8E010F5E1F4FCE01059624
:10573000B8010E94FA2D8985823040F08989823033
:1057400028F0C701B8010E94722E01C081E068965E
:10575000E6E00C94822FA8E0B0E0E1EBFBE20C94D1
:10576000632F9B01AC0183E08983DA01C90188279B
:10577000B7FD83959927AA27BB27B82E2115310598
:105780004105510519F482E089833AC08823A9F0C4
:10579000203080E0380780E0480780E8580729F487
:1057A00060E070E080E09FEC30C0EE24FF248701D1
:1057B000E21AF30A040B150B02C079018A018EE18B
:1057C000C82ED12CDC82CB82ED82FE820F8318871B
:1057D000C801B7010E94D62C01971816190684F447
:1057E000082E04C0EE0CFF1C001F111F0A94D2F7F4
:1057F000ED82FE820F831887C81AD90ADC82CB8219
:10580000BA82CE0101960E94252D2896E9E00C94DB
:105810007F2FACE0B0E0EFE0FCE20C946A2F6983EC
:105820007A838B839C83CE010196BE016B5F7F4F91
:105830000E94FA2D8D81823061F1823050F18430E6
:1058400021F48E81882351F12EC02F81388537FDB8
:1058500020C06E812F3131051CF06623F9F023C082
:105860008EE190E0821B930B29853A854B855C8500
:1058700004C056954795379527958A95D2F76623A4
:10588000B1F050954095309521953F4F4F4F5F4F68
:105890000EC020E030E040E050E009C02FEF3FEFC5
:1058A0004FEF5FE704C020E030E040E050E8B9018E
:1058B000CA012C96E2E00C94862FA8E0B0E0E3E663
:1058C000FCE20C94622F7B018C016115710581054E
:1058D000910519F482E0898360C083E089838EE1B9
:1058E000C82ED12CDC82CB82ED82FE820F831887FA
:1058F000C801B7010E94D62CFC013197F7FF3BC0CD
:10590000222733272E1B3F0B57016801022E04C0AC
:10591000D694C794B794A7940A94D2F740E050E085
:1059200060E070E081E090E0A0E0B0E004C0880FAB
:10593000991FAA1FBB1F2A95D2F70197A109B10988
:105940008E219F21A023B1230097A105B10521F04D
:1059500041E050E060E070E04A295B296C297D2934
:105960004D835E836F8378878EE190E08E1B9F0B63
:105970009C838B8312C0309781F00E2E04C0EE0CF6
:10598000FF1C001F111F0A94D2F7ED82FE820F83C5
:105990001887CE1ADF0ADC82CB821A82CE010196EA
:1059A0000E94252D2896EAE00C947E2FEF92FF921C
:1059B0000F931F937B018C0180E0E81680E0F806CE
:1059C00081E0080780E0180788F48FEFE816F104FB
:1059D0000105110531F028F088E090E0A0E0B0E08A
:1059E00017C080E090E0A0E0B0E012C080E0E816D0
:1059F00080E0F80680E0080781E0180728F088E1D9
:105A000090E0A0E0B0E004C080E190E0A0E0B0E071
:105A100020E230E040E050E0281B390B4A0B5B0BE2
:105A200004C016950795F794E7948A95D2F7F70185
:105A3000EA59FC4F8081281B310941095109C901EC
:105A40001F910F91FF90EF900895DF92EF92FF92D8
:105A50000F931F93FC01E480F58006811781D180AC
:105A60008081823048F480E090E0A0E1B0E0E82A54
:105A7000F92A0A2B1B2BA5C0843009F49FC0823061
:105A800021F4EE24FF24870105C0E114F10401058F
:105A9000110519F4E0E0F0E096C0628173819FEF98
:105AA000623879070CF05BC022E83FEF261B370B0A
:105AB0002A3131052CF020E030E040E050E02AC0EF
:105AC000B801A701022E04C07695679557954795B2
:105AD0000A94D2F781E090E0A0E0B0E004C0880F23
