:100000000C94F6040C9413050C9413050C94051B26
:100010000C9413050C9413050C9413050C94130500
:100020000C9413050C949D070C9413050C94130663
:100030000C9413050C9415050C9427050C941305CA
:100040000C9413050C9413050C9413050C941305D0
:100050000C9413050C945A1A0C9413050C94130564
:100060000C948D2F0C9413050000012226011C2BEB
:10007000011A2D01182E0117300116310115320118
:1000800014330113340112350112350111360111F7
:1000900036011137011037011037011038011038BF
:1000A00001103801103803060810384143030409D1
:1000B00010383F4404030A10181E373E4505030A52
:1000C000111820292E373E4605030C111721283020
:1000D000373D4605020E1117222830373B460502F0
:1000E0000F1218212931363947050110131A1F291B
:1000F0003036384704011013292F353847040210D1
:1001000013292D35384704031113242735374606A4
:1001100005060C1113222735373C4245040F1113F5
:10012000212635373A0214202735021420283502BB
:10013000152028350216252734011B31011C2E01FC
:100140001D2D011D2C031819242B303205181A25DA
:10015000262B2B30323535041416181A303134372B
:10016000071116191A1D1F2124262D3031343A0388
:100170000E161931343C0504060B161931343F4470
:1001800048030217193033490301171A2F33490363
:1001900001151B2F364A0301131C2E384903011089
:1001A0001D2D3A4903010D1E2B3D4903020B212948
:1001B000404802020A404802020A4148020309413B
:1001C0004702040842460000000000000000000151
:1001D000171B01121F011022010F24010E25010D12
:1001E00027020C101D27020B0E2028020A0C2227C2
:1001F000030A0B141C222603090A101D21230308DD
:10020000090F1C2123020F1C212202101C20220294
:10021000111C202202121B1F2102121B1F2102117E
:100220001B1F2002101B1E20020F1A1E20020E1A76
:100230001D1F020E1A1D1F020D1A1D1E020D191C74
:100240001E020C191C1E010C1D010B1D010B1E01B1
:100250000B1D010B1D010A1C010A1B010A1A010AD0
:100260001A010A1A010A1A010A19010919010919C0
:1002700001091901091A01091A01091A01081A01CB
:10028000081B01071B01061B01041B01021B0101C6
:100290001C01021D01031E01042001051F01081D90
:1002A000010D1A0111150000000000011219010EC4
:1002B0001E010C21010A2303090C1214192503083D
:1002C0000A14141C260207091E2802060820290207
:1002D0000607222A020507232B020506242C020505
:1002E00006262D020506272E020506272E030405E5
:1002F000090A282F030406080E292F0304060811F3
:100300002930040406081317192A30060406080BBE
:100310000F13171A1E202A31060406080B11141792
:10032000191E252B31050406081416191E272B311A
:10033000050405081316191E282B31070406080B9F
:100340000D1216191E2125292B32070405080A0E45
:100350001116191E2126292C32060405070A0F1230
:1003600016191D292C32060405070A0F1216191D2D
:10037000282C32060406090A101316191D272C32E0
:10038000050406111416181D202B3205040613133C
:1003900016181D202A320304061D202C32020406E2
:1003A0002C320204062C320204062C320204062CE3
:1003B000320204062C320204062C320205062C32CC
:1003C0000204052C320204052C320204052B3202F1
:1003D00004052B320204052C320204072C320205DC
:1003E000072C320205072C320205062C32020406C5
:1003F0002C320203082C320203092C320201092C90
:10040000340403080D1014152C34020F152C33037B
:10041000121A2C32343602141D2C350215202C34BD
:100420000315181D242C330220272C3201233201FE
:100430002731012B2D000000000001212101202186
:10044000011E22011D22011C22011B23011A23016E
:100450001A23011924011824011824011824020365
:1004600009172402010E172402011017240201119A
:100470001624030113161C2024030114161B202428
:1004800002011B202402021A202404020F111A2048
:10049000252A2D03020E141A203003030E161A1FEC
:1004A0003103030E171A1F3303040F181A1E3403E7
:1004B0000511181A1D35020712183602091E2737B2
:1004C000020A1D2836020B1D2836020B1D28350393
:1004D0000B1318202634030A12181B1D34030911AC
:1004E000181A1E33030710171A1F33040710161AA1
:1004F0001F23263204060F161A1F23283104050F66
:10050000141A20242A2F03050F131A202402041B77
:10051000202502041B2025030415181B2026030395
:1005200014181C202602031318270203121827028E
:100530000311192702030F192702030C1927011AA7
:1005400027011A27011B27011C26011D26011E2534
:10055000012024000000000020736574207365638F
:100560007300207365630020736574206D696E737A
:1005700000206D696E002073657420686F757200CD
:100580002068722E0020736574206D696E730020E0
:100590006D696E002073657420686F757200206845
:1005A000722E0041626F75742053637265656E2010
:1005B0002020202020202020005072657373202BE3
:1005C00020746F2076696577202020202020007419
:1005D0006F20746865206E65787420706167652E81
:1005E00020202020005072657373204D454E552009
:1005F000746F20616476616E63650020736574209A
:1006000079656172002079722E0020736574206D07
:100610006F6E2E00206D6F6E002073657420646114
:1006200074650020646179002073657420646174CE
:100630006500206461790020736574206D6F6E2EF3
:1006400000206D6F6E00436F6E666967757261742E
:10065000696F6E204D656E7500536574204261634D
:100660006B6C696768743A200045552032346872B3
:10067000004555203132687200555320323468727B
:1006800000555320313268720053657420726567DB
:10069000696F6E3A200053657420446174653A2096
:1006A0002020005365742054696D653A200053651D
:1006B0007420416C61726D3A2020002073657420B3
:1006C00068742E20002068742E00207365742062E8
:1006D0006D69200020626D69002073657420777455
:1006E0002E20002077742E002073657420756E69AB
:1006F00074002075742E0020736574207965617212
:10070000002079722E0020736574206D6F6E2E00AC
:10071000206D6F6E00207365742064617465002025
:1007200064617900207365742064617465002064DD
:1007300061790020736574206D6F6E2E00206D6FDF
:100740006E004D656E7500436F6E666967004465A7
:100750006174684368726F6E00204E6F0059657354
:1007600000536D6F6B65723F3A20202020202020BF
:1007700020200020202020202020202000424D4941
:100780003A00636D006B6720004D65743A00667433
:10079000006C622000496D703A005365742000209F
:1007A0002020536164697374696300204F70746919
:1007B0006D69737469630050657373696D697374EF
:1007C00069630020202020204E6F726D616C005301
:1007D0006574204D6F64653A0046656D616C650017
:1007E00020204D616C65005365742047656E64651B
:1007F000723A2020200053657420444F423A202052
:100800000020736176652020202000202020200019
:1008100050726573732053455420746F0050726595
:100820007373202B20746F206368616E67650050BE
:10083000726573732053455420746F207365742060
:1008400020202020005072657373204D454E5520A6
:10085000746F20657869742020200050726573736E
:10086000204D454E5520746F20616476616E63653E
:10087000006800CA01A8023604FF8181FF00000061
:10088000FF9F9191F1919191FFF01010FFF19191E3
:100890009FFF91919F808080FFFF9191FFF1919147
:1008A000FF006666000018180000000000FF90902E
:1008B000FFFF9090F09F90909F0060600000060600
:1008C0000014000000000000000000000000000014
:1008D00000000000000000002800000000010101ED
:1008E000010202020303030404040505060608329C
:1008F00000000000000101010102020202030304E2
:100900000404050505073C0000000000000101018A
:100910000102020203030304040405050646000065
:1009200000000101010101020202020303030404A9
:1009300004040000C80000000000000000000000E7
:10094000000000000000000000000514000000008E
:100950000000000000000000000000000000000097
:1009600000001E0000000101010102020303030454
:1009700004050506060707080D280000000101010F
:100980000102020203030304040505060606070B21
:10099000320000000000010101020202030303040F
:1009A0000404050506060A3C0000000000000001E2
:1009B00001010102020203030304040405074600C7
:1009C0000000000000000001010101020202020219
:1009D0000303030305C8000000000000000000003E
:1009E00000000101010101010101020211241FBEE9
:1009F000CFEFD8E0DEBFCDBF11E0A0E0B1E0E6E090
:100A0000F3E602C005900D92AA31B107D9F711E0C3
:100A1000AAE1B1E001C01D92A73CB107E1F70E9435
:100A2000810B0C9481310C9400001F920F920FB631
:100A30000F9211248F939F9388B198E0892788B9EA
:100A40009F918F910F900FBE0F901F9018951F923E
:100A50000F920FB60F9211248F939F9380912501CF
:100A600090912601009749F08091250190912601EF
:100A70000197909326018093250180919501909193
:100A80009601009749F08091950190919601019708
:100A9000909396018093950180919301882389F129
:100AA0008091230190912401009759F5809187014D
:100AB000909188010097E1F48CE291E09093880195
:100AC0008093870180918100882379F410928000BF
:100AD00089E08093810083E080936F0088EE93E04B
:100AE000909389008093880003C0109281004398FE
:100AF000809187019091880101979093880180935C
:100B000087019F918F910F900FBE0F901F901895A6
:100B10007F928F929F92AF92BF92CF92DF92EF928D
:100B2000FF920F931F93DF93CF930F92CDB7DEB752
:100B30008DE090E00E94503180939F0186E090E02C
:100B40000E945031182F87E090E00E945031D82E3B
:100B500088E090E00E945031F82E89E090E00E94F9
:100B60005031282F8AE090E029830E945031082FCD
:100B70008BE090E00E945031E82E8CE090E00E94E3
:100B80005031C82EA0909F018EE090E00E9450311D
:100B9000B82E81E190E00E9458314C018FE090E046
:100BA0000E945831AC018B2DB4010E946125882E22
:100BB00083E190E00E945031782E84E190E00E9421
:100BC0005031982E85E190E00E945031B82E86E198
:100BD00090E00E94503100D000D0EDB7FEB73196C2
:100BE0004F2D44599CE6E90EADB7BEB711967C92E5
:100BF0009182B2828383812F6D2D29810E9482266A
:100C00000F900F900F900F900F90CF91DF911F9149
:100C10000F91FF90EF90DF90CF90BF90AF909F909B
:100C20008F907F9008951F920F920FB60F9211240C
:100C30008F939F9388B198E0892788B99F918F916E
:100C40000F900FBE0F901F9018951F93CF93DF93B7
:100C5000162F10928000C1E8D0E029E0288323E01D
:100C600020936F009C0140E050E060E079E08DE36C
:100C700090E00E9435313093890020938800812FC5
:100C800090E00E949C2A18824398DF91CF911F9197
:100C900008951E9B16C080918F01882359F11092F0
:100CA0008F0110929A0110922401109223018091D9
:100CB00093018823F9F010929301109281004398D8
:100CC000089580918F018823A9F481E080938F019A
:100CD000109224011092230180911E01843010F49F
:100CE00083E001C087E080931E0183E080931D01B3
:100CF0000E942A1B0895EF92FF920F931F93F82EE4
:100D0000162FE42E21E001E00E940E2B0E2D0F0D78
:100D10008EEFF82EF00E612F61508F2D0E94B82AB1
:100D2000612F6F5F8F2D0E94B82A0350612F625090
:100D3000802F0E94B82A612F6E5F802F0E94B82AF0
:100D40001F910F91FF90EF9008950F931F93162F0F
:100D50006AE070E00E94EC30082F862F805D612FE2
:100D60000E942D2C802F805D612F0E942D2C1F91C1
:100D70000F910895DF92EF92FF920F931F93CF93FD
:100D8000DF93EC01D62E64E670E00E94EC307C012B
:100D9000862F805D6D2D0E942D2C0AE010E0C7018A
:100DA000B8010E94EC30862F805D6D2D0E942D2CA5
:100DB000CE01B8010E94EC30805D6D2D0E942D2C7B
:100DC000DF91CF911F910F91FF90EF90DF900895E9
:100DD000DF93CF93CDB7DEB729970FB6F894DEBF78
:100DE0000FBECDBF1982F89480ED61E0AE014F5F78
:100DF0005F4F0E94052F882399F080EA9FE064E608
:100E00000E94250684E690E00E949C2A80EA9FE0EA
:100E100064E60E94250688EE93E00E949C2AEDCFAE
:100E200080ED67E0AE014E5F5F4F0E94452F7894E2
:100E3000882399F080EA9FE064E60E94250684E614
:100E400090E00E949C2A80EA9FE064E60E942506CA
:100E500088EE93E00E949C2AEDCF8A81282F269568
:100E6000269526952E70922F990F990F920F282F65
:100E70002F70920F909399013B81232F26952695F1
:100E800026952E70922F990F990F920F3F70930F06
:100E900090938D019C81292F22952F70492F4F709F
:100EA00096FF0FC09295969591703CE0939F902D80
:100EB00011242170220F322F330F330F320F930F73
:100EC00006C02370220F922F990F990F920F940F43
:100ED000909382013E81232F269526952695267094
:100EE000922F990F990F920F3F70930F90938B0150
:100EF0003F81232F2695269526952270922F990FB4
:100F0000990F920F3F70930F909397013885232F7D
:100F100022952F70220F922F990F990F920F3F70E9
:100F2000930F90938501807829960FB6F894DEBFD1
:100F30000FBECDBFCF91DF9108951F920F920FB6D4
:100F40000F921124AF92BF92CF92DF92EF92FF9255
:100F50000F931F932F933F934F935F936F937F93C1
:100F60008F939F93AF93BF93EF93FF93A895809137
:100F70002701803599F41092270180918C018F5FB1
:100F800080938C01F090990110918D010091820164
:100F900080919F01833031F0EE240AC08F5F8093EF
:100FA000270169C1809199016FE00E94E030E82E2D
:100FB0000E94E80680918201801731F081E08093E1
:100FC0001C0100938E0108C0E0918D01E11709F426
:100FD00047C081E080931B011093830180911F0122
:100FE00090912001A0912101B091220180939B0159
:100FF00090939C01A0939D01B0939E0180911F014D
:1010000090912001A0912101B0912201181619069A
:101010001A061B060CF05DC020911F0130912001C3
:10102000409121015091220180919F01833029F448
:1010300084E090E0A0E0B0E004C081E090E0A0E0B7
:10104000B0E059016A01A81AB90ACA0ADB0AA092DB
:101050001F01B0922001C0922101D092220139C01B
:1010600080919F018330A9F520911F0130912001CB
:101070004091210150912201211531054105510571
:1010800041F180919F01833041F4809199016FE09B
:101090000E94E030282F30E002C020E030E08E2DAA
:1010A00090E028173907A9F081E080931B01E093B5
:1010B000830180911F0190912001A0912101B091A5
:1010C000220180939B0190939C01A0939D01B0937A
:1010D0009E01809199018F1509F445C0809193017B
:1010E000882359F08091230190912401009729F0E1
:1010F0000197909324018093230180911D018823FF
:1011000091F180911D01815080931D0180911D01FD
:10111000882349F580911E01843020F084E080937B
:101120001E0102C010921E0180911C01882329F02B
:1011300080918E018093820104C080911B018823DD
:1011400021F08091830180938D010E942A1B809160
:101150001C01882321F480911B01882321F0009336
:10116000820110938D0180919401843061F080910F
:101170009401853041F080919401883021F0809174
:101180009401863099F580912A01882379F584E4C9
:1011900062E00E940A2E8091820160E00E948F141A
:1011A0008AE360E00E942D2C80918D0190E060E048
:1011B0000E94A5068AE360E00E942D2C809199018F
:1011C00090E060E00E94A50680918401882371F47C
:1011D00080E260E00E942D2C809182018C3010F022
:1011E00080E501C081E460E00E942D2C80918F0198
:1011F000882399F080919901882379F490918D0149
:1012000080918601981749F4909182018091910113
:10121000981719F481E080939A0180911B0188232B
:1012200069F480911C01882349F480919A018823F4
:1012300029F081E08093930110929A018091280116
:10124000863039F41092280180912E01882329F4E8
:1012500009C08F5F809328010EC080912E018150BC
:1012600080932E0180912901882329F08091290102
:10127000815080932901FF91EF91BF91AF919F9190
:101280008F917F916F915F914F913F912F911F911E
:101290000F91FF90EF90DF90CF90BF90AF900F90A5
:1012A0000FBE0F901F9018959C018370907000974F
:1012B00039F4C90164E670E00E94EC30009771F4E3
:1012C000C90160E971E00E94EC309C0181E090E08E
:1012D0002115310529F080E090E0089581E090E04B
:1012E0000895DF92EF92FF920F931F9389E090E0B1
:1012F0000E945031809398018AE090E00E94503122
:10130000809381018BE090E00E94503180939201A4
:101310000E9488057B018C01DD24D39450C080E6B7
:101320009AEFAFEFBFEFE80EF91E0A1F1B1F809167
:1013300081018F5F8093810180918101803268F506
:10134000809181018F3181F480919801843029F15D
:1013500080919801863009F1809198018930E9F0F7
:10136000809198018B30C9F0809181018E3121F4F8
:1013700080919801823089F0809181018D31A1F4B2
:1013800080919801823081F48091920190E084599B
:10139000984F0E945409882339F4D092810180919A
:1013A00098018F5F80939801809198018D3038F07B
:1013B000D0929801809192018F5F8093920190EA80
:1013C000E91695E0F90690E0090790E0190708F0A2
:1013D000A6CF1F910F91FF90EF90DF900895AF92ED
:1013E000BF92CF92DF92EF92FF920F931F93DF9302
:1013F000CF930F92CDB7DEB70E9488055B016C01D9
:1014000089E090E00E945031182F8AE090E00E941D
:101410005031682F8BE090E069830E945031209119
:10142000970100918B0190918501482F4459905369
:10143000812F6981E92E0E946A2420919F01233027
:1014400031F434E0E32EF12C012D112D05C021E003
:10145000E22EF12C012D112D20EA35E040E050E084
:101460000E94C130A80197010E94C130A61AB70A94
:10147000C80AD90A409182018CE3489FA001112437
:1014800080919F01833019F424E030E002C021E014
:1014900030E0429FC001439F900D529F900D112458
:1014A000AA2797FDA095BA2FA81AB90ACA0ADB0A7B
:1014B00040918D0150E080919F01833019F424E028
:1014C00030E002C021E030E0249FC001259F900D54
:1014D000349F900D1124AA2797FDA095BA2FA81A22
:1014E000B90ACA0ADB0AA0921F01B0922001C09279
:1014F0002101D09222010E947109809185012091E1
:10150000920190E08D599F4F30E08217930744F588
:10151000209192018091850130E090E08C599F4F9D
:101520002817390731F49091980180919701981705
:10153000B8F0209192018091850130E090E08C59C3
:101540009F4F28173907A1F4909198018091970136
:10155000981771F49091810180918B01981740F454
:1015600010921F011092200110922101109222016D
:1015700080911F0190912001A0912101B091220141
:10158000181619061A061B0624F081E080938A01BA
:1015900002C010928A010F90CF91DF911F910F919D
:1015A000FF90EF90DF90CF90BF90AF900895089597
:1015B0006AE00E94E0308295807F892B0895AF9287
:1015C000BF92CF92EF920F93DF93CF93CDB7DEB759
:1015D0002B970FB6F894DEBF0FBECDBF5E01089407
:1015E000A11CB11C98E0F50111929A95E9F72B879F
:1015F0004A8769870E94D80A8A836985862F0E9454
:10160000D80A8B834A85842F0E94D80A8C832B8525
:10161000822F0E94D80A8D83802F0E94D80A8E8341
:101620008E2D0E94D80A8F838C2D0E94D80A88871D
:10163000F89480ED68E0A5010E94052F7894882336
:1016400099F080EA9FE064E60E94250684E690E037
:101650000E949C2A80EA9FE064E60E94250688EEAC
:1016600093E00E949C2AEDCF2B960FB6F894DEBF34
:101670000FBECDBFCF91DF910F91EF90CF90BF9074
:10168000AF900895CF92EF920F930E94512E0E9437
:10169000E806882359F080E060E04CE020E001E0BB
:1016A000EE24E39459E0C52E0E94DF0A0E94E8066A
:1016B00081E090E00E9450316CE30E94E030909312
:1016C000860180E090E00E94503168E10E94E030A5
:1016D0009093910187E08093B10081E08093700046
:1016E00078940F91EF90CF90089588E592E09093D1
:1016F0002401809323011092810043981092940159
:1017000008953F924F925F926F927F928F929F9235
:10171000AF92BF92CF92DF92EF92FF920F931F93FF
:10172000CF93DF9384B714BE88E10FB6F89480930B
:101730006000109260000FBE8AE190E00E940C29C8
:101740003B9A0E94420B84E090E00E9450318093CB
:10175000900185E090E00E945031809384010E94C6
:101760002F1A0E94490682E084BD83E085BD8DE783
:1017700087BD80916E00826080936E00539A80E2F4
:101780008093B0008091B00083608093B00080911E
:10179000B10088608093B10080E18093B30082E063
:1017A00090E00E9450318093B400259A80EA9FE037
:1017B00064E60E9425062FE088E190E00FB6F894D9
:1017C000A895809360000FBE209360000E94382E81
:1017D0000E94142E80E060E040E820E401E00E94D6
:1017E0000E2BCCEADFEF80E0BE0141E00E944B21EE
:1017F00080E190E00E949C2ACA31D10521F480ED5D
:1018000097E00E949C2A2196CA38D10561F70E9470
:10181000831D80E00E9422220E94EF09EE24FF2413
:1018200010E0CBE4D0E032E0432E03E026E0B22E1D
:1018300095E0C92E5524539484E0D82EBBE06B2E3E
:10184000ADE07A2EFEE08F2EEFE09E2E7CE0A72EFC
:1018500068E0362ED0939601C093950180912C01BB
:10186000882341F080919301882321F010922C016C
:101870000E94750BFF2059F080911D01882339F4D7
:1018800040921E0100931D010E942A1BFF24EE209E
:1018900059F080911D01882339F4B0921E01009304
:1018A0001D010E942A1BEE2480912C0181FF15C08E
:1018B00010922C0180911E01843028F450921E0158
:1018C000FF24F39406C00E947109C0921E01EE2409
:1018D000E39400931D010E942A1B80912C0182FF3A
:1018E00011C010922C0180911E01843018F4D09206
:1018F0001E0102C010921E0110921D010E942A1B9F
:10190000EE24FF2480912C0180FF6CC010922C01EA
:1019100080919401863009F441C0873068F48330A7
:1019200061F1843018F48823B1F051C08430C1F0E3
:10193000853009F04CC026C08C30D1F18D3030F4A8
:10194000883039F18B3009F042C02DC08D30A9F1BB
:101950008E30E9F537C0D09294010E94341939C015
:10196000009394010E94A51580911C01882311F019
:1019700010921C01109200012CC0C09294010E9490
:10198000D21727C00E94EF09309294010E949C1642
:1019900020C0B09294010E942F171BC06092940146
:1019A0000E948F0F16C0A09294010E94001111C0D6
:1019B000709294010E9482110CC0809294010E9446
:1019C000FE1107C0909294010E94821302C01092EF
:1019D000940180919401882329F40E94142E80E0C0
:1019E0000E94222280919401882349F50E94A0231D
:1019F000112369F480919301882369F08091990102
:101A000080FF09C081E00E94222211E018C080916D
:101A10009301882351F080919301882359F0112379
:101A200049F08091990180FD05C080E00E9422224A
:101A300010E005C02D9A812F0E94D8222D98209168
:101A400095013091960121153105C9F703CF1F93F8
:101A5000DF93CF93CDB7DEB728970FB6F894DEBFEC
:101A60000FBECDBF10918501DE011196E1E0F1E0DE
:101A700088E001900D928150E1F7809185013091CD
:101A8000A101E091A2012091A00190E08C599F4F0B
:101A9000831B9109F0E0EE0FFF1FE20FF11D9E0185
:101AA0002F5F3F4FE20FF31F408150E04817590767
:101AB00014F01C590FC01091A101E091A201809176
:101AC000A001F0E0EE0FFF1FE80FF11DE20FF31F82
:101AD0008081180F6091970189E090E00E945E314B
:101AE00060918B018AE090E00E945E318BE090E093
:101AF000612F0E945E316091820184E190E00E943A
:101B00005E3160918D0185E190E00E945E316091CF
:101B1000990186E190E00E945E310E94EF092896CB
:101B20000FB6F894DEBF0FBECDBFCF91DF911F91EE
:101B300008951F93182F80E066E00E940A2E11235B
:101B400019F48BE598E002C085E498E060E00E941B
:101B5000AB2C80E067E00E940A2E8FE298E060E004
:101B60000E94AB2C1F9108950F931F93CF93DF9387
:101B7000EC018B0180E066E00E940A2E8DE198E086
:101B800060E00E94AB2CCE0160E00E94AB2C80E0B4
:101B900067E00E940A2E80E198E060E00E94AB2C92
:101BA000C80160E00E94AB2CDF91CF911F910F9193
:101BB00008958BE098E061E078E00E94B40D08950C
:101BC000FF920F931F93CF93DF93182F88E061E06C
:101BD0000E940A2E86EF97E060E00E94AB2C809175
:101BE0009001012F017042E0F42EF122882379F454
:101BF0008091A60190E0602F0E94A5068FE260E030
:101C00000E942D2C8091A30190E06F2D0EC0809139
:101C1000A30190E06F2D0E94A5068FE260E00E9474
:101C20002D2C8091A60190E0602F0E94A5068FE2E6
:101C300060E00E942D2C8091A101147090E08459E5
:101C4000984FC4E6D0E0BE010E940031CB01612F65
:101C50000E94A5068091A10190E08459984FBE0191
:101C60000E940031612F0E94A506DF91CF911F9144
:101C70000F91FF9008951F93182F88E062E00E9453
:101C80000A2E87EE97E060E00E94AB2C8091A001C5
:101C9000882319F480EE97E002C089ED97E0612F68
:101CA0000E94AB2C1F9108951F93182F88E063E0CA
:101CB0000E940A2E8FEC97E060E00E94AB2C80918E
:101CC000A201882319F483EC97E010C08091A2014F
:101CD000813019F487EB97E009C08091A20182302E
:101CE00019F48BEA97E002C08FE997E0612F0E9418
:101CF000AB2C1F9108950F931F93CF93DF93182F51
:101D000088E064E00E940A2E8AE997E060E00E9481
:101D1000AB2C8091A7018823A1F5612F617085E923
:101D200097E00E94AB2C2091A4013091A501012FD6
:101D30000270C901602F0E94BA0681E997E0602F06
:101D40000E94AB2C2091A9013091AA011470CCE023
:101D5000D0E0C901BE010E94EC30CB01612F0E948E
:101D6000A5068EE897E0612F0E94AB2C8091A90117
:101D70009091AA01BE010E94EC30612F0E94A5063D
:101D80003CC08091A701612F6170012F02708130EA
:101D900021F589E897E00E94AB2C80E260E00E9488
:101DA0002D2C2091A4013091A501C901602F0E9422
:101DB000BA0685E897E0602F0E94AB2C2091A9011C
:101DC0003091AA011470C901612F0E94BA0682E8FD
:101DD00097E0612F0E94AB2C10C08DE797E00E9426
:101DE000AB2C83E797E060E00E94AB2C8091A401CC
:101DF0009091A501602F0E94BA06DF91CF911F91AB
:101E00000F9108951F93182F88E065E00E940A2E15
:101E100081E697E060E00E94AB2C8091A8018823C6
:101E200019F08DE597E002C089E597E0612F0E94E7
:101E3000AB2C1F91089586E090E00E945031809372
:101E4000A60187E090E00E9450318093A30188E0D2
:101E500090E00E9450318093A1018CE090E00E94BC
:101E600050318093A0018DE090E00E94503180932A
:101E7000A2018EE090E00E9450318093A70181E1A1
:101E800090E00E9458319093AA018093A9018FE0BD
:101E900090E00E9458319093A5018093A40183E1C2
:101EA00090E00E9450318093A80180912A018F5FB9
:101EB00080932A010E94142E80E060E00E940A2E86
:101EC0008EE497E060E00E94AB2C80E460E00E942A
:101ED0000A2E87E497E060E00E94AB2C88E660E081
:101EE0000E940A2E82E497E060E00E94AB2C80E022
:101EF0000E94E00D80E00E943B0E80E00E94540EA4
:101F000080E00E947B0E80E00E94020F80E00E9431
:101F1000990D80912A01815080932A010895EF92B2
:101F2000FF920F931F930E941B0F80912A018F5FD6
:101F300080932A0180E06BE047E00E947B0680915D
:101F40002A01815080932A018EE1809329011BE0B0
:101F50000EE16CE1E62E5DE1F52E80912C0180FD15
:101F60004AC180912C01882321F480912D0188237E
:101F700019F00093290107C080912901882319F4E1
:101F80001092940138C180912C0181FF76C010928B
:101F90002C0180912A018F5F80932A011B30C1F4AC
:101FA00080919001882341F481E00E94E00D8DE34F
:101FB00097E063E377E029C0809190018130E9F5F3
:101FC00082E00E94E00D8EE297E064E277E00DC0CF
:101FD000153679F480919001882301F582E00E9402
:101FE000E00D8FE197E065E177E00E94B40D16E621
:101FF0003FC0163611F580919001813051F40E9456
:10200000E00D80E197E066E077E00E94B40D15E610
:102010002FC080919001882329F00FC080919001FA
:10202000813059F484E00E94E00D81E097E067EF91
:1020300076E00E94B40D17E61BC080E00E94E00D20
:1020400080E00E94990D6091A60186E090E00E94D8
:102050005E316091A30187E090E00E945E31609163
:10206000A10188E090E00E945E310E94270D1BE0F4
:1020700080912A01815080932A0180912C0182FD58
:1020800004C080912D0182FF68CF10922C018091B5
:102090002A018F5F80932A01153609F048C080918C
:1020A000A6018F5F8093A6018091A6018D3018F064
:1020B00081E08093A6018091A601823001F5809194
:1020C000A10190E08459984F0E945409882339F067
:1020D0008091A3018E3118F0F092A30126C0809167
:1020E000A10190E08459984F0E9454098823E9F493
:1020F0008091A3018D31C8F0E092A30116C08091B8
:10210000A601843061F08091A601863041F0809173
:10211000A601893021F08091A6018B3031F48091A5
:10212000A3018F3110F00093A30181E054C0163653
:1021300009F044C08091A3018F5F8093A301809137
:10214000A301803218F081E08093A3018091A60161
:102150008230D9F48091A10190E08459984F0E9477
:102160005409882321F08091A3018E3110F58091CC
:10217000A10190E08459984F0E9454098823E1F40A
:102180008091A3018D31C0F014C08091A6018430EC
:1021900061F08091A601863041F08091A6018930DE
:1021A00021F08091A6018B3039F48091A3018F3109
:1021B00018F081E08093A30182E00DC0173669F426
:1021C0008091A10190E0019668EC70E00E940031DE
:1021D0008093A10184E00E94E00D80912A0181504A
:1021E00080932A0180912D0182FFB7CE88EC90E088
:1021F0000E949C2AB2CE1F910F91FF90EF900895FC
:102200000F931F930E941B0F80912A018F5F809371
:102210002A0180E063E147E00E947B0680912A0169
:10222000815080932A018EE1809329011CE00EE108
:1022300080912C0180FD63C080912C01882321F4C2
:1022400080912D01882319F00093290107C0809106
:102250002901882319F41092940151C080912C0116
:1022600081FF1CC010922C0180912A018F5F809306
:102270002A011C3039F481E00E943B0E0E94D90DE6
:102280001DE607C080E00E943B0E80E00E94990D91
:102290001CE080912A01815080932A0180912C01B9
:1022A00082FD04C080912D0182FFC2CF10922C01CB
:1022B0001D3609F0BDCF9091A00181E0911180E021
:1022C0008093A00180912A018F5F80932A010E9450
:1022D000D90D80E063E147E00E947B0681E00E9427
:1022E0003B0E80912A01815080932A016091A001C8
:1022F0008CE090E00E945E310E94270D99CF1F91E3
:102300000F9108950F931F930E941B0F80912A0134
:102310008F5F80932A0180E06BE147E00E947B069B
:1023200080912A01815080932A018EE180932901B6
:102330001DE00EE180912C0180FD5DC080912C019B
:10234000882321F480912D01882319F0009329011D
:1023500007C080912901882319F4109294014BC081
:1023600080912C0181FF1CC010922C0180912A01C8
:102370008F5F80932A011D3039F481E00E94540E52
:102380000E94D90D1EE607C080E00E94540E80E036
:102390000E94990D1DE080912A01815080932A01AD
:1023A00080912C0182FD04C080912D0182FFC2CF5B
:1023B00010922C011E3609F0BDCF8091A20190E051
:1023C0000196837090708093A20180912A018F5FA3
:1023D00080932A0181E00E94540E80912A0181504D
:1023E00080932A016091A2018DE090E00E945E310D
:1023F0000E94270D9FCF1F910F9108956F927F929A
:102400009F92AF92BF92CF92DF92EF92FF920F9383
:102410001F93DF93CF930F92CDB7DEB70E941B0FB0
:1024200080912A018F5F80932A0180E063E247E078
:102430000E947B0680912A01815080932A018EE1BF
:10244000809329012EE0BEE19B2EACE56A2E712C13
:1024500004E210E0FFE0EF2EF12CE3E2CE2ED12CCF
:1024600073E0A72EB12C80912C0180FD3CC180919E
:102470002C01882321F480912D01882319F090925A
:10248000290107C080912901882319F41092940131
:102490002AC180912C0181FF47C010922C018091AC
:1024A0002A018F5F80932A012E3059F481E00E9427
:1024B0007B0E82EF96E068EE76E00E94B40D2FE688
:1024C0002EC02F36A1F482E00E947B0E8091A701DE
:1024D000823029F083EE96E069ED76E004C084ED69
:1024E00096E06AEC76E00E94B40D20E718C0203731
:1024F00079F48091A701823059F084E00E947B0E2C
:1025000085EC96E06BEB76E00E94B40D21E707C006
:1025100080E00E947B0E80E00E94990D2EE0809169
:102520002A01815080932A0180912C0182FD04C0F0
:1025300080912D0182FF97CF10922C0180912A016A
:102540008F5F80932A012F3649F58091A70190E093
:102550000196B5010E9400318093A7018091A701E7
:10256000882349F4D092A501C092A4011093AA0136
:102570000093A90111C08091A701813049F4F09224
:10258000A501E092A4017092AA016092A90104C081
:102590001092A5011092A40181E078C0203709F0C3
:1025A00040C08091A7018823B1F48091A40190914B
:1025B000A50105969093A5018093A4018091A401A3
:1025C0009091A50132E08539930748F1D092A50199
:1025D000C092A40124C08091A7018130B1F4809100
:1025E000A4019091A50105969093A5018093A40163
:1025F0008091A4019091A501E1E08D329E0778F0D1
:10260000F092A501E092A4010AC08091A4019091EA
:10261000A501019690709093A5018093A40182E09A
:1026200035C02137B9F58091A7018823A9F480919D
:10263000A9019091AA0101969093AA018093A90102
:102640008091A9019091AA0189379105F0F010932A
:10265000AA010093A90119C08091A7018130A9F4B2
:102660008091A9019091AA0101969093AA0180936B
:10267000A9018091A9019091AA01F1E082339F07FD
:1026800020F07092AA016092A90184E029830E943F
:102690007B0E29816091A7018EE090E029830E9442
:1026A0005E316091A4017091A5018FE090E00E94DD
:1026B0006C316091A9017091AA0181E190E00E94C2
:1026C0006C310E94270D80912A01815080932A014C
:1026D00080912D01298182FFC6CE88EC90E00E9476
:1026E0009C2A2981C0CE0F90CF91DF911F910F912D
:1026F000FF90EF90DF90CF90BF90AF909F907F9032
:102700006F9008950F931F930E941B0F81E00E940A
:10271000990D80912A018F5F80932A0180E06BE2FE
:1027200047E00E947B0680912A01815080932A0114
:102730008EE1809329011FE00EE180912C0180FD44
:102740005CC080912C01882321F480912D01882385
:1027500019F00093290107C080912901882319F4F9
:10276000109294014AC080912C0181FF1CC01092EC
:102770002C0180912A018F5F80932A011F3039F448
:1027800081E00E94020F0E94D90D12E707C080E08D
:102790000E94020F81E00E94990D1FE080912A01A2
:1027A000815080932A0180912C0182FD04C0809188
:1027B0002D0182FFC2CF10922C01123709F0BDCF3C
:1027C0009091A80181E0911180E08093A80180910F
:1027D0002A018F5F80932A0181E00E94020F80917D
:1027E0002A01815080932A016091A80183E190E041
:1027F0000E945E310E94270DA0CF1F910F91089576
:10280000CF92DF92EF92FF920F931F93182F062F14
:10281000F42EE22E88E063E00E940A2E86E996E01C
:1028200060E00E94AB2C80919001DD24D394DE20E7
:1028300092E0C92ECE20882369F4812F90E06D2D7F
:102840000E94A5068FE260E00E942D2C802F90E070
:102850006C2D0CC0802F90E06C2D0E94A5068FE29D
:1028600060E00E942D2C812F90E06D2D0E94A50626
:102870008FE260E00E942D2C6E2D64708F2D90E011
:102880000E94A5061F910F91FF90EF90DF90CF90CF
:1028900008951F93182F88E064E00E940A2E89E8AB
:1028A00096E060E00E94AB2C80919001882339F47F
:1028B00080918401882319F481E896E018C0809102
:1028C0009001882339F480918401813019F489E7DB
:1028D00096E00DC080919001813039F4809184019F
:1028E000882319F481E796E002C089E696E0612F1B
:1028F0000E94AB2C1F9108951F93182F88E065E06C
:102900000E940A2E89E596E060E00E94AB2C80913F
:10291000B40090E0612F0E94A5061F9108950F93C7
:102920001F93CF93DF93082F162F80918401882364
:10293000C1F4802F90E047966CE070E00E94003177
:10294000EC018930910514F0019615C080E260E039
:102950000E942D2C9E012F5C822F612F0E942D2C16
:102960000DC080E260E00E942D2C80E260E00E94B9
:102970002D2C802F90E0612F0E94A506DF91CF9132
:102980001F910F910895EF92FF920F931F93DF9382
:10299000CF930F92CDB7DEB7182F062FE22E88E027
:1029A00062E049830E940A2E83EA96E060E00E947A
:1029B000AB2CFF24F394FE20812F6F2D0E948F14E7
:1029C0008AE360E00E942D2C6E2D6270802F90E0D3
:1029D0000E94A5068AE360E00E942D2C6E2D647093
:1029E0004981842F90E00E94A5068091840188236C
:1029F00061F480E260E00E942D2C1C3010F080E534
:102A000001C081E46F2D0E942D2C0F90CF91DF919A
:102A10001F910F91FF90EF9008950F931F93CF9305
:102A2000DF93082F162F80918401882361F584E7B6
:102A300061E00E940A2E0C3010F080E501C081E4B4
:102A400060E00E942D2C8DE460E00E942D2C80E53A
:102A500061E00E940A2E802F90E047966CE070E0C3
:102A60000E940031EC018930910514F0019611C0EB
:102A700080E260E00E942D2C9E012F5C822F612F4E
:102A80000E942D2C09C080E561E00E940A2E802F53
:102A900090E0612F0E94A506DF91CF911F910F91C9
:102AA00008950F931F93082F162F88E061E00E946E
:102AB0000A2E8EEA96E060E00E94AB2C8091910194
:102AC000602F0E940D158AE360E00E942D2C8091FA
:102AD000860190E0612F0E94A5061F910F91089535
:102AE00080912A018F5F80932A010E94142E80E03A
:102AF00060E00E940A2E86E496E060E00E94AB2C23
:102B000080E060E00E9451158091820160918D010A
:102B10004091990120E00E94C31480919701609137
:102B20008B014091850120E00E94001480E00E940A
:102B3000491480E00E947C1480E00E94990D8091ED
:102B40002A01815080932A0108959F92AF92BF92EB
:102B5000CF92DF92EF92FF920F931F93CF93DF9369
:102B600010918201F0908D01D09099010E94701512
:102B700080912A018F5F80932A0180E063E147E022
:102B80000E947B0680912A01815080932A018EE168
:102B90008093290103E03EE1932ECCE3D0E028E1CD
:102BA000A22EB12C80912C0180FDBAC080912C0105
:102BB000882321F480912D01882319F09092290116
:102BC00007C080912901882319F410929401A8C0AC
:102BD00080912C0181FF5BC010922C0180912A0111
:102BE0008F5F80932A01033071F4812F6F2D4D2D5B
:102BF00021E00E94C31480E895E066E775E00E943A
:102C0000B40D08E63FC0083671F4812F6F2D4D2DAD
:102C100022E00E94C31481E795E067E675E00E9418
:102C2000B40D09E62FC0093671F4812F6F2D4D2D9B
:102C300024E00E94C31482E695E068E575E00E94F6
:102C4000B40D0AE61FC0812F6F2D4D2D20E00E948C
:102C5000C31480E00E94990D10938201F0928D01BF
:102C6000D09299018091990160918D0140918201EA
:102C700000918B01E0909701C090850120E00E94B7
:102C8000DF0A03E080912A01815080932A0180911C
:102C90002C0182FD04C080912D0182FF83CF109210
:102CA0002C0180912A018F5F80932A01083669F4F4
:102CB000812F90E00196B5010E940031182F80937A
:102CC00082016F2D4D2D21E01BC0093661F48F2D3F
:102CD00090E00196BE010E940031682FF82E812FEE
:102CE0004D2D22E00DC00A3669F48D2D90E001963D
:102CF000BE010E940031482FD82E812F6F2D24E075
:102D00000E94C31480912A01815080932A018091EE
:102D10002D0182FF47CF88EC90E00E949C2A42CF91
:102D2000DF91CF911F910F91FF90EF90DF90CF90A7
:102D3000BF90AF909F9008950F931F930E947015BE
:102D400080912A018F5F80932A0180E063E247E04F
:102D50000E947B0680912A01815080932A018EE196
:102D60008093290118E00EE180912C0180FD74C050
:102D700080912C01882321F480912D01882319F062
:102D80000093290107C080912901882319F410922A
:102D9000940162C080912C0181FF1CC010922C0113
:102DA00080912A018F5F80932A01183039F481E0E5
:102DB0000E9449140E94D90D1BE607C080E00E94C2
:102DC000491480E00E94990D18E080912A018150F9
:102DD00080932A0180912C0182FD04C080912D01F5
:102DE00082FFC2CF10922C011B3609F0BDCF80911B
:102DF0008401882339F09091900181E0911180E065
:102E0000809390019091840181E0911180E0809302
:102E1000840180912A018F5F80932A010E9470159E
:102E20000E94D90D80E063E247E00E947B0681E0CA
:102E30000E94491480912A01815080932A01609157
:102E4000900184E090E00E945E316091840185E011
:102E500090E00E945E3188CF1F910F9108950F93EB
:102E60001F930E94701580912A018F5F80932A0121
:102E700080E06BE247E00E947B0680912A0181504E
:102E800080932A018EE18093290116E00EE1809162
:102E90002C0180FD84C080912C01882321F4809135
:102EA0002D01882319F00093290107C08091290181
:102EB000882319F41092940172C0163021F5809184
:102EC0002A018F5F80932A018091820160918D0198
:102ED0004091990120E00E94C31480E066E00E94C6
:102EE0000A2E809199018370823018F485EE95E066
:102EF00002C08FEC95E060E00E94AB2C80912A012B
:102F0000815080932A0180912C0181FF1CC0109276
:102F10002C0180912A018F5F80932A01163039F4A9
:102F200081E00E947C140E94D90D1CE607C080E05D
:102F30000E947C1480E00E94990D16E080912A0185
:102F4000815080932A0180912C0182FD04C08091E0
:102F50002D0182FF9CCF10922C011C3609F097CFD7
:102F60008091B4008F5F8093B4008091B400813170
:102F700010F01092B40080912A018F5F80932A0193
:102F800081E00E947C1480912A01815080932A0163
:102F90006091B40082E090E00E945E3178CF1F9192
:102FA0000F910895BF92CF92DF92EF92FF920F930D
:102FB0001F93CF93DF9310918B01F0909701D090E6
:102FC00085010E94701580912A018F5F80932A01EC
:102FD00080E06BE147E00E947B0680912A018150EE
:102FE00080932A018EE18093290105E04EE1B42E01
:102FF000C4E6D0E080912C0180FD2CC180912C0191
:10300000882321F480912D01882319F0B0922901A1
:1030100007C080912901882319F4109294011AC1E4
:1030200080912C0181FF8BC010922C0180912A018C
:103030008F5F80932A010530F9F4809190018823F5
:1030400059F48F2D612F4D2D21E00E94001481E451
:1030500096E067E376E034C080919001813009F01A
:103060004AC08F2D612F4D2D22E00E94001482E373
:1030700096E068E276E010C0053691F48091900108
:10308000882339F58F2D612F4D2D22E00E940014E9
:1030900083E296E069E176E00E94B40D06E64AC05C
:1030A000063649F580919001813071F48F2D612FA2
:1030B0004D2D21E00E94001484E196E06AE076E064
:1030C0000E94B40D05E636C080919001882329F056
:1030D00012C080919001813071F48F2D612F4D2DA0
:1030E00024E00E94001485E096E06BEF75E00E94FA
:1030F000B40D07E61FC08F2D612F4D2D20E00E94DB
:10310000001480E00E94990DD0928501F092970101
:1031100010938B018091990160918D014091820102
:1031200000918B01E0909701C090850120E00E9402
:10313000DF0A05E080912A01815080932A01809165
:103140002C0182FD04C080912D0182FF53CF10928B
:103150002C0180912A018F5F80932A01053691F519
:10316000F3948F2D8D30D8F4823089F48D2D90E03A
:103170000E945409882311F01E31D0F48D2D90E067
:103180000E9454098823C9F41D31A0F416C08F2D64
:10319000843059F0863049F0893039F003C0FF247B
:1031A000F3940BC08F2D8B3041F41F3128F405C0F0
:1031B0001DE103C01CE101C01EE18F2D612F4D2DCB
:1031C00021E038C0063649F51F5F103208F011E0E3
:1031D0008F2D823089F48D2D90E00E945409882330
:1031E00011F01E31A0F48D2D90E00E945409882327
:1031F00079F41D3160F40CC08F2D843031F08630AD
:1032000021F0893011F08B3019F41F3109F411E0ED
:103210008F2D612F4D2D22E00DC0073669F48D2DC5
:1032200090E00196BE010E940031482FD82E8F2DCC
:10323000612F24E00E94001480912A018150809324
:103240002A0180912D0182FFD5CE88EC90E00E946A
:103250009C2AD0CEDF91CF911F910F91FF90EF90DC
:10326000DF90CF90BF900895CF92DF92FF920F939F
:103270001F93DF93CF930F92CDB7DEB70E947015E7
:1032800080912A018F5F80932A0180E06BE047E004
:103290000E947B0680912A01815080932A018EE151
:1032A0008093290184E089836EE1F62E5CE3C52ECC
:1032B000D12C08E110E0E981E43071F580912A0118
:1032C0008F5F80932A018091820160918D014091EE
:1032D000990120E00E94C31480E066E00E940A2E5B
:1032E000809199018370823078F489EB95E060E0F9
:1032F0000E94AB2C80E067E00E940A2E83EA95E0F2
:1033000060E00E94AB2C03C080E00E94990D809188
:103310002A01815080932A0180912C0180FD96C062
:1033200080912C01882321F480912D01882319F0AC
:10333000F092290105C080912901882309F475C004
:1033400080912C0181FF31C010922C0180912A01C3
:103350008F5F80932A01F981F43061F481E060E0AD
:103360000E9451158EE995E064E975E00E94B40D64
:1033700088E615C0E981E83669F480E061E00E94E2
:1033800051158FE895E065E875E00E94B40DF9E607
:10339000F98306C080E060E00E94511584E08983D3
:1033A00080912A01815080932A0180912C0182FD15
:1033B00004C080912D0182FF7ECF10922C0180915C
:1033C0002A018F5F80932A01E981E83691F4809188
:1033D000910190E00196B8010E9400318093910123
:1033E00081E060E00E9451156091910180E090E0E1
:1033F00014C0F981F936A1F48091860190E001961C
:10340000B6010E9400318093860180E061E00E9455
:1034100051156091860181E090E00E945E3108C004
:103420008981843029F40E94D720109294010EC023
:1034300080912A01815080932A0180912D0182FF81
:103440003ACF88EC90E00E949C2A35CF0F90CF9124
:10345000DF911F910F91FF90DF90CF9008952698F4
:103460002E9A81E080936800EBE6F0E08081806432
:10347000808382E080937C0010927B00EAE7F0E09A
:103480008EE88083808180648083089580917A00B3
:10349000877F80937A0080917A00806480937A009D
:1034A00080917A0084FFFCCF2091780030917900E0
:1034B000C90108951F920F920FB60F9211242F93F6
:1034C0003F934F935F936F937F938F939F93AF93AC
:1034D000BF93EF93FF937894809178009091790057
:1034E00022E0803E920728F010922D0110922B01CD
:1034F00076C022E08336920798F180912B0182FDFD
:103500006EC08AE090E00E949C2A0E94461A825671
:1035100092408E37910508F062C082E080932E01C0
:1035200012C00E94461A825692408E37910558F07A
:1035300080912B018B7F80932B0180912C018460E3
:1035400080932C014CC080912E01882351F78091EB
:103550002B01846080932B0180912D0184603DC0FC
:1035600021E08F309207F0F080912B0181FD11C096
:103570008AE090E00E949C2A0E94461A8E50914058
:1035800021E08535920758F580912C018260809367
:103590002C0180912B01826080932B0180912D0161
:1035A00082601BC080912B0180FD0FC08AE090E0FB
:1035B0000E949C2A0E94461A21E08F30920778F4DC
:1035C00080912C01816080932C0180912B0181607E
:1035D00080932B0180912D01816080932D0180913A
:1035E0007A00886480937A00FF91EF91BF91AF9148
:1035F0009F918F917F916F915F914F913F912F910B
:103600000F900FBE0F901F9018951F920F920FB63C
:103610000F9211242F933F934F935F936F937F9358
:103620008F939F93AF93BF93EF93FF9378940E94F0
:103630004906FF91EF91BF91AF919F918F917F913B
:103640006F915F914F913F912F910F900FBE0F900F
:103650001F901895EF92FF920F931F9390911E0168
:1036600080913001981739F081E080932F0180918B
:103670001E018093300180911E01833009F463C1E3
:10368000843038F4813009F443C0823008F064C0DB
:103690000DC0853009F419C1853008F46CC086303E
:1036A00009F437C1873009F029C268C180911B0134
:1036B000882321F480911C018823D1F080911C0182
:1036C000882371F080918E0190E0A0E0B0E08093BB
:1036D000B9019093BA01A093BB01B093BC0105C09E
:1036E00080911B01882309F409C2809183013AC1AA
:1036F0008091820190E0A0E0B0E08093B9019093C6
:10370000BA01A093BB01B093BC0180918D012AC185
:1037100080919001882381F48091970190E0A0E04E
:10372000B0E08093B9019093BA01A093BB01B0932C
:10373000BC0180918B0116C180918B0190E0A0E0CB
:10374000B0E08093B9019093BA01A093BB01B0930C
:10375000BC018091970106C184E190E0A0E0B0E057
:103760008093B9019093BA01A093BB01B093BC01BF
:1037700080918501F7C080911B01882321F48091FD
:103780001C01882329F160919B0170919C0180911B
:103790009D0190919E0120E1E22E27E2F22E012D63
:1037A000112DA80197010E9435312093B901309362
:1037B000BA014093BB015093BC0160919B01709191
:1037C0009C0180919D0190919E01A801970154C098
:1037D00020911F013091200140912101509122013F
:1037E00080919F01833049F4809199016FE00E949C
:1037F000E03090E0A0E0B0E004C080E090E0A0E025
:10380000B0E079018A01E81AF90A0A0B1B0BC8011A
:10381000B70120E137E240E050E00E9435312093CB
:10382000B9013093BA014093BB015093BC01209180
:103830001F0130912001409121015091220180917E
:103840009F01833049F4809199016FE00E94E0303C
:1038500090E0A0E0B0E004C080E090E0A0E0B0E044
:1038600079018A01E81AF90A0A0B1B0BC801B70192
:1038700020E137E240E050E00E9435316093BD0125
:103880007093BE018093BF019093C00180911F018E
:1038900090912001A0912101B091220118161906E2
:1038A0001A061B060CF42AC11092BD011092BE012B
:1038B0001092BF011092C0011092B9011092BA018A
:1038C0001092BB011092BC0119C180919001882314
:1038D00081F48091980190E0A0E0B0E08093B9017C
:1038E0009093BA01A093BB01B093BC018091810178
:1038F00039C08091810190E0A0E0B0E08093B901EF
:103900009093BA01A093BB01B093BC018091980140
:1039100029C08091920124E6622F0E94E03090E05D
:103920004396AA2797FDA095BA2F8093B90190934B
:10393000BA01A093BB01B093BC01809192010E9497
:10394000E030892F0FC08091910190E0A0E0B0E0BD
:103950008093B9019093BA01A093BB01B093BC01CD
:103960008091860190E0A0E0B0E08093BD0190934B
:10397000BE01A093BF01B093C001C0C080911F01E0
:1039800090912001A0912101B09122018093AD017D
:103990009093AE01A093AF01B093B001309182013A
:1039A000209191012317E0F0309182012091910143
:1039B000321731F430918D0120918601231780F068
:1039C0003091820120919101321751F530918D0192
:1039D00020918601321721F520919901222301F1CE
:1039E0003091910140918601E091820110918D0109
:1039F00050E040565A4F2CE3329F90011124420F61
:103A0000531FF0E064EC7FEFE69F9001E79F300DDD
:103A1000F69F300D1124420F531F411B51091CC04A
:103A20004091910110918601E0918201E0908D0119
:103A30002CE3429FA0011124F0E064EC7FEFE69FAD
:103A40009001E79F300DF69F300D1124420F531F58
:103A5000410F511D4E19510920919F01233019F436
:103A600064E070E002C061E070E0649F9001659FD7
:103A7000300D749F300D1124442737FD4095542F8D
:103A8000821B930BA40BB50B8093AD019093AE01F9
:103A9000A093AF01B093B001E090AD01F090AE0102
:103AA0000091AF011091B001C801B70120E137E2E8
:103AB00040E050E00E9435312093B9013093BA01C3
:103AC0004093BB015093BC016093BD017093BE0154
:103AD0008093BF019093C00117FF10C01092B901ED
:103AE0001092BA011092BB011092BC011092BD015C
:103AF0001092BE011092BF011092C0011F910F9150
:103B0000FF90EF90089508958F929F92AF92BF9289
:103B1000CF92DF92EF92FF920F931F93CF93DF9399
:103B2000E090B901F090BA010091BB011091BC0185
:103B3000A090BD01B090BE01C090BF01D090C00167
:103B400080911E01843009F4EDC080911E01873000
:103B500009F4E8C0809184018823C9F480911E0192
:103B6000882321F080911E01833089F4C801B701B8
:103B7000695E7F4F8F4F9F4F2CE030E040E050E078
:103B80000E9413316F5F7F4F8F4F9F4F02C0C8015C
:103B9000B7012AE030E040E050E00E94133120936A
:103BA000B101809184018823C9F480911E0188238A
:103BB00021F080911E01833089F4C801B701695E4C
:103BC0007F4F8F4F9F4F2CE030E040E050E00E944D
:103BD00013316F5F7F4F8F4F9F4F02C0C801B701F6
:103BE0002AE030E040E050E00E9413316093B201DF
:103BF000C601B5012AE030E040E050E00E941331F8
:103C0000822F2093B401962F6093B50120911E015D
:103C1000222371F5809184018823A9F48091990170
:103C200080FF06C0809199018E3120F481E903C0A4
:103C30008AE801C080E98093B3018CE08093B601EB
:103C40008091820125C02AE02093B6012093B30120
:103C500080919901622F0E94E03080688093B701C3
:103C6000809199010E94E03090689093B80190C0D3
:103C700020911E012330E1F48AE08093B3018CE0AF
:103C80008093B60190918401992369F48091910108
:103C90008C3010F48DE001C08EE08093B7018FE08E
:103CA0008093B80175C08093B8018093B70170C04C
:103CB00020911E01213021F020911E01253099F420
:103CC0009093B7018093B6018BE08093B50180910A
:103CD000B2018093B4018091B1018093B3018CE073
:103CE0008093B8011AC020911E01223029F0209142
:103CF0001E01263009F04CC09093B7018093B601A5
:103D00008091B2018093B501E1EBF1E08091B101C6
:103D10008093B4018CE0878382838093B201809387
:103D2000B10136C0E114F1040105110561F0C701CC
:103D30001A2DAB2C40E0C3E0D0E02AE030E057E0A1
:103D4000852E912C06C0A114B104C104D10479F7C9
:103D50001FC0E42EFF24FE01EE19FF09EF54FE4FB1
:103D6000B9010E94EC30D62E072F8083F401EE19A2
:103D7000FF09EF54FE4F812F9A2DB9010E94EC30BC
:103D800080834F5F8D2D902F162FA72E443009F77B
:103D9000DF91CF911F910F91FF90EF90DF90CF9027
:103DA000BF90AF909F908F9008950F9380913101B5
:103DB000882309F455C001E080913401823008F075
:103DC00000E0809132016091330142E022E00E94E4
:103DD0000E2B809134018F5F80933401843010F07A
:103DE00010923401809132018823C9F490913301FB
:103DF000992359F4809134018E5F8093340184308B
:103E000010F01092340182E019C09E3320F49E5FBE
:103E10009093330125C09E3321F482E01FC08E377A
:103E200030F4909133019E3391F48E5F17C08E373A
:103E300081F4809133018E3321F48CE3809333013C
:103E40000FC0882311F08250F9CF8CE707C0882378
:103E500039F090913301992319F482508093320103
:103E60000F910895AF92CF92EF92FF920F931F930D
:103E700010E0FC01E40FF11DE017F1079CF00C0DC0
:103E8000111D0817190774F070E0FF24CB01820F91
:103E9000911D8E159F0534F0EA0CF11C81E0E616A9
:103EA000F7060CF480E01F910F91FF90EF90CF90F8
:103EB000AF9008957F928F929F92AF92BF92CF92D0
:103EC000DF92EF92FF920F931F93CF93DF93182F00
:103ED000762EA22EC42FD0E0CE0186FD39C0CC0FA5
:103EE000DD1FCC0FDD1F74E0872E912C8C0E9D1EE4
:103EF000FE01E758F74FC490B72C67E0E62EF12C8F
:103F0000DD24C6010E2C02C0959587950A94E2F730
:103F100080FF08C001E0A11000E0812F6B2D43E07D
:103F200025E005C0812F6B2D43E025E00A2D0E947E
:103F30000E2B0894E108F10895E0B90E8FEFE81612
:103F40008FEFF806F1F621961D5FC815D90581F6A9
:103F5000DF91CF911F910F91FF90EF90DF90CF9065
:103F6000BF90AF909F908F907F9008955F926F92D7
:103F70007F928F929F92AF92BF92CF92DF92EF92F9
:103F8000FF920F931F93CF93DF936C014901380188
:103F900050E0CA018C0D9D1D2FEF8F3F92070CF44E
:103FA00042C0562E569456945694C0E0D0E0B42E9B
:103FB000A52E36C0F401EC0FFD1FF080CE016B2D55
:103FC0007A2D0E94EC308C010097E1F4FE013196CD
:103FD000E80DF91D08C02196F190CE016B2D7A2DC8
:103FE0000E94EC308C01C8018C0D9D1D97FDF3CF14
:103FF000CE016B2D7A2D0E94EC30650D802F8C0D3B
:104000000E940A2E0C0D1D1D0038110544F4EE20EF
:1040100019F08F2D809501C08F2D0E94B12D219612
:10402000C615D70538F2DF91CF911F910F91FF9000
:10403000EF90DF90CF90BF90AF909F908F907F9048
:104040006F905F9008952F923F924F925F926F9280
:104050007F928F929F92AF92BF92CF92DF92EF9218
:10406000FF920F931F93DF93CF93CDB7DEB7C15667
:10407000D2400FB6F894DEBF0FBECDBF4A01CF5974
:10408000DD4F0883C156D2405E2DFE013196B0E669
:10409000EB2EB2E0FB2EDF0187011D920150104094
:1040A000E1F72D3408F069C0A22EBB24D501A80F7A
:1040B000B91FB7FD62C0803891050CF05EC0603456
:1040C00008F05BC0CC24DD24EE24FF242F013FC088
:1040D000F401EE0DFF1D3491469546954695E42F6B
:1040E000F0E0EA9D3001EB9D700CFA9D700C1124FC
:1040F000F601E770F070A1E0B0E002C0AA0FBB1FAC
:10410000EA95E2F77A2FD7011196A80DB91D432F32
:1041100012C0FD0114913196349009C0F301E10FF2
:10412000F11DE40DF51D2080272A20821F5F311626
:10413000A8F741501296442361F7E32FF0E0EE0F09
:10414000FF1F3196EE0EFF1E0894C11CD11C4C2D92
:10415000CF59DD4FF881C156D240CF1608F4B8CF01
:104160008501F3E0000F111FFA95E1F7422F9E0140
:104170002F5F3F4FE52E0E94B61FCF59DD4F0FB680
:10418000F894DEBF0FBECDBFCF91DF911F910F918D
:10419000FF90EF90DF90CF90BF90AF909F908F9067
:1041A0007F906F905F904F903F902F900895AF92C7
:1041B000BF92CF92DF92EF92FF920F931F93CF9314
:1041C000DF9380E060E040E820E401E00E940E2BF5
:1041D00084E290E060E046E354E029E300E4EE246A
:1041E000E3940E9423208091990190E005966CE36E
:1041F00070E00E940031909199018917E1F7C0E0C9
:10420000D0E00E94142EEE24FF24AA24DD24AA204C
:1042100069F5CE01895E9F4F21960E945031C82ECC
:104220008F3F29F4DD2061F1AA24A3941FC0DD2073
:1042300019F47E01E80EF11C8C2D880F8C0D8195F0
:10424000815C6D2D0E940A2E8E01BC2C0BC0C80112
:10425000895E9F4F0F5F1F4F0E94503160E00E94A8
:104260002D2CBA94BB2099F7CC0DD11DD3948D2D54
:10427000883069F684EF91E00E949C2AE701C1CF63
:10428000DF91CF911F910F91FF90EF90DF90CF9032
:10429000BF90AF900895EF920F931F93CF93DF934A
:1042A000EB01142F823009F1833059F1813069F02C
:1042B000CB01855B9F4F8B3C910508F0BDC0CB01C6
:1042C00060E048E650E02CE40BC0CB018996893AC7
:1042D000910508F0B1C0CB0160E04AEC51E02AE260
:1042E00000E4E12E0E942320A7C0CB01C796873BA4
:1042F000910508F0A1C0CB0160E048EA52E028E354
:10430000EFCFCB01C7968C35910548F4CB0160E027
:1043100048EA52E028E300E4E12E0E942320CE0187
:104320008F599F4F21E08533920750F4CE01C896F4
:1043300060E04AEC51E02AE200E4E12E0E942320F2
:10434000CE014E968630910550F49E01225E822F5A
:1043500065E00E940A2E809192016AE066C0CE015B
:1043600048968630910550F49E01285E822F65E0C4
:104370000E940A2E8091920164E649C0CE014296C5
:104380008630910588F49E012E5E822F65E00E94A2
:104390000A2E8091920104E6602F0E94E03090E0A6
:1043A00043966AE070E02AC0CE010C9680339105F6
:1043B00020F49E01245F822F04C0C432D105E4F1B1
:1043C00080E365E00E940A2E8091920104E6602F4E
:1043D0000E94E03090E04396CAE0D0E0BE010E9427
:1043E0000031862F805D612F0E942D2C80919201DB
:1043F000602F0E94E03090E04396BE010E940031A1
:10440000805D612F0E942D2C80919201602F0E946F
:10441000E030892F0AE0602F0E94E030805D612F3C
:104420000E942D2C80919201602F0E94E030892FF4
:10443000805D612F0E942D2CDF91CF911F910F91F4
:10444000EF9008950F931F93CF93DF93182F80E081
:1044500060E040E820E4012F0E940E2B0E942A1BFE
:104460000E94841D80911E018823A1F42AE02093DC
:10447000B30180918401813069F480919901622FA8
:104480000E94E0308093B701809199010E94E03052
:104490009093B80180911E01843021F080911E011B
:1044A000873061F48091B9019091BA01A091BB016C
:1044B000B091BC010097A105B10521F0C1EBD1E09D
:1044C00005E00DC08091BD019091BE01A091BF019A
:1044D000B091C0010097A105B10581F70AC04991CB
:1044E000802F6CE0212F0E945A1F015F0D37B9F712
:1044F0005AC00E94710980918A01882391F481E059
:1045000080938A01C4E9DFEF83E0BE01412F0E945E
:104510004B2180E190E00E949C2A2196C235D10572
:1045200099F782E064E270E0412F0E944B2180E322
:1045300065E00E940A2E8091920114E6612F0E948C
:10454000E03090E04396CAE0D0E0BE010E94003126
:10455000862F805D60E00E942D2C80919201612F5A
:104560000E94E03090E04396BE010E940031805DE1
:1045700060E00E942D2C80919201612F0E94E0301A
:10458000892F1AE0612F0E94E030805D60E00E9478
:104590002D2C80919201612F0E94E030892F805D47
:1045A00060E00E942D2CDF91CF911F910F91089513
:1045B0008F929F92AF92CF92EF92FF920F931F93A1
:1045C000DF93CF930F92CDB7DEB7F82E19821092FA
:1045D000700080912F01882321F081E0898310925F
:1045E0002F0181E08093700080911C01882311F4D9
:1045F0000E94841D80911E01843021F080911E0153
:10460000873071F480911F0190912001A0912101C8
:10461000B0912201181619061A061B060CF061C08B
:104620008091AB019091AC0121E08030920749F478
:104630008FEF90E09093AC018093AB018F2D0E949F
:104640002222E1EB8E2EE1E09E2E15E08981882367
:10465000B1F48091AB019091AC0160E048E320E4BB
:10466000012F7CE0E72E50E1C52E38E2A32E0E94F8
:10467000321F882321F4F401808187FF08C0F401F0
:1046800040814F77812F6CE02F2D0E945A1F089494
:10469000811C911C115F1D37C9F680911E01843069
:1046A00060F081E08093310190918C01809135011F
:1046B000981789F10E94D51E2EC080903201F0908B
:1046C000330113E0109334010E94D51E8091320112
:1046D0008815C1F7809133018F15A1F71092310130
:1046E0001AC080911C01882311F010921C0189814D
:1046F000882341F48091AB019091AC018F3F9105EB
:1047000009F04CF480E091E09093AC018093AB0110
:104710008F2D0E94222280918C01809335018091FF
:1047200099018093360119820F90CF91DF911F91EB
:104730000F91FF90EF90CF90AF909F908F90089542
:10474000CF93DF9380911E01882329F080911E0171
:10475000843009F0A2C080911B01882339F081E0E8
:1047600080932F0110921B010E942A1B80911C0133
:10477000882309F492C081E00E9422228CEC9FEFF2
:104780009093AC018093AB01CFE0D0E079C06F5F34
:104790007F4F81E041E00E944B2180E190E00E9448
:1047A0009C2A2091AB013091AC01C901BE010E944D
:1047B00000318630910521F5273031050CF10E943A
:1047C000841D8091AB019091AC01BE010E9400312B
:1047D000FB01EF54FE4F80E090E007C02081206491
:1047E000219301968430910531F09C01260F371FEB
:1047F000283031059CF381E080932F010E94D8225C
:104800008091AB019091AC018B32910581F584EFE1
:1048100091E00E949C2A10921C010E942A1B81E0B8
:1048200080931C010E94841D8091AB019091AC018A
:10483000BE010E940031FB01EF54FE4F80E090E08A
:1048400007C020812064219301968430910531F0C6
:104850009C01260F371F283031059CF381E080939F
:104860002F010E94D82284EF91E00E949C2A80911F
:10487000AB019091AC0101969093AC018093AB0198
:104880006091AB017091AC016A3871050CF47FCF77
:1048900010921C0180E00E942222DF91CF910895A6
:1048A0009C0160E971E00E94EC30009779F0C90149
:1048B00064E670E00E94EC30009751F02370307095
:1048C00081E02115310529F080E0089581E0089507
:1048D00080E008956F927F928F929F92AF92BF92E5
:1048E000CF92DF92EF92FF920F931F93CF93DF93BC
:1048F000882EC62E942E622E702EE41620F0E4161A
:1049000091F4281780F4862D672D4E2D282D0C2D1F
:10491000E92C0E946A24EE24FF248701E61AF70A94
:10492000080B190BBDC0861461F49E1409F048C031
:10493000E72CFF24EC18F1080027F7FC0095102F56
:10494000AFC09E14E9F5882D90E08A5F9D4F0E94CC
:10495000503190E08C1991097C010027F7FC0095FB
:10496000102F882D823041F4892D90E00E94502430
:10497000E80EF11C011D111DC82CDD240894C11C7A
:10498000D11CC62DD0E018C0C6018A5F9D4F0E9481
:104990005031E80EF11C011D111D82E0C816D10432
:1049A00041F4892D90E00E945024E80EF11C011D75
:1049B000111D0894C11CD11CCC16DD062CF36CC053
:1049C000882D90E08A5F9D4F0E94503190E08C19B5
:1049D00091095C01CC24B7FCC094DC2C882D82307A
:1049E00041F4892D90E00E945024A80EB11CC11CF6
:1049F000D11CC82DD0E014C0CE018A5F9D4F0E940B
:104A00005031A80EB11CC11CD11CC230D10541F4DB
:104A1000892D90E00E945024A80EB11CC11CD11C0D
:104A20002196CD30D10544F3C92DD0E021960E2D2D
:104A300010E00FC0CE010E94502490E083599E4F99
:104A4000AA2797FDA095BA2FA80EB91ECA1EDB1E75
:104A50002196C017D10774F301E010E0C62DD0E015
:104A600016C0C8018A5F9D4F0E945031A80EB11C2C
:104A7000C11CD11C0230110541F48E2D90E00E9422
:104A80005024A80EB11CC11CD11C0F5F1F4F0C1766
:104A90001D073CF386017501E70CF11C011D111D7A
:104AA000B701C801DF91CF911F910F91FF90EF9057
:104AB000DF90CF90BF90AF909F908F907F906F903E
:104AC0000895EF92FF920F931F93CF93DF93EB0123
:104AD000882341F4BA0180E090E02FEB32E040E01F
:104AE00050E009C0813009F5BA0180E090E020E192
:104AF00037E240E050E00E94C1307E0100E010E06B
:104B0000A80197010E941331CA01B901A8019701B8
:104B10000E9413312F3F31054105510539F030F026
:104B20002FEF30E040E050E001C0242F822FDF91D2
:104B3000CF911F910F91FF90EF9008952F923F9288
:104B40004F925F926F927F928F929F92AF92BF929D
:104B5000CF92DF92EF92FF920F931F93DF93CF9349
:104B6000CDB7DEB760970FB6F894DEBF0FBECDBFEE
:104B7000BC01DE011196E9E0F1E080E101900D92C7
:104B80008150E1F7FB0160807180828093802480F6
:104B900035804680578080E090E0A0E0B0E09C0146
:104BA000AD012370307040705070220F331F220F00
:104BB000331F11E0A12EB12CAC0EBD1E2A0D3B1DE2
:104BC000F901A080B180C280D380A80EB91ECA1E90
:104BD000DB1EA2019101F5E0569547953795279583
:104BE000FA95D1F782017101E4E0EE0CFF1C001F81
:104BF000111FEA95D1F72E253F2540275127220D79
:104C0000331D441D551DA226B326C426D5266A0C85
:104C10007B1C8C1C9D1C87549648A84CB146A40153
:104C20009301F5E05695479537952795FA95D1F775
:104C300084017301E4E0EE0CFF1C001F111FEA95D4
:104C4000D1F72E253F2540275127260D371D481D1A
:104C5000591D7C018D01FBE016950795F794E794AB
:104C6000FA95D1F7E3E0AE2EB12CC12CD12CEA207D
:104C7000FB200C211D21F701EE0FFF1FEE0FFF1F80
:104C800011E0C12ED12CCC0EDD1EEC0DFD1DE080FF
:104C9000F18002811381E80EF91E0A1F1B1F2E25C9
:104CA0003F2540275127220E331E441E551E8032B9
:104CB00007E390070FEEA00706ECB00709F06FCFEF
:104CC000FB016082718282829382248235824682D5
:104CD000578260960FB6F894DEBF0FBECDBFCF915E
:104CE000DF911F910F91FF90EF90DF90CF90BF90D9
:104CF000AF909F908F907F906F905F904F903F907C
:104D00002F9008956F927F928F929F92AF92BF9251
:104D1000CF92DF92EF92FF920F931F93DF93CF9387
:104D2000CDB7DEB728970FB6F894DEBF0FBECDBF64
:104D3000962F342F7C2C6A2C4A2D4150423008F09B
:104D400041C0422F50E060E070E05961A02EBB24CA
:104D5000CC24DD24DA2CCC24BB24AA244A295B29C8
:104D60006C297D29AE2CBB24CC24DD246501BB2419
:104D7000AA244A295B296C297D2949835A836B839C
:104D80007C834A8D50E060E070E0762F652F542FD1
:104D90004427AB8CBB24CC24DD244A295B296C2915
:104DA0007D29626BAC8CBB24CC24DD24DA2CCC2492
:104DB000BB24AA244A295B296C297D294D835E8363
:104DC0006F837887692F432F0E946A242AE030E09E
:104DD00040E050E00E94C1307B018C0125E43EE0C0
:104DE00040E050E00E9413315901772029F48AE80D
:104DF0009CE1A4E0B0E004C086E39BE6A4E0B0E060
:104E00009C01AD012E193F09400B510B69017A013C
:104E1000082D10E00E32110524F40831110524F09C
:104E200005C00DE210E002C008E110E088EE882E17
:104E30008FEF982E800E911E362D333009F0AEC0C4
:104E4000772009F054C089E190EFADEFBFEFC80EB5
:104E5000D91EEA1EFB1E998D913029F500E010E065
:104E6000C80181519E4F0E945831A816B906B0F46E
:104E7000C8018F509E4F0E9458319C01880F991F86
:104E8000A3E0220F331FAA95E1F7820F931FA0E042
:104E9000B0E0C81AD90AEA0AFB0A05C00C5F1F4F26
:104EA0000C301105E9F688E291E00E94503190E063
:104EB000A816B90664F08FE391E00E94503190E0AB
:104EC000A816B9060CF080C121E030E002C020E055
:104ED00030E047E150E0249FC001259F900D349FB2
:104EE000900D1124880D991D875D9E4F3DC02CE4C7
:104EF00035EC4DEF5FEFC20ED31EE41EF51E00E051
:104F000010E0C80185509E4F0E945831A816B9067E
:104F1000B0F4C80183509E4F0E9458319C01880F05
:104F2000991FE3E0220F331FEA95E1F7820F931FE9
:104F3000A0E0B0E0C81AD90AEA0AFB0A05C00C5F73
:104F40001F4F0C301105E9F600E010E0C8018A5A45
:104F50009E4F0E94503190E0A816B906CCF4080D7F
:104F6000191DC801895A9E4F0E945031482F50E0A8
:104F700025E43EE0429FC001439F900D529F900D5B
:104F80001124A0E0B0E0C81AD90AEA0AFB0A1CC141
:104F9000095E1F4F05341105C9F616C1772009F0C7
:104FA0003FC0398D313029F500E010E0C801855649
:104FB0009E4F0E945831A816B906B0F4C801835616
:104FC0009E4F0E9458319C01880F991F63E0220F69
:104FD000331F6A95E1F7820F931FA0E0B0E0C81A73
:104FE000D90AEA0AFB0A05C00C5F1F4F0C321105F3
:104FF000E9F600E010E0F801EF53F74FE491F0E03C
:10500000AE16BF063CF4080D191D0E53174FF801DC
:1050100004913EC0095E1F4F0A38110561F74EC06A
:10502000F98DF13029F500E010E0C80189539E4F59
:105030000E945831A816B906B0F4C80187539E4F94
:105040000E9458319C01880F991F43E0220F331FA3
:105050004A95E1F7820F931FA0E0B0E0C81AD90A81
:10506000EA0AFB0A05C00C5F1F4F08321105E9F67A
:1050700000E010E0F801E55BF64FE491F0E0AE16D9
:10508000BF06BCF4080D191D045B164FF80104910E
:1050900010E025E43EE0029FC001039F900D129FA7
:1050A000900D1124A0E0B0E0C81AD90AEA0AFB0A60
:1050B00005C0095E1F4F013A1105E1F6F62DF230E9
:1050C00009F042C08DEA882E8EE8982EA12CB12CD2
:1050D0008C0C9D1CAE1CBF1C89819A81AB81BC814C
:1050E00088259925AA25BB2589839A83AB83BC8310
:1050F000CE0101960E949E2569817A818B819C81D7
:105100007F778070907028EE33E040E050E00E949E
:10511000C1302FEF3FE740E050E00E941331CA0159
:10512000B90126E036ED40E050E00E94C13028EEA3
:1051300033E040E050E00E94133169017A01C80C6D
:10514000D91CEA1CFB1C40C0262D2130E9F58CEF50
:1051500099E2AFEFBFEFC80ED91EEA1EFB1E8D818C
:105160009E81AF81B8858C259D25AE25BF258D8379
:105170009E83AF83B887CE0101960E949E256D81E4
:105180007E818F8198857F778070907028EE33E0E4
:1051900040E050E00E94C1302FEF3FE740E050E098
:1051A0000E941331CA01B90122EB3EE840E050E011
:1051B0000E94C13028EE33E040E050E00E941331FD
:1051C000C21AD30AE40AF50AF7FC0BC0C701B601FC
:1051D00020E930E040E050E00E94C1309B01AC018A
:1051E00004C020E030E040E050E0B901CA01289658
:1051F0000FB6F894DEBF0FBECDBFCF91DF911F91E8
:105200000F91FF90EF90DF90CF90BF90AF909F9065
:105210008F907F906F9008959093C5008093C40005
:1052200088E18093C1008EE08093C200519A50982B
:10523000089505C081509EE100009150E9F7882350
:10524000C9F708959091C00095FFFCCF8093C600E8
:1052500080E090E008958091C00087FFFCCF8091AE
:10526000C60008958091C00080780895EF92FF9263
:105270001F93DF93CF930F92CDB7DEB77C0110E081
:1052800005C069830E9422291F5F6981F701E10F30
:10529000F11D84918823A9F7662331F08AE00E94EA
:1052A00022298DE00E9422290F90CF91DF911F913A
:1052B000FF90EF900895EF92FF92CF93DF93E82E47
:1052C000E7017E01F92EE70102C00E94222989919F
:1052D0008823D9F7DF91CF91FF90EF9008951F9326
:1052E000182F82958F708A3010F4805D01C0895A22
:1052F0000E942229212F30E02F703070812F8F7073
:105300002A30310514F4805D01C0895A0E94222997
:105310001F9108951F93182F892F0E946F29812FA5
:105320000E946F291F910895EF92FF920F931F9390
:105330007B018C01C8010E948A29C7010E948A2929
:105340001F910F91FF90EF900895AF92BF92CF926F
:10535000DF92EF92FF920F931F93CF93DF938C0115
:1053600095E0E92EF12C20E0C0E1D7E28AE0C82EDA
:10537000D12CC801BE010E94EC30B62E662329F460
:10538000222319F4C130D10529F48B2D805D0E94B0
:10539000222921E0CE01B6010E94EC300894E108F8
:1053A000F108E114F10489F04B2D50E04C9FC0014D
:1053B0004D9F900D5C9F900D1124081B190BA62E7C
:1053C000E5015E01B72EE501D4CFDF91CF911F91AA
:1053D0000F91FF90EF90DF90CF90BF90AF90089526
:1053E000AF92BF92CF92DF92EF92FF920F931F93F3
:1053F000CF93DF93D82E87FF04C08DE20E9422292D
:10540000D19403E010E020E0C4E6D0E03AE0E32EDF
:10541000F12C8D2D992787FD9095BE010E94EC30CF
:10542000C62E16162CF0222319F4C130D10529F40A
:105430008C2D805D0E94222921E0CE01B7010E94BF
:10544000EC300150104051F0CC9EC02C1124DC18DF
:10545000462FEA015E01B72EE501DBCFDF91CF9148
:105460001F910F91FF90EF90DF90CF90BF90AF9082
:1054700008954F925F926F927F928F929F92AF9218
:10548000BF92CF92DF92EF92FF920F931F93CF9331
:10549000DF935B016C01CAE0D0E04424E12C4AECCC
:1054A000F42E4AE9042F4BE3142FC601B501A801DD
:1054B00097010E941331922E222341F4442031F4AB
:1054C00081E0E816F1040105110531F4892D805DB4
:1054D0000E94222944244394C801B7012AE030E005
:1054E00040E050E00E941331822E732E642E552E20
:1054F000219789F0692D70E080E090E0A801970184
:105500000E94C130A61AB70AC80AD90AE82CF72C9B
:10551000062D152DCACFDF91CF911F910F91FF90CE
:10552000EF90DF90CF90BF90AF909F908F907F9043
:105530006F905F904F900895282F392FC90120E276
:105540003EE407C0F9013197F1F78A30910518F070
:105550000A970097B9F708951F93182F05C088EE92
:1055600093E00E949C2A11501123C9F71F910895BE
:10557000EF92FF920F931F93F82E162F062F06958A
:1055800006950695602F0E940A2E0E94642D0E94A7
:10559000642DE82E8F2D602F0E940A2E177021E0B7
:1055A00030E002C0220F331F1A95E2F78E2D822BB6
:1055B0000E94B12D80E00E94FD2D1F910F91FF9060
:1055C000EF900895EF92FF920F931F93F82E162FEE
:1055D000062F069506950695602F0E940A2E0E94BA
:1055E000642D0E94642DE82E8F2D602F0E940A2EBC
:1055F000177021E030E002C0220F331F1A95E2F746
:10560000822F80958E210E94B12D80E00E94FD2D79
:105610001F910F91FF90EF90089508952F923F9260
:105620004F925F926F927F928F929F92AF92BF92B2
:10563000CF92DF92EF92FF920F931F93DF93CF935E
:105640000F92CDB7DEB7182F962F742ED22E37E0DB
:10565000B32EB62209F462C0862E86948694869470
:10566000AA246B2C4B2C552447FC5094262E332413
:1056700027E0222233242D0C311C21E0E22EF12CD4
:1056800039C09A2C910E892D682D99830E940A2E7B
:105690000E94642D0E94642DC82E40E050E0998144
:1056A00015C0013041F4970102C0220F331FEA9563
:1056B000E2F7C22A09C0970102C0220F331FEA9500
:1056C000E2F7F901E095CE224F5F5F4FFA01E40D5A
:1056D000F51DE215F30524F4862D840F883009F7B3
:1056E000892D682D99830E940A2E8C2D0E94B12D40
:1056F000A3949981A71428F24D2D50E0892F87702B
:1057000028E030E0281B31092417350724F48B2DBD
:105710008850D80E01C0DD24987F985FC92EC694AA
:10572000C694C694A92EBB24AD0CB11C93E0B594CD
:10573000A7949A95E1F711C0812F6C2D0E940A2E33
:10574000EE2408C0013011F48FEF01C080E00E9408
:10575000B12DE394E714B0F3C3948C2D90E08A1537
:105760009B0554F38D2D8770C1F1BB24E82EFF24D7
:1057700081E0882E912C2FC0AB2CA10E8A2D6C2D90
:105780000E940A2E0E94642D0E94642DD82E20E0D3
:1057900030E016C0013049F4C401022E02C0880F67
:1057A000991F0A94E2F7D82A09C0A401022E02C068
:1057B000440F551F0A94E2F74095D4222F5F3F4FC4
:1057C0002E153F053CF38A2D6C2D0E940A2E8D2D3F
:1057D0000E94B12DB394B71478F280E00E94FD2DA1
:1057E0000F90CF91DF911F910F91FF90EF90DF907D
:1057F000CF90BF90AF909F908F907F906F905F9071
:105800004F903F902F900895DF92EF92FF920F9369
:105810001F93182FF62EE42ED22E41E001E00E94B5
:105820000E2B812F81508E0D6F2D41E02D2D0E946A
:105830000E2B812F6F2D4E2D21E00E940E2B6F2DF0
:1058400061506D0D812F4E2D21E00E940E2B1F9176
:105850000F91FF90EF90DF900895DF92EF92FF920B
:105860000F931F93CF93DF93D62E95E0899FC001AE
:105870001124EC01C05AD04045E6E42E4FEFF42E3F
:10588000E80EF91E8E01DD2039F0CE018D5E9D4FB0
:105890000E945031809505C0C8018D5E9D4F0E94C9
:1058A00050310E94B12D21960F5F1F4FCE15DF059D
:1058B00051F7DD2011F08FEF01C080E00E94B12D83
:1058C00080E00E94FD2DDF91CF911F910F91FF90FD
:1058D000EF90DF9008950F931F93CF93DF9320E015
:1058E00090E007C0C451D64FFE0134913F5F230FB3
:1058F0009F5FC22FD0E09817A8F3FE01E451F64F46
:105900000491219610E008C0FE01E451F64F849105
:105910000E94B12D1F5F21961017B0F3DF91CF9138
:105920001F910F910895EF92FF921F93CF93DF93F2
:10593000162FE82EE7017E01F92EE70103C0612F43
:105940000E942D2C89918823D1F7DF91CF911F914F
:10595000FF90EF9008950F931F93CF93DF93EC0187
:10596000062F10E004C0602F0E942D2C1F5FFE0147
:10597000E10FF11D84918823B1F7DF91CF911F9141
:105980000F9108952F982D982C9840985A98279AFF
:10599000259A249A389A529A8BB18F708BB985B117
:1059A000807F85B98AB1806F8AB984B18F6084B9EC
:1059B000089540985A98882319F0813021F402C044
:1059C000409A08955A9A0895F8940E94D92C8BB160
:1059D000806F8BB985B18F6085B92F988AB18F7030
:1059E0008AB984B1807F84B92D9A2C9A0000000076
:1059F0000AC02C9800000000000000002C9A000053
:105A000000000000000089B193B187FDF2CF2C980F
:105A10002D988AB1806F8AB984B18F6084B97894E7
:105A20000895DF93CF930F92CDB7DEB7F8946983D3
:105A30000E94E42C2F982D982C9A8AB1806F8AB9F5
:105A400084B18F6084B98BB18F708BB99BB1698140
:105A5000862F807F892B8BB985B1807F85B985B1F1
:105A60006F70682B65B900000000000000000000A6
:105A70000000000000002C9878940F90CF91DF91E7
:105A80000895F8940E94E42C2F988AB18F708AB9F7
:105A900084B1807F84B92D9A2C9A00000000000008
:105AA0000000000000000000000089B193B12C98B4
:105AB0002D982AB1206F2AB924B12F6024B9789487
:105AC0009F70807F892B08958091C1018295869572
:105AD00086958370F8940E94E42C2F9A8AB18F7077
