:100000000C94E0040C94FD040C94FD040C945B1B14
:100010000C94FD040C94FD040C94FD040C94FD045C
:100020000C94FD040C943C080C94FD040C94720593
:100030000C94FD040C94FF040C9411050C94FD0425
:100040000C94FD040C94FD040C94FD040C94FD042C
:100050000C94FD040C94B31A0C94FD040C94FD0450
:100060000C94EA2F0C94FD040000012226011C2BA5
:10007000011A2D01182E0117300116310115320118
:1000800014330113340112350112350111360111F7
:1000900036011137011037011037011038011038BF
:1000A00001103801103803060810384143030409D1
:1000B00010383F4404030A10181E373E4505030A52
:1000C000111820292E373E4605030C111721283020
:1000D000373D4605020E1117222830373B460502F0
:1000E0000F1218212931363947050110131A1F291B
:1000F0003036384704011013292F353847040210D1
:1001000013292D35384704031113242735374606A4
:1001100005060C1113222735373C4245040F1113F5
:10012000212635373A0214202735021420283502BB
:10013000152028350216252734011B31011C2E01FC
:100140001D2D011D2C031819242B303205181A25DA
:10015000262B2B30323535041416181A303134372B
:10016000071116191A1D1F2124262D3031343A0388
:100170000E161931343C0504060B161931343F4470
:1001800048030217193033490301171A2F33490363
:1001900001151B2F364A0301131C2E384903011089
:1001A0001D2D3A4903010D1E2B3D4903020B212948
:1001B000404802020A404802020A4148020309413B
:1001C0004702040842460000000000000000000151
:1001D000171B01121F011022010F24010E25010D12
:1001E00027020C101D27020B0E2028020A0C2227C2
:1001F000030A0B141C222603090A101D21230308DD
:10020000090F1C2123020F1C212202101C20220294
:10021000111C202202121B1F2102121B1F2102117E
:100220001B1F2002101B1E20020F1A1E20020E1A76
:100230001D1F020E1A1D1F020D1A1D1E020D191C74
:100240001E020C191C1E010C1D010B1D010B1E01B1
:100250000B1D010B1D010A1C010A1B010A1A010AD0
:100260001A010A1A010A1A010A19010919010919C0
:1002700001091901091A01091A01091A01081A01CB
:10028000081B01071B01061B01041B01021B0101C6
:100290001C01021D01031E01042001051F01081D90
:1002A000010D1A0111150000000000011219010EC4
:1002B0001E010C21010A2303090C1214192503083D
:1002C0000A14141C260207091E2802060820290207
:1002D0000607222A020507232B020506242C020505
:1002E00006262D020506272E020506272E030405E5
:1002F000090A282F030406080E292F0304060811F3
:100300002930040406081317192A30060406080BBE
:100310000F13171A1E202A31060406080B11141792
:10032000191E252B31050406081416191E272B311A
:10033000050405081316191E282B31070406080B9F
:100340000D1216191E2125292B32070405080A0E45
:100350001116191E2126292C32060405070A0F1230
:1003600016191D292C32060405070A0F1216191D2D
:10037000282C32060406090A101316191D272C32E0
:10038000050406111416181D202B3205040613133C
:1003900016181D202A320304061D202C32020406E2
:1003A0002C320204062C320204062C320204062CE3
:1003B000320204062C320204062C320205062C32CC
:1003C0000204052C320204052C320204052B3202F1
:1003D00004052B320204052C320204072C320205DC
:1003E000072C320205072C320205062C32020406C5
:1003F0002C320203082C320203092C320201092C90
:10040000340403080D1014152C34020F152C33037B
:10041000121A2C32343602141D2C350215202C34BD
:100420000315181D242C330220272C3201233201FE
:100430002731012B2D000000000001212101202186
:10044000011E22011D22011C22011B23011A23016E
:100450001A23011924011824011824011824020365
:1004600009172402010E172402011017240201119A
:100470001624030113161C2024030114161B202428
:1004800002011B202402021A202404020F111A2048
:10049000252A2D03020E141A203003030E161A1FEC
:1004A0003103030E171A1F3303040F181A1E3403E7
:1004B0000511181A1D35020712183602091E2737B2
:1004C000020A1D2836020B1D2836020B1D28350393
:1004D0000B1318202634030A12181B1D34030911AC
:1004E000181A1E33030710171A1F33040710161AA1
:1004F0001F23263204060F161A1F23283104050F66
:10050000141A20242A2F03050F131A202402041B77
:10051000202502041B2025030415181B2026030395
:1005200014181C202602031318270203121827028E
:100530000311192702030F192702030C1927011AA7
:1005400027011A27011B27011C26011D26011E2534
:10055000012024000000000020736574207365638F
:100560007300207365630020736574206D696E737A
:1005700000206D696E002073657420686F757200CD
:100580002068722E0020736574206D696E730020E0
:100590006D696E002073657420686F757200206845
:1005A000722E00746F20746865206E6578742070F8
:1005B0006167652E20202020005072657373204DE6
:1005C000454E5520746F20616476616E636500202E
:1005D0007365742079656172002079722E00207332
:1005E0006574206D6F6E2E00206D6F6E0020736538
:1005F00074206461746500206461790020736574FF
:100600002064617465002064617900207365742042
:100610006D6F6E2E00206D6F6E00436F6E666967A2
:1006200075726174696F6E204D656E7500536574E7
:10063000204261636B6C696768743A2000455520FD
:1006400032346872004555203132687200555320AB
:100650003234687200555320313268720053657429
:1006600020726567696F6E3A20005365742044619B
:1006700074653A202020005365742054696D653AF2
:10068000200053657420416C61726D3A2020002077
:100690007365742068742E20002068742E00207307
:1006A000657420626D69200020626D6900207365A9
:1006B000742077742E20002077742E0020736574C8
:1006C00020756E6974002075742E00207365742087
:1006D00079656172002079722E0020736574206D37
:1006E0006F6E2E00206D6F6E002073657420646144
:1006F00074650020646179002073657420646174FE
:100700006500206461790020736574206D6F6E2E22
:1007100000206D6F6E004D656E7500436F6E6669EB
:10072000670044656174684368726F6E00204E6FA5
:100730000059657300536D6F6B65723F3A2020203E
:1007400020202020202000202020202020202020C9
:1007500000424D493A00636D006B6720004D65749F
:100760003A006674006C622000496D703A0053656F
:100770007420002020205361646973746963002031
:100780004F7074696D697374696300506573736940
:100790006D69737469630020202020204E6F726D94
:1007A000616C00536574204D6F64653A0046656D59
:1007B000616C650020204D616C65005365742047B5
:1007C000656E6465723A2020200053657420444FA2
:1007D000423A2020002073617665202020200020EE
:1007E0002020200050726573732053455420746F8D
:1007F000005072657373202B20746F206368616EE4
:1008000067650050726573732053455420746F20E0
:100810007365742020202020005072657373204D72
:10082000454E5520746F2065786974202020005053
:1008300072657373204D454E5520746F2061647648
:10084000616E6365006800CA01A8023604FF8181F9
:10085000FF000000FF9F9191F1919191FFF0101026
:10086000FFF191919FFF91919F808080FFFF919177
:10087000FFF19191FF00666600001818000000006B
:1008800000FF9090FFFF9090F09F90909F0060601D
:100890000000060600140000000000000000000038
:1008A0000000000000000000000000002800000020
:1008B000000101010102020203030304040405050F
:1008C00006060832000000000001010101020202D8
:1008D000020303040404050505073C0000000000B2
:1008E00000010101010202020303030404040505DF
:1008F000064600000000010101010102020202039C
:100900000303040404040000C80000000000000009
:1009100000000000000000000000000000000514BE
:1009200000000000000000000000000000000000C7
:100930000000000000001E00000001010101020291
:100940000303030404050506060707080D28000035
:10095000000101010102020203030304040505066C
:100960000606070B3200000000000101010202022E
:10097000030303040404050506060A3C0000000006
:100980000000000101010102020203030304040448
:1009900005074600000000000000000101010102FF
:1009A000020202020303030305C800000000000066
:1009B000000000000000010101010101010102022B
:1009C00011241FBECFEFD8E0DEBFCDBF12E0A0E004
:1009D000B1E0EAE6F0E702C005900D92A232B1075D
:1009E000D9F712E0A2E2B2E001C01D92AF3CB1071C
:1009F000E1F70E94170C0C9433380C9400001F92FE
:100A00000F920FB60F9211248F939F9388B198E0A5
:100A1000892788B99F918F910F900FBE0F901F90DB
:100A200018951F920F920FB60F9211248F939F93D8
:100A300080912D0290912E02892B49F080912D02F8
:100A400090912E02019790932E0280932D02809117
:100A50009D0290919E02892B49F080919D02909178
:100A60009E02019790939E0280939D0280919B022B
:100A7000882389F180912B0290912C02892B59F5C2
:100A800080918F0290919002892BE1F48CE291E0A9
:100A90009093900280938F0280918100882379F453
:100AA0001092800089E08093810083E080936F0042
:100AB00088EE93E0909389008093880003C01092A1
:100AC0008100439880918F029091900201979093BA
:100AD000900280938F029F918F910F900FBE0F9085
:100AE0001F9018951F920F920FB60F9211248F939B
:100AF0009F9388B198E0892788B99F918F910F9033
:100B00000FBE0F901F901895AF92BF92CF92DF92B9
:100B1000EF92FF920F931F93E62E1092800029E030
:100B20002093810023E020936F009C0140E050E07F
:100B300060E079E08DE390E00E94B0373093890067
:100B400020938800FF2400E010E0C801B7010E9454
:100B5000CE345B016C0120E030E04AEF54E40E94A7
:100B6000F0327B018C0120E030E040E85FE30E943E
:100B70004A3488231CF461E070E024C0C801B70146
:100B800020E03FEF4FE757E40E94EA331816B4F431
:100B9000C601B50120E030E040E251E40E94F032AD
:100BA0000E941A3188EC90E005C0FC013197F1F702
:100BB0006150704061157105C1F707C0C801B701E8
:100BC0000E941A31CB010197F1F7109281004398EE
:100BD0001F910F91FF90EF90DF90CF90BF90AF905B
:100BE0000895FC0183709070892B39F4CF0164E67D
:100BF00070E00E946737892B49F420E030E0CF0194
:100C000060E971E00E946737892B11F421E030E040
:100C1000822F08950895482F6AE00E945B37282F9D
:100C200030E084E0220F331F8A95E1F7842F0E9481
:100C30005B37892F822B089588E592E090932C02F0
:100C400080932B0210928100439810929C02089589
:100C50001E9B16C080919702882359F1109297022B
:100C60001092A20210922C0210922B0280919B02F1
:100C70008823F9F010929B02109281004398089506
:100C8000809197028823A9F481E0809397021092C3
:100C90002C0210922B0280912602843010F483E003
:100CA00001C087E08093260283E0809325020E94A2
:100CB000801B0895FF920F931F938C01F62E64E61C
:100CC00070E00E946737862F805D6F2D0E94542B45
:100CD000C80164E670E00E9467376AE070E00E9435
:100CE0006737862F805D6F2D0E94542BC8016AE004
:100CF00070E00E946737805D6F2D0E94542B1F911A
:100D00000F91FF900895FF920F931F938C01F62E81
:100D10006AE070E00E946737862F805D6F2D0E9429
:100D2000542BC8016AE070E00E946737805D6F2D28
:100D30000E94542B1F910F91FF900895CF92DF9244
:100D4000EF92FF920F931F93DF93CF93CDB7DEB750
:100D500028970FB6F894DEBF0FBECDBF162FF42E26
:100D6000D22EFE01319698E0DF011D929A95E9F7A7
:100D700019820E940B068A83812F0E940B068B83A7
:100D80008F2D0E940B068C838D2D0E940B068D8368
:100D9000802F0E940B068E838E2D0E940B068F8360
:100DA0008C2D0E940B068887F89480ED68E0AE01D8
:100DB0004F5F5F4F0E94502F78948823D9F008EC42
:100DC00010E080EA9FE064E60E94840588EE93E0EC
:100DD000F8013197F1F70197D9F780EA9FE064E6CF
:100DE0000E94840580E197E2F8013197F1F70197BD
:100DF000D9F7E7CF28960FB6F894DEBF0FBECDBF68
:100E0000CF91DF911F910F91FF90EF90DF90CF90E6
:100E100008950F931F93DF93CF93CDB7DEB7299734
:100E20000FB6F894DEBF0FBECDBF1982F89480EDE7
:100E300061E0AE014F5F5F4F0E94502F8823D9F0D1
:100E400008EC10E080EA9FE064E60E94840588EEEA
:100E500093E0F8013197F1F70197D9F780EA9FE025
:100E600064E60E94840580E197E2F8013197F1F78A
:100E70000197D9F7E7CF80ED67E0AE014E5F5F4F96
:100E80000E94972F78948823D9F008EC10E080EA2C
:100E90009FE064E60E94840588EE93E0F8013197B4
:100EA000F1F70197D9F780EA9FE064E60E94840594
:100EB00080E197E2F8013197F1F70197D9F7E7CF91
:100EC0007A81872F82958F7090E0877090709C0157
:100ED000A3E0220F331FAA95E1F7880F991F280F6F
:100EE000391F872F8F70820F8093A1024B81842F2F
:100EF00082958F7090E0877090709C01E3E0220FE4
:100F0000331FEA95E1F7880F991F280F391F4F709B
:100F1000420F409395028C81482F42954F70682F65
:100F20006F7086FF22C082958695877090E08170F1
:100F300090709C01220F331F280F391F220F331F7F
:100F4000220F331F842F90E081709070AC0103E07A
:100F5000440F551F0A95E1F7880F991F480F591F35
:100F6000240F260F20938A0211C0842F90E08370F3
:100F700090709C01B3E0220F331FBA95E1F7880F00
:100F8000991F280F391F620F60938A024E81842FA8
:100F900082958F7090E0837090709C01F3E0220F37
:100FA000331FFA95E1F7880F991F280F391F4F70EB
:100FB000420F409393024F81842F82958F7090E06F
:100FC000817090709C0163E0220F331F6A95E1F7F6
:100FD000880F991F280F391F4F70420F40939F02AF
:100FE0002885822F82958F703AE0839FC00111245B
:100FF0002F70280F20938D02872F807829960FB6A7
:10100000F894DEBF0FBECDBFCF91DF911F910F913E
:101010000895CF92EF920F930E94AA2E0E94090783
:10102000882359F080E060E04CE020E001E0EE240D
:10103000E394B9E0CB2E0E949E060E94090781E04E
:1010400090E00E9402386CE30E945B3790938E021E
:1010500080E090E00E94023868E10E945B37909344
:10106000990287E08093B10081E0809370007894CA
:101070000F91EF90CF9008951F920F920FB60F929D
:101080001124EF92FF920F931F932F933F934F934F
:101090005F936F937F938F939F93AF93BF93EF93E0
:1010A000FF93A89580912F02803599F410922F021A
:1010B000809194028F5F80939402E090A10200914E
:1010C0009502F0908A028091A702833031F010E0FF
:1010D0000AC08F5F80932F0266C18091A1026FE0EA
:1010E0000E945B37182F0E94090780918A028F1592
:1010F00031F081E080932402F092960208C0409182
:101100009502401709F445C081E0809323020093C3
:101110008B028091270290912802A0912902B09120
:101120002A028093A3029093A402A093A502B093F5
:10113000A6028091270290912802A0912902B091E5
:101140002A02181619061A061B060CF05AC020911E
:101150002702309128024091290250912A02809161
:10116000A702833029F081E090E0A0E0B0E004C065
:1011700084E090E0A0E0B0E0281B390B4A0B5B0B49
:1011800020932702309328024093290250932A0289
:1011900038C08091A7028330A1F5809127029091F9
:1011A0002802A0912902B0912A020097A105B10559
:1011B00041F18091A702833019F020E030E007C0B0
:1011C0008091A1026FE00E945B37282F30E0812FD1
:1011D00090E028173907A9F081E08093230240931B
:1011E0008B028091270290912802A0912902B09150
:1011F0002A028093A3029093A402A093A502B09325
:10120000A6028091A1028E1509F445C080919B022F
:10121000882359F080912B0290912C02009729F09D
:10122000019790932C0280932B02809125028823B2
:1012300091F18091250281508093250280912502B1
:10124000882349F580912602843020F084E0809341
:10125000260202C01092260280912402882329F0DF
:101260008091960280938A0204C080912302882391
:1012700021F080918B02809395020E94801B8091C7
:101280002402882321F480912302882321F0F09204
:101290008A020093950280919C02843061F08091D3
:1012A0009C02853041F080919C02883021F0809131
:1012B0009C02863099F580913202882379F584E486
:1012C00062E00E94632E80918A0260E00E941A0E02
:1012D0008AE360E00E94542B8091950290E060E0E8
:1012E0000E9483068AE360E00E94542B8091A10251
:1012F00090E060E00E94830680918C02882371F464
:1013000080E260E00E94542B80918A028C3010F0C1
:1013100080E501C081E460E00E94542B8091970237
:10132000882399F08091A102882379F49091950205
:1013300080918E02981749F490918A0280919902C7
:10134000981719F481E08093A202809123028823E8
:1013500069F480912402882349F48091A2028823B1
:1013600029F081E080939B021092A20280913002CA
:10137000863039F41092300280913602882329F4A5
:1013800009C08F5F809330020EC080913602815079
:101390008093360280913102882329F080913102B6
:1013A000815080933102FF91EF91BF91AF919F9156
:1013B0008F917F916F915F914F913F912F911F91ED
:1013C0000F91FF90EF900F900FBE0F901F90189508
:1013D000EF92FF920F931F93F82E162FE42E21E029
:1013E00001E00E94B62BFE0C0F2D02501150802FF1
:1013F000612F0E94F92C1E5F802F612F0E94F92C13
:1014000001501350802F612F0E94F92C1C5F802FF8
:10141000612F0E94F92C1F910F91FF90EF9008957A
:101420001F93182F07C080919702181719F082E0B8
:101430000E9455228091350281FDF5CF1F910895BC
:101440006F927F928F929F92AF92BF92CF92DF92D4
:10145000EF92FF920F931F938DE090E00E9402386D
:101460008093A70286E090E00E940238682E87E011
:1014700090E00E940238782E88E090E00E940238C6
:10148000B82E89E090E00E940238982E8AE090E021
:101490000E940238082F8BE090E00E940238D82E7C
:1014A0008CE090E00E940238C82EA090A7028EE047
:1014B00090E00E940238182F81E190E00E940A38E3
:1014C0007C018FE090E00E940A38AC01812FB701C7
:1014D0000E94BD24882E83E190E00E940238E82E0D
:1014E00084E190E00E940238F82E85E190E00E94AD
:1014F0000238182F86E190E00E94023800D000D018
:10150000EDB7FEB731969CE6B90ED90EADB7BEB7B2
:101510001196EC92F18212838383862D672D4B2DD9
:10152000292DED2C0E94D7260F900F900F900F9031
:101530001F910F91FF90EF90DF90CF90BF90AF90F1
:101540009F908F907F906F900895DF92EF92FF921F
:101550000F931F9389E090E00E9402388093A002CD
:101560008AE090E00E940238809389028BE090E04C
:101570000E94023880939A020E94200A7B018C010B
:10158000DD24D39450C0809189028F5F80938902BB
:1015900080918902803268F5809189028F3181F4CF
:1015A0008091A002843029F18091A002863009F157
:1015B0008091A0028930E9F08091A0028B30C9F0BF
:1015C000809189028E3121F48091A002823089F0CD
:1015D000809189028D31A1F48091A002823081F442
:1015E00080919A0290E08459984F0E94F1058823D7
:1015F00039F4D09289028091A0028F5F8093A0027B
:101600008091A0028D3038F0D092A00280919A0291
:101610008F5F80939A0280E69AEFAFEFBFEFE80EFC
:10162000F91E0A1F1B1F90EAE91695E0F90690E0E3
:10163000090790E0190708F0A6CF1F910F91FF90BE
:10164000EF90DF9008956F927F928F929F92AF926A
:10165000BF92CF92DF92EF92FF920F931F93CF939F
:10166000DF930E94200A5B016C0189E090E00E94F8
:101670000238F82E8AE090E00E940238182F8BE0A2
:1016800090E00E94023820919F0200919302909175
:101690008D02482F445990538F2D612FE92E0E94BF
:1016A000B0259B01AC018091A702833031F071E03D
:1016B000E72EF12C012D112D05C064E0E62EF12C52
:1016C000012D112D60908A028091A702833021F0B4
:1016D00091E0892E912C03C084E0882E912C70908B
:1016E00095028091A702833019F0C1E0D0E002C0DA
:1016F000C4E0D0E0CA01B90120EA35E040E050E0A2
:101700000E943C37A80197010E943C37A61AB70AED
:10171000C80AD90A8CE3689EC00111249C01289D47
:10172000C001299D900D389D900D1124AA2797FD89
:10173000A095BA2FA81AB90ACA0ADB0A872D90E029
:101740009C01C29FC001C39F900DD29F900D112498
:10175000AA2797FDA095BA2FA81AB90ACA0ADB0AC8
:10176000A0922702B0922802C0922902D0922A02A7
:101770000E94A50A80918D0220919A0290E08D59D5
:101780009F4F30E08217930744F520919A02809191
:101790008D0230E090E08C599F4F2817390731F4C3
:1017A0009091A00280919F029817B8F020919A0220
:1017B00080918D0230E090E08C599F4F28173907B7
:1017C000A1F49091A00280919F02981771F49091DA
:1017D000890280919302981740F410922702109288
:1017E00028021092290210922A02809127029091D9
:1017F0002802A0912902B0912A02181619061A0689
:101800001B0624F081E08093920202C010929202A3
:10181000DF91CF911F910F91FF90EF90DF90CF90CC
:10182000BF90AF909F908F907F906F9008952F9270
:101830003F924F925F926F927F928F929F92AF9260
:10184000BF92CF92DF92EF92FF920F931F93CF93AD
:10185000DF9384B714BE88E10FB6F89480936000DC
:10186000109260000FBE8AE190E00E9493293B9A9B
:101870000E94090884E090E00E9402388093980258
:1018800085E090E00E94023880938C020E94881AC2
:101890000E94280682E084BD83E085BD8DE787BD78
:1018A00080916E00826080936E00539A80E28093F4
:1018B000B0008091B00083608093B0008091B1004F
:1018C00088608093B10080E18093B30082E090E073
:1018D0000E9402388093B400259A80EA9FE064E673
:1018E0000E9484052FE088E190E00FB6F894A89557
:1018F000809360000FBE209360000E94912E0E9492
:101900006D2E80E060E040E820E401E00E94B62B0C
:10191000CCEADFEFE12C7DE7F72E08EC10E080E069
:10192000BE0141E00E943121C7010197F1F7CA31A0
:10193000D10539F480E29EE4F8013197F1F701977F
:10194000D9F72196CA38D10551F70E94D21D80E0FF
:101950000E9455220E94230B10E0FF2400E06BE45C
:10196000C62ED12CC8E5D2E053E0E52E46E0A42EE9
:1019700035E0932E4424439424E0B22E9BE0392E8C
:101980008DE0282EBEE07B2EAFE06A2EFCE05F2EBD
:10199000E8E08E2ED0929E02C0929D028091340289
:1019A000882379F080919B02882359F010923402A9
:1019B000D0932C02C0932B02109281004398109276
:1019C0009C02FF2061F080912502882341F482E08F
:1019D00080932602E09225020E94801BFF240023B0
:1019E00059F080912502882339F4A0922602E092D2
:1019F00025020E94801B00E0809197020E94100A3D
:101A00008091340281FF14C010923402809126022A
:101A1000843028F440922602FF24F39405C00E94EB
:101A2000A50A9092260201E0E09225020E94801B06
:101A30008091340282FF11C01092340280912602FC
:101A4000843018F4B092260202C01092260210923E
:101A500025020E94801BFF2400E08091340280FF59
:101A600071C01092340280919C02863009F441C00A
:101A7000873068F4833061F1843018F48823B1F042
:101A800051C08430C1F0853009F04CC026C08C3084
:101A9000D1F18D3030F4883039F18B3009F042C00B
:101AA0002DC08D30A9F18E30E9F537C0B0929C027F
:101AB0000E9460113EC0E0929C020E946A108091D8
:101AC0002402882311F0109224021092000131C0E8
:101AD00090929C020E9447132CC00E94230B80927C
:101AE0009C020E94161225C0A0929C020E94AB127A
:101AF00020C030929C020E940E191BC050929C0282
:101B00000E948B1816C020929C020E940F1811C0D0
:101B100070929C020E9496160CC060929C020E94D9
:101B2000171607C010929C020E946D2E80E00E9442
:101B3000552280919C02882329F40E946D2E80E01A
:101B40000E94552280919C02882349F50E94E5233A
:101B5000112369F480919B02882369F08091A1028E
:101B600080FF09C081E00E94552211E018C08091D9
:101B70009B02882351F080919B02882359F0112306
:101B800049F08091A10280FD05C080E00E945522AD
:101B900010E005C02D9A812F0E9422232D9880915C
:101BA0009D0290919E02892BD1F7F4CE0F931F9343
:101BB000CF93DF93182F062F80918C02882361F535
:101BC00084E761E00E94632E1C3010F080E501C0C4
:101BD00081E460E00E94542B8DE460E00E94542B6D
:101BE00080E561E00E94632E812F90E047966CE0D3
:101BF00070E00E947B37EC018930910514F001966A
:101C000011C080E260E00E94542B9E012F5C822F65
:101C1000602F0E94542B09C080E561E00E94632E72
:101C2000812F90E0602F0E948306DF91CF911F915A
:101C30000F9108950F931F93CF93DF93082F162FC3
:101C400080918C028823C1F4802F90E047966CE04D
:101C500070E00E947B37EC018930910514F0019609
:101C600015C080E260E00E94542B9E012F5C822F01
:101C7000612F0E94542B0DC080E260E00E94542B23
:101C800080E260E00E94542B802F90E0612F0E9440
:101C90008306DF91CF911F910F9108951F93182F05
:101CA00088E065E00E94632E8DE296E060E00E948D
:101CB0008E2B8091B40090E0612F0E9483061F91CB
:101CC00008951F93182F88E064E00E94632E8DE52D
:101CD00096E060E00E948E2B80919802882339F470
:101CE00080918C02882319F485E596E018C08091D4
:101CF0009802882339F480918C02813019F48DE4A4
:101D000096E00DC080919802813039F480918C0268
:101D1000882319F485E496E002C08DE396E0612FF4
:101D20000E948E2B1F910895CF92DF92EF92FF9227
:101D30000F931F93D82EE62EC42E122F88E063E057
:101D40000E94632E8AE696E060E00E948E2B8091CE
:101D50009802FF24F394F122012F0270882369F482
:101D60008D2D90E06F2D0E9483068FE260E00E942F
:101D7000542B8E2D90E0602F0CC08E2D90E0602FA4
:101D80000E9483068FE260E00E94542B8D2D90E02C
:101D90006F2D0E9483068FE260E00E94542B147026
:101DA0008C2D90E0612F0E9483061F910F91FF9070
:101DB000EF90DF90CF900895DF92EF92FF920F9314
:101DC0001F93D82EE62EF42E122F88E062E00E9498
:101DD000632E87E796E060E00E948E2B012F017052
:101DE0008D2D602F0E941A0E8AE360E00E94542B12
:101DF000612F62708E2D90E00E9483068AE360E07E
:101E00000E94542B14708F2D90E0612F0E94830646
:101E100080918C02882369F480E260E00E94542B58
:101E20008BE08D1510F480E501C081E4602F0E94E5
:101E3000542B1F910F91FF90EF90DF9008950F9317
:101E40001F93182F062F88E061E00E94632E82E81E
:101E500096E060E00E948E2B80919902612F0E9493
:101E6000D60D8AE360E00E94542B80918E0290E0B0
:101E7000602F0E9483061F910F9108951F93182FC2
:101E800088E065E00E94632E85E397E060E00E94B1
:101E90008E2B8091B002882319F081E397E002C075
:101EA0008DE297E0612F0E948E2B1F9108951F9362
:101EB000182F88E063E00E94632E83EA97E060E0D9
:101EC0000E948E2B8091AA02882319F487E997E05B
:101ED00010C08091AA02813019F48BE897E009C004
:101EE0008091AA02823019F48FE797E002C083E75D
:101EF00097E0612F0E948E2B1F9108951F93182F3A
:101F000088E062E00E94632E8BEB97E060E00E9425
:101F10008E2B8091A802882319F484EB97E002C0ED
:101F20008DEA97E0612F0E948E2B1F910895FF92FA
:101F30000F931F93182F88E061E00E94632E8AECB4
:101F400097E060E00E948E2B80919802FF24F3942A
:101F5000F122012F0270882379F48091AE0290E083
:101F60006F2D0E9483068FE260E00E94542B8091C7
:101F7000AB0290E0602F0EC08091AB0290E0602F2A
:101F80000E9483068FE260E00E94542B8091AE0293
:101F900090E06F2D0E9483068FE260E00E94542B38
:101FA0008091A902147090E08459984F64E670E023
:101FB0000E947B37CB01612F0E9483068091A9028A
:101FC00090E08459984F64E670E00E947B37612F5F
:101FD0000E9483061F910F91FF900895EF92FF9248
:101FE0000F931F938C017B0180E066E00E94632EBB
:101FF00081EF97E060E00E948E2BC80160E00E94B4
:102000008E2B80E067E00E94632E84EE97E060E014
:102010000E948E2BC70160E00E948E2B1F910F91B2
:10202000FF90EF9008958FED97E065ED77E00E94C7
:10203000EE0F08951F93182F80E066E00E94632E34
:10204000112319F48FE298E002C089E198E060E082
:102050000E948E2B80E067E00E94632E83E098E070
:1020600060E00E948E2B1F910895809132028F5F55
:10207000809332020E946D2E80E060E00E94632E09
:102080008AE196E060E00E948E2B80E060E00E9492
:102090001F0F80918A02609195024091A10220E079
:1020A0000E94DC0E80919F026091930240918D020C
:1020B00020E00E94940E80E00E94610E80E00E9469
:1020C0004E0E80E00E941A1080913202815080935F
:1020D00032020895BF92CF92DF92EF92FF920F9358
:1020E0001F93CF93DF9310918A02D0909502F090C6
:1020F000A1020E943510809132028F5F80933202DC
:1021000080E063E147E00E94E8098091320281505B
:10211000809332028EE18093310203E08EE1B82E8B
:10212000C8ECD0E08091340280FDC0C080913402C0
:10213000882321F480913502882319F0B09231026E
:1021400007C080913102882319F410929C02AEC01E
:102150008091340281FF5BC0109234028091320280
:102160008F5F80933202033071F4812F6D2D4F2DDC
:1021700021E00E94DC0E80E895E066E775E00E94B1
:10218000EE0F08E63FC0083671F4812F6D2D4F2DFC
:1021900022E00E94DC0E81E795E067E675E00E9490
:1021A000EE0F09E62FC0093671F4812F6D2D4F2DEA
:1021B00024E00E94DC0E82E695E068E575E00E946E
:1021C000EE0F0AE61FC0812F6D2D4F2D20E00E94DB
:1021D000DC0E80E00E941A1010938A02D0929502C1
:1021E000F092A1028091A1026091950240918A0231
:1021F00000919302E0909F02C0908D0220E00E9427
:102200009E0603E0809132028150809332028091D9
:10221000340282FD04C08091350282FF83CF109288
:102220003402809132028F5F80933202083671F45B
:10223000812F90E0019668E170E00E947B37182FB3
:1022400080938A026D2D4F2D21E01DC0093669F45F
:102250008D2D90E001966CE370E00E947B37D82EC4
:10226000812F6D2D4F2D22E00EC00A3671F48F2D77
:1022700090E001966CE370E00E947B37F82E812F8E
:102280006D2D4F2D24E00E94DC0E80913202815092
:10229000809332028091350282FF44CF80ED97E037
:1022A000FE013197F1F70197D9F73CCFDF91CF913C
:1022B0001F910F91FF90EF90DF90CF90BF90089506
:1022C0000F931F93CF93DF930E94351080913202BA
:1022D0008F5F8093320280E06BE047E00E94E80964
:1022E000809132028150809332028EE180933102DC
:1022F00014E00EE1C8ECD0E08091340280FD91C082
:1023000080913402882321F480913502882319F0CA
:102310000093310207C080913102882319F4109292
:102320009C027FC08091340281FF30C01092340241
:10233000809132028F5F80933202143061F481E029
:1023400060E00E941F0F8EE995E064E975E00E944D
:10235000EE0F18E616C0183661F480E061E00E94C6
:102360001F0F8FE895E065E875E00E94EE0F19E613
:1023700008C080E060E00E941F0F80E00E941A10F9
:1023800014E08091320281508093320280913402B5
:1023900082FD04C08091350282FFAECF10923402DC
:1023A000809132028F5F80933202183699F48091C7
:1023B000990290E0019668E170E00E947B3780937B
:1023C000990281E060E00E941F0F6091990280E015
:1023D00090E014C01936A1F480918E0290E001962D
:1023E0006CE370E00E947B3780938E0280E061E0B6
:1023F0000E941F0F60918E0281E090E00E941038D1
:10240000809132028150809332028091350282FFA6
:1024100073CF80ED97E0FE013197F1F70197D9F77F
:102420006BCFDF91CF911F910F9108950F931F9361
:102430000E943510809132028F5F8093320280E0DB
:1024400063E247E00E94E809809132028150809364
:1024500032028EE18093310218E00EE18091340265
:1024600080FD76C080913402882321F4809135026A
:10247000882319F00093310207C08091310288232C
:1024800019F410929C0264C08091340281FF1CC038
:1024900010923402809132028F5F809332021830A2
:1024A00039F481E00E94610E0E9413101BE607C000
:1024B00080E00E94610E80E00E941A1018E0809176
:1024C00032028150809332028091340282FD04C036
:1024D0008091350282FFC2CF109234021B3609F080
:1024E000BDCF80918C02882341F08091980290E0CA
:1024F000882309F491E09093980280918C0290E0F7
:10250000882309F491E090938C02809132028F5FCE
:10251000809332020E9435100E94131080E063E223
:1025200047E00E94E80981E00E94610E809132023A
:102530008150809332026091980284E090E00E9482
:10254000103860918C0285E090E00E94103886CFB0
:102550001F910F9108950F931F930E943510809142
:1025600032028F5F8093320280E06BE247E00E948C
:10257000E809809132028150809332028EE180938B
:10258000310216E00EE18091340280FD7DC0809121
:102590003402882321F480913502882319F00093B6
:1025A000310207C080913102882319F410929C02F5
:1025B0006BC01630E9F4809132028F5F8093320253
:1025C00080E066E00E94632E8091A10290E083701B
:1025D000907002971CF489EB95E002C083EA95E0C5
:1025E00060E00E948E2B80913202815080933202F3
:1025F0008091340281FF1CC010923402809132021B
:102600008F5F80933202163039F481E00E944E0EC3
:102610000E9413101CE607C080E00E944E0E80E06E
:102620000E941A1016E0809132028150809332028B
:102630008091340282FD04C08091350282FFA3CFD5
:10264000109234021C3609F09ECF8091B4008F5F47
:102650008093B4008091B400813110F01092B400E6
:10266000809132028F5F8093320281E00E944E0E91
:10267000809132028150809332026091B40082E0F6
:1026800090E00E9410387FCF1F910F910895BF9264
:10269000CF92DF92EF92FF920F931F93CF93DF932E
:1026A000F090930210919F02D0908D020E943510FD
:1026B000809132028F5F8093320280E06BE147E0CD
:1026C0000E94E809809132028150809332028EE1AB
:1026D0008093310205E04EE1B42EC8ECD0E0809149
:1026E000340280FD33C180913402882321F480912B
:1026F0003502882319F0B092310207C0809131026F
:10270000882319F410929C0221C18091340281FF28
:102710008BC010923402809132028F5F809332021C
:102720000530F9F480919802882359F4812F6F2D98
:102730004D2D21E00E94940E85E196E06BE076E05D
:1027400034C080919802813009F04AC0812F6F2DEA
:102750004D2D22E00E94940E86E096E06CEF75E02D
:1027600010C0053691F480919802882339F5812FA5
:102770006F2D4D2D22E00E94940E87EF95E06DEEB7
:1027800075E00E94EE0F06E64AC0063649F58091D4
:102790009802813071F4812F6F2D4D2D21E00E9420
:1027A000940E88EE95E06EED75E00E94EE0F05E662
:1027B00036C080919802882329F012C08091980237
:1027C000813071F4812F6F2D4D2D24E00E94940EE5
:1027D00089ED95E06FEC75E00E94EE0F07E61FC0F3
:1027E000812F6F2D4D2D20E00E94940E80E00E94DD
:1027F0001A10D0928D0210939F02F0929302809152
:10280000A1026091950240918A0200919302E090AA
:102810009F02C0908D0220E00E949E0605E08091FC
:1028200032028150809332028091340282FD04C0D2
:102830008091350282FF53CF109234028091320290
:102840008F5F80933202053689F51F5F1D3010F0CF
:1028500011E027C01230C1F48D2D90E00E94F105E7
:10286000882331F08DE18F1518F43DE1F32E19C066
:102870008D2D90E00E94F105882399F48CE18F154D
:1028800080F42CE1F22E0DC0143031F0163021F01E
:10289000193011F01B3029F48EE18F1510F49EE1F0
:1028A000F92E812F6F2D4D2D21E03DC0063669F5A3
:1028B000F3948FE18F1510F4FF24F394123099F400
:1028C0008D2D90E00E94F105882319F08DE18F1580
:1028D000A8F08D2D90E00E94F105882389F48CE109
:1028E0008F1560F00DC0143031F0163021F0193022
:1028F00011F01B3029F48FE1F81611F4FF24F39442
:10290000812F6F2D4D2D22E00EC0073671F48D2DD5
:1029100090E0019664E670E00E947B37D82E812F0C
:102920006F2D4D2D24E00E94940E80913202815033
:10293000809332028091350282FFD1CE80ED97E004
:10294000FE013197F1F70197D9F7C9CEDF91CF9109
:102950001F910F91FF90EF90DF90CF90BF9008955F
:102960000F931F93082F88E064E00E94632E8EE689
:1029700097E060E00E948E2B8091AF02882399F54A
:10298000602F617089E697E00E948E2B8091AC02E7
:102990009091AD02102F1270612F0E945A0685E6A9
:1029A00097E0612F0E948E2B8091B1029091B2022C
:1029B000102F14706CE070E00E946737CB01612F1C
:1029C0000E94830682E697E0612F0E948E2B809101
:1029D000B1029091B2026CE070E00E946737612F03
:1029E0000E9483063BC08091AF02602F6170102F60
:1029F0001270813019F58DE597E00E948E2B80E2F0
:102A000060E00E94542B8091AC029091AD02612F46
:102A10000E945A0689E597E0612F0E948E2B8091D3
:102A2000B1029091B202102F1470612F0E945A06C9
:102A300086E597E0612F0E948E2B10C081E597E01C
:102A40000E948E2B87E497E060E00E948E2B80919D
:102A5000AC029091AD02612F0E945A061F910F9116
:102A6000089586E090E00E9402388093AE0287E0ED
:102A700090E00E9402388093AB0288E090E00E94D0
:102A800002388093A9028CE090E00E940238809383
:102A9000A8028DE090E00E9402388093AA028EE0A6
:102AA00090E00E9402388093AF0281E190E00E94A2
:102AB0000A389093B2028093B1028FE090E00E94B6
:102AC0000A389093AD028093AC0283E190E00E94BB
:102AD00002388093B002809132028F5F809332027D
:102AE0000E946D2E80E060E00E94632E82E297E0FB
:102AF00060E00E948E2B80E460E00E94632E8BE1F8
:102B000097E060E00E948E2B88E660E00E94632ED2
:102B100086E197E060E00E948E2B80E00E94970F94
:102B200080E00E947E0F80E00E94570F80E00E94AC
:102B3000B01480E00E943E0F80E00E941A10809145
:102B4000320281508093320208951F93DF93CF9316
:102B5000CDB7DEB728970FB6F894DEBF0FBECDBF56
:102B600060918D02DE011196E1E0F1E088E00190D4
:102B70000D928150E1F720918D028091A902E091A0
:102B8000AA029091A80230E02C593F4F281B31092E
:102B9000F0E0EE0FFF1FE90FF11DDE011196EA0FC5
:102BA000FB1F808190E0821793071CF0162F1C59A1
:102BB0000FC01091A9028091AA022091A80290E072
:102BC000880F991F820F911DA80FB91F8C91180FA4
:102BD00060919F0289E090E00E941038609193021A
:102BE0008AE090E00E9410388BE090E0612F0E9414
:102BF000103860918A0284E190E00E941038609160
:102C0000950285E190E00E9410386091A10286E172
:102C100090E00E9410380E94230B28960FB6F8947B
:102C2000DEBF0FBECDBFCF91DF911F9108950F93EF
:102C30001F930E94311581E00E941A108091320288
:102C40008F5F8093320280E06BE247E00E94E809E8
:102C5000809132028150809332028EE18093310262
:102C60001FE00EE18091340280FD5DC0809134024E
:102C7000882321F480913502882319F000933102D2
:102C800007C080913102882319F410929C024BC036
:102C90008091340281FF1CC0109234028091320274
:102CA0008F5F809332021F3039F481E00E943E0F23
:102CB0000E94131012E707C080E00E943E0F81E0DF
:102CC0000E941A101FE080913202815080933202DC
:102CD0008091340282FD04C08091350282FFC2CF10
:102CE00010923402123709F0BDCF8091B00290E00B
:102CF000882309F491E09093B002809132028F5FB3
:102D00008093320281E00E943E0F80913202815016
:102D1000809332026091B00283E190E00E9410380B
:102D20000E94A5159FCF1F910F9108958F929F929A
:102D3000AF92BF92CF92DF92EF92FF920F931F93C9
:102D4000CF93DF930E943115809132028F5F809381
:102D5000320280E063E247E00E94E809809132029B
:102D60008150809332028EE1809331021EE00EE1A9
:102D7000B8EC8B2E912CACE5AA2EB12CF4E2CF2E20
:102D8000D12CEFE0EE2EF12CC3E2D0E080913402A2
:102D900080FD38C180913402882321F4809135026E
:102DA000882319F00093310207C0809131028823F3
:102DB00019F410929C0226C18091340281FF47C011
:102DC00010923402809132028F5F809332021E3063
:102DD00059F481E00E94B01486EC96E06CEB76E04A
:102DE0000E94EE0F1FE62EC01F36A1F482E00E9463
:102DF000B0148091AF02823029F087EB96E06DEA43
:102E000076E004C088EA96E06EE976E00E94EE0F74
:102E100010E718C0103779F48091AF02823059F072
:102E200084E00E94B01489E996E06FE876E00E94A1
:102E3000EE0F11E707C080E00E94B01480E00E940E
:102E40001A101EE0809132028150809332028091EC
:102E5000340282FD04C08091350282FF97CF109228
:102E60003402809132028F5F809332021F3651F517
:102E70008091AF0290E0019663E070E00E947B37A2
:102E80008093AF028091AF02882349F4D093AD02C2
:102E9000C093AC02D092B202C092B10211C0809134
:102EA000AF02813049F4F092AD02E092AC02B092F0
:102EB000B202A092B10204C01092AD021092AC0214
:102EC00081E075C0103709F03EC08091AF028823C1
:102ED000A9F48091AC029091AD0205969093AD0259
:102EE0008093AC028091AC029091AD0285599240E2
:102EF00040F1D093AD02C093AC0223C08091AF02E9
:102F00008130A9F48091AC029091AD020596909326
:102F1000AD028093AC028091AC029091AD028D52D3
:102F2000914078F0F092AD02E092AC020AC080913C
:102F3000AC029091AD02019690709093AD02809397
:102F4000AC0282E034C01137A1F58091AF02882332
:102F5000A9F48091B1029091B20201969093B202CD
:102F60008093B1028091B1029091B20289379105AC
:102F7000E8F0D092B202C092B10218C08091AF02C4
:102F80008130A1F48091B1029091B20201969093A8
:102F9000B2028093B1028091B1029091B202825349
:102FA000914020F0B092B202A092B10284E00E945F
:102FB000B0146091AF028EE090E00E9410386091F2
:102FC000AC027091AD028FE090E00E941E386091DB
:102FD000B1027091B20281E190E00E941E380E941D
:102FE000A515809132028150809332028091350282
:102FF00082FFCCCE80ED97E0F4013197F1F7019795
:10300000D9F7C4CEDF91CF911F910F91FF90EF9030
:10301000DF90CF90BF90AF909F908F9008950F93C7
:103020001F930E943115809132028F5F809332028C
:1030300080E06BE147E00E94E80980913202815014
:10304000809332028EE1809331021DE00EE1809187
:10305000340280FD5DC080913402882321F4809188
:103060003502882319F00093310207C080913102A4
:10307000882319F410929C024BC08091340281FF86
:103080001CC010923402809132028F5F8093320212
:103090001D3039F481E00E94570F0E9413101EE684
:1030A00007C080E00E94570F80E00E941A101DE0C8
:1030B000809132028150809332028091340282FDED
:1030C00004C08091350282FFC2CF109234021E36B6
:1030D00009F0BDCF8091AA0290E0019683709070B4
:1030E0008093AA02809132028F5F8093320281E046
:1030F0000E94570F8091320281508093320260917A
:10310000AA028DE090E00E9410380E94A5159FCF82
:103110001F910F9108950F931F930E943115809175
:1031200032028F5F8093320280E063E147E00E94C9
:10313000E809809132028150809332028EE18093BF
:1031400031021CE00EE18091340280FD64C0809168
:103150003402882321F480913502882319F00093EA
:10316000310207C080913102882319F410929C0229
:1031700052C08091340281FF1CC0109234028091B1
:1031800032028F5F809332021C3039F481E00E945A
:103190007E0F0E9413101DE607C080E00E947E0F84
:1031A00080E00E941A101CE08091320281508093CE
:1031B00032028091340282FD04C08091350282FF88
:1031C000C2CF109234021D3609F0BDCF8091A80203
:1031D00090E0882309F491E09093A8028091320254
:1031E0008F5F809332020E94131080E063E147E01A
:1031F0000E94E80981E00E947E0F80913202815096
:10320000809332026091A8028CE090E00E94103816
:103210000E94A51598CF1F910F910895EF92FF92EC
:103220000F931F93CF93DF930E9431158091320249
:103230008F5F8093320280E06BE047E00E94E809F4
:10324000809132028150809332028EE1809331026C
:103250001BE00EE1C8ECD0E09CE1E92E8DE1F82EF8
:103260008091340280FD4DC180913402882321F485
:1032700080913502882319F00093310207C08091B4
:103280003102882319F410929C023BC180913402D0
:1032900081FF76C010923402809132028F5F80935A
:1032A00032021B30C1F480919802882341F481E0FE
:1032B0000E94970F81E197E067E077E029C0809155
:1032C00098028130E9F582E00E94970F82E097E052
:1032D00068EF76E00DC0153679F480919802882366
:1032E00001F582E00E94970F83EF96E069EE76E0A9
:1032F0000E94EE0F16E63FC0163611F58091980237
:10330000813051F40E94970F84EE96E06AED76E0EA
:103310000E94EE0F15E62FC080919802882329F0B5
:103320000FC080919802813059F484E00E94970F79
:1033300085ED96E06BEC76E00E94EE0F17E61BC081
:1033400080E00E94970F80E00E941A106091AE0208
:1033500086E090E00E9410386091AB0287E090E038
:103360000E9410386091A90288E090E00E94103815
:103370000E94A5151BE08091320281508093320299
:103380008091340282FD04C08091350282FF68CFB3
:1033900010923402809132028F5F80933202153690
:1033A00009F048C08091AE028F5F8093AE02809199
:1033B000AE028D3018F081E08093AE028091AE02B3
:1033C000823001F58091A90290E08459984F0E94C3
:1033D000F105882339F08091AB028E3118F0F0921C
:1033E000AB0226C08091A90290E08459984F0E94B8
:1033F000F1058823E9F48091AB028D31C8F0E092A9
:10340000AB0216C08091AE02843061F08091AE02B2
:10341000863041F08091AE02893021F08091AE0279
:103420008B3031F48091AB028F3110F00093AB02FE
:1034300081E054C0163609F044C08091AB028F5F22
:103440008093AB028091AB02803218F081E08093D0
:10345000AB028091AE028230D9F48091A90290E053
:103460008459984F0E94F105882321F08091AB0286
:103470008E3110F58091A90290E08459984F0E94F6
:10348000F1058823E1F48091AB028D31C0F014C0C6
:103490008091AE02843061F08091AE02863041F0BE
:1034A0008091AE02893021F08091AE028B3039F4E8
:1034B0008091AB028F3118F081E08093AB0282E003
:1034C0000DC0173669F48091A90290E0019668EC6E
:1034D00070E00E947B378093A90284E00E94970FDE
:1034E000809132028150809332028091350282FFB6
:1034F000B7CE80ED97E0FE013197F1F70197D9F74C
:10350000AFCEDF91CF911F910F91FF90EF90089573
:1035100026982E9A81E080936800EBE6F0E08081A7
:103520008064808382E080937C0010927B00EAE7D5
:10353000F0E08EE8808380818064808308958091AC
:103540007A00877F80937A0080917A0080648093EC
:103550007A0080917A0084FFFCCF2091780030912E
:103560007900C90108951F920F920FB60F9211248E
:103570002F933F934F935F936F937F938F939F937B
:10358000AF93BF93EF93FF937894809178009091DD
:10359000790022E0803E920728F0109235021092C6
:1035A000330273C022E08336920798F18091330290
:1035B00082FD6BC080E29EE40197F1F70E949F1AA2
:1035C000825692408E37910508F05FC082E080936A
:1035D000360212C00E949F1A825692408E37910581
:1035E00058F0809133028B7F8093330280913402B4
:1035F00084608093340249C080913602882351F759
:10360000809133028460809333028091350284601C
:103610003AC08F509140E8F08091330281FD10C094
:1036200080E29EE40197F1F70E949F1A8E5091402C
:103630008555914050F58091340282608093340228
:1036400080913302826080933302809135028260E0
:103650001AC08091330280FD0EC080E29EE4019783
:10366000F1F70E949F1A8F50914078F480913402B4
:1036700081608093340280913302816080933302B1
:103680008091350281608093350280917A00886450
:1036900080937A00FF91EF91BF91AF919F918F91AD
:1036A0007F916F915F914F913F912F910F900FBE3E
:1036B0000F901F9018951F920F920FB60F92112422
:1036C0002F933F934F935F936F937F938F939F932A
:1036D000AF93BF93EF93FF9378940E942806FF91D6
:1036E000EF91BF91AF919F918F917F916F915F917A
:1036F0004F913F912F910F900FBE0F901F901895F3
:10370000EF92FF920F931F939091260280913802BF
:10371000981739F081E080933702809126028093D8
:10372000380280912602833009F458C1843038F47D
:10373000813009F443C0823008F064C00DC0853088
:1037400009F40FC1853008F46CC0863009F42DC12E
:10375000873009F022C25DC180912302882321F4C1
:10376000809124028823D1F080912402882371F073
:103770008091960290E0A0E0B0E08093C102909327
:10378000C202A093C302B093C40205C08091230279
:10379000882309F402C280918B022FC180918A0292
:1037A00090E0A0E0B0E08093C1029093C202A093A9
:1037B000C302B093C402809195021FC18091980208
:1037C000882381F480919F0290E0A0E0B0E0809394
:1037D000C1029093C202A093C302B093C40280912D
:1037E00093020BC18091930290E0A0E0B0E080933F
:1037F000C1029093C202A093C302B093C40280910D
:103800009F02FBC084E190E0A0E0B0E08093C102A1
:103810009093C202A093C302B093C40280918D0220
:10382000ECC080912302882321F480912402882314
:10383000F9F06091A3027091A4028091A502909189
:10384000A60220E137E240E050E00E94B03720932A
:10385000C1023093C2024093C3025093C4026091EC
:10386000A3027091A4028091A5029091A6024CC07F
:1038700020912702309128024091290250912A027A
:103880008091A702833029F080E090E0A0E0B0E0D2
:1038900008C08091A1026FE00E945B3790E0A0E039
:1038A000B0E0281B390B4A0B5B0BCA01B90120E1C0
:1038B00037E240E050E00E94B0372093C1023093DD
:1038C000C2024093C3025093C40220912702309158
:1038D00028024091290250912A028091A702833048
:1038E00029F080E090E0A0E0B0E008C08091A10263
:1038F0006FE00E945B3790E0A0E0B0E0281B390B3E
:103900004A0B5B0BCA01B90120E137E240E050E00D
:103910000E94B0376093C5027093C6028093C702BD
:103920009093C8028091270290912802A0912902C9
:10393000B0912A02181619061A061B060CF42DC19E
:103940001092C5021092C6021092C7021092C802CD
:103950001092C1021092C2021092C3021092C402CD
:103960001CC180919802882381F48091A00290E08C
:10397000A0E0B0E08093C1029093C202A093C30282
:10398000B093C4028091890238C08091890290E08E
:10399000A0E0B0E08093C1029093C202A093C30262
:1039A000B093C4028091A00228C080919A0264E67C
:1039B0000E945B3790E04396AA2797FDA095BA2F07
:1039C0008093C1029093C202A093C302B093C40239
:1039D00080919A020E945B37892F0FC080919902D3
:1039E00090E0A0E0B0E08093C1029093C202A09367
:1039F000C302B093C40280918E0290E0A0E0B0E0D8
:103A00008093C5029093C602A093C702B093C802E8
:103A1000C4C0E0902702F090280200912902109182
:103A20002A02E092B502F092B6020093B702109318
:103A3000B80290918A0280919902891760F0909162
:103A40008A0280919902981781F590919502809150
:103A50008E02891750F59091990220918E02409123
:103A60008A02E09195028091A702833019F061E00B
:103A700070E002C064E070E030E020563A4F8CE322
:103A8000989FC0011124280F391F50E084EC9FEF4C
:103A9000DC014A9FC0014B9F900D5A9F900D11244D
:103AA000280F391F2E1B310927C090919902F091E0
:103AB0008E0240918A02E09195028091A7028330A4
:103AC00019F061E070E002C064E070E08CE3989F60
:103AD000C001112450E024EC3FEFD9014A9F90012E
:103AE0004B9F300D5A9F300D1124820F931F8F0F63
:103AF000911D8E1B91099C01629FC001639F900DD7
:103B0000729F900D1124AA2797FDA095BA2FE81A4D
:103B1000F90A0A0B1B0BE092B502F092B602009371
:103B2000B7021093B802E090B502F090B60200918F
:103B3000B7021091B802C801B70120E137E240E0B6
:103B400050E00E94B0372093C1023093C2024093EC
:103B5000C3025093C402C801B70120E137E240E03C
:103B600050E00E94B0376093C5027093C602809304
:103B7000C7029093C80217FF10C01092C1021092A2
:103B8000C2021092C3021092C4021092C502109297
:103B9000C6021092C7021092C8021F910F91FF90A7
:103BA000EF90089508959F92AF92BF92CF92DF92C7
:103BB000EF92FF920F931F93E090C102F090C20228
:103BC0000091C3021091C4029E2C4F2DA090C502FB
:103BD000B090C602C090C702D090C8023A2D2B2DDB
:103BE00080912602843009F4FBC080912602873040
:103BF00009F4F6C080918C028823C9F480912602D2
:103C0000882321F080912602833089F4C801B7010E
:103C1000695E7F4F8F4F9F4F2CE030E040E050E0D7
:103C20000E948E376F5F7F4F8F4F9F4F02C0C8013A
:103C3000B7012AE030E040E050E00E948E37209348
:103C4000B90280918C028823E9F4809126028823AE
:103C500021F0809126028330A9F487E190E0A0E072
:103C6000B0E0E80EF91E0A1F1B1FC801B7012CE0C7
:103C700030E040E050E00E948E376F5F7F4F8F4F03
:103C80009F4F02C0C801B7012AE030E040E050E099
:103C90000E948E376093BA02C601B5012AE030E077
:103CA00040E050E00E948E372093BC02C601B5016F
:103CB0002AE030E040E050E00E948E376093BD0281
:103CC00080912602882371F580918C028823A9F4C3
:103CD0008091A10280FD02C08AE807C08091A10204
:103CE0008E3110F080E901C081E98093BB028CE045
:103CF0008093BE0280918A0225C08AE08093BE0232
:103D00008093BB028091A1026AE00E945B378068C9
:103D10008093BF028091A1020E945B3790689093CC
:103D2000C0028FC0809126028330E1F48AE0809344
:103D3000BB029CE09093BE0280918C02882369F4C0
:103D4000809199028C3010F48DE001C08EE0809358
:103D5000BF028FE08093C00274C09093C002909322
:103D6000BF026FC080912602813021F0809126022F
:103D70008530A9F46093BF028091BC028093BE029B
:103D80008BE08093BD028091BA028093BC02809147
:103D9000B9028093BB028CE08093C0021CC080916A
:103DA0002602823029F080912602863009F049C02F
:103DB0006093BF028091BC028093BE028091BA02E0
:103DC0008093BD028091B9028093BC028CE0809305
:103DD000C0028093BB028093BA028093B90231C0C3
:103DE000E114F1040105110519F0ECEBF2E006C055
:103DF000A114B104C104D104C1F723C0892D942FAB
:103E00006AE070E00E9467378083832F922F6AE018
:103E100070E00E9467378483892D942F6AE070E0F8
:103E20000E946737962E472F832F922F6AE070E00B
:103E30000E946737362F272F319792E0E83BF9072A
:103E4000E9F61F910F91FF90EF90DF90CF90BF9018
:103E5000AF909F900895AF92CF92EF920F93DC01B5
:103E6000E02FF0E0840F911D8E179F07B4F0EC0D4A
:103E7000F11DEA17FB078CF070E04E2D50E0CB01EE
:103E8000820F911D8417950744F080E04A0D511D63
:103E9000461757071CF081E001C080E00F91EF90BA
:103EA000CF90AF9008956F927F928F929F92AF9232
:103EB000BF92CF92DF92EF92FF920F931F93CF9317
:103EC000DF936C01B42E39014801AE2C840F911D93
:103ED0008F5F9F4F0CF440C0E62EE694E694E69484
:103EE00000E010E036C0F301E00FF11FF080C801E0
:103EF0006B2D70E00E946737EC010097D9F409C080
:103F00000F5F1F4FF080C8016B2D70E00E94673774
:103F1000EC013196CE018C0D9D1D97FDF1CFC801AE
:103F20006B2D70E00E9467376E0D9E012C0D822F65
:103F30000E94632ECC0DDD1DC038D10544F4AA20AB
:103F400019F08F2D809501C08F2D0E940A2E0F5FD2
:103F50001F4F0815190538F2DF91CF911F910F916E
:103F6000FF90EF90DF90CF90BF90AF909F908F9099
:103F70007F906F9008952F923F924F925F926F9231
:103F80007F928F929F92AF92BF92CF92DF92EF92E9
:103F9000FF920F931F93DF93CF93CDB7DEB7C15638
:103FA000D2400FB6F894DEBF0FBECDBF6C01362EE7
:103FB0004A01B22E202ECF59DD4FE882C156D240A1
:103FC0002CE42B1508F476C00B2D10E0C8018C0DE5
:103FD0009D1D97FD6FC030E8C316D1040CF06AC078
:103FE0008FE3861708F466C0FE01319680E692E002
:103FF000DF019C011D9221503040E1F720E030E0CC
:1040000040E061E0462E512C3F013FC0F401E20F39
:10401000F31F6491842F86958695869590E0809F06
:104020007001819FF00C909FF00C1124842F8770F9
:10403000A42C01C0AA0C8A95EAF72F5F3F4FD40148
:10404000A20FB31F21503040762F15C0FD0184917F
:104050001196FD0154911197982F09C0F701E90FAE
:10406000F11DE60DF71D80818A2980839F5F591716
:10407000A8F771501296772349F7862F90E0880FA2
:10408000991F0196280F391F4F5F421508F4BECFC4
:1040900083E0000F111F8A95E1F7C601632D4B2DB8
:1040A0009E012F5F3F4FCF59DD4FE880C156D24070
:1040B0000E94531FCF59DD4F0FB6F894DEBF0FBEDD
:1040C000CDBFCF91DF911F910F91FF90EF90DF90C7
:1040D000CF90BF90AF909F908F907F906F905F90A8
:1040E0004F903F902F9008957F928F929F92AF9222
:1040F000BF92CF92DF92EF92FF920F931F93CF93D5
:10410000DF93D82E762EC22E50E046FD3FC0CA0166
:10411000880F991F880F991FEDE4EE2EE8E0FE2E20
:10412000E80EF91E71E5872E78E0972E880E991E0D
:10413000F7018491172DC7E0D0E0A82EBB24C5015C
:104140000C2E02C0959587950A94E2F780FF09C06E
:1041500000E0CC2009F401E08D2D612F43E025E043
:1041600005C08D2D612F43E025E00C2D0E94B62B5C
:1041700021971B5FFFEFCF3FDF0709F70894E11C92
:10418000F11C83E0D80EE814F90491F6DF91CF9189
:104190001F910F91FF90EF90DF90CF90BF90AF9065
:1041A0009F908F907F9008950F938091390288237C
:1041B00009F455C000E080913C02823008F401E02F
:1041C00080913A0260913B0242E022E00E94B62BCD
:1041D00080913C028F5F80933C02843010F01092FB
:1041E0003C0290913A029923C9F480913B028823C2
:1041F00059F480913C028E5F80933C02843010F031
:1042000010923C0282E003C08E3320F48E5F8093D4
:104210003B0225C08E3321F482E015C09E3730F476
:1042200080913B028E3311F49E5F17C09E3771F46C
:1042300080913B028E3311F48CE3E9CF882311F097
:104240008250E5CF8CE780933A0209C0992339F078
:1042500080913B02882319F4925090933A020F9177
:104260000895EF920F931F93CF93DF93EB01142FD9
:10427000823009F1833059F1813069F0CB01855BDF
:104280009F4F8B3C910508F0A5C0CB0160E048E64C
:1042900050E02CE40BC0CB018996893A910508F0D7
:1042A00099C0CB0160E04AEC51E02AE200E4E12E43
:1042B0000E94BB1F8FC0CB01C796873B910508F0BA
:1042C00089C0CB0160E048EA52E028E3EFCFCB01A0
:1042D000C7968C35910548F4CB0160E048EA52E07E
:1042E00028E300E4E12E0E94BB1FCE018F599F4FAF
:1042F0008553914050F4CE01C89660E04AEC51E0FD
:104300002AE200E4E12E0E94BB1FCE014E960697E2
:1043100038F49E01225E822F65E00E94632E50C019
:10432000CE014896069738F49E01285E822F65E0FC
:104330000E94632E38C0CE014296069738F49E0143
:104340002E5E822F65E00E94632E1EC0CE010C9669
:10435000C09720F49E01245F822F03C0A497D4F15C
:1043600080E365E00E94632E80919A0264E60E94D9
:104370005B3790E043966AE070E00E947B37862FBF
:10438000805D612F0E94542B80919A0264E60E9406
:104390005B3790E043966AE070E00E947B37805D77
:1043A000612F0E94542B80919A0264E60E945B3731
:1043B000892F6AE00E945B37805D612F0E94542B39
:1043C00080919A026AE00E945B37892F805D612F9D
:1043D0000E94542BDF91CF911F910F91EF90089580
:1043E0008F929F92AF92BF92CF92DF92EF92FF9205
:1043F0000F931F93CF93DF9300E010E0B8EC8B2E68
:10440000912C0E946D2EDD24CC24AA24BB24CC2028
:1044100091F5E801C95EDF4F0F5F1F4FCE010E948B
:104420000238E82E8FEFE81629F4DD2089F1CC243C
:10443000C39421C0DD2019F45801AE0CB11C2E2DFF
:1044400030E0C901880F991F820F931F90958195C5
:104450009F4F815C6D2D0E94632EFE2C07C0CE0104
:104460000E94023860E00E94542BFA942196FF20AB
:10447000B1F70E0D111DD39488E0D81641F688E8E7
:1044800093E1F4013197F1F701978501D1F7B9CFA5
:10449000DF91CF911F910F91FF90EF90DF90CF9020
:1044A000BF90AF909F908F900895EF92FF920F93DF
:1044B0001F93CF93DF93182F823049F580E060E09F
:1044C00040E820E401E00E94B62B84E290E060E046
:1044D00046E354E029E300E4EE24E3940E94BB1F8A
:1044E0008091A10290E005966CE370E00E947B371A
:1044F0009C018091A10290E028173907D1F70E9412
:10450000F02180E00E9455221092340294C080E095
:1045100060E040E820E4012F0E94B62B0E94801B3F
:104520000E94D31D80912602843021F080912602C2
:10453000873061F48091C1029091C202A091C302C0
:10454000B091C4020097A105B10521F0C9EBD2E0FA
:1045500005E00DC08091C5029091C602A091C702EE
:10456000B091C8020097A105B10581F70AC0802F5C
:104570006CE04991212F0E947420015F0D37B9F73B
:104580005AC00E94A50A809192028823A1F481E07A
:1045900080939202C4E9DFEFE12C0DE7F02E83E077
:1045A000BE01412F0E943121C7010197F1F72196E9
:1045B000C235D105A1F782E064E270E0412F0E948C
:1045C000312180E365E00E94632E80919A0264E6C7
:1045D0000E945B3790E043966AE070E00E947B3770
:1045E000862F805D60E00E94542B80919A0264E6E1
:1045F0000E945B3790E043966AE070E00E947B3750
:10460000805D60E00E94542B80919A0264E60E94D3
:104610005B37892F6AE00E945B37805D60E00E9413
:10462000542B80919A026AE00E945B37892F805D4B
:1046300060E00E94542BDF91CF911F910F91FF906A
:10464000EF900895DF92EF92FF920F931F93DF9305
:10465000CF930F92CDB7DEB7D82E1982109270008B
:1046600080913702882321F081E0898310923702FC
:1046700081E08093700080912402882311F40E94CD
:10468000D31D80912602843021F08091260287304C
:1046900071F48091270290912802A0912902B09193
:1046A0002A02181619061A061B060CF062C0809121
:1046B000B3029091B4028050914049F48FEF90E0A2
:1046C0009093B4028093B3028D2D0E94552299EBF2
:1046D000E92E92E0F92E05E010E08981882391F41B
:1046E0002091B3023091B402C901C8968017910796
:1046F0002CF0C80140968217930724F4F7018081BB
:1047000087FF08C0F70140814F77802F6CE02D2D87
:104710000E9474200894E11CF11C015F1F4FF1EC12
:10472000EF16F2E0FF06C9F680912602843060F0B1
:1047300081E0809339029091940280913D02981714
:1047400091F10E94D4202FC000913A0210913B02B7
:1047500083E0F82EF0923C020E94D42080913A022D
:104760008017C1F780913B028117A1F7109239029F
:104770001AC080912402882311F0109224028981AA
:10478000882341F48091B3029091B4028F3F910548
:1047900009F04CF480E091E09093B4028093B3026E
:1047A0008D2D0E9455228091940280933D0280912C
:1047B000A10280933E0219820F90CF91DF911F9149
:1047C0000F91FF90EF90DF9008950F931F93CF9379
:1047D000DF9380912602882329F08091260284307D
:1047E00009F0ADC080912302882339F081E08093E5
:1047F0003702109223020E94801B8091240288239A
:1048000009F49DC081E00E9455228CEC9FEF9093AB
:10481000B4028093B30200E01DE7C8ECD0E082C090
:104820006F5F7F4F81E041E00E943121C801019715
:10483000F1F72091B3023091B402C9016FE070E04A
:104840000E947B37069731F5273031051CF10E9415
:10485000D31D8091B3029091B4026FE070E00E948A
:104860007B379B01FB01E754FD4F40E050E008C05F
:104870008081806481934F5F5F4F4430510529F000
:10488000CA01820F931F08979CF381E0809337023F
:104890000E9422238091B3029091B4028B9709F079
:1048A00038C088E893E1FE013197F1F70197D9F715
:1048B000109224020E94801B81E0809324020E94B7
:1048C000D31D8091B3029091B4026FE070E00E941A
:1048D0007B379B01FB01E754FD4F40E050E008C0EF
:1048E0008081806481934F5F5F4F4430510529F090
:1048F000CA01820F931F08979CF381E080933702CF
:104900000E94222388E893E1FE013197F1F7019795
:10491000D9F78091B3029091B40201969093B402BA
:104920008093B3026091B3027091B4026A3871054A
:104930000CF476CF1092240280E00E945522DF9181
:10494000CF911F910F9108959C0160E971E00E9441
:104950006737892B11F481E00895C90164E670E09E
:104960000E946737892B11F480E0089580E023705E
:104970003070232B09F481E00895EF92FF920F939A
:104980001F937B01882341F4BA0180E090E02FEB74
:1049900032E040E050E009C0813011F5BA0180E01A
:1049A00090E020E137E240E050E00E943C3700E038
:1049B00010E0A80197010E948E37CA01B901A80131
:1049C00097010E948E37C901DA018F3F9105A10539
:1049D000B10539F030F08FEF90E0A0E0B0E001C019
:1049E000842F1F910F91FF90EF9008952F923F9287
:1049F0004F925F926F927F928F929F92AF92BF92EF
:104A0000CF92DF92EF92FF920F931F93CF93DF939A
:104A1000EC01288039804A805B806C807D808E80AC
:104A20009F80AA24BB246501F501E370F070EE0FAE
:104A3000FF1FEE0FFF1FE75FFE4FE080F180028156
:104A40001381EA0CFB1C0C1D1D1DD401C30175E074
:104A5000B695A795979587957A95D1F7A401930177
:104A600064E0220F331F441F551F6A95D1F7822738
:104A70009327A427B527860D971DA81DB91DE826E5
:104A8000F9260A271B272E0C3F1C401E511E89EBBE
:104A900099E7A7E3BEE9A80EB91ECA1EDB1EA20154
:104AA0009101F5E05695479537952795FA95D1F7F9
:104AB000D201C101E4E0880F991FAA1FBB1FEA952C
:104AC000D1F7282739274A275B27220D331D441D9C
:104AD000551DD601C5017BE0B695A795979587959D
:104AE0007A95D1F783709070880F991F880F991F5E
:104AF000875F9E4FFC0180819181A281B3818A0DE5
:104B00009B1DAC1DBD1D282739274A275B27620E38
:104B1000731E841E951EF0E2AF16F7E3BF06FFEE8C
:104B2000CF06F6ECDF0609F07FCF288239824A8271
:104B30005B826C827D828E829F82DF91CF911F91FA
:104B40000F91FF90EF90DF90CF90BF90AF909F902C
:104B50008F907F906F905F904F903F902F9008952F
:104B60002F923F924F925F926F927F928F929F927D
:104B7000AF92BF92CF92DF92EF92FF920F931F936B
:104B8000CF93DF93D82E162F942E322E202E8E2CDC
:104B9000E41620F0E41691F4281780F4832D622D9A
:104BA000482D2D2D012FE92C0E94B02522273327D7
:104BB000A901261B370B480B590BE4C0D31469F429
:104BC000981409F054C0822D90E0811B91099C013A
:104BD000442737FD4095542FD5C0981409F047C09D
:104BE000CD2DD0E0CE018A5F9D4F0E94023890E02B
:104BF000811B91097C010027F7FC0095102F82E0B2
:104C0000D81641F4892D90E00E94A424E80EF11CEE
:104C1000011D111D87E0A82E82E0B82EAC0EBD1E2E
:104C2000CC24DD242E010894411C511C632C7724D4
:104C300017C0C5010E940238E80EF11C011D111DAC
:104C4000229741F4892D90E00E94A424E80EF11CE3
:104C5000011D111D0894C11CD11C0894A11CB11C7C
:104C6000E201CC0DDD1DC615D7051CF385C0CD2D89
:104C7000D0E0CE018A5F9D4F0E94023890E0811BF8
:104C800091097C010027F7FC0095102F82E0D816CF
:104C900041F4892D90E00E94A424E80EF11C011D2E
:104CA000111DB7E0AB2EB2E0BB2EAC0EBD1ECC2466
:104CB000DD243E010894611C711C17C0C5010E94CF
:104CC0000238E80EF11C011D111D229741F4892DB7
:104CD00090E00E94A424E80EF11C011D111D08940F
:104CE000C11CD11C0894A11CB11CE301CC0DDD1D1D
:104CF000CD30D1051CF3892D90E06C010894C11CC6
:104D0000D11CC0E0D0E03C01A82CBB2411C0C601DE
:104D10000E94A42490E083599E4FAA2797FDA09556
:104D2000BA2FE80EF91E0A1F1B1F0894C11CD11CC4
:104D30002196CE01860D971D8A159B0544F3C1E08F
:104D4000D0E0C32CDD2415C0CE018A5F9D4F0E94A8
:104D50000238E80EF11C011D111DC230D10541F4CD
:104D6000882D90E00E94A424E80EF11C011D111D65
:104D70002196CC15DD0544F3A8019701220D311DC4
:104D8000411D511DB901CA01DF91CF911F910F91B2
:104D9000FF90EF90DF90CF90BF90AF909F908F905B
:104DA0007F906F905F904F903F902F9008954F921B
:104DB0005F926F927F928F929F92AF92BF92CF92AB
:104DC000DF92EF92FF920F931F93DF93CF93CDB7B4
:104DD000DEB728970FB6F894DEBF0FBECDBFE82F21
:104DE000F42F722F5C2C4A2C8A2D8150823008F0CF
:104DF00040C030E040E050E03961802F90E0A0E01A
:104E0000B0E0B82FAA2799278827282B392B4A2BBF
:104E10005B2B8E2D90E0A0E0B0E0DC019927882785
:104E2000282B392B4A2B5B2B29833A834B835C83BA
:104E30002C8D30E040E050E0542F432F322F2227BA
:104E40008D8D90E0A0E0B0E0282B392B4A2B5B2B16
:104E5000426B8E8D90E0A0E0B0E0B82FAA27992792
:104E60008827282B392B4A2B5B2B2D833E834F839E
:104E700058878E2F4F2F272F0E94B0252AE030E031
:104E800040E050E00E943C377B018C0125E43EE08D
:104E900040E050E00E948E373901552029F026E38A
:104EA0003BE644E050E004C02AE83CE144E050E046
:104EB00059016A01AE18BF08C00AD10A882D90E0D6
:104EC0008E3291051CF08DE290E005C0883191058D
:104ED00014F488E190E0E8EE8E2EEFEF9E2E880E1F
:104EE000991E43E0441609F0BCC0552009F058C093
:104EF00089E190EFADEFBFEFA80EB91ECA1EDB1E11
:104F00009B8D913079F57FEEE72E71E0F72E00E072
:104F100010E0C7010E940A3868167906D0F4000F25
:104F2000111F000F111FC8018F509E4F0E940A3899
:104F30009C0153E0880F991F5A95E1F7220F331F08
:104F4000820F931FA0E0B0E0A81AB90ACA0ADB0AD0
:104F500009C00F5F1F4FA4E0B0E0EA0EFB1E033054
:104F60001105B9F688E291E00E94023890E06816D7
:104F700079061CF480E090E00BC08FE391E00E9482
:104F8000023890E0681679060CF0A3C187E190E042
:104F9000880E991EC401875D9E4F0E94023849C049
:104FA0008CE495ECADEFBFEFA80EB91ECA1EDB1E58
:104FB0009BEFE92E91E0F92E00E010E0C7010E947E
:104FC0000A3868167906D0F4000F111F000F111F60
:104FD000C80183509E4F0E940A389C0103E0880F4D
:104FE000991F0A95E1F7220F331F820F931FA0E04C
:104FF000B0E0A81AB90ACA0ADB0A09C00F5F1F4F3E
:10500000A4E0B0E0EA0EFB1E03301105B9F600E0A3
:1050100010E0C8018A5A9E4F0E94023890E068163C
:105020007906CCF4800E911EC401895A9E4F0E94CD
:10503000023890E025E43EE0FC01E29FC001E39FDE
:10504000900DF29F900D1124A0E0B0E0A81AB90ACB
:10505000CA0ADB0A3EC1095E1F4F05341105C9F6B5
:1050600038C1552009F04CC0FB8DF13079F5BBE912
:10507000EB2EB1E0FB2E00E010E0C7010E940A38E1
:1050800068167906D0F4000F111F000F111FC80118
:1050900083569E4F0E940A389C01F3E0880F991FA7
:1050A000FA95E1F7220F331F820F931FA0E0B0E0C3
:1050B000A81AB90ACA0ADB0A09C00F5F1F4F44E0E9
:1050C00050E0E40EF51E0B301105B9F620E030E09B
:1050D000F901EB56F74FE4918E2F90E068167906B0
:1050E0004CF4820E931E86E998E0880E991EF40116
:1050F00084914BC0295E3F4F2A38310549F75CC087
:105100005B8D513079F577ECE72E71E0F72E00E0FA
:1051100010E0C7010E940A3868167906D0F4000F23
:10512000111F000F111FC80187539E4F0E940A389C
:105130009C0153E0880F991F5A95E1F7220F331F06
:10514000820F931FA0E0B0E0A81AB90ACA0ADB0ACE
:1051500009C00F5F1F4F84E090E0E80EF91E0A308F
:105160001105B9F620E030E0F901E15EF64FE49177
:105170008E2F90E068167906D4F4820E931EA0E27A
:10518000B9E08A0E9B1EF401849190E025E43EE094
:10519000AC01429FC001439F900D529F900D11247E
:1051A000A0E0B0E0A81AB90ACA0ADB0A05C0295E65
:1051B0003F4F213A3105C1F652E0451609F042C091
:1051C0002DEAE22E2EE8F22E012D112DEA0CFB1C09
:1051D0000C1D1D1D89819A81AB81BC818E259F2567
:1051E000A027B12789839A83AB83BC83CE01019624
:1051F0000E94F62469817A818B819C817F778070FF
:10520000907028EE33E040E050E00E943C372FEFF2
:105210003FE740E050E00E948E37CA01B90126E026
:1052200036ED40E050E00E943C3728EE33E040E0AD
:1052300050E00E948E3759016A01AE0CBF1CC01E9F
:10524000D11E47C081E0481609F043C09CEFE92E0B
:1052500099E2F92E9FEF092F9FEF192FEA0CFB1C03
:105260000C1D1D1D8D819E81AF81B8858E259F25CA
:10527000A027B1278D839E83AF83B887CE01019687
:105280000E94F6246D817E818F8198857F77807062
:10529000907028EE33E040E050E00E943C372FEF62
:1052A0003FE740E050E00E948E37CA01B90122EB8F
:1052B0003EE840E050E00E943C3728EE33E040E01A
:1052C00050E00E948E3757016801A21AB30AC40A3F
:1052D000D50AD7FE05C020E030E040E050E00AC02B
:1052E000C601B50120E930E040E050E00E943C37C3
:1052F0009B01AC01B901CA0128960FB6F894DEBF34
:105300000FBECDBFCF91DF911F910F91FF90EF9016
:10531000DF90CF90BF90AF909F908F907F906F90D5
:105320005F904F9008959093C5008093C40088E1EA
:105330008093C1008EE08093C200519A50980895E6
:1053400006C090E000009F5F9E31E1F78150882306
:10535000C1F7089548EC50E009C020E137E2FA01B6
:105360003197F1F721503040D1F781508823A9F7C8
:105370000895982F8091C00085FFFCCF9093C600C0
:1053800080E090E008958091C00087FFFCCF80917D
:10539000C60008958091C00080780895AC0120E097
:1053A00007C08091C00085FFFCCF3093C6002F5FFF
:1053B000FA01E20FF11D3491332399F7662371F05E
:1053C0008091C00085FFFCCF8AE08093C600809169
:1053D000C00085FFFCCF8DE08093C6000895FC01DE
:1053E00007C08091C00085FFFCCF31969093C60026
:1053F00090819923B1F70895282F982F92959F7047
:105400009A3030F48091C00085FFFCCF905D05C0DC
:105410008091C00085FFFCCF995A9093C600822FDF
:1054200090E08F7090700A973CF48091C00085FFE7
:10543000FCCF2F70205D06C08091C00085FFFCCF9F
:105440002F70295A2093C60008951F93182F892F73
:105450000E94FC29812F0E94FC291F910895EF9240
:10546000FF920F931F937B018C01C801AA27BB27D2
:105470000E94252AC7010E94252A1F910F91FF90A3
:10548000EF9008950F931F93CF93DF938C01E0E18A
:10549000F7E240E0C0E0D0E0C801BF010E946737FA
:1054A000262F662329F4442319F4E130F10549F449
:1054B0008091C00085FFFCCF205D2093C600205363
:1054C00041E0CF016AE070E00E9467372196C53065
:1054D000D10571F0822F90E09C012E9FC0012F9F7B
:1054E000900D3E9F900D1124081B190BFB01D4CF8A
:1054F000DF91CF911F910F9108951F93CF93DF9369
:10550000482F87FF08C08091C00085FFFCCF8DE247
:105510008093C6004195E4E6F0E010E0C0E0D0E002
:10552000842F992787FD9095BF010E946737262F0A
:1055300016162CF0112319F4E130F10549F480918D
:10554000C00085FFFCCF205D2093C600205311E0F2
:10555000CF016AE070E00E9467372196C330D10521
:1055600031F02E9F802D1124481BFB01D9CFDF91F4
:10557000CF911F9108954F925F926F927F928F9279
:105580009F92AF92BF92CF92DF92EF92FF920F93D2
:105590001F93CF93DF934B015C01E12C9AECF92E22
:1055A0009AE9092F9BE3192F4424C0E0D0E0C501FC
:1055B000B401A80197010E948E37D22E222341F414
:1055C000442031F481E0E816F1040105110561F48D
:1055D0008091C00085FFFCCF80E3D80ED092C6003A
:1055E00080EDD80E44244394C801B7012AE030E08E
:1055F00040E050E00E948E37C22E732E642E552E4E
:105600002196CA30D105A9F06D2D70E080E090E0C0
:10561000A80197010E943C37861A970AA80AB90A7E
:105620002C2D372D462D552DC901DA017C018D0118
:10563000BECFDF91CF911F910F91FF90EF90DF9040
:10564000CF90BF90AF909F908F907F906F905F9022
:105650004F90089508950F931F93CF93DF93482F92
:1056600030E020E007C08054964FFC0184918F5FAA
:10567000280F3F5F822F90E03417A8F3FC01E0541D
:10568000F64F0491EC01CF53D64F10E006C0FE0157
:1056900084910E940A2E1F5F21961017C0F3DF919C
:1056A000CF911F910F910895DF92EF92FF920F9388
:1056B0001F93CF93DF93D62E95E0899FC0011124CD
:1056C000EC01CD58DE4F8E0128E7E22E21E0F22ECC
:1056D000E80EF91EDD2029F0CE010E9402388095E7
:1056E00003C0C8010E9402380E940A2E21960F5F53
:1056F0001F4FCE15DF0571F7DD2011F08FEF01C0D0
:1057000080E00E940A2E80E00E94562EDF91CF9109
:105710001F910F91FF90EF90DF9008950F931F93CB
:10572000CF93DF93EC01062F10E004C0602F0E949E
:10573000542B1F5FFE01E10FF11D84918823B1F707
:10574000DF91CF911F910F9108951F93CF93DF9316
:10575000EC01162F04C0612F0E94542B21968881E2
:105760008823C9F7DF91CF911F9108952F923F921F
:105770004F925F926F927F928F929F92AF92BF9261
:10578000CF92DF92EF92FF920F931F93CF93DF930D
:10579000282E162F342EF22E402EC62FD0E0C770A2
:1057A000D070209709F45BC0562E569456945694A8
:1057B000EE2467E0C62EC1228C2C992487FC90949D
:1057C0005E01A20EB11C51E0652E712C35C0DE2C9D
:1057D000D20C8D2D652D0E94632E0E94BD2D0E943E
:1057E000BD2D082F40E050E015C081E0481641F47F
:1057F000C30102C0880F991F2A95E2F7082B08C041
:10580000C30102C0880F991F2A95E2F780950823EB
:105810004F5F5F4F9A01280D391D2A153B0524F46F
:105820008C2D840F883009F78D2D652D0E94632EF5
:10583000802F0E940A2EE394E31448F22F2D30E0CB
:1058400088E090E08C1B9D0B8217930714F0FF24D7
:1058500004C0812F87708850F80E187F185FE12EE2
:10586000E694E694E694C12FD0E0CF0DD11D43E03D
:10587000D595C7954A95E1F712C0822D6E2D0E94ED
:10588000632E10E009C081E0481611F48FEF01C0CB
:1058900080E00E940A2E1F5F1315A8F3E3948E2D5B
:1058A00090E08C179D074CF32F2D2770C9F100E075
:1058B000C22FD0E031E0A32EB12C30C0F02EF20C7C
:1058C0008F2D6E2D0E94632E0E94BD2D0E94BD2D36
:1058D000182F20E030E017C081E0481649F4C501D8
:1058E000022E02C0880F991F0A94E2F7182B09C0F4
:1058F000C501022E02C0880F991F0A94E2F7809515
:1059000018232F5F3F4F2C173D0734F38F2D6E2D3B
:105910000E94632E812F0E940A2E0F5F031570F2E2
:1059200080E00E94562EDF91CF911F910F91FF9042
:10593000EF90DF90CF90BF90AF909F908F907F902F
:105940006F905F904F903F902F900895DF92EF926D
:10595000FF920F931F93F82E162FD42EE22E41E0C4
:1059600001E00E94B62B8F2D81508D0D612F41E0FB
:105970002E2D0E94B62B8F2D612F4D2D21E00E94E0
:10598000B62B11501E0D8F2D612F4D2D21E00E9441
:10599000B62B1F910F91FF90EF90DF900895EF923B
:1059A000FF920F931F93F82E162F062F069506953C
:1059B0000695602F0E94632E0E94BD2D0E94BD2D72
:1059C000E82E8F2D602F0E94632E177081E090E0EB
:1059D00002C0880F991F1A95E2F780958E210E94C8
:1059E0000A2E80E00E94562E1F910F91FF90EF909B
:1059F0000895EF92FF920F931F93F82E162F062F04
:105A0000069506950695602F0E94632E0E94BD2D77
:105A10000E94BD2DE82E8F2D602F0E94632E1770DF
:105A200081E090E002C0880F991F1A95E2F78E2955
:105A30000E940A2E80E00E94562E1F910F91FF9027
:105A4000EF9008952F982D982C9840985A98279A5F
:105A5000259A249A389A529A8BB18F708BB985B156
:105A6000807F85B98AB1806F8AB984B18F6084B92B
:105A7000089540985A98882319F0813021F402C083
:105A8000409A08955A9A0895F8940E94392D8BB13E
:105A9000806F8BB985B18F6085B92F988AB18F706F
:105AA0008AB984B1807F84B92D9A2C9A00000000B5
:105AB0000AC02C9800000000000000002C9A000092
:105AC00000000000000089B193B187FDF2CF2C984F
:105AD0002D988AB1806F8AB984B18F6084B9789427
