:100000000C9402060C941F060C941F060C946013AB
:100010000C941F060C941F060C941F060C941F06CC
:100020000C941F060C9418090C941F060C9494064B
:100030000C941F060C9421060C9433060C941F0696
:100040000C941F060C941F060C941F060C941F069C
:100050000C941F060C94B8120C941F060C941F06E7
:100060000C944C310C941F0605A84CCDB2D44EB95B
:100070003836A9020C50B9918688083CA6AAAA2A4B
:10008000BE000000803F000302030364726177003A
:10009000796561722100646174652100646F6E6529
:1000A00020696E6974004932433A204255535F45D6
:1000B00052524F520D0A004932433A204E4F5F4987
:1000C0004E464F0D0A004932433A2053542D3E44C8
:1000D0004154415F4E41434B206F72204C41535479
:1000E0005F444154410D0A004932433A2053542D94
:1000F0003E444154415F41434B0D0A004932433A6B
:100100002053542D3E534C415F41434B0D0A00494F
:1001100032433A2053522D3E53525F53544F500DA9
:100120000A004932433A2053522D3E444154415F24
:100130004E41434B0D0A004932433A2053522D3E63
:10014000444154415F41434B0D0A004932433A2038
:1001500053522D3E534C415F41434B0D0A004932EF
:10016000433A204D522D3E534C415F41434B0D0AC3
:10017000004932433A204D522D3E444154415F41A3
:10018000434B0D0A004932433A204D542D3E415213
:10019000425F4C4F53540D0A004932433A204D54AC
:1001A000522D3E534C415F4E41434B206F72204DC8
:1001B000542D3E444154415F4E41434B0D0A00498A
:1001C00032433A204D522D3E444154415F4E41430B
:1001D0004B0D0A004932433A204D542D3E534C41B9
:1001E0005F41434B206F7220444154415F41434B78
:1001F0000D0A004932433A204D2D3E53544152548A
:100200000D0A000C0FFFFF0A11FFFF0912FFFF0884
:100210000B1013070B1014060A1115060A11150509
:100220000A1116050A1116040A11170409121703F8
:1002300009121803091218030912180209121802E8
:1002400009121902091219020912190209121901D7
:1002500009121A0109121A0109121A0109121A01C6
:1002600009121A0109121A0109121A0109121A01B6
:1002700009121A0109121A0009121B0009121B00A7
:1002800009121B0009121B0009121B0009121B0096
:1002900009121B0109121A0109121A0109121A0185
:1002A00009121A0109121A0109121A0109121A0176
:1002B00009121A0109121A02091219020912190265
:1002C0000912190209121902091218030912180356
:1002D0000912180309121804091217040A11170544
:1002E0000A1116050A1116060A1115060A11150734
:1002F0000B1014080B10130912FFFF0A11FFFF0C5B
:100300000FFFFF1111FFFF0F11FFFF0E11FFFF0C79
:1003100011FFFF0B11FFFF0911FFFF0811FFFF067F
:1003200011FFFF0511FFFF0311FFFF020508110276
:100330000309110911FFFF0911FFFF0911FFFF0A4E
:1003400011FFFF0A11FFFF0A11FFFF0A11FFFF0A49
:1003500011FFFF0A11FFFF0A11FFFF0A11FFFF0A39
:1003600011FFFF0A11FFFF0A11FFFF0A11FFFF0A29
:1003700011FFFF0A11FFFF0A11FFFF0A11FFFF0A19
:1003800011FFFF0A11FFFF0A11FFFF0A11FFFF0A09
:1003900011FFFF0A11FFFF0A11FFFF0A11FFFF0AF9
:1003A00011FFFF0A11FFFF0A11FFFF0A11FFFF0AE9
:1003B00011FFFF0A11FFFF0A11FFFF0A11FFFF0AD9
:1003C00011FFFF0A11FFFF0A11FFFF0A11FFFF0AC9
:1003D00011FFFF0A11FFFF0A11FFFF0A11FFFF09BA
:1003E00012FFFF0912FFFF0912FFFF0912FFFF08AA
:1003F00012FFFF0713FFFF0416FFFF0218FFFF02A3
:1004000018FFFF0C10FFFF0A12FFFF0913FFFF0880
:1004100014FFFF0715FFFF0616FFFF0616FFFF0577
:1004200017FFFF0517FFFF0417FFFF0418FFFF0367
:10043000060D1803050E1803040F1802040F180206
:1004400003101802031018010211180102111811EB
:1004500018FFFF1118FFFF1118FFFF1118FFFF1100
:1004600018FFFF1118FFFF1117FFFF1117FFFF11F2
:1004700017FFFF1116FFFF1016FFFF1015FFFF10EB
:1004800015FFFF0F14FFFF0F14FFFF0F13FFFF0EE9
:1004900013FFFF0E12FFFF0E11FFFF0D11FFFF0DE7
:1004A00010FFFF0C0FFFFF0C0FFFFF0B0EFFFF0BEA
:1004B0000DFFFF0A0D1B1B0A0C1B1B090B1A1B0946
:1004C0000B1A1B080A191B0709191A0708181A061C
:1004D00008141A061AFFFF051AFFFF051AFFFF048A
:1004E00019FFFF0319FFFF0319FFFF0219FFFF02A6
:1004F00019FFFF0119FFFF0019FFFF0018FFFF00A0
:1005000018FFFF0C11FFFF0A14FFFF0915FFFF087A
:1005100016FFFF0716FFFF0617FFFF0517FFFF0473
:10052000080B1804060D1803050E1803040F180213
:1005300004101802031018020310180202101810F9
:1005400018FFFF1018FFFF1018FFFF1017FFFF1014
:1005500017FFFF1016FFFF1016FFFF0F15FFFF0F0D
:1005600014FFFF0E14FFFF0D15FFFF0C16FFFF0B0E
:1005700017FFFF0918FFFF0918FFFF0919FFFF0BFD
:1005800019FFFF0C19FFFF0E1AFFFF0F1AFFFF10D4
:100590001AFFFF111AFFFF121AFFFF121AFFFF13B3
:1005A0001AFFFF131AFFFF141AFFFF141AFFFF149C
:1005B0001AFFFF141AFFFF141AFFFF151AFFFF1589
:1005C0001AFFFF1519FFFF1519FFFF1519FFFF028D
:1005D000061518010714180108141800091417004B
:1005E000091416000A1316010B1215010C1114013F
:1005F00013FFFF0212FFFF0311FFFF040FFFFF06AF
:100600000CFFFF1317FFFF1217FFFF1217FFFF1159
:1006100017FFFF1117FFFF1017FFFF1017FFFF0F46
:1006200017FFFF0F17FFFF0E17FFFF0E17FFFF0D3E
:1006300017FFFF0D17FFFF0C17FFFF0C17FFFF0B36
:100640000D0F170B0D0F170A0C0F170A0C0F1709B8
:100650000B0F17090B0F17080A0F17080A0F1707B8
:10066000090F1707090F1706080F1706080F1705B8
:10067000070F1705070F1704060F1704060F1703B8
:10068000050F1703050F1702040F1702040F1701B8
:10069000030F1701030F1700020F1700020F1700B7
:1006A000020F17001BFFFF001BFFFF001BFFFF00D7
:1006B0001BFFFF001BFFFF001BFFFF001BFFFF00D6
:1006C0001BFFFF001BFFFF001BFFFF001BFFFF0FB7
:1006D00017FFFF0F17FFFF0F17FFFF0F17FFFF0F8A
:1006E00017FFFF0F17FFFF0F17FFFF0F17FFFF0F7A
:1006F00017FFFF0F17FFFF0F17FFFF0F17FFFF0F6A
:1007000017FFFF081BFFFF081AFFFF081AFFFF086B
:100710001AFFFF071AFFFF0719FFFF0719FFFF075F
:1007200019FFFF0719FFFF0618FFFF0618FFFF0656
:1007300018FFFF0607FFFF0607FFFF0607FFFF057D
:1007400007FFFF0506FFFF0506FFFF0506FFFF0584
:1007500006FFFF040CFFFF040FFFFF0411FFFF045F
:1007600012FFFF0414FFFF0414FFFF0315FFFF0334
:1007700016FFFF0316FFFF0317FFFF0317FFFF021C
:1007800018FFFF0218FFFF0A18FFFF0C19FFFF0EEA
:1007900019FFFF1019FFFF1119FFFF1219FFFF13B7
:1007A00019FFFF1319FFFF1419FFFF1419FFFF159D
:1007B00019FFFF1519FFFF1519FFFF1619FFFF1687
:1007C00019FFFF1619FFFF1618FFFF030516180281
:1007D0000615180108151701091517000914170047
:1007E0000A1416000B1315000D12150114FFFF015A
:1007F00013FFFF0212FFFF0311FFFF040FFFFF06AD
:100800000CFFFF181AFFFF151AFFFF131AFFFF1145
:1008100017FFFF1016FFFF0E14FFFF0D13FFFF0C55
:1008200012FFFF0B11FFFF0A10FFFF0910FFFF0867
:100830000FFFFF080EFFFF070EFFFF060DFFFF066D
:100840000DFFFF050DFFFF050CFFFF040CFFFF046C
:100850000CFFFF040BFFFF030BFFFF030BFFFF0366
:100860000BFFFF020A0D110214FFFF0215FFFF022A
:1008700016FFFF010B0E17010A1018010A101801CC
:1008800009111901091119010911190109121A0196
:1008900009121A0109121A0109121A0109121A0180
:1008A00009121B0109121B0109121B0109121B016C
:1008B00009121B0109121B0109121B0109121A015D
:1008C00009121A0209121A0209121A0209121A024C
:1008D000091219030A1219030A1219030A12180439
:1008E0000A1218040A1218050A1217050B12170625
:1008F0000B1116070C11150814FFFF0A13FFFF0C4C
:1009000010FFFF031BFFFF031BFFFF021AFFFF0285
:100910001AFFFF021AFFFF021AFFFF0219FFFF0270
:1009200019FFFF0219FFFF0219FFFF0118FFFF0166
:1009300018FFFF0118FFFF01041418010314180128
:1009400002131700021317000113170001131700F9
:10095000011216000112161216FFFF1216FFFF11E8
:1009600016FFFF1115FFFF1115FFFF1115FFFF11F6
:1009700015FFFF1014FFFF1014FFFF1014FFFF10EE
:1009800014FFFF0F14FFFF0F13FFFF0F13FFFF0FE5
:1009900013FFFF0E13FFFF0E12FFFF0E12FFFF0EDD
:1009A00012FFFF0D12FFFF0D12FFFF0D11FFFF0DD4
:1009B00011FFFF0C11FFFF0C11FFFF0C10FFFF0CCC
:1009C00010FFFF0C10FFFF0B10FFFF0B10FFFF0BC2
:1009D0000FFFFF0B0FFFFF0A0FFFFF0A0FFFFF0ABA
:1009E0000EFFFF0A0EFFFF090EFFFF090EFFFF09B2
:1009F0000EFFFF090DFFFF080DFFFF080DFFFF08A9
:100A00000DFFFF0B11FFFF0814FFFF0715FFFF0687
:100A10000B1016050A1117040912180409121803FD
:100A200008131803081319020813190208131902EE
:100A300008131902081319010813190109131901E0
:100A4000091319010A1319010A1319010B131902C9
:100A50000B1318020C1218020D1217020E121603B5
:100A60000F11150314FFFF0312FFFF0412FFFF0510
:100A700013FFFF0514FFFF0615FFFF0716FFFF0812
:100A800016FFFF0917FFFF0917FFFF0718FFFF06F3
:100A90000A0C1805090D1904090E1903080E19038B
:100AA000080F1A0208101A0208111A0107111A0178
:100AB00007121A0107121A0107121A0107131A0165
:100AC00007131A0107131A0107131A0107131A0152
:100AD00007131A0107131901071319010813190243
:100AE0000813180208121803081217030911170433
:100AF0000A1116050B10150614FFFF0812FFFF0A56
:100B00000FFFFF0B10FFFF0812FFFF0713FFFF0689
:100B10000B0F14050A1015050A1116040911160405
:100B200009111703091117030911180209121802F4
:100B300009121902091219010912190109121901E0
:100B400009121A0109121A0109121A0109121A01CD
:100B500009121A0109121A0109121A0109121A01BD
:100B600009121A0109121A0109121A0109121A01AD
:100B700009121A010A121A020A121A020A121A0297
:100B80000A121A030A121A030B121A040C111A047D
:100B90001AFFFF051AFFFF0619FFFF070F11190AB9
:100BA0000C11191019FFFF1018FFFF1018FFFF108C
:100BB00018FFFF0F17FFFF0F17FFFF0F16FFFF0EA6
:100BC00016FFFF0E15FFFF0E15FFFF0D14FFFF0DA3
:100BD00013FFFF0C13FFFF0B12FFFF0B11FFFF0AA8
:100BE00010FFFF090FFFFF080EFFFF070DFFFF05B6
:100BF0000BFFFF040AFFFF0108FFFF0105FFFF01D4
:100C000002FFFF0011241FBECFEFD8E0DEBFCDBF33
:100C100013E0A0E0B1E0E0EEF8E702C005900D922D
:100C2000AC36B107D9F714E0ACE6B3E001C01D92D1
:100C3000A234B107E1F70E94560A0C946E3C0C9462
:100C400000001F920F920FB60F9211248F939F9363
:100C500088B198E0892788B99F918F910F900FBE36
:100C60000F901F9018951F920F920FB60F9211249C
:100C70008F939F938091740390917503892B49F012
:100C800080917403909175030197909375038093FD
:100C900074038091040490910504892B49F080919C
:100CA0000404909105040197909305048093040433
:100CB00080910204882389F18091720390917303DB
:100CC000892B59F58091F8039091F903892BE1F470
:100CD0008CE291E09093F9038093F8038091810076
:100CE000882379F41092800089E08093810083E06A
:100CF00080936F0088EE93E0909389008093880042
:100D000003C01092810043988091F8039091F903F9
:100D100001979093F9038093F8039F918F910F901F
:100D20000FBE0F901F9018951F920F920FB60F9243
:100D300011248F939F9388B198E0892788B99F9158
:100D40008F910F900FBE0F901F901895AF92BF928A
:100D5000CF92DF92EF92FF920F931F93E62E1092A5
:100D6000800029E02093810023E020936F009C0104
:100D700040E050E060E079E08DE390E00E946E3A60
:100D80003093890020938800FF2400E010E0C80120
:100D9000B7010E948C375B016C0120E030E04AEF24
:100DA00054E40E94A4347B018C0120E030E040E850
:100DB0005FE30E94AA3688231CF461E070E024C03F
:100DC000C801B70120E03FEF4FE757E40E944A36E1
:100DD0001816B4F4C601B50120E030E040E251E459
:100DE0000E94A4340E94CE3288EC90E005C0FC0141
:100DF0003197F1F76150704061157105C1F707C077
:100E0000C801B7010E94CE32CB010197F1F71092D1
:100E1000810043981F910F91FF90EF90DF90CF904A
:100E2000BF90AF9008951E9B16C08091FF0388234A
:100E300049F11092FF03109208041092730310926C
:100E40007203809102048823E9F010920204109248
:100E50008100439808958091FF03882399F481E0ED
:100E60008093FF03109273031092720383E08093C8
:100E700071038091FA03853D11F083E001C085E0A4
:100E8000809370030895FC0183709070892B39F46E
:100E9000CF0164E670E00E94253A892B49F420E0F6
:100EA00030E0CF0160E971E00E94253A892B11F40E
:100EB00021E030E0822F08950895482F6AE00E94D3
:100EC000193A282F30E084E0220F331F8A95E1F78A
:100ED000842F0E94193A892F822B089588E592E089
:100EE0009093730380937203109281004398109241
:100EF00003040895CF92DF92EF92FF920F931F9316
:100F0000DF93CF93CDB7DEB728970FB6F894DEBF47
:100F10000FBECDBF162FF42ED22EFE01319698E0D3
:100F2000DF011D929A95E9F719820E945D078A8375
:100F3000812F0E945D078B838F2D0E945D078C831C
:100F40008D2D0E945D078D83802F0E945D078E830B
:100F50008E2D0E945D078F838C2D0E945D078887F0
:100F6000F89480ED68E0AE014F5F5F4F0E94B230B1
:100F700078948823D9F008EC10E080EA9FE064E6DA
:100F80000E94A60688EE93E0F8013197F1F70197E9
:100F9000D9F780EA9FE064E60E94A60680E197E226
:100FA000F8013197F1F70197D9F7E7CF28960FB6F7
:100FB000F894DEBF0FBECDBFCF91DF911F910F918F
:100FC000FF90EF90DF90CF9008950F931F93DF93E2
:100FD000CF93CDB7DEB729970FB6F894DEBF0FBE1B
:100FE000CDBF1982F89480ED61E0AE014F5F5F4F95
:100FF0000E94B2308823D9F008EC10E080EA9FE02C
:1010000064E60E94A60688EE93E0F8013197F1F7B6
:101010000197D9F780EA9FE064E60E94A60680E186
:1010200097E2F8013197F1F70197D9F7E7CF80ED13
:1010300067E0AE014E5F5F4F0E94F93078948823DD
:10104000D9F008EC10E080EA9FE064E60E94A60672
:1010500088EE93E0F8013197F1F70197D9F780EA2C
:101060009FE064E60E94A60680E197E2F8013197CE
:10107000F1F70197D9F7E7CF7A81872F82958F70A3
:1010800090E0877090709C01A3E0220F331FAA9517
:10109000E1F7880F991F280F391F872F8F70820F54
:1010A000809307044B81842F82958F7090E0877026
:1010B00090709C01E3E0220F331FEA95E1F7880F5F
:1010C000991F280F391F4F70420F4093FD038C81E9
:1010D000482F42954F70682F6F7086FF22C082950F
:1010E0008695877090E0817090709C01220F331F6D
:1010F000280F391F220F331F220F331F842F90E038
:1011000081709070AC0103E0440F551F0A95E1F720
:10111000880F991F480F591F240F260F2093F203A1
:1011200011C0842F90E0837090709C01B3E0220F77
:10113000331FBA95E1F7880F991F280F391F620FE7
:101140006093F2034E81842F82958F7090E08370BC
:1011500090709C01F3E0220F331FFA95E1F7880F9E
:10116000991F280F391F4F70420F4093FC034F8186
:10117000842F82958F7090E0817090709C0163E065
:10118000220F331F6A95E1F7880F991F280F391F27
:101190004F70420F409306042885822F82958F70EE
:1011A0003AE0839FC00111242F70280F2093F6038B
:1011B000872F807829960FB6F894DEBF0FBECDBF7B
:1011C000CF91DF911F910F910895CF92EF920F93DE
:1011D0000E940C300E94E507882359F080E060E00F
:1011E0004CE020E001E0EE24E394B9E0CB2E0E9435
:1011F0007A070E94E50781E090E00E94243B6CE3BF
:101200000E94193A9093F70380E090E00E94243BFB
:1012100068E10E94193A9093010487E08093B1003D
:1012200081E08093700078940F91EF90CF900895B3
:101230001F920F920FB60F921124FF920F931F93DC
:101240002F933F934F935F936F937F938F939F93CE
:10125000AF93BF93EF93FF93A8958091760380356A
:1012600079F410927603109107040091FD03F09039
:10127000F2030E94E5078091F2038F1529F40AC05A
:101280008F5F80937603BFC081E080936E03F092FE
:10129000FE0307C08091FD03801731F081E0809349
:1012A0006D030093F40309C080910704811729F0AE
:1012B00081E080936F0310930904809107048117E4
:1012C00009F43FC080910204882359F08091720391
:1012D00090917303009729F0019790937303809383
:1012E000720380917003882361F1809170038150B3
:1012F0008093700380917003882319F580917103A6
:101300008093F3031092710380916E03882329F078
:101310008091FE038093F20304C080916D038823C3
:1013200021F08091F4038093FD0380916E03882364
:1013300021F480916D03882321F0F092F203009351
:10134000FD0380910304843061F0809103048530B3
:1013500041F080910304883021F0809103048630AD
:1013600069F480917903882349F48091F2036091B4
:10137000FD034091070423E00E94360D8091FF0396
:10138000882399F080910704882379F49091FD03D4
:101390008091F703981749F49091F203809101042A
:1013A000981719F481E08093080480916D038823D5
:1013B00069F480916E03882349F48091080488239E
:1013C00029F081E080930204109208048091770351
:1013D000863039F41092770380917D03882329F4B5
:1013E00009C08F5F809377030EC080917D03815089
:1013F00080937D0380917803882329F0809178037E
:10140000815080937803FF91EF91BF91AF919F91AD
:101410008F917F916F915F914F913F912F911F918C
:101420000F91FF900F900FBE0F901F9018950F9384
:101430001F93182F062F6AE00E94193A805D602FD3
:101440000E948F2B812F6AE00E94193A892F805DBC
:10145000602F0E948F2B1F910F910895EF92FF92A2
:101460000F931F93F82E162FE42E21E001E00E9427
:10147000DA2BFE0C0F2D02501150802F612F0E948D
:10148000AE2D1E5F802F612F0E94AE2D0150135094
:10149000802F612F0E94AE2D1C5F802F612F0E9434
:1014A000AE2D1F910F91FF90EF9008956F927F9254
:1014B0008F929F92AF92BF92CF92DF92EF92FF9264
:1014C0000F931F93CF93DF9384B714BE88E10FB6B9
:1014D000F89480936000109260000FBE8AE190E063
:1014E0000E946A293B9A0E94E50883E090E00E94EE
:1014F000243B8093000484E090E00E94243B80938E
:10150000F5030E948D120E94130782E084BD83E0E0
:1015100085BD8DE787BD80916E00826080936E00EF
:10152000539A80E28093B0008091B00083608093F2
:10153000B0008091B10088608093B10080E1809319
:10154000B30082E090E00E94243B8093B400259A8F
:1015500080EA9FE064E60E94A6062FE088E190E022
:101560000FB6F894A895809360000FBE209360009A
:101570000E94F32F0E94CF2F86E090E00E94243B30
:101580008093FA030E94E91300E010E07BE4E72E69
:10159000F12CC8E5D2E062E0762E55E0652E43E0FE
:1015A000942E8824839436E0B32E24E0A22E98E073
:1015B000C92E88ECD82EF0920504E09204048091A4
:1015C0007B03882379F080910204882359F01092DC
:1015D0007B03D0937303C0937203109281004398EE
:1015E00010920304133081F480917003882361F416
:1015F000709271038091FA03853D11F083E001C080
:1016000085E08093700310E080917B03867071F019
:1016100010927B03809271038091FA03853D11F053
:1016200083E001C085E08093700313E080917B0329
:1016300080FF43C010927B031092710310927003DD
:10164000809103048430C1F0853028F4882351F060
:10165000833041F518C0883001F1883C41F0853075
:1016600009F516C0D09203040E9400121DC0A0927A
:1016700003040E94BB0E18C0909203040E94DF0D69
:101680001092000111C0609203040E9492100CC0DD
:10169000C09203040E94620F07C0B09203040E942C
:1016A000F90F02C01092030480910304882321F4EF
:1016B0000E94CF2F0E94E91310E00E9485138091B1
:1016C0000304882339F5002369F4809102048823F8
:1016D00069F08091070480FF09C081E00E94C8136F
:1016E00001E018C080910204882351F08091020427
:1016F000882359F0002349F08091070480FD05C03C
:1017000080E00E94C81300E005C02D9A802F0E943F
:10171000A6132D988091040490910504892BD1F78C
:101720004ACFEF92FF920F931F93982F8B017A016C
:1017300080E0692F0E94C52F81E091E060E00E9467
:10174000C92BC80160E00E94C92B88E091E060E0ED
:101750000E94C92BC70160E00E94C92B1F910F9105
:10176000FF90EF9008951F93182F8BE260E00E9486
:10177000C52F8091FA03833D81F0843D18F4823DAA
:10178000A1F408C0843D19F0853D79F409C08DE0CD
:1017900091E008C087E191E005C085E291E002C0D8
:1017A00080E391E0612F0E94C92B1F9108951F9340
:1017B000182F88E064E00E94C52F8BE391E060E081
:1017C0000E94C92B80910004882339F48091F5038D
:1017D000882319F484E491E020C0809100048823D8
:1017E00039F48091F503813019F481E591E015C059
:1017F00080910004813039F48091F503882319F435
:101800008EE591E00AC080910004813049F4809116
:10181000F503813029F48BE691E0612F0E94C92BFA
:101820001F9108958F929F92AF92BF92CF92DF92B5
:10183000EF92FF920F937C016B015A01490180E006
:1018400060E340E820E100E00E94DA2B86E0B70187
:10185000A6010E94910B87E0B501A4010E94910BA3
:101860000F91FF90EF90DF90CF90BF90AF909F903F
:101870008F900895AC019B0188E791E0BA014AE797
:1018800051E00E94120C08958EE791E065E871E046
:101890000E943A0C08958AE891E06FE871E04AE707
:1018A00051E025E831E00E94120C08958AE891E0A9
:1018B00064E971E04AE751E02CE931E00E94120C42
:1018C00008950F931F93CF93DF93182F062F8091C6
:1018D000F503882371F584E761E00E94C52F1C3071
:1018E00010F080E501C081E460E00E948F2B8DE460
:1018F00060E00E948F2B80E561E00E94C52F812F60
:1019000090E047966CE070E00E94393AEC01893033
:10191000910524F09C012F5F822F10C080E260E0CF
:101920000E948F2B9E012F5C822F602F0E948F2B95
:1019300008C080E561E00E94C52F812F602F0E94C2
:10194000170ADF91CF911F910F9108950F931F9365
:10195000CF93DF93082F162F8091F5038823D1F4BE
:10196000802F90E047966CE070E00E94393AEC01DD
:101970008930910524F09C012F5F822F14C080E2F2
:1019800060E00E948F2B9E012F5C822F612F0E94AE
:101990008F2B0CC080E260E00E948F2B80E260E021
:1019A0000E948F2B802F612F0E94170ADF91CF9109
:1019B0001F910F910895EF92FF920F931F93F82EAE
:1019C000162FE42E022F88E063E00E94C52F80EAE4
:1019D00091E060E00E94C92B809100048823B1F45B
:1019E00086EA91E060E00E94C92B60E00B3009F4C8
:1019F00061E08F2D0E94170A8FE260E00E948F2B1A
:101A000060E00C3009F461E0812F19C0809100047E
:101A10008130D9F486EA91E060E00E94C92B60E051
:101A20000C3009F461E0812F0E94170A8FE260E018
:101A30000E948F2B60E00B3009F461E08F2D0E9433
:101A4000170A8FE260E00E948F2B10E00D3009F43E
:101A500011E084E1612F0E94170A8E2D612F0E94F0
:101A6000170A1F910F91FF90EF900895DF92EF9268
:101A7000FF920F931F93E82EF62ED42E122F88E09C
:101A800062E00E94C52F8CEA91E060E00E94C92BC1
:101A900000E0153609F401E08E2D602F0E94A60C9F
:101AA0008AE360E00E948F2B60E0163609F461E063
:101AB0008F2D0E94170A8AE360E00E948F2B60E05E
:101AC000173609F461E08D2D0E94170A8091F50305
:101AD000882369F480E260E00E948F2B8BE08E15F2
:101AE00010F480E501C081E4602F0E948F2B1F91CC
:101AF0000F91FF90EF90DF9008951F93182F88E0CB
:101B000061E00E94C52F87EB91E060E00E94C92B45
:101B10008091010460E0153609F461E00E94610CD7
:101B20008AE360E00E948F2B8091F70360E0163615
:101B300009F461E00E94170A1F91089580917903CA
:101B40008F5F809379030E94CF2F88E060E00E942E
:101B5000C52F84EC91E060E00E94C92B80E00E94D8
:101B6000B30B84E00E947D0D8091F2036091FD0330
:101B70004091070423E00E94360D80910604609195
:101B8000FC034091F60325E00E94DB0C80E00E94FC
:101B9000D70B88E065E00E94C52F8AEC91E060E0F9
:101BA0000E94C92B8091B40060E00E94170A0E9435
:101BB000560C809179038150809379030895BF92E8
:101BC000CF92DF92EF92FF920F931F93CF93DF9309
:101BD0001091F203D090FD03F09007040E949E0D37
:101BE000809179038F5F8093790380E063E147E020
:101BF0000E942E0A809179038150809379038AE0B4
:101C00008093780303E08AE0B82EC8ECD0E080919E
:101C10007B0380FDA6C080917B03882321F4809103
:101C20007C03882319F0B092780307C08091780371
:101C3000882319F41092030494C080917B0381FFE0
:101C400048C010927B03809179038F5F8093790362
:101C5000033041F48AED91E064EE71E00E943A0CA9
:101C600005E62CC0053641F48DEE91E068EF71E099
:101C70000E943A0C06E622C0063641F481E092E06A
:101C800065E072E00E943A0C07E618C00E94560C0C
:101C90001093F203D092FD03F092070480910704A1
:101CA0006091FD034091F2030091FC03E090060473
:101CB000C090F60320E00E947A0703E0812F6D2D8B
:101CC0004F2D202F0E94360D8091790381508093F3
:101CD000790380917B0382FD04C080917C0382FFA5
:101CE00096CF10927B03809179038F5F8093790365
:101CF000053659F4812F90E0019668E170E00E946A
:101D0000393A182F8093F20315C0063649F48D2D09
:101D100090E001966CE370E00E94393AD82E0AC038
:101D2000073641F48F2D90E001966CE370E00E943D
:101D3000393AF82E812F6D2D4F2D202F0E94360D10
:101D40008091790381508093790380917C0382FF95
:101D50005ECF80ED97E0FE013197F1F70197D9F75B
:101D600056CFDF91CF911F910F91FF90EF90DF90B1
:101D7000CF90BF9008950F931F93CF93DF930E944E
:101D80009E0D809179038F5F8093790380E06BE0F3
:101D900047E00E942E0A8091790381508093790355
:101DA0008AE08093780314E00AE0C8ECD0E08091E8
:101DB0007B0380FD82C080917B03882321F4809186
:101DC0007C03882319F00093780307C0809178037F
:101DD000882319F41092030470C080917B0381FF63
:101DE00026C010927B03809179038F5F80937903E3
:101DF000143041F48EE092E064EE71E00E943A0CFF
:101E000015E60DC0153641F48DEE91E068EF71E0F6
:101E10000E943A0C16E603C00E94560C14E0812F73
:101E20000E947D0D80917903815080937903809188
:101E30007B0382FD04C080917C0382FFB8CF1092A7
:101E40007B03809179038F5F80937903153679F452
:101E50008091010490E0019668E170E00E94393AB7
:101E6000809301046091010480E090E010C0163678
:101E700081F48091F70390E001966CE370E00E949A
:101E8000393A8093F7036091F70381E090E00E9474
:101E90002C3B812F0E947D0D80917903815080938E
:101EA000790380917C0382FF82CF80ED97E0FE0171
:101EB0003197F1F70197D9F77ACFDF91CF911F9141
:101EC0000F9108950F931F930E949E0D80917903A7
:101ED0008F5F8093790380E063E247E00E942E0ADF
:101EE000809179038150809379038AE0809378030D
:101EF00018E00AE080917B0380FD78C080917B032D
:101F0000882321F480917C03882319F000937803BF
:101F100007C080917803882319F41092030466C0E7
:101F200080917B0381FF1BC010927B03809179031A
:101F30008F5F80937903183039F481E00E94D70BCA
:101F40000E94440C18E606C080E00E94D70B0E9455
:101F5000560C18E080917903815080937903809129
:101F60007B0382FD04C080917C0382FFC3CF10926B
:101F70007B03183609F0BECF8091F503882359F012
:101F8000809100048F5F8093000480910004823070
:101F900010F0109200048091F50390E0882309F47A
:101FA00091E09093F503809179038F5F809379039B
:101FB0000E949E0D0E94440C80E063E247E00E9474
:101FC0002E0A81E00E94D70B809179038150809383
:101FD00079036091000483E090E00E942C3B6091C3
:101FE000F50384E090E00E942C3B84CF1F910F9179
:101FF00008950F931F930E949E0D809179038F5F28
:10200000809379030E944B0C80E06BE247E00E94D2
:102010002E0A809179038150809379038AE080931E
:10202000780316E00AE080917B0380FD78C0809100
:102030007B03882321F480917C03882319F000938B
:10204000780307C080917803882319F41092030461
:1020500066C080917B0381FF27C010927B03809133
:1020600079038F5F80937903163069F482E665E027
:102070000E94C52F8091B40061E00E94170A0E945F
:10208000440C19E60CC082E665E00E94C52F8091E1
:10209000B40060E00E94170A0E944B0C16E0809189
:1020A000790381508093790380917B0382FD04C082
:1020B00080917C0382FFB7CF10927B03193609F021
:1020C000B2CF8091B4008F5F8093B4008091B40050
:1020D000813110F01092B400809179038F5F80936A
:1020E00079030E949E0D0E94440C80E06BE247E061
:1020F0000E942E0A82E665E00E94C52F8091B400FE
:1021000061E00E94170A80917903815080937903DE
:102110006091B40082E090E00E942C3B84CF1F913C
:102120000F910895BF92CF92DF92EF92FF920F939B
:102130001F93CF93DF93F090FC0310910604D0908F
:10214000F6030E949E0D809179038F5F809379033F
:1021500080E06BE147E00E942E0A80917903815074
:10216000809379038AE08093780305E04AE0B42EF7
:10217000C8ECD0E080917B0380FD38C180917B0367
:10218000882321F480917C03882319F0B09278038E
:1021900007C080917803882319F41092030426C1A4
:1021A00080917B0381FF93C010927B038091790320
:1021B0008F5F809379030530D1F4809100048823E8
:1021C000D1F1809100048230B1F18091000484301B
:1021D00091F180910004853071F18091000481308B
:1021E000C1F080910004833009F04EC012C00B3062
:1021F000C1F480910004882361F080910004823052
:1022000041F080910004843021F0809100048530F9
:1022100059F58DE292E068E372E00E943A0C0CE01E
:102220004BC00C3089F580910004813021F0809101
:102230000004833041F489E192E064E272E00E949C
:102240003A0C0BE039C0809100048823A9F08091FA
:102250000004823089F080910004843069F080911C
:102260000004853089F408C080910004813021F099
:1022700080910004833041F481E492E06CE472E0E8
:102280000E943A0C0DE018C00E94560CD092F60342
:1022900010930604F092FC03809107046091FD0303
:1022A0004091F2030091FC03E0900604C090F60315
:1022B00020E00E947A0705E0812F6F2D4D2D202F01
:1022C0000E94DB0C80917903815080937903809187
:1022D0007B0382FD04C080917C0382FF4BCF109270
:1022E0007B03809179038F5F809379030B3071F5C5
:1022F0001F5F1D3010F011E05CC01230D1F48D2D45
:1023000090E00E944307882331F08DE18F1518F487
:102310003DE1F32E4EC08D2D90E00E9443078823AF
:1023200009F047C08CE18F1508F043C02CE1F22E74
:1023300040C0143031F0163021F0193011F01B304C
:10234000C1F58EE18F1508F44BC033C00C3039F560
:10235000F3948FE18F1510F4FF24F394123099F465
:102360008D2D90E00E944307882319F08DE18F1591
:10237000D0F18D2D90E00E9443078823D1F48CE1A9
:102380008F1588F116C0143031F0163021F0193055
:1023900011F01B3071F48FE1F81629F10AC00D30ED
:1023A00041F48D2D90E0019664E670E00E94393A88
:1023B000D82E812F6F2D4D2D202F0E94DB0C809168
:1023C000790381508093790380917C0382FFD2CE80
:1023D00080ED97E0FE013197F1F70197D9F7CACE6A
:1023E0009EE1F92EE6CFFF24F394E3CFDF91CF9166
:1023F0001F910F91FF90EF90DF90CF90BF900895C5
:10240000FF920F931F930E949E0D809179038F5F1F
:10241000809379030E94560C80E063E047E00E94BD
:102420002E0A809179038150809379038AE080930A
:10243000780318EC5AE0F52E02ED01C018EC8091FB
:102440007B0380FD66C080917B03882321F480910B
:102450007C03882319F0F092780307C080917803F9
:10246000882319F41092030454C080917B0381FFE8
:102470001BC010927B03809179038F5F8093790357
:10248000183C39F481E00E94B30B0E94440C19EC13
:1024900006C080E00E94B30B0E94560C18EC80919D
:1024A000790381508093790380917B0382FD04C07E
:1024B00080917C0382FFC3CF10927B03193C09F00B
:1024C000BDCF8091FA038F5F8093FA038091FA0366
:1024D000863D10F00093FA036091FA0386E090E0E5
:1024E0000E942C3B809179038F5F809379030E9437
:1024F0009E0D0E94440C80E063E047E00E942E0A9B
:1025000081E00E94B30B809179038150809379031D
:1025100096CF1F910F91FF90089526982E9A81E0F3
:1025200080936800EBE6F0E080818064808382E045
:1025300080937C0010927B00EAE7F0E08EE88083D5
:10254000808180648083089580917A00877F809362
:102550007A0080917A00806480937A0080917A007A
:1025600084FFFCCF2091780030917900C901089553
:102570001F920F920FB60F9211242F933F934F93F8
:102580005F936F937F938F939F93AF93BF93EF93DB
:10259000FF937894809178009091790022E0803EBA
:1025A000920728F010927C0310927A0373C022E005
:1025B0008336920798F180917A0382FD6BC080E2A6
:1025C0009EE40197F1F70E94A412825692408E3742
:1025D000910508F05FC082E080937D0312C00E94E5
:1025E000A412825692408E37910558F080917A035A
:1025F0008B7F80937A0380917B03846080937B033D
:1026000049C080917D03882351F780917A038460CB
:1026100080937A0380917C0384603AC08F5091400C
:10262000E8F080917A0381FD10C080E29EE401977A
:10263000F1F70E94A4128E5091408555914050F5BB
:1026400080917B03826080937B0380917A03826018
:1026500080937A0380917C0382601AC080917A0310
:1026600080FD0EC080E29EE40197F1F70E94A41263
:102670008F50914078F480917B03816080937B033D
:1026800080917A03816080937A0380917C038160DA
:1026900080937C0380917A00886480937A00FF9114
:1026A000EF91BF91AF919F918F917F916F915F91CA
:1026B0004F913F912F910F900FBE0F901F90189543
:1026C0001F920F920FB60F9211242F933F934F93A7
:1026D0005F936F937F938F939F93AF93BF93EF938A
:1026E000FF9378940E941307FF91EF91BF91AF91F0
:1026F0009F918F917F916F915F914F913F912F911A
:102700000F900FBE0F901F9018958091FA03909133
:10271000FB03833D9105A1F0843D910524F4823DA6
:10272000910599F40AC0843D910521F0853D9105FC
:1027300061F409C00E94DA1C08950E9435230895AF
:102740000E941A2108950E94732408952091FA038B
:102750003091FB03233D3105A1F0243D310524F4E4
:10276000223D3105A1F40AC0243D310521F0253D6B
:10277000310569F409C00E94031B08950E943E249C
:1027800008950E943222089590E00E940A27089539
:102790002091FA033091FB03233D3105A1F0243D44
:1027A000310524F4223D310599F40AC0243D310558
:1027B00021F0253D310561F409C00E94F41B089504
:1027C0000E94472408950E94F92108950E94EA2852
:1027D00008958091FA039091FB03833D9105A1F048
:1027E000843D910524F4823D910599F40AC0843D0D
:1027F000910521F0853D910561F409C00E948B1C73
:1028000008950E946A2408950E94032208950E9458
:10281000662908952F923F924F925F926F927F9216
:102820008F929F92AF92BF92CF92DF92EF92FF92E0
:102830000F931F9320908003309081034090820378
:10284000509083036090840370908503809086038A
:1028500090908703AA24BB246501F501E370F07012
:10286000EE0FFF1FEE0FFF1FEE5DFB4FE080F180CC
:1028700002811381EA0CFB1C0C1D1D1DD401C30138
:1028800075E0B695A795979587957A95D1F7A401A8
:10289000930164E0220F331F441F551F6A95D1F73F
:1028A00082279327A427B527860D971DA81DB91D3C
:1028B000E826F9260A271B272E0C3F1C401E511E16
:1028C00089EB99E7A7E3BEE9A80EB91ECA1EDB1E75
:1028D000A2019101F5E05695479537952795FA9510
:1028E000D1F7D201C101E4E0880F991FAA1FBB1FD5
:1028F000EA95D1F7282739274A275B27220D331D70
:10290000441D551DD601C5017BE0B695A795979549
:1029100087957A95D1F783709070880F991F880FEB
:10292000991F8E5D9B4FFC0180819181A281B381B3
:102930008A0D9B1DAC1DBD1D282739274A275B2703
:10294000620E731E841E951EF0E2AF16F7E3BF06FB
:10295000FFEECF06F6ECDF0609F07FCF2092800372
:1029600030928103409282035092830360928403E9
:102970007092850380928603909287031F910F9136
:10298000FF90EF90DF90CF90BF90AF909F908F908F
:102990007F906F905F904F903F902F90089580EBC5
:1029A00096EEA2E7B1EB80932E0490932F04A093B0
:1029B0003004B09331048091070490E0A0E0B0E0CF
:1029C0002EE631E749EE5DE282279327A427B5275B
:1029D0008093220490932304A0932404B0932504AD
:1029E0008091FD0390E0A0E0B0E021ED3DED4FE3EC
:1029F00059E982279327A427B5278093260490932B
:102A00002704A0932804B09329048091F20390E056
:102A1000A0E0B0E027E53BEF47E75AE282279327A3
:102A2000A427B52780932A0490932B04A0932C0409
:102A3000B0932D04109280031092810310928203B0
:102A400010928303109284031092850310928603E0
:102A5000109287030E940A1408958130F9F480913E
:102A6000840390918503A0918603B0918703209100
:102A70008003309181034091820350918303822728
:102A80009327A427B5273FE0B695A79597958795F7
:102A90003A95D1F79C01237030702FC08230F9F441
:102AA0008091840390918503A0918603B091870360
:102AB00020918003309181034091820350918303E0
:102AC00082279327A427B52721E1B695A795979547
:102AD00087952A95D1F79C01217030700EC0A8957A
:102AE0000E940A1420918403309185038091800311
:102AF00090918103282739273F77C9010895909144
:102B0000710380917F03981739F081E080937E03F1
:102B10008091710380937F0380917103823009F467
:102B200044C0833030F4882359F0813009F04DC01F
:102B300026C0833009F441C0853009F046C02BC05F
:102B400080916D03882321F480916E03882381F0A6
:102B500080916E03882329F08091FE0380933804CE
:102B600004C080916D03882381F18091F40322C019
:102B70008091F203809338048091FD031BC0809103
:102B80000004882321F080910004823039F4809180
:102B90000604809338048091FC030CC08091FC03F0
:102BA000809338048091060405C084E18093380442
:102BB0008091F603809339040895809101048093F5
:102BC00038048091F703809339040895AF92CF922F
:102BD000EF920F93A82FB0E0E02FF0E0CD01840F2B
:102BE000911D8E179F07B4F0EC0DF11DEA17FB073E
:102BF0008CF070E04E2D50E0CB01820F911D8417B8
:102C0000950744F080E04A0D511D461757071CF008
:102C100081E001C080E00F91EF90CF90AF900895D8
:102C2000EF92FF920F931F9380E00E942D15A0E07A
:102C3000B0E0BC01CD010E948C3720E030E048E4D8
:102C400052E40E94A43420E03EEF4FEF56E40E948D
:102C50009E3520E030E040EA51E40E9477347B0169
:102C60008C0181E00E942D1583702AE5829FC001AE
:102C70001124AA2797FDA095BA2FBC01CD010E946F
:102C8000DA369B01AC01C801B7010E94773426E512
:102C90003EE049E450E40E94A43420E030E044E304
:102CA00053E40E949E351F910F91FF90EF9008957D
:102CB0002F923F924F925F926F927F928F929F924C
:102CC000AF92BF92CF92DF92EF92FF920F931F933A
:102CD000DF93CF93CDB7DEB761970FB6F894DEBF21
:102CE0000FBECDBFEC86FD860E871F87998A888A26
:102CF0002D833E834F835887AC01CB01DA013C0121
:102D00004D01C501D6015C016D011A8619869FC06F
:102D10006D817E818F819885A60195010E9477340F
:102D20001B012C01C401B3012C853D854E855F85B7
:102D30000E94773469837A838B839C83C201B101BB
:102D400020E030E048E652E40E944A3618167CF44F
:102D5000D7FAD094D7F8D0940F2EF0E02F2EF0E0D1
:102D60003F2EF8E64F2EF2E45F2EF02D18C0C20180
:102D7000B10120E030E040E050E40E94AA36882310
:102D800074F4D7FAD094D7F8D0940F2EF0E02F2E09
:102D9000F0E03F2EF0E04F2EF0E45F2EF02D698141
:102DA0007A818B819C810E9438376B876F368CF0DB
:102DB000C801B70120E030E046EE52E40E94AA3696
:102DC00088233CF460E070E086EE92E4A80197016D
:102DD00013C0FB85FE3054F5C401B30120E030E0A0
:102DE00040E551E40E944A36181604F560E070E0B0
:102DF00080E591E4A40193010E9446342C853D8531
:102E00004E855F850E949E35A60195010E94A434DF
:102E10009B01AC016D817E818F8198850E94773402
:102E20000E94CE32E889F989608307C0F985FF23C3
:102E300021F48A858F5F8A8702C0E1E0E9872D82CD
:102E40003E824F82588669807A808B809C80C40144
:102E5000B30120E030E04CEE52E40E94AA36882311
:102E60009CF4C401B30120E030E040E850E40E944B
:102E700077347B018C0120E030E040E251E40E9495
:102E80004A3618160CF444CF6D817E818F81988567
:102E90000E94CE32EEA1FFA160838A8561960FB6B3
:102EA000F894DEBF0FBECDBFCF91DF911F910F9180
:102EB000FF90EF90DF90CF90BF90AF909F908F905A
:102EC0007F906F905F904F903F902F9008957F92EA
:102ED0008F929F92AF92BF92CF92DF92EF92FF922A
:102EE0000F931F93CF93DF93D82E762EC22E85E0BB
:102EF000489FA001112470E6E72E7FEFF72EE40E25
:102F0000F51E65E6862E6FEF962E840E951EC70180
:102F10000E945C2B172DC0E0D0E0A82EBB24C50179
:102F20000C2E02C0959587950A94E2F780FF09C0A0
:102F300000E0CC2009F401E08D2D612F42E022E079
:102F400005C08D2D612F42E022E00C2D0E94DA2B6E
:102F500021961E5FC730D10511F70894E11CF11CC2
:102F600082E0D80EE814F90491F6DF91CF911F9119
:102F70000F91FF90EF90DF90CF90BF90AF909F9018
:102F80008F907F9008958F929F92AF92BF92CF9231
:102F9000DF92EF92FF920F931F93CF93DF93D82E80
:102FA000862E922EC42FD0E0CC0FDD1FCC0FDD1F5C
:102FB000C95FDF4FCC24CE010E94243B182DE7E0EF
:102FC000EE2EF12CA82EBB24C5010E2C02C0959527
:102FD00087950A94E2F780FF09C000E0992009F480
:102FE00001E08D2D612F42E022E005C08D2D612F83
:102FF00042E022E0092D0E94DA2B0894E108F10852
:103000001E5F8FEFE8168FEFF806F1F6C394219656
:1030100082E0D80E84E0C81671F6DF91CF911F913F
:103020000F91FF90EF90DF90CF90BF90AF909F9067
:103030008F900895AF92BF92CF92DF92EF92FF925E
:103040000F931F93CF93DF93A82EB62E8091710319
:10305000843009F07FC080918803843069F1C5E530
:10306000D2E0899164E04AE02B2D0E94C31782E0F0
:10307000C935D807B1F760911E0470911F04809183
:103080002004909121040E94CE32162F60911104E9
:103090007091120480911304909114040E94CE3216
:1030A00000E0BB2009F401E0812F44E024E00E940D
:1030B000DA2B84E080938803A9E5CA2EA2E0DA2EF9
:1030C000C0E0D0E0AA2049F5E0903404F090350447
:1030D000009136041091370460911A0470911B041A
:1030E00080911C0490911D040E94CE3270E0F60184
:1030F0008181282F30E0CB010496821793070CF1D1
:10310000265F3F4F26173707E4F0C801B7010E943A
:10311000CE3270E065317105A4F4F6011081809122
:1031200006046091FC034091F6030E94012B90E09D
:10313000BE010E94502B482F812F64E02B2D0E944E
:10314000671721960894C11CD11CC330D10509F022
:10315000B9CF2EC28091710390918803853009F018
:10316000DBC0953009F43FC0943061F4CAE5D2E089
:10317000899164E040E22B2D0E946717F2E0CD3583
:10318000DF07B1F780918803882361F4C5E5D2E0B9
:10319000899164E04AE02B2D0E94C31782E0C93573
:1031A000D807B1F760911E0470911F04809120042C
:1031B000909121040E94CE32162F609111047091DB
:1031C000120480911304909114040E94CE3200E006
:1031D000BB2009F401E0812F44E024E00E94DA2BB7
:1031E00085E080938803C9E5D2E0DD24AA2041F57B
:1031F000E0903404F09035040091360410913704C7
:1032000060911A0470911B0480911C0490911D041C
:103210000E94CE3270E08881282F30E0CB010496E6
:1032200082179307CCF0265F3F4F26173707A4F08D
:10323000C801B7010E94CE3270E06531710564F4B7
:103240001881809106046D2D0E94452B482F812FF7
:1032500064E02B2D0E946717D3942196E3E0DE16DD
:1032600029F6AA2009F5E0903404F0903504009185
:1032700036041091370460911A0470911B048091F8
:103280001C0490911D040E94CE3270E062347105DE
:10329000C4F061357105ACF4C801B7010E94CE32AB
:1032A00070E0653171056CF4809139046AE00E9428
:1032B000193A482F86E464E02B2D0E94C317AA20F8
:1032C00021F5E0903404F09035040091360410911B
:1032D000370460911A0470911B0480911C04909132
:1032E0001D040E94CE3270E0613571050CF460C19E
:1032F000603671050CF05CC1C801B7010E94CE3286
:1033000070E0653171050CF053C1809139046AE0B9
:103310000E94193A85E547C1892F8450823008F010
:103320005AC09530C1F4C9E5D2E0899164E040E229
:103330002B2D0E946717F2E0CC35DF07B1F786E44A
:1033400064E04AE02B2D0E94C31785E564E04AE063
:103350002B2D0E94C31780918803843061F4CAE545
:10336000D2E0899164E040E22B2D0E94671782E051
:10337000CD35D807B1F780918803882361F4C5E57E
:10338000D2E0899164E04AE02B2D0E94C317E2E06D
:10339000C935DE07B1F760911E0470911F0480915A
:1033A0002004909121040E94CE32162F60911104C6
:1033B0007091120480911304909114040E94CE32F3
:1033C00000E0BB2009F401E0812F44E024E00E94EA
:1033D000DA2B10928803AA20F1F4E0903404F090E4
:1033E0003504009136041091370460911A047091ED
:1033F0001B0480911C0490911D040E94CE3270E049
:103400006B30710584F5C801B7010E94CE3270E0BF
:103410006531710544F58091F5038823B9F48091F5
:103420007103882321F080917103833079F48091B6
:10343000380490E047966CE070E00E94393A0196BB
:103440006AE070E00E94393A462F06C08091380445
:103450006AE00E94193A482F80E064E02B2D0E9418
:10346000C317AA2009F5E0903404F09035040091C8
:1034700036041091370460911A0470911B048091F6
:103480001C0490911D040E94CE3270E06A317105D7
:10349000ACF16932710594F5C801B7010E94CE32D2
:1034A00070E06531710554F58091F5038823C9F406
:1034B00080917103882321F080917103833089F416
:1034C0008091380490E047966CE070E00E94393AB1
:1034D00001966AE070E00E94393A482F8EE164E07C
:1034E00008C0809138046AE00E94193A8EE164E0D5
:1034F000492F2B2D0E94C317AA2009F5E090340410
:10350000F0903504009136041091370460911A044C
:1035100070911B0480911C0490911D040E94CE3276
:1035200070E064347105C4F063357105ACF4C80112
:10353000B7010E94CE3270E0653171056CF4809164
:1035400039046AE00E94193A482F88E464E02B2D80
:103550000E94C317AA2009F5E0903404F0903504C6
:10356000009136041091370460911A0470911B0485
:1035700080911C0490911D040E94CE3270E062364E
:103580007105B4F0613771059CF4C801B7010E9460
:10359000CE3270E0653171055CF4809139046AE0E7
:1035A0000E94193A86E664E0492F2B2D0E94C3172A
:1035B000DF91CF911F910F91FF90EF90DF90CF900F
:1035C000BF90AF9008950F931F93082F10E08FE3E3
:1035D000612F0E94C52F002311F080EF01C08FE002
:1035E0000E946C2F1F5F173091F78FE367E00E94F6
:1035F000C52F002311F080E201C08FEC0E946C2FD8
:103600001F910F910895BF92CF92DF92EF92FF9298
:103610000F931F93B82E0E947F1560911A0470912A
:103620001B0480911C0490911D040E94CE327B01EA
:103630008C0160913404709135048091360490912E
:1036400037040E94CE329B01AC018E2D622F44E0E4
:1036500024E00B2D0E94DA2BCC24BB2011F4CC24C7
:10366000C39460911E0470911F0480912004909176
:1036700021040E94CE327B018C0160911104709173
:10368000120480911304909114040E94CE329B0185
:10369000AC018E2D622F44E024E00C2D0E94DA2B29
:1036A000E0903404F0903504009136041091370412
:1036B00060911A0470911B0480911C0490911D0468
:1036C0000E94CE3270E06B33710564F06134710595
:1036D0004CF4C801B7010E94CE3270E0613471052C
:1036E0000CF476C060910A04262F30E080910B0420
:1036F000992787FD90952817390771F08AE043E0F4
:103700002CE00B2D0E94DA2B8AE060910B0443E041
:103710002CE00C2D0E94DA2B60913304262F30E030
:1037200080913204992787FD90952817390771F009
:1037300083E743E02CE00B2D0E94DA2B83E76091B6
:10374000320443E02CE00C2D0E94DA2BE09034048C
:10375000F09035040091360410913704D090320473
:1037600060911A0470911B0480911C0490911D04B7
:103770000E94CE3270E06F367105A4F06737710594
:103780008CF4C801B7010E94CE3270E02D2D30E0DC
:10379000CB010496821793072CF0245F3F4F261726
:1037A0003707D4F41092700080917E03882311F0C3
:1037B00010927E0381E0809370006B2D0E941A1896
:1037C0001F910F91FF90EF90DF90CF90BF900895E1
:1037D0008B2D0E94E31A86CF83E76D2D43E02CE00A
:1037E0000C2D0E94DA2BDECFFF920F931F93F82E41
:1037F00080E060E040E820E40F2D0E94DA2B10E02A
:10380000FF2009F411E080E060E040E822E0012FB1
:103810000E94DA2B80E06EE340E822E00E94DA2B7F
:103820008AE060910B0443E02CE00E94DA2B83E7EE
:103830006091320443E02CE00E94DA2B0E947F1555
:103840008091F5038823B9F480917103882321F0D6
:1038500080917103833079F48091380490E0479629
:103860006CE070E00E94393A01966AE070E00E94D4
:10387000393A462F06C0809138046AE00E94193A0E
:10388000482F80E064E02F2D0E94C3178091F5033C
:103890008823C9F480917103882321F080917103FA
:1038A000833089F48091380490E047966CE070E0B2
:1038B0000E94393A01966AE070E00E94393A482F36
:1038C0008EE164E008C0809138046AE00E94193AF1
:1038D0008EE164E0492F2F2D0E94C3178091390497
:1038E0006AE00E94193A482F88E464E02F2D0E9474
:1038F000C317809139046AE00E94193A86E664E0B1
:10390000492F2F2D0E94C3178F2D0E94E31A1F915C
:103910000F91FF900895EF92FF920F931F9389E10B
:1039200080930B048093320480E090E0ACE7B2E433
:1039300080931E0490931F04A0932004B09321044D
:1039400080E090E0A8EFB1E480931104909312041A
:10395000A0931304B09314040E9410167B018C01F1
:103960000E94C03A20E030E040EA50E40E94A434D3
:1039700060931504709316048093170490931804B1
:10398000C801B7010E941E3B20E030E040EA50E44D
:103990000E94A43460930D0470930E0480930F046E
:1039A0009093100480E00E94F41B1F910F91FF90F0
:1039B000EF9008952F923F924F925F926F927F9275
:1039C0008F929F92AF92BF92CF92DF92EF92FF922F
:1039D0000F931F93DF93CF93CDB7DEB72E970FB61C
:1039E000F894DEBF0FBECDBF60911E0470911F041E
:1039F000809120049091210460931A0470931B0419
:103A000080931C0490931D04E0901104F090120424
:103A10000091130410911404E0923404F0923504E0
:103A20000093360410933704209115043091160446
:103A300040911704509118040E9477345B016C0187
:103A400060931E0470931F048093200490932104BC
:103A500060900D0470900E0480900F0490901004FC
:103A6000C801B701A40193010E9477346093110447
:103A700070931204809313049093140420E030E0B8
:103A800048E652E40E944A361816BCF480E090E002
:103A9000A8E6B2E48093110490931204A093130457
:103AA000B0931404D401C301B05880930D049093D3
:103AB0000E04A0930F04B093100460911104709150
:103AC0001204809113049091140420E030E040E04F
:103AD00050E40E94AA368823ECF480E090E0A0E055
:103AE000B0E48093110490931204A0931304B09354
:103AF000140480910D0490910E04A0910F04B091D4
:103B00001004B05880930D0490930E04A0930F04FA
:103B1000B0931004C601B50120E030E048EF52E454
:103B20000E944A3618163CF0C601B5010E9438378B
:103B300016160CF464C080E090E0ACE7B2E4809329
:103B40001E0490931F04A0932004B093210480E0EE
:103B500090E0A8EFB1E48093110490931204A09335
:103B60001304B09314040E9410167B018C010E9470
:103B7000C03A20E030E040EA50E40E94A434609370
:103B80001504709316048093170490931804C801C9
:103B9000B7010E941E3B20E030E040EA50E40E9462
:103BA000A43460930D0470930E0480930F049093DB
:103BB000100460918F0320918E03261B8AE043E05E
:103BC00000E00E94DA2B6091930320919203261B60
:103BD00083E743E00E94DA2B109292031092930342
:103BE00010928E0310928F0381E080937E031092D7
:103BF0006E0380916E0380936D030E947F15809108
:103C00000B048E8380930A04909132049D839093D9
:103C100033042090150430901604409017045090FF
:103C20001804C201B10120E030E040E050E00E9401
:103C30004A3618160CF038C160911E0470911F04AA
:103C400080912004909121040E9438376F360CF443
:103C500067C0E0901A04F0901B0400911C041091BE
:103C60001D04C801B7010E94383760370CF058C0F6
:103C7000C801B70120E030E040E850E40E9477340A
:103C80009B01AC0160E070E086EE92E40E94463455
:103C90005B016C0160900D0470900E0480900F0425
:103CA00090901004C801B701A60195010E947734D5
:103CB0006F83788789879A87E0903404F090350481
:103CC00000913604109137040E94CE3270E06F36B6
:103CD000710534F1673771051CF5C601B501A20104
:103CE00091010E949E35A40193010E94A4349B017E
:103CF000AC01C801B7010E9477347B018C010E949E
:103D0000CE3270E0AD812A2F30E0CB0104968217CD
:103D1000930734F0245F3F4F261737070CF02CC26F
:103D2000E0901504F0901604009117041091180407
:103D3000C801B70120E030E040E050E00E944A3680
:103D400018160CF0FBC160901E0470901F04809048
:103D5000200490902104C401B30120E030E040E849
:103D600050E40E94773420E030E046EE52E40E94B6
:103D7000AA3688230CF0E2C180919303882309F0CE
:103D80005DC000D0209111043091120440911304C1
:103D900050911404A0900D04B0900E04C0900F0434
:103DA000D090100480E993E0EDB7FEB79283818351
:103DB000C401B301E1E98E2EE3E09E2E0E94581665
:103DC0008093890390919103809190030F900F90BD
:103DD000891738F4809393039C5F909392039450D7
:103DE00005C0909393038C5F8093920380916E0340
:103DF000882379F4892F845080938B03992787FD3A
:103E000090950E94192A86E890E061E00E94A52919
:103E10001AC000919303109192030F3058F01133A0
:103E200028F482E00E942D1580FF04C00D500093FD
:103E30008B0309C01F5F10938B0305C0809189031A
:103E40008150809389033091320460918B03832FDA
:103E5000861B482F552747FD509557FF03C05095A7
:103E600041955F4F8091890325E08202C0011124B2
:103E70000497481759070CF461C1842F36173CF496
:103E8000463014F03B5F01C0340F30933204909100
:103E9000320469170CF052C1863014F0955001C0FD
:103EA000981B909332044AC180911E0490911F0484
:103EB000A0912004B091210489839A83AB83BC83B1
:103EC000BC01CD010E9438376E300CF07DC0E0900F
:103ED0001A04F0901B0400911C0410911D04C801E9
:103EE000B7010E9438376D300CF46EC060E070E0AE
:103EF00080E591E4A80197010E9446345B016C01C2
:103F000060900D0470900E0480900F049090100447
:103F1000C801B701A60195010E9477346B877C87A1
:103F20008D879E87E0903404F0903504009136042C
:103F3000109137040E94CE3270E0663071050CF4A7
:103F400043C06E3071050CF03FC0C601B501A2013F
:103F500091010E949E35A40193010E94A4349B010B
:103F6000AC01C801B7010E9477347B018C010E942B
:103F7000CE3270E09E81292F30E0CB01049682176B
:103F8000930714F1245F3F4F26173707ECF024C145
:103F90008B859C85AD85BE8580931E0490931F0400
:103FA000A0932004B0932104E0921104F092120433
:103FB000009313041093140410928E0310928F0335
:103FC00010928A0310928D03E0901504F09016046D
:103FD0000091170410911804C801B70120E030E0E7
:103FE00040E050E00E94AA3688230CF0A7C0609001
:103FF0001E0470901F048090200490902104C4013E
:10400000B30120E030E040E651E40E944A36181641
:104010000CF094C080918F03882309F054C000D025
:104020002091110430911204409113045091140412
:10403000A0900D04B0900E04C0900F04D090100416
:104040008CE893E0ADB7BEB712969C938E93119710
:10405000C401B301BDE88B2EB3E09B2E0E9458161D
:104060008093890390918D0380918C030F900F9022
:10407000891738F480938F039C5F90938E0394503C
:1040800005C090938F038C5F80938E0380916D03A6
:10409000882321F4945090938A031AC000918F03CF
:1040A00010918E030F3058F0113328F482E00E94F3
:1040B0002D1580FF04C00D5000938A0309C01F5FB7
:1040C00010938A0305C080918903815080938903EE
:1040D00040910B0460918A03242F332727FD3095EC
:1040E000862F992787FD9095281B390B37FF03C032
:1040F000309521953F4F522F8091890325E0820210
:10410000C00111240497252F332727FD3095281748
:104110003907A4F046173CF4563014F04B5F01C049
:10412000450F40930B0480910B0468173CF4563004
:1041300014F0855001C0851B80930B0480910B0403
:1041400083301CF483E080930B048091320483302D
:104150001CF483E08093320480910B0482331CF0C2
:1041600081E380930B048091320482330CF449C0C4
:1041700081E38093320445C08F819885A985BA85F3
:1041800080931E0490931F04A0932004B0932104F5
:10419000E0921104F092120400931304109314049B
:1041A000D201C101B0588093150490931604A093D6
:1041B0001704B09318041092920310929303109274
:1041C0008B031092910310928E0310928F03109222
:1041D0008A0310928D03A4CDD201C101B0588093FF
:1041E000150490931604A0931704B09318046981E2
:1041F0007A818B819C810E94CE326D3009F0C8CECD
:10420000DBCE2E960FB6F894DEBF0FBECDBFCF919A
:10421000DF911F910F91FF90EF90DF90CF90BF90B3
:10422000AF909F908F907F906F905F904F903F9056
:104230002F90089510926E0380916E0380936D030A
:104240000895DF92EF92FF920F931F93D82EE62EE0
:1042500010E0442309F411E08D2D8E5F6E2D4EE0A9
:1042600026E0012F0E94DA2BFE2CF3948D2D8F5F18
:104270006F2D41E024E00E94DA2B82E0E80E8D2DC4
:104280006E2D41E022E00E94DA2B8D2D805F6F2D94
:1042900041E024E00E94DA2B8D2D8F5E6E2D41E0EF
:1042A00022E00E94DA2B1F910F91FF90EF90DF9098
:1042B0000895DF92EF92FF920F931F93D82E162F3F
:1042C000EE24442311F4EE24E394612F6E5F8D2DD0
:1042D00046E025E10E2D0E94DA2BFD2CF394612F90
:1042E0006F5F8F2D44E021E00E94DA2B82E0D80E30
:1042F0008D2D612F42E021E00E94DA2B195E8F2D77
:10430000612F44E021E00E94DA2B1F5F8D2D612F89
:1043100042E021E00E94DA2B1F910F91FF90EF9075
:10432000DF9008958436D1F0853638F4823681F0F6
:10433000833680F4813641F507C08636C1F0863673
:10434000A0F0873609F51AC0862F8C5F642F09C04C
:104350004B5F01C04E5D862F8C5E0BC0862F8C5F3D
:104360006AE3422F0E94212108954E5D01C04B5FF8
:10437000862F642F422F0E9459210895862F8C5F2B
:104380006DE1422F0E9421210895CF92DF92EF929A
:10439000FF920F931F93CF93DF93C82ED62E022F39
:1043A000C7E0D0E011E6E42EFF24C7010C2E02C0C6
:1043B000959587950A94E2F780FF05C0812F6C2DB3
:1043C0004D2D202F07C020E0002309F421E0812F8C
:1043D0006C2D4D2D0E94922121971F5F183629F7D1
:1043E000DF91CF911F910F91FF90EF90DF90CF90D1
:1043F00008950F93082F80E060E040E820E40E94D9
:10440000DA2B0F9108950F9380E060E040E820E4FC
:1044100000E00E94DA2B0F910895FF920F931F93F3
:10442000182F062FF22E842F90E04A3028F4835B59
:104430009F4F0E94243B04C08E5290400E94243B18
:10444000482F812F602F2F2D0E94C5211F910F9182
:10445000FF90089520E0442309F421E044E00E9405
:10446000CA2C0895FF920F931F93809171038823A4
:10447000B1F080917103833091F080E465E144E014
:1044800020E00E94CA2C80E46AE244E020E00E941E
:10449000CA2C80E466E044E020E00E94CA2C8091AF
:1044A00071038230F1F480E060E042E020E00E949D
:1044B0000D228EE160E040E020E00E940D2280911C
:1044C000F60364E60E94193A892F6AE00E94193ABD
:1044D000482F88E460E020E00E940D228091F603DE
:1044E00030C0809171038130B1F580910004882340
:1044F00029F4109106040091FC0304C01091FC0300
:1045000000910604812F6AE00E94193A482F80E04A
:1045100060E020E00E940D22812F6AE00E94193A9B
:104520008EE160E0492F20E00E940D22802F6AE09A
:104530000E94193A482F88E460E020E00E940D2292
:10454000802F6AE00E94193A86E660E0492F20E059
:104550000E940D2286C080917103882329F08091EA
:104560007103833009F07DC080917103833029F499
:1045700010910104F090F70304C01091F203F09041
:10458000FD038091F5038823B9F4812F90E04796CD
:104590006CE070E00E94393A082F0F5F1C3028F45D
:1045A00080E466E044E021E004C080E466E044E0AA
:1045B00020E00E94CA2C07C080E466E044E020E0CE
:1045C0000E94CA2C012F0A3048F0802F6AE00E9416
:1045D000193A482F80E060E020E004C080E060E00D
:1045E00048E021E00E940D22802F6AE00E94193AE3
:1045F0008EE160E0492F20E00E940D228F2D6AE0BD
:104600000E94193A482F88E460E020E00E940D22C1
:104610008F2D6AE00E94193A86E660E0492F20E07B
:104620000E940D2280916F03882379F08091070406
:1046300080FF0BC080E465E144E021E00E94CA2CC9
:1046400080E46AE244E021E00AC080E465E144E0FD
:1046500020E00E94CA2C80E46AE244E020E00E944C
:10466000CA2C1F910F91FF90089580915F02815095
:1046700080935F028823F1F485E080935F0280914C
:104680005D028093960390915E02980F90935D0275
:10469000903218F08FEF80935E02992319F481E035
:1046A00080935E0290E080919703882309F491E063
:1046B000909397030895FF920F931F93082FF62E60
:1046C0006AE00E94193A182F805D6F2D0E948F2B8F
:1046D000005D86EF9FEF189F102D1124812F800F12
:1046E0006F2D0E948F2B1F910F91FF9008951F93A4
:1046F000182F80E060E00E94C52F80913804612F60
:104700000E945B2380913B04612F0E945B2386E61D
:1047100060E00E94C52F80913904612F0E945B23C5
:1047200080913A04612F0E945B231F910895282FE6
:1047300080916D03882359F480916E03882339F4A6
:104740009091710380919903891709F45EC01092CA
:104750006E0380916E0380936D038091980388238C
:1047600009F053C080917103809399039091F203F3
:104770008091F503882319F068E170E002C06CE0D5
:1047800070E0892F90E00E94393A8093380480913C
:10479000FD0380933B04809171038330A1F49091D9
:1047A00001048091F503882319F068E170E002C0EC
:1047B0006CE070E0892F90E00E94393A80933904D0
:1047C0008091F7031BC080917103813031F484E143
:1047D000809339048091F60311C0809100048823EE
:1047E00039F480910604809339048091FC0306C05B
:1047F0008091FC03809339048091060480933A04ED
:1048000010929803822F0E9477230895EF92FF92CF
:104810000F931F9390915D0280919603981718F45F
:10482000892F805A02C0892F815068E041E020E33F
:1048300000E00E94DA2B60E083E0E82E14C0809153
:104840005D02800F612F0E94C52F809197038E9D7E
:10485000C00111248F0D0E94612B005F003679F793
:10486000163039F0612FF62EF69400E0162F1F5FF8
:10487000E6CF1F910F91FF90EF9008951F93182F8F
:104880000E940624812F0E9497231F9108950F9361
:104890001F93182F80E060E040E820E4012F0E9481
:1048A000DA2B83E680939903812F0E949723812F2F
:1048B0000E9477230E94062414E1812F67E00E9462
:1048C000C52F86E00E94612B185E1437B1F71F9147
:1048D0000F91089581E080935D021092960380E02D
:1048E0000E94472408950895DF92EF92FF920F935C
:1048F0001F93CF93DF93D82EF62EE22EF694F694E4
:10490000F694EA0100E015C0FE011491802F6CE1DD
:104910000E94193A292F2D0D802F0E94193A682FD5
:104920006F0D822F0E94C52F812F0E946C2F0F5F69
:1049300021960E1548F3DF91CF911F910F91FF90B3
:10494000EF90DF900895CF92DF92EF92FF920F9356
:104950001F93CF93DF93C82EF62ED22EE02EF6941F
:10496000F694F694EA0110E019C00881812F6CE1F9
:104970000E94193A992341F4812F0E94193A682F15
:104980006F0D8C2D0E94C52FEE2019F0802F809581
:1049900001C0802F0E946C2F1F5F21961D1528F3E8
:1049A000DF91CF911F910F91FF90EF90DF90CF900B
:1049B00008957F928F929F92AF92BF92CF92DF9293
:1049C000EF92FF920F931F93DF93CF93CDB7DEB794
:1049D000C05ED0400FB6F894DEBF0FBECDBFA82E8C
:1049E000962EB22E802EFE01319680EEDF011D92B2
:1049F0008A95E9F7DA0150E09CE1792E81E0C82E32
:104A0000D12C7F011CC0F90184912F5F3F4FF90128
:104A1000749121503040482F09C0F801E40FF11D76
:104A2000EE0DFF1D8081862B80834F5F4717A8F313
:104A30009F5F2E5F3F4F923031F75F5F14965B159B
:104A400088F4852F869586958695879D800111240B
:104A5000852F87706C2D01C0660F8A95EAF79D013E
:104A600090E0D1CF8A2D692DAE014F5F5F4F20EED0
:104A7000082D0E94A324C052DF4F0FB6F894DEBF6A
:104A80000FBECDBFCF91DF911F910F91FF90EF909F
:104A9000DF90CF90BF90AF909F908F907F900895C0
:104AA0000F93942F022F592F40E04D5F5D4F20E46C
:104AB0000E94D9240F9108952F923F924F925F92B6
:104AC0006F927F928F929F92AF92BF92CF92DF921E
:104AD000EF92FF920F931F93DF93CF93CDB7DEB783
:104AE000C35FD0400FB6F894DEBF0FBECDBFC2513A
:104AF000DF4F8883CE5ED040C151DF4F6883CF5EE9
:104B0000D040C051DF4F4883C05FD040CF50DF4F0F
:104B10000883C15FD040FE01399680EEDF011D920F
:104B20008A95E9F780919D03282E3324D22ECC2438
:104B300043E052E0C40ED51EC051DF4F8881C05FF4
:104B4000D040F82EEE24E40EF51E88249924B5E01A
:104B50006B2E712C6C0E7D1ECE50DF4FF983E883D7
:104B6000C25FD040582DC051DF4F8881C05FD04018
:104B70008F3F29F41C821B821A82198209C0DE0130
:104B80001196F70184918D933196A615B705D1F74B
:104B90009981C451DF4F9883CC5ED04030E09F3F75
:104BA00009F031E08B818F3F09F03F5FD301F601BF
:104BB00084918D933196CE50DF4F88819981C25F69
:104BC000D040A817B907A1F79D81C551DF4F988341
:104BD000CB5ED04090E0C551DF4FA881CB5ED04086
:104BE000AF3F09F091E08F818F3F09F09F5F292F40
:104BF000931708F4232FBA81C351DF4FB883CD5EDA
:104C0000D040569556955695ECE15E9F20011124B3
:104C1000C4018770907041E050E002C0440F551FFE
:104C20008A95E2F7C751DF4F4883C95ED0405E8165
:104C3000C651DF4F5883CA5ED04083015E0108949D
:104C4000A11CB11C622F70E0660F771F660D771DE7
:104C500069C0D5012C912F3F19F01196BC910AC063
:104C6000C451DF4F2881CC5ED040C351DF4FB881A3
:104C7000CD5ED040F80180818F3FB1F1A18190E0FD
:104C800030E0821B930B829DA001839D500D929D6D
:104C9000500D1124405F5F4FF5E056954795FA950A
:104CA000E1F7420F531F50708A2F90E02B2F30E016
:104CB000821B930B829DD001839DB00D929DB00D00
:104CC00011245096E5E0B695A795EA95E1F7A20F75
:104CD000B31FB070F201E40FF51F89E090E08C0F74
:104CE0009D1FE80FF91F15C0C551DF4F8881CB5EAE
:104CF000D040C651DF4FA881CA5ED040C0CF80816E
:104D0000C751DF4F9881C95ED040892B81934F5F97
:104D10005F4F4A175B0798F30E5F1F4FA2E0B0E0AA
:104D2000AA0EBB1E0617170709F093CF0894811C23
:104D3000911CE4E0F0E0CE0EDF1EEE0EFF1EF0E46C
:104D40008F16910409F00ECFC251DF4F8881CE5EDD
:104D5000D040C151DF4F6881CF5ED040AE01475F88
:104D60005F4F20EECF50DF4F0881C15FD0400E94DF
:104D7000A324CD50DF4F0FB6F894DEBF0FBECDBFDA
:104D8000CF91DF911F910F91FF90EF90DF90CF9027
:104D9000BF90AF909F908F907F906F905F904F905B
:104DA0003F902F900895EF92FF920F931F93E82E5C
:104DB000162FFF24442311F4FF24F39413508E2D57
:104DC0008150612F42E026E00F2D0E94DA2B1F5FF9
:104DD0008E2D8250612F44E024E00E94DA2B1F5F69
:104DE0008E2D8350612F46E022E00E94DA2B1F9126
:104DF0000F91FF90EF9008951F93182F80E464E1C6
:104E0000412F0E94D32680E46AE3412F0E94D326DB
:104E10001F9108950F931F93CF93DF93182F8091C5
:104E20007103882329F080917103833009F0DCC07D
:104E3000909171038091A703891709F457C080915D
:104E40009A03882309F052C08091A20380939E03A5
:104E50008091A30380939F038091A4038093A00378
:104E60008091A5038093A10380917103882329F485
:104E70002091F2033091FD0304C020910104309190
:104E8000F7038091F503882349F4822F90E0479639
:104E90006CE070E00E94393A282F2F5F832F6AE080
:104EA0000E94193A9093A503832F0E94193A809388
:104EB000A403822F0E94193A8093A203822F0E949A
:104EC000193A9093A303812F0E94FC268CE363E29E
:104ED00047E025E0012F0E94DA2B80917103809337
:104EE000A70380919A038F5F80939A038091710347
:104EF000882309F053C080916D03882329F48091A1
:104F00006E03882309F44AC080919A03882309F02C
:104F100045C081E080939A038091A5038093A1030B
:104F20008091FD036AE00E94193A9093A503809155
:104F3000A4038093A0038091FD030E94193A8093FB
:104F4000A40380916E03882319F12091F2038091CC
:104F5000F503882351F48091F20390E047966CE0CA
:104F600070E00E94393A282F2F5F8091A20380932E
:104F70009E038091A30380939F03822F6AE00E9487
:104F8000193A8093A203822F0E94193A9093A303A7
:104F900010926E0380916E0380936D038091A6033F
:104FA000811709F474C080919A03882309F06FC0B7
:104FB00060E040E820E4012F0E94DA2B812F0E945C
:104FC000FC26C0E0D0E0FE01E05AFD4FDE01AE5508
:104FD000BC4F808160E04C91212F0E94502521968A
:104FE000C430D10581F753C000917103013009F03D
:104FF00051C0909171038091A703891709F447C0AC
:1050000086E990E061E00E94A52980919A038823B7
:10501000F1F500939A03809171038093A703809127
:10502000A20380939E038091A30380939F038091AA
:10503000A4038093A0038091A5038093A103809192
:105040000004882329F4209106043091FC0304C055
:105050002091FC0330910604822F6AE00E94193AE5
:105060008093A203822F0E94193A9093A303832F67
:105070000E94193A8093A403832F0E94193A9093B7
:10508000A50380E0112309F481E00E94FC26C0E022
:10509000D0E04EC0009171030230C9F790917103C6
:1050A0008091A703891799F380E990E061E00E945D
:1050B000A52980919A03882351F781E080939A0370
:1050C0008BE890E061E00E94A529809171038093B4
:1050D000A7038091A20380939E038091A3038093F2
:1050E0009F038091A4038093A0038091A5038093E4
:1050F000A1030093A2031092A3038091F6036AE038
:105100000E94193A8093A4038091F6030E94193AF1
:105110009093A50380E0112309F481E00E94FC260E
:105120008CE363E247E025E0012F0E94DA2BAFCF4A
:10513000FE01E256FC4F4081FE01EE55FC4F2081FE
:10514000421741F0FE01E05AFD4F808160E0012FDF
:105150000E945C252196C430D10551F790919A03A5
:10516000992389F180919D038F5F80939D03813204
:1051700050F110929D038091A20380939E03809131
:10518000A30380939F038091A4038093A003809145
:10519000A5038093A103915090939A03809171038A
:1051A000813059F400E0112309F401E08CE363E25B
:1051B00047E025E00E94DA2B06C08091710382301F
:1051C00011F0809171031093A603DF91CF911F918D
:1051D0000F9108950F931F93CF93DF93182F80E0C3
:1051E00060E040E820E4012F0E94DA2B10929D033A
:1051F0002091F2033091FD038091F503882349F457
:10520000822F90E047966CE070E00E94393A282F98
:105210002F5F8FEF8093A1038093A00380939F0360
:1052200080939E03832F6AE00E94193A9093A5030E
:10523000832F0E94193A8093A403822F0E94193A67
:105240009093A303822F0E94193A8093A20317C060
:10525000C0E0D0E0FE01E05AFD4FDE01A256BC4F97
:105260009E012E553C4F808160E04C91F9012081D8
:10527000012F0E945C252196C430D10559F78091F9
:105280009D038F5F80939D038150813208F38CE9E9
:1052900090E060E00E94A5298091A20380939E0384
:1052A0008091A30380939F038091A4038093A00324
:1052B0008091A5038093A103812F0E94FC26109268
:1052C0009D03DF91CF911F910F91089580E00E947F
:1052D000EA2808959093C5008093C40088E18093E4
:1052E000C1008EE08093C200519A5098089506C084
:1052F00090E000009F5F9E31E1F781508823C1F765
:10530000089548EC50E009C020E137E2FA013197F6
:10531000F1F721503040D1F781508823A9F7089543
:10532000982F8091C00085FFFCCF9093C60080E04D
:1053300090E008958091C00087FFFCCF8091C60067
:1053400008958091C00080780895AC0120E007C0E6
:105350008091C00085FFFCCF3093C6002F5FFA011B
:10536000E20FF11D3491332399F7662371F0809198
:10537000C00085FFFCCF8AE08093C6008091C0000A
:1053800085FFFCCF8DE08093C6000895FC0107C027
:105390008091C00085FFFCCF31969093C60090812C
:1053A0009923B1F70895282F982F92959F709A30DE
:1053B00030F48091C00085FFFCCF905D05C08091E6
:1053C000C00085FFFCCF995A9093C600822F90E0D1
:1053D0008F7090700A973CF48091C00085FFFCCFDD
:1053E0002F70205D06C08091C00085FFFCCF2F701C
:1053F000295A2093C60008951F93182F892F0E94C1
:10540000D329812F0E94D3291F910895EF92FF92F3
:105410000F931F937B018C01C801AA27BB270E9411
:10542000FC29C7010E94FC291F910F91FF90EF906A
:1054300008950F931F93CF93DF938C01E0E1F7E280
:1054400040E0C0E0D0E0C801BF010E94253A262F0D
:10545000662329F4442319F4E130F10549F48091DD
:10546000C00085FFFCCF205D2093C600205341E0A3
:10547000CF016AE070E00E94253A2196C530D1053F
:1054800071F0822F90E09C012E9FC0012F9F900D04
:105490003E9F900D1124081B190BFB01D4CFDF9107
:1054A000CF911F910F9108951F93CF93DF93482FB2
:1054B00087FF08C08091C00085FFFCCF8DE28093FC
:1054C000C6004195E4E6F0E010E0C0E0D0E0842FB3
:1054D000992787FD9095BF010E94253A262F161621
:1054E0002CF0112319F4E130F10549F48091C0004A
:1054F00085FFFCCF205D2093C600205311E0CF0133
:105500006AE070E00E94253A2196C330D10531F05F
:105510002E9F802D1124481BFB01D9CFDF91CF9105
:105520001F9108954F925F926F927F928F929F92F8
:10553000AF92BF92CF92DF92EF92FF920F931F93A1
:10554000CF93DF934B015C01E12C9AECF92E9AE9A1
:10555000092F9BE3192F4424C0E0D0E0C501B4011A
:10556000A80197010E944C3AD22E222341F44420F4
:1055700031F481E0E816F1040105110561F4809130
:10558000C00085FFFCCF80E3D80ED092C60080ED2E
:10559000D80E44244394C801B7012AE030E040E02B
:1055A00050E00E944C3AC22E732E642E552E219646
:1055B000CA30D105A9F06D2D70E080E090E0A8011F
:1055C00097010E94FA39861A970AA80AB90A2C2D5F
:1055D000372D462D552DC901DA017C018D01BECF35
:1055E000DF91CF911F910F91FF90EF90DF90CF90BF
:1055F000BF90AF909F908F907F906F905F904F90F3
:105600000895CF93DF93C82FD0E0E42FF0E0E0536C
:10561000F84F833010F42C963197262F30E02F5F0F
:105620003F4F2E0F3F1FCE01880F991F280F391FA4
:10563000CF019695879596958795280F391FCF01AD
:1056400060E971E00E94253A260F371FCF0164E61A
:1056500070E00E94253A261B370BAE014F5F5F4F6B
:10566000CA01880F991F840F951F880F991F6AE040
:1056700070E00E94253AC901860F971F67E070E02D
:105680000E94253ADF91CF91089593E0899FC00150
:105690001124860F911D83599F4F0E94243B08952A
:1056A00093E0899FC0011124860F911D895A9F4F55
:1056B0000E94243B089508958B569F4F0E94243BDF
:1056C0000895FF920F931F93CF93DF93F82E00E07E
:1056D00010E008C0CE018B589D4F0E94243B8F5F85
:1056E000180F0F5FC12FD0E00F15A0F3CE018B581C
:1056F0009D4F0E94243B082FCA58DD4F10E007C081
:10570000CE010E94243B0E946C2F1F5F2196101730
:10571000B8F3DF91CF911F910F91FF900895DF9221
:10572000EF92FF920F931F93CF93DF93D62E95E0C6
:10573000899FC0011124EC01CB50D0408E012AEF8B
:10574000E22E2FEFF22EE80EF91EDD2029F0CE0119
:105750000E94243B809503C0C8010E94243B0E9404
:105760006C2F21960F5F1F4FCE15DF0571F7DD20DF
:1057700011F08FEF01C080E00E946C2F80E00E944A
:10578000B82FDF91CF911F910F91FF90EF90DF9095
:1057900008951F93CF93DF93EC01162F04C0612F60
:1057A0000E948F2B219688818823C9F7DF91CF91A2
:1057B0001F9108952F923F924F925F926F927F9226
:1057C0008F929F92AF92BF92CF92DF92EF92FF9211
:1057D0000F931F93CF93DF93282E162F342EF22E84
:1057E000402EC62FD0E0C770D070209709F45BC060
:1057F000562E569456945694EE2467E0C62EC12237
:105800008C2C992487FC90945E01A20EB11C51E06F
:10581000652E712C35C0DE2CD20C8D2D652D0E948D
:10582000C52F0E941F2F0E941F2F082F40E050E01D
:1058300015C081E0481641F4C30102C0880F991FCA
:105840002A95E2F7082B08C0C30102C0880F991FF0
:105850002A95E2F7809508234F5F5F4F9A01280D44
:10586000391D2A153B0524F48C2D840F883009F747
:105870008D2D652D0E94C52F802F0E946C2FE394E3
:10588000E31448F22F2D30E088E090E08C1B9D0B54
:105890008217930714F0FF2404C0812F877088506B
:1058A000F80E187F185FE12EE694E694E694C12F77
:1058B000D0E0CF0DD11D43E0D595C7954A95E1F7CE
:1058C00012C0822D6E2D0E94C52F10E009C081E00C
:1058D000481611F48FEF01C080E00E946C2F1F5F0B
:1058E0001315A8F3E3948E2D90E08C179D074CF3CD
:1058F0002F2D2770C9F100E0C22FD0E031E0A32E98
:10590000B12C30C0F02EF20C8F2D6E2D0E94C52FC1
:105910000E941F2F0E941F2F182F20E030E017C079
:1059200081E0481649F4C501022E02C0880F991F74
:105930000A94E2F7182B09C0C501022E02C0880F95
:10594000991F0A94E2F7809518232F5F3F4F2C1779
:105950003D0734F38F2D6E2D0E94C52F812F0E949D
:105960006C2F0F5F031570F280E00E94B82FDF915B
:10597000CF911F910F91FF90EF90DF90CF90BF904C
:10598000AF909F908F907F906F905F904F903F90DF
:105990002F9008952F923F924F925F926F927F9235
:1059A0008F929F92AF92BF92CF92DF92EF92FF922F
:1059B0000F931F93DF93CF9300D00F92CDB7DEB735
:1059C000382E462E522E262E281AA42EBB24C50170
:1059D000880F991F22273327281B390B2D5F3F4F34
:1059E0003B832A838824992466247724362F32190E
:1059F0003983182DD42CDA187501EE0CFF1C882D74
:105A0000830D6D2D41E02E2D052D0E94DA2B832D67
:105A100088196D2D41E02E2D0E94DA2BF42CF818F8
:105A2000110F89818A0D6F2D41E0212F0E94DA2B01
:105A30008D2D82196F2D41E0212F0E94DA2B8A8152
:105A40009B8197FF06C00696860D971D9B838A83D0
:105A500011C0EA81FB813A96C4018A199B09880F1B
:105A6000991F880F991FE80FF91FFB83EA83089499
:105A7000A108B1080894811C911C24E030E0620E5A
:105A8000731EA814B9040CF0B4CF0F900F900F90B0
:105A9000CF91DF911F910F91FF90EF90DF90CF900A
:105AA000BF90AF909F908F907F906F905F904F903E
:105AB0003F902F900895DF92EF92FF920F931F93E4
:105AC000F82E162FD42EE22E41E001E00E94DA2BB0
:105AD0008F2D81508D0D612F41E02E2D0E94DA2BEC
