:100000000C9495060C94B2060C94B2060C94171B33
:100010000C94B2060C94B2060C94B2060C94B20680
:100020000C94B2060C94E22B0C94B2060C94282784
:100030000C94B2060C94B5260C94C7260C94B20608
:100040000C94B2060C94B2060C9448260C94B2069A
:100050000C94B2060C943C1B0C94B2060C94B206A1
:100060000C94B2060C94B2060A47505320536574A0
:1000700075700001000B4F666673657420203A208E
:10008000001153746174757320203A204E4F4C4F09
:10009000434B000B47505320446174653A200015D0
:1000A0004750532054696D653A202020202020209D
:1000B00020555443000100144D656E753D45786927
:1000C000742C205365743D2D2C202B003A002B00FE
:1000D0002D00E402E40364726177007965617221A6
:1000E00000646174652100646F6E6520696E6974D7
:1000F000002020202020555320313268720020201B
:1001000020202055532032346872002020202020E7
:10011000455520313268720020202020204555208E
:100120003234687200D4524154544368726F6E0086
:10013000D2496E7472756465724368726F6E00D3D3
:10014000536576656E4368726F6E00D55844414CB6
:10015000494368726F6E00D654696D65735371437D
:1001600068726F6E00D752616E646F6D00D8526F07
:100170007461746500D947505320536574757000DD
:10018000DA41626F757400FF736574207365637381
:10019000006368616E676520736563007365742032
:1001A0006D696E73006368616E6765206D696E00CE
:1001B00073657420686F7572006368616E6765208F
:1001C000687200736574206D696E73006368616E98
:1001D0006765206D696E0073657420686F757200C5
:1001E0006368616E67652068722E00526567696F8B
:1001F0006E3A2000736574207965617200636861EE
:100200006E67652079722E00736574206461746571
:10021000006368616E6765206461790073657420AE
:100220006D6F6E2E006368616E6765206D6F6E0086
:100230002020202020002020202020004461746500
:100240003A004D6F64653A00536574204261636BF8
:100250006C696768743A20005365742054696D6551
:100260003A200053657420416C61726D3A20200081
:100270009F1058BC1C16163F3F16161CBC58000099
:100280000000101EB87D363C3C3C3C367DB81E005C
:10029000000000109C9E5E76375F5F37765E9E9C06
:1002A0000000000010181C9C56B65F5FB6569C1CE0
:1002B00018000000001070187DB6BC3C3CBCB67D38
:1002C000187000000000101C5EFEB6375F5F37B686
:1002D000FE5E1C000000000CF8FCFEFE3F1F1F3FEE
:1002E000FEFEFCF80C0FFFFF0A11FFFF0912FFFFD3
:1002F000080B1013070B1014060A1115060A111526
:10030000050A1116050A1116040A11170409121715
:100310000309121803091218030912180209121806
:1003200002091219020912190209121902091219F5
:100330000109121A0109121A0109121A0109121AE5
:100340000109121A0109121A0109121A0109121AD5
:100350000109121A0109121A0009121B0009121BC5
:100360000009121B0009121B0009121B0009121BB5
:100370000009121B0109121A0109121A0109121AA5
:100380000109121A0109121A0109121A0109121A95
:100390000109121A0109121A020912190209121985
:1003A0000209121902091219020912180309121876
:1003B000030912180309121804091217040A111765
:1003C000050A1116050A1116060A1115060A111555
:1003D000070B1014080B10130912FFFF0A11FFFF7F
:1003E0000C0FFFFF1111FFFF0F11FFFF0E11FFFF99
:1003F0000C11FFFF0B11FFFF0911FFFF0811FFFF99
:100400000611FFFF0511FFFF0311FFFF0205081191
:10041000020309110911FFFF0911FFFF0911FFFF75
:100420000A11FFFF0A11FFFF0A11FFFF0A11FFFF68
:100430000A11FFFF0A11FFFF0A11FFFF0A11FFFF58
:100440000A11FFFF0A11FFFF0A11FFFF0A11FFFF48
:100450000A11FFFF0A11FFFF0A11FFFF0A11FFFF38
:100460000A11FFFF0A11FFFF0A11FFFF0A11FFFF28
:100470000A11FFFF0A11FFFF0A11FFFF0A11FFFF18
:100480000A11FFFF0A11FFFF0A11FFFF0A11FFFF08
:100490000A11FFFF0A11FFFF0A11FFFF0A11FFFFF8
:1004A0000A11FFFF0A11FFFF0A11FFFF0A11FFFFE8
:1004B0000A11FFFF0A11FFFF0A11FFFF0A11FFFFD8
:1004C0000912FFFF0912FFFF0912FFFF0912FFFFC8
:1004D0000812FFFF0713FFFF0416FFFF0218FFFFBC
:1004E0000218FFFF0C10FFFF0A12FFFF0913FFFFA6
:1004F0000814FFFF0715FFFF0616FFFF0616FFFF94
:100500000517FFFF0517FFFF0417FFFF0418FFFF84
:1005100003060D1803050E1803040F1802040F1824
:100520000203101802031018010211180102111819
:100530001118FFFF1118FFFF1118FFFF1118FFFF1F
:100540001118FFFF1118FFFF1117FFFF1117FFFF11
:100550001117FFFF1116FFFF1016FFFF1015FFFF09
:100560001015FFFF0F14FFFF0F14FFFF0F13FFFF06
:100570000E13FFFF0E12FFFF0E11FFFF0D11FFFF05
:100580000D10FFFF0C0FFFFF0C0FFFFF0B0EFFFF07
:100590000B0DFFFF0A0D1B1B0A0C1B1B090B1A1B63
:1005A000090B1A1B080A191B0709191A0708181A38
:1005B0000608141A061AFFFF051AFFFF051AFFFFA7
:1005C0000419FFFF0319FFFF0319FFFF0219FFFFC3
:1005D0000219FFFF0119FFFF0019FFFF0018FFFFBD
:1005E0000018FFFF0C11FFFF0A14FFFF0915FFFFA2
:1005F0000816FFFF0716FFFF0617FFFF0517FFFF8F
:1006000004080B1804060D1803050E1803040F1830
:100610000204101802031018020310180202101826
:100620001018FFFF1018FFFF1018FFFF1017FFFF33
:100630001017FFFF1016FFFF1016FFFF0F15FFFF2B
:100640000F14FFFF0E14FFFF0D15FFFF0C16FFFF29
:100650000B17FFFF0918FFFF0918FFFF0919FFFF1C
:100660000B19FFFF0C19FFFF0E1AFFFF0F1AFFFFF8
:10067000101AFFFF111AFFFF121AFFFF121AFFFFD5
:10068000131AFFFF131AFFFF141AFFFF141AFFFFBC
:10069000141AFFFF141AFFFF141AFFFF151AFFFFA9
:1006A000151AFFFF1519FFFF1519FFFF1519FFFF99
:1006B0000206151801071418010814180009141768
:1006C00000091416000A1316010B1215010C11145F
:1006D0000113FFFF0212FFFF0311FFFF040FFFFFD3
:1006E000060CFFFF1317FFFF1217FFFF1217FFFF84
:1006F0001117FFFF1117FFFF1017FFFF1017FFFF64
:100700000F17FFFF0F17FFFF0E17FFFF0E17FFFF5B
:100710000D17FFFF0D17FFFF0C17FFFF0C17FFFF53
:100720000B0D0F170B0D0F170A0C0F170A0C0F17D5
:10073000090B0F17090B0F17080A0F17080A0F17D5
:1007400007090F1707090F1706080F1706080F17D5
:1007500005070F1705070F1704060F1704060F17D5
:1007600003050F1703050F1702040F1702040F17D5
:1007700001030F1701030F1700020F1700020F17D5
:1007800000020F17001BFFFF001BFFFF001BFFFFF6
:10079000001BFFFF001BFFFF001BFFFF001BFFFFF5
:1007A000001BFFFF001BFFFF001BFFFF001BFFFFE5
:1007B0000F17FFFF0F17FFFF0F17FFFF0F17FFFFA9
:1007C0000F17FFFF0F17FFFF0F17FFFF0F17FFFF99
:1007D0000F17FFFF0F17FFFF0F17FFFF0F17FFFF89
:1007E0000F17FFFF081BFFFF081AFFFF081AFFFF84
:1007F000081AFFFF071AFFFF0719FFFF0719FFFF7E
:100800000719FFFF0719FFFF0618FFFF0618FFFF74
:100810000618FFFF0607FFFF0607FFFF0607FFFF9B
:100820000507FFFF0506FFFF0506FFFF0506FFFFA3
:100830000506FFFF040CFFFF040FFFFF0411FFFF7D
:100840000412FFFF0414FFFF0414FFFF0315FFFF52
:100850000316FFFF0316FFFF0317FFFF0317FFFF3A
:100860000218FFFF0218FFFF0A18FFFF0C19FFFF15
:100870000E19FFFF1019FFFF1119FFFF1219FFFFDB
:100880001319FFFF1319FFFF1419FFFF1419FFFFBE
:100890001519FFFF1519FFFF1519FFFF1619FFFFA7
:1008A0001619FFFF1619FFFF1618FFFF030516188C
:1008B0000206151801081517010915170009141764
:1008C000000A1416000B1315000D12150114FFFF7A
:1008D0000113FFFF0212FFFF0311FFFF040FFFFFD1
:1008E000060CFFFF181AFFFF151AFFFF131AFFFF70
:1008F0001117FFFF1016FFFF0E14FFFF0D13FFFF70
:100900000C12FFFF0B11FFFF0A10FFFF0910FFFF82
:10091000080FFFFF080EFFFF070EFFFF060DFFFF8A
:10092000060DFFFF050DFFFF050CFFFF040CFFFF89
:10093000040CFFFF040BFFFF030BFFFF030BFFFF84
:10094000030BFFFF020A0D110214FFFF0215FFFF48
:100950000216FFFF010B0E17010A1018010A1018EA
:100960000109111901091119010911190109121AB5
:100970000109121A0109121A0109121A0109121A9F
:100980000109121B0109121B0109121B0109121B8B
:100990000109121B0109121B0109121B0109121A7C
:1009A0000109121A0209121A0209121A0209121A6C
:1009B00002091219030A1219030A1219030A12185A
:1009C000040A1218040A1218050A1217050B121746
:1009D000060B1116070C11150814FFFF0A13FFFF71
:1009E0000C10FFFF031BFFFF031BFFFF021AFFFF9B
:1009F000021AFFFF021AFFFF021AFFFF0219FFFF90
:100A00000219FFFF0219FFFF0219FFFF0118FFFF84
:100A10000118FFFF0118FFFF010414180103141847
:100A20000102131700021317000113170001131717
:100A300000011216000112161216FFFF1216FFFF18
:100A40001116FFFF1115FFFF1115FFFF1115FFFF15
:100A50001115FFFF1014FFFF1014FFFF1014FFFF0C
:100A60001014FFFF0F14FFFF0F13FFFF0F13FFFF03
:100A70000F13FFFF0E13FFFF0E12FFFF0E12FFFFFB
:100A80000E12FFFF0D12FFFF0D12FFFF0D11FFFFF2
:100A90000D11FFFF0C11FFFF0C11FFFF0C10FFFFEA
:100AA0000C10FFFF0C10FFFF0B10FFFF0B10FFFFE0
:100AB0000B0FFFFF0B0FFFFF0A0FFFFF0A0FFFFFD8
:100AC0000A0EFFFF0A0EFFFF090EFFFF090EFFFFD0
:100AD000090EFFFF090DFFFF080DFFFF080DFFFFC7
:100AE000080DFFFF0B11FFFF0814FFFF0715FFFFA5
:100AF000060B1016050A111704091218040912181A
:100B0000030813180308131902081319020813190C
:100B100002081319020813190108131901091319FE
:100B200001091319010A1319010A1319010B1319E9
:100B3000020B1318020C1218020D1217020E1216D5
:100B4000030F11150314FFFF0312FFFF0412FFFF31
:100B50000513FFFF0514FFFF0615FFFF0716FFFF34
:100B60000816FFFF0917FFFF0917FFFF0718FFFF10
:100B7000060A0C1805090D1904090E1903080E19A7
:100B800003080F1A0208101A0208111A0107111A95
:100B90000107121A0107121A0107121A0107131A84
:100BA0000107131A0107131A0107131A0107131A71
:100BB0000107131A01071319010713190108131963
:100BC0000208131802081218030812170309111754
:100BD000040A1116050B10150614FFFF0812FFFF7B
:100BE0000A0FFFFF0B10FFFF0812FFFF0713FFFFA5
:100BF000060B0F14050A1015050A11160409111623
:100C00000409111703091117030911180209121811
:100C100002091219020912190109121901091219FE
:100C20000109121A0109121A0109121A0109121AEC
:100C30000109121A0109121A0109121A0109121ADC
:100C40000109121A0109121A0109121A0109121ACC
:100C50000109121A010A121A020A121A020A121AB7
:100C6000020A121A030A121A030B121A040C111A9E
:100C7000041AFFFF051AFFFF0619FFFF070F1119DE
:100C80000A0C11191019FFFF1018FFFF1018FFFFB1
:100C90001018FFFF0F17FFFF0F17FFFF0F16FFFFC3
:100CA0000E16FFFF0E15FFFF0E15FFFF0D14FFFFC1
:100CB0000D13FFFF0C13FFFF0B12FFFF0B11FFFFC4
:100CC0000A10FFFF090FFFFF080EFFFF070DFFFFD0
:100CD000050BFFFF040AFFFF0108FFFF0105FFFFEF
:100CE0000102FFFF20746F200050726573732000B3
:100CF000534554002B0073617665006368616E672D
:100D00006500736176650053455400657869740029
:100D10004D454E550073657400534554006164762B
:100D2000616E6365004D454E550011241FBECFEF27
:100D3000D8E0DEBFCDBF11E0A0E0B1E0E0EDF7E626
:100D400002C005900D92AC3EB107D9F713E0ACEEAE
:100D5000B1E001C01D92A333B107E1F70E94FD2C61
:100D60000C94E6330C940000AF92BF92CF92DF92C6
:100D7000EF92FF920F931F93CF93DF9300E010E069
:100D80000E940B26DD24CC24AA24BB24CC2009F00D
:100D900045C0E801C75CDD4F0F5F1F4FCE010E94C9
:100DA000D033E82E8FEFE816C1F4DD2019F0CC2403
:100DB000C39434C087E090E00E94D0338093120344
:100DC0000E940921DF91CF911F910F91FF90EF9029
:100DD000DF90CF90BF90AF900895DD2019F45801B7
:100DE000AE0CB11C2E2D30E0C901880F991F820F67
:100DF000931F909581959F4F815C6D2D0E940126D8
:100E0000FE2C07C0CE010E94D03360E00E94DC219E
:100E1000FA942196FF20B1F70E0D111DD39488E0AE
:100E2000D81609F0B3CF84EF91E00E946D2E8501B2
:100E3000A7CF0F931F93CF93DF9388E090E00E949A
:100E4000D03380932A020E940B2600E010E004C0F9
:100E500088E0602F0E940126C12FD0E0CE01875983
:100E60009F4F60E00E940722C859DF4FFE01849126
:100E7000180F1F5F0F5F083059F791E000ED18E37E
:100E8000809119028823A1F180911902823089F0A2
:100E9000843019F0813051F518C080912A028F5F9B
:100EA00080932A0280912A028933FCF010932A024F
:100EB0001CC080912A02815080932A0280912A02CC
:100EC000803D9CF400932A0210C087E090E00E94CD
:100ED000D033809312030E940B2682E680931B037B
:100EE000DF91CF911F910F91089591E01092190217
:100EF000992331F260912A0288E090E00E94D83371
:100F000085E362E00E94012680912A0287FF03C0E8
:100F100080ED90E002C08EEC90E060E00E9407223D
:100F200080912A02992787FD909597FF03C090959D
:100F300081959F4F959587959595879560E00E943F
:100F4000AB278CEC90E060E00E94072280912A029F
:100F5000282F332727FD309537FF03C03095219583
:100F60003F4F23703070C90134E0880F991F3A95C4
:100F7000E1F7821B60E00E94AB2790E081CF809177
:100F800002018150809302018823F1F485E080936F
:100F90000201809100018093EC0190910101980F72
:100FA00090930001903218F08FEF80930101992304
:100FB00019F481E08093010190E08091ED01882394
:100FC00009F491E09093ED0108951F93182F80E0AC
:100FD00060E00E9401268091D002612F0E94AB2721
:100FE0008091CF02612F0E94AB2786E660E00E94CD
:100FF00001268091D102612F0E94AB278091CE0201
:10100000612F0E94AB271F9108950F931F93082F04
:1010100014E1812F67E00E94012686E0602F0E9484
:10102000AC21185E1437A9F71F910F910895DF9234
:10103000EF92FF920F931F93E82E90910001809101
:10104000EC01981718F4892F805A02C0892F81501B
:1010500068E041E020E30E2D0E942F2260E083E053
:10106000D82E15C080910001800F612F0E940126AB
:101070008091ED018D9DC00111248F0D6E2D0E9478
:10108000AC21005F003671F7163039F0612FF62E73
:10109000F69400E0162F1F5FE5CF1F910F91FF9090
:1010A000EF90DF9008951F93182F809124028823DA
:1010B00059F480912502882339F490912802809177
:1010C000EF01891709F44EC0109225028091250284
:1010D000809324028091EE01882309F043C081E0CF
:1010E0008093EE01809128028093EF0180910A03A2
:1010F0000E9441308093D002809115038093CF02EB
:1011000080912802833049F4809119030E94413074
:101110008093D10280910F031BC0809128028130FF
:1011200031F484E18093D10280910E0311C080914B
:101130001803882339F480911F038093D102809192
:10114000140306C0809114038093D10280911F0381
:101150008093CE028091EE0181508093EE01812F29
:101160000E94E5071F9108951F93182F0E941708EA
:1011700080911A03882321F48091F001882339F0AB
:10118000812F0E94050880911A038093F001812F1E
:101190000E9453081F9108950F931F93182F80E00A
:1011A00060E040E820E4012F0E942F2283E6809334
:1011B000EF01812F0E945308812F0E94E507812FA4
:1011C0000E941708812F0E9405081F910F91089512
:1011D00081E0809300011092EC0180E00E94CC0835
:1011E0000895803819F4E0E0F0E027C087FF08C0D8
:1011F00081950E94F108EE27FF27E81BF90B1DC01F
:10120000803419F4EFEFFFE718C0A82FBB27A7FD24
:10121000B09580343CF4AA0FBB1FAD5FBE4FED917B
:10122000FC910BC0E0E8F0E0EA1BFB0BEE0FFF1FA8
:10123000ED5FFE4F0190F081E02DCF010895805CBD
:101240000E94F10808951F93FC0180819181A28181
:10125000B3819C01241B350B1EEF2D30310744F068
:10126000245F31402CF4408351836283738312C026
:10127000481759076A077B0728F4845F9140A0400C
:10128000B04004C08C509E4FAF4FBF4F80839183BE
:10129000A283B3831F9108952F923F924F925F9242
:1012A0006F927F928F929F92AF92BF92CF92DF9276
:1012B000EF92FF920F931F93DF93CF93CDB7DEB7DB
:1012C00064970FB6F894DEBF0FBECDBF270138017B
:1012D0001401E60EF71E081F191FE986FA860B8710
:1012E0001C87EE24FF248701E418F5080609170976
:1012F000E982FA820B831C83E4E1EE2EE5E0FE2E08
:10130000012D112DE61AF70A080B190BED82FE824A
:101310000F83188779018A016D877E878F87988B65
:10132000C501D6015C016D01992420E0BAC0B60167
:10133000A5014E0D5F1D601F711F498B5A8B6B8B72
:101340007C8B6D857E858F859889640D751D861DC6
:10135000971D6D877E878F87988B89899A89AB893E
:10136000BC89895A9641A040B0408CF0D094C0947A
:10137000B094A094A11CB11CC11CD11C48EA56E138
:1013800060E070E0498B5A8B6B8B7C8B19C069894C
:101390007A898B899C89683C71058105910584F463
:1013A000D094C094B094A094A11CB11CC11CD11CB9
:1013B00088EC90E0A0E0B0E0898B9A8BAB8BBC8B83
:1013C00049855A856B857C854C555B4260407040F1
:1013D000B4F08D859E85AF85B88984199509A609D5
:1013E000B7098C559B42A040B0404CF46D817E8182
:1013F0008F819885685B794D8F4F9F4F1AC04985C3
:101400005A856B857C85455155406040704024F578
:101410008D859E85AF85B88984199509A609B70978
:1014200085519540A040B040BCF06D817E818F8198
:101430009885A30192010E94AC33C601B5010E94B8
:101440003833E60EF71E081F191FD101ED92FD92E9
:101450000D931C93139704C0222311F4939401C09D
:1014600021E0E984FA840B851C85E40CF51C061D3B
:10147000171DE986FA860B871C874D815E816F8177
:10148000788589819A81AB81BC81480F591F6A1F79
:101490007B1F4D835E836F837887E988FA880B8989
:1014A0001C898D859E85AF85B88989559240A0405D
:1014B000B0408F5B9B42A040B04008F438CFC801D9
:1014C000B70124E630E040E050E00E94AC33E9A5EB
:1014D000FAA52083318342835383892D64960FB606
:1014E000F894DEBF0FBECDBFCF91DF911F910F915A
:1014F000FF90EF90DF90CF90BF90AF909F908F9034
:101500007F906F905F904F903F902F900895EF9253
:10151000FF920F931F9380E00E948431A0E0B0E01F
:10152000BC01CD0122E230E040E050E00E943833BF
:101530002FEF3FE740E050E00E948A3379018A01B3
:1015400081E00E9484312FE030E040E050E0E20E84
:10155000F31E041F151F8295880F880F807C8E0D47
:101560001F910F91FF90EF9008952F923F924F920D
:101570005F926F927F928F929F92AF92BF92CF9223
:10158000DF92EF92FF920F931F93CF93DF931C0193
:10159000EB012A016091F4027091F5028091F6024C
:1015A0009091F702E090E202F090E3020091E402F1
:1015B0001091E502A090E802B090E902C090EA0222
:1015C000D090EB026090DE027090DF028090E0022B
:1015D0009090E1022223F9F000D0EDB7FEB7D2835C
:1015E000C183A8019701860175016401530141017E
:1015F0000E944C098093E6021092E702F10180817B
:101600009181A281B381F20180839183A283B3830C
:10161000809124021DC000D0EDB7FEB73282218236
:10162000A801970186017501640153014E010E94D2
:101630004C098093E6021092E70288819981AA8181
:10164000BB81F20180839183A283B38380912502C1
:101650000F900F90882311F021E001C020E0F201EB
:1016600080819181A281B38130E7E32E3EEFF32E9A
:101670003FEF032F3FEF132FE80EF91E0A1F1B1F2A
:10168000E082F18202831383222399F1F5E5EF16BC
:10169000F8E0FF06F0E00F07F0E01F0728F48053A2
:1016A000984FAF4FBF4F20C0FBEAEF16F0E1FF06A7
:1016B000F0E00F07F0E01F0728F0805F9A40A0409D
:1016C000B04012C082E00E948431892B29F480EA64
:1016D00096EFAFEFBFEF04C080E699E0A0E0B0E086
:1016E0008E0D9F1DA01FB11FF20180839183A283E5
:1016F000B3838091E602DF91CF911F910F91FF900C
:10170000EF90DF90CF90BF90AF909F908F907F90A1
:101710006F905F904F903F902F900895AF92BF923F
:10172000CF92DF92EF92FF920F931F93F62ED42E5B
:10173000B22E882361F56091F0027091F1028091E0
:10174000F2029091F30224E630E040E050E00E9483
:10175000AC33122F6091000370910103809102035A
:101760009091030324E630E040E050E00E94AC3367
:10177000812F622F44E024E00F2DE4E0EE2E7AE08A
:10178000C72E50E1A52E0E94D631882331F08F2D2F
:1017900064E04D2D2B2D0E94E1321F910F91FF909F
:1017A000EF90DF90CF90BF90AF9008950F931F936D
:1017B000182F062F8091D0026AE00E945733482FDD
:1017C000812F6EE1202F0E948E0B8091D0026AE063
:1017D0000E945733812F6DE2492F202F0E948E0BDC
:1017E0008091D1026AE00E945733482F812F66E42E
:1017F000202F0E948E0B8091D1026AE00E94573305
:10180000812F65E5492F202F0E948E0B1F910F918C
:1018100008950F931F93082F10E08FE3612F0E940C
:101820000126002311F080EF01C08FE00E94A8255F
:101830001F5F173091F78FE367E00E9401260023B6
:1018400011F080E201C08FEC0E94A8251F910F913A
:101850000895909128028091F201981739F081E063
:101860008093F101809128028093F20180912802F7
:10187000813059F1813030F08230C9F1833009F084
:1018800048C03DC080912402882321F48091250224
:10189000882391F080912502882339F080911603E6
:1018A0000E9441308093D00204C08091240288239A
:1018B00081F180910C0320C080910A030E94413085
:1018C0008093D0028091150317C08091180388235C
:1018D00039F480911F038093D002809114030CC0CF
:1018E000809114038093D00280911F0305C084E18E
:1018F0008093D00280910E038093D102089580914D
:1019000019030E9441308093D00280910F0380938D
:10191000D1020895AF92CF92DF92EF92FF920F9390
:101920001F93D82E0E94290C6091F0027091F10251
:101930008091F2029091F30224E630E040E050E022
:101940000E94AC33122F60910003709101038091CB
:1019500002039091030324E630E040E050E00E944F
:10196000AC33812F622F44E024E00D2D0E942F2202
:10197000FF24DD2011F4FF24F3946091F4027091B0
:10198000F5028091F6029091F70224E630E040E003
:1019900050E00E94AC33122F6091E2027091E3029A
:1019A0008091E4029091E50224E630E040E050E0CE
:1019B0000E94AC33812F622F44E024E00F2D0E945F
:1019C0002F226091F0027091F1028091F2029091C9
:1019D000F30224E630E040E050E00E94AC33122FE6
:1019E00060910003709101038091020390910303C1
:1019F00024E630E040E050E00E94AC33812F622FBB
:101A000044E024E00FE3EE24CC24C39490E4A92E18
:101A10000E94D631882319F08D2D0E94090C209147
:101A2000D2023091D3024091D4025091D5028091DC
:101A3000D6029091D702A091D802B091D90228176E
:101A400039074A075B0779F0CA01B90124E630E09B
:101A500040E050E00E94AC338AE0622F43E02CE08B
:101A60000D2D0E942F226091D6027091D702809195
:101A7000D8029091D90224E630E040E050E00E9484
:101A8000AC338AE0622F43E02CE00F2D0E942F221E
:101A90002091FC023091FD024091FE025091FF0224
:101AA0008091F8029091F902A091FA02B091FB02A4
:101AB000281739074A075B0779F0CA01B90124E6FC
:101AC00030E040E050E00E94AC3383E7622F43E017
:101AD0002CE00D2D0E942F226091F8027091F902E6
:101AE0008091FA029091FB0224E630E040E050E061
:101AF0000E94AC3383E7622F43E02CE00F2D0E945D
:101B00002F226091F0027091F1028091F202909187
:101B1000F30224E630E040E050E00E94AC33022FB4
:101B2000609100037091010380910203909103037F
:101B300024E630E040E050E00E94AC33122F609188
:101B4000F8027091F9028091FA029091FB0224E66A
:101B500030E040E050E00E94AC33E22E802F612F55
:101B600044E024E003E713E0C12EBCE0AB2E0E946A
:101B7000D6318823A9F06091F8027091F902809122
:101B8000FA029091FB0224E630E040E050E00E942F
:101B9000AC3383E7622F43E02CE00F2D0E942F220D
:101BA0006091F0027091F1028091F2029091F30243
:101BB00024E630E040E050E00E94AC33022F609118
:101BC000000370910103809102039091030324E6C6
:101BD00030E040E050E00E94AC33122F6091D6021A
:101BE0007091D7028091D8029091D90224E630E01A
:101BF00040E050E00E94AC33E22E802F612F44E0A1
:101C000024E00AE0A3E0CA2EFCE0AF2E0E94D63109
:101C10008823A9F06091D6027091D7028091D802F2
:101C20009091D90224E630E040E050E00E94AC33CD
:101C30008AE0622F43E02CE00F2D0E942F221092A9
:101C400070008091F101882311F01092F10181E080
:101C5000809370006D2D0E94D60B1F910F91FF9005
:101C6000EF90DF90CF90AF9008956F927F928F9218
:101C70009F92AF92BF92CF92DF92EF92FF920F931B
:101C80001F938091F4029091F502A091F602B09119
:101C9000F7028093F0029093F102A093F202B093C6
:101CA000F3022091E2023091E3024091E40250916C
:101CB000E502209300033093010340930203509305
:101CC00003036090E8027090E9028090EA0290902D
:101CD000EB0264015301A80EB91ECA1EDB1EA092BE
:101CE000F402B092F502C092F602D092F702E090B0
:101CF000DE02F090DF020091E0021091E102D801D3
:101D0000C701820F931FA41FB51F8093E202909317
:101D1000E302A093E402B093E502895A9641A04001
:101D2000B040DCF088EA96E1A0E0B0E08093E20207
:101D30009093E302A093E402B093E50288279927E9
:101D4000DC018E199F09A00BB10B8093DE029093EA
:101D5000DF02A093E002B093E1028091E202909151
:101D6000E302A091E402B091E502883C9105A1054F
:101D7000B1051CF588EC90E0A0E0B0E08093E202B1
:101D80009093E302A093E402B093E5028091DE0217
:101D90009091DF02A091E002B091E102B095A09590
:101DA000909581959F4FAF4FBF4F8093DE029093E8
:101DB000DF02A093E002B093E10284EDA81680E375
:101DC000B80680E0C80680E0D806ECF4C601B5018C
:101DD00024E630E040E050E00E94AC3312169CF460
:101DE000611471048104910409F0CEC08091DE0277
:101DF0009091DF02A091E002B091E1020097A1056D
:101E0000B10509F0C1C08CE998E1A0E0B0E0809391
:101E1000F4029093F502A093F602B093F7028CE1DE
:101E20009CE0A0E0B0E08093E2029093E302A093F4
:101E3000E402B093E5020E94870A182F84EF91E034
:101E4000A0E0B0E08093E8029093E902A093EA0258
:101E5000B093EB028093DE029093DF02A093E00246
:101E6000B093E102812F0E941F09AA2797FDA09538
:101E7000BA2FBC01CD0124EF31E040E050E00E94D8
:101E800038336093E8027093E9028093EA029093FA
:101E9000EB02A090DE02B090DF02C090E002D09092
:101EA000E102812F0E94F1087C016091E8027091AB
:101EB000E9028091EA029091EB022FEF3FE740E0C8
:101EC00050E00E94AC332093E8023093E902409343
:101ED000EA025093EB020027F7FC0095102FC8018F
:101EE000B701A60195010E9438332FEF3FE740E08C
:101EF00050E00E94AC332093DE023093DF02409327
:101F0000E0025093E102609100022091FF01261B44
:101F10008AE043E000E00E942F22609102022091BB
:101F20000102261B83E743E00E942F221092010248
:101F3000109202021092FF011092000281E0809341
:101F4000F10110922502809125028093240220E065
:101F50008091E8029091E902A091EA02B091EB022F
:101F6000181619061A061B060CF421E083EF91E0FF
:101F700067EF71E04BEF51E00E94B50A8093E602F3
:101F80001092E7020E94290C8091D6029091D7020C
:101F9000A091D802B091D9028093D2029093D3023B
:101FA000A093D402B093D5028091F8029091F902E7
:101FB000A091FA02B091FB028093FC029093FD0283
:101FC000A093FE02B093FF028091E8029091E90293
:101FD000A091EA02B091EB02B7FF2AC08091F4020F
:101FE0009091F502A091F602B091F70280509941CC
:101FF000A040B0400CF04BC080912402882349F0EF
:102000004091FB015091FC016091FD017091FE0136
:102010000CC04091E2025091E3026091E4027091A1
:10202000E502405951406040704086ED92E02CC07E
:102030000097A105B10599F18091F4029091F50204
:10204000A091F602B091F70281509941A040B040B2
:1020500034F180912502882349F04091FB01509191
:10206000FC016091FD017091FE010CC04091E20203
:102070005091E3026091E4027091E50240595140B1
:102080006040704088EF92E00E94230915C083EF02
:1020900091E067EF71E04BEF51E021E007C083EF83
:1020A00091E067EF71E04BEF51E020E00E94B50A4C
:1020B0008093E6021092E7028091D6029091D702B7
:1020C000A091D802B091D902893C9105A105B10532
:1020D00064F489EC90E0A0E0B0E08093D6029093A5
:1020E000D702A093D802B093D9028091F8029091C0
:1020F000F902A091FA02B091FB02893C9105A10579
:10210000B10564F489EC90E0A0E0B0E08093F802BF
:102110009093F902A093FA02B093FB028091D60249
:102120009091D702A091D802B091D90288589341DA
:10213000A040B04064F087E893E1A0E0B0E0809375
:10214000D6029093D702A093D802B093D90280917F
:10215000F8029091F902A091FA02B091FB0288581E
:102160009341A040B04064F087E893E1A0E0B0E084
:102170008093F8029093F902A093FA02B093FB02C5
:102180008091E8029091E902A091EA02B091EB02FD
:10219000181619061A061B060CF05DC06091F402B1
:1021A0007091F5028091F6029091F70224E630E0FA
:1021B00040E050E00E94AC33022F6091E202709147
:1021C000E3028091E4029091E50224E630E040E0F1
:1021D00050E00E94AC33122F6091F8027091F90226
:1021E0008091FA029091FB0224E630E040E050E05A
:1021F0000E94AC33E22E802F612F44E024E003E7FD
:10220000E3E0CE2E7CE0A72E0E94D631882319F180
:102210008091E8029091E902A091EA02B091EB026C
:10222000B095A095909581959F4FAF4FBF4F8093EC
:10223000E8029093E902A093EA02B093EB028CE5E6
:102240009BE2A0E0B0E08093F4029093F502A093AB
:10225000F602B093F7028091E8029091E902A09112
:10226000EA02B091EB02B7FF5DC06091F402709199
:10227000F5028091F6029091F70224E630E040E00A
:1022800050E00E94AC33022F6091E2027091E302B1
:102290008091E4029091E50224E630E040E050E0D5
:1022A0000E94AC33122F6091D6027091D7028091B8
:1022B000D8029091D90224E630E040E050E00E943C
:1022C000AC33E22E802F612F44E024E00AE053E09B
:1022D000C52E3CE0A32E0E94D631882319F18091AF
:1022E000E8029091E902A091EA02B091EB02B09568
:1022F000A095909581959F4FAF4FBF4F8093E80277
:102300009093E902A093EA02B093EB0284E195E096
:10231000A0E0B0E08093F4029093F502A093F6025F
:10232000B093F7021F910F91FF90EF90DF90CF9045
:10233000BF90AF909F908F907F906F900895FF9285
:102340000F931F93F82E80E060E040E820E40F2D0B
:102350000E942F2210E0FF2009F411E080E060E0ED
:1023600040E822E0012F0E942F2280E06EE340E847
:1023700022E00E942F226091D6027091D7028091B4
:10238000D8029091D90224E630E040E050E00E946B
:10239000AC338AE0622F43E02CE00E942F22609150
:1023A000F8027091F9028091FA029091FB0224E602
:1023B00030E040E050E00E94AC3383E7622F43E01E
:1023C0002CE00E942F220E94290C8091D0026AE00A
:1023D0000E945733482F8EE164E02F2D0E94E13296
:1023E0008091D0026AE00E9457338DE264E0492F69
:1023F0002F2D0E94E1328091D1026AE00E94573372
:10240000482F86E464E02F2D0E94E1328091D102B2
:102410006AE00E94573385E564E0492F2F2D0E9422
:10242000E1328F2D0E94090C1F910F91FF900895AA
:1024300084EC99E0A0E0B0E08093F4029093F50280
:10244000A093F602B093F7028093F0029093F1020A
:10245000A093F202B093F3028093E2029093E3021E
:10246000A093E402B093E5028093000390930103EC
:10247000A0930203B09303038093D6029093D702F4
:10248000A093D802B093D9028093D2029093D30242
:10249000A093D402B093D5028093F8029093F902EE
:1024A000A093FA02B093FB028093FC029093FD028A
:1024B000A093FE02B093FF020E947B311092DE02D5
:1024C0001092DF021092E0021092E1021092E802F4
:1024D0001092E9021092EA021092EB0280E00E9450
:1024E0009F11089580911E03882341F0809124025A
:1024F000823021F080912502823031F41092250241
:1025000080912502809324020895CF92DF92EF926A
:10251000FF920F931F93DF93CF930F92CDB7DEB748
:10252000E82EF42E122FC02E962F9E5F1450D62E1A
:10253000DA9400E0CC2009F401E08E2D692F4F2DB4
:10254000212F99830E942F22E394998191508EEF3D
:10255000F80E1E5F9D1569F70F90CF91DF911F91C7
:102560000F91FF90EF90DF90CF9008950F93362F4B
:10257000022F90E0FC01EE0FFF1FE80FF91FED574F
:10258000FE4F8081882339F481816281640F830F3B
:1025900042E126E006C081816281640F830F46E03C
:1025A00029E10E9485120F910895CF92DF92EF9258
:1025B000FF920F931F93CF93DF93C82ED62E022F37
:1025C00010E0C7E0D0E0E42EFF24C7010C2E02C0CB
:1025D000959587950A94E2F780FF05C0812F6C2DB1
:1025E0004D2D202F07C020E0002309F421E0812F8A
:1025F0006C2D4D2D0E94B6121F5F2197173029F7C1
:10260000DF91CF911F910F91FF90EF90DF90CF90CE
:1026100008950F93082F80E060E040E820E40E94D6
:102620002F220F9108950F9380E060E040E820E4AE
:1026300000E00E942F220F910895FF920F931F93A5
:10264000182F062FF22E842F90E04A3028F4815D57
:102650009D4F0E94D03304C08C549E4F0E94D033B3
:10266000482F812F602F2F2D0E94D5121F910F917F
:10267000FF900895FF920F931F93F82E142F062FAB
:102680000F7767FF08C020E0442309F421E080E0D1
:1026900060E048E008C0802F6AE00E945733482F6E
:1026A0008F2D60E0212F0E941D13802F6AE00E9471
:1026B00057338F2D825E60E0492F212F0E941D131A
:1026C0001F910F91FF90089520E0442309F421E029
:1026D00044E00E941F230895EF92FF920F931F93EF
:1026E000082F809128028823C9F080912802833026
:1026F000A9F0102F011111E080E465E144E0212FE1
:102700000E941F2380E46AE244E0212F0E941F23DD
:1027100080E466E044E0212F0E941F23809128027C
:10272000823069F480E064E1402F0E943A13809186
:102730000E0364E60E94573388E4692F17C0809126
:1027400028028130B9F480911803882329F460911C
:102750001F031091140304C06091140310911F0310
:1027600080E0402F0E943A1388E4612F402F0E949E
:102770003A1367C080912802882329F080912802AB
:10278000833009F05EC080912802833029F41091D3
:102790001903E0900F0304C010910A03E0901503A1
:1027A00080910D03882399F4812F0E944130F82EE7
:1027B0001C3020F420E0002321F402C020E00111AD
:1027C00021E080E466E044E00E941F2309C020E08D
:1027D000011121E080E466E044E00E941F23F12E15
:1027E00089E08F1510F060E801C060E06F2980E09B
:1027F000402F0E943A1388E46E2D402F0E943A1316
:10280000809126028823E9F08091200381708093D3
:1028100026028091260220E0882309F421E080E44A
:1028200065E144E00E941F238091260220E0882376
:1028300009F421E080E46AE244E00E941F23109240
:1028400026021F910F91FF90EF900895462F282F99
:1028500030E0862F6AE00E945733A8E9B1E0FD011D
:10286000E20FF31F80832F5F3F4F842F0E94573367
:10287000A20FB31F9C93089580911E03882341F0FB
:1028800080912402823021F080912502823031F43F
:1028900010922502809125028093240208950F93BF
:1028A000502FE82FF0E030E080910602882369F491
:1028B00080910402E81BF109F7FF11C02E0F3F1FA2
:1028C00037FD19C0E0E0F0E00DC0C9018E0F9F1F79
:1028D0008038910524F020E830E02E1B3F0BE038D3
:1028E000F1054CF400E0442309F401E08E2F422F5F
:1028F000252F0E942F220F9108950F93362F90E0DD
:10290000FC01EE0FFF1FE80FF91FE555FE4F808118
:10291000882341F481816281640F830F422F22E179
:1029200006E007C081816281640F830F422F26E099
:1029300000E20E944F140F910895CF92DF92EF9220
:10294000FF920F931F93CF93DF93C82ED62E022FA3
:1029500010E0C7E0D0E0E42EFF24C7010C2E02C037
:10296000959587950A94E2F780FF06C0812F6C2D1C
:102970004D2D202F0E947D141F5F2197173069F77E
:10298000DF91CF911F910F91FF90EF90DF90CF904B
:1029900008950F93625024E004E00E944F140F91B9
:1029A0000895CF92DF92EF92FF920F931F93182F0B
:1029B000C62EF42EE22E8093060284E18093070255
:1029C0008AE3481719F08DE2481719F486E08093DE
:1029D000070220910702112341F480910402422F43
:1029E000481B14168CF0DD2440C0422F812F9927FC
:1029F00087FD9095332727FD3095820F931F8038F0
:102A0000910514F040E8411BD42E812F60E020E4B2
:102A10000E2D0E942F2289E08F1568F08F2D90E0F7
:102A2000815D9D4F0E94D033482F812F6C2D2E2D1C
:102A30000E949D141AC08AE3F81641F4812F60E1C8
:102A40004E2D0E94C914812F6FE20CC08DE2F81642
:102A500061F4812F60E04D2D20E40E2D0E942F2285
:102A6000812F6FE14E2D0E94C9148D2D1F910F9162
:102A7000FF90EF90DF90CF900895809128028330EF
:102A800019F48091190302C080910A030E94413019
:102A9000682F80E00E94261480912802833019F468
:102AA00060910F0302C06091150383E00E94261419
:102AB00080912802833011F460E002C0609120030D
:102AC00086E00E94261480911803882311F08CE080
:102AD00001C089E060911F030E94261480911803B1
:102AE000882311F089E001C08CE0609114030E94FA
:102AF000261460910E038FE00E9426140895FF9221
:102B00000F931F93F82E809108028F5F8093080225
:102B1000863008F458C01092080200910502809196
:102B20002802833059F480912702882339F01092CB
:102B3000270280910502809105020AC08091280237
:102B4000833031F480910502882311F41092280219
:102B50000E943D1510E035C0E02FF0E0E856FE4F32
:102B600040810F5F812F60E02F2D0E94D114282F0C
:102B7000023108F000E0112319F52223E1F49091CD
:102B8000040280910702891740F480910402909119
:102B90000702891B8093040202C0109204028091F4
:102BA00005028F5F8093050280910502823140F01B
:102BB0001092050205C0809104028B5F809304028D
:102BC000120F17FFC9CF1F910F91FF9008950F9318
:102BD0001F93182F80911A03882331F460E040E896
:102BE00020E4012F0E942F220E943D15812F0E9478
:102BF0007F151F910F910895109204021092050203
:102C000080E00E94E7150895DF92EF92FF920F9304
:102C10001F93CF93DF93D82EF62EE22EF694F694E0
:102C2000F694EA0100E015C0FE011491802F6CE1DA
:102C30000E945733292F2D0D802F0E945733682F64
:102C40006F0D822F0E940126812F0E94A8250F5F01
:102C500021960E1548F3DF91CF911F910F91FF90B0
:102C6000EF90DF900895CF92DF92EF92FF920F9353
:102C70001F93CF93DF93C82EF62ED22EE02EF6941C
:102C8000F694F694EA0110E019C00881812F6CE1F6
:102C90000E945733992341F4812F0E945733682FA4
:102CA0006F0D8C2D0E940126EE2019F0802F80954B
:102CB00001C0802F0E94A8251F5F21961D1528F3B3
:102CC000DF91CF911F910F91FF90EF90DF90CF9008
:102CD00008957F928F929F92AF92BF92CF92DF9290
:102CE000EF92FF920F931F93DF93CF93CDB7DEB791
:102CF000C05ED0400FB6F894DEBF0FBECDBFA82E89
:102D0000962EB22E802EFE01319680EEDF011D92AE
:102D10008A95E9F7DA0150E09CE1792E81E0C82E2E
:102D2000D12C7F011CC0F90184912F5F3F4FF90125
:102D3000749121503040482F09C0F801E40FF11D73
:102D4000EE0DFF1D8081862B80834F5F4717A8F310
:102D50009F5F2E5F3F4F923031F75F5F14965B1598
:102D600088F4852F869586958695879D8001112408
:102D7000852F87706C2D01C0660F8A95EAF79D013B
:102D800090E0D1CF8A2D692DAE014F5F5F4F20EECD
:102D9000082D0E943316C052DF4F0FB6F894DEBFE5
:102DA0000FBECDBFCF91DF911F910F91FF90EF909C
:102DB000DF90CF90BF90AF909F908F907F900895BD
:102DC0000F93942F022F592F40E04C515D4F20E478
:102DD0000E9469160F9108952F923F924F925F9231
:102DE0006F927F928F929F92AF92BF92CF92DF921B
:102DF000EF92FF920F931F93DF93CF93CDB7DEB780
:102E0000C35FD0400FB6F894DEBF0FBECDBFC25136
:102E1000DF4F8883CE5ED040C151DF4F6883CF5EE5
:102E2000D040C051DF4F4883C05FD040CF50DF4F0C
:102E30000883C15FD040FE01399680EEDF011D920C
:102E40008A95E9F780910C02282E3324D22ECC24C7
:102E500044EE52E0C40ED51EC051DF4F8881C05FE2
:102E6000D040F82EEE24E40EF51E88249924B5E017
:102E70006B2E712C6C0E7D1ECE50DF4FF983E883D4
:102E8000C25FD040582DC051DF4F8881C05FD04015
:102E90008F3F29F41C821B821A82198209C0DE012D
:102EA0001196F70184918D933196A615B705D1F748
:102EB0009981C451DF4F9883CC5ED04030E09F3F72
:102EC00009F031E08B818F3F09F03F5FD301F601BC
:102ED00084918D933196CE50DF4F88819981C25F66
:102EE000D040A817B907A1F79D81C551DF4F98833E
:102EF000CB5ED04090E0C551DF4FA881CB5ED04083
:102F0000AF3F09F091E08F818F3F09F09F5F292F3C
:102F1000931708F4232FBA81C351DF4FB883CD5ED6
:102F2000D040569556955695ECE15E9F20011124B0
:102F3000C4018770907041E050E002C0440F551FFB
:102F40008A95E2F7C751DF4F4883C95ED0405E8162
:102F5000C651DF4F5883CA5ED04083015E0108949A
:102F6000A11CB11C622F70E0660F771F660D771DE4
:102F700069C0D5012C912F3F19F01196BC910AC060
:102F8000C451DF4F2881CC5ED040C351DF4FB881A0
:102F9000CD5ED040F80180818F3FB1F1A18190E0FA
:102FA00030E0821B930B829DA001839D500D929D6A
:102FB000500D1124405F5F4FF5E056954795FA9507
:102FC000E1F7420F531F50708A2F90E02B2F30E013
:102FD000821B930B829DD001839DB00D929DB00DFD
:102FE00011245096E5E0B695A795EA95E1F7A20F72
:102FF000B31FB070F201E40FF51F89E090E08C0F71
:103000009D1FE80FF91F15C0C551DF4F8881CB5EAA
:10301000D040C651DF4FA881CA5ED040C0CF80816A
:10302000C751DF4F9881C95ED040892B81934F5F94
:103030005F4F4A175B0798F30E5F1F4FA2E0B0E0A7
:10304000AA0EBB1E0617170709F093CF0894811C20
:10305000911CE4E0F0E0CE0EDF1EEE0EFF1EF0E469
:103060008F16910409F00ECFC251DF4F8881CE5EDA
:10307000D040C151DF4F6881CF5ED040AE01475F85
:103080005F4F20EECF50DF4F0881C15FD0400E94DC
:103090003316CD50DF4F0FB6F894DEBF0FBECDBF55
:1030A000CF91DF911F910F91FF90EF90DF90CF9024
:1030B000BF90AF909F908F907F906F905F904F9058
:1030C0003F902F900895EF92FF920F931F93E82E59
:1030D000162FFF24442311F4FF24F39413508E2D54
:1030E0008150612F42E026E00F2D0E942F221F5FAA
:1030F0008E2D8250612F44E024E00E942F221F5F1A
:103100008E2D8350612F46E022E00E942F221F91D6
:103110000F91FF90EF9008951F93182F80E464E1C2
:10312000412F0E94631880E46AE3412F0E946318D4
:103130001F91089580912802882359F480912602D6
:10314000882339F0109226028091200381700E941A
:103150008C1808950F931F93CF93DF93182F8091AE
:103160002802882329F080912802833009F0C8C002
:103170009091280280911602891709F450C080911D
:103180000902882309F04BC08091110280930D023F
:103190008091120280930E028091130280930F029D
:1031A000809114028093100280912802882341F4B8
:1031B00080910A030E944130382F2091150307C0E7
:1031C000809119030E944130382F20910F03822FE4
:1031D0006AE00E94573390931402822F0E94573363
:1031E00080931302832F0E94573380931102832F01
:1031F0000E94573390931202812F0E948C188CE307
:1032000063E247E025E0012F0E942F2280912802EF
:1032100080931602809109028F5F8093090280914A
:103220002802882309F046C080912402882321F4D3
:10323000809125028823F1F1809109028823D1F53C
:1032400081E08093090280911402809310028091A2
:1032500015036AE00E945733909314028091130281
:1032600080930F02809115030E94573380931302BD
:10327000809125028823C1F080910A030E94413089
:10328000282F8091110280930D0280911202809369
:103290000E02822F6AE00E94573380931102822F20
:1032A0000E945733909312021092250280912502BA
:1032B0008093240280911502811709F474C08091D3
:1032C0000902882309F06FC060E040E820E4012F84
:1032D0000E942F22812F0E948C18C0E0D0E0FE01B6
:1032E000E054FE4FDE01AF5EBD4F808160E04C9147
:1032F000212F0E94E0162196C430D10581F753C0DA
:1033000000912802013009F051C09091280280916B
:103310001602891709F447C081EE90E061E00E942F
:10332000A12E809109028823F1F500930902809172
:103330002802809316028091110280930D028091E1
:10334000120280930E028091130280930F028091EB
:1033500014028093100280911803882329F420918D
:103360001F033091140304C02091140330911F03F4
:10337000822F6AE00E94573380931102822F0E94AD
:10338000573390931202832F0E9457338093130276
:10339000832F0E9457339093140280E0112309F485
:1033A00081E00E948C18C0E0D0E04EC0009128025D
:1033B0000230C9F79091280280911602891799F37B
:1033C0008BED90E061E00E94A12E8091090288239C
:1033D00051F781E08093090286ED90E061E00E9460
:1033E000A12E809128028093160280911102809371
:1033F0000D028091120280930E028091130280933D
:103400000F02809114028093100200931102109217
:10341000120280910E036AE00E94573380931302D8
:1034200080910E030E9457339093140280E0112381
:1034300009F481E00E948C188CE363E247E025E008
:10344000012F0E942F22AFCFFE01E35FFD4F40818D
:10345000FE01EF5EFD4F2081421741F0FE01E05476
:10346000FE4F808160E0012F0E94EC162196C4304F
:10347000D10551F790910902992389F180910C02AD
:103480008F5F80930C02813250F110920C02809178
:10349000110280930D028091120280930E0280919E
:1034A000130280930F0280911402809310029150B6
:1034B0009093090280912802813059F400E0112391
:1034C00009F401E08CE363E247E025E00E942F224B
:1034D00006C080912802823011F08091280210935A
:1034E0001502DF91CF911F910F9108950F931F93B4
:1034F000CF93DF93182F80E060E040E820E4012FB5
:103500000E942F2210920C0280910A030E944130E7
:10351000382F209115038FEF8093100280930F02B4
:1035200080930E0280930D02822F6AE00E9457332F
:1035300090931402822F0E94573380931302832F9B
:103540000E94573390931202832F0E945733809327
:10355000110217C0C0E0D0E0FE01E054FE4FDE01D2
:10356000A35FBD4F9E012F5E3D4F808160E04C9177
:10357000F9012081012F0E94EC162196C430D1055B
:1035800059F780910C028F5F80930C028150813239
:1035900008F387EE90E060E00E94A12E8091110276
:1035A00080930D028091120280930E02809113028B
:1035B00080930F028091140280931002812F0E9449
:1035C0008C1810920C02DF91CF911F910F910895EA
:1035D00080E00E94761A089526982E9A81E08093C2
:1035E0006800EBE6F0E080818064808382E0809375
:1035F0007C0010927B00EAE7F0E08EE88083808117
:1036000080648083089580917A00877F80937A0018
:1036100080917A00806480937A0080917A0084FFA0
:10362000FCCF2091780030917900C90108951F9254
:103630000F920FB60F9211242F933F934F935F93E6
:103640006F937F938F939F93AF93BF93EF93FF936A
:1036500078940E943A27FF91EF91BF91AF919F918B
:103660008F917F916F915F914F913F912F910F902B
:103670000FBE0F901F9018951F920F920FB60F92CA
:1036800011242F933F934F935F936F937F938F9367
:103690009F93AF93BF93EF93FF93789480917800BB
:1036A0009091790022E0803E920728F010921A0251
:1036B000109217024AC022E083369207F0F0809100
:1036C00017028823A1F48AE090E00E946D2E0E94E8
:1036D000031B825692408E379105B8F582E08093A5
:1036E0001B0284E080931702809319022EC0809100
:1036F0001B02882351F584E026C08F50914088F04A
:1037000080911702882309F58AE090E00E946D2ECF
:103710000E94031B8E50914085559140B0F482E089
:103720000EC080911702882381F48AE090E00E9405
:103730006D2E0E94031B8F50914038F481E08093DE
:1037400019028093170280931A0280917A0088648C
:1037500080937A00FF91EF91BF91AF919F918F91EC
:103760007F916F915F914F913F912F910F900FBE7D
:103770000F901F9018951F93182F8BE260E00E9406
:10378000012620E030E090E006C0F901EB5DFE4F3D
:103790002F5F3F4F949180911203981719F09F3F2C
:1037A000A1F708C09F3F31F0C9018B5D9E4F612F8B
:1037B0000E9407221F9108951F93182F88E064E04C
:1037C0000E9401268BEE91E060E00E94072280912A
:1037D000180320910D0390E0880F991F820F911D0F
:1037E0002DE030E0AC01429FC001439F900D529FFD
:1037F000900D11248F509F4F612F0E9407221F911F
:1038000008950F931F93CF93DF93182F062F809166
:103810000D03882371F584E761E00E9401261C30C6
:1038200010F080E501C081E460E00E94DC218DE4BD
:1038300060E00E94DC2180E561E00E940126812F8A
:1038400090E047966CE070E00E947733EC0189309D
:10385000910524F09C012F5F822F10C080E260E070
:103860000E94DC219E012F5C822F602F0E94DC21B0
:1038700008C080E561E00E940126812F602F0E9430
:10388000AB27DF91CF911F910F9108950F931F9355
:10389000CF93DF93082F162F80910D038823D1F447
:1038A000802F90E047966CE070E00E947733EC0147
:1038B0008930910524F09C012F5F822F14C080E293
:1038C00060E00E94DC219E012F5C822F612F0E940C
:1038D000DC210CC080E260E00E94DC2180E260E03C
:1038E0000E94DC21802F612F0E94AB27DF91CF91B6
:1038F0001F910F9108950E94AB278FE260E00E9414
:10390000DC210895EF92FF920F931F93F82E162F4C
:10391000E42E022F88E063E00E9401268CE392E00F
:1039200060E00E94072280911803882391F486E3C7
:1039300092E060E00E94072260E00B3009F461E051
:103940008F2D0E947B1C60E00C3009F461E0812F18
:1039500015C080911803813099F480E392E060E013
:103960000E94072260E00C3009F461E0812F0E9480
:103970007B1C60E00B3009F461E08F2D0E947B1C02
:1039800010E00D3009F411E084E1612F0E94AB27B3
:103990008E2D612F0E94AB271F910F91FF90EF900A
:1039A00008951F93182F88E065E00E94012688E49F
:1039B00092E060E00E9407228091B40060E0193636
:1039C00009F461E00E94AB271F910895DF92EF9206
:1039D000FF920F931F93E82EF62ED42E122F88E01D
:1039E00062E00E94012688E592E060E00E940722E2
:1039F00000E0153609F401E08E2D602F0E94461C70
:103A00008AE360E00E94DC2160E0163609F461E0A0
:103A10008F2D0E94AB278AE360E00E94DC2160E0EA
:103A2000173609F461E08D2D0E94AB2780910D03BC
:103A3000882369F480E260E00E94DC218BE08E152F
:103A400010F480E501C081E4602F0E94DC211F9109
:103A50000F91FF90EF90DF9008951F93182F88E04B
:103A600061E00E94012683E692E060E00E94072266
:103A70008091190360E0153609F461E00E94011C91
:103A80008AE360E00E94DC2180910F0360E016363B
:103A900009F461E00E94AB271F9108958B3029F44F
:103AA00085E292E06CE172E00DC08C3029F481E196
:103AB00092E068E072E006C08D3039F48DEF91E05D
:103AC00064EF71E00E94BA3208950E94D6320895E0
:103AD0001F93182F80911D028F5F80931D020E94FB
:103AE0000B2688E060E00E94012682E492E060E01C
:103AF0000E94072280E00E94BB1B84E00E942D1DD3
:103B000080910A03609115034091200323E00E94F5
:103B1000E61C80911F036091140340910E0325E081
:103B20000E94821C80E00E94DC1B86E00E94D11C67
:103B300080911B03863019F40E94CB3202C00E9490
:103B4000D632110F110F110F1D5F80E0612F47E07A
:103B50000E94D52C80911D02815080931D021F91DF
:103B600008950E94681D8AE080931C0280911B03C7
:103B70000895CF92DF92EF92FF920F931F9382E00E
:103B80000E94B11D082F10910A03D0901503F090E8
:103B900020038DC08091190281FF45C01092190247
:103BA00080911D028F5F80931D02033041F489EBE9
:103BB00091E060EB71E00E94BA3205E629C005365B
:103BC00041F485EA91E06CE971E00E94BA3206E6C0
:103BD0001FC0063641F481E991E068E871E00E9477
:103BE000BA3207E615C00E94D63200911403E09065
:103BF0001F03C0900E038F2D6D2D412F20E00E94DA
:103C00000A2A10930A03D0921503F092200303E0CE
:103C1000812F6D2D4F2D202F0E94E61C80911D02BB
:103C2000815080931D028091190282FD04C0809111
:103C30001A0282FF3CC01092190280911D028F5F10
:103C400080931D02053659F4812F90E0019668E1BA
:103C500070E00E947733182F80930A0315C0063650
:103C600049F48D2D90E001966CE370E00E9477336B
:103C7000D82E0AC0073641F48F2D90E001966CE3F0
:103C800070E00E947733F82E812F6D2D4F2D202F5D
:103C90000E94E61C80911D02815080931D0280913C
:103CA0001A0282FF04C088EC90E00E946D2E0E94F0
:103CB0003932882309F46ECF1F910F91FF90EF9056
:103CC000DF90CF9008951F9381E00E94B11D182FBF
:103CD0006CC08091190281FF26C010921902809158
:103CE0001D028F5F80931D02143041F480EE91E03D
:103CF00067ED71E00E94BA3215E60DC0153641F449
:103D00008CEC91E063EC71E00E94BA3216E603C0DD
:103D10000E94D63214E0812F0E942D1D80911D0239
:103D2000815080931D028091190282FD04C0809110
:103D30001A0282FF3AC01092190280911D028F5F11
:103D400080931D02153679F48091190390E0019655
:103D500068E170E00E947733809319036091190342
:103D600081E090E010C0163681F480910F0390E05E
:103D700001966CE370E00E94773380930F036091AB
:103D80000F0382E090E00E94D833812F0E942D1D06
:103D900080911D02815080931D0280911A0282FF42
:103DA00004C088EC90E00E946D2E0E943932882376
:103DB00009F48FCF1F9108951F9385E00E94B11DD4
:103DC000182F46C08091190281FF18C01092190265
:103DD00080911D028F5F80931D02163021F40E9496
:103DE000C43219E603C00E94CB3216E0812F0E9434
:103DF000D11C80911D02815080931D028091190277
:103E000082FD04C080911A0282FF22C01092190222
:103E10001936F1F48091B4008F5F8093B4008091E3
:103E2000B400813110F01092B40080911D028F5FB8
:103E300080931D0289E60E94D11C80911D02815051
:103E400080931D026091B40083E090E00E94D8331B
:103E50000E943932882309F4B5CF1F9108958F92BB
:103E60009F92AF92BF92CF92EF920F931F93DF93E7
:103E7000CF9300D0CDB7DEB783E00E94B11D082FED
:103E800080911403898380911F038A8310910E030C
:103E900042E0842E912C8C0E9D1E5E010894A11C84
:103EA000B11C85C08091190281FF43C01092190294
:103EB00080911D028F5F80931D02053031F4E091E7
:103EC0001803F0E0EC53FE4F07C00B3039F4E091DB
:103ED0001803F0E0EA53FE4F00811DC00C3031F4AE
:103EE000E0911803F0E0E853FE4FF6CF80912003F5
:103EF0006091150340910A0320E00981EA80C12EF8
:103F00000E940A2A10930E038A8180931F038981DD
:103F10008093140305E0802F0E944E1D8A816981E1
:103F2000412F202F0E94821C80911D02815080937E
:103F30001D028091190282FD04C080911A0282FF45
:103F400036C01092190280911D028F5F80931D026E
:103F50000B3021F48A818F5F8A8310C00C3021F4EA
:103F600089818F5F89830AC00D3041F4812F90E0F1
:103F7000019664E670E00E947733182FC401B50102
:103F8000412F50E00E9400328A816981412F202F09
:103F90000E94821C80911D02815080931D0280919D
:103FA0001A0282FF04C088EC90E00E946D2E0E94ED
:103FB0003932882309F476CF0F900F90CF91DF919B
:103FC0001F910F91EF90CF90BF90AF909F908F90E7
:103FD00008951F9384E00E94B11D182F60C0809146
:103FE000190281FF1BC01092190280911D028F5F80
:103FF00080931D02183039F481E00E94DC1B0E947E
:10400000C43218E606C080E00E94DC1B0E94D63253
:1040100018E080911D02815080931D028091190249
:1040200082FD04C080911A0282FF39C010921902E9
:104030001836A9F580910D03882359F08091180353
:104040008F5F8093180380911803823010F01092D4
:10405000180380910D0390E0882309F491E0909378
:104060000D0380911D028F5F80931D0284E00E94EA
:10407000681D0E94C43281E00E94DC1B80911D02F9
:10408000815080931D026091180384E090E00E94AB
:10409000D83360910D0385E090E00E94D8330E94F0
:1040A0003932882309F49BCF1F9108950F931F93F2
:1040B00087E090E00E94D0338093120380E00E945A
:1040C000B11D182F02ED5EC08091190281FF29C039
:1040D0001092190280911D028F5F80931D02183C7F
:1040E00061F481E00E94BB1B0E94C43280911D02DA
:1040F000815080931D0219EC14C080E00E94BB1B0C
:104100000E94D63210921E0310921B03809112035C
:10411000893DE8F56091120387E090E00E94D83372
:1041200036C08091190282FD04C080911A0282FF7C
:1041300029C010921902193C29F5809112038F5F52
:1041400080931203809112038B3D10F000931203B1
:1041500080911D028F5F80931D0280E00E94681D88
:104160000E94C43281E00E94BB1B80911D028150DD
:1041700080931D0280911A0282FF04C088EC90E0B7
:104180000E946D2E0E943932882309F49DCF1F9121
:104190000F91089580911203843D61F0853D28F4CC
:1041A000823D59F0833DA1F40BC0853D61F0863D11
:1041B00079F40CC00E94350E08950E94BF0708953F
:1041C0000E94721208950E949A1808950E943C1449
:1041D000089590911203943D61F0953D28F4923D2D
:1041E00059F0933DA9F40BC0953D61F0963D81F4E3
:1041F0000CC00E949F1108950E94CC0808950E944F
:10420000091308950E94761A089590E00E94E71518
:1042100008951F931FE080911203863D19F1873D99
:1042200060F4833DC9F0843D18F4823D91F511C0DE
:10423000843D61F0853D69F512C0883DB1F0883D4F
:10424000B0F0893D09F18A3D21F521C00E94181284
:1042500020C00E94E8081DC00E9413131AC00E94CB
:10426000E81A17C00E94FC1514C010931E030E9488
:104270007B3180E00E94843165E070E00E9463330E
:104280008E5280931203C7CF0E94190702C00E946A
:10429000B4061F9108951F93182F80911E03882341
:1042A00081F180912402813021F0809125028130BA
:1042B00041F580912402882319F082E08093240242
:1042C00080912502882319F082E080932502809155
:1042D0001E03815080931E0380911E03882389F45E
:1042E0008FE080931E03809112038F5F80931203EF
:1042F00080911203873D19F482ED809312030E948E
:10430000092180911203843D61F0853D28F4823DAE
:1043100061F0833DD1F40DC0853D79F0863DA9F46F
:1043200010C0812F0E948A0C10C0812F0E94B408F7
:104330000CC0812F0E946C1308C0812F0E94AA1804
:1043400004C0812F90E00E947F151F9108958B5C1F
:104350009F4F0E94D0330895FF920F931F93CF93E6
:10436000DF93482FF62E30E020E007C08F589D4F96
:10437000FC0184918F5F280F3F5F822F90E03417FC
:10438000A8F3FC01EF58FD4F0491EC01CE58DD4F2E
:1043900010E00AC0FE018491F1E0FF1609F4809557
:1043A0000E94A8251F5F21961017A0F3DF91CF91DF
:1043B0001F910F91FF900895FF920F931F93CF933A
:1043C000DF93F62E95E0899FC0011124EC01CB56B6
:1043D000D0408C0106561040CE010E94D033F1101F
:1043E00080950E94A8252196C017D107A9F7FF2024
:1043F00011F08FEF01C080E00E94A82580E00E94AC
:10440000F425DF91CF911F910F91FF9008950F93A5
:104410001F93CF93DF93EC01062F10E004C0602FB1
:104420000E94DC211F5FFE01E10FF11D84918823B2
:10443000B1F7DF91CF911F910F9108951F93CF9303
:10444000DF93EC01162F04C0612F0E94DC2121961E
:1044500088818823C9F7DF91CF911F9108952F920A
:104460003F924F925F926F927F928F929F92AF9204
:10447000BF92CF92DF92EF92FF920F931F93CF9351
:10448000DF93282E162F342EF22E402EC62FD0E08A
:10449000C770D070209709F45BC0562E569456947E
:1044A0005694EE2437E0C32EC6228C2C992487FC28
:1044B00090945E01A20EB11C21E0622E712C35C0D9
:1044C000DE2CD20C8D2D652D0E9401260E945B25CD
:1044D0000E945B25082F40E050E015C081E048169F
:1044E00041F4C30102C0880F991F2A95E2F7082BF7
:1044F00008C0C30102C0880F991F2A95E2F7809572
:1045000008234F5F5F4F9A01280D391D2A153B057F
:1045100024F48C2D840F883009F78D2D652D0E9491
:104520000126802F0E94A825E394E31448F22F2D42
:1045300030E088E090E08C1B9D0B8217930714F00D
:10454000FF2404C0812F87708850F80E187F185FF1
:10455000E12EE694E694E694C12FD0E0CF0DD11D74
:1045600093E0D595C7959A95E1F712C0822D6E2DEF
:104570000E94012610E009C081E0481611F48FEF77
:1045800001C080E00E94A8251F5F1315A8F3E394E3
:104590008E2D90E08C179D074CF32F2D2770C9F1BD
:1045A00000E0C22FD0E081E0A82EB12C30C0F02E68
:1045B000F20C8F2D6E2D0E9401260E945B250E9419
:1045C0005B25182F20E030E017C081E0481649F441
:1045D000C501022E02C0880F991F0A94E2F7182B1A
:1045E00009C0C501022E02C0880F991F0A94E2F784
:1045F000809518232F5F3F4F2C173D0734F38F2DE5
:104600006E2D0E940126812F0E94A8250F5F0315A1
:1046100070F280E00E94F425DF91CF911F910F91FD
:10462000FF90EF90DF90CF90BF90AF909F908F90D2
:104630007F906F905F904F903F902F9008952F92B2
:104640003F924F925F926F927F928F929F92AF9222
:10465000BF92CF92DF92EF92FF920F931F93DF935F
:10466000CF9300D00F92CDB7DEB7382E462E522E04
:10467000262E281AA42EBB24C501880F991F222795
:104680003327281B390B2D5F3F4F3B832A83882418
:10469000992466247724342D32193983182DD42C8B
:1046A000DA187501EE0CFF1C882D830D6D2D41E08D
:1046B0002E2D052D0E942F22832D88196D2D41E06E
:1046C0002E2D0E942F22F42CF818110F89818A0DAB
:1046D0006F2D41E0212F0E942F228D2D82196F2DE9
:1046E00041E0212F0E942F228A819B8197FF06C0E3
:1046F0000696860D971D9B838A8311C0EA81FB81F4
:104700003A96C4018A199B09880F991F880F991F2F
:10471000E80FF91FFB83EA830894A108B108089405
:10472000811C911C24E030E0620E731EA814B904B1
:104730000CF0B4CF0F900F900F90CF91DF911F919D
:104740000F91FF90EF90DF90CF90BF90AF909F9030
:104750008F907F906F905F904F903F902F90089533
:10476000EF92FF920F931F93F82E162F062F0695A8
:1047700006950695602F0E9401260E945B250E94E7
:104780005B25E82E8F2D602F0E940126177081E097
:1047900090E002C0880F991F1A95E2F78E290E94B7
:1047A000A82580E00E94F4251F910F91FF90EF90C3
:1047B0000895459A449A1092200210921F02109276
:1047C00022021092210280E28093B800ECEBF0E02C
:1047D00080818460808310921E028081816080834A
:1047E0008081806480837894089580E28093B8000B
:1047F0000895ECEBF0E080818F70806A80830895EB
:10480000ECEBF0E080818F70806D80830895809163
:10481000BC0087FFFCCF08958093BB00ECEBF0E079
:1048200080818F70806880830895882329F080912B
:10483000BC008F70806C04C08091BC008F70806859
:104840008093BC0008958091BB0008958091B900C9
:104850000895982FFA018091BC008E7F8093BC0050
:104860008091BC008F70806A8093BC008091BC00F6
:1048700087FFFCCF9E7F9093BB008091BC008F7020
:1048800080688093BC008091BC0087FFFCCF809142
:10489000B900883189F091E012C080818093BB001B
:1048A0008091BC008F7080688093BC008091BC00B8
:1048B00087FFFCCF31966150662379F790E08091B5
:1048C000BC008F70806D8093BC008091BC0084FF21
:1048D000FCCF8091BC0081608093BC00892F08953B
:1048E0001F93CF93DF93982F162FEA018091BC007E
:1048F0008E7F8093BC008091BC008F70806A809313
:10490000BC008091BC0087FFFCCF91609093BB00FE
:104910008091BC008F7080688093BC008091BC0047
:1049200087FFFCCF8091B900803469F091E018C016
:104930008FEF0E9415248091BC0087FFFCCF8091EF
:10494000BB0089931150123098F780E00E94152423
:104950008091BC0087FFFCCF8091BB00888390E0F2
:104960008091BC008F70806D8093BC008091BC00F2
:1049700081608093BC00892FDF91CF911F910895B2
:104980002F982D982C9840985A98279A259A249ACF
:10499000389A529A8BB18F708BB985B1807F85B967
:1049A0008AB1806F8AB984B18F6084B908954098C4
:1049B0005A98882319F0813021F402C0409A089552
:1049C0005A9A0895F8940E94D7248BB1806F8BB9BE
:1049D00085B18F6085B92F988AB18F708AB984B1FB
:1049E000807F84B92D9A2C9A000000000AC02C9870
:1049F00000000000000000002C9A000000000000F1
:104A0000000089B193B187FDF2CF2C982D988AB11F
:104A1000806F8AB984B18F6084B9789408951F93A8
:104A2000162FF8940E94E2242F982D982C9A8AB180
:104A3000806F8AB984B18F6084B98BB18F708BB964
:104A40009BB1812F807F892B8BB985B1807F85B900
:104A500085B11F70812B85B90000000000000000A7
:104A600000000000000000002C9878941F91089529
:104A7000F8940E94E2242F988AB18F708AB984B189
:104A8000807F84B92D9A2C9A00000000000000005D
:104A9000000000000000000029B183B12C982D987F
:104AA0009AB1906F9AB994B19F6094B978948F70CD
:104AB000207F822B0895F894809104038295869537
:104AC000869583700E94E2242F9A8AB18F708AB9EA
:104AD00084B1807F84B92D9A2C9A000000000000D8
:104AE0000000000000000000000099B183B12C9884
:104AF0002D9878948F70907F892B089508958093D6
:104B0000040380E060E40E940F251092060381E018
:104B100060E40E940F251092080380910403682F1F
:104B20006F73606482958695869583700E940F25C9
:104B300008951F93182F80930503186B80E0612F51
:104B40000E940F2581E0612F0E940F251F9108957B
:104B50000F931F93182F0091040302950695069555
:104B60000370F894802F0E94E2242F9A2D982C9A9B
:104B70008AB1806F8AB984B18F6084B98BB18F702C
:104B80008BB99BB1812F807F892B8BB985B1807FB9
:104B900085B985B11F70812B85B900000000000028
:104BA000000000000000000000002C987894E02F26
:104BB000F0E0EE0FFF1FEA5FFC4F80818F5F808384
:104BC000809104038F5F8093040387FF0AC0809164
:104BD00005038F5F809305030E94992580E00E9462
:104BE0007F251F910F9108951F93182F106C80E05F
:104BF000612F0E940F2581E0612F0E940F251F91D8
:104C000008951F93182F862F0E949925812F0E94A7
:104C10007F251F9108950F931F9300E080E0602F80
:104C20000E94012610E080E00E94A8251F5F103836
:104C3000D1F70F5F083091F71F910F91089580E031
:104C40000E94F42580E060E00E9401261092060395
:104C500010920703109208031092090308950E940E
:104C6000C02480E06FE30E940F2581E06FE30E9483
:104C70000F250E940B260E941F260895982F86E07C
:104C8000689F802D1124692F0E94012608950895A0
:104C90001F920F920FB60F9211242F933F934F93B1
:104CA0005F936F937F938F939F93AF93BF93EF9394
:104CB000FF934091C600E091AD02F091AE02CF01AA
:104CC000019660E870E00E9477339C018091AF020A
:104CD0009091B0022817390739F0E35DFD4F40830A
:104CE0003093AE022093AD02FF91EF91BF91AF914F
:104CF0009F918F917F916F915F914F913F912F91F4
:104D00000F900FBE0F901F9018958091AD0290915B
:104D1000AE0280589F4F2091AF023091B002821BAB
:104D2000930B60E870E00E94773308954091AF02E2
:104D30005091B0028091AD029091AE028417950718
:104D400019F42FEF3FEF0FC0FA01E35DFD4F208113
:104D5000CA01019660E870E00E9477339093B00238
:104D60008093AF0230E0C90108951F920F920FB6F1
:104D70000F9211248F939F9388B198E0892788B967
:104D80009F918F910F900FBE0F901F9018951F92BB
:104D90000F920FB60F9211248F939F938091B302BD
:104DA0009091B402892B49F08091B3029091B402A2
:104DB00001979093B4028093B30280911C03909169
:104DC0001D03892B49F080911C0390911D030197CD
:104DD00090931D0380931C0380911A03882389F10B
:104DE0008091B1029091B202892B59F58091100304
:104DF00090911103892BE1F48CE291E090931103DF
:104E00008093100380918100882379F410928000B0
:104E100089E08093810083E080936F0088EE93E0C7
:104E2000909389008093880003C01092810043987A
:104E30008091100390911103019790931103809337
:104E400010039F918F910F900FBE0F901F90189598
:104E50001F920F920FB60F9211248F939F9388B1D8
:104E600098E0892788B99F918F910F900FBE0F907E
:104E70001F9018951E9B16C080911703882349F137
:104E800010921703109221031092B2021092B102F5
:104E900080911A038823E9F010921A03109281007E
:104EA0004398089580911703882399F481E08093B3
:104EB00017031092B2021092B10283E0809328028D
:104EC00080911203853D11F083E001C085E080935D
:104ED00027020895FC0183709070892B39F4CF016B
:104EE00064E670E00E946333892B49F420E030E0EF
:104EF000CF0160E971E00E946333892B11F421E056
:104F000030E0822F08950895482F6AE00E945733B9
:104F1000282F30E084E0220F331F8A95E1F7842F99
:104F20000E945733892F822B089588E592E0909351
:104F3000B2028093B10210928100439810921B0339
:104F40000895FC018181805120819AE0299F900180
:104F50001124820F08950F931F93182F062F6AE0D4
:104F60000E945733805D602F0E94DC21812F6AE010
:104F70000E945733892F805D602F0E94DC211F9192
:104F80000F910895BF92CF92DF92EF92FF920F930D
:104F90001F93DF93CF93CDB7DEB72C970FB6F8945E
:104FA000DEBF0FBECDBF082F88E090E00E94D03357
:104FB00080932A0280912A02992787FD909597FF76
:104FC00003C0909581959F4F959587959595879569
:104FD00080932B0280912A02992787FD909597FF55
:104FE00003C0909581959F4F837090709C0144E021
:104FF000220F331F4A95E1F7281B390B20932C020F
:1050000080912A0287FF0AC080912B0281958093AC
:105010002B0280912C02819580932C02DE01119647
:10502000EFEDF1E08CE001900D928150E1F7AAC123
:105030000E949626182F8052803608F0ADC10023BA
:10504000D1F08091B7028F5F8093B70281508C9D21
:10505000802D112466E00E940126812F60E00E94CD
:10506000DC2180E260E00E94DC218091B702843183
:1050700010F01092B702143229F4E092C502109297
:10508000C4028AC18091C502882309F485C1909128
:10509000C4021C3251F48F5F8093C502992311F42E
:1050A0001092B9021092C4020FC09A3068F4E92F2E
:1050B000F0E0E754FD4F1083E92FEF5FE093C40267
:1050C000F0E0E754FD4F10828091C502823099F4E0
:1050D00089EB92E06AEC71E00E94C733009741F4DB
:1050E00083E08093C5021092C4021092B90254C1A9
:1050F0001092C50251C1843009F0A2C0B092C5021D
:10510000002361F01092BF0284E465E00E94012652
:1051100089EB92E060E00E941E223EC1F89420914B
:10512000BE0220518091BD028F9DC0011124280F25
:10513000209320032091BC0220518091BB028F9DBF
:10514000C0011124280F209315032091BA02205189
:105150008091B9028F9DC0011124280F20930A036A
:105160001092B80280912C0287FF20C080912C02FF
:1051700090911503282F332727FD309537FF03C063
:10518000309521953F4F892F90E08217930774F453
:1051900080912B02815080932B0280911503909176
:1051A0002C02845C890F8093150315C08091150330
:1051B00090912C02980F90931503809115038D33D5
:1051C00050F0809115038C538093150380912B022E
:1051D0008F5F80932B0280912B0287FF1DC08091EF
:1051E0002B0290910A03282F332727FD309537FF94
:1051F00003C0309521953F4F892F90E08217930788
:105200005CF4D092B80280910A0390912B02885EE0
:10521000890F80930A03C0C080910A0390912B02EA
:10522000980F90930A0380910A03893108F4B4C05F
:1052300080910A03885180930A03E092B802ACC0BF
:105240008630B9F4002381F084E463E00E940126F3
:105250008091B902882319F080ED91E002C087EDBA
:1052600091E060E00E941E228091B902882309F437
:1052700098C08091C5028D3009F08EC0002361F086
:1052800084E464E00E94012689EB92E060E00E94E1
:105290001E221092C50287C0F8942091BA022051B4
:1052A0008091B9023AE0839FC0011124280F209316
:1052B00014032091BC0220518091BB02839FC00146
:1052C0001124280F20931F032091BE0220518091AA
:1052D000BD02839FC0011124280F20930E038091EB
:1052E0000E0390E083709070892B11F08CE101C067
:1052F0008DE19091B802992309F455C08A83809179
:105300001403980F90931403809114038823E1F4FD
:1053100080911F03815080931F0380911F03882376
:1053200051F480910E03815080930E038CE08093A2
:105330001F038FE106C080911F03FE01E80FF11DDE
:105340008081809314032FC09091140380911F03D8
:10535000FE01E80FF11D8081891728F591E09093F7
:10536000140380911F038F5F80931F0380911F039D
:105370008D30C8F080910E038F5F80930E03909361
:105380001F0311C035E0B32E2AE0F22EEE24E39481
:10539000DD24DA9496E0C92E0E948526882309F040
:1053A00047CE80E001C081E02C960FB6F894DEBFB6
:1053B0000FBECDBFCF91DF911F910F91FF90EF9066
:1053C000DF90CF90BF900895FF920F931F93F62E1A
:1053D0001092800001E810E029E0F801208323E02A
:1053E00020936F009C0140E050E060E079E08DE3A5
:1053F00090E00E94AC3330938900209388008F2D79
:1054000090E00E946D2EF801108243981F910F9139
:10541000FF900895CF92DF92EF92FF920F931F9328
:10542000DF93CF93CDB7DEB728970FB6F894DEBFE2
:105430000FBECDBF162FF42ED22EFE01319698E06E
:10544000DF011D929A95E9F719820E9484278A83C9
:10545000812F0E9484278B838F2D0E9484278C8329
:105460008D2D0E9484278D83802F0E9484278E8318
:105470008E2D0E9484278F838C2D0E9484278887FD
:10548000F89480ED68E0AE014F5F5F4F0E942924E1
:105490007894882399F080EA9FE064E60E94E429EA
:1054A00084E690E00E946D2E80EA9FE064E60E9410
:1054B000E42988EE93E00E946D2EEDCF28960FB67A
:1054C000F894DEBF0FBECDBFCF91DF911F910F913A
:1054D000FF90EF90DF90CF900895CF92DF92EF9200
:1054E000FF920F931F93182F0E94C2278823E9F081
:1054F0001123D9F410912003F0901503D0900A03E2
:1055000080911F036091140340910E030E94FD2FB0
:10551000282F00911403E0901F03C0900E03812FE9
:105520006F2D4D2D0E940A2A78941F910F91FF90A4
:10553000EF90DF90CF90089580E090E00E94D0330C
:10554000E0E7F2E0E4918E17E1F080EA9FE064E6A4
:105550000E94E42984E690E00E946D2E80EA9FE09C
:1055600064E60E94E42984E690E00E946D2E80EAC1
:105570009FE064E60E94E42988EE93E00E946D2E8D
:10558000E4CF0895DF93CF93CDB7DEB729970FB659
:10559000F894DEBF0FBECDBF1982F89480ED61E0B4
:1055A000AE014F5F5F4F0E9429248823A1F07894B9
:1055B00080EA9FE064E60E94E42984E690E00E948D
:1055C0006D2E80EA9FE064E60E94E42988EE93E075
:1055D0000E946D2EECCF80ED67E0AE014E5F5F4F15
:1055E0000E9470247894882399F080EA9FE064E612
:1055F0000E94E42984E690E00E946D2E80EA9FE0FC
:1056000064E60E94E42988EE93E00E946D2EEDCFBF
:105610007A81872F82958F7090E0877090709C01BF
:10562000F3E0220F331FFA95E1F7880F991F280F37
:10563000391F872F8F70820F809320034B81842F17
:1056400082958F7090E0877090709C0163E0220FCC
:10565000331F6A95E1F7880F991F280F391F4F7084
:10566000420F409315038C81482F42954F70682F4D
:105670006F7086FF22C082958695877090E081705A
:1056800090709C01220F331F280F391F220F331FE8
:10569000220F331F842F90E081709070AC01F3E0F3
:1056A000440F551FFA95E1F7880F991F480F591FAE
:1056B000240F260F20930A0311C0842F90E08370DB
:1056C00090709C0143E0220F331F4A95E1F7880F49
:1056D000991F280F391F620F60930A034E81842F90
:1056E00082958F7090E0837090709C01A3E0220FF0
:1056F000331FAA95E1F7880F991F280F391F4F70A4
:10570000420F409314034F81842F82958F7090E055
:10571000817090709C01E3E0220F331FEA95E1F75E
:10572000880F991F280F391F4F70420F40931F0396
:105730002885822F82958F703AE0839FC0011124C3
:105740002F70280F20930E03872F807829960FB68D
:10575000F894DEBF0FBECDBFCF91DF910895CF92F9
:10576000EF920F930E94D9230E94C22A882359F0F6
:1057700080E060E04CE020E001E0EE24E394A9E06A
:10578000CA2E0E940A2A0E94C22A82E090E00E9449
:10579000D0336CE30E94573390930F0381E090E085
:1057A0000E94D03368E10E9457339093190387E039
:1057B0008093B10081E08093700078940F91EF9016
:1057C000CF9008951F920F920FB60F921124FF925F
:1057D0000F931F932F933F934F935F936F937F93F9
:1057E0008F939F93AF93BF93EF93FF93A89580916F
:1057F000B502803589F41092B50210912003009112
:105800001503F0900A030E94C22A80911203893D79
:1058100039F080E090E00DC08F5F8093B502B1C099
:1058200080911B0390E0811191E081E09827892FFE
:1058300090E00E946D2A80910A038F1531F081E07B
:1058400080932502F092160307C0809115038017FC
:1058500031F081E08093240200930C0309C0809111
:105860002003811729F081E0809326021093220300
:1058700080912003811709F43FC080911A03882387
:1058800059F08091B1029091B202009729F00197EE
:105890009093B2028093B10280912702882361F134
:1058A00080912702815080932702809127028823CC
:1058B00019F58091280280930B03109228028091A1
:1058C0002502882329F08091160380930A0304C0DF
:1058D00080912402882321F080910C03809315038A
:1058E00080912502882321F480912402882321F0CD
:1058F000F0920A030093150380911703882399F00F
:1059000080912003882379F49091150380910F03EF
:10591000981749F490910A0380911903981719F484
:1059200081E08093210380912402882369F480918F
:105930002502882349F480912103882329F081E0FE
:1059400080931A03109221038091B602863039F4B5
:105950001092B60280911B02882329F409C08F5F40
:105960008093B6020EC080911B02815080931B026F
:1059700080911C02882329F080911C028150809321
:105980001C02FF91EF91BF91AF919F918F917F91F9
:105990006F915F914F913F912F911F910F91FF90C8
:1059A0000F900FBE0F901F901895EF92FF920F93DC
:1059B0001F93F82E162FE42E21E001E00E942F22E3
:1059C000FE0C0F2D02501150802F612F0E94B0232A
:1059D0001E5F802F612F0E94B02301501350802F33
:1059E000612F0E94B0231C5F802F612F0E94B02383
:1059F0001F910F91FF90EF9008956F927F928F9279
:105A00009F92AF92BF92CF92DF92EF92FF920F934D
:105A10001F93CF93DF9384B714BE88E10FB6F89439
:105A200080936000109260000FBE87E690E00E94B5
:105A3000562E8091C10088698093C1003B9A0E94D4
:105A4000AF2B0E949C2A84E090E00E94D033809388
:105A5000180385E090E00E94D03380930D030E94EC
:105A6000EC1A0E943A2782E084BD83E085BD8DE771
:105A700087BD80916E00826080936E00539A80E2B1
:105A80008093B0008091B00083608093B0008091DB
:105A9000B10088608093B10080E18093B30083E01F
:105AA00090E00E94D0338093B400259A80EA9FE072
:105AB00064E60E94E4292FE088E190E00FB6F894B4
:105AC000A895809360000FBE209360000E942F264F
:105AD0000E940B2687E090E00E94D033809312034F
