:100000000C9402060C941F060C941F060C945E13AD
:100010000C941F060C941F060C941F060C941F06CC
:100020000C941F060C9418090C941F060C9494064B
:100030000C941F060C9421060C9433060C941F0696
:100040000C941F060C941F060C941F060C941F069C
:100050000C941F060C9487120C941F060C941F0618
:100060000C94962F0C941F0605A84CCDB2D44EB913
:100070003836A9020C50B9918688083CA6AAAA2A4B
:10008000BE000000803F000302030364726177003A
:10009000796561722100646174652100646F6E6529
:1000A00020696E6974004932433A204255535F45D6
:1000B00052524F520D0A004932433A204E4F5F4987
:1000C0004E464F0D0A004932433A2053542D3E44C8
:1000D0004154415F4E41434B206F72204C41535479
:1000E0005F444154410D0A004932433A2053542D94
:1000F0003E444154415F41434B0D0A004932433A6B
:100100002053542D3E534C415F41434B0D0A00494F
:1001100032433A2053522D3E53525F53544F500DA9
:100120000A004932433A2053522D3E444154415F24
:100130004E41434B0D0A004932433A2053522D3E63
:10014000444154415F41434B0D0A004932433A2038
:1001500053522D3E534C415F41434B0D0A004932EF
:10016000433A204D522D3E534C415F41434B0D0AC3
:10017000004932433A204D522D3E444154415F41A3
:10018000434B0D0A004932433A204D542D3E415213
:10019000425F4C4F53540D0A004932433A204D54AC
:1001A000522D3E534C415F4E41434B206F72204DC8
:1001B000542D3E444154415F4E41434B0D0A00498A
:1001C00032433A204D522D3E444154415F4E41430B
:1001D0004B0D0A004932433A204D542D3E534C41B9
:1001E0005F41434B206F7220444154415F41434B78
:1001F0000D0A004932433A204D2D3E53544152548A
:100200000D0A000C0FFFFF0A11FFFF0912FFFF0884
:100210000B1013070B1014060A1115060A11150509
:100220000A1116050A1116040A11170409121703F8
:1002300009121803091218030912180209121802E8
:1002400009121902091219020912190209121901D7
:1002500009121A0109121A0109121A0109121A01C6
:1002600009121A0109121A0109121A0109121A01B6
:1002700009121A0109121A0009121B0009121B00A7
:1002800009121B0009121B0009121B0009121B0096
:1002900009121B0109121A0109121A0109121A0185
:1002A00009121A0109121A0109121A0109121A0176
:1002B00009121A0109121A02091219020912190265
:1002C0000912190209121902091218030912180356
:1002D0000912180309121804091217040A11170544
:1002E0000A1116050A1116060A1115060A11150734
:1002F0000B1014080B10130912FFFF0A11FFFF0C5B
:100300000FFFFF1111FFFF0F11FFFF0E11FFFF0C79
:1003100011FFFF0B11FFFF0911FFFF0811FFFF067F
:1003200011FFFF0511FFFF0311FFFF020508110276
:100330000309110911FFFF0911FFFF0911FFFF0A4E
:1003400011FFFF0A11FFFF0A11FFFF0A11FFFF0A49
:1003500011FFFF0A11FFFF0A11FFFF0A11FFFF0A39
:1003600011FFFF0A11FFFF0A11FFFF0A11FFFF0A29
:1003700011FFFF0A11FFFF0A11FFFF0A11FFFF0A19
:1003800011FFFF0A11FFFF0A11FFFF0A11FFFF0A09
:1003900011FFFF0A11FFFF0A11FFFF0A11FFFF0AF9
:1003A00011FFFF0A11FFFF0A11FFFF0A11FFFF0AE9
:1003B00011FFFF0A11FFFF0A11FFFF0A11FFFF0AD9
:1003C00011FFFF0A11FFFF0A11FFFF0A11FFFF0AC9
:1003D00011FFFF0A11FFFF0A11FFFF0A11FFFF09BA
:1003E00012FFFF0912FFFF0912FFFF0912FFFF08AA
:1003F00012FFFF0713FFFF0416FFFF0218FFFF02A3
:1004000018FFFF0C10FFFF0A12FFFF0913FFFF0880
:1004100014FFFF0715FFFF0616FFFF0616FFFF0577
:1004200017FFFF0517FFFF0417FFFF0418FFFF0367
:10043000060D1803050E1803040F1802040F180206
:1004400003101802031018010211180102111811EB
:1004500018FFFF1118FFFF1118FFFF1118FFFF1100
:1004600018FFFF1118FFFF1117FFFF1117FFFF11F2
:1004700017FFFF1116FFFF1016FFFF1015FFFF10EB
:1004800015FFFF0F14FFFF0F14FFFF0F13FFFF0EE9
:1004900013FFFF0E12FFFF0E11FFFF0D11FFFF0DE7
:1004A00010FFFF0C0FFFFF0C0FFFFF0B0EFFFF0BEA
:1004B0000DFFFF0A0D1B1B0A0C1B1B090B1A1B0946
:1004C0000B1A1B080A191B0709191A0708181A061C
:1004D00008141A061AFFFF051AFFFF051AFFFF048A
:1004E00019FFFF0319FFFF0319FFFF0219FFFF02A6
:1004F00019FFFF0119FFFF0019FFFF0018FFFF00A0
:1005000018FFFF0C11FFFF0A14FFFF0915FFFF087A
:1005100016FFFF0716FFFF0617FFFF0517FFFF0473
:10052000080B1804060D1803050E1803040F180213
:1005300004101802031018020310180202101810F9
:1005400018FFFF1018FFFF1018FFFF1017FFFF1014
:1005500017FFFF1016FFFF1016FFFF0F15FFFF0F0D
:1005600014FFFF0E14FFFF0D15FFFF0C16FFFF0B0E
:1005700017FFFF0918FFFF0918FFFF0919FFFF0BFD
:1005800019FFFF0C19FFFF0E1AFFFF0F1AFFFF10D4
:100590001AFFFF111AFFFF121AFFFF121AFFFF13B3
:1005A0001AFFFF131AFFFF141AFFFF141AFFFF149C
:1005B0001AFFFF141AFFFF141AFFFF151AFFFF1589
:1005C0001AFFFF1519FFFF1519FFFF1519FFFF028D
:1005D000061518010714180108141800091417004B
:1005E000091416000A1316010B1215010C1114013F
:1005F00013FFFF0212FFFF0311FFFF040FFFFF06AF
:100600000CFFFF1317FFFF1217FFFF1217FFFF1159
:1006100017FFFF1117FFFF1017FFFF1017FFFF0F46
:1006200017FFFF0F17FFFF0E17FFFF0E17FFFF0D3E
:1006300017FFFF0D17FFFF0C17FFFF0C17FFFF0B36
:100640000D0F170B0D0F170A0C0F170A0C0F1709B8
:100650000B0F17090B0F17080A0F17080A0F1707B8
:10066000090F1707090F1706080F1706080F1705B8
:10067000070F1705070F1704060F1704060F1703B8
:10068000050F1703050F1702040F1702040F1701B8
:10069000030F1701030F1700020F1700020F1700B7
:1006A000020F17001BFFFF001BFFFF001BFFFF00D7
:1006B0001BFFFF001BFFFF001BFFFF001BFFFF00D6
:1006C0001BFFFF001BFFFF001BFFFF001BFFFF0FB7
:1006D00017FFFF0F17FFFF0F17FFFF0F17FFFF0F8A
:1006E00017FFFF0F17FFFF0F17FFFF0F17FFFF0F7A
:1006F00017FFFF0F17FFFF0F17FFFF0F17FFFF0F6A
:1007000017FFFF081BFFFF081AFFFF081AFFFF086B
:100710001AFFFF071AFFFF0719FFFF0719FFFF075F
:1007200019FFFF0719FFFF0618FFFF0618FFFF0656
:1007300018FFFF0607FFFF0607FFFF0607FFFF057D
:1007400007FFFF0506FFFF0506FFFF0506FFFF0584
:1007500006FFFF040CFFFF040FFFFF0411FFFF045F
:1007600012FFFF0414FFFF0414FFFF0315FFFF0334
:1007700016FFFF0316FFFF0317FFFF0317FFFF021C
:1007800018FFFF0218FFFF0A18FFFF0C19FFFF0EEA
:1007900019FFFF1019FFFF1119FFFF1219FFFF13B7
:1007A00019FFFF1319FFFF1419FFFF1419FFFF159D
:1007B00019FFFF1519FFFF1519FFFF1619FFFF1687
:1007C00019FFFF1619FFFF1618FFFF030516180281
:1007D0000615180108151701091517000914170047
:1007E0000A1416000B1315000D12150114FFFF015A
:1007F00013FFFF0212FFFF0311FFFF040FFFFF06AD
:100800000CFFFF181AFFFF151AFFFF131AFFFF1145
:1008100017FFFF1016FFFF0E14FFFF0D13FFFF0C55
:1008200012FFFF0B11FFFF0A10FFFF0910FFFF0867
:100830000FFFFF080EFFFF070EFFFF060DFFFF066D
:100840000DFFFF050DFFFF050CFFFF040CFFFF046C
:100850000CFFFF040BFFFF030BFFFF030BFFFF0366
:100860000BFFFF020A0D110214FFFF0215FFFF022A
:1008700016FFFF010B0E17010A1018010A101801CC
:1008800009111901091119010911190109121A0196
:1008900009121A0109121A0109121A0109121A0180
:1008A00009121B0109121B0109121B0109121B016C
:1008B00009121B0109121B0109121B0109121A015D
:1008C00009121A0209121A0209121A0209121A024C
:1008D000091219030A1219030A1219030A12180439
:1008E0000A1218040A1218050A1217050B12170625
:1008F0000B1116070C11150814FFFF0A13FFFF0C4C
:1009000010FFFF031BFFFF031BFFFF021AFFFF0285
:100910001AFFFF021AFFFF021AFFFF0219FFFF0270
:1009200019FFFF0219FFFF0219FFFF0118FFFF0166
:1009300018FFFF0118FFFF01041418010314180128
:1009400002131700021317000113170001131700F9
:10095000011216000112161216FFFF1216FFFF11E8
:1009600016FFFF1115FFFF1115FFFF1115FFFF11F6
:1009700015FFFF1014FFFF1014FFFF1014FFFF10EE
:1009800014FFFF0F14FFFF0F13FFFF0F13FFFF0FE5
:1009900013FFFF0E13FFFF0E12FFFF0E12FFFF0EDD
:1009A00012FFFF0D12FFFF0D12FFFF0D11FFFF0DD4
:1009B00011FFFF0C11FFFF0C11FFFF0C10FFFF0CCC
:1009C00010FFFF0C10FFFF0B10FFFF0B10FFFF0BC2
:1009D0000FFFFF0B0FFFFF0A0FFFFF0A0FFFFF0ABA
:1009E0000EFFFF0A0EFFFF090EFFFF090EFFFF09B2
:1009F0000EFFFF090DFFFF080DFFFF080DFFFF08A9
:100A00000DFFFF0B11FFFF0814FFFF0715FFFF0687
:100A10000B1016050A1117040912180409121803FD
:100A200008131803081319020813190208131902EE
:100A300008131902081319010813190109131901E0
:100A4000091319010A1319010A1319010B131902C9
:100A50000B1318020C1218020D1217020E121603B5
:100A60000F11150314FFFF0312FFFF0412FFFF0510
:100A700013FFFF0514FFFF0615FFFF0716FFFF0812
:100A800016FFFF0917FFFF0917FFFF0718FFFF06F3
:100A90000A0C1805090D1904090E1903080E19038B
:100AA000080F1A0208101A0208111A0107111A0178
:100AB00007121A0107121A0107121A0107131A0165
:100AC00007131A0107131A0107131A0107131A0152
:100AD00007131A0107131901071319010813190243
:100AE0000813180208121803081217030911170433
:100AF0000A1116050B10150614FFFF0812FFFF0A56
:100B00000FFFFF0B10FFFF0812FFFF0713FFFF0689
:100B10000B0F14050A1015050A1116040911160405
:100B200009111703091117030911180209121802F4
:100B300009121902091219010912190109121901E0
:100B400009121A0109121A0109121A0109121A01CD
:100B500009121A0109121A0109121A0109121A01BD
:100B600009121A0109121A0109121A0109121A01AD
:100B700009121A010A121A020A121A020A121A0297
:100B80000A121A030A121A030B121A040C111A047D
:100B90001AFFFF051AFFFF0619FFFF070F11190AB9
:100BA0000C11191019FFFF1018FFFF1018FFFF108C
:100BB00018FFFF0F17FFFF0F17FFFF0F16FFFF0EA6
:100BC00016FFFF0E15FFFF0E15FFFF0D14FFFF0DA3
:100BD00013FFFF0C13FFFF0B12FFFF0B11FFFF0AA8
:100BE00010FFFF090FFFFF080EFFFF070DFFFF05B6
:100BF0000BFFFF040AFFFF0108FFFF0105FFFF01D4
:100C000002FFFF0011241FBECFEFD8E0DEBFCDBF33
:100C100013E0A0E0B1E0E0E7F5E702C005900D9237
:100C2000AA37B107D9F714E0AAE7B3E001C01D92D3
:100C3000A035B107E1F70E94560A0C94B63A0C941D
:100C400000001F920F920FB60F9211248F939F9363
:100C500088B198E0892788B99F918F910F900FBE36
:100C60000F901F9018951F920F920FB60F9211249C
:100C70008F939F938091820390918303892B49F0F6
:100C800080918203909183030197909383038093D3
:100C900082038091120490911304892B49F0809172
:100CA00012049091130401979093130480931204FB
:100CB00080911004882389F18091800390918103B1
:100CC000892B59F58091060490910704892BE1F452
:100CD0008CE291E090930704809306048091810058
:100CE000882379F41092800089E08093810083E06A
:100CF00080936F0088EE93E0909389008093880042
:100D000003C01092810043988091060490910704DB
:100D1000019790930704809306049F918F910F9001
:100D20000FBE0F901F9018951F920F920FB60F9243
:100D300011248F939F9388B198E0892788B99F9158
:100D40008F910F900FBE0F901F901895AF92BF928A
:100D5000CF92DF92EF92FF920F931F93E62E1092A5
:100D6000800029E02093810023E020936F009C0104
:100D700040E050E060E079E08DE390E00E94B6381A
:100D80003093890020938800FF2400E010E0C80120
:100D9000B7010E94D4355B016C0120E030E04AEFDE
:100DA00054E40E94EC327B018C0120E030E040E80A
:100DB0005FE30E94F23488231CF461E070E024C0F9
:100DC000C801B70120E03FEF4FE757E40E9492349B
:100DD0001816B4F4C601B50120E030E040E251E459
:100DE0000E94EC320E94163188EC90E005C0FC01B4
:100DF0003197F1F76150704061157105C1F707C077
:100E0000C801B7010E941631CB010197F1F710928A
:100E1000810043981F910F91FF90EF90DF90CF904A
:100E2000BF90AF9008951E9B16C080910D0488233B
:100E300049F110920D041092160410928103109241
:100E40008003809110048823E9F01092100410921E
:100E500081004398089580910D04882399F481E0DE
:100E600080930D04109281031092800383E080939D
:100E70007F0380910804853D11F083E001C085E087
:100E800080937E030895FC0183709070892B39F460
:100E9000CF0164E670E00E946D38892B49F420E0B0
:100EA00030E0CF0160E971E00E946D38892B11F4C8
:100EB00021E030E0822F08950895482F6AE00E94D3
:100EC0006138282F30E084E0220F331F8A95E1F744
:100ED000842F0E946138892F822B089588E592E043
:100EE0009093810380938003109281004398109225
:100EF00011040895CF92DF92EF92FF920F931F9308
:100F0000DF93CF93CDB7DEB728970FB6F894DEBF47
:100F10000FBECDBF162FF42ED22EFE01319698E0D3
:100F2000DF011D929A95E9F719820E945D078A8375
:100F3000812F0E945D078B838F2D0E945D078C831C
:100F40008D2D0E945D078D83802F0E945D078E830B
:100F50008E2D0E945D078F838C2D0E945D078887F0
:100F6000F89480ED68E0AE014F5F5F4F0E94FD2E68
:100F700078948823D9F008EC10E080EA9FE064E6DA
:100F80000E94A60688EE93E0F8013197F1F70197E9
:100F9000D9F780EA9FE064E60E94A60680E197E226
:100FA000F8013197F1F70197D9F7E7CF28960FB6F7
:100FB000F894DEBF0FBECDBFCF91DF911F910F918F
:100FC000FF90EF90DF90CF9008950F931F93DF93E2
:100FD000CF93CDB7DEB729970FB6F894DEBF0FBE1B
:100FE000CDBF1982F89480ED61E0AE014F5F5F4F95
:100FF0000E94FD2E8823D9F008EC10E080EA9FE0E3
:1010000064E60E94A60688EE93E0F8013197F1F7B6
:101010000197D9F780EA9FE064E60E94A60680E186
:1010200097E2F8013197F1F70197D9F7E7CF80ED13
:1010300067E0AE014E5F5F4F0E94442F7894882393
:10104000D9F008EC10E080EA9FE064E60E94A60672
:1010500088EE93E0F8013197F1F70197D9F780EA2C
:101060009FE064E60E94A60680E197E2F8013197CE
:10107000F1F70197D9F7E7CF7A81872F82958F70A3
:1010800090E0877090709C01A3E0220F331FAA9517
:10109000E1F7880F991F280F391F872F8F70820F54
:1010A000809315044B81842F82958F7090E0877018
:1010B00090709C01E3E0220F331FEA95E1F7880F5F
:1010C000991F280F391F4F70420F40930B048C81DA
:1010D000482F42954F70682F6F7086FF22C082950F
:1010E0008695877090E0817090709C01220F331F6D
:1010F000280F391F220F331F220F331F842F90E038
:1011000081709070AC0103E0440F551F0A95E1F720
:10111000880F991F480F591F240F260F2093000492
:1011200011C0842F90E0837090709C01B3E0220F77
:10113000331FBA95E1F7880F991F280F391F620FE7
:10114000609300044E81842F82958F7090E08370AD
:1011500090709C01F3E0220F331FFA95E1F7880F9E
:10116000991F280F391F4F70420F40930A044F8177
:10117000842F82958F7090E0817090709C0163E065
:10118000220F331F6A95E1F7880F991F280F391F27
:101190004F70420F409314042885822F82958F70E0
:1011A0003AE0839FC00111242F70280F209304047C
:1011B000872F807829960FB6F894DEBF0FBECDBF7B
:1011C000CF91DF911F910F910895CF92EF920F93DE
:1011D0000E94572E0E94E507882359F080E060E0C6
:1011E0004CE020E001E0EE24E394B9E0CB2E0E9435
:1011F0007A070E94E50781E090E00E946C396CE379
:101200000E9461389093050480E090E00E946C3960
:1012100068E10E94613890930F0487E08093B100E9
:1012200081E08093700078940F91EF90CF900895B3
:101230001F920F920FB60F921124FF920F931F93DC
:101240002F933F934F935F936F937F938F939F93CE
:10125000AF93BF93EF93FF93A8958091840380355C
:1012600079F4109284031091150400910B04F0900E
:1012700000040E94E507809100048F1529F40AC03C
:101280008F5F80938403BFC081E080937C03F092E2
:101290000C0407C080910B04801731F081E080932B
:1012A0007B030093020409C080911504811729F083
:1012B00081E080937D0310931704809115048117BA
:1012C00009F43FC080911004882359F08091800375
:1012D00090918103009729F0019790938103809367
:1012E000800380917E03882361F180917E03815089
:1012F00080937E0380917E03882319F580917F037C
:101300008093010410927F0380917C03882329F04D
:1013100080910C048093000404C080917B03882397
:1013200021F08091020480930B0480917C03882338
:1013300021F480917B03882321F0F0920004009334
:101340000B0480911104843061F080911104853088
:1013500041F080911104883021F080911104863091
:1013600069F480918703882349F480910004609197
:101370000B044091150423E00E94550D80910D044B
:10138000882399F080911504882379F490910B04B7
:1013900080910504981749F49091000480910F04FE
:1013A000981719F481E08093160480917B038823B9
:1013B00069F480917C03882349F480911604882382
:1013C00029F081E080931004109216048091850327
:1013D000863039F41092850380918B03882329F499
:1013E00009C08F5F809385030EC080918B0381506D
:1013F00080938B0380918603882329F08091860354
:10140000815080938603FF91EF91BF91AF919F919F
:101410008F917F916F915F914F913F912F911F918C
:101420000F91FF900F900FBE0F901F9018950F9384
:101430001F93182F062F6AE00E946138805D602F8D
:101440000E94DA29812F6AE00E946138892F805D2D
:10145000602F0E94DA291F910F910895EF92FF9259
:101460000F931F93F82E162FE42E21E001E00E9427
:10147000252AFE0C0F2D02501150802F612F0E9443
:10148000F92B1E5F802F612F0E94F92B0150135002
:10149000802F612F0E94F92B1C5F802F612F0E94EB
:1014A000F92B1F910F91FF90EF9008956F927F920B
:1014B0008F929F92AF92BF92CF92DF92EF92FF9264
:1014C0000F931F93CF93DF9384B714BE88E10FB6B9
:1014D000F89480936000109260000FBE8AE190E063
:1014E0000E94AE273B9A0E94E50883E090E00E94AC
:1014F0006C3980930E0484E090E00E946C398093F4
:1015000003040E945C120E94130782E084BD83E002
:1015100085BD8DE787BD80916E00826080936E00EF
:10152000539A80E28093B0008091B00083608093F2
:10153000B0008091B10088608093B10080E1809319
:10154000B30082E090E00E946C398093B400259A49
:1015500080EA9FE064E60E94A6062FE088E190E022
:101560000FB6F894A895809360000FBE209360009A
:101570000E943E2E0E941A2E86E090E00E946C3956
:10158000809308040E94D11300E010E07BE4E72E72
:10159000F12CC8E5D2E062E0762E55E0652E43E0FE
:1015A000942E8824839436E0B32E24E0A22E98E073
:1015B000C92E88ECD82EF0921304E0921204809188
:1015C0008903882379F080911004882359F01092C0
:1015D0008903D0938103C0938003109281004398C4
:1015E00010921104133081F480917E03882361F4FA
:1015F00070927F0380910804853D11F083E001C063
:1016000085E080937E0310E080918903867071F0FD
:101610001092890380927F0380910804853D11F028
:1016200083E001C085E080937E0313E0809189030D
:1016300080FF43C01092890310927F0310927E03B3
:10164000809111048430C1F0853028F4882351F052
:10165000833041F518C0883001F1883C41F0853075
:1016600009F516C0D09211040E94CC111DC0A092A1
:1016700011040E94CF0E18C0909211040E94F30D25
:101680001092000111C0609211040E9487100CC0DA
:10169000C09211040E94760F07C0B09211040E94FC
:1016A0000D1002C01092110480911104882321F4BE
:1016B0000E941A2E0E94D11310E00E948313809181
:1016C0001104882339F5002369F4809110048823DC
:1016D00069F08091150480FF09C081E00E94B71372
:1016E00001E018C080911004882351F0809110040B
:1016F000882359F0002349F08091150480FD05C02E
:1017000080E00E94B71300E005C02D9A802F0E9450
:101710009D132D988091120490911304892BD1F779
:101720004ACFEF92FF920F931F93982F8B017A016C
:1017300080E0692F0E94102E81E091E060E00E941D
:10174000142AC80160E00E94142A88E091E060E059
:101750000E94142AC70160E00E94142A1F910F9171
:10176000FF90EF9008951F93182F8BE260E00E9486
:10177000102E80910804843D71F0853D28F4823D4F
:1017800069F0833DE1F40DC0863D89F0863D60F04F
:10179000873DA9F40FC08DE091E00EC087E191E094
:1017A0000BC085E291E008C080E391E005C08BE3C7
:1017B00091E002C082E491E0612F0E94142A1F91FF
:1017C00008951F93182F88E064E00E94102E88E48B
:1017D00091E060E00E94142A80910E04882339F47D
:1017E00080910304882319F481E591E020C0809161
:1017F0000E04882339F480910304813019F48EE5B6
:1018000091E015C080910E04813039F48091030479
:10181000882319F48BE691E00AC080910E04813090
:1018200049F480910304813029F488E791E0612F25
:101830000E94142A1F9108958F929F92AF92BF9297
:10184000CF92DF92EF92FF920F937C016B015A01CE
:10185000490180E060E340E820E100E00E94252AA1
:1018600086E0B701A6010E94910B87E0B501A401B3
:101870000E94910B0F91FF90EF90DF90CF90BF905F
:10188000AF909F908F900895AC019B0185E891E007
:10189000BA0147E851E00E941C0C08958BE891E0E2
:1018A00062E971E00E94440C089587E991E06CE9D7
:1018B00071E047E851E022E931E00E941C0C0895F4
:1018C00087E991E061EA71E047E851E029EA31E017
:1018D0000E941C0C08950F931F93CF93DF93182F32
:1018E000062F80910304882371F584E761E00E944C
:1018F000102E1C3010F080E501C081E460E00E94F1
:10190000DA298DE460E00E94DA2980E561E00E9436
:10191000102E812F90E047966CE070E00E94813895
:10192000EC018930910524F09C012F5F822F10C0BB
:1019300080E260E00E94DA299E012F5C822F602FF6
:101940000E94DA2908C080E561E00E94102E812FF4
:10195000602F0E94170ADF91CF911F910F91089578
:101960000F931F93CF93DF93082F162F80910304BB
:101970008823D1F4802F90E047966CE070E00E94BD
:101980008138EC018930910524F09C012F5F822F72
:1019900014C080E260E00E94DA299E012F5C822F51
:1019A000612F0E94DA290CC080E260E00E94DA29EF
:1019B00080E260E00E94DA29802F612F0E94170ADE
:1019C000DF91CF911F910F910895EF92FF920F93A6
:1019D0001F93F82E162FE42E022F88E063E00E945A
:1019E000102E8DEA91E060E00E94142A80910E048E
:1019F0008823B1F483EB91E060E00E94142A60E058
:101A00000B3009F461E08F2D0E94170A8FE260E02D
:101A10000E94DA2960E00C3009F461E0812F19C0DE
:101A200080910E048130D9F483EB91E060E00E9454
:101A3000142A60E00C3009F461E0812F0E94170A3B
:101A40008FE260E00E94DA2960E00B3009F461E087
:101A50008F2D0E94170A8FE260E00E94DA2910E0C1
:101A60000D3009F411E084E1612F0E94170A8E2DD8
:101A7000612F0E94170A1F910F91FF90EF90089518
:101A80001F93182F88E065E00E94102E89EB91E0EB
:101A900060E00E94142A8091B40060E0193609F4D5
:101AA00061E00E94170A1F910895DF92EF92FF9262
:101AB0000F931F93E82EF62ED42E122F88E062E0AB
:101AC0000E94102E89EC91E060E00E94142A00E050
:101AD000153609F401E08E2D602F0E94B00C8AE3C8
:101AE00060E00E94DA2960E0163609F461E08F2D8B
:101AF0000E94170A8AE360E00E94DA2960E0173644
:101B000009F461E08D2D0E94170A80910304882357
:101B100069F480E260E00E94DA298BE08E1510F40F
:101B200080E501C081E4602F0E94DA291F910F91A6
:101B3000FF90EF90DF9008951F93182F88E061E0E9
:101B40000E94102E84ED91E060E00E94142A8091A2
:101B50000F0460E0153609F461E00E946B0C8AE323
:101B600060E00E94DA298091050460E0163609F4ED
:101B700061E00E94170A1F910895809187038F5F8B
:101B8000809387030E941A2E88E060E00E94102E46
:101B900081EE91E060E00E94142A80E00E94B30B85
:101BA00084E00E949C0D8091000460910B044091A0
:101BB000150423E00E94550D8091140460910A04DD
:101BC0004091040425E00E94E50C80E00E94E10BB6
:101BD00086E00E94400D0E94600C80918703815036
:101BE000809387030895BF92CF92DF92EF92FF9286
:101BF0000F931F93CF93DF9310910004D0900B04A9
:101C0000F09015040E94BD0D809187038F5F809333
:101C1000870380E063E147E00E942E0A80918703FA
:101C20008150809387038AE08093860303E08AE0F3
:101C3000B82EC8ECD0E08091890380FDA6C08091C9
:101C40008903882321F480918A03882319F0B092B4
:101C5000860307C080918603882319F4109211042B
:101C600094C08091890381FF48C0109289038091BC
:101C700087038F5F80938703033041F487EE91E001
:101C800061EF71E00E94440C05E62CC0053641F47A
:101C90008AEF91E065E072E00E94440C06E622C003
:101CA000063641F48EE092E062E172E00E94440C5C
:101CB00007E618C00E94600C10930004D0920B0439
:101CC000F09215048091150460910B04409100047A
:101CD00000910A04E0901404C090040420E00E94E3
:101CE0007A0703E0812F6D2D4F2D202F0E94550D77
:101CF000809187038150809387038091890382FDBF
:101D000004C080918A0382FF96CF1092890380914C
:101D100087038F5F80938703053659F4812F90E006
:101D2000019668E170E00E948138182F80930004CA
:101D300015C0063649F48D2D90E001966CE370E0F5
:101D40000E948138D82E0AC0073641F48F2D90E0CA
:101D500001966CE370E00E948138F82E812F6D2D82
:101D60004F2D202F0E94550D809187038150809325
:101D7000870380918A0382FF5ECF80ED97E0FE01AA
:101D80003197F1F70197D9F756CFDF91CF911F9196
:101D90000F91FF90EF90DF90CF90BF9008950F9339
:101DA0001F93CF93DF930E94BD0D809187038F5FB8
:101DB0008093870380E06BE047E00E942E0A8091C9
:101DC00087038150809387038AE08093860314E021
:101DD0000AE0C8ECD0E08091890380FD82C0809148
:101DE0008903882321F480918A03882319F00093C2
:101DF000860307C080918603882319F4109211048A
:101E000070C08091890381FF26C010928903809160
:101E100087038F5F80938703143041F48BE192E056
:101E200061EF71E00E94440C15E60DC0153641F4D7
:101E30008AEF91E065E072E00E94440C16E603C070
:101E40000E94600C14E0812F0E949C0D80918703FA
:101E50008150809387038091890382FD04C0809123
:101E60008A0382FFB8CF10928903809187038F5F26
:101E700080938703153679F480910F0490E00196E2
:101E800068E170E00E94813880930F0460910F0434
:101E900080E090E010C0163681F48091050490E057
:101EA00001966CE370E00E94813880930504609194
:101EB000050481E090E00E947439812F0E949C0DFE
:101EC0008091870381508093870380918A0382FFEA
:101ED00082CF80ED97E0FE013197F1F70197D9F7B6
:101EE0007ACFDF91CF911F910F9108950F931F9398
:101EF0000E94BD0D809187038F5F8093870380E0F0
:101F000063E247E00E942E0A80918703815080930C
:101F100087038AE08093860318E00AE080918903B2
:101F200080FD78C080918903882321F480918A0301
:101F3000882319F00093860307C0809186038823C5
:101F400019F41092110466C08091890381FF1BC0AF
:101F500010928903809187038F5F809387031830E5
:101F600039F481E00E94E10B0E944E0C18E606C095
:101F700080E00E94E10B0E94600C18E080918703D2
:101F80008150809387038091890382FD04C08091F2
:101F90008A0382FFC3CF10928903183609F0BECF9F
:101FA00080910304882359F080910E048F5F809301
:101FB0000E0480910E04823010F010920E04809175
:101FC000030490E0882309F491E090930304809146
:101FD00087038F5F809387030E94BD0D0E944E0C84
:101FE00080E063E247E00E942E0A81E00E94E10B5C
:101FF0008091870381508093870360910E0483E072
:1020000090E00E9474396091030484E090E00E94A3
:10201000743984CF1F910F9108950F931F930E94DD
:10202000BD0D809187038F5F809387030E94550CBD
:1020300080E06BE247E00E942E0A80918703815086
:10204000809387038AE08093860316E00AE08091FC
:10205000890380FD59C080918903882321F48091F0
:102060008A03882319F00093860307C080918603B2
:10207000882319F41092110447C08091890381FFCD
:1020800018C010928903809187038F5F8093870324
:10209000163021F40E944E0C19E603C00E94550C24
:1020A00016E0812F0E94400D80918703815080931C
:1020B00087038091890382FD04C080918A0382FF97
:1020C000C6CF10928903193611F68091B4008F5F44
:1020D0008093B4008091B400813110F01092B4006C
:1020E000809187038F5F8093870389E60E94400D6C
:1020F000809187038150809387036091B40082E0D0
:1021000090E00E947439A3CF1F910F910895BF9260
:10211000CF92DF92EF92FF920F931F93CF93DF93B3
:10212000F0900A0410911404D09004040E94BD0D94
:10213000809187038F5F8093870380E06BE147E0A6
:102140000E942E0A809187038150809387038AE042
:102150008093860305E04AE0B42EC8ECD0E080917D
:10216000890380FD0FC180918903882321F4809128
:102170008A03882319F0B092860307C080918603F2
:10218000882319F410921104FDC08091890381FF06
:102190006AC010928903809187038F5F80938703C1
:1021A000053069F480910E04882309F180910E04B2
:1021B000813059F080910E04833091F506C00B30C8
:1021C00061F480910E048823F9F48AE392E065E4D7
:1021D00072E00E94440C0CE03BC00C3009F5809189
:1021E0000E04813021F080910E04833041F486E2A8
:1021F00092E061E372E00E94440C0BE029C0809100
:102200000E04882329F00CC080910E04813041F423
:102210008EE492E069E572E00E94440C0DE018C083
:102220000E94600CD092040410931404F0920A04EB
:102230008091150460910B044091000400910A0400
:10224000E0901404C090040420E00E947A0705E0A6
:10225000812F6F2D4D2D202F0E94E50C809187033B
:102260008150809387038091890382FD04C080910F
:102270008A0382FF74CF10928903809187038F5F56
:10228000809387030B3071F51F5F1D3010F011E054
:102290005CC01230D1F48D2D90E00E94430788235A
:1022A00031F08DE18F1518F43DE1F32E4EC08D2DE8
:1022B00090E00E944307882309F047C08CE18F1506
:1022C00008F043C02CE1F22E40C0143031F016303B
:1022D00021F0193011F01B30C1F58EE18F1508F493
:1022E0004BC033C00C3039F5F3948FE18F1510F4E7
:1022F000FF24F394123099F48D2D90E00E9443074F
:10230000882319F08DE18F15D0F18D2D90E00E947A
:1023100043078823D1F48CE18F1588F116C014305F
:1023200031F0163021F0193011F01B3071F48FE1CB
:10233000F81629F10AC00D3041F48D2D90E0019678
:1023400064E670E00E948138D82E812F6F2D4D2DCC
:10235000202F0E94E50C8091870381508093870392
:1023600080918A0382FFFBCE80ED97E0FE013197DA
:10237000F1F70197D9F7F3CE9EE1F92EE6CFFF24CE
:10238000F394E3CFDF91CF911F910F91FF90EF90E6
:10239000DF90CF90BF900895FF920F931F930E94FC
:1023A000BD0D809187038F5F809387030E94600C2F
:1023B00080E063E047E00E942E0A8091870381500D
:1023C000809387038AE08093860318EC5AE0F52E09
:1023D00002ED01C018EC8091890380FD69C08091F5
:1023E0008903882321F480918A03882319F0F092CD
:1023F000860304C0809186038823F1F080918903CD
:1024000081FF1DC010928903809187038F5F8093A5
:102410008703183C61F481E00E94B30B0E944E0CCC
:102420008091870381508093870319EC08C080E076
:102430000E94B30B0E94600C1092110439C080916D
:10244000890382FD04C080918A0382FFC4CF109269
:102450008903193C09F0BECF809108048F5F8093F7
:10246000080480910804883D10F0009308048091CE
:102470000804873D30F46091080486E090E00E94F3
:102480007439809187038F5F809387030E94BD0D0D
:102490000E944E0C80E063E047E00E942E0A81E03B
:1024A0000E94B30B8091870381508093870393CF61
:1024B0001F910F91FF90089526982E9A81E08093A6
:1024C0006800EBE6F0E080818064808382E08093A6
:1024D0007C0010927B00EAE7F0E08EE88083808148
:1024E00080648083089580917A00877F80937A004A
:1024F00080917A00806480937A0080917A0084FFD2
:10250000FCCF2091780030917900C90108951F9285
:102510000F920FB60F9211242F938F939F9378945D
:10252000809178009091790022E0803E920728F017
:1025300010928A0310928803B4C022E08336920777
:1025400008F453C08091880382FDABC080E29EE412
:102550000197F1F780917A00877F80937A008091CC
:102560007A00806480937A0080917A0084FFFCCFA7
:102570008091780090917900825692408E37910533
:1025800008F08FC082E080938B0322C080917A0094
:10259000877F80937A0080917A00806480937A00AC
:1025A00080917A0084FFFCCF80917800909179002F
:1025B000825692408E37910558F0809188038B7F28
:1025C000809388038091890384608093890369C024
:1025D00080918B038823D1F6809188038460809357
:1025E000880380918A0384605AC08F50914068F1BB
:1025F0008091880381FD20C080E29EE40197F1F77D
:1026000080917A00877F80937A0080917A0080643D
:1026100080937A0080917A0084FFFCCF80917800CB
:10262000909179008E50914085559140D0F58091E0
:1026300089038260809389038091880382608093FC
:10264000880380918A0382602AC08091880380FD7C
:102650001EC080E29EE40197F1F780917A00877FA7
:1026600080937A0080917A00806480937A008091D0
:102670007A0084FFFCCF80917800909179008F5090
:10268000914078F4809189038160809389038091DF
:10269000880381608093880380918A03816080939E
:1026A0008A0380917A00886480937A009F918F9149
:1026B0002F910F900FBE0F901F9018951F920F92A1
:1026C0000FB60F9211242F933F934F935F936F9305
:1026D0007F938F939F93AF93BF93EF93FF937894E0
:1026E0000E941307FF91EF91BF91AF919F918F913E
:1026F0007F916F915F914F913F912F910F900FBEFE
:102700000F901F90189580910804833D81F0843DBF
:1027100018F4823D89F408C0843D19F0853D61F4C8
:1027200009C00E94981A08950E94F82008950E94F6
:10273000E51E08950E945422089590910804933D47
:1027400081F0943D18F4923D89F408C0943D19F04D
:10275000953D61F409C00E94C11808950E94172296
:1027600008950E94FD1F08950E94EB240895909102
:102770000804933D81F0943D18F4923D89F408C01B
:10278000943D19F0953D61F409C00E94B219089575
:102790000E942F2208950E94C41F08950E94CB26F4
:1027A000089580910804843D71F0853D28F4823DB0
:1027B00069F0833D09F50DC0863D89F0863D60F0E6
:1027C000873DD1F417C00E94491A08950E944B22F8
:1027D00008950E94CE1F08950E94472708950E94E1
:1027E000C21480E090E00E94201583708E52809386
:1027F0000804D7CF0E944B2708952F923F924F9203
:102800005F926F927F928F929F92AF92BF92CF9280
:10281000DF92EF92FF920F931F9320908E033090E0
:102820008F034090900350909103609092037090BA
:1028300093038090940390909503AA24BB24650190
:10284000F501E370F070EE0FFF1FEE0FFF1FE05D6C
:10285000FB4FE080F18002811381EA0CFB1C0C1D10
:102860001D1DD401C30175E0B695A7959795879571
:102870007A95D1F7A401930164E0220F331F441F1E
:10288000551F6A95D1F782279327A427B527860D70
:10289000971DA81DB91DE826F9260A271B272E0C0F
:1028A0003F1C401E511E89EB99E7A7E3BEE9A80E25
:1028B000B91ECA1EDB1EA2019101F5E0569547958F
:1028C00037952795FA95D1F7D201C101E4E0880F39
:1028D000991FAA1FBB1FEA95D1F7282739274A2736
:1028E0005B27220D331D441D551DD601C5017BE01C
:1028F000B695A795979587957A95D1F7837090703F
:10290000880F991F880F991F805D9B4FFC01808164
:102910009181A281B3818A0D9B1DAC1DBD1D28270D
:1029200039274A275B27620E731E841E951EF0E22C
:10293000AF16F7E3BF06FFEECF06F6ECDF0609F0B1
:102940007FCF20928E0330928F034092900350925B
:1029500091036092920370929303809294039092F9
:1029600095031F910F91FF90EF90DF90CF90BF9054
:10297000AF909F908F907F906F905F904F903F901F
:102980002F90089580EB96EEA2E7B1EB80933C0484
:1029900090933D04A0933E04B0933F0480911504AE
:1029A00090E0A0E0B0E02EE631E749EE5DE282275C
:1029B0009327A427B5278093300490933104A093E4
:1029C0003204B093330480910B0490E0A0E0B0E0B7
:1029D00021ED3DED4FE359E982279327A427B52741
:1029E0008093340490933504A0933604B093370455
:1029F0008091000490E0A0E0B0E027E53BEF47E7DE
:102A00005AE282279327A427B5278093380490930E
:102A10003904A0933A04B0933B0410928E031092B1
:102A20008F031092900310929103109292031092D0
:102A3000930310929403109295030E94FD1308953E
:102A40008130F9F48091920390919303A0919403C3
:102A5000B091950320918E0330918F0340919003A4
:102A60005091910382279327A427B5273FE0B6957D
:102A7000A795979587953A95D1F79C01237030706B
:102A80002FC08230F9F48091920390919303A0912A
:102A90009403B091950320918E0330918F03409160
:102AA00090035091910382279327A427B52721E112
:102AB000B695A795979587952A95D1F79C01217092
:102AC00030700EC0A8950E94FD13209192033091A2
:102AD000930380918E0390918F03282739273F77A6
:102AE000C901089590917F0380918D03981739F063
:102AF00081E080938C0380917F0380938D0380918C
:102B00007F03813039F1813030F08230A9F1833098
:102B100009F042C039C080917B03882321F4809161
:102B20007C03882381F080917C03882329F08091A5
:102B30000C048093460404C080917B03882361F1D8
:102B4000809102041EC0809100048093460480910D
:102B50000B0417C080910E04882339F4809114046B
:102B60008093460480910A040CC080910A048093EB
:102B700046048091140405C084E18093460480914A
:102B8000040480934704089580910F0480934604C1
:102B900080910504809347040895AF92CF92EF92FD
:102BA0000F93A82FB0E0E02FF0E0CD01840F911D2E
:102BB0008E179F07B4F0EC0DF11DEA17FB078CF0A0
:102BC00070E04E2D50E0CB01820F911D84179507C8
:102BD00044F080E04A0D511D461757071CF081E074
:102BE00001C080E00F91EF90CF90AF900895EF92E9
:102BF000FF920F931F9380E00E942015A0E0B0E0A9
:102C0000BC01CD010E94D43520E030E048E452E41C
:102C10000E94EC3220E03EEF4FEF56E40E94E63394
:102C200020E030E040EA51E40E94BF327B018C0199
:102C300081E00E94201583702AE5829FC001112443
:102C4000AA2797FDA095BA2FBC01CD010E9422357D
:102C50009B01AC01C801B7010E94BF3226E53EE0EE
:102C600049E450E40E94EC3220E030E044E353E4D5
:102C70000E94E6331F910F91FF90EF9008952F92DD
:102C80003F924F925F926F927F928F929F92AF92FC
:102C9000BF92CF92DF92EF92FF920F931F93DF9339
:102CA000CF93CDB7DEB761970FB6F894DEBF0FBEF6
:102CB000CDBFEC86FD860E871F87998A888A2D8373
:102CC0003E834F835887AC01CB01DA013C014D01B3
:102CD000C501D6015C016D011A8619869FC06D8100
:102CE0007E818F819885A60195010E94BF321B01CC
:102CF0002C01C401B3012C853D854E855F850E9462
:102D0000BF3269837A838B839C83C201B10120E047
:102D100030E048E652E40E94923418167CF4D7FA68
:102D2000D094D7F8D0940F2EF0E02F2EF0E03F2E65
:102D3000F8E64F2EF2E45F2EF02D18C0C201B1016B
:102D400020E030E040E050E40E94F234882374F444
:102D5000D7FAD094D7F8D0940F2EF0E02F2EF0E0D1
:102D60003F2EF0E04F2EF0E45F2EF02D69817A8146
:102D70008B819C810E9480356B876F368CF0C801F7
:102D8000B70120E030E046EE52E40E94F23488239E
:102D90003CF460E070E086EE92E4A801970113C075
:102DA000FB85FE3054F5C401B30120E030E040E57E
:102DB00051E40E949234181604F560E070E080E55A
:102DC00091E4A40193010E948E322C853D854E85AD
:102DD0005F850E94E633A60195010E94EC329B01BB
:102DE000AC016D817E818F8198850E94BF320E94E7
:102DF0001631E889F989608307C0F985FF2321F43A
:102E00008A858F5F8A8702C0E1E0E9872D823E8252
:102E10004F82588669807A808B809C80C401B30180
:102E200020E030E04CEE52E40E94F23488239CF41F
:102E3000C401B30120E030E040E850E40E94BF321A
:102E40007B018C0120E030E040E251E40E949234AA
:102E500018160CF444CF6D817E818F8198850E9475
:102E60001631EEA1FFA160838A8561960FB6F894B2
:102E7000DEBF0FBECDBFCF91DF911F910F91FF90AD
:102E8000EF90DF90CF90BF90AF909F908F907F900A
:102E90006F905F904F903F902F9008958F929F92E8
:102EA000AF92BF92CF92DF92EF92FF920F931F9358
:102EB000CF93DF93D82E862E922EC42FD0E0CC0F46
:102EC000DD1FCC0FDD1FC95FDF4FCC24CE010E9478
:102ED0006C39182D47E0E42EF12CA82EBB24C50137
:102EE0000E2C02C0959587950A94E2F780FF09C0E1
:102EF00000E0992009F401E08D2D612F42E022E0ED
:102F000005C08D2D612F42E022E0092D0E94252A67
:102F10000894E108F1081E5F8FEFE8168FEFF806BE
:102F2000F1F6C394219682E0D80E84E0C81671F6BB
:102F3000DF91CF911F910F91FF90EF90DF90CF9095
:102F4000BF90AF909F908F900895CF92DF92EF92B5
:102F5000FF920F931F93C82ED62E8823F1F4E09092
:102F60004204F090430400914404109145046091A0
:102F700028047091290480912A0490912B040E94C6
:102F8000163170E06B30710584F5C801B7010E94FD
:102F9000163170E06531710544F580910304882392
:102FA000B9F480917F03882321F080917F038330DF
:102FB00079F48091460490E047966CE070E00E94BE
:102FC000813801966AE070E00E948138462F06C081
:102FD000809146046AE00E946138482F80E064E0F6
:102FE0002D2D0E944E17CC2009F5E0904204F09060
:102FF00043040091440410914504609128047091A9
:10300000290480912A0490912B040E94163170E0CB
:103010006A317105ACF16932710594F5C801B701E7
:103020000E94163170E06531710554F580910304FA
:103030008823C9F480917F03882321F080917F0346
:10304000833089F48091460490E047966CE070E00C
:103050000E94813801966AE070E00E948138482F12
:103060008EE164E008C0809146046AE00E94613805
:103070008EE164E0492F2D2D0E944E17CC2009F5DA
:10308000E0904204F0904304009144041091450400
:10309000609128047091290480912A0490912B0456
:1030A0000E94163170E064347105C4F06335710517
:1030B000ACF4C801B7010E94163170E065317105AA
:1030C0006CF4809147046AE00E946138482F88E4DC
:1030D00064E02D2D0E944E17CC2009F5E0904204AB
:1030E000F090430400914404109145046091280439
:1030F0007091290480912A0490912B040E9416312A
:1031000070E062367105B4F0613771059CF4C80156
:10311000B7010E94163170E0653171055CF4809151
:1031200047046AE00E94613886E664E0492F2D2D4D
:103130000E944E171F910F91FF90EF90DF90CF905C
:1031400008950F931F93082F10E08FE3612F0E94C3
:10315000102E002311F080EF01C08FE00E94B72DE8
:103160001F5F173091F78FE367E00E94102E002356
:1031700011F080E201C08FEC0E94B72D1F910F91DA
:103180000895BF92CF92DF92EF92FF920F931F9319
:10319000B82E0E94721560912804709129048091C4
:1031A0002A0490912B040E9416317B018C016091BE
:1031B00042047091430480914404909145040E941C
:1031C00016319B01AC018E2D622F44E024E00B2DC3
:1031D0000E94252ACC24BB2011F4CC24C3946091F6
:1031E0002C0470912D0480912E0490912F040E9444
:1031F00016317B018C0160911F0470912004809135
:103200002104909122040E9416319B01AC018E2D65
:10321000622F44E024E00C2D0E94252AE090420415
:10322000F0904304009144041091450460912804F7
:103230007091290480912A0490912B040E941631E8
:1032400070E06B33710564F0613471054CF4C801B2
:10325000B7010E94163170E0613471050CF476C03C
:1032600060911804262F30E080911904992787FD7A
:1032700090952817390771F08AE043E02CE00B2D78
:103280000E94252A8AE06091190443E02CE00C2D6D
:103290000E94252A60914104262F30E0809140044D
:1032A000992787FD90952817390771F083E743E048
:1032B0002CE00B2D0E94252A83E76091400443E017
:1032C0002CE00C2D0E94252AE0904204F09043044B
:1032D0000091440410914504D0904004609128046A
:1032E0007091290480912A0490912B040E94163138
:1032F00070E06F367105A4F0673771058CF4C80172
:10330000B7010E94163170E02D2D30E0CB010496FC
:10331000821793072CF0245F3F4F26173707D4F40A
:103320001092700080918C03882311F010928C030E
:1033300081E0809370006B2D0E94A5171F910F9163
:10334000FF90EF90DF90CF90BF9008958B2D0E945B
:10335000A11886CF83E76D2D43E02CE00C2D0E9451
:10336000252ADECFFF920F931F93F82E80E060E0B6
:1033700040E820E40F2D0E94252A10E0FF2009F4E8
:1033800011E080E060E040E822E0012F0E94252A61
:1033900080E06EE340E822E00E94252A8AE0609106
:1033A000190443E02CE00E94252A83E76091400441
:1033B00043E02CE00E94252A0E94721580910304AC
:1033C0008823B9F480917F03882321F080917F03C3
:1033D000833079F48091460490E047966CE070E089
:1033E0000E94813801966AE070E00E948138462F81
:1033F00006C0809146046AE00E946138482F80E050
:1034000064E02F2D0E944E17809103048823C9F495
:1034100080917F03882321F080917F03833089F49A
:103420008091460490E047966CE070E00E948138FD
:1034300001966AE070E00E948138482F8EE164E0D6
:1034400008C0809146046AE00E9461388EE164E021
:10345000492F2F2D0E944E17809147046AE00E9449
:103460006138482F88E464E02F2D0E944E17809128
:1034700047046AE00E94613886E664E0492F2F2DF8
:103480000E944E178F2D0E94A1181F910F91FF903F
:103490000895EF92FF920F931F9389E1809319048F
:1034A0008093400480E090E0ACE7B2E480932C0489
:1034B00090932D04A0932E04B0932F0480E090E00D
:1034C000A8EFB1E480931F0490932004A0932104FB
:1034D000B09322040E94F7157B018C010E940839E9
:1034E00020E030E040EA50E40E94EC326093230494
:1034F000709324048093250490932604C801B70197
:103500000E94663920E030E040EA50E40E94EC324C
:1035100060931B0470931C0480931D0490931E04FD
:1035200080E00E94B2191F910F91FF90EF900895D3
:103530002F923F924F925F926F927F928F929F92C3
:10354000AF92BF92CF92DF92EF92FF920F931F93B1
:10355000DF93CF93CDB7DEB72E970FB6F894DEBFCB
:103560000FBECDBF60912C0470912D0480912E046C
:1035700090912F04609328047093290480932A0467
:1035800090932B04E0901F04F090200400912104FC
:1035900010912204E0924204F09243040093440408
:1035A0001093450420912304309124044091250474
:1035B000509126040E94BF325B016C0160932C0481
:1035C00070932D0480932E0490932F0460901B041D
:1035D00070901C0480901D0490901E04C801B701D7
:1035E000A40193010E94BF3260931F0470932004D2
:1035F000809321049093220420E030E048E652E4D6
:103600000E9492341816BCF480E090E0A8E6B2E480
:1036100080931F0490932004A0932104B09322046C
:10362000D401C301B05880931B0490931C04A09351
:103630001D04B0931E0460911F04709120048091BA
:1036400021049091220420E030E040E050E40E9408
:10365000F2348823ECF480E090E0A0E0B0E48093C2
:103660001F0490932004A0932104B093220480911E
:103670001B0490911C04A0911D04B0911E04B0582D
:1036800080931B0490931C04A0931D04B0931E040C
:10369000C601B50120E030E048EF52E40E949234C8
:1036A00018163CF0C601B5010E94803516160CF4C0
:1036B00064C080E090E0ACE7B2E480932C04909387
:1036C0002D04A0932E04B0932F0480E090E0A8EF87
:1036D000B1E480931F0490932004A0932104B0933D
:1036E00022040E94F7157B018C010E94083920E01A
:1036F00030E040EA50E40E94EC326093230470937F
:1037000024048093250490932604C801B7010E94E5
:10371000663920E030E040EA50E40E94EC326093E9
:103720001B0470931C0480931D0490931E046091ED
:103730009C0320919B03261B8AE043E000E00E944B
:10374000252A6091A00320919F03261B83E743E075
:103750000E94252A10929F031092A00310929B03AF
:1037600010929C0381E080938C0310927C038091E3
:103770007C0380937B030E947215809119048E83D1
:1037800080931804909140049D839093410420906D
:103790002304309024044090250450902604C20154
:1037A000B10120E030E040E050E00E949234181671
:1037B0000CF03FC160912C0470912D0480912E0477
:1037C00090912F040E9480356F360CF467C0E09012
:1037D0002804F090290400912A0410912B04C801B8
:1037E000B7010E94803560370CF058C0C801B7019E
:1037F00020E030E040E850E40E94BF329B01AC0181
:1038000060E070E086EE92E40E948E325B016C0113
:1038100060901B0470901C0480901D0490901E0406
:10382000C801B701A60195010E94BF326F83788756
:1038300089879A87E0904204F09043040091440401
:10384000109145040E94163170E06F36710534F115
:10385000673771051CF5C601B501A20191010E94EF
:10386000E633A40193010E94EC329B01AC01C80134
:10387000B7010E94BF327B018C010E94163170E0BB
:10388000AD812A2F30E0CB0104968217930734F0E4
:10389000245F3F4F261737070CF039C2E09023040E
:1038A000F09024040091250410912604C801B7016A
:1038B00020E030E040E050E00E94923418160CF016
:1038C00008C260902C0470902D0480902E0490907B
:1038D0002F04C401B30120E030E040E850E40E942E
:1038E000BF3220E030E046EE52E40E94F2348823FA
:1038F0000CF0EFC18091A003882309F05DC000D0D7
:1039000020911F0430912004409121045091220401
:10391000A0901B04B0901C04C0901D04D0901E0405
:103920008DE993E0EDB7FEB792838183C401B301C3
:10393000EEE98E2EE3E09E2E0E943F1680939603C2
:1039400090919E0380919D030F900F90891738F4FA
:103950008093A0039C5F90939F03945005C0909325
:10396000A0038C5F80939F0380917C03882379F46C
:10397000892F845080939803992787FD90950E9402
:103980005D2886E890E061E00E94E9271AC0009176
:10399000A00310919F030F3058F0113328F482E0F8
:1039A0000E94201580FF04C00D500093980309C0A9
:1039B0001F5F1093980305C08091960381508093F8
:1039C00096036091400470919803862F871B482FBF
:1039D000552747FD509557FF03C0509541955F4FC0
:1039E00020919603332727FD309521503040C9019F
:1039F000880F991F880F991F820F931F84179507AF
:103A00000CF067C1842F67173CF4463014F06B5FED
:103A100001C0640F609340049091400479170CF04A
:103A200058C1863014F0955001C0981B9093400403
:103A300050C180912C0490912D04A0912E04B0913E
:103A40002F0489839A83AB83BC83BC01CD010E9480
:103A500080356E300CF07DC0E0902804F090290491
:103A600000912A0410912B04C801B7010E948035EF
:103A70006D300CF46EC060E070E080E591E4A80168
:103A800097010E948E325B016C0160901B04709064
:103A90001C0480901D0490901E04C801B701A6016B
:103AA00095010E94BF326B877C878D879E87E0904F
:103AB0004204F090430400914404109145040E9494
:103AC000163170E0663071050CF443C06E3071053C
:103AD0000CF03FC0C601B501A20191010E94E6337E
:103AE000A40193010E94EC329B01AC01C801B70113
:103AF0000E94BF327B018C010E94163170E09E81D2
:103B0000292F30E0CB0104968217930714F1245F2C
:103B10003F4F26173707ECF02AC18B859C85AD8572
:103B2000BE8580932C0490932D04A0932E04B09313
:103B30002F04E0921F04F0922004009321041093BC
:103B4000220410929B0310929C03109297031092F0
:103B50009A03E0902304F09024040091250410912E
:103B60002604C801B70120E030E040E050E00E94A8
:103B7000F23488230CF0ADC060902C0470902D04BA
:103B800080902E0490902F04C401B30120E030E017
:103B900040E651E40E94923418160CF09AC08091CD
:103BA0009C03882309F054C000D020911F04309159
:103BB00020044091210450912204A0901B04B09055
:103BC0001C04C0901D04D0901E0489E993E0ADB799
:103BD000BEB712969C938E931197C401B301AAE9C4
:103BE0008A2EA3E09A2E0E943F168093960390910E
:103BF0009A03809199030F900F90891738F480935E
:103C00009C039C5F90939B03945005C090939C03EE
:103C10008C5F80939B0380917B03882321F49450D5
:103C2000909397031AC000919C0310919B030F304F
:103C300058F0113328F482E00E94201580FF04C060
:103C40000D500093970309C01F5F1093970305C0A1
:103C50008091960381508093960360911904E091BE
:103C60009703462F552747FD50958E2F992787FD9F
:103C70009095481B590B57FF03C0509541955F4FD6
:103C8000742F552747FD509520919603332727FD24
:103C9000309521503040C901880F991F880F991F16
:103CA000820F931F84179507A4F46E173CF47630A7
:103CB00014F06B5F01C0670F6093190480911904C1
:103CC000E8173CF4763014F0855001C0871B8093D0
:103CD00019048091190483301CF483E08093190443
:103CE0008091400483301CF483E0809340048091F1
:103CF000190482331CF081E38093190480914004FD
:103D000082330CF449C081E38093400445C08F8125
:103D10009885A985BA8580932C0490932D04A0934F
:103D20002E04B0932F04E0921F04F092200400931D
:103D3000210410932204D201C101B05880932304BE
:103D400090932404A0932504B093260410929F031B
:103D50001092A0031092980310929E0310929B035E
:103D600010929C031092970310929A0397CDD20160
:103D7000C101B0588093230490932404A093250498
:103D8000B093260469817A818B819C810E941631CF
:103D90006D3009F0C2CED5CE2E960FB6F894DEBFA8
:103DA0000FBECDBFCF91DF911F910F91FF90EF908C
:103DB000DF90CF90BF90AF909F908F907F906F904B
:103DC0005F904F903F902F90089510927C038091C8
:103DD0007C0380937B030895DF92EF92FF920F9311
:103DE0001F93D82EE62E10E0442309F411E08D2D08
:103DF0008E5F6E2D4EE026E0012F0E94252AFE2CBC
:103E0000F3948D2D8F5F6F2D41E024E00E94252AD1
:103E100082E0E80E8D2D6E2D41E022E00E94252AE1
:103E20008D2D805F6F2D41E024E00E94252A8D2D8D
:103E30008F5E6E2D41E022E00E94252A1F910F9196
:103E4000FF90EF90DF900895DF92EF92FF920F9333
:103E50001F93D82E162FEE24442311F4EE24E3945E
:103E6000612F6E5F8D2D46E025E10E2D0E94252AE3
:103E7000FD2CF394612F6F5F8F2D44E021E00E94B1
:103E8000252A82E0D80E8D2D612F42E021E00E948C
:103E9000252A195E8F2D612F44E021E00E94252AFA
:103EA0001F5F8D2D612F42E021E00E94252A1F9186
:103EB0000F91FF90EF90DF9008958436D1F0853612
:103EC00038F4823681F0833680F4813641F507C0BC
:103ED0008636C1F08636A0F0873609F51AC0862FDF
:103EE0008C5F642F09C04B5F01C04E5D862F8C5ED6
:103EF0000BC0862F8C5F6AE3422F0E94EC1E089550
:103F00004E5D01C04B5F862F642F422F0E94241FFD
:103F10000895862F8C5F6DE1422F0E94EC1E08955C
:103F2000CF92DF92EF92FF920F931F93CF93DF9385
:103F3000C82ED62E022FC7E0D0E011E6E42EFF24D3
:103F4000C7010C2E02C0959587950A94E2F780FF71
:103F500005C0812F6C2D4D2D202F07C020E00023A0
:103F600009F421E0812F6C2D4D2D0E945D1F2197BA
:103F70001F5F183629F7DF91CF911F910F91FF90A6
:103F8000EF90DF90CF9008950F93082F80E060E0CE
:103F900040E820E40E94252A0F9108950F9380E0C5
:103FA00060E040E820E400E00E94252A0F91089597
:103FB000FF920F931F93182F062FF22E842F90E05D
:103FC0004A3028F4835B9F4F0E946C3904C08E52A4
:103FD00090400E946C39482F812F602F2F2D0E9416
:103FE000901F1F910F91FF90089520E0442309F442
:103FF00021E044E00E94152B0895FF920F931F9338
:1040000080917F038823B1F080917F03833091F00A
:1040100080E465E144E020E00E94152B80E46AE240
:1040200044E020E00E94152B80E466E044E020E0BC
:104030000E94152B80917F038230F1F480E060E0D4
:1040400042E020E00E94D81F8EE160E040E020E0E6
:104050000E94D81F8091040464E60E946138892F71
:104060006AE00E946138482F88E460E020E00E9406
:10407000D81F8091040430C080917F038130B1F556
:1040800080910E04882329F41091140400910A04ED
:1040900004C010910A0400911404812F6AE00E9468
:1040A0006138482F80E060E020E00E94D81F812F17
:1040B0006AE00E9461388EE160E0492F20E00E94B2
:1040C000D81F802F6AE00E946138482F88E460E0A2
:1040D00020E00E94D81F802F6AE00E94613886E6A7
:1040E00060E0492F20E00E94D81F7EC080917F03AE
:1040F000882329F080917F03833009F075C0809177
:104100007F03833029F410910F04F090050404C05C
:1041100010910004F0900B04809103048823B9F4FB
:10412000812F90E047966CE070E00E948138082F64
:104130000F5F1C3028F480E466E044E021E004C016
:1041400080E466E044E020E00E94152B07C080E494
:1041500066E044E020E00E94152B012F0A3048F071
:10416000802F6AE00E946138482F80E060E020E004
:1041700004C080E060E048E021E00E94D81F802F6A
:104180006AE00E9461388EE160E0492F20E00E94E1
:10419000D81F8F2D6AE00E946138482F88E460E0C4
:1041A00020E00E94D81F8F2D6AE00E94613886E6C9
:1041B00060E0492F20E00E94D81F80917D03882372
:1041C00099F02091150411E02127217080E465E128
:1041D00044E00E94152B209115042127217080E4D2
:1041E0006AE244E00E94152B1F910F91FF90089501
:1041F00080916C02815080936C028823F1F485E0F9
:1042000080936C0280916A028093A30390916B0269
:10421000980F90936A02903218F08FEF80936B02A0
:10422000992319F481E080936B0290E08091A403BC
:10423000882309F491E09093A4030895FF920F93CB
:104240001F93082FF62E6AE00E946138182F805DB8
:104250006F2D0E94DA29005D86EF9FEF189F102DC9
:104260001124812F800F6F2D0E94DA291F910F9149
:10427000FF9008951F93182F80E060E00E94102E99
:1042800080914604612F0E941E2180914904612F74
:104290000E941E2186E660E00E94102E8091470455
:1042A000612F0E941E2180914804612F0E941E21CF
:1042B0001F910895282F80917B03882359F48091C2
:1042C0007C03882339F490917F038091A60389179A
:1042D00009F45EC010927C0380917C0380937B0381
:1042E0008091A503882309F053C080917F038093B8
:1042F000A6039091000480910304882319F068E1DB
:1043000070E002C06CE070E0892F90E00E9481387C
:104310008093460480910B048093490480917F032D
:104320008330A1F490910F0480910304882319F045
:1043300068E170E002C06CE070E0892F90E00E94BC
:10434000813880934704809105041BC080917F03CE
:10435000813031F484E1809347048091040411C0DA
:1043600080910E04882339F48091140480934704CB
:1043700080910A0406C080910A04809347048091CA
:104380001404809348041092A503822F0E943A21BE
:1043900008950F931F93082F14E1812F67E00E9467
:1043A000102E86E0602F0E94A529185E1437A9F709
:1043B0001F910F910895DF92EF92FF920F931F9339
:1043C000E82E90916A028091A303981718F4892F20
:1043D000805A02C0892F815068E041E020E30E2D11
:1043E0000E94252A60E083E0D82E15C080916A02E1
:1043F000800F612F0E94102E8091A4038D9DC0011B
:1044000011248F0D6E2D0E94A529005F003671F7D3
:10441000163039F0612FF62EF69400E0162F1F5F4C
:10442000E5CF1F910F91FF90EF90DF9008951F93BC
:10443000182F0E94DB2180911004882321F48091A1
:10444000A703882339F0812F0E94C921809110048D
:104450008093A703812F0E945A211F9108950F93E3
:104460001F93182F80E060E040E820E4012F0E94B5
:10447000252A83E68093A603812F0E945A21812F4B
:104480000E943A21812F0E94DB21812F0E94C921A5
:104490001F910F91089581E080936A021092A30307
:1044A00080E00E942F2208950895DF92EF92FF92FC
:1044B0000F931F93CF93DF93D82EF62EE22EF69410
:1044C000F694F694EA0100E015C0FE011491802FE5
:1044D0006CE10E946138292F2D0D802F0E946138D8
:1044E000682F6F0D822F0E94102E812F0E94B72DF2
:1044F0000F5F21960E1548F3DF91CF911F910F9119
:10450000FF90EF90DF900895CF92DF92EF92FF92AD
:104510000F931F93CF93DF93C82EF62ED22EE02E4B
:10452000F694F694F694EA0110E019C00881812F00
:104530006CE10E946138992341F4812F0E94613817
:10454000682F6F0D8C2D0E94102EEE2019F0802FF9
:10455000809501C0802F0E94B72D1F5F21961D15E9
:1045600028F3DF91CF911F910F91FF90EF90DF9093
:10457000CF9008957F928F929F92AF92BF92CF92E9
:10458000DF92EF92FF920F931F93DF93CF93CDB7FC
:10459000DEB7C05ED0400FB6F894DEBF0FBECDBF11
:1045A000A82E962EB22E802EFE01319680EEDF01CF
:1045B0001D928A95E9F7DA0150E09CE1792E81E0BD
:1045C000C82ED12C7F011CC0F90184912F5F3F4F71
:1045D000F901749121503040482F09C0F801E40FCF
:1045E000F11DEE0DFF1D8081862B80834F5F4717E5
:1045F000A8F39F5F2E5F3F4F923031F75F5F1496B5
:104600005B1588F4852F869586958695879D800114
:104610001124852F87706C2D01C0660F8A95EAF7EB
:104620009D0190E0D1CF8A2D692DAE014F5F5F4F84
:1046300020EE082D0E948422C052DF4F0FB6F8945E
:10464000DEBF0FBECDBFCF91DF911F910F91FF90C5
:10465000EF90DF90CF90BF90AF909F908F907F9022
:1046600008950F93942F022F592F40E04D5F5D4F17
:1046700020E40E94BA220F9108952F923F924F9208
:104680005F926F927F928F929F92AF92BF92CF92E2
:10469000DF92EF92FF920F931F93DF93CF93CDB7EB
:1046A000DEB7C35FD0400FB6F894DEBF0FBECDBFFC
:1046B000C251DF4F8883CE5ED040C151DF4F688347
:1046C000CF5ED040C051DF4F4883C05FD040CF5055
:1046D000DF4F0883C15FD040FE01399680EEDF01D5
:1046E0001D928A95E9F78091AB03282E3324D22EB0
:1046F000CC2443E052E0C40ED51EC051DF4F888168
:10470000C05FD040F82EEE24E40EF51E88249924D4
:10471000B5E06B2E712C6C0E7D1ECE50DF4FF983F1
:10472000E883C25FD040582DC051DF4F8881C05F01
:10473000D0408F3F29F41C821B821A82198209C043
:10474000DE011196F70184918D933196A615B70578
:10475000D1F79981C451DF4F9883CC5ED04030E0CF
:104760009F3F09F031E08B818F3F09F03F5FD3011C
:10477000F60184918D933196CE50DF4F88819981D7
:10478000C25FD040A817B907A1F79D81C551DF4F7F
:104790009883CB5ED04090E0C551DF4FA881CB5EBF
:1047A000D040AF3F09F091E08F818F3F09F09F5FCC
:1047B000292F931708F4232FBA81C351DF4FB883F1
:1047C000CD5ED040569556955695ECE15E9F200102
:1047D0001124C4018770907041E050E002C0440F82
:1047E000551F8A95E2F7C751DF4F4883C95ED04015
:1047F0005E81C651DF4F5883CA5ED04083015E019F
:104800000894A11CB11C622F70E0660F771F660D23
:10481000771D69C0D5012C912F3F19F01196BC91DD
:104820000AC0C451DF4F2881CC5ED040C351DF4F56
:10483000B881CD5ED040F80180818F3FB1F1A18178
:1048400090E030E0821B930B829DA001839D500D70
:10485000929D500D1124405F5F4FF5E056954795AE
:10486000FA95E1F7420F531F50708A2F90E02B2FDB
:1048700030E0821B930B829DD001839DB00D929DF1
:10488000B00D11245096E5E0B695A795EA95E1F7AD
:10489000A20FB31FB070F201E40FF51F89E090E0A2
:1048A0008C0F9D1FE80FF91F15C0C551DF4F888180
:1048B000CB5ED040C651DF4FA881CA5ED040C0CF8A
:1048C0008081C751DF4F9881C95ED040892B819389
:1048D0004F5F5F4F4A175B0798F30E5F1F4FA2E0D1
:1048E000B0E0AA0EBB1E0617170709F093CF089475
:1048F000811C911CE4E0F0E0CE0EDF1EEE0EFF1EE8
:10490000F0E48F16910409F00ECFC251DF4F888179
:10491000CE5ED040C151DF4F6881CF5ED040AE0146
:10492000475F5F4F20EECF50DF4F0881C15FD0401F
:104930000E948422CD50DF4F0FB6F894DEBF0FBE29
:10494000CDBFCF91DF911F910F91FF90EF90DF903E
:10495000CF90BF90AF909F908F907F906F905F901F
:104960004F903F902F900895EF92FF920F931F93D7
:10497000E82E162FFF24442311F4FF24F394135040
:104980008E2D8150612F42E026E00F2D0E94252AB6
:104990001F5F8E2D8250612F44E024E00E94252A63
:1049A0001F5F8E2D8350612F46E022E00E94252A52
:1049B0001F910F91FF90EF9008951F93182F80E49F
:1049C00064E1412F0E94B42480E46AE3412F0E94F5
:1049D000B4241F9108950F931F93CF93DF93182F43
:1049E00080917F03882329F080917F03833009F031
:1049F000DCC090917F038091B503891709F457C0FB
:104A00008091A803882309F052C08091B00380935D
:104A1000AC038091B1038093AD038091B203809386
:104A2000AE038091B3038093AF0380917F0388230B
:104A300029F42091000430910B0404C020910F044C
:104A40003091050480910304882349F4822F90E07B
:104A500047966CE070E00E948138282F2F5F832FEB
:104A60006AE00E9461389093B303832F0E946138FB
:104A70008093B203822F0E9461388093B003822F0B
:104A80000E9461389093B103812F0E94DD248CE352
:104A900063E247E025E0012F0E94252A80917F03F1
:104AA0008093B5038091A8038F5F8093A8038091C2
:104AB0007F03882309F053C080917B03882329F466
:104AC00080917C03882309F44AC08091A80388233D
:104AD00009F045C081E08093A8038091B3038093DF
:104AE000AF0380910B046AE00E9461389093B30396
:104AF0008091B2038093AE0380910B040E946138D1
:104B00008093B20380917C03882319F120910004E3
:104B100080910304882351F48091000490E047962B
:104B20006CE070E00E948138282F2F5F8091B003E5
:104B30008093AC038091B1038093AD03822F6AE030
:104B40000E9461388093B003822F0E946138909355
:104B5000B10310927C0380917C0380937B0380914E
:104B6000B403811709F474C08091A803882309F065
:104B70006FC060E040E820E4012F0E94252A812FC9
:104B80000E94DD24C0E0D0E0FE01E359FD4FDE01CC
:104B9000A055BC4F808160E04C91212F0E943123B1
:104BA0002196C430D10581F753C000917F030130B5
:104BB00009F051C090917F038091B503891709F4E2
:104BC00047C086E990E061E00E94E9278091A80350
:104BD0008823F1F50093A80380917F038093B503A8
:104BE0008091B0038093AC038091B1038093AD03B7
:104BF0008091B2038093AE038091B3038093AF039F
:104C000080910E04882329F42091140430910A0421
:104C100004C020910A0430911404822F6AE00E949B
:104C200061388093B003822F0E9461389093B10362
:104C3000832F0E9461388093B203832F0E946138D2
:104C40009093B30380E0112309F481E00E94DD24F6
:104C5000C0E0D0E04EC000917F030230C9F79091D0
:104C60007F038091B503891799F380E990E061E0B3
:104C70000E94E9278091A803882351F781E080935F
:104C8000A8038BE890E061E00E94E92780917F0310
:104C90008093B5038091B0038093AC038091B103FE
:104CA0008093AD038091B2038093AE038091B303F0
:104CB0008093AF030093B0031092B103809104047A
:104CC0006AE00E9461388093B203809104040E94DC
:104CD00061389093B30380E0112309F481E00E94CE
:104CE000DD248CE363E247E025E0012F0E94252AC2
:104CF000AFCFFE01E455FC4F4081FE01E055FC4F73
:104D00002081421741F0FE01E359FD4F808160E0B0
:104D1000012F0E943D232196C430D10551F7909177
:104D2000A803992389F18091AB038F5F8093AB0334
:104D3000813250F11092AB038091B0038093AC03A9
:104D40008091B1038093AD038091B2038093AE0351
:104D50008091B3038093AF0391509093A803809107
:104D60007F03813059F400E0112309F401E08CE362
:104D700063E247E025E00E94252A06C080917F0378
:104D8000823011F080917F031093B403DF91CF91B3
:104D90001F910F9108950F931F93CF93DF93182FB7
:104DA00080E060E040E820E4012F0E94252A109274
:104DB000AB032091000430910B04809103048823FD
:104DC00049F4822F90E047966CE070E00E948138B1
:104DD000282F2F5F8FEF8093AF038093AE038093D4
:104DE000AD038093AC03832F6AE00E9461389093F7
:104DF000B303832F0E9461388093B203822F0E94F5
:104E000061389093B103822F0E9461388093B00380
:104E100017C0C0E0D0E0FE01E359FD4FDE01A4550C
:104E2000BC4F9E0120553C4F808160E04C91F901C0
:104E30002081012F0E943D232196C430D10559F7CE
:104E40008091AB038F5F8093AB038150813208F375
:104E50008CE990E060E00E94E9278091B0038093A4
:104E6000AC038091B1038093AD038091B203809332
:104E7000AE038091B3038093AF03812F0E94DD24A2
:104E80001092AB03DF91CF911F910F91089580E0B5
:104E90000E94CB260895BF92CF92DF92EF92FF92AD
:104EA0000F931F93CF93DF93FF24C8ECD0E00E94B1
:104EB0001A2EDD24BB24CC24CC2009F041C08F2D38
:104EC00090E0F394895A9F4F0E946C39E82E8FEF3F
:104ED000E816A1F4DD2019F0CC24C39431C086ED8E
:104EE000809308040E94D113DF91CF911F910F91FD
:104EF000FF90EF90DF90CF90BF900895DD2011F4E8
:104F0000BF2CBE0C2E2D30E0C901880F991F820FD7
:104F1000931F909581959F4F815C6D2D0E94102E5F
:104F200087010BC0812F90E01F5F895A9F4F0E941D
:104F30006C3960E00E94DA290150002399F7FE0CD9
:104F4000D39488E0D81609F0B7CF88E893E1FE0142
:104F50003197F1F70197FB2CD1F7A9CF9093C500BA
:104F60008093C40088E18093C1008EE08093C200EA
:104F7000519A5098089506C090E000009F5F9E31BE
:104F8000E1F781508823C1F7089548EC50E009C04B
:104F900020E137E2FA013197F1F721503040D1F7A3
:104FA00081508823A9F70895982F8091C00085FF2C
:104FB000FCCF9093C60080E090E008958091C000FF
:104FC00087FFFCCF8091C60008958091C000807853
:104FD0000895AC0120E007C08091C00085FFFCCFA0
:104FE0003093C6002F5FFA01E20FF11D3491332395
:104FF00099F7662371F08091C00085FFFCCF8AE0AD
:105000008093C6008091C00085FFFCCF8DE0809327
:10501000C6000895FC0107C08091C00085FFFCCF49
:1050200031969093C60090819923B1F70895282F67
:10503000982F92959F709A3030F48091C00085FF30
:10504000FCCF905D05C08091C00085FFFCCF995AD0
:105050009093C600822F90E08F7090700A973CF476
:105060008091C00085FFFCCF2F70205D06C080912D
:10507000C00085FFFCCF2F70295A2093C6000895E9
:105080001F93182F892F0E941728812F0E941728FD
:105090001F910895EF92FF920F931F937B018C0154
:1050A000C801AA27BB270E944028C7010E944028A8
:1050B0001F910F91FF90EF9008950F931F93CF933F
:1050C000DF938C01E0E1F7E240E0C0E0D0E0C8010E
:1050D000BF010E946D38262F662329F4442319F45A
:1050E000E130F10549F48091C00085FFFCCF205DDF
:1050F0002093C600205341E0CF016AE070E00E9497
:105100006D382196C530D10571F0822F90E09C0159
:105110002E9FC0012F9F900D3E9F900D1124081BC4
:10512000190BFB01D4CFDF91CF911F910F910895FF
:105130001F93CF93DF93482F87FF08C08091C00053
:1051400085FFFCCF8DE28093C6004195E4E6F0E058
:1051500010E0C0E0D0E0842F992787FD9095BF0133
:105160000E946D38262F16162CF0112319F4E13009
:10517000F10549F48091C00085FFFCCF205D2093AC
:10518000C600205311E0CF016AE070E00E946D3844
:105190002196C330D10531F02E9F802D1124481B5C
:1051A000FB01D9CFDF91CF911F9108954F925F926C
:1051B0006F927F928F929F92AF92BF92CF92DF9227
:1051C000EF92FF920F931F93CF93DF934B015C01FC
:1051D000E12C9AECF92E9AE9092F9BE3192F44242C
:1051E000C0E0D0E0C501B401A80197010E94943845
:1051F000D22E222341F4442031F481E0E816F10458
:105200000105110561F48091C00085FFFCCF80E3AA
:10521000D80ED092C60080EDD80E44244394C80125
:10522000B7012AE030E040E050E00E949438C22EFE
:10523000732E642E552E2196CA30D105A9F06D2DFE
:1052400070E080E090E0A80197010E944238861A41
:10525000970AA80AB90A2C2D372D462D552DC901BC
:10526000DA017C018D01BECFDF91CF911F910F91AB
:10527000FF90EF90DF90CF90BF90AF909F908F9076
:105280007F906F905F904F900895CF93DF93C82FDA
:10529000D0E0E42FF0E0E053F84F833010F42C9688
:1052A0003197262F30E02F5F3F4F2E0F3F1FCE014B
:1052B000880F991F280F391FCF01969587959695CE
:1052C0008795280F391FCF0160E971E00E946D3882
:1052D000260F371FCF0164E670E00E946D38261B51
:1052E000370BAE014F5F5F4FCA01880F991F840FC4
:1052F000951F880F991F6AE070E00E946D38C90100
:10530000860F971F67E070E00E946D38DF91CF91A4
:10531000089593E0899FC0011124860F911D8C5937
:105320009E4F0E946C39089593E0899FC00111241B
:10533000860F911D825B9E4F0E946C3908950895DF
:1053400084579E4F0E946C390895EF92FF920F93FD
:105350001F93CF93DF93F82EE62E00E010E008C0F5
:10536000CE0184599C4F0E946C398F5F180F0F5FDC
:10537000C12FD0E00F15A0F3CE0184599C4F0E949D
:105380006C39082FC359DC4F10E00BC0CE010E94CE
:105390006C3991E0E91609F480950E94B72D1F5FE2
:1053A0002196101798F3DF91CF911F910F91FF90E5
:1053B000EF900895DF92EF92FF920F931F93CF9398
:1053C000DF93D62E95E0899FC0011124EC01C451D2
:1053D000DF4F8E0121EFE22E20E0F22EE80EF91EC3
:1053E000DD2029F0CE010E946C39809503C0C801F0
:1053F0000E946C390E94B72D21960F5F1F4FCE156A
:10540000DF0571F7DD2011F08FEF01C080E00E9411
:10541000B72D80E00E94032EDF91CF911F910F9155
:10542000FF90EF90DF9008951F93CF93DF93EC01EF
:10543000162F04C0612F0E94DA29219688818823C3
:10544000C9F7DF91CF911F9108952F923F924F920C
:105450005F926F927F928F929F92AF92BF92CF9204
:10546000DF92EF92FF920F931F93CF93DF93282E3B
:10547000162F342EF22E402EC62FD0E0C770D070DB
:10548000209709F45BC0562E569456945694EE24F9
:1054900067E0C62EC1228C2C992487FC90945E0173
:1054A000A20EB11C51E0652E712C35C0DE2CD20C41
:1054B0008D2D652D0E94102E0E946A2D0E946A2D4E
:1054C000082F40E050E015C081E0481641F4C301C8
:1054D00002C0880F991F2A95E2F7082B08C0C30164
:1054E00002C0880F991F2A95E2F7809508234F5F25
:1054F0005F4F9A01280D391D2A153B0524F48C2D88
:10550000840F883009F78D2D652D0E94102E802F75
:105510000E94B72DE394E31448F22F2D30E088E089
:1055200090E08C1B9D0B8217930714F0FF2404C09E
:10553000812F87708850F80E187F185FE12EE6944F
:10554000E694E694C12FD0E0CF0DD11D43E0D59570
:10555000C7954A95E1F712C0822D6E2D0E94102E3C
:1055600010E009C081E0481611F48FEF01C080E01F
:105570000E94B72D1F5F1315A8F3E3948E2D90E0C2
:105580008C179D074CF32F2D2770C9F100E0C22F17
:10559000D0E031E0A32EB12C30C0F02EF20C8F2DD4
:1055A0006E2D0E94102E0E946A2D0E946A2D182FC7
:1055B00020E030E017C081E0481649F4C501022E12
:1055C00002C0880F991F0A94E2F7182B09C0C50181
:1055D000022E02C0880F991F0A94E2F780951823C3
:1055E0002F5F3F4F2C173D0734F38F2D6E2D0E94F8
:1055F000102E812F0E94B72D0F5F031570F280E0EF
:105600000E94032EDF91CF911F910F91FF90EF9099
:10561000DF90CF90BF90AF909F908F907F906F90D2
:105620005F904F903F902F9008952F923F924F920E
:105630005F926F927F928F929F92AF92BF92CF9222
:10564000DF92EF92FF920F931F93DF93CF9300D0DF
:105650000F92CDB7DEB7382E462E522E262E281AA0
:10566000A42EBB24C501880F991F22273327281B8E
:10567000390B2D5F3F4F3B832A838824992466246E
:105680007724362F32193983182DD42CDA18750166
:10569000EE0CFF1C882D830D6D2D41E02E2D052D68
:1056A0000E94252A832D88196D2D41E02E2D0E9400
:1056B000252AF42CF818110F89818A0D6F2D41E0ED
:1056C000212F0E94252A8D2D82196F2D41E0212F37
:1056D0000E94252A8A819B8197FF06C00696860D27
:1056E000971D9B838A8311C0EA81FB813A96C4018E
:1056F0008A199B09880F991F880F991FE80FF91FB6
:10570000FB83EA830894A108B1080894811C911CCA
:1057100024E030E0620E731EA814B9040CF0B4CF7C
:105720000F900F900F90CF91DF911F910F91FF90ED
:10573000EF90DF90CF90BF90AF909F908F907F9031
:105740006F905F904F903F902F900895DF92EF926F
:10575000FF920F931F93F82E162FD42EE22E41E0C6
:1057600001E00E94252A8F2D81508D0D612F41E08F
:105770002E2D0E94252A8F2D612F4D2D21E00E9474
:10578000252A11501E0D8F2D612F4D2D21E00E94D5
:10579000252A1F910F91FF90EF90DF900895EF92CF
:1057A000FF920F931F93F82E162F062F069506953E
:1057B0000695602F0E94102E0E946A2D0E946A2D6D
:1057C000E82E8F2D602F0E94102E177081E090E040
:1057D00002C0880F991F1A95E2F780958E210E94CA
:1057E000B72D80E00E94032E1F910F91FF90EF9044
:1057F0000895EF92FF920F931F93F82E162F062F06
:10580000069506950695602F0E94102E0E946A2D1F
:105810000E946A2DE82E8F2D602F0E94102E177087
:1058200081E090E002C0880F991F1A95E2F78E2957
:105830000E94B72D80E00E94032E1F910F91FF90D0
:10584000EF9008953F924F925F926F927F928F9266
:105850009F92AF92BF92CF92DF92EF92FF920F93FF
:105860001F93CF93DF93D82EC62E322E462E481A82
:10587000E42EFF24C701880F991FCC27DD27C81B02
:10588000D90B23965D2C662E762EAA24BB24882461
:10589000992481E0381641F50E2D0C0D8D2D602FC9
:1058A0000E94F92B9C2D9E19192F8D2D692F0E9476
:1058B000F92B852D602F0E94F92B852D612F0E94D9
:1058C000F92B0419802F662D0E94F92B802F672D4C
:1058D0000E94F92B1419812F662D0E94F92B812F1C
:1058E000672D0E94F92B27C00E2D0C0D8D2D602FDA
:1058F0000E94CF2B8C2D8E19182F8D2D612F0E9479
:10590000CF2B852D602F0E94CF2B852D612F0E94DC
:10591000CF2B0419802F662D0E94CF2B802F672D4F
:105920000E94CF2B1419812F662D0E94CF2B812F1F
:10593000672D0E94CF2BD7FF04C02696C80DD91D16
:105940000DC02A96C5018E199F09880F991F880FCF
:10595000991FC80FD91F0894E108F1080894A11CE9
:10596000B11C84E090E0880E991ED3945A946394FD
:105970007A94EA14FB040CF08CCFDF91CF911F9145
:105980000F91FF90EF90DF90CF90BF90AF909F90DE
:105990008F907F906F905F904F903F9008952F98D9
:1059A0002D982C9840985A98279A259A249A389A94
:1059B000529A8BB18F708BB985B1807F85B98AB1CE
:1059C000806F8AB984B18F6084B9089540985A98DD
:1059D000882319F0813021F402C0409A08955A9A20
:1059E0000895F8940E94E62C8BB1806F8BB985B135
:1059F0008F6085B92F988AB18F708AB984B1807F02
:105A000084B92D9A2C9A000000000AC02C9800003E
:105A10000000000000002C9A0000000000000000C0
:105A200089B193B187FDF2CF2C982D988AB1806F00
:105A30008AB984B18F6084B9789408951F93162F22
:105A4000F8940E94F12C2F982D982C9A8AB1806F8F
:105A50008AB984B18F6084B98BB18F708BB99BB1D7
:105A6000812F807F892B8BB985B1807F85B985B1E6
:105A70001F70812B85B900000000000000000000AD
:105A80000000000000002C9878941F910895F8946D
:105A90000E94F12C2F988AB18F708AB984B1807FCF
:105AA00084B92D9A2C9A000000000000000000002C
:105AB00000000000000029B183B12C982D989AB104
:105AC000906F9AB994B19F6094B978948F70207F49
:105AD000822B0895F89480914A0482958695869544
