:100000000C9402060C941F060C941F060C944213C9
:100010000C941F060C941F060C941F060C941F06CC
:100020000C941F060C9418090C941F060C9494064B
:100030000C941F060C9421060C9433060C941F0696
:100040000C941F060C941F060C941F060C941F069C
:100050000C941F060C949A120C941F060C941F0605
:100060000C946A2F0C941F0605A84CCDB2D44EB93F
:100070003836A9020C50B9918688083CA6AAAA2A4B
:10008000BE000000803F000302030364726177003A
:10009000796561722100646174652100646F6E6529
:1000A00020696E6974004932433A204255535F45D6
:1000B00052524F520D0A004932433A204E4F5F4987
:1000C0004E464F0D0A004932433A2053542D3E44C8
:1000D0004154415F4E41434B206F72204C41535479
:1000E0005F444154410D0A004932433A2053542D94
:1000F0003E444154415F41434B0D0A004932433A6B
:100100002053542D3E534C415F41434B0D0A00494F
:1001100032433A2053522D3E53525F53544F500DA9
:100120000A004932433A2053522D3E444154415F24
:100130004E41434B0D0A004932433A2053522D3E63
:10014000444154415F41434B0D0A004932433A2038
:1001500053522D3E534C415F41434B0D0A004932EF
:10016000433A204D522D3E534C415F41434B0D0AC3
:10017000004932433A204D522D3E444154415F41A3
:10018000434B0D0A004932433A204D542D3E415213
:10019000425F4C4F53540D0A004932433A204D54AC
:1001A000522D3E534C415F4E41434B206F72204DC8
:1001B000542D3E444154415F4E41434B0D0A00498A
:1001C00032433A204D522D3E444154415F4E41430B
:1001D0004B0D0A004932433A204D542D3E534C41B9
:1001E0005F41434B206F7220444154415F41434B78
:1001F0000D0A004932433A204D2D3E53544152548A
:100200000D0A000C0FFFFF0A11FFFF0912FFFF0884
:100210000B1013070B1014060A1115060A11150509
:100220000A1116050A1116040A11170409121703F8
:1002300009121803091218030912180209121802E8
:1002400009121902091219020912190209121901D7
:1002500009121A0109121A0109121A0109121A01C6
:1002600009121A0109121A0109121A0109121A01B6
:1002700009121A0109121A0009121B0009121B00A7
:1002800009121B0009121B0009121B0009121B0096
:1002900009121B0109121A0109121A0109121A0185
:1002A00009121A0109121A0109121A0109121A0176
:1002B00009121A0109121A02091219020912190265
:1002C0000912190209121902091218030912180356
:1002D0000912180309121804091217040A11170544
:1002E0000A1116050A1116060A1115060A11150734
:1002F0000B1014080B10130912FFFF0A11FFFF0C5B
:100300000FFFFF1111FFFF0F11FFFF0E11FFFF0C79
:1003100011FFFF0B11FFFF0911FFFF0811FFFF067F
:1003200011FFFF0511FFFF0311FFFF020508110276
:100330000309110911FFFF0911FFFF0911FFFF0A4E
:1003400011FFFF0A11FFFF0A11FFFF0A11FFFF0A49
:1003500011FFFF0A11FFFF0A11FFFF0A11FFFF0A39
:1003600011FFFF0A11FFFF0A11FFFF0A11FFFF0A29
:1003700011FFFF0A11FFFF0A11FFFF0A11FFFF0A19
:1003800011FFFF0A11FFFF0A11FFFF0A11FFFF0A09
:1003900011FFFF0A11FFFF0A11FFFF0A11FFFF0AF9
:1003A00011FFFF0A11FFFF0A11FFFF0A11FFFF0AE9
:1003B00011FFFF0A11FFFF0A11FFFF0A11FFFF0AD9
:1003C00011FFFF0A11FFFF0A11FFFF0A11FFFF0AC9
:1003D00011FFFF0A11FFFF0A11FFFF0A11FFFF09BA
:1003E00012FFFF0912FFFF0912FFFF0912FFFF08AA
:1003F00012FFFF0713FFFF0416FFFF0218FFFF02A3
:1004000018FFFF0C10FFFF0A12FFFF0913FFFF0880
:1004100014FFFF0715FFFF0616FFFF0616FFFF0577
:1004200017FFFF0517FFFF0417FFFF0418FFFF0367
:10043000060D1803050E1803040F1802040F180206
:1004400003101802031018010211180102111811EB
:1004500018FFFF1118FFFF1118FFFF1118FFFF1100
:1004600018FFFF1118FFFF1117FFFF1117FFFF11F2
:1004700017FFFF1116FFFF1016FFFF1015FFFF10EB
:1004800015FFFF0F14FFFF0F14FFFF0F13FFFF0EE9
:1004900013FFFF0E12FFFF0E11FFFF0D11FFFF0DE7
:1004A00010FFFF0C0FFFFF0C0FFFFF0B0EFFFF0BEA
:1004B0000DFFFF0A0D1B1B0A0C1B1B090B1A1B0946
:1004C0000B1A1B080A191B0709191A0708181A061C
:1004D00008141A061AFFFF051AFFFF051AFFFF048A
:1004E00019FFFF0319FFFF0319FFFF0219FFFF02A6
:1004F00019FFFF0119FFFF0019FFFF0018FFFF00A0
:1005000018FFFF0C11FFFF0A14FFFF0915FFFF087A
:1005100016FFFF0716FFFF0617FFFF0517FFFF0473
:10052000080B1804060D1803050E1803040F180213
:1005300004101802031018020310180202101810F9
:1005400018FFFF1018FFFF1018FFFF1017FFFF1014
:1005500017FFFF1016FFFF1016FFFF0F15FFFF0F0D
:1005600014FFFF0E14FFFF0D15FFFF0C16FFFF0B0E
:1005700017FFFF0918FFFF0918FFFF0919FFFF0BFD
:1005800019FFFF0C19FFFF0E1AFFFF0F1AFFFF10D4
:100590001AFFFF111AFFFF121AFFFF121AFFFF13B3
:1005A0001AFFFF131AFFFF141AFFFF141AFFFF149C
:1005B0001AFFFF141AFFFF141AFFFF151AFFFF1589
:1005C0001AFFFF1519FFFF1519FFFF1519FFFF028D
:1005D000061518010714180108141800091417004B
:1005E000091416000A1316010B1215010C1114013F
:1005F00013FFFF0212FFFF0311FFFF040FFFFF06AF
:100600000CFFFF1317FFFF1217FFFF1217FFFF1159
:1006100017FFFF1117FFFF1017FFFF1017FFFF0F46
:1006200017FFFF0F17FFFF0E17FFFF0E17FFFF0D3E
:1006300017FFFF0D17FFFF0C17FFFF0C17FFFF0B36
:100640000D0F170B0D0F170A0C0F170A0C0F1709B8
:100650000B0F17090B0F17080A0F17080A0F1707B8
:10066000090F1707090F1706080F1706080F1705B8
:10067000070F1705070F1704060F1704060F1703B8
:10068000050F1703050F1702040F1702040F1701B8
:10069000030F1701030F1700020F1700020F1700B7
:1006A000020F17001BFFFF001BFFFF001BFFFF00D7
:1006B0001BFFFF001BFFFF001BFFFF001BFFFF00D6
:1006C0001BFFFF001BFFFF001BFFFF001BFFFF0FB7
:1006D00017FFFF0F17FFFF0F17FFFF0F17FFFF0F8A
:1006E00017FFFF0F17FFFF0F17FFFF0F17FFFF0F7A
:1006F00017FFFF0F17FFFF0F17FFFF0F17FFFF0F6A
:1007000017FFFF081BFFFF081AFFFF081AFFFF086B
:100710001AFFFF071AFFFF0719FFFF0719FFFF075F
:1007200019FFFF0719FFFF0618FFFF0618FFFF0656
:1007300018FFFF0607FFFF0607FFFF0607FFFF057D
:1007400007FFFF0506FFFF0506FFFF0506FFFF0584
:1007500006FFFF040CFFFF040FFFFF0411FFFF045F
:1007600012FFFF0414FFFF0414FFFF0315FFFF0334
:1007700016FFFF0316FFFF0317FFFF0317FFFF021C
:1007800018FFFF0218FFFF0A18FFFF0C19FFFF0EEA
:1007900019FFFF1019FFFF1119FFFF1219FFFF13B7
:1007A00019FFFF1319FFFF1419FFFF1419FFFF159D
:1007B00019FFFF1519FFFF1519FFFF1619FFFF1687
:1007C00019FFFF1619FFFF1618FFFF030516180281
:1007D0000615180108151701091517000914170047
:1007E0000A1416000B1315000D12150114FFFF015A
:1007F00013FFFF0212FFFF0311FFFF040FFFFF06AD
:100800000CFFFF181AFFFF151AFFFF131AFFFF1145
:1008100017FFFF1016FFFF0E14FFFF0D13FFFF0C55
:1008200012FFFF0B11FFFF0A10FFFF0910FFFF0867
:100830000FFFFF080EFFFF070EFFFF060DFFFF066D
:100840000DFFFF050DFFFF050CFFFF040CFFFF046C
:100850000CFFFF040BFFFF030BFFFF030BFFFF0366
:100860000BFFFF020A0D110214FFFF0215FFFF022A
:1008700016FFFF010B0E17010A1018010A101801CC
:1008800009111901091119010911190109121A0196
:1008900009121A0109121A0109121A0109121A0180
:1008A00009121B0109121B0109121B0109121B016C
:1008B00009121B0109121B0109121B0109121A015D
:1008C00009121A0209121A0209121A0209121A024C
:1008D000091219030A1219030A1219030A12180439
:1008E0000A1218040A1218050A1217050B12170625
:1008F0000B1116070C11150814FFFF0A13FFFF0C4C
:1009000010FFFF031BFFFF031BFFFF021AFFFF0285
:100910001AFFFF021AFFFF021AFFFF0219FFFF0270
:1009200019FFFF0219FFFF0219FFFF0118FFFF0166
:1009300018FFFF0118FFFF01041418010314180128
:1009400002131700021317000113170001131700F9
:10095000011216000112161216FFFF1216FFFF11E8
:1009600016FFFF1115FFFF1115FFFF1115FFFF11F6
:1009700015FFFF1014FFFF1014FFFF1014FFFF10EE
:1009800014FFFF0F14FFFF0F13FFFF0F13FFFF0FE5
:1009900013FFFF0E13FFFF0E12FFFF0E12FFFF0EDD
:1009A00012FFFF0D12FFFF0D12FFFF0D11FFFF0DD4
:1009B00011FFFF0C11FFFF0C11FFFF0C10FFFF0CCC
:1009C00010FFFF0C10FFFF0B10FFFF0B10FFFF0BC2
:1009D0000FFFFF0B0FFFFF0A0FFFFF0A0FFFFF0ABA
:1009E0000EFFFF0A0EFFFF090EFFFF090EFFFF09B2
:1009F0000EFFFF090DFFFF080DFFFF080DFFFF08A9
:100A00000DFFFF0B11FFFF0814FFFF0715FFFF0687
:100A10000B1016050A1117040912180409121803FD
:100A200008131803081319020813190208131902EE
:100A300008131902081319010813190109131901E0
:100A4000091319010A1319010A1319010B131902C9
:100A50000B1318020C1218020D1217020E121603B5
:100A60000F11150314FFFF0312FFFF0412FFFF0510
:100A700013FFFF0514FFFF0615FFFF0716FFFF0812
:100A800016FFFF0917FFFF0917FFFF0718FFFF06F3
:100A90000A0C1805090D1904090E1903080E19038B
:100AA000080F1A0208101A0208111A0107111A0178
:100AB00007121A0107121A0107121A0107131A0165
:100AC00007131A0107131A0107131A0107131A0152
:100AD00007131A0107131901071319010813190243
:100AE0000813180208121803081217030911170433
:100AF0000A1116050B10150614FFFF0812FFFF0A56
:100B00000FFFFF0B10FFFF0812FFFF0713FFFF0689
:100B10000B0F14050A1015050A1116040911160405
:100B200009111703091117030911180209121802F4
:100B300009121902091219010912190109121901E0
:100B400009121A0109121A0109121A0109121A01CD
:100B500009121A0109121A0109121A0109121A01BD
:100B600009121A0109121A0109121A0109121A01AD
:100B700009121A010A121A020A121A020A121A0297
:100B80000A121A030A121A030B121A040C111A047D
:100B90001AFFFF051AFFFF0619FFFF070F11190AB9
:100BA0000C11191019FFFF1018FFFF1018FFFF108C
:100BB00018FFFF0F17FFFF0F17FFFF0F16FFFF0EA6
:100BC00016FFFF0E15FFFF0E15FFFF0D14FFFF0DA3
:100BD00013FFFF0C13FFFF0B12FFFF0B11FFFF0AA8
:100BE00010FFFF090FFFFF080EFFFF070DFFFF05B6
:100BF0000BFFFF040AFFFF0108FFFF0105FFFF01D4
:100C000002FFFF0011241FBECFEFD8E0DEBFCDBF33
:100C100013E0A0E0B1E0ECE1F5E702C005900D9231
:100C2000A038B107D9F714E0A0E8B3E001C01D92E5
:100C3000A735B107E1F70E94560A0C948C3A0C9440
:100C400000001F920F920FB60F9211248F939F9363
:100C500088B198E0892788B99F918F910F900FBE36
:100C60000F901F9018951F920F920FB60F9211249C
:100C70008F939F938091880390918903892B49F0EA
:100C800080918803909189030197909389038093C1
:100C900088038091180490911904892B49F0809160
:100CA00018049091190401979093190480931804E3
:100CB00080911604882389F180918603909187039F
:100CC000892B59F580910C0490910D04892BE1F446
:100CD0008CE291E090930D0480930C04809181004C
:100CE000882379F41092800089E08093810083E06A
:100CF00080936F0088EE93E0909389008093880042
:100D000003C010928100439880910C0490910D04CF
:100D1000019790930D0480930C049F918F910F90F5
:100D20000FBE0F901F9018951F920F920FB60F9243
:100D300011248F939F9388B198E0892788B99F9158
:100D40008F910F900FBE0F901F901895AF92BF928A
:100D5000CF92DF92EF92FF920F931F93E62E1092A5
:100D6000800029E02093810023E020936F009C0104
:100D700040E050E060E079E08DE390E00E948C3844
:100D80003093890020938800FF2400E010E0C80120
:100D9000B7010E94AA355B016C0120E030E04AEF08
:100DA00054E40E94C2327B018C0120E030E040E834
:100DB0005FE30E94C83488231CF461E070E024C023
:100DC000C801B70120E03FEF4FE757E40E946834C5
:100DD0001816B4F4C601B50120E030E040E251E459
:100DE0000E94C2320E94EC3088EC90E005C0FC0109
:100DF0003197F1F76150704061157105C1F707C077
:100E0000C801B7010E94EC30CB010197F1F71092B5
:100E1000810043981F910F91FF90EF90DF90CF904A
:100E2000BF90AF9008951E9B16C080911304882335
:100E300049F11092130410921D041092870310922E
:100E40008603809116048823E9F01092160410920C
:100E500081004398089580911304882399F481E0D8
:100E600080931304109287031092860383E080938B
:100E7000850380910E04853D11F083E001C085E07B
:100E8000809384030895FC0183709070892B39F45A
:100E9000CF0164E670E00E944338892B49F420E0DA
:100EA00030E0CF0160E971E00E944338892B11F4F2
:100EB00021E030E0822F08950895482F6AE00E94D3
:100EC0003738282F30E084E0220F331F8A95E1F76E
:100ED000842F0E943738892F822B089588E592E06D
:100EE0009093870380938603109281004398109219
:100EF00017040895CF92DF92EF92FF920F931F9302
:100F0000DF93CF93CDB7DEB728970FB6F894DEBF47
:100F10000FBECDBF162FF42ED22EFE01319698E0D3
:100F2000DF011D929A95E9F719820E945D078A8375
:100F3000812F0E945D078B838F2D0E945D078C831C
:100F40008D2D0E945D078D83802F0E945D078E830B
:100F50008E2D0E945D078F838C2D0E945D078887F0
:100F6000F89480ED68E0AE014F5F5F4F0E94D02E95
:100F700078948823D9F008EC10E080EA9FE064E6DA
:100F80000E94A60688EE93E0F8013197F1F70197E9
:100F9000D9F780EA9FE064E60E94A60680E197E226
:100FA000F8013197F1F70197D9F7E7CF28960FB6F7
:100FB000F894DEBF0FBECDBFCF91DF911F910F918F
:100FC000FF90EF90DF90CF9008950F931F93DF93E2
:100FD000CF93CDB7DEB729970FB6F894DEBF0FBE1B
:100FE000CDBF1982F89480ED61E0AE014F5F5F4F95
:100FF0000E94D02E8823D9F008EC10E080EA9FE010
:1010000064E60E94A60688EE93E0F8013197F1F7B6
:101010000197D9F780EA9FE064E60E94A60680E186
:1010200097E2F8013197F1F70197D9F7E7CF80ED13
:1010300067E0AE014E5F5F4F0E94172F78948823C0
:10104000D9F008EC10E080EA9FE064E60E94A60672
:1010500088EE93E0F8013197F1F70197D9F780EA2C
:101060009FE064E60E94A60680E197E2F8013197CE
:10107000F1F70197D9F7E7CF7A81872F82958F70A3
:1010800090E0877090709C01A3E0220F331FAA9517
:10109000E1F7880F991F280F391F872F8F70820F54
:1010A00080931C044B81842F82958F7090E0877011
:1010B00090709C01E3E0220F331FEA95E1F7880F5F
:1010C000991F280F391F4F70420F409311048C81D4
:1010D000482F42954F70682F6F7086FF22C082950F
:1010E0008695877090E0817090709C01220F331F6D
:1010F000280F391F220F331F220F331F842F90E038
:1011000081709070AC0103E0440F551F0A95E1F720
:10111000880F991F480F591F240F260F209306048C
:1011200011C0842F90E0837090709C01B3E0220F77
:10113000331FBA95E1F7880F991F280F391F620FE7
:10114000609306044E81842F82958F7090E08370A7
:1011500090709C01F3E0220F331FFA95E1F7880F9E
:10116000991F280F391F4F70420F409310044F8171
:10117000842F82958F7090E0817090709C0163E065
:10118000220F331F6A95E1F7880F991F280F391F27
:101190004F70420F40931B042885822F82958F70D9
:1011A0003AE0839FC00111242F70280F20930A0476
:1011B000872F807829960FB6F894DEBF0FBECDBF7B
:1011C000CF91DF911F910F910895CF92EF920F93DE
:1011D0000E942A2E0E94E507882359F080E060E0F3
:1011E0004CE020E001E0EE24E394B9E0CB2E0E9435
:1011F0007A070E94E50781E090E00E9442396CE3A3
:101200000E94373890930B0480E090E00E944239AE
:1012100068E10E9437389093150487E08093B1000D
:1012200081E08093700078940F91EF90CF900895B3
:101230001F920F920FB60F921124FF920F931F93DC
:101240002F933F934F935F936F937F938F939F93CE
:10125000AF93BF93EF93FF93A89580918A03803556
:1012600079F410928A0310911C0400911104F090FB
:1012700006040E94E507809106048F1529F40AC030
:101280008F5F80938A03BFC081E080938203F092D6
:10129000120407C080911104801731F081E080931F
:1012A00081030093080409C080911C04811729F070
:1012B00081E08093830310931E0480911C048117A6
:1012C00009F43FC080911604882359F08091860369
:1012D00090918703009729F001979093870380935B
:1012E000860380918403882361F180918403815077
:1012F0008093840380918403882319F5809185036A
:10130000809307041092850380918203882329F03B
:10131000809112048093060404C080918103882385
:1013200021F0809108048093110480918203882326
:1013300021F480918103882321F0F0920604009328
:10134000110480911704843061F080911704853076
:1013500041F080911704883021F080911704863085
:1013600069F480918D03882349F48091060460918B
:10137000110440911C0423E00E945C0D8091130431
:10138000882399F080911C04882379F490911104AA
:1013900080910B04981749F49091060480911504EC
:1013A000981719F481E080931D04809181038823AC
:1013B00069F480918203882349F480911D04882375
:1013C00029F081E08093160410921D0480918B0314
:1013D000863039F410928B0380919103882329F48D
:1013E00009C08F5F80938B030EC080919103815061
:1013F0008093910380918C03882329F080918C0342
:10140000815080938C03FF91EF91BF91AF919F9199
:101410008F917F916F915F914F913F912F911F918C
:101420000F91FF900F900FBE0F901F9018950F9384
:101430001F93182F062F6AE00E943738805D602FB7
:101440000E94AD29812F6AE00E943738892F805D84
:10145000602F0E94AD291F910F910895EF92FF9286
:101460000F931F93F82E162FE42E21E001E00E9427
:10147000F829FE0C0F2D02501150802F612F0E9471
:10148000CC2B1E5F802F612F0E94CC2B015013505C
:10149000802F612F0E94CC2B1C5F802F612F0E9418
:1014A000CC2B1F910F91FF90EF9008956F927F9238
:1014B0008F929F92AF92BF92CF92DF92EF92FF9264
:1014C0000F931F93CF93DF9384B714BE88E10FB6B9
:1014D000F89480936000109260000FBE8AE190E063
:1014E0000E94DB273B9A0E94E50883E090E00E947F
:1014F00042398093140484E090E00E944239809342
:1015000009040E946F120E94130782E084BD83E0E9
:1015100085BD8DE787BD80916E00826080936E00EF
:10152000539A80E28093B0008091B00083608093F2
:10153000B0008091B10088608093B10080E1809319
:10154000B30082E090E00E9442398093B400259A73
:1015500080EA9FE064E60E94A6062FE088E190E022
:101560000FB6F894A895809360000FBE209360009A
:101570000E94112E0E94ED2D86E090E00E944239DB
:1015800080930E0410921A040E949B1300E010E056
:101590007BE4E72EF12CC8E5D2E062E0762E55E040
:1015A000652E43E0942E8824839436E0B32E24E005
:1015B000A22E98E0C92E88ECD82EF0921904E09261
:1015C000180480918F03882379F080911604882372
:1015D00059F010928F03D0938703C0938603109223
:1015E0008100439810921704133081F48091840392
:1015F000882361F47092850380910E04853D11F07B
:1016000083E001C085E08093840310E080918F0324
:10161000867071F010928F038092850380910E0482
:10162000853D11F083E001C085E08093840313E0E1
:1016300080918F0380FF43C010928F031092850327
:1016400010928403809117048430C1F0853028F40F
:10165000882351F0833041F518C0883001F1883C6F
:1016600041F0853009F516C0D09217040E94D311BD
:101670001DC0A09217040E94D60E18C090921704A5
:101680000E94FA0D1092000111C0609217040E948E
:101690008E100CC0C09217040E947D0F07C0B0923C
:1016A00017040E94141002C01092170480911704AE
:1016B000882321F40E94ED2D0E949B1310E00E94CC
:1016C000671380911704882339F5002369F480910A
:1016D0001604882369F080911C0480FF09C081E012
:1016E0000E94811301E018C080911604882351F0F4
:1016F00080911604882359F0002349F080911C043E
:1017000080FD05C080E00E94811300E005C02D9A95
:10171000802F0E94C7132D9880911804909119046E
:10172000892BD1F74ACFEF92FF920F931F93982FF7
:101730008B017A0180E0692F0E94E32D81E091E026
:1017400060E00E94E729C80160E00E94E72988E084
:1017500091E060E00E94E729C70160E00E94E7296C
:101760001F910F91FF90EF9008951F93182F8BE218
:1017700060E00E94E32D80910E04853DC9F0863D16
:1017800038F4833D91F0843D50F4823DF9F40AC071
:10179000873DA1F0873D78F0883DC1F412C08DE00F
:1017A00091E011C087E191E00EC085E291E00BC0AD
:1017B00080E391E008C08BE391E005C082E491E012
:1017C00002C089E491E0612F0E94E7291F910895EA
:1017D0001F93182F88E064E00E94E32D8FE491E0CE
:1017E00060E00E94E72980911404882339F48091F5
:1017F0000904882319F488E591E020C0809114043D
:10180000882339F480910904813019F485E691E048
:1018100015C080911404813039F480910904882323
:1018200019F482E791E00AC080911404813049F4F0
:1018300080910904813029F48FE791E0612F0E94A3
:10184000E7291F9108958F929F92AF92BF92CF92F6
:10185000DF92EF92FF920F937C016B015A014901D5
:1018600080E060E340E820E100E00E94F82986E0A3
:10187000B701A6010E94930B87E0B501A4010E9465
:10188000930B0F91FF90EF90DF90CF90BF90AF90B0
:101890009F908F900895AC019B018CE891E0BA0174
:1018A0004EE851E00E94230C089582E991E069E935
:1018B00071E00E944B0C08958EE991E063EA71E0BB
:1018C0004EE851E029E931E00E94230C08958EE9A9
:1018D00091E068EA71E04EE851E020EB31E00E94CF
:1018E000230C08950F931F93CF93DF93182F062F88
:1018F00080910904882371F584E761E00E94E32D5B
:101900001C3010F080E501C081E460E00E94AD2948
:101910008DE460E00E94AD2980E561E00E94E32D46
:10192000812F90E047966CE070E00E945738EC0100
:101930008930910524F09C012F5F822F10C080E236
:1019400060E00E94AD299E012F5C822F602F0E94D3
:10195000AD2908C080E561E00E94E32D812F602F52
:101960000E94170ADF91CF911F910F9108950F9355
:101970001F93CF93DF93082F162F8091090488239C
:10198000D1F4802F90E047966CE070E00E945738C9
:10199000EC018930910524F09C012F5F822F14C047
:1019A00080E260E00E94AD299E012F5C822F612FB2
:1019B0000E94AD290CC080E260E00E94AD2980E267
:1019C00060E00E94AD29802F612F0E94170ADF91ED
:1019D000CF911F910F910895EF92FF920F931F9354
:1019E000F82E162FE42E022F88E063E00E94E32DEC
:1019F00084EB91E060E00E94E72980911404882341
:101A0000B1F48AEB91E060E00E94E72960E00B30DE
:101A100009F461E08F2D0E94170A8FE260E00E94B6
:101A2000AD2960E00C3009F461E0812F19C080918C
:101A300014048130D9F48AEB91E060E00E94E72938
:101A400060E00C3009F461E0812F0E94170A8FE2F8
:101A500060E00E94AD2960E00B3009F461E08F2D59
:101A60000E94170A8FE260E00E94AD2910E00D305D
:101A700009F411E084E1612F0E94170A8E2D612F75
:101A80000E94170A1F910F91FF90EF9008951F93E6
:101A9000182F88E065E00E94E32D80EC91E060E083
:101AA0000E94E7298091B40060E0193609F461E0F2
:101AB0000E94170A1F910895DF92EF92FF920F93F1
:101AC0001F93E82EF62ED42E122F88E062E00E949B
:101AD000E32D80ED91E060E00E94E72900E01536FB
:101AE00009F401E08E2D602F0E94B70C8AE360E0BC
:101AF0000E94AD2960E0163609F461E08F2D0E9446
:101B0000170A8AE360E00E94AD2960E0173609F405
:101B100061E08D2D0E94170A80910904882369F4E1
:101B200080E260E00E94AD298BE08E1510F480E524
:101B300001C081E4602F0E94AD291F910F91FF9099
:101B4000EF90DF9008951F93182F88E061E00E94C6
:101B5000E32D8BED91E060E00E94E7298091150470
:101B600060E0153609F461E00E94720C8AE360E0DF
:101B70000E94AD2980910B0460E0163609F461E003
:101B80000E94170A1F91089580918D038F5F8093A3
:101B90008D030E94ED2D88E060E00E94E32D88EE29
:101BA00091E060E00E94E72980E00E94B50B84E0AC
:101BB0000E94A30D809106046091110440911C04C1
:101BC00023E00E945C0D80911B0460911004409101
:101BD0000A0425E00E94EC0C80E00E94E80B86E0FD
:101BE0000E94470D0E94670C80918D038150809365
:101BF0008D030895BF92CF92DF92EF92FF920F93E1
:101C00001F93CF93DF9310910604D0901104F090AE
:101C10001C040E94C40D80918D038F5F80938D03FF
:101C200080E063E147E00E942E0A80918D0381509D
:101C300080938D038AE080938C0303E08AE0B82EC2
:101C4000C8ECD0E080918F0380FDA6C080918F0307
:101C5000882321F480919003882319F0B0928C039B
:101C600007C080918C03882319F41092170494C044
:101C700080918F0381FF48C010928F0380918D0364
:101C80008F5F80938D03033041F48EEE91E068EF17
:101C900071E00E944B0C05E62CC0053641F481E052
:101CA00092E06CE072E00E944B0C06E622C0063621
:101CB00041F485E192E069E172E00E944B0C07E695
:101CC00018C00E94670C10930604D0921104F09281
:101CD0001C0480911C046091110440910604009141
:101CE0001004E0901B04C0900A0420E00E947A07D0
:101CF00003E0812F6D2D4F2D202F0E945C0D8091D0
:101D00008D03815080938D0380918F0382FD04C0E9
:101D10008091900382FF96CF10928F0380918D0364
:101D20008F5F80938D03053659F4812F90E00196E3
:101D300068E170E00E945738182F8093060415C0A0
:101D4000063649F48D2D90E001966CE370E00E9418
:101D50005738D82E0AC0073641F48F2D90E00196EF
:101D60006CE370E00E945738F82E812F6D2D4F2DB7
:101D7000202F0E945C0D80918D03815080938D03F4
:101D80008091900382FF5ECF80ED97E0FE01319756
:101D9000F1F70197D9F756CFDF91CF911F910F91AE
:101DA000FF90EF90DF90CF90BF9008950F931F9317
:101DB000CF93DF930E94C40D80918D038F5F80933A
:101DC0008D0380E06BE047E00E942E0A80918D0336
:101DD000815080938D038AE080938C0314E00AE0A5
:101DE000C8ECD0E080918F0380FD82C080918F038A
:101DF000882321F480919003882319F000938C03A9
:101E000007C080918C03882319F41092170470C0C6
:101E100080918F0381FF26C010928F0380918D03E4
:101E20008F5F80938D03143041F482E292E068EF7B
:101E300071E00E944B0C15E60DC0153641F481E0AF
:101E400092E06CE072E00E944B0C16E603C00E9428
:101E5000670C14E0812F0E94A30D80918D038150A7
:101E600080938D0380918F0382FD04C08091900345
:101E700082FFB8CF10928F0380918D038F5F809384
:101E80008D03153679F48091150490E0019668E190
:101E900070E00E945738809315046091150480E02B
:101EA00090E010C0163681F480910B0490E001960A
:101EB0006CE370E00E94573880930B0460910B0430
:101EC00081E090E00E944A39812F0E94A30D809109
:101ED0008D03815080938D038091900382FF82CF88
:101EE00080ED97E0FE013197F1F70197D9F77ACFAE
:101EF000DF91CF911F910F9108950F931F930E942F
:101F0000C40D80918D038F5F80938D0380E063E229
:101F100047E00E942E0A80918D03815080938D03AB
:101F20008AE080938C0318E00AE080918F0380FDA3
:101F300078C080918F03882321F4809190038823B7
:101F400019F000938C0307C080918C03882319F447
:101F50001092170466C080918F0381FF1BC01092FE
:101F60008F0380918D038F5F80938D03183039F438
:101F700081E00E94E80B0E94550C18E606C080E044
:101F80000E94E80B0E94670C18E080918D0381503D
:101F900080938D0380918F0382FD04C08091900314
:101FA00082FFC3CF10928F03183609F0BECF809105
:101FB0000904882359F0809114048F5F80931404DE
:101FC00080911404823010F010921404809109045E
:101FD00090E0882309F491E09093090480918D03A7
:101FE0008F5F80938D030E94C40D0E94550C80E08A
:101FF00063E247E00E942E0A81E00E94E80B809194
:102000008D03815080938D036091140483E090E0F0
:102010000E944A396091090484E090E00E944A39A4
:1020200084CF1F910F9108950F931F930E94C40DA9
:1020300080918D038F5F80938D030E945C0C80E004
:102040006BE247E00E942E0A80918D0381508093BD
:102050008D038AE080938C0316E00AE080918F0361
:1020600080FD59C080918F03882321F480919003D3
:10207000882319F000938C0307C080918C03882378
:1020800019F41092170447C080918F0381FF18C084
:1020900010928F0380918D038F5F80938D03163094
:1020A00021F40E94550C19E603C00E945C0C16E056
:1020B000812F0E94470D80918D03815080938D0365
:1020C00080918F0382FD04C08091900382FFC6CF70
:1020D00010928F03193611F68091B4008F5F8093B0
:1020E000B4008091B400813110F01092B40080915E
:1020F0008D038F5F80938D0389E60E94470D809149
:102100008D03815080938D036091B40082E090E054
:102110000E944A39A3CF1F910F910895BF92CF9289
:10212000DF92EF92FF920F931F93CF93DF93F09084
:10213000100410911B04D0900A040E94C40D8091D9
:102140008D038F5F80938D0380E06BE147E00E94F9
:102150002E0A80918D03815080938D038AE08093B5
:102160008C0305E04AE0B42EC8ECD0E080918F03E8
:1021700080FD0FC180918F03882321F4809190030B
:10218000882319F0B0928C0307C080918C038823B8
:1021900019F410921704FDC080918F0381FF6AC06B
:1021A00010928F0380918D038F5F80938D03053094
:1021B00069F480911404882309F18091140481301A
:1021C00059F080911404833091F506C00B3061F40E
:1021D000809114048823F9F481E492E06CE472E0C5
:1021E0000E944B0C0CE03BC00C3009F580911404AC
:1021F000813021F080911404833041F48DE292E02B
:1022000068E372E00E944B0C0BE029C0809114043B
:10221000882329F00CC080911404813041F485E5B5
:1022200092E060E672E00E944B0C0DE018C00E9444
:10223000670CD0920A0410931B04F0921004809152
:102240001C04609111044091060400911004E09078
:102250001B04C0900A0420E00E947A0705E0812F49
:102260006F2D4D2D202F0E94EC0C80918D038150FD
:1022700080938D0380918F0382FD04C08091900331
:1022800082FF74CF10928F0380918D038F5F8093B4
:102290008D030B3071F51F5F1D3010F011E05CC035
:1022A0001230D1F48D2D90E00E944307882331F045
:1022B0008DE18F1518F43DE1F32E4EC08D2D90E089
:1022C0000E944307882309F047C08CE18F1508F06E
:1022D00043C02CE1F22E40C0143031F0163021F012
:1022E000193011F01B30C1F58EE18F1508F44BC089
:1022F00033C00C3039F5F3948FE18F1510F4FF24BF
:10230000F394123099F48D2D90E00E9443078823B6
:1023100019F08DE18F15D0F18D2D90E00E944307CB
:102320008823D1F48CE18F1588F116C0143031F078
:10233000163021F0193011F01B3071F48FE1F816CE
:1023400029F10AC00D3041F48D2D90E0019664E62C
:1023500070E00E945738D82E812F6F2D4D2D202FE1
:102360000E94EC0C80918D03815080938D038091AD
:10237000900382FFFBCE80ED97E0FE013197F1F7ED
:102380000197D9F7F3CE9EE1F92EE6CFFF24F3941F
:10239000E3CFDF91CF911F910F91FF90EF90DF90EE
:1023A000CF90BF900895FF920F931F930E94C40D8A
:1023B00080918D038F5F80938D030E94670C80E076
:1023C00063E047E00E942E0A80918D038150809344
:1023D0008D038AE080938C0318EC5AE0F52E02ED11
:1023E00001C018EC80918F0380FD75C080918F0330
:1023F000882321F480919003882319F0F0928C03B4
:1024000004C080918C03882351F180918F0381FF58
:1024100029C010928F0380918D038F5F80938D036D
:10242000183C61F481E00E94B50B0E94550C80912C
:102430008D03815080938D0319EC14C080E00E94BD
:10244000B50B0E94670C10921A0480910E04873D10
:1024500031F48FE080931A0486ED80930E0410927D
:10246000170439C080918F0382FD04C080919003CE
:1024700082FFB8CF10928F03193C09F0B2CF809140
:102480000E048F5F80930E0480910E04893D10F03E
:1024900000930E0480910E04883D30F460910E0488
:1024A00086E090E00E944A3980918D038F5F80938F
:1024B0008D030E94C40D0E94550C80E063E047E04C
:1024C0000E942E0A81E00E94B50B80918D038150FD
:1024D00080938D0387CF1F910F91FF9008952698C9
:1024E0002E9A81E080936800EBE6F0E080818064C2
:1024F000808382E080937C0010927B00EAE7F0E02A
:102500008EE88083808180648083089580917A0042
:10251000877F80937A0080917A00806480937A002C
:1025200080917A0084FFFCCF20917800309179006F
:10253000C90108951F920F920FB60F9211242F9385
:102540003F934F935F936F937F938F939F93AF933B
:10255000BF93EF93FF9378948091780090917900E6
:1025600022E0803E920728F01092900310928E0392
:1025700073C022E08336920798F180918E0382FD2A
:102580006BC080E29EE40197F1F70E9486128256AA
:1025900092408E37910508F05FC082E080939103EE
:1025A00012C00E948612825692408E37910558F0D2
:1025B00080918E038B7F80938E0380918F03846044
:1025C00080938F0349C080919103882351F78091B4
:1025D0008E03846080938E038091900384603AC060
:1025E0008F509140E8F080918E0381FD10C080E211
:1025F0009EE40197F1F70E9486128E509140855516
:10260000914050F580918F03826080938F03809179
:102610008E03826080938E038091900382601AC043
:1026200080918E0380FD0EC080E29EE40197F1F759
:102630000E9486128F50914078F480918F038160C0
:1026400080938F0380918E03816080938E038091AD
:10265000900381608093900380917A0088648093D6
:102660007A00FF91EF91BF91AF919F918F917F91F0
:102670006F915F914F913F912F910F900FBE0F90EF
:102680001F9018951F920F920FB60F9211242F933F
:102690003F934F935F936F937F938F939F93AF93EA
:1026A000BF93EF93FF9378940E941307FF91EF91EC
:1026B000BF91AF919F918F917F916F915F914F915A
:1026C0003F912F910F900FBE0F901F901895809102
:1026D0000E04833D81F0843D18F4823D89F408C0E6
:1026E000843D19F0853D61F409C00E94BA1A08952D
:1026F0000E940D2108950E94FA1E08950E94FF2451
:10270000089590910E04933D81F0943D18F4923D0C
:1027100089F408C0943D19F0953D61F409C00E9408
:10272000D41908950E94442208950E94D91F089543
:102730000E94EF26089580910E04843D71F0853D3E
:1027400028F4823D69F0833D09F50DC0863D89F08E
:10275000863D60F0883DD1F417C00E946B1A089541
:102760000E94602208950E94E31F08950E946B2733
:1027700008950E94E11480E090E00E943F1583706C
:102780008E5280930E04D7CF0E946F2708951F9317
:10279000182F80911A04882381F180918103813060
:1027A00021F080918203813041F58091810388235B
:1027B00019F082E08093810380918203882319F0CD
:1027C00082E08093820380911A04815080931A04DE
:1027D00080911A04882389F48FE080931A048091F1
:1027E0000E048F5F80930E0480910E04863D18F0D6
:1027F00082ED80930E040E949B1380910E04833D12
:1028000091F0843D18F4823DA9F409C0843D19F08B
:10281000853D81F40CC0812F0E94E3180BC0812FED
:102820000E942C2207C0812F0E94122003C0812FFA
:102830000E940F251F9108952F923F924F925F9211
:102840006F927F928F929F92AF92BF92CF92DF92C0
:10285000EF92FF920F931F93209094033090950373
:10286000409096035090970360909803709099035E
:1028700080909A0390909B03AA24BB246501F501E4
:10288000E370F070EE0FFF1FEE0FFF1FE95CFB4FD0
:10289000E080F18002811381EA0CFB1C0C1D1D1DE0
:1028A000D401C30175E0B695A795979587957A955C
:1028B000D1F7A401930164E0220F331F441F551F79
:1028C0006A95D1F782279327A427B527860D971DF0
:1028D000A81DB91DE826F9260A271B272E0C3F1C28
:1028E000401E511E89EB99E7A7E3BEE9A80EB91E69
:1028F000CA1EDB1EA2019101F5E05695479537955A
:102900002795FA95D1F7D201C101E4E0880F991F0C
:10291000AA1FBB1FEA95D1F7282739274A275B272B
:10292000220D331D441D551DD601C5017BE0B69512
:10293000A795979587957A95D1F783709070880FB2
:10294000991F880F991F895C9B4FFC0180819181A1
:10295000A281B3818A0D9B1DAC1DBD1D282739277F
:102960004A275B27620E731E841E951EF0E2AF1687
:10297000F7E3BF06FFEECF06F6ECDF0609F07FCFE8
:1029800020929403309295034092960350929703BD
:10299000609298037092990380929A0390929B039D
:1029A0001F910F91FF90EF90DF90CF90BF90AF906D
:1029B0009F908F907F906F905F904F903F902F905F
:1029C000089580EB96EEA2E7B1EB809343049093D9
:1029D0004404A0934504B093460480911C0490E005
:1029E000A0E0B0E02EE631E749EE5DE282279327D2
:1029F000A427B5278093370490933804A093390413
:102A0000B0933A048091110490E0A0E0B0E021ED91
:102A10003DED4FE359E982279327A427B5278093FB
:102A20003B0490933C04A0933D04B0933E048091FA
:102A3000060490E0A0E0B0E027E53BEF47E75AE26C
:102A400082279327A427B52780933F0490934004BF
:102A5000A0934104B0934204109294031092950302
:102A60001092960310929703109298031092990374
:102A700010929A0310929B030E941C1408958130B7
:102A8000F9F48091980390919903A0919A03B091E1
:102A90009B032091940330919503409196035091AC
:102AA000970382279327A427B5273FE0B695A795DC
:102AB000979587953A95D1F79C01237030702FC078
:102AC0008230F9F48091980390919903A0919A0330
:102AD000B0919B032091940330919503409196030C
:102AE0005091970382279327A427B52721E1B69514
:102AF000A795979587952A95D1F79C0121703070FD
:102B00000EC0A8950E941C1420919803309199033F
:102B10008091940390919503282739273F77C90125
:102B200008959091850380919303981739F081E07F
:102B30008093920380918503809393038091850312
:102B4000813039F1813030F08230A9F1833009F0E1
:102B500042C039C080918103882321F4809182038F
:102B6000882381F080918203882329F080911204C8
:102B700080934D0404C080918103882361F180918A
:102B800008041EC08091060480934D0480911104B6
:102B900017C080911404882339F480911B0480931A
:102BA0004D04809110040CC08091100480934D045A
:102BB00080911B0405C084E180934D0480910A0438
:102BC00080934E0408958091150480934D04809164
:102BD0000B0480934E040895AF92CF92EF920F931F
:102BE000A82FB0E0E02FF0E0CD01840F911D8E17EB
:102BF0009F07B4F0EC0DF11DEA17FB078CF070E0B5
:102C00004E2D50E0CB01820F911D8417950744F0A3
:102C100080E04A0D511D461757071CF081E001C0A6
:102C200080E00F91EF90CF90AF900895EF92FF92D8
:102C30000F931F9380E00E943F15A0E0B0E0BC011D
:102C4000CD010E94AA3520E030E048E452E40E9421
:102C5000C23220E03EEF4FEF56E40E94BC3320E04A
:102C600030E040EA51E40E9495327B018C0181E022
:102C70000E943F1583702AE5829FC0011124AA2774
:102C800097FDA095BA2FBC01CD010E94F8349B019D
:102C9000AC01C801B7010E94953226E53EE049E447
:102CA00050E40E94C23220E030E044E353E40E944A
:102CB000BC331F910F91FF90EF9008952F923F9298
:102CC0004F925F926F927F928F929F92AF92BF923C
:102CD000CF92DF92EF92FF920F931F93DF93CF93E8
:102CE000CDB7DEB761970FB6F894DEBF0FBECDBF8C
:102CF000EC86FD860E871F87998A888A2D833E83FE
:102D00004F835887AC01CB01DA013C014D01C5016D
:102D1000D6015C016D011A8619869FC06D817E8186
:102D20008F819885A60195010E9495321B012C0187
:102D3000C401B3012C853D854E855F850E94953287
:102D400069837A838B839C83C201B10120E030E0E8
:102D500048E652E40E94683418167CF4D7FAD094FE
:102D6000D7F8D0940F2EF0E02F2EF0E03F2EF8E6AB
:102D70004F2EF2E45F2EF02D18C0C201B10120E009
:102D800030E040E050E40E94C834882374F4D7FA5D
:102D9000D094D7F8D0940F2EF0E02F2EF0E03F2EF5
:102DA000F0E04F2EF0E45F2EF02D69817A818B8167
:102DB0009C810E9456356B876F368CF0C801B70135
:102DC00020E030E046EE52E40E94C83488233CF410
:102DD00060E070E086EE92E4A801970113C0FB85E5
:102DE000FE3054F5C401B30120E030E040E551E489
:102DF0000E946834181604F560E070E080E591E404
:102E0000A40193010E9464322C853D854E855F8527
:102E10000E94BC33A60195010E94C2329B01AC0105
:102E20006D817E818F8198850E9495320E94EC3061
:102E3000E889F989608307C0F985FF2321F48A8531
:102E40008F5F8A8702C0E1E0E9872D823E824F8250
:102E5000588669807A808B809C80C401B30120E011
:102E600030E04CEE52E40E94C83488239CF4C40144
:102E7000B30120E030E040E850E40E9495327B014D
:102E80008C0120E030E040E251E40E9468341816E2
:102E90000CF444CF6D817E818F8198850E94EC3047
:102EA000EEA1FFA160838A8561960FB6F894DEBF1C
:102EB0000FBECDBFCF91DF911F910F91FF90EF908B
:102EC000DF90CF90BF90AF909F908F907F906F904A
:102ED0005F904F903F902F9008958F929F92AF9266
:102EE000BF92CF92DF92EF92FF920F931F93CF93F7
:102EF000DF93D82E862E922EC42FD0E0CC0FDD1F6C
:102F0000CC0FDD1FC95FDF4FCC24CE010E944239B8
:102F1000182D47E0E42EF12CA82EBB24C5010E2C61
:102F200002C0959587950A94E2F780FF09C000E0FA
:102F3000992009F401E08D2D612F42E022E005C0C7
:102F40008D2D612F42E022E0092D0E94F82908947E
:102F5000E108F1081E5F8FEFE8168FEFF806F1F633
:102F6000C394219682E0D80E84E0C81671F6DF91F2
:102F7000CF911F910F91FF90EF90DF90CF90BF9076
:102F8000AF909F908F900895CF92DF92EF92FF9233
:102F90000F931F93C82ED62E882309F5E09049047D
:102FA000F0904A0400914B0410914C0460912F045E
:102FB0007091300480913104909132040E94EC3081
:102FC00070E06A3171059CF16932710584F5C801C0
:102FD000B7010E94EC3070E06531710544F58091D5
:102FE00009048823B9F480918503882321F0809116
:102FF0008503833079F480914D0490E047966CE02E
:1030000070E00E94573801966AE070E00E945738DD
:10301000462F06C080914D046AE00E943738482F41
:103020008EE164E02D2D0E946D17CC2009F5E09013
:103030004904F0904A0400914B0410914C046091B3
:103040002F047091300480913104909132040E94D9
:10305000EC3070E069327105ACF16833710594F5BC
:10306000C801B7010E94EC3070E06531710554F57C
:10307000809109048823C9F480918503882321F075
:1030800080918503833089F480914D0490E04796C8
:103090006CE070E00E94573801966AE070E00E9490
:1030A0005738482F8DE264E008C080914D046AE0F3
:1030B0000E9437388DE264E0492F2D2D0E946D1754
:1030C000CC2009F5E0904904F0904A0400914B04AB
:1030D00010914C0460912F04709130048091310460
:1030E000909132040E94EC3070E062347105C4F0BB
:1030F00061357105ACF4C801B7010E94EC3070E095
:10310000653171056CF480914E046AE00E94373895
:10311000482F86E464E02D2D0E946D17CC2009F520
:10312000E0904904F0904A0400914B0410914C0443
:1031300060912F0470913004809131049091320499
:103140000E94EC3070E061357105B4F060367105B5
:103150009CF4C801B7010E94EC3070E06531710544
:103160005CF480914E046AE00E94373885E564E0A3
:10317000492F2D2D0E946D171F910F91FF90EF90F9
:10318000DF90CF9008950F931F93082F10E08FE3E7
:10319000612F0E94E32D002311F080EF01C08FE02A
:1031A0000E948A2D1F5F173091F78FE367E00E941E
:1031B000E32D002311F080E201C08FEC0E948A2DE4
:1031C0001F910F910895BF92CF92DF92EF92FF92DD
:1031D0000F931F93B82E0E94911560912F04709148
:1031E000300480913104909132040E94EC307B01D4
:1031F0008C016091490470914A0480914B04909134
:103200004C040E94EC309B01AC018E2D622F44E0F7
:1032100024E00B2D0E94F829CC24BB2011F4CC24EF
:10322000C39460913304709134048091350490917B
:1032300036040E94EC307B018C0160912604709171
:10324000270480912804909129040E94EC309B016E
:10325000AC018E2D622F44E024E00C2D0E94F82951
:10326000E0904904F0904A0400914B0410914C0402
:1032700060912F0470913004809131049091320458
:103280000E94EC3070E06B33710564F061347105BD
:103290004CF4C801B7010E94EC3070E06134710554
:1032A0000CF476C060911F04262F30E0809120043A
:1032B000992787FD90952817390771F08AE043E038
:1032C0002CE00B2D0E94F8298AE06091200443E055
:1032D0002CE00C2D0E94F82960914804262F30E044
:1032E00080914704992787FD90952817390771F039
:1032F00083E743E02CE00B2D0E94F82983E76091DF
:10330000470443E02CE00C2D0E94F829E09049048A
:10331000F0904A0400914B0410914C04D090470463
:1033200060912F04709130048091310490913204A7
:103330000E94EC3070E06F367105A4F067377105BC
:103340008CF4C801B7010E94EC3070E02D2D30E004
:10335000CB010496821793072CF0245F3F4F26176A
:103360003707D4F41092700080919203882311F0F3
:103370001092920381E0809370006B2D0E94C4171D
:103380001F910F91FF90EF90DF90CF90BF90089525
:103390008B2D0E94C31886CF83E76D2D43E02CE070
:1033A0000C2D0E94F829DECFFF920F931F93F82E69
:1033B00080E060E040E820E40F2D0E94F82910E052
:1033C000FF2009F411E080E060E040E822E0012FF6
:1033D0000E94F82980E06EE340E822E00E94F8298C
:1033E0008AE06091200443E02CE00E94F82983E702
:1033F0006091470443E02CE00E94F8290E94911557
:10340000809109048823B9F480918503882321F0F1
:1034100080918503833079F480914D0490E0479644
:103420006CE070E00E94573801966AE070E00E94FC
:103430005738462F06C080914D046AE00E94373805
:10344000482F8EE164E02F2D0E946D1780910904B2
:103450008823C9F480918503882321F08091850316
:10346000833089F480914D0490E047966CE070E0E1
:103470000E94573801966AE070E00E945738482F42
:103480008DE264E008C080914D046AE00E94373804
:103490008DE264E0492F2F2D0E946D1780914E041C
:1034A0006AE00E943738482F86E464E02F2D0E949E
:1034B0006D1780914E046AE00E94373885E564E01C
:1034C000492F2F2D0E946D178F2D0E94C3181F9119
:1034D0000F91FF900895EF92FF920F931F9389E150
:1034E000809320048093470480E090E0ACE7B2E44E
:1034F0008093330490933404A0933504B09336043E
:1035000080E090E0A8EFB1E4809326049093270434
:10351000A0932804B09329040E9416167B018C0105
:103520000E94DE3820E030E040EA50E40E94C232DF
:1035300060932A0470932B0480932C0490932D04A1
:10354000C801B7010E943C3920E030E040EA50E475
:103550000E94C23260932204709323048093240457
:103560009093250480E00E94D4191F910F91FF9041
:10357000EF9008952F923F924F925F926F927F92B9
:103580008F929F92AF92BF92CF92DF92EF92FF9273
:103590000F931F93DF93CF93CDB7DEB72E970FB660
:1035A000F894DEBF0FBECDBF609133047091340438
:1035B000809135049091360460932F047093300409
:1035C0008093310490933204E0902604F090270415
:1035D0000091280410912904E0924904F0924A04D1
:1035E00000934B0410934C0420912A0430912B0437
:1035F00040912C0450912D040E9495325B016C0186
:1036000060933304709334048093350490933604AC
:1036100060902204709023048090240490902504EC
:10362000C801B701A40193010E949532609326045A
:1036300070932704809328049093290420E030E0BD
:1036400048E652E40E9468341816BCF480E090E02A
:10365000A8E6B2E48093260490932704A09328045C
:10366000B0932904D401C301B058809322049093ED
:103670002304A0932404B093250460912604709140
:103680002704809128049091290420E030E040E054
:1036900050E40E94C8348823ECF480E090E0A0E07D
:1036A000B0E48093260490932704A0932804B09359
:1036B00029048091220490912304A0912404B091C4
:1036C0002504B0588093220490932304A0932404EB
:1036D000B0932504C601B50120E030E048EF52E484
:1036E0000E94683418163CF0C601B5010E94563598
:1036F00016160CF464C080E090E0ACE7B2E480936E
:10370000330490933404A0933504B093360480E0DE
:1037100090E0A8EFB1E48093260490932704A0934F
:103720002804B09329040E9416167B018C010E9484
:10373000DE3820E030E040EA50E40E94C23260937C
:103740002A0470932B0480932C0490932D04C801B9
:10375000B7010E943C3920E030E040EA50E40E948A
:10376000C2326093220470932304809324049093C4
:1037700025046091A2032091A103261B8AE043E067
:1037800000E00E94F8296091A6032091A503261B62
:1037900083E743E00E94F8291092A5031092A60344
:1037A0001092A1031092A20381E0809392031092E1
:1037B000820380918203809381030E9491158091FE
:1037C00020048E8380931F04909147049D839093DF
:1037D000480420902A0430902B0440902C045090F0
:1037E0002D04C201B10120E030E040E050E00E9431
:1037F000683418160CF038C16091330470913404A9
:1038000080913504909136040E9456356F360CF441
:1038100067C0E0902F04F0903004009131041091C3
:103820003204C801B7010E94563560370CF058C009
:10383000C801B70120E030E040E850E40E94953232
:103840009B01AC0160E070E086EE92E40E9464327D
:103850005B016C016090220470902304809024042A
:1038600090902504C801B701A60195010E949532E8
:103870006F83788789879A87E0904904F0904A049B
:1038800000914B0410914C040E94EC3070E06F36B4
:10389000710534F1673771051CF5C601B501A20148
:1038A00091010E94BC33A40193010E94C2329B018A
:1038B000AC01C801B7010E9495327B018C010E94C6
:1038C000EC3070E0AD812A2F30E0CB0104968217F6
:1038D000930734F0245F3F4F261737070CF02CC2B4
:1038E000E0902A04F0902B0400912C0410912D04F8
:1038F000C801B70120E030E040E050E00E946834A9
:1039000018160CF0FBC16090330470903404809062
:10391000350490903604C401B30120E030E040E863
:1039200050E40E94953220E030E046EE52E40E94DE
:10393000C83488230CF0E2C18091A603882309F0E3
:103940005DC000D0209126043091270440912804C6
:1039500050912904A0902204B0902304C090240424
:10396000D090250483EA93E0EDB7FEB7928381837C
:10397000C401B301F4EA8F2EF3E09F2E0E945E167D
:1039800080939C039091A4038091A3030F900F90C8
:10399000891738F48093A6039C5F9093A5039450F5
:1039A00005C09093A6038C5F8093A503809182034A
:1039B000882379F4892F845080939E03992787FD6B
:1039C00090950E948A2886E890E061E00E9416287F
:1039D0001AC00091A6031091A5030F3058F01133BF
:1039E00028F482E00E943F1580FF04C00D50009330
:1039F0009E0309C01F5F10939E0305C080919C0326
:103A0000815080939C033091470460919E03832FE3
:103A1000861B482F552747FD509557FF03C05095EB
:103A200041955F4F80919C0325E08202C0011124E3
:103A30000497481759070CF461C1842F36173CF4DA
:103A4000463014F03B5F01C0340F3093470490912F
:103A5000470469170CF052C1863014F0955001C02C
:103A6000981B909347044AC1809133049091340489
:103A7000A0913504B091360489839A83AB83BC83CB
:103A8000BC01CD010E9456356E300CF07DC0E09037
:103A90002F04F09030040091310410913204C801D9
:103AA000B7010E9456356D300CF46EC060E070E0D6
:103AB00080E591E4A80197010E9464325B016C01EA
:103AC0006090220470902304809024049090250438
:103AD000C801B701A60195010E9495326B877C87CA
:103AE0008D879E87E0904904F0904A0400914B0432
:103AF00010914C040E94EC3070E0663071050CF4BB
:103B000043C06E3071050CF03FC0C601B501A20183
:103B100091010E94BC33A40193010E94C2329B0117
:103B2000AC01C801B7010E9495327B018C010E9453
:103B3000EC3070E09E81292F30E0CB010496821793
:103B4000930714F1245F3F4F26173707ECF024C189
:103B50008B859C85AD85BE8580933304909334041A
:103B6000A0933504B0933604E0922604F092270423
:103B700000932804109329041092A1031092A20329
:103B800010929D031092A003E0902A04F0902B0461
:103B900000912C0410912D04C801B70120E030E001
:103BA00040E050E00E94C83488230CF0A7C0609029
:103BB0003304709034048090350490903604C4012E
:103BC000B30120E030E040E651E40E94683418166A
:103BD0000CF094C08091A203882309F054C000D057
:103BE0002091260430912704409128045091290403
:103BF000A0902204B0902304C0902404D090250407
:103C00008FE993E0ADB7BEB712969C938E93119750
:103C1000C401B301E0EA8E2EE3E09E2E0E945E1600
:103C200080939C039091A00380919F030F900F902D
:103C3000891738F48093A2039C5F9093A10394505A
:103C400005C09093A2038C5F8093A10380918103B0
:103C5000882321F4945090939D031AC00091A203ED
:103C60001091A1030F3058F0113328F482E00E9424
:103C70003F1580FF04C00D5000939D0309C01F5FD6
:103C800010939D0305C080919C03815080939C03F9
:103C90004091200460919D03242F332727FD309508
:103CA000862F992787FD9095281B390B37FF03C076
:103CB000309521953F4F522F80919C0325E0820241
:103CC000C00111240497252F332727FD309528178D
:103CD0003907A4F046173CF4563014F04B5F01C08E
:103CE000450F409320048091200468173CF456301F
:103CF00014F0855001C0851B80932004809120041E
:103D000083301CF483E08093200480914704833047
:103D10001CF483E0809347048091200482331CF0DC
:103D200081E3809320048091470482330CF449C0DE
:103D300081E38093470445C08F819885A985BA8522
:103D40008093330490933404A0933504B0933604E5
:103D5000E0922604F092270400932804109329048B
:103D6000D201C101B05880932A0490932B04A093F0
:103D70002C04B0932D041092A5031092A603109268
:103D80009E031092A4031092A1031092A20310921A
:103D90009D031092A003A4CDD201C101B05880931D
:103DA0002A0490932B04A0932C04B0932D046981D2
:103DB0007A818B819C810E94EC306D3009F0C8CEF5
:103DC000DBCE2E960FB6F894DEBF0FBECDBFCF91DF
:103DD000DF911F910F91FF90EF90DF90CF90BF90F8
:103DE000AF909F908F907F906F905F904F903F909B
:103DF0002F90089510928203809182038093810313
:103E00000895DF92EF92FF920F931F93D82EE62E24
:103E100010E0442309F411E08D2D8E5F6E2D4EE0ED
:103E200026E0012F0E94F829FE2CF3948D2D8F5F40
:103E30006F2D41E024E00E94F82982E0E80E8D2DEC
:103E40006E2D41E022E00E94F8298D2D805F6F2DBC
:103E500041E024E00E94F8298D2D8F5E6E2D41E017
:103E600022E00E94F8291F910F91FF90EF90DF90C0
:103E70000895DF92EF92FF920F931F93D82E162F83
:103E8000EE24442311F4EE24E394612F6E5F8D2D14
:103E900046E025E10E2D0E94F829FD2CF394612FB8
:103EA0006F5F8F2D44E021E00E94F82982E0D80E58
:103EB0008D2D612F42E021E00E94F829195E8F2D9F
:103EC000612F44E021E00E94F8291F5F8D2D612FB2
:103ED00042E021E00E94F8291F910F91FF90EF909E
:103EE000DF9008958436D1F0853638F4823681F03B
:103EF000833680F4813641F507C08636C1F08636B8
:103F0000A0F0873609F51AC0862F8C5F642F09C090
:103F10004B5F01C04E5D862F8C5E0BC0862F8C5F81
:103F20006AE3422F0E94011F08954E5D01C04B5F5E
:103F3000862F642F422F0E94391F0895862F8C5F91
:103F40006DE1422F0E94011F0895CF92DF92EF9200
:103F5000FF920F931F93CF93DF93C82ED62E022F7D
:103F6000C7E0D0E011E6E42EFF24C7010C2E02C00A
:103F7000959587950A94E2F780FF05C0812F6C2DF7
:103F80004D2D202F07C020E0002309F421E0812FD0
:103F90006C2D4D2D0E94721F21971F5F183629F737
:103FA000DF91CF911F910F91FF90EF90DF90CF9015
:103FB00008950F93082F80E060E040E820E40E941D
:103FC000F8290F9108950F9380E060E040E820E425
:103FD00000E00E94F8290F910895FF920F931F931C
:103FE000182F062FF22E842F90E04A3028F4835B9E
:103FF0009F4F0E94423904C08E5290400E94423925
:10400000482F812F602F2F2D0E94A51F1F910F91E8
:10401000FF90089520E0442309F421E044E00E9449
:10402000E82A0895FF920F931F93809185038823B8
:10403000B1F080918503833091F080E465E144E044
:1040400020E00E94E82A80E46AE244E020E00E9446
:10405000E82A80E466E044E020E00E94E82A8091BB
:1040600085038230F1F480E060E042E020E00E94CD
:10407000ED1F8EE160E040E020E00E94ED1F8091A6
:104080000A0464E60E943738892F6AE00E943738B4
:10409000482F88E460E020E00E94ED1F80910A0430
:1040A00030C0809185038130B1F58091140488235C
:1040B00029F410911B040091100404C01091100405
:1040C00000911B04812F6AE00E943738482F80E05E
:1040D00060E020E00E94ED1F812F6AE00E943738E7
:1040E0008EE160E0492F20E00E94ED1F802F6AE002
:1040F0000E943738482F88E460E020E00E94ED1FDE
:10410000802F6AE00E94373886E660E0492F20E081
:104110000E94ED1F7EC080918503882329F0809145
:104120008503833009F075C080918503833029F4BD
:1041300010911504F0900B0404C010910604F09047
:104140001104809109048823B9F4812F90E04796E7
:104150006CE070E00E945738082F0F5F1C3028F485
:1041600080E466E044E021E004C080E466E044E0EE
:1041700020E00E94E82A07C080E466E044E020E0F6
:104180000E94E82A012F0A3048F0802F6AE00E943E
:104190003738482F80E060E020E004C080E060E035
:1041A00048E021E00E94ED1F802F6AE00E9437382E
:1041B0008EE160E0492F20E00E94ED1F8F2D6AE024
:1041C0000E943738482F88E460E020E00E94ED1F0D
:1041D0008F2D6AE00E94373886E660E0492F20E0A4
:1041E0000E94ED1F80918303882399F020911C0485
:1041F00011E02127217080E465E144E00E94E82A73
:1042000020911C042127217080E46AE244E00E948E
:10421000E82A1F910F91FF900895809173028150B9
:10422000809373028823F1F485E080937302809178
:1042300071028093A90390917202980F909371027A
:10424000903218F08FEF80937202992319F481E075
:104250008093720290E08091AA03882309F491E090
:104260009093AA030895FF920F931F93082FF62EA1
:104270006AE00E943738182F805D6F2D0E94AD29AB
:10428000005D86EF9FEF189F102D1124812F800F66
:104290006F2D0E94AD291F910F91FF9008951F93DC
:1042A000182F80E060E00E94E32D80914D04612F83
:1042B0000E94332180915004612F0E94332186E6B1
:1042C00060E00E94E32D80914E04612F0E94332113
:1042D00080914F04612F0E9433211F910895282F50
:1042E00080918103882359F480918203882339F4D3
:1042F000909185038091AC03891709F45EC01092F8
:10430000820380918203809381038091AB03882391
:1043100009F053C0809185038093AC03909106040B
:1043200080910904882319F068E170E002C06CE014
:1043300070E0892F90E00E94573880934D0480915F
:10434000110480935004809185038330A1F49091EF
:10435000150480910904882319F068E170E002C017
:104360006CE070E0892F90E00E94573880934E04F3
:1043700080910B041BC080918503813031F484E16E
:1043800080934E0480910A0411C080911404882304
:1043900039F480911B0480934E048091100406C070
:1043A0008091100480934E0480911B0480934F04ED
:1043B0001092AB03822F0E944F2108950F931F93F9
:1043C000082F14E1812F67E00E94E32D86E0602F23
:1043D0000E947829185E1437A9F71F910F9108954C
:1043E000DF92EF92FF920F931F93E82E909171024C
:1043F0008091A903981718F4892F805A02C0892F39
:10440000815068E041E020E30E2D0E94F82960E031
:1044100083E0D82E15C080917102800F612F0E9419
:10442000E32D8091AA038D9DC00111248F0D6E2D67
:104430000E947829005F003671F7163039F0612F3D
:10444000F62EF69400E0162F1F5FE5CF1F910F9117
:10445000FF90EF90DF9008951F93182F0E94F02196
:1044600080911604882321F48091AD03882339F0CC
:10447000812F0E94DE21809116048093AD03812F4D
:104480000E946F211F9108950F931F93182F80E0B2
:1044900060E040E820E4012F0E94F82983E6809341
:1044A000AC03812F0E946F21812F0E944F21812F09
:1044B0000E94F021812F0E94DE211F910F9108950B
:1044C00081E0809371021092A90380E00E9444224F
:1044D0000895DF92EF92FF920F931F93CF93DF9394
:1044E000D82EF62EE22EF694F694F694EA0100E029
:1044F00015C0FE011491802F6CE10E943738292FDE
:104500002D0D802F0E943738682F6F0D822F0E944B
:10451000E32D812F0E948A2D0F5F21960E1548F3FF
:10452000DF91CF911F910F91FF90EF90DF90089551
:10453000CF92DF92EF92FF920F931F93CF93DF936F
:10454000C82EF62ED22EE02EF694F694F694EA01BA
:1045500010E019C00881812F6CE10E94373899233F
:1045600041F4812F0E943738682F6F0D8C2D0E94E7
:10457000E32DEE2019F0802F809501C0802F0E943E
:104580008A2D1F5F21961D1528F3DF91CF911F9172
:104590000F91FF90EF90DF90CF9008957F928F92D0
:1045A0009F92AF92BF92CF92DF92EF92FF920F93C2
:1045B0001F93DF93CF93CDB7DEB7C05ED0400FB669
:1045C000F894DEBF0FBECDBFA82E962EB22E802E41
:1045D000FE01319680EEDF011D928A95E9F7DA013E
:1045E00050E09CE1792E81E0C82ED12C7F011CC0C7
:1045F000F90184912F5F3F4FF901749121503040B0
:10460000482F09C0F801E40FF11DEE0DFF1D808158
:10461000862B80834F5F4717A8F39F5F2E5F3F4F26
:10462000923031F75F5F14965B1588F4852F86957D
:1046300086958695879D80011124852F87706C2D26
:1046400001C0660F8A95EAF79D0190E0D1CF8A2DCF
:10465000692DAE014F5F5F4F20EE082D0E9498221A
:10466000C052DF4F0FB6F894DEBF0FBECDBFCF9163
:10467000DF911F910F91FF90EF90DF90CF90BF904F
:10468000AF909F908F907F9008950F93942F022F5B
:10469000592F40E04D5F5D4F20E40E94CE220F91E4
:1046A00008952F923F924F925F926F927F928F92D6
:1046B0009F92AF92BF92CF92DF92EF92FF920F93B1
:1046C0001F93DF93CF93CDB7DEB7C35FD0400FB654
:1046D000F894DEBF0FBECDBFC251DF4F8883CE5EE0
:1046E000D040C151DF4F6883CF5ED040C051DF4F13
:1046F0004883C05FD040CF50DF4F0883C15FD040B8
:10470000FE01399680EEDF011D928A95E9F78091CE
:10471000B103282E3324D22ECC2443E052E0C40E21
:10472000D51EC051DF4F8881C05FD040F82EEE24E7
:10473000E40EF51E88249924B5E06B2E712C6C0EC6
:104740007D1ECE50DF4FF983E883C25FD040582DE5
:10475000C051DF4F8881C05FD0408F3F29F41C8259
:104760001B821A82198209C0DE011196F701849119
:104770008D933196A615B705D1F79981C451DF4FB6
:104780009883CC5ED04030E09F3F09F031E08B81D0
:104790008F3F09F03F5FD301F60184918D933196ED
:1047A000CE50DF4F88819981C25FD040A817B907EA
:1047B000A1F79D81C551DF4F9883CB5ED04090E03B
:1047C000C551DF4FA881CB5ED040AF3F09F091E0EB
:1047D0008F818F3F09F09F5F292F931708F4232FB4
:1047E000BA81C351DF4FB883CD5ED0405695569500
:1047F0005695ECE15E9F20011124C40187709070F2
:1048000041E050E002C0440F551F8A95E2F7C751BE
:10481000DF4F4883C95ED0405E81C651DF4F588369
:10482000CA5ED04083015E010894A11CB11C622FB6
:1048300070E0660F771F660D771D69C0D5012C915A
:104840002F3F19F01196BC910AC0C451DF4F288147
:10485000CC5ED040C351DF4FB881CD5ED040F8016F
:1048600080818F3FB1F1A18190E030E0821B930BFA
:10487000829DA001839D500D929D500D1124405F9B
:104880005F4FF5E056954795FA95E1F7420F531FB4
:1048900050708A2F90E02B2F30E0821B930B829D6B
:1048A000D001839DB00D929DB00D11245096E5E08E
:1048B000B695A795EA95E1F7A20FB31FB070F20184
:1048C000E40FF51F89E090E08C0F9D1FE80FF91FA2
:1048D00015C0C551DF4F8881CB5ED040C651DF4F38
:1048E000A881CA5ED040C0CF8081C751DF4F988178
:1048F000C95ED040892B81934F5F5F4F4A175B079A
:1049000098F30E5F1F4FA2E0B0E0AA0EBB1E061781
:10491000170709F093CF0894811C911CE4E0F0E0A4
:10492000CE0EDF1EEE0EFF1EF0E48F16910409F08E
:104930000ECFC251DF4F8881CE5ED040C151DF4FD4
:104940006881CF5ED040AE01475F5F4F20EECF5011
:10495000DF4F0881C15FD0400E949822CD50DF4FC9
:104960000FB6F894DEBF0FBECDBFCF91DF911F9180
:104970000F91FF90EF90DF90CF90BF90AF909F90FE
:104980008F907F906F905F904F903F902F90089501
:10499000EF92FF920F931F93E82E162FFF244423CC
:1049A00011F4FF24F39413508E2D8150612F42E0B7
:1049B00026E00F2D0E94F8291F5F8E2D8250612F57
:1049C00044E024E00E94F8291F5F8E2D8350612F60
:1049D00046E022E00E94F8291F910F91FF90EF908E
:1049E00008951F93182F80E464E1412F0E94C8248A
:1049F00080E46AE3412F0E94C8241F9108958091AA
:104A00008503882359F480918303882339F0109219
:104A1000830380911C0481700E94F12408950F93F8
:104A20001F93CF93DF93182F80918503882329F05C
:104A300080918503833009F0DCC0909185038091DB
:104A4000BB03891709F457C08091AE03882309F08E
:104A500052C08091B6038093B2038091B7038093D4
:104A6000B3038091B8038093B4038091B90380931A
:104A7000B50380918503882329F4209106043091A1
:104A8000110404C02091150430910B048091090495
:104A9000882349F4822F90E047966CE070E00E94F2
:104AA0005738282F2F5F832F6AE00E943738909362
:104AB000B903832F0E9437388093B803822F0E9456
:104AC00037388093B603822F0E9437389093B7030C
:104AD000812F0E94F1248CE363E247E025E0012F5F
:104AE0000E94F829809185038093BB038091AE03D7
:104AF0008F5F8093AE0380918503882309F053C0B4
:104B000080918103882329F480918203882309F40A
:104B10004AC08091AE03882309F045C081E08093AC
:104B2000AE038091B9038093B503809111046AE0CC
:104B30000E9437389093B9038091B8038093B403EF
:104B4000809111040E9437388093B80380918203CA
:104B5000882319F12091060480910904882351F4D7
:104B60008091060490E047966CE070E00E94573810
:104B7000282F2F5F8091B6038093B2038091B703F3
:104B80008093B303822F6AE00E9437388093B60384
:104B9000822F0E9437389093B7031092820380913E
:104BA0008203809381038091BA03811709F474C052
:104BB0008091AE03882309F06FC060E040E820E4F4
:104BC000012F0E94F829812F0E94F124C0E0D0E03B
:104BD000FE01EC58FD4FDE01AA54BC4F808160E01D
:104BE0004C91212F0E9445232196C430D10581F795
:104BF00053C000918503013009F051C090918503A5
:104C00008091BB03891709F447C086E990E061E011
:104C10000E9416288091AE038823F1F50093AE031D
:104C2000809185038093BB038091B6038093B20388
:104C30008091B7038093B3038091B8038093B4034A
:104C40008091B9038093B50380911404882329F4DB
:104C500020911B043091100404C020911004309165
:104C60001B04822F6AE00E9437388093B603822F9C
:104C70000E9437389093B703832F0E943738809370
:104C8000B803832F0E9437389093B90380E0112333
:104C900009F481E00E94F124C0E0D0E04EC0009110
:104CA00085030230C9F7909185038091BB03891772
:104CB00099F380E990E061E00E9416288091AE03AC
:104CC000882351F781E08093AE038BE890E061E0A8
:104CD0000E941628809185038093BB038091B603C0
:104CE0008093B2038091B7038093B3038091B8039C
:104CF0008093B4038091B9038093B5030093B60306
:104D00001092B70380910A046AE00E9437388093BA
:104D1000B80380910A040E9437389093B90380E069
:104D2000112309F481E00E94F1248CE363E247E05F
:104D300025E0012F0E94F829AFCFFE01EE54FC4F71
:104D40004081FE01EA54FC4F2081421741F0FE01F0
:104D5000EC58FD4F808160E0012F0E945123219685
:104D6000C430D10551F79091AE03992389F1809118
:104D7000B1038F5F8093B103813250F11092B10380
:104D80008091B6038093B2038091B7038093B303FD
:104D90008091B8038093B4038091B9038093B503E5
:104DA00091509093AE0380918503813059F400E0D7
:104DB000112309F401E08CE363E247E025E00E945F
:104DC000F82906C080918503823011F08091850317
:104DD0001093BA03DF91CF911F910F9108950F9314
:104DE0001F93CF93DF93182F80E060E040E820E42A
:104DF000012F0E94F8291092B103209106043091EE
:104E0000110480910904882349F4822F90E0479689
:104E10006CE070E00E945738282F2F5F8FEF80934F
:104E2000B5038093B4038093B3038093B203832FBD
:104E30006AE00E9437389093B903832F0E94373875
:104E40008093B803822F0E9437389093B703822F44
:104E50000E9437388093B60317C0C0E0D0E0FE014F
:104E6000EC58FD4FDE01AE54BC4F9E012A543C4F1E
:104E7000808160E04C91F9012081012F0E94512333
:104E80002196C430D10559F78091B1038F5F80938B
:104E9000B1038150813208F38CE990E060E00E9418
:104EA00016288091B6038093B2038091B703809354
:104EB000B3038091B8038093B4038091B9038093C6
:104EC000B503812F0E94F1241092B103DF91CF919D
:104ED0001F910F91089580E00E94EF2608958F9210
:104EE0009F92AF92BF92CF92DF92EF92FF920F9379
:104EF0001F93CF93DF9300E010E058EC852E912CA8
:104F00000E94ED2DDD24CC24AA24BB24CC2009F062
:104F100044C0E801C95ADF4F0F5F1F4FCE010E9406
:104F20004239E82E8FEFE816B9F4DD2019F0CC24D1
:104F3000C39433C086ED80930E040E949B13DF91CF
:104F4000CF911F910F91FF90EF90DF90CF90BF9086
:104F5000AF909F908F900895DD2019F45801AE0C0A
:104F6000B11C2E2D30E0C901880F991F820F931FAD
:104F7000909581959F4F815C6D2D0E94E32DFE2CB5
:104F800007C0CE010E94423960E00E94AD29FA9428
:104F90002196FF20B1F70E0D111DD39488E0D8168D
:104FA00009F0B4CF88E893E1F4013197F1F7019764
:104FB0008501D1F7A5CF9093C5008093C40088E107
:104FC0008093C1008EE08093C200519A509808955A
:104FD00006C090E000009F5F9E31E1F7815088237A
:104FE000C1F7089548EC50E009C020E137E2FA012A
:104FF0003197F1F721503040D1F781508823A9F73C
:105000000895982F8091C00085FFFCCF9093C60033
:1050100080E090E008958091C00087FFFCCF8091F0
:10502000C60008958091C00080780895AC0120E00A
:1050300007C08091C00085FFFCCF3093C6002F5F72
:10504000FA01E20FF11D3491332399F7662371F0D1
:105050008091C00085FFFCCF8AE08093C6008091DC
:10506000C00085FFFCCF8DE08093C6000895FC0151
:1050700007C08091C00085FFFCCF31969093C60099
:1050800090819923B1F70895282F982F92959F70BA
:105090009A3030F48091C00085FFFCCF905D05C050
:1050A0008091C00085FFFCCF995A9093C600822F53
:1050B00090E08F7090700A973CF48091C00085FF5B
:1050C000FCCF2F70205D06C08091C00085FFFCCF13
:1050D0002F70295A2093C60008951F93182F892FE7
:1050E0000E944428812F0E9444281F910895EF9226
:1050F000FF920F931F937B018C01C801AA27BB2746
:105100000E946D28C7010E946D281F910F91FF908A
:10511000EF9008950F931F93CF93DF938C01E0E1FD
:10512000F7E240E0C0E0D0E0C801BF010E94433890
:10513000262F662329F4442319F4E130F10549F4BC
:105140008091C00085FFFCCF205D2093C6002053D6
:1051500041E0CF016AE070E00E9443382196C530FB
:10516000D10571F0822F90E09C012E9FC0012F9FEE
:10517000900D3E9F900D1124081B190BFB01D4CFFD
:10518000DF91CF911F910F9108951F93CF93DF93DC
:10519000482F87FF08C08091C00085FFFCCF8DE2BB
:1051A0008093C6004195E4E6F0E010E0C0E0D0E076
:1051B000842F992787FD9095BF010E944338262FA1
:1051C00016162CF0112319F4E130F10549F4809101
:1051D000C00085FFFCCF205D2093C600205311E066
:1051E000CF016AE070E00E9443382196C330D105B8
:1051F00031F02E9F802D1124481BFB01D9CFDF9168
:10520000CF911F9108954F925F926F927F928F92EC
:105210009F92AF92BF92CF92DF92EF92FF920F9345
:105220001F93CF93DF934B015C01E12C9AECF92E95
:105230009AE9092F9BE3192F4424C0E0D0E0C5016F
:10524000B401A80197010E946A38D22E222341F4AA
:10525000442031F481E0E816F1040105110561F400
:105260008091C00085FFFCCF80E3D80ED092C600AD
:1052700080EDD80E44244394C801B7012AE030E001
:1052800040E050E00E946A38C22E732E642E552EE4
:105290002196CA30D105A9F06D2D70E080E090E034
:1052A000A80197010E941838861A970AA80AB90A15
:1052B0002C2D372D462D552DC901DA017C018D018C
:1052C000BECFDF91CF911F910F91FF90EF90DF90B4
:1052D000CF90BF90AF909F908F907F906F905F9096
:1052E0004F900895089580589E4F0E944239089526
:1052F000EF92FF920F931F93CF93DF93F82EE62E3A
:1053000000E010E008C0CE01805A9C4F0E94423954
:105310008F5F080F1F5FC02FD0E01F15A0F3CE01D5
:10532000805A9C4F0E944239082FCF59DC4F10E021
:105330000BC0CE010E94423991E0E91609F4809534
:105340000E948A2D1F5F2196101798F3DF91CF914D
:105350001F910F91FF90EF900895DF92EF92FF92CF
:105360000F931F93CF93DF93D62E95E0899FC001B3
:105370001124EC01C052DF4F8E0125EEE22E20E019
:10538000F22EE80EF91EDD2029F0CE010E944239EE
:10539000809503C0C8010E9442390E948A2D21963F
:1053A0000F5F1F4FCE15DF0571F7DD2011F08FEF76
:1053B00001C080E00E948A2D80E00E94D62DDF91FE
:1053C000CF911F910F91FF90EF90DF9008951F9361
:1053D000CF93DF93EC01162F04C0612F0E94AD29FB
:1053E000219688818823C9F7DF91CF911F91089575
:1053F0002F923F924F925F926F927F928F929F92E5
:10540000AF92BF92CF92DF92EF92FF920F931F93D2
:10541000CF93DF93282E162F342EF22E402EC62F38
:10542000D0E0C770D070209709F45BC0562E569418
:1054300056945694EE2467E0C62EC1228C2C9924F3
:1054400087FC90945E01A20EB11C51E0652E712C78
:1054500035C0DE2CD20C8D2D652D0E94E32D0E94CF
:105460003D2D0E943D2D082F40E050E015C081E009
:10547000481641F4C30102C0880F991F2A95E2F72C
:10548000082B08C0C30102C0880F991F2A95E2F7B4
:10549000809508234F5F5F4F9A01280D391D2A150B
:1054A0003B0524F48C2D840F883009F78D2D652D54
:1054B0000E94E32D802F0E948A2DE394E31448F28A
:1054C0002F2D30E088E090E08C1B9D0B8217930716
:1054D00014F0FF2404C0812F87708850F80E187FC5
:1054E000185FE12EE694E694E694C12FD0E0CF0D4C
:1054F000D11D43E0D595C7954A95E1F712C0822D9D
:105500006E2D0E94E32D10E009C081E0481611F4D1
:105510008FEF01C080E00E948A2D1F5F1315A8F352
:10552000E3948E2D90E08C179D074CF32F2D277060
:10553000C9F100E0C22FD0E031E0A32EB12C30C081
:10554000F02EF20C8F2D6E2D0E94E32D0E943D2D2A
:105550000E943D2D182F20E030E017C081E0481652
:1055600049F4C501022E02C0880F991F0A94E2F780
:10557000182B09C0C501022E02C0880F991F0A947A
:10558000E2F7809518232F5F3F4F2C173D0734F328
:105590008F2D6E2D0E94E32D812F0E948A2D0F5F8B
:1055A000031570F280E00E94D62DDF91CF911F91FC
:1055B0000F91FF90EF90DF90CF90BF90AF909F90B2
:1055C0008F907F906F905F904F903F902F900895B5
:1055D0002F923F924F925F926F927F928F929F9203
:1055E000AF92BF92CF92DF92EF92FF920F931F93F1
:1055F000DF93CF9300D00F92CDB7DEB7382E462E73
:10560000522E262E281AA42EBB24C501880F991FBE
:1056100022273327281B390B2D5F3F4F3B832A83DB
:105620008824992466247724362F32193983182D3B
:10563000D42CDA187501EE0CFF1C882D830D6D2D0E
:1056400041E02E2D052D0E94F829832D88196D2DFE
:1056500041E02E2D0E94F829F42CF818110F8981B1
:105660008A0D6F2D41E0212F0E94F8298D2D82197E
:105670006F2D41E0212F0E94F8298A819B8197FF9D
:1056800006C00696860D971D9B838A8311C0EA810A
:10569000FB813A96C4018A199B09880F991F880FCC
:1056A000991FE80FF91FFB83EA830894A108B1084A
:1056B0000894811C911C24E030E0620E731EA81433
:1056C000B9040CF0B4CF0F900F900F90CF91DF91F1
:1056D0001F910F91FF90EF90DF90CF90BF90AF9010
:1056E0009F908F907F906F905F904F903F902F9002
:1056F0000895DF92EF92FF920F931F93F82E162FCB
:10570000D42EE22E41E001E00E94F8298F2D815035
:105710008D0D612F41E02E2D0E94F8298F2D612FD4
:105720004D2D21E00E94F82911501E0D8F2D612F63
:105730004D2D21E00E94F8291F910F91FF90EF90CD
:10574000DF900895EF92FF920F931F93F82E162F7C
:10575000062F069506950695602F0E94E32D0E9460
:105760003D2D0E943D2DE82E8F2D602F0E94E32DB0
:10577000177081E090E002C0880F991F1A95E2F738
:1057800080958E210E948A2D80E00E94D62D1F9147
:105790000F91FF90EF900895EF92FF920F931F9358
:1057A000F82E162F062F069506950695602F0E9457
:1057B000E32D0E943D2D0E943D2DE82E8F2D602F60
:1057C0000E94E32D177081E090E002C0880F991FBE
:1057D0001A95E2F78E290E948A2D80E00E94D62D2C
:1057E0001F910F91FF90EF9008953F924F925F921B
:1057F0006F927F928F929F92AF92BF92CF92DF92E1
:10580000EF92FF920F931F93CF93DF93D82EC62E64
:10581000322E462E481AE42EFF24C701880F991F06
:10582000CC27DD27C81BD90B23965D2C662E762E40
:10583000AA24BB248824992481E0381641F50E2D32
:105840000C0D8D2D602F0E94CC2B9C2D9E19192F95
:105850008D2D692F0E94CC2B852D602F0E94CC2B83
:10586000852D612F0E94CC2B0419802F662D0E945C
:10587000CC2B802F672D0E94CC2B1419812F662DE5
:105880000E94CC2B812F672D0E94CC2B27C00E2D80
:105890000C0D8D2D602F0E94A22B8C2D8E19182F90
:1058A0008D2D612F0E94A22B852D602F0E94A22B8F
:1058B000852D612F0E94A22B0419802F662D0E9436
:1058C000A22B802F672D0E94A22B1419812F662DE9
:1058D0000E94A22B812F672D0E94A22BD7FF04C00C
:1058E0002696C80DD91D0DC02A96C5018E199F098F
:1058F000880F991F880F991FC80FD91F0894E108B6
:10590000F1080894A11CB11C84E090E0880E991E57
:10591000D3945A9463947A94EA14FB040CF08CCFD9
:10592000DF91CF911F910F91FF90EF90DF90CF907B
:10593000BF90AF909F908F907F906F905F904F90AF
:105940003F9008952F982D982C9840985A98279A10
:10595000259A249A389A529A8BB18F708BB985B157
:10596000807F85B98AB1806F8AB984B18F6084B92C
:10597000089540985A98882319F0813021F402C084
:10598000409A08955A9A0895F8940E94B92C8BB1C0
:10599000806F8BB985B18F6085B92F988AB18F7070
:1059A0008AB984B1807F84B92D9A2C9A00000000B6
:1059B0000AC02C9800000000000000002C9A000093
:1059C00000000000000089B193B187FDF2CF2C9850
:1059D0002D988AB1806F8AB984B18F6084B9789428
:1059E00008951F93162FF8940E94C42C2F982D9879
:1059F0002C9A8AB1806F8AB984B18F6084B98BB1D7
:105A00008F708BB99BB1812F807F892B8BB985B12A
:105A1000807F85B985B11F70812B85B9000000009A
:105A20000000000000000000000000002C987894A6
:105A30001F910895F8940E94C42C2F988AB18F70FA
:105A40008AB984B1807F84B92D9A2C9A0000000015
:105A500000000000000000000000000029B183B138
:105A60002C982D989AB1906F9AB994B19F6094B97F
:105A700078948F70207F822B0895F8948091510440
:105A800082958695869583700E94C42C2F9A8AB140
:105A90008F708AB984B1807F84B92D9A2C9A0000C6
:105AA000000000000000000000000000000099B1AC
:105AB00083B12C982D9878948F70907F892B0895BE
:105AC00008958093510480E060E40E94F12C1092CC
:105AD000530481E060E40E94F12C109255048091FF
