:100000000C942C070C9449070C9449070C940A1C77
:100010000C9449070C9449070C9449070C94490720
:100020000C9449070C94EC2F0C9449070C94732BF7
:100030000C9449070C94002B0C94122B0C94490738
:100040000C9449070C9449070C94932A0C94490783
:100050000C9449070C942F1C0C9449070C944907E5
:100060000C9489270C9449073A002B002D004D650C
:100070006E753D457869742C205365743D2D2C2098
:100080002B004750532054696D653A2020202020D2
:100090002020205554430047505320446174653A52
:1000A00020004F66667365743A00475053205365CD
:1000B00074757000120412056472617700796561CD
:1000C000722100646174652100646F6E6520696E41
:1000D00069740041626F7574004750532053657412
:1000E000757000526F746174650052616E646F6D5B
:1000F0000054696D657353714368726F6E005844A4
:10010000414C494368726F6E00536576656E436873
:10011000726F6E00496E7472756465724368726FB7
:100120006E00524154544368726F6E0073657420C0
:10013000736563730073656300736574206D696E26
:1001400073006368616E6765206D696E0073657426
:1001500020686F7572006368616E67652068720061
:10016000736574206D696E73006368616E676520E6
:100170006D696E0073657420686F757200636861E5
:100180006E67652068722E002020202020455520B3
:1001900032346872002020202020455520313268FA
:1001A0007200202020202055532032346872002015
:1001B0002020202055532031326872005265676933
:1001C0006F6E3A2000736574207965617200636810
:1001D000616E67652079722E0073657420646174A6
:1001E00065006368616E676520646179007365749A
:1001F000206D6F6E2E006368616E6765206D6F6E97
:100200000020202020200020202020200044617495
:10021000653A004D6F64653A00536574204261632E
:100220006B6C696768743A20005365742054696D7B
:10023000653A200053657420416C61726D3A20204C
:10024000009F1058BC1C16163F3F16161CBC5800C9
:10025000000000101EB87D363C3C3C3C367DB81E8C
:1002600000000000109C9E5E76375F5F37765E9ED2
:100270009C0000000010181C9C56B65F5FB6569C90
:100280001C18000000001070187DB6BC3C3CBCB6C9
:100290007D187000000000101C5EFEB6375F5F37EF
:1002A000B6FE5E1C000000000CF8FCFEFE3F1F1FA7
:1002B0003FFEFEFCF84932433A204255535F455217
:1002C000524F520D0A004932433A204E4F5F494E79
:1002D000464F0D0A004932433A2053542D3E4441C3
:1002E00054415F4E41434B206F72204C4153545F49
:1002F000444154410D0A004932433A2053542D3EA3
:10030000444154415F41434B0D0A004932433A2076
:1003100053542D3E534C415F41434B0D0A0049322B
:10032000433A2053522D3E53525F53544F500D0ABF
:10033000004932433A2053522D3E444154415F4ECE
:1003400041434B0D0A004932433A2053522D3E445B
:100350004154415F41434B0D0A004932433A205317
:10036000522D3E534C415F41434B0D0A00493243ED
:100370003A204D522D3E534C415F41434B0D0A00F4
:100380004932433A204D522D3E444154415F41434E
:100390004B0D0A004932433A204D542D3E41524202
:1003A0005F4C4F53540D0A004932433A204D54528A
:1003B0002D3E534C415F4E41434B206F72204D54B4
:1003C0002D3E444154415F4E41434B0D0A0049329A
:1003D000433A204D522D3E444154415F4E41434BE0
:1003E0000D0A004932433A204D542D3E534C415F93
:1003F00041434B206F7220444154415F41434B0DB8
:100400000A004932433A204D2D3E53544152540D77
:100410000A000C0FFFFF0A11FFFF0912FFFF080B74
:100420001013070B1014060A1115060A1115050AF8
:100430001116050A1116040A1117040912170309E7
:1004400012180309121803091218020912180209D6
:1004500012190209121902091219020912190109C5
:10046000121A0109121A0109121A0109121A0109B4
:10047000121A0109121A0109121A0109121A0109A4
:10048000121A0109121A0009121B0009121B000995
:10049000121B0009121B0009121B0009121B000984
:1004A000121B0109121A0109121A0109121A010973
:1004B000121A0109121A0109121A0109121A010964
:1004C000121A0109121A0209121902091219020953
:1004D0001219020912190209121803091218030944
:1004E00012180309121804091217040A1117050A31
:1004F0001116050A1116060A1115060A1115070B21
:100500001014080B10130912FFFF0A11FFFF0C0F44
:10051000FFFF1111FFFF0F11FFFF0E11FFFF0C1165
:10052000FFFF0B11FFFF0911FFFF0811FFFF06116D
:10053000FFFF0511FFFF0311FFFF02050811020372
:1005400009110911FFFF0911FFFF0911FFFF0A112E
:10055000FFFF0A11FFFF0A11FFFF0A11FFFF0A1137
:10056000FFFF0A11FFFF0A11FFFF0A11FFFF0A1127
:10057000FFFF0A11FFFF0A11FFFF0A11FFFF0A1117
:10058000FFFF0A11FFFF0A11FFFF0A11FFFF0A1107
:10059000FFFF0A11FFFF0A11FFFF0A11FFFF0A11F7
:1005A000FFFF0A11FFFF0A11FFFF0A11FFFF0A11E7
:1005B000FFFF0A11FFFF0A11FFFF0A11FFFF0A11D7
:1005C000FFFF0A11FFFF0A11FFFF0A11FFFF0A11C7
:1005D000FFFF0A11FFFF0A11FFFF0A11FFFF0A11B7
:1005E000FFFF0A11FFFF0A11FFFF0A11FFFF0912A7
:1005F000FFFF0912FFFF0912FFFF0912FFFF081298
:10060000FFFF0713FFFF0416FFFF0218FFFF02188A
:10061000FFFF0C10FFFF0A12FFFF0913FFFF081472
:10062000FFFF0715FFFF0616FFFF0616FFFF051762
:10063000FFFF0517FFFF0417FFFF0418FFFF030666
:100640000D1803050E1803040F1802040F180203F7
:1006500010180203101801021118010211181118C4
:10066000FFFF1118FFFF1118FFFF1118FFFF1118EE
:10067000FFFF1118FFFF1117FFFF1117FFFF1117E1
:10068000FFFF1116FFFF1016FFFF1015FFFF1015DB
:10069000FFFF0F14FFFF0F14FFFF0F13FFFF0E13D9
:1006A000FFFF0E12FFFF0E11FFFF0D11FFFF0D10D8
:1006B000FFFF0C0FFFFF0C0FFFFF0B0EFFFF0B0DDB
:1006C000FFFF0A0D1B1B0A0C1B1B090B1A1B090B36
:1006D0001A1B080A191B0709191A0708181A06080D
:1006E000141A061AFFFF051AFFFF051AFFFF041967
:1006F000FFFF0319FFFF0319FFFF0219FFFF021994
:10070000FFFF0119FFFF0019FFFF0018FFFF00188E
:10071000FFFF0C11FFFF0A14FFFF0915FFFF08166A
:10072000FFFF0716FFFF0617FFFF0517FFFF04086F
:100730000B1804060D1803050E1803040F18020405
:1007400010180203101802031018020210181018D3
:10075000FFFF1018FFFF1018FFFF1017FFFF101703
:10076000FFFF1016FFFF1016FFFF0F15FFFF0F14FE
:10077000FFFF0E14FFFF0D15FFFF0C16FFFF0B17F9
:10078000FFFF0918FFFF0918FFFF0919FFFF0B19E9
:10079000FFFF0C19FFFF0E1AFFFF0F1AFFFF101AC1
:1007A000FFFF111AFFFF121AFFFF121AFFFF131AA1
:1007B000FFFF131AFFFF141AFFFF141AFFFF141A8A
:1007C000FFFF141AFFFF141AFFFF151AFFFF151A77
:1007D000FFFF1519FFFF1519FFFF1519FFFF02068F
:1007E0001518010714180108141800091417000936
:1007F0001416000A1316010B1215010C1114011323
:10080000FFFF0212FFFF0311FFFF040FFFFF060CA3
:10081000FFFF1317FFFF1217FFFF1217FFFF11173C
:10082000FFFF1117FFFF1017FFFF1017FFFF0F1734
:10083000FFFF0F17FFFF0E17FFFF0E17FFFF0D172C
:10084000FFFF0D17FFFF0C17FFFF0C17FFFF0B0D2E
:100850000F170B0D0F170A0C0F170A0C0F17090BA8
:100860000F17090B0F17080A0F17080A0F170709A8
:100870000F1707090F1706080F1706080F170507A8
:100880000F1705070F1704060F1704060F170305A8
:100890000F1703050F1702040F1702040F170103A8
:1008A0000F1701030F1700020F1700020F170002A6
:1008B0000F17001BFFFF001BFFFF001BFFFF001BAC
:1008C000FFFF001BFFFF001BFFFF001BFFFF001BC4
:1008D000FFFF001BFFFF001BFFFF001BFFFF0F17A9
:1008E000FFFF0F17FFFF0F17FFFF0F17FFFF0F1778
:1008F000FFFF0F17FFFF0F17FFFF0F17FFFF0F1768
:10090000FFFF0F17FFFF0F17FFFF0F17FFFF0F1757
:10091000FFFF081BFFFF081AFFFF081AFFFF081A56
:10092000FFFF071AFFFF0719FFFF0719FFFF07194E
:10093000FFFF0719FFFF0618FFFF0618FFFF061845
:10094000FFFF0607FFFF0607FFFF0607FFFF05077C
:10095000FFFF0506FFFF0506FFFF0506FFFF050673
:10096000FFFF040CFFFF040FFFFF0411FFFF041241
:10097000FFFF0414FFFF0414FFFF0315FFFF03161E
:10098000FFFF0316FFFF0317FFFF0317FFFF021808
:10099000FFFF0218FFFF0A18FFFF0C19FFFF0E19D7
:1009A000FFFF1019FFFF1119FFFF1219FFFF1319A5
:1009B000FFFF1319FFFF1419FFFF1419FFFF15198B
:1009C000FFFF1519FFFF1519FFFF1619FFFF161975
:1009D000FFFF1619FFFF1618FFFF03051618020682
:1009E0001518010815170109151700091417000A31
:1009F0001416000B1315000D12150114FFFF01133F
:100A0000FFFF0212FFFF0311FFFF040FFFFF060CA1
:100A1000FFFF181AFFFF151AFFFF131AFFFF111728
:100A2000FFFF1016FFFF0E14FFFF0D13FFFF0C1248
:100A3000FFFF0B11FFFF0A10FFFF0910FFFF080F58
:100A4000FFFF080EFFFF070EFFFF060DFFFF060D5D
:100A5000FFFF050DFFFF050CFFFF040CFFFF040C5B
:100A6000FFFF040BFFFF030BFFFF030BFFFF030B55
:100A7000FFFF020A0D110214FFFF0215FFFF02160D
:100A8000FFFF010B0E17010A1018010A10180109C7
:100A9000111901091119010911190109121A010984
:100AA000121A0109121A0109121A0109121A01096E
:100AB000121B0109121B0109121B0109121B01095A
:100AC000121B0109121B0109121B0109121A01094B
:100AD000121A0209121A0209121A0209121A02093A
:100AE0001219030A1219030A1219030A1218040A26
:100AF0001218040A1218050A1217050B1217060B12
:100B00001116070C11150814FFFF0A13FFFF0C1034
:100B1000FFFF031BFFFF031BFFFF021AFFFF021A69
:100B2000FFFF021AFFFF021AFFFF0219FFFF02195F
:100B3000FFFF0219FFFF0219FFFF0118FFFF011855
:100B4000FFFF0118FFFF010414180103141801022C
:100B500013170002131700011317000113170001E8
:100B60001216000112161216FFFF1216FFFF1116C1
:100B7000FFFF1115FFFF1115FFFF1115FFFF1115E5
:100B8000FFFF1014FFFF1014FFFF1014FFFF1014DD
:100B9000FFFF0F14FFFF0F13FFFF0F13FFFF0F13D4
:100BA000FFFF0E13FFFF0E12FFFF0E12FFFF0E12CC
:100BB000FFFF0D12FFFF0D12FFFF0D11FFFF0D11C3
:100BC000FFFF0C11FFFF0C11FFFF0C10FFFF0C10BB
:100BD000FFFF0C10FFFF0B10FFFF0B10FFFF0B0FB1
:100BE000FFFF0B0FFFFF0A0FFFFF0A0FFFFF0A0EA9
:100BF000FFFF0A0EFFFF090EFFFF090EFFFF090EA0
:100C0000FFFF090DFFFF080DFFFF080DFFFF080D97
:100C1000FFFF0B11FFFF0814FFFF0715FFFF060B77
:100C20001016050A111704091218040912180308EE
:100C300013180308131902081319020813190208DC
:100C400013190208131901081319010913190109CD
:100C50001319010A1319010A1319010B1319020BB5
:100C60001318020C1218020D1217020E1216030F9F
:100C700011150314FFFF0312FFFF0412FFFF0513FA
:100C8000FFFF0514FFFF0615FFFF0716FFFF0816FD
:100C9000FFFF0917FFFF0917FFFF0718FFFF060AED
:100CA0000C1805090D1904090E1903080E1903087B
:100CB0000F1A0208101A0208111A0107111A010767
:100CC000121A0107121A0107121A0107131A010753
:100CD000131A0107131A0107131A0107131A010740
:100CE000131A010713190107131901081319020830
:100CF0001318020812180308121703091117040A1F
:100D00001116050B10150614FFFF0812FFFF0A0F3E
:100D1000FFFF0B10FFFF0812FFFF0713FFFF060B7B
:100D20000F14050A1015050A1116040911160409F5
:100D300011170309111703091118020912180209E2
:100D400012190209121901091219010912190109CE
:100D5000121A0109121A0109121A0109121A0109BB
:100D6000121A0109121A0109121A0109121A0109AB
:100D7000121A0109121A0109121A0109121A01099B
:100D8000121A010A121A020A121A020A121A020A84
:100D9000121A030A121A030B121A040C111A041A5B
:100DA000FFFF051AFFFF0619FFFF070F11190A0CB5
:100DB00011191019FFFF1018FFFF1018FFFF10186E
:100DC000FFFF0F17FFFF0F17FFFF0F16FFFF0E1696
:100DD000FFFF0E15FFFF0E15FFFF0D14FFFF0D1394
:100DE000FFFF0C13FFFF0B12FFFF0B11FFFF0A1099
:100DF000FFFF090FFFFF080EFFFF070DFFFF050BA9
:100E0000FFFF040AFFFF0108FFFF0105FFFF0102CA
:100E1000FFFF20746F2000507265737320005345EC
:100E200054002B0073617665006368616E6765002E
:100E300073617665005345540065786974004D45CB
:100E40004E55007365740053455400616476616EBD
:100E50006365004D454E550011241FBECFEFD8E00D
:100E6000DEBFCDBF11E0A0E0B1E0E0EFFFE602C0E1
:100E700005900D92A837B107D9F713E0A8E7B1E0C4
:100E800001C01D92A130B107E1F70E941D310C9401
:100E9000F6370C940000AF92BF92CF92DF92EF92A0
:100EA000FF920F931F93CF93DF9300E010E00E9417
:100EB000562ADD24CC24AA24BB24CC2009F045C02A
:100EC000E801C75CDD4F0F5F1F4FCE010E94E03786
:100ED000E82E8FEFE816C1F4DD2019F0CC24C3947E
:100EE00034C087E090E00E94E0378093E0020E94E7
:100EF0006922DF91CF911F910F91FF90EF90DF90CA
:100F0000CF90BF90AF900895DD2019F45801AE0C3A
:100F1000B11C2E2D30E0C901880F991F820F931F3D
:100F2000909581959F4F815C6D2D0E944C2AFE2CDF
:100F300007C0CE010E94E03760E00E943D23FA9492
:100F40002196FF20B1F70E0D111DD39488E0D8161D
:100F500009F0B3CF84EF91E00E948D328501A7CFD5
:100F60000F931F9388E090E00E94E0378093F9018F
:100F70000E94562A8AEA90E060E00E94772388E087
:100F800062E00E944C2A82EA90E060E00E947723AF
:100F900088E064E00E944C2A87E990E060E00E94CB
:100FA000772388E065E00E944C2A82E890E060E0C8
:100FB0000E94772388E067E00E944C2A8EE690E04A
:100FC00060E00E94772391E000ED18E38091A30197
:100FD000882391F18091A301823089F0843019F047
:100FE000813041F518C08091F9018F5F8093F9013C
:100FF0008091F9018933ECF01093F9011AC08091C6
:10100000F90181508093F9018091F901803D8CF4C0
:101010000093F9010EC087E090E00E94E0378093D2
:10102000E0020E94562A82E68093E9021F910F9106
:10103000089591E01092A301992341F26091F90182
:1010400088E090E00E94E83785E362E00E944C2A45
:101050008091F90187FF03C08CE690E002C08AE628
:1010600090E060E00E9477238091F901992787FD45
:10107000909597FF03C0909581959F4F9595879583
:101080009595879560E00E94DE3088E690E060E00C
:101090000E9477238091F901282F332727FD30956F
:1010A00037FF03C0309521953F4F23703070C90141
:1010B00034E0880F991F3A95E1F7821B60E00E94A7
:1010C000DE3090E083CF8091020181508093020155
:1010D0008823F1F485E080930201809100018093E0
:1010E000780190910101980F90930001903218F0CF
:1010F0008FEF80930101992319F481E0809301011E
:1011000090E080917901882309F491E0909379012E
:101110000895FF920F931F93082FF62E6AE00E9406
:101120006737182F805D6F2D0E943D23005D86EF8D
:101130009FEF189F102D1124812F800F6F2D0E947B
:101140003D231F910F91FF9008951F93182F80E06A
:1011500060E00E944C2A80919E02612F0E948908C3
:1011600080919D02612F0E94890886E660E00E94BE
:101170004C2A80919F02612F0E94890880919C02D5
:10118000612F0E9489081F9108950F931F93082FC4
:1011900014E1812F67E00E944C2A86E0602F0E94B4
:1011A0000D23185E1437A9F71F910F910895DF9250
:1011B000EF92FF920F931F93E82E90910001809180
:1011C0007801981718F4892F805A02C0892F81500E
:1011D00068E041E020E30E2D0E949F2360E083E061
:1011E000D82E15C080910001800F612F0E944C2ADB
:1011F000809179018D9DC00111248F0D6E2D0E946B
:101200000D23005F003671F7163039F0612FF62E8E
:10121000F69400E0162F1F5FE5CF1F910F91FF900E
:10122000EF90DF9008951F93182F8091F30188238A
:1012300059F48091F401882339F49091F701809159
:101240007B01891709F44EC01092F4018091F401DA
:101250008093F30180917A01882309F043C081E0F3
:1012600080937A018091F70180937B018091D8026D
:101270000E94613480939E028091E30280939D02DC
:101280008091F701833049F48091E7020E94613434
:1012900080939F028091DD021BC08091F701813015
:1012A00031F484E180939F028091DC0211C080912F
:1012B000E602882339F48091ED0280939F028091A9
:1012C000E20206C08091E20280939F028091ED02CB
:1012D00080939C0280917A01815080937A01812FC2
:1012E0000E94A5081F9108951F93182F0E94D708E8
:1012F0008091E802882321F480917C01882339F0D1
:10130000812F0E94C5088091E80280937C01812F83
:101310000E9413091F9108950F931F93182F80E0C7
:1013200060E040E820E4012F0E949F2383E6809341
:101330007B01812F0E941309812F0E94A508812F14
:101340000E94D708812F0E94C5081F910F91089510
:1013500081E0809300011092780180E00E948C0966
:101360000895803819F4E0E0F0E027C087FF08C056
:1013700081950E94B109EE27FF27E81BF90B1DC0DC
:10138000803419F4EFEFFFE718C0A82FBB27A7FDA3
:10139000B09580343CF4AA0FBB1FAB51BF4FED9109
:1013A000FC910BC0E1E7F0E0EA1BFB0BEE0FFF1F27
:1013B000ED5FFE4F0190F081E02DCF010895805C3C
:1013C0000E94B10908951F93FC0180819181A2813F
:1013D000B3819C01241B350B1EEF2D30310744F0E7
:1013E000245F31402CF4408351836283738312C0A5
:1013F000481759076A077B0728F4845F9140A0408B
:10140000B04004C08C509E4FAF4FBF4F808391833C
:10141000A283B3831F9108952F923F924F925F92C0
:101420006F927F928F929F92AF92BF92CF92DF92F4
:10143000EF92FF920F931F93DF93CF93CDB7DEB759
:1014400064970FB6F894DEBF0FBECDBF27013801F9
:101450001401E60EF71E081F191FE986FA860B878E
:101460001C87EE24FF248701E418F50806091709F4
:10147000E982FA820B831C83E4E1EE2EE5E0FE2E86
:10148000012D112DE61AF70A080B190BED82FE82C9
:101490000F83188779018A016D877E878F87988BE4
:1014A000C501D6015C016D01992420E0BAC0B601E6
:1014B000A5014E0D5F1D601F711F498B5A8B6B8BF1
:1014C0007C8B6D857E858F859889640D751D861D45
:1014D000971D6D877E878F87988B89899A89AB89BD
:1014E000BC89895A9641A040B0408CF0D094C094F9
:1014F000B094A094A11CB11CC11CD11C48EA56E1B7
:1015000060E070E0498B5A8B6B8B7C8B19C06989CA
:101510007A898B899C89683C71058105910584F4E1
:10152000D094C094B094A094A11CB11CC11CD11C37
:1015300088EC90E0A0E0B0E0898B9A8BAB8BBC8B01
:1015400049855A856B857C854C555B42604070406F
:10155000B4F08D859E85AF85B88984199509A60953
:10156000B7098C559B42A040B0404CF46D817E8100
:101570008F819885685B794D8F4F9F4F1AC0498541
:101580005A856B857C85455155406040704024F5F7
:101590008D859E85AF85B88984199509A609B709F7
:1015A00085519540A040B040BCF06D817E818F8117
:1015B0009885A30192010E94BC37C601B5010E9423
:1015C0004837E60EF71E081F191FD101ED92FD9254
:1015D0000D931C93139704C0222311F4939401C01C
:1015E00021E0E984FA840B851C85E40CF51C061DBA
:1015F000171DE986FA860B871C874D815E816F81F6
:10160000788589819A81AB81BC81480F591F6A1FF7
:101610007B1F4D835E836F837887E988FA880B8907
:101620001C898D859E85AF85B88989559240A040DB
:10163000B0408F5B9B42A040B04008F438CFC80157
:10164000B70124E630E040E050E00E94BC37E9A555
:10165000FAA52083318342835383892D64960FB684
:10166000F894DEBF0FBECDBFCF91DF911F910F91D8
:10167000FF90EF90DF90CF90BF90AF909F908F90B2
:101680007F906F905F904F903F902F900895EF92D2
:10169000FF920F931F9380E00E949435A0E0B0E08A
:1016A000BC01CD0122E230E040E050E00E9448372A
:1016B0002FEF3FE740E050E00E949A3779018A011E
:1016C00081E00E9494352FE030E040E050E0E20EEF
:1016D000F31E041F151F8295880F880F807C8E0DC6
:1016E0001F910F91FF90EF9008952F923F924F928C
:1016F0005F926F927F928F929F92AF92BF92CF92A2
:10170000DF92EF92FF920F931F93CF93DF931C0111
:10171000EB012A016091C2027091C3028091C40260
:101720009091C502E090B002F090B1020091B20237
:101730001091B302A090B602B090B702C090B80268
:10174000D090B9026090AC027090AD028090AE0271
:101750009090AF022223F9F000D0EDB7FEB7D2830C
:10176000C183A801970186017501640153014101FC
:101770000E940C0A8093B4021092B502F10180819C
:101780009181A281B381F20180839183A283B3838B
:101790008091F3011DC000D0EDB7FEB732822182E7
:1017A000A801970186017501640153014E010E9451
:1017B0000C0A8093B4021092B50288819981AA81A3
:1017C000BB81F20180839183A283B3838091F40172
:1017D0000F900F90882311F021E001C020E0F2016A
:1017E00080819181A281B38130E7E32E3EEFF32E19
:1017F0003FEF032F3FEF132FE80EF91E0A1F1B1FA9
:10180000E082F18202831383222399F1F5E5EF163A
:10181000F8E0FF06F0E00F07F0E01F0728F4805320
:10182000984FAF4FBF4F20C0FBEAEF16F0E1FF0625
:10183000F0E00F07F0E01F0728F0805F9A40A0401B
:10184000B04012C082E00E949435892B29F480EACE
:1018500096EFAFEFBFEF04C080E699E0A0E0B0E004
:101860008E0D9F1DA01FB11FF20180839183A28363
:10187000B3838091B402DF91CF911F910F91FF90BC
:10188000EF90DF90CF90BF90AF909F908F907F9020
:101890006F905F904F903F902F900895AF92BF92BE
:1018A000CF92DF92EF92FF920F931F93F62ED42EDA
:1018B000B22E882361F56091BE027091BF028091C3
:1018C000C0029091C10224E630E040E050E00E9466
:1018D000BC37122F6091CE027091CF028091D0025E
:1018E0009091D10224E630E040E050E00E94BC3705
:1018F000812F622F44E024E00F2DE4E0EE2E7AE009
:10190000C72E50E1A52E0E94E635882331F08F2D99
:1019100064E04D2D2B2D0E94F1361F910F91FF9009
:10192000EF90DF90CF90BF90AF9008950F931F93EB
:10193000182F062F80919E026AE00E946737482F79
:10194000812F6EE1202F0E944E0C80919E026AE052
:101950000E946737812F6DE2492F202F0E944E0C85
:1019600080919F026AE00E946737482F812F66E4CA
:10197000202F0E944E0C80919F026AE00E946737E0
:10198000812F65E5492F202F0E944E0C1F910F914A
:1019900008950F931F93082F10E08FE3612F0E948B
:1019A0004C2A002311F080EF01C08FE00E94F32940
:1019B0001F5F173091F78FE367E00E944C2A0023E6
:1019C00011F080E201C08FEC0E94F3291F910F916A
:1019D00008959091F70180917E01981739F081E088
:1019E00080937D018091F70180937E018091F701C2
:1019F000813059F1813030F08230C9F1833009F003
:101A000048C03DC08091F301882321F48091F40106
:101A1000882391F08091F401882339F08091E402C9
:101A20000E94613480939E0204C08091F301882358
:101A300081F18091DA0220C08091D8020E94613445
:101A400080939E028091E30217C08091E602882372
:101A500039F48091ED0280939E028091E2020CC0E5
:101A60008091E20280939E028091ED0205C084E1A4
:101A700080939E028091DC0280939F020895809162
:101A8000E7020E94613480939E028091DD02809380
:101A90009F020895AF92CF92DF92EF92FF920F9341
:101AA0001F93D82E0E94E90C6091BE027091BF0274
:101AB0008091C0029091C10224E630E040E050E005
:101AC0000E94BC37122F6091CE027091CF0280919C
:101AD000D0029091D10224E630E040E050E00E9434
:101AE000BC37812F622F44E024E00D2D0E949F23FC
:101AF000FF24DD2011F4FF24F3946091C202709161
:101B0000C3028091C4029091C50224E630E040E017
:101B100050E00E94BC37122F6091B0027091B10268
:101B20008091B2029091B30224E630E040E050E0B0
:101B30000E94BC37812F622F44E024E00F2D0E94C9
:101B40009F236091BE027091BF028091C00290916C
:101B5000C10224E630E040E050E00E94BC37122F82
:101B60006091CE027091CF028091D0029091D1020B
:101B700024E630E040E050E00E94BC37812F622F25
:101B800044E024E00FE3EE24CC24C39490E4A92E97
:101B90000E94E635882319F08D2D0E94C90C2091F2
:101BA000A0023091A1024091A2025091A302809123
:101BB000A4029091A502A091A602B091A7022817B5
:101BC00039074A075B0779F0CA01B90124E630E01A
:101BD00040E050E00E94BC378AE0622F43E02CE0F6
:101BE0000D2D0E949F236091A4027091A502809107
:101BF000A6029091A70224E630E040E050E00E9467
:101C0000BC378AE0622F43E02CE00F2D0E949F2317
:101C10002091CA023091CB024091CC025091CD026A
:101C20008091C6029091C702A091C802B091C902EA
:101C3000281739074A075B0779F0CA01B90124E67A
:101C400030E040E050E00E94BC3783E7622F43E081
:101C50002CE00D2D0E949F236091C6027091C70257
:101C60008091C8029091C90224E630E040E050E043
:101C70000E94BC3783E7622F43E02CE00F2D0E94C7
:101C80009F236091BE027091BF028091C00290912B
:101C9000C10224E630E040E050E00E94BC37022F51
:101CA0006091CE027091CF028091D0029091D102CA
:101CB00024E630E040E050E00E94BC37122F6091F3
:101CC000C6027091C7028091C8029091C90224E6B1
:101CD00030E040E050E00E94BC37E22E802F612FC0
:101CE00044E024E003E713E0C12EBCE0AB2E0E94E9
:101CF000E6358823A9F06091C6027091C7028091F1
:101D0000C8029091C90224E630E040E050E00E9411
:101D1000BC3783E7622F43E02CE00F2D0E949F2306
:101D20006091BE027091BF028091C0029091C10289
:101D300024E630E040E050E00E94BC37022F609182
:101D4000CE027091CF028091D0029091D10224E610
:101D500030E040E050E00E94BC37122F6091A402B6
:101D60007091A5028091A6029091A70224E630E02E
:101D700040E050E00E94BC37E22E802F612F44E00B
:101D800024E00AE0A3E0CA2EFCE0AF2E0E94E63574
:101D90008823A9F06091A4027091A5028091A60207
:101DA0009091A70224E630E040E050E00E94BC376A
:101DB0008AE0622F43E02CE00F2D0E949F231092B7
:101DC000700080917D01882311F010927D0181E0E7
:101DD000809370006D2D0E94960C1F910F91FF90C3
:101DE000EF90DF90CF90AF9008956F927F928F9297
:101DF0009F92AF92BF92CF92DF92EF92FF920F939A
:101E00001F938091C2029091C302A091C402B0912D
:101E1000C5028093BE029093BF02A093C002B0930C
:101E2000C1022091B0023091B1024091B2025091B2
:101E3000B3022093CE023093CF024093D00250934E
:101E4000D1026090B6027090B7028090B802909074
:101E5000B90264015301A80EB91ECA1EDB1EA0926E
:101E6000C202B092C302C092C402D092C502E090F6
:101E7000AC02F090AD020091AE021091AF02D80119
:101E8000C701820F931FA41FB51F8093B0029093C8
:101E9000B102A093B202B093B302895A9641A04016
:101EA000B040DCF088EA96E1A0E0B0E08093B002B8
:101EB0009093B102A093B202B093B30288279927FE
:101EC000DC018E199F09A00BB10B8093AC0290939B
:101ED000AD02A093AE02B093AF028091B002909198
:101EE000B102A091B202B091B302883C9105A10564
:101EF000B1051CF588EC90E0A0E0B0E08093B00262
:101F00009093B102A093B202B093B3028091AC025D
:101F10009091AD02A091AE02B091AF02B095A095A4
:101F2000909581959F4FAF4FBF4F8093AC02909398
:101F3000AD02A093AE02B093AF0284EDA81680E389
:101F4000B80680E0C80680E0D806ECF4C601B5010A
:101F500024E630E040E050E00E94BC3712169CF4CA
:101F6000611471048104910409F0CEC08091AC0227
:101F70009091AD02A091AE02B091AF020097A10581
:101F8000B10509F0C1C08CE998E1A0E0B0E0809310
:101F9000C2029093C302A093C402B093C5028CE125
:101FA0009CE0A0E0B0E08093B0029093B102A093D7
:101FB000B202B093B3020E94470B182F84EF91E056
:101FC000A0E0B0E08093B6029093B702A093B8026D
:101FD000B093B9028093AC029093AD02A093AE028D
:101FE000B093AF02812F0E94DF09AA2797FDA09529
:101FF000BA2FBC01CD0124EF31E040E050E00E9457
:1020000048376093B6027093B7028093B8029093FA
:10201000B902A090AC02B090AD02C090AE02D090D8
:10202000AF02812F0E94B1097C016091B6027091CC
:10203000B7028091B8029091B9022FEF3FE740E0DC
:1020400050E00E94BC372093B6023093B702409311
:10205000B8025093B9020027F7FC0095102FC80171
:10206000B701A60195010E9448372FEF3FE740E0F6
:1020700050E00E94BC372093AC023093AD024093F5
:10208000AE025093AF0260918C0120918B01261B10
:102090008AE043E000E00E949F2360918E0120913E
:1020A0008D01261B83E743E00E949F2310928D0140
:1020B00010928E0110928B0110928C0181E080931E
:1020C0007D011092F4018091F4018093F30120E0EE
:1020D0008091B6029091B702A091B802B091B90276
:1020E000181619061A061B060CF421E08FE791E07A
:1020F00063E871E047E851E00E94750B8093B402F9
:102100001092B5020E94E90C8091A4029091A50260
:10211000A091A602B091A7028093A0029093A10281
:10212000A093A202B093A3028091C6029091C7022D
:10213000A091C802B091C9028093CA029093CB02C9
:10214000A093CC02B093CD028091B6029091B702D9
:10215000A091B802B091B902B7FF2AC08091C20223
:102160009091C302A091C402B091C50280509941E0
:10217000A040B0400CF04BC08091F301882349F09F
:1021800040918701509188016091890170918A0185
:102190000CC04091B0025091B1026091B2027091B6
:1021A000B302405951406040704084EA92E02CC034
:1021B0000097A105B10599F18091C2029091C302E7
:1021C000A091C402B091C50281509941A040B04095
:1021D00034F18091F401882349F0409187015091B6
:1021E00088016091890170918A010CC04091B00210
:1021F0005091B1026091B2027091B30240595140C6
:102200006040704086EC92E00E94E30915C08FE7C1
:1022100091E063E871E047E851E021E007C08FE713
:1022200091E063E871E047E851E020E00E94750B1F
:102230008093B4021092B5028091A4029091A502FD
:10224000A091A602B091A702893C9105A105B10514
:1022500064F489EC90E0A0E0B0E08093A402909355
:10226000A502A093A602B093A7028091C602909106
:10227000C702A091C802B091C902893C9105A1058D
:10228000B10564F489EC90E0A0E0B0E08093C60270
:102290009093C702A093C802B093C9028091A40290
:1022A0009091A502A091A602B091A70288589341EF
:1022B000A040B04064F087E893E1A0E0B0E08093F4
:1022C000A4029093A502A093A602B093A7028091C6
:1022D000C6029091C702A091C802B091C902885865
:1022E0009341A040B04064F087E893E1A0E0B0E003
:1022F0008093C6029093C702A093C802B093C9020C
:102300008091B6029091B702A091B802B091B90243
:10231000181619061A061B060CF05DC06091C20261
:102320007091C3028091C4029091C50224E630E00E
:1023300040E050E00E94BC37022F6091B0027091E3
:10234000B1028091B2029091B30224E630E040E005
:1023500050E00E94BC37122F6091C6027091C702F4
:102360008091C8029091C90224E630E040E050E03C
:102370000E94BC37E22E802F612F44E024E003E767
:10238000E3E0CE2E7CE0A72E0E94E635882319F1EB
:102390008091B6029091B702A091B802B091B902B3
:1023A000B095A095909581959F4FAF4FBF4F80936B
:1023B000B6029093B702A093B802B093B9028CE52D
:1023C0009BE2A0E0B0E08093C2029093C302A0938E
:1023D000C402B093C5028091B6029091B702A09159
:1023E000B802B091B902B7FF5DC06091C2027091AE
:1023F000C3028091C4029091C50224E630E040E01F
:1024000050E00E94BC37022F6091B0027091B1027F
:102410008091B2029091B30224E630E040E050E0B7
:102420000E94BC37122F6091A4027091A502809186
:10243000A6029091A70224E630E040E050E00E941E
:10244000BC37E22E802F612F44E024E00AE053E005
:10245000C52E3CE0A32E0E94E635882319F1809119
:10246000B6029091B702A091B802B091B902B095AE
:10247000A095909581959F4FAF4FBF4F8093B60227
:102480009093B702A093B802B093B90284E195E0AB
:10249000A0E0B0E08093C2029093C302A093C40274
:1024A000B093C5021F910F91FF90EF90DF90CF90F6
:1024B000BF90AF909F908F907F906F900895FF9204
:1024C0000F931F93F82E80E060E040E820E40F2D8A
:1024D0000E949F2310E0FF2009F411E080E060E0FB
:1024E00040E822E0012F0E949F2380E06EE340E855
:1024F00022E00E949F236091A4027091A502809126
:10250000A6029091A70224E630E040E050E00E944D
:10251000BC378AE0622F43E02CE00E949F23609149
:10252000C6027091C7028091C8029091C90224E648
:1025300030E040E050E00E94BC3783E7622F43E088
:102540002CE00E949F230E94E90C80919E026AE089
:102550000E946737482F8EE164E02F2D0E94F136EC
:1025600080919E026AE00E9467378DE264E0492F05
:102570002F2D0E94F13680919F026AE00E946737FA
:10258000482F86E464E02F2D0E94F13680919F024F
:102590006AE00E94673785E564E0492F2F2D0E948D
:1025A000F1368F2D0E94C90C1F910F91FF90089555
:1025B00084EC99E0A0E0B0E08093C2029093C30263
:1025C000A093C402B093C5028093BE029093BF0251
:1025D000A093C002B093C1028093B0029093B10265
:1025E000A093B202B093B3028093CE029093CF0235
:1025F000A093D002B093D1028093A4029093A5023D
:10260000A093A602B093A7028093A0029093A10288
:10261000A093A202B093A3028093C6029093C70234
:10262000A093C802B093C9028093CA029093CB02D0
:10263000A093CC02B093CD020E9436351092AC022A
:102640001092AD021092AE021092AF021092B6023A
:102650001092B7021092B8021092B90280E00E9464
:102660005F1208958091EC02882341F08091F3017C
:10267000823021F08091F401823031F41092F40123
:102680008091F4018093F3010895DF92EF92FF921D
:102690000F931F93D82EE62E10E0442309F411E087
:1026A0008D2D8E5F6E2D4EE026E0012F0E949F2320
:1026B000FE2CF3948D2D8F5F6F2D41E024E00E945E
:1026C0009F2382E0E80E8D2D6E2D41E022E00E94D6
:1026D0009F238D2D805F6F2D41E024E00E949F237A
:1026E0008D2D8F5E6E2D41E022E00E949F231F9171
:1026F0000F91FF90EF90DF900895DF92EF92FF929D
:102700000F931F93D82E162FEE24442311F4EE249A
:10271000E394612F6E5F8D2D46E025E10E2D0E9422
:102720009F23FD2CF394612F6F5F8F2D44E021E0F8
:102730000E949F2382E0D80E8D2D612F42E021E080
:102740000E949F23195E8F2D612F44E021E00E949B
:102750009F231F5F8D2D612F42E021E00E949F2368
:102760001F910F91FF90EF90DF9008958436D1F084
:10277000853638F4823681F0833680F4813641F52F
:1027800007C08636C1F08636A0F0873609F51AC034
:10279000862F8C5F642F09C04B5F01C04E5D862F72
:1027A0008C5E0BC0862F8C5F6AE3422F0E9445131C
:1027B00008954E5D01C04B5F862F642F422F0E940B
:1027C0007D130895862F8C5F6DE1422F0E94451383
:1027D0000895CF92DF92EF92FF920F931F93CF93C2
:1027E000DF93C82ED62E022FC7E0D0E011E6E42EEC
:1027F000FF24C7010C2E02C0959587950A94E2F735
:1028000080FF05C0812F6C2D4D2D202F07C020E0AB
:10281000002309F421E0812F6C2D4D2D0E94B61369
:1028200021971F5F183629F7DF91CF911F910F91E4
:10283000FF90EF90DF90CF9008950F93082F80E0E6
:1028400060E040E820E40E949F230F9108950F93D9
:1028500080E060E040E820E400E00E949F230F91C8
:102860000895FF920F931F93182F062FF22E842F97
:1028700090E04A3028F4815D9D4F0E94E03704C00B
:102880008C549E4F0E94E037482F812F602F2F2DB0
:102890000E94E9131F910F91FF90089520E04423B7
:1028A00009F421E044E00E948F240895EF92FF9202
:1028B0000F931F93082F8091F7018823C9F080910F
:1028C000F7018330A9F0102F011111E080E465E1D8
:1028D00044E0212F0E948F2480E46AE244E0212F0B
:1028E0000E948F2480E466E044E0212F0E948F2420
:1028F0008091F7018230F1F480E060E042E0202F27
:102900000E9431148EE160E040E0202F0E943114DB
:102910008091DC0264E60E946737892F6AE00E949A
:102920006737482F88E460E0202F0E94311480919F
:10293000DC0230C08091F7018130B1F58091E60270
:10294000882329F41091ED02F090E20204C0109166
:10295000E202F090ED02812F6AE00E946737482F73
:1029600080E060E0202F0E943114812F6AE00E94F5
:1029700067378EE160E0492F202F0E9431148F2DA0
:102980006AE00E946737482F88E460E0202F0E94A9
:1029900031148F2D6AE00E94673786E660E0492F88
:1029A000202F0E94311480C08091F701882329F0E4
:1029B0008091F701833009F077C08091F70183306F
:1029C00029F41091E702E090DD0204C01091D802D2
:1029D000E090E3028091DB02882399F4812F0E942A
:1029E0006134F82E1C3020F420E0002321F402C0D2
:1029F00020E0011121E080E466E044E00E948F24A1
:102A000009C020E0011121E080E466E044E00E947A
:102A10008F24F12E89E08F1548F48F2D6AE00E94F3
:102A20006737482F80E060E0202F07C020E00023B8
:102A300009F421E080E060E048E00E9431148F2D2D
:102A40006AE00E9467378EE160E0492F202F0E94E4
:102A500031148E2D6AE00E946737482F88E460E0C9
:102A6000202F0E9431148E2D6AE00E94673786E67F
:102A700060E0492F202F0E9431148091F5018823B6
:102A800099F02091EE0211E02127217080E465E1A8
:102A900044E00E948F242091EE022127217080E4DF
:102AA0006AE244E00E948F241F910F91FF90EF9003
:102AB0000895462F282F30E0862F6AE00E9467375E
:102AC000A7E4B1E0FD01E20FF31F80832F5F3F4FCA
:102AD000842F0E946737A20FB31F9C9308958091A3
:102AE000F701833019F46091E70202C06091D802C7
:102AF00080E00E9459158091F701833019F46091AC
:102B0000DD0202C06091E30283E00E9459158091CA
:102B1000F701833011F460E002C06091EE0286E0BC
:102B20000E9459158091E602882311F08CE001C0C3
:102B300089E06091ED020E9459158091E602882398
:102B400011F089E001C08CE06091E2020E94591509
:102B50006091DC028FE00E94591508958091EC028B
:102B6000882341F08091F301823021F08091F401BB
:102B7000823031F41092F4018091F4018093F301DA
:102B800008950F93502FE82FF0E030E080919201EC
:102B9000882369F480919001E81BF109F7FF11C0C7
:102BA0002E0F3F1F37FD19C0E0E0F0E00DC0C90156
:102BB0008E0F9F1F8038910524F020E830E02E1BF7
:102BC0003F0BE038F1054CF400E0442309F401E048
:102BD0008E2F422F252F0E949F230F9108950F9330
:102BE00022E106E00E94C1150F9108950F9326E09F
:102BF00000E20E94C1150F9108958436C9F0853610
:102C000038F4823679F0833680F4813629F507C0AE
:102C10008636B9F0863690F08736F1F418C0862FE4
:102C2000642F08C0862F845F0DC0862F845F07C085
:102C3000862F6AE3422F0E94EF150895862F60E2E7
:102C400002C0862F642F422F0E94F6150895862F0A
:102C50006DE1422F0E94EF150895CF92DF92EF921F
:102C6000FF920F931F93CF93DF93C82ED62E022F80
:102C7000C7E0D0E011E6E42EFF24C7010C2E02C00D
:102C8000959587950A94E2F780FF06C0812F6C2DF9
:102C90004D2D202F0E94FD1521971F5F183669F7D3
:102CA000DF91CF911F910F91FF90EF90DF90CF9028
:102CB00008950F93625024E004E00E94C1150F9123
:102CC0000895FF920F931F93182FF62E022F8093D3
:102CD00092014A3068F4842F90E0815D9D4F0E94FC
:102CE000E037482F812F6F2D202F0E942D160BC00B
:102CF0004A3339F460E1422F0E945916812F6FE266
:102D000005C04D3211F094E105C06FE1402F0E94E3
:102D1000591696E080919201882319F480919001D0
:102D2000981B892F1F910F91FF900895FF920F9389
:102D30001F93F82E809193018F5F809393018330CE
:102D4000C0F11092930180E060E040E820E40F2D94
:102D50000E949F23109191010E946F1500E027C0EF
:102D6000E12FF0E0E95BFE4F40811F5F802F60E0C4
:102D70002F2D0E946116982F123108F010E00023C9
:102D8000A9F4992371F410929001809191018F5FC1
:102D90008093910180919101823140F010929101D4
:102DA00005C0809190018E5F80939001090F07FF0D
:102DB000D7CF1F910F91FF9008950F931F93182F56
:102DC00080E060E040E820E4012F0E949F23109201
:102DD0009001109291010E946F15812F0E9496160A
:102DE0001F910F91089580E00E94DD160895DF92F3
:102DF000EF92FF920F931F93CF93DF93D82EF62E6F
:102E0000E22EF694F694F694EA0100E015C0FE0175
:102E10001491802F6CE10E946737292F2D0D802F90
:102E20000E946737682F6F0D822F0E944C2A812FD6
:102E30000E94F3290F5F21960E1548F3DF91CF9181
:102E40001F910F91FF90EF90DF900895CF92DF9246
:102E5000EF92FF920F931F93CF93DF93C82EF62E1E
:102E6000D22EE02EF694F694F694EA0110E019C002
:102E70000881812F6CE10E946737992341F4812FEB
:102E80000E946737682F6F0D8C2D0E944C2AEE2010
:102E900019F0802F809501C0802F0E94F3291F5FB9
:102EA00021961D1528F3DF91CF911F910F91FF906F
:102EB000EF90DF90CF9008957F928F929F92AF9284
:102EC000BF92CF92DF92EF92FF920F931F93DF9307
:102ED000CF93CDB7DEB7C05ED0400FB6F894DEBF5B
:102EE0000FBECDBFA82E962EB22E802EFE0131969B
:102EF00080EEDF011D928A95E9F7DA0150E09CE14E
:102F0000792E81E0C82ED12C7F011CC0F90184915B
:102F10002F5F3F4FF901749121503040482F09C075
:102F2000F801E40FF11DEE0DFF1D8081862B8083DB
:102F30004F5F4717A8F39F5F2E5F3F4F923031F7E7
:102F40005F5F14965B1588F4852F86958695869528
:102F5000879D80011124852F87706C2D01C0660F1D
:102F60008A95EAF79D0190E0D1CF8A2D692DAE01B7
:102F70004F5F5F4F20EE082D0E942617C052DF4F93
:102F80000FB6F894DEBF0FBECDBFCF91DF911F917A
:102F90000F91FF90EF90DF90CF90BF90AF909F90F8
:102FA0008F907F9008950F93942F022F592F40E018
:102FB0004E5E5B4F20E40E945C170F9108952F92A4
:102FC0003F924F925F926F927F928F929F92AF92B9
:102FD000BF92CF92DF92EF92FF920F931F93DF93F6
:102FE000CF93CDB7DEB7C35FD0400FB6F894DEBF46
:102FF0000FBECDBFC251DF4F8883CE5ED040C151DE
:10300000DF4F6883CF5ED040C051DF4F4883C05F41
:10301000D040CF50DF4F0883C15FD040FE013996CA
:1030200080EEDF011D928A95E9F780919701282EA5
:103030003324D22ECC2442E154E0C40ED51EC0511C
:10304000DF4F8881C05FD040F82EEE24E40EF51EDD
:1030500088249924B5E06B2E712C6C0E7D1ECE5009
:10306000DF4FF983E883C25FD040582DC051DF4F56
:103070008881C05FD0408F3F29F41C821B821A8256
:10308000198209C0DE011196F70184918D93319662
:10309000A615B705D1F79981C451DF4F9883CC5E4F
:1030A000D04030E09F3F09F031E08B818F3F09F045
:1030B0003F5FD301F60184918D933196CE50DF4F5F
:1030C00088819981C25FD040A817B907A1F79D8177
:1030D000C551DF4F9883CB5ED04090E0C551DF4FA4
:1030E000A881CB5ED040AF3F09F091E08F818F3F48
:1030F00009F09F5F292F931708F4232FBA81C3513A
:10310000DF4FB883CD5ED040569556955695ECE18D
:103110005E9F20011124C4018770907041E050E04F
:1031200002C0440F551F8A95E2F7C751DF4F48830D
:10313000C95ED0405E81C651DF4F5883CA5ED04021
:1031400083015E010894A11CB11C622F70E0660F20
:10315000771F660D771D69C0D5012C912F3F19F09F
:103160001196BC910AC0C451DF4F2881CC5ED0407B
:10317000C351DF4FB881CD5ED040F80180818F3FD1
:10318000B1F1A18190E030E0821B930B829DA00100
:10319000839D500D929D500D1124405F5F4FF5E0CF
:1031A00056954795FA95E1F7420F531F50708A2FB5
:1031B00090E02B2F30E0821B930B829DD001839DEA
:1031C000B00D929DB00D11245096E5E0B695A795EF
:1031D000EA95E1F7A20FB31FB070F201E40FF51FFB
:1031E00089E090E08C0F9D1FE80FF91F15C0C551B5
:1031F000DF4F8881CB5ED040C651DF4FA881CA5EC9
:10320000D040C0CF8081C751DF4F9881C95ED04088
:10321000892B81934F5F5F4F4A175B0798F30E5FCF
:103220001F4FA2E0B0E0AA0EBB1E0617170709F059
:1032300093CF0894811C911CE4E0F0E0CE0EDF1ED9
:10324000EE0EFF1EF0E48F16910409F00ECFC2516E
:10325000DF4F8881CE5ED040C151DF4F6881CF5EA5
:10326000D040AE01475F5F4F20EECF50DF4F088167
:10327000C15FD0400E942617CD50DF4F0FB6F894A3
:10328000DEBF0FBECDBFCF91DF911F910F91FF9099
:10329000EF90DF90CF90BF90AF909F908F907F90F6
:1032A0006F905F904F903F902F900895EF92FF9214
:1032B0000F931F93E82E162FFF24442311F4FF24AD
:1032C000F39413508E2D8150612F42E026E00F2D94
:1032D0000E949F231F5F8E2D8250612F44E024E0C7
:1032E0000E949F231F5F8E2D8350612F46E022E0B6
:1032F0000E949F231F910F91FF90EF9008951F93BD
:10330000182F80E464E1412F0E94561980E46AE39B
:10331000412F0E9456191F9108958091F70188232B
:1033200059F48091F501882339F01092F5018091CC
:10333000EE0281700E947F1908950F931F93CF931F
:10334000DF93182F8091F701882329F08091F701EE
:10335000833009F0C8C09091F7018091A1018917CD
:1033600009F450C080919401882309F04BC08091EA
:103370009C018093980180919D0180939901809197
:103380009E0180939A0180919F0180939B0180917F
:10339000F701882341F48091D8020E946134382FCC
:1033A0002091E30207C08091E7020E946134382F28
:1033B0002091DD02822F6AE00E94673790939F017F
:1033C000822F0E94673780939E01832F0E94673768
:1033D00080939C01832F0E94673790939D01812FDA
:1033E0000E947F198CE363E247E025E0012F0E94F1
:1033F0009F238091F7018093A101809194018F5FB9
:10340000809394018091F701882309F046C0809150
:10341000F301882321F48091F4018823F1F1809154
:1034200094018823D1F581E08093940180919F01DC
:1034300080939B018091E3026AE00E94673790933A
:103440009F0180919E0180939A018091E3020E94E6
:10345000673780939E018091F4018823C1F08091A9
:10346000D8020E946134282F80919C01809398019A
:1034700080919D0180939901822F6AE00E946737B5
:1034800080939C01822F0E94673790939D01109238
:10349000F4018091F4018093F3018091A0018117E0
:1034A00009F474C080919401882309F06FC060E032
:1034B00040E820E4012F0E949F23812F0E947F1962
:1034C000C0E0D0E0FE01E65AFE4FDE01A456BE4F3A
:1034D000808160E04C91212F0E94D3172196C43047
:1034E000D10581F753C00091F701013009F051C0B7
:1034F0009091F7018091A101891709F447C083ECED
:1035000090E061E00E94C132809194018823F1F53E
:10351000009394018091F7018093A10180919C0117
:103520008093980180919D018093990180919E01E3
:1035300080939A0180919F0180939B018091E60284
:10354000882329F42091ED023091E20204C02091F9
:10355000E2023091ED02822F6AE00E946737809389
:103560009C01822F0E94673790939D01832F0E94B8
:10357000673780939E01832F0E94673790939F0146
:1035800080E0112309F481E00E947F19C0E0D0E0BF
:103590004EC00091F7010230C9F79091F701809178
:1035A000A101891799F38DEB90E061E00E94C1328F
:1035B00080919401882351F781E08093940188EBF6
:1035C00090E061E00E94C1328091F7018093A101F7
:1035D00080919C018093980180919D018093990135
:1035E00080919E0180939A0180919F0180939B011D
:1035F00000939C0110929D018091DC026AE00E9480
:10360000673780939E018091DC020E946737909318
:103610009F0180E0112309F481E00E947F198CE36F
:1036200063E247E025E0012F0E949F23AFCFFE0118
:10363000E856FE4F4081FE01E456FE4F20814217BE
:1036400041F0FE01E65AFE4F808160E0012F0E94AA
:10365000DF172196C430D10551F790919401992339
:1036600089F1809197018F5F80939701813250F1AA
:103670001092970180919C018093980180919D0107
:103680008093990180919E0180939A0180919F017E
:1036900080939B019150909394018091F701813028
:1036A00059F400E0112309F401E08CE363E247E000
:1036B00025E00E949F2306C08091F701823011F01F
:1036C0008091F7011093A001DF91CF911F910F918D
:1036D00008950F931F93CF93DF93182F80E060E03E
:1036E00040E820E4012F0E949F23109297018091CF
:1036F000D8020E946134382F2091E3028FEF80932B
:103700009B0180939A018093990180939801822F65
:103710006AE00E94673790939F01822F0E9467376B
:1037200080939E01832F0E94673790939D01832F82
:103730000E94673780939C0117C0C0E0D0E0FE0173
:10374000E65AFE4FDE01A856BE4F9E0124563E4F5C
:10375000808160E04C91F9012081012F0E94DF17E8
:103760002196C430D10559F7809197018F5F8093DE
:1037700097018150813208F389EC90E060E00E946B
:10378000C13280919C018093980180919D0180932A
:10379000990180919E0180939A0180919F0180936D
:1037A0009B01812F0E947F1910929701DF91CF9189
:1037B0001F910F91089580E00E94691B089526983B
:1037C0002E9A81E080936800EBE6F0E080818064CF
:1037D000808382E080937C0010927B00EAE7F0E037
:1037E0008EE88083808180648083089580917A0050
:1037F000877F80937A0080917A00806480937A003A
:1038000080917A0084FFFCCF20917800309179007C
:10381000C90108951F920F920FB60F9211242F9392
:103820003F934F935F936F937F938F939F93AF9348
:10383000BF93EF93FF9378940E94852BFF91EF91B4
:10384000BF91AF919F918F917F916F915F914F91B8
:103850003F912F910F900FBE0F901F9018951F92C0
:103860000F920FB60F9211242F933F934F935F93B4
:103870006F937F938F939F93AF93BF93EF93FF9338
:103880007894809178009091790022E0803E9207B0
:1038900028F01092A4011092A20173C022E0833696
:1038A000920798F18091A20182FD6BC08AE090E0BE
:1038B0000E948D320E94F61B825692408E379105EF
:1038C00008F05FC082E08093A50112C00E94F61B41
:1038D000825692408E37910558F08091A2018B7FDD
:1038E0008093A2018091A30184608093A30149C0C9
:1038F0008091A501882351F78091A2018460809373
:10390000A2018091A40184603AC08F509140E8F0F8
:103910008091A20181FD10C08AE090E00E948D326A
:103920000E94F61B8E5091408555914050F5809134
:10393000A30182608093A3018091A20182608093A1
:10394000A2018091A40182601AC08091A20180FD31
:103950000EC08AE090E00E948D320E94F61B8F50CC
:10396000914078F48091A30181608093A3018091BC
:10397000A20181608093A2018091A4018160809363
:10398000A40180917A00886480937A00FF91EF917E
:10399000BF91AF919F918F917F916F915F914F9167
:1039A0003F912F910F900FBE0F901F9018951F936E
:1039B000182F8BE260E00E944C2A8091E002863D45
:1039C00019F1873D60F4833DC9F0843D18F4823DD0
:1039D00061F511C0843D61F0853D39F512C0883D27
:1039E000C9F0883DA0F0893DC1F08A3DF1F418C0CE
:1039F00082E291E017C084E191E014C089E091E097
:103A000011C08EEF90E00EC081EF90E00BC08AEE07
:103A100090E008C083EE90E005C089ED90E002C020
:103A200083ED90E0612F0E9477231F9108951F93EB
:103A3000182F88E064E00E944C2A8CEB91E060E053
:103A40000E9477238091E602882339F48091DB027B
:103A5000882319F48FEA91E020C08091E602882340
:103A600039F48091DB02813019F482EA91E015C0CB
:103A70008091E602813039F48091DB02882319F4C9
:103A800085E991E00AC08091E602813049F4809195
:103A9000DB02813029F488E891E0612F0E947723CE
:103AA0001F9108950F931F93CF93DF93182F062F25
:103AB0008091DB02882371F584E761E00E944C2A43
:103AC0001C3010F080E501C081E460E00E943D23DD
:103AD0008DE460E00E943D2380E561E00E944C2A75
:103AE000812F90E047966CE070E00E948737EC01F0
:103AF0008930910524F09C012F5F822F10C080E255
:103B000060E00E943D239E012F5C822F602F0E9467
:103B10003D2308C080E561E00E944C2A812F602F80
:103B20000E94DE30DF91CF911F910F9108950F9386
:103B30001F93CF93DF93082F162F8091DB028823EA
:103B4000D1F4802F90E047966CE070E00E948737B8
:103B5000EC018930910524F09C012F5F822F14C065
:103B600080E260E00E943D239E012F5C822F612F46
:103B70000E943D230CC080E260E00E943D2380E271
:103B800060E00E943D23802F612F0E94DE30DF9194
:103B9000CF911F910F9108950E94DE308FE260E077
:103BA0000E943D230895EF92FF920F931F93F82EEA
:103BB000162FE42E022F88E063E00E944C2A8DE04D
:103BC00092E060E00E9477238091E602882391F4DE
:103BD00087E092E060E00E94772360E00B3009F418
:103BE00061E08F2D0E94CC1D60E00C3009F461E093
:103BF000812F15C08091E602813099F481E092E036
:103C000060E00E94772360E00C3009F461E0812FCE
:103C10000E94CC1D60E00B3009F461E08F2D0E9402
:103C2000CC1D10E00D3009F411E084E1612F0E94F9
:103C3000DE308E2D612F0E94DE301F910F91FF909C
:103C4000EF9008951F93182F88E065E00E944C2A9A
:103C500089E192E060E00E9477238091B40060E007
:103C6000193609F461E00E94DE301F910895DF9259
:103C7000EF92FF920F931F93E82EF62ED42E122F61
:103C800088E062E00E944C2A89E292E060E00E94B3
:103C9000772300E0153609F401E08E2D602F0E9495
:103CA000971D8AE360E00E943D2360E0163609F428
:103CB00061E08F2D0E94DE308AE360E00E943D23A8
:103CC00060E0173609F461E08D2D0E94DE308091AE
:103CD000DB02882369F480E260E00E943D238BE0F0
:103CE0008E1510F480E501C081E4602F0E943D2311
:103CF0001F910F91FF90EF90DF9008951F93182F61
:103D000088E061E00E944C2A84E392E060E00E9437
:103D100077238091E70260E0153609F461E00E94A4
:103D2000521D8AE360E00E943D238091DD0260E045
:103D3000163609F461E00E94DE301F9108958B3041
:103D400029F486EF91E06DEE71E00DC08C3029F41E
:103D500082EE91E069ED71E006C08D3039F48EECB1
:103D600091E065EC71E00E94CA3608950E94E63643
:103D700008958091A7018F5F8093A7010E94562A22
:103D800088E060E00E944C2A83E192E060E00E94BB
:103D9000772380E00E94D71C84E00E947E1E8091E1
:103DA000D8026091E3024091EE0223E00E94371EA8
:103DB0008091ED026091E2024091DC0225E00E94D8
:103DC000D31D80E00E94171D86E00E94221E0E94E3
:103DD000E6368091A70181508093A70108951F9333
:103DE000182F0E94B91E8091A7018F5F8093A701B1
:103DF0008091E902863011F40E94DB36110F110F19
:103E0000110F1D5F80E0612F47E00E94F530809127
:103E1000A70181508093A7018AE08093A601809139
:103E2000E9021F910895CF92DF92EF92FF920F93D4
:103E30001F9382E00E94EF1E082F1091D802D090AD
:103E4000E302F090EE0290C08091A30181FF48C090
:103E50001092A3018091A7018F5F8093A701033087
:103E600041F486E591E06DE471E00E94CA3605E612
:103E70002CC0053641F482E491E069E371E00E94D0
:103E8000CA3606E622C0063641F485E391E06CE2CC
:103E900071E00E94CA3607E618C00E94E636109309
:103EA000D802D092E302F092EE028091EE0260918D
:103EB000E3024091D8020091E202E090ED02C0904E
:103EC000DC0220E00E941C2C03E0812F6D2D4F2D81
:103ED000202F0E94371E8091A70181508093A70157
:103EE0008091A30182FD04C08091A40182FF3CC0A7
:103EF0001092A3018091A7018F5F8093A7010536DF
:103F000059F4812F90E0019668E170E00E948737B4
:103F1000182F8093D80215C0063649F48D2D90E0F5
:103F200001966CE370E00E948737D82E0AC00736EE
:103F300041F48F2D90E001966CE370E00E9487378A
:103F4000F82E812F6D2D4F2D202F0E94371E80912E
:103F5000A70181508093A7018091A40182FF04C032
:103F600088EC90E00E948D320E944936882309F443
:103F70006BCF1F910F91FF90EF90DF90CF9008953E
:103F80001F9381E00E94EF1E182F6CC08091A30147
:103F900081FF26C01092A3018091A7018F5F8093BB
:103FA000A701143041F48DE791E064E771E00E94CD
:103FB000CA3615E60DC0153641F489E691E060E693
:103FC00071E00E94CA3616E603C00E94E63614E08D
:103FD000812F0E947E1E8091A70181508093A701AE
:103FE0008091A30182FD04C08091A40182FF3AC0A8
:103FF0001092A3018091A7018F5F8093A7011536CE
:1040000079F48091E70290E0019668E170E00E9407
:1040100087378093E7026091E70281E090E010C06B
:10402000163681F48091DD0290E001966CE370E039
:104030000E9487378093DD026091DD0282E090E08C
:104040000E94E837812F0E947E1E8091A701815037
:104050008093A7018091A40182FF04C088EC90E0C6
:104060000E948D320E944936882309F48FCF1F9118
:1040700008951F9385E00E94EF1E182F46C080917F
:10408000A30181FF18C01092A3018091A7018F5F47
:104090008093A701163021F40E94D43619E603C09C
:1040A0000E94DB3616E0812F0E94221E8091A7011C
:1040B00081508093A7018091A30182FD04C080916B
:1040C000A40182FF22C01092A3011936F1F480915D
:1040D000B4008F5F8093B4008091B400813110F000
:1040E0001092B4008091A7018F5F8093A70189E6A9
:1040F0000E94221E8091A70181508093A7016091A8
:10410000B40083E090E00E94E8370E94493688239B
:1041100009F4B5CF1F9108958F929F92AF92BF92ED
:10412000CF92EF920F931F93DF93CF9300D0CDB731
:10413000DEB783E00E94EF1E082F8091E2028983A0
:104140008091ED028A831091DC0282E0882E912C0E
:104150008C0E9D1E5E010894A11CB11C88C080912C
:10416000A30181FF46C01092A3018091A7018F5F38
:104170008093A701053031F4E091E602F0E0E25AC5
:10418000FE4F07C00B3039F4E091E602F0E0E05A50
:10419000FE4F008120C00C3031F4E091E602F0E0E7
:1041A000EE59FE4FF6CF1093DC028A818093ED0228
:1041B00089818093E2028091EE026091E302409156
:1041C000D8020091E202E090ED02C090DC0220E013
:1041D0000E941C2C05E0802F0E949F1E8A8169810D
:1041E000412F202F0E94D31D8091A70181508093E1
:1041F000A7018091A30182FD04C08091A40182FFE8
:1042000036C01092A3018091A7018F5F8093A70110
:104210000B3021F48A818F5F8A8310C00C3021F427
:1042200089818F5F89830AC00D3041F4812F90E02E
:10423000019664E670E00E948737182FC401B5012B
:10424000412F50E00E9410368A816981412F202F32
:104250000E94D31D8091A70181508093A701809176
:10426000A40182FF04C088EC90E00E948D320E947D
:104270004936882309F473CF0F900F90CF91DF91C7
:104280001F910F91EF90CF90BF90AF909F908F9024
:1042900008951F9384E00E94EF1E182F64C0809140
:1042A000A30181FF1BC01092A3018091A7018F5F22
:1042B0008093A701183039F481E00E94171D0E94F5
:1042C000D43618E606C080E00E94171D0E94E6362C
:1042D00018E08091A70181508093A7018091A301EC
:1042E00082FD04C08091A40182FF3DC01092A30111
:1042F0001836C9F58091DB02882359F08091E602D7
:104300008F5F8093E6028091E602823010F0109277
:10431000E6028091DB0290E0882309F491E090931B
:10432000DB028091A7018F5F8093A7010E94B91ED5
:104330000E94D43680E063E247E00E94F53081E0DD
:104340000E94171D8091A70181508093A701609161
:10435000E60284E090E00E94E8376091DB0285E0AD
:1043600090E00E94E8370E944936882309F497CFED
:104370001F9108950F931F9387E090E00E94E0370C
:104380008093E00280E00E94EF1E182F02ED5AC0D9
:104390008091A30181FF29C01092A3018091A70100
:1043A0008F5F8093A701183C61F481E00E94D71CC5
:1043B0000E94D4368091A70181508093A70119EC07
:1043C00014C080E00E94D71C0E94E6361092EC02D6
:1043D0001092E9028091E002893DC8F56091E00207
:1043E00087E090E00E94E83732C08091A30182FD0F
:1043F00004C08091A40182FF25C01092A301193C42
:1044000009F58091E0028F5F8093E0028091E002E5
:104410008B3D10F00093E0028091A7018F5F8093A5
:10442000A7010E94B91E0E94D43680E063E047E0F5
:104430000E94F53081E00E94D71C8091A701815035
:104440008093A7010E944936882309F4A1CF1F91C8
:104450000F9108958091E002843D61F0853D28F43C
:10446000823D59F0833DA1F40BC0853D61F0863D4E
:1044700079F40CC00E94F50E08950E946308089517
:104480000E94321308950E948D1908950E94AE155E
:1044900008959091E002943D61F0953D28F4923D9D
:1044A00059F0933DA9F40BC0953D61F0963D81F420
:1044B0000CC00E945F1208950E948C0908950E940A
:1044C0001D1408950E94691B089590E00E94DD1656
:1044D00008951F931FE08091E002863D19F1873D0A
:1044E00060F4833DC9F0843D18F4823D91F511C01C
:1044F000843D61F0853D69F512C0883DB1F0883D8D
:10450000B0F0893D09F18A3D21F521C00E94D81201
:1045100020C00E94A8091DC00E9427141AC00E9432
:10452000DB1B17C00E94F31614C01093EC020E940C
:10453000363580E00E94943565E070E00E94733764
:104540008E528093E002C7CF0E94B00702C00E9443
:104550004B071F9108951F93182F8091EC02882319
:1045600081F18091F301813021F08091F40181305B
:1045700041F58091F301882319F082E08093F301E3
:104580008091F401882319F082E08093F4018091F6
:10459000EC0281508093EC028091EC02882389F434
:1045A0008FE08093EC028091E0028F5F8093E002C5
:1045B0008091E002873D19F482ED8093E0020E9431
:1045C00069228091E002843D61F0853D28F4823DBE
:1045D00061F0833DD1F40DC0853D79F0863DA9F4AD
:1045E00010C0812F0E944A0D10C0812F0E947409B3
:1045F0000CC0812F0E94561408C0812F0E949D1963
:1046000004C0812F90E00E9496161F91089508958E
:104610008B5C9F4F0E94E0370895FF920F931F938A
:10462000CF93DF93482FF62E30E020E007C08E5B5B
:104630009D4FFC0184918F5F280F3F5F822F90E098
:104640003417A8F3FC01EE5BFD4F0491EC01CD5B48
:10465000DD4F10E00AC0FE018491F1E0FF1609F47D
:1046600080950E94F3291F5F21961017A0F3DF9118
:10467000CF911F910F91FF900895DF92EF92FF92DB
:104680000F931F93CF93DF93D62E95E0899FC001A0
:104690001124EC01CB56D0408E012AE9E22E2FEFF7
:1046A000F22EE80EF91EDD2029F0CE010E94E0373F
:1046B000809503C0C8010E94E0370E94F32921962B
:1046C0000F5F1F4FCE15DF0571F7DD2011F08FEF63
:1046D00001C080E00E94F32980E00E943F2ADF9120
:1046E000CF911F910F91FF90EF90DF9008950F935E
:1046F0001F93CF93DF93EC01062F10E004C0602FCF
:104700000E943D231F5FFE01E10FF11D849188236C
:10471000B1F7DF91CF911F910F9108951F93CF9320
:10472000DF93EC01162F04C0612F0E943D232196D8
:1047300088818823C9F7DF91CF911F9108952F9227
:104740003F924F925F926F927F928F929F92AF9221
:10475000BF92CF92DF92EF92FF920F931F93CF936E
:10476000DF93282E162F342EF22E402EC62FD0E0A7
:10477000C770D070209709F45BC0562E569456949B
:104780005694EE2467E0C62EC1228C2C992487FC17
:1047900090945E01A20EB11C51E0652E712C35C0C3
:1047A000DE2CD20C8D2D652D0E944C2A0E94A6294C
:1047B0000E94A629082F40E050E015C081E048166D
:1047C00041F4C30102C0880F991F2A95E2F7082B14
:1047D00008C0C30102C0880F991F2A95E2F780958F
:1047E00008234F5F5F4F9A01280D391D2A153B059D
:1047F00024F48C2D840F883009F78D2D652D0E94AF
:104800004C2A802F0E94F329E394E31448F22F2DC1
:1048100030E088E090E08C1B9D0B8217930714F02A
:10482000FF2404C0812F87708850F80E187F185F0E
:10483000E12EE694E694E694C12FD0E0CF0DD11D91
:1048400043E0D595C7954A95E1F712C0822D6E2DAC
:104850000E944C2A10E009C081E0481611F48FEF45
:1048600001C080E00E94F3291F5F1315A8F3E394B1
:104870008E2D90E08C179D074CF32F2D2770C9F1DA
:1048800000E0C22FD0E031E0A32EB12C30C0F02EDA
:10489000F20C8F2D6E2D0E944C2A0E94A6290E9498
:1048A000A629182F20E030E017C081E0481649F40F
:1048B000C501022E02C0880F991F0A94E2F7182B37
:1048C00009C0C501022E02C0880F991F0A94E2F7A1
:1048D000809518232F5F3F4F2C173D0734F38F2D02
:1048E0006E2D0E944C2A812F0E94F3290F5F031521
:1048F00070F280E00E943F2ADF91CF911F910F91CB
:10490000FF90EF90DF90CF90BF90AF909F908F90EF
:104910007F906F905F904F903F902F9008952F92CF
:104920003F924F925F926F927F928F929F92AF923F
:10493000BF92CF92DF92EF92FF920F931F93DF937C
:10494000CF9300D00F92CDB7DEB7382E462E522E21
:10495000262E281AA42EBB24C501880F991F2227B2
:104960003327281B390B2D5F3F4F3B832A83882435
:10497000992466247724362F32193983182DD42CA4
:10498000DA187501EE0CFF1C882D830D6D2D41E0AA
:104990002E2D052D0E949F23832D88196D2D41E01A
:1049A0002E2D0E949F23F42CF818110F89818A0D57
:1049B0006F2D41E0212F0E949F238D2D82196F2D95
:1049C00041E0212F0E949F238A819B8197FF06C08F
:1049D0000696860D971D9B838A8311C0EA81FB8111
:1049E0003A96C4018A199B09880F991F880F991F4D
:1049F000E80FF91FFB83EA830894A108B108089423
:104A0000811C911C24E030E0620E731EA814B904CE
:104A10000CF0B4CF0F900F900F90CF91DF911F91BA
:104A20000F91FF90EF90DF90CF90BF90AF909F904D
:104A30008F907F906F905F904F903F902F90089550
:104A4000DF92EF92FF920F931F93F82E162FD42E22
:104A5000E22E41E001E00E949F238F2D81508D0DB9
:104A6000612F41E02E2D0E949F238F2D612F4D2D10
:104A700021E00E949F2311501E0D8F2D612F4D2D7F
:104A800021E00E949F231F910F91FF90EF90DF90F4
:104A90000895EF92FF920F931F93F82E162F062F73
:104AA000069506950695602F0E944C2A0E94A6291D
:104AB0000E94A629E82E8F2D602F0E944C2A177085
:104AC00081E090E002C0880F991F1A95E2F7809567
:104AD0008E210E94F32980E00E943F2A1F910F91AE
:104AE000FF90EF900895EF92FF920F931F93F82E8F
:104AF000162F062F069506950695602F0E944C2AC4
:104B00000E94A6290E94A629E82E8F2D602F0E94C0
:104B10004C2A177081E090E002C0880F991F1A9507
:104B2000E2F78E290E94F32980E00E943F2A1F911C
:104B30000F91FF90EF9008953F924F925F926F9286
:104B40007F928F929F92AF92BF92CF92DF92EF921D
:104B5000FF920F931F93CF93DF93D82EC62E322E42
:104B6000462E481AE42EFF24C701880F991FCC2730
:104B7000DD27C81BD90B23965D2C662E762EAA2422
:104B8000BB248824992481E0381641F50E2D0C0DA4
:104B90008D2D602F0E9473259C2D9E19192F8D2D10
:104BA000692F0E947325852D602F0E947325852D06
:104BB000612F0E9473250419802F662D0E94732592
:104BC000802F672D0E9473251419812F662D0E9456
:104BD0007325812F672D0E94732527C00E2D0C0D84
:104BE0008D2D602F0E9449258C2D8E19182F8D2D0B
:104BF000612F0E944925852D602F0E944925852D12
:104C0000612F0E9449250419802F662D0E94492595
:104C1000802F672D0E9449251419812F662D0E942F
:104C20004925812F672D0E944925D7FF04C026966C
:104C3000C80DD91D0DC02A96C5018E199F09880F70
:104C4000991F880F991FC80FD91F0894E108F10810
:104C50000894A11CB11C84E090E0880E991ED394A6
:104C60005A9463947A94EA14FB040CF08CCFDF918D
:104C7000CF911F910F91FF90EF90DF90CF90BF9059
:104C8000AF909F908F907F906F905F904F903F90EC
:104C90000895459A449A1092EF011092EE011092F5
:104CA000F1011092F00180E28093B800ECEBF0E0AB
:104CB0008081846080831092A801808181608083DC
:104CC0008081806480837894089580E28093B80026
:104CD000089590E0611191E08E7F982B9093BA0037
:104CE00008959093EF018093EE0108959093F10160
:104CF0008093F0010895ECEBF0E080818F70806A82
:104D000080830895ECEBF0E080818F70806D80836C
:104D100008958091BC0087FFFCCF08958093BB006D
:104D2000ECEBF0E080818F708068808308958823A9
:104D300029F08091BC008F70806C04C08091BC0011
:104D40008F7080688093BC0008958091BB000895A7
:104D50008091B9000895982F8091A8018823E1F7E8
:104D600082E08093A8019E7F9093A901AAEAB1E016
:104D7000FA0102C081918D938E2F841B8617D0F388
:104D80001092CA016093CB018091BC008F70806A41
:104D90008093BC000895982F8091A8018823E1F7A3
:104DA00083E08093A80191609093A9011092EC0197
:104DB0006093ED018091BC008F70806A8093BC008D
:104DC0008091A8018823E1F7ACECB1E0FA0102C0C0
:104DD0008D9181938E2F841B8617D0F30895982F81
:104DE000FA018091BC008E7F8093BC008091BC0052
:104DF0008F70806A8093BC008091BC0087FFFCCFDD
:104E00009E7F9093BB008091BC008F7080688093E0
:104E1000BC008091BC0087FFFCCF8091B900883135
:104E200089F091E012C080818093BB008091BC002A
:104E30008F7080688093BC008091BC0087FFFCCF9E
:104E400031966150662379F790E08091BC008F70B5
:104E5000806D8093BC008091BC0084FFFCCF80916A
:104E6000BC0081608093BC00892F08951F93CF936D
:104E7000DF93982F162FEA018091BC008E7F8093DC
:104E8000BC008091BC008F70806A8093BC008091D0
:104E9000BC0087FFFCCF91609093BB008091BC0069
:104EA0008F7080688093BC008091BC0087FFFCCF2E
:104EB0008091B900803469F091E018C08FEF0E94B2
:104EC00097268091BC0087FFFCCF8091BB0089931F
:104ED0001150123098F780E00E9497268091BC0014
:104EE00087FFFCCF8091BB00888390E08091BC005D
:104EF0008F70806D8093BC008091BC008160809336
:104F0000BC00892FDF91CF911F9108958091A80156
:104F100008951F920F920FB60F9211242F933F9373
:104F20004F935F936F937F938F939F93AF93BF93B1
:104F3000EF93FF938091B900887F883609F4CBC046
:104F4000893688F5803309F495C08133B0F4803117
:104F500009F45AC0813138F4882309F43EC18830FD
:104F600009F048C151C0803209F484C0883209F484
:104F700053C0883109F03EC14FC0883409F47AC06B
:104F8000893438F4883309F478C0803409F032C1A8
:104F900092C0883509F45DC0803609F49CC0803524
:104FA00009F028C174C0803A09F4BEC0813AB0F457
:104FB000803809F49BC0813838F4803709F48BC0FD
:104FC000883709F017C187C0803909F48FC0883944
:104FD00009F4A1C0883809F00DC19DC0883B09F4CF
:104FE000D1C0893B38F4883A09F4B6C0803B09F057
:104FF00001C1B2C0883C09F4E0C0883F09F4E7C0B1
:10500000803C09F0F7C0D9C082E094E060E00E94E3
:10501000C1328091A90114C083EE93E060E00E9448
:10502000C1329091CA018091CB01981708F0DAC083
:10503000E92FF0E0E655FE4F80819F5F9093CA0113
:105040008093BB008091BC008F7080688093BC000F
:10505000D1C08EEC93E060E00E94C1328091EC01FF
:105060009091BB00E82FF0E0E453FE4F90838F5FF8
:105070008093EC0188EA93E0B2C084E993E060E0B9
:105080000E94C1328091BC008F708068AFC080E800
:1050900093E060E00E94C1328091BB009091EC01EE
:1050A000E92FF0E0E453FE4F80839F5F9093EC0183
:1050B00090E00E9418338DE693E060E00E94C132D8
:1050C0002091EC0130E08091ED0190E001972817EC
:1050D000390734F51EC08AE593E060E00E94C132D2
:1050E00085E08093A8011092EC0162C086E493E011
:1050F00060E00E94C1328091EC019091BB00E82FEA
:10510000F0E0E453FE4F90838F5F8093EC01803298
:1051100038F48FEF06C081E393E060E00E94C13273
:1051200080E00E94972666C08EE193E060E00E94D6
:10513000C1328091BC008F70806C8093BC00E09184
:10514000EE01F091EF01309709F452C08091EC012B
:105150006CEC71E009954CC08BE093E060E00E943C
:10516000C13284E08093A801E091F001F091F10157
:10517000309731F080E26AEA71E009958093CB01C3
:105180001092CA0187EF92E060E00E94C1329091D4
:10519000CA01E92FF0E0E655FE4F80818093BB0005
:1051A0009F5F9093CA018091CB01981708F04ACF76
:1051B0008091BC008F70806C49CF85ED92E060E0FB
:1051C0000E94C1328091BC008F70806C0FC086EC51
:1051D00092E060E00E94C1320DC085EB92E060E099
:1051E0000E94C1328091BC008F70806D8093BC00A2
:1051F0001092A801FF91EF91BF91AF919F918F9174
:105200007F916F915F914F913F912F910F900FBEC2
:105210000F901F9018952F982D982C9840985A9879
:10522000279A259A249A389A529A8BB18F708BB903
:1052300085B1807F85B98AB1806F8AB984B18F606A
:1052400084B9089540985A98882319F0813021F440
:1052500002C0409A08955A9A0895F8940E9422290B
:105260008BB1806F8BB985B18F6085B92F988AB16A
:105270008F708AB984B1807F84B92D9A2C9A0000EE
:1052800000000AC02C9800000000000000002C9ACA
:10529000000000000000000089B193B187FDF2CF4B
:1052A0002C982D988AB1806F8AB984B18F6084B9A7
:1052B000789408951F93162FF8940E942D292F9803
:1052C0002D982C9A8AB1806F8AB984B18F6084B985
:1052D0008BB18F708BB99BB1812F807F892B8BB95C
:1052E00085B1807F85B985B11F70812B85B900009C
:1052F00000000000000000000000000000002C98EA
:1053000078941F910895F8940E942D292F988AB1BE
:105310008F708AB984B1807F84B92D9A2C9A00004D
:10532000000000000000000000000000000029B1A3
:1053300083B12C982D989AB1906F9AB994B19F60CF
:1053400094B978948F70207F822B0895F89480917F
:10535000D20282958695869583700E942D292F9A78
:105360008AB18F708AB984B1807F84B92D9A2C9AC2
:10537000000000000000000000000000000000002D
:1053800099B183B12C982D9878948F70907F892B48
:10539000089508958093D20280E060E40E945A2923
:1053A0001092D40281E060E40E945A291092D60241
:1053B0008091D202682F6F7360648295869586957E
:1053C00083700E945A2908951F93182F8093D30247
:1053D000186B80E0612F0E945A2981E0612F0E94A2
:1053E0005A291F9108950F931F93182F0091D202ED
:1053F0000295069506950370F894802F0E942D293A
:105400002F9A2D982C9A8AB1806F8AB984B18F60B7
:1054100084B98BB18F708BB99BB1812F807F892B21
:105420008BB985B1807F85B985B11F70812B85B916
:10543000000000000000000000000000000000006C
:105440002C987894E02FF0E0EE0FFF1FEC52FD4F08
:1054500080818F5F80838091D2028F5F8093D202A0
:1054600087FF0AC08091D3028F5F8093D3020E948E
:10547000E42980E00E94CA291F910F9108951F938B
:10548000182F106C80E0612F0E945A2981E0612F53
:105490000E945A291F9108951F93182F862F0E944A
:1054A000E429812F0E94CA291F9108950F931F9309
:1054B00000E080E0602F0E944C2A10E080E00E9413
:1054C000F3291F5F1038D1F70F5F083091F71F9154
:1054D0000F91089580E00E943F2A80E060E00E94E2
:1054E0004C2A1092D4021092D5021092D602109239
:1054F000D70208950E940B2980E06FE30E945A2989
:1055000081E06FE30E945A290E94562A0E946A2A6B
:105510000895982F86E0689F802D1124692F0E949E
:105520004C2A089508951F920F920FB60F921124DE
:105530002F933F934F935F936F937F938F939F939B
:10554000AF93BF93EF93FF934091C600E0917C022D
:10555000F0917D02CF01019660E870E00E948737EC
:105560009C0180917E0290917F022817390739F0C3
:10557000E450FE4F408330937D0220937C02FF91E4
:10558000EF91BF91AF919F918F917F916F915F91BB
:105590004F913F912F910F900FBE0F901F90189534
:1055A00080917C0290917D0280589F4F20917E02D5
:1055B00030917F02821B930B60E870E00E94873776
:1055C000089540917E0250917F0280917C029091DB
:1055D0007D028417950719F42FEF3FEF0FC0FA01F2
:1055E000E450FE4F2081CA01019660E870E00E94FD
:1055F000873790937F0280937E0230E0C90108953F
:105600001F920F920FB60F9211248F939F9388B120
:1056100098E0892788B99F918F910F900FBE0F90C6
:105620001F9018951F920F920FB60F9211248F930F
:105630009F938091820290918302892B49F08091FF
:105640008202909183020197909383028093820259
:105650008091EA029091EB02892B49F08091EA0255
:105660009091EB0201979093EB028093EA02809174
:10567000E802882389F18091800290918102892B30
:1056800059F58091DE029091DF02892BE1F48CE2E2
:1056900091E09093DF028093DE0280918100882365
:1056A00079F41092800089E08093810083E08093F8
:1056B0006F0088EE93E0909389008093880003C088
:1056C0001092810043988091DE029091DF02019751
:1056D0009093DF028093DE029F918F910F900FBE17
:1056E0000F901F9018951F920F920FB60F921124D2
:1056F0008F939F9388B198E0892788B99F918F9164
:105700000F900FBE0F901F9018951E9B16C0809192
:10571000E502882349F11092E5021092EF021092FF
:105720008102109280028091E8028823E9F01092B1
:10573000E80210928100439808958091E502882341
:1057400099F481E08093E502109281021092800228
:1057500083E08093F7018091E002853D11F083E0C2
:1057600001C085E08093F6010895FC01837090707C
:10577000892B39F4CF0164E670E00E947337892BDE
:1057800049F420E030E0CF0160E971E00E94733716
:10579000892B11F421E030E0822F08950895482FDD
:1057A0006AE00E946737282F30E084E0220F331F21
:1057B0008A95E1F7842F0E946737892F822B0895FD
:1057C00088E592E09093810280938002109281009C
:1057D00043981092E9020895FC0181818051208153
:1057E0009AE0299F90011124820F0895FF920F9350
:1057F0001F93F62E1092800001E810E029E0F801D6
:10580000208323E020936F009C0140E050E060E0A3
:1058100079E08DE390E00E94BC37309389002093BB
:1058200088008F2D90E00E948D32F80110824398FD
:105830001F910F91FF900895CF92DF92EF92FF9208
:105840000F931F93DF93CF93CDB7DEB728970FB693
:10585000F894DEBF0FBECDBF162FF42ED22EFE0160
:10586000319698E0DF011D929A95E9F719820E941E
:10587000CF2B8A83812F0E94CF2B8B838F2D0E9469
:10588000CF2B8C838D2D0E94CF2B8D83802F0E9458
:10589000CF2B8E838E2D0E94CF2B8F838C2D0E9439
:1058A000CF2B8887F89480ED68E0AE014F5F5F4FA3
:1058B0000E94EF267894882399F080EA9FE064E6BE
:1058C0000E94F62B84E690E00E948D3280EA9FE0F1
:1058D00064E60E94F62B88EE93E00E948D32EDCFB5
:1058E00028960FB6F894DEBF0FBECDBFCF91DF91E3
:1058F0001F910F91FF90EF90DF90CF9008956F92DE
:105900007F928F929F92AF92BF92CF92DF92EF924F
:10591000FF920F931F93DF93CF93CDB7DEB72C97F2
:105920000FB6F894DEBF0FBECDBFA82E88E090E082
:105930000E94E0378093F9018091F901992787FD52
:10594000909597FF03C0909581959F4F959587956A
:10595000959587958093FA018091F901992787FDA4
:10596000909597FF03C0909581959F4F837090709D
:105970009C0144E0220F331F4A95E1F7281B390BA5
:105980002093FB018091F90187FF0AC08091FA0101
:1059900081958093FA018091FB0181958093FB01B1
:1059A000DE011196EBE6F1E08CE001900D92815062
:1059B000E1F7A8C10E94E12A282F8052803608F022
:1059C000ABC1243229F49092930210929202A4C1A6
:1059D00080919302882309F49FC1909192022C3206
:1059E00051F48F5F80939302992311F410928702F0
:1059F000109292020FC09A3068F4E92FF0E0E95754
:105A0000FD4F2083E92FEF5FE0939202F0E0E9572A
:105A1000FD4F108280919302823091F487E892E0EA
:105A200064E671E00E94D737009739F470929302D0
:105A300010929202109287026FC1109293026CC171
:105A4000843009F0BCC060929302AA2061F01092E9
:105A50008D0284E465E00E944C2A87E892E060E0D1
:105A60000E948E2359C1F89420918C02205180917C
:105A70008B028B9DC0011124280F2093EE022091F0
:105A80008A022051809189028B9DC0011124280F28
:105A90002093E302209188022051809187028B9D00
:105AA000C0011124280F2093D80210928602809101
:105AB000FB0187FF20C08091FB019091E302282F1A
:105AC000332727FD309537FF03C0309521953F4F91
:105AD000892F90E08217930774F48091FA01815026
