:100000000C9402060C941F060C941F060C94131AF1
:100010000C941F060C941F060C941F060C941F06CC
:100020000C941F060C94822C0C941F060C94A0298F
:100030000C941F060C942D290C943F290C941F0638
:100040000C941F060C941F060C941F060C941F069C
:100050000C941F060C94381A0C941F060C941F065F
:100060000C9423260C941F0605A84CCDB2D44EB98F
:100070003836A9020C50B9918688083CA6AAAA2A4B
:10008000BE000000803F0004020403647261770038
:10009000796561722100646174652100646F6E6529
:1000A00020696E697400C44932433A204255535F57
:1000B0004552524F520D0A004932433A204E4F5F8B
:1000C000494E464F0D0A004932433A2053542D3EC3
:1000D000444154415F4E41434B206F72204C415389
:1000E000545F444154410D0A004932433A2053546D
:1000F0002D3E444154415F41434B0D0A0049324378
:100100003A2053542D3E534C415F41434B0D0A005E
:100110004932433A2053522D3E53525F53544F506D
:100120000D0A004932433A2053522D3E4441544176
:100130005F4E41434B0D0A004932433A2053522D42
:100140003E444154415F41434B0D0A004932433A1A
:100150002053522D3E534C415F41434B0D0A004901
:1001600032433A204D522D3E534C415F41434B0D9B
:100170000A004932433A204D522D3E444154415FDA
:1001800041434B0D0A004932433A204D542D3E4124
:1001900052425F4C4F53540D0A004932433A204DAE
:1001A00054522D3E534C415F4E41434B206F7220C1
:1001B0004D542D3E444154415F4E41434B0D0A0086
:1001C0004932433A204D522D3E444154415F4E4105
:1001D000434B0D0A004932433A204D542D3E534CB7
:1001E000415F41434B206F7220444154415F414382
:1001F0004B0D0A004932433A204D2D3E5354415293
:10020000540D0A000C0FFFFF0A11FFFF0912FFFF38
:10021000080B1013070B1014060A1115060A111506
:10022000050A1116050A1116040A111704091217F6
:1002300003091218030912180309121802091218E7
:1002400002091219020912190209121902091219D6
:100250000109121A0109121A0109121A0109121AC6
:100260000109121A0109121A0109121A0109121AB6
:100270000109121A0109121A0009121B0009121BA6
:100280000009121B0009121B0009121B0009121B96
:100290000009121B0109121A0109121A0109121A86
:1002A0000109121A0109121A0109121A0109121A76
:1002B0000109121A0109121A020912190209121966
:1002C0000209121902091219020912180309121857
:1002D000030912180309121804091217040A111746
:1002E000050A1116050A1116060A1115060A111536
:1002F000070B1014080B10130912FFFF0A11FFFF60
:100300000C0FFFFF1111FFFF0F11FFFF0E11FFFF79
:100310000C11FFFF0B11FFFF0911FFFF0811FFFF79
:100320000611FFFF0511FFFF0311FFFF0205081172
:10033000020309110911FFFF0911FFFF0911FFFF56
:100340000A11FFFF0A11FFFF0A11FFFF0A11FFFF49
:100350000A11FFFF0A11FFFF0A11FFFF0A11FFFF39
:100360000A11FFFF0A11FFFF0A11FFFF0A11FFFF29
:100370000A11FFFF0A11FFFF0A11FFFF0A11FFFF19
:100380000A11FFFF0A11FFFF0A11FFFF0A11FFFF09
:100390000A11FFFF0A11FFFF0A11FFFF0A11FFFFF9
:1003A0000A11FFFF0A11FFFF0A11FFFF0A11FFFFE9
:1003B0000A11FFFF0A11FFFF0A11FFFF0A11FFFFD9
:1003C0000A11FFFF0A11FFFF0A11FFFF0A11FFFFC9
:1003D0000A11FFFF0A11FFFF0A11FFFF0A11FFFFB9
:1003E0000912FFFF0912FFFF0912FFFF0912FFFFA9
:1003F0000812FFFF0713FFFF0416FFFF0218FFFF9D
:100400000218FFFF0C10FFFF0A12FFFF0913FFFF86
:100410000814FFFF0715FFFF0616FFFF0616FFFF74
:100420000517FFFF0517FFFF0417FFFF0418FFFF65
:1004300003060D1803050E1803040F1802040F1805
:1004400002031018020310180102111801021118FA
:100450001118FFFF1118FFFF1118FFFF1118FFFF00
:100460001118FFFF1118FFFF1117FFFF1117FFFFF2
:100470001117FFFF1116FFFF1016FFFF1015FFFFEA
:100480001015FFFF0F14FFFF0F14FFFF0F13FFFFE7
:100490000E13FFFF0E12FFFF0E11FFFF0D11FFFFE6
:1004A0000D10FFFF0C0FFFFF0C0FFFFF0B0EFFFFE8
:1004B0000B0DFFFF0A0D1B1B0A0C1B1B090B1A1B44
:1004C000090B1A1B080A191B0709191A0708181A19
:1004D0000608141A061AFFFF051AFFFF051AFFFF88
:1004E0000419FFFF0319FFFF0319FFFF0219FFFFA4
:1004F0000219FFFF0119FFFF0019FFFF0018FFFF9E
:100500000018FFFF0C11FFFF0A14FFFF0915FFFF82
:100510000816FFFF0716FFFF0617FFFF0517FFFF6F
:1005200004080B1804060D1803050E1803040F1811
:100530000204101802031018020310180202101807
:100540001018FFFF1018FFFF1018FFFF1017FFFF14
:100550001017FFFF1016FFFF1016FFFF0F15FFFF0C
:100560000F14FFFF0E14FFFF0D15FFFF0C16FFFF0A
:100570000B17FFFF0918FFFF0918FFFF0919FFFFFD
:100580000B19FFFF0C19FFFF0E1AFFFF0F1AFFFFD9
:10059000101AFFFF111AFFFF121AFFFF121AFFFFB6
:1005A000131AFFFF131AFFFF141AFFFF141AFFFF9D
:1005B000141AFFFF141AFFFF141AFFFF151AFFFF8A
:1005C000151AFFFF1519FFFF1519FFFF1519FFFF7A
:1005D0000206151801071418010814180009141749
:1005E00000091416000A1316010B1215010C111440
:1005F0000113FFFF0212FFFF0311FFFF040FFFFFB4
:10060000060CFFFF1317FFFF1217FFFF1217FFFF64
:100610001117FFFF1117FFFF1017FFFF1017FFFF44
:100620000F17FFFF0F17FFFF0E17FFFF0E17FFFF3C
:100630000D17FFFF0D17FFFF0C17FFFF0C17FFFF34
:100640000B0D0F170B0D0F170A0C0F170A0C0F17B6
:10065000090B0F17090B0F17080A0F17080A0F17B6
:1006600007090F1707090F1706080F1706080F17B6
:1006700005070F1705070F1704060F1704060F17B6
:1006800003050F1703050F1702040F1702040F17B6
:1006900001030F1701030F1700020F1700020F17B6
:1006A00000020F17001BFFFF001BFFFF001BFFFFD7
:1006B000001BFFFF001BFFFF001BFFFF001BFFFFD6
:1006C000001BFFFF001BFFFF001BFFFF001BFFFFC6
:1006D0000F17FFFF0F17FFFF0F17FFFF0F17FFFF8A
:1006E0000F17FFFF0F17FFFF0F17FFFF0F17FFFF7A
:1006F0000F17FFFF0F17FFFF0F17FFFF0F17FFFF6A
:100700000F17FFFF081BFFFF081AFFFF081AFFFF64
:10071000081AFFFF071AFFFF0719FFFF0719FFFF5E
:100720000719FFFF0719FFFF0618FFFF0618FFFF55
:100730000618FFFF0607FFFF0607FFFF0607FFFF7C
:100740000507FFFF0506FFFF0506FFFF0506FFFF84
:100750000506FFFF040CFFFF040FFFFF0411FFFF5E
:100760000412FFFF0414FFFF0414FFFF0315FFFF33
:100770000316FFFF0316FFFF0317FFFF0317FFFF1B
:100780000218FFFF0218FFFF0A18FFFF0C19FFFFF6
:100790000E19FFFF1019FFFF1119FFFF1219FFFFBC
:1007A0001319FFFF1319FFFF1419FFFF1419FFFF9F
:1007B0001519FFFF1519FFFF1519FFFF1619FFFF88
:1007C0001619FFFF1619FFFF1618FFFF030516186D
:1007D0000206151801081517010915170009141745
:1007E000000A1416000B1315000D12150114FFFF5B
:1007F0000113FFFF0212FFFF0311FFFF040FFFFFB2
:10080000060CFFFF181AFFFF151AFFFF131AFFFF50
:100810001117FFFF1016FFFF0E14FFFF0D13FFFF50
:100820000C12FFFF0B11FFFF0A10FFFF0910FFFF63
:10083000080FFFFF080EFFFF070EFFFF060DFFFF6B
:10084000060DFFFF050DFFFF050CFFFF040CFFFF6A
:10085000040CFFFF040BFFFF030BFFFF030BFFFF65
:10086000030BFFFF020A0D110214FFFF0215FFFF29
:100870000216FFFF010B0E17010A1018010A1018CB
:100880000109111901091119010911190109121A96
:100890000109121A0109121A0109121A0109121A80
:1008A0000109121B0109121B0109121B0109121B6C
:1008B0000109121B0109121B0109121B0109121A5D
:1008C0000109121A0209121A0209121A0209121A4D
:1008D00002091219030A1219030A1219030A12183B
:1008E000040A1218040A1218050A1217050B121727
:1008F000060B1116070C11150814FFFF0A13FFFF52
:100900000C10FFFF031BFFFF031BFFFF021AFFFF7B
:10091000021AFFFF021AFFFF021AFFFF0219FFFF70
:100920000219FFFF0219FFFF0219FFFF0118FFFF65
:100930000118FFFF0118FFFF010414180103141828
:1009400001021317000213170001131700011317F8
:1009500000011216000112161216FFFF1216FFFFF9
:100960001116FFFF1115FFFF1115FFFF1115FFFFF6
:100970001115FFFF1014FFFF1014FFFF1014FFFFED
:100980001014FFFF0F14FFFF0F13FFFF0F13FFFFE4
:100990000F13FFFF0E13FFFF0E12FFFF0E12FFFFDC
:1009A0000E12FFFF0D12FFFF0D12FFFF0D11FFFFD3
:1009B0000D11FFFF0C11FFFF0C11FFFF0C10FFFFCB
:1009C0000C10FFFF0C10FFFF0B10FFFF0B10FFFFC1
:1009D0000B0FFFFF0B0FFFFF0A0FFFFF0A0FFFFFB9
:1009E0000A0EFFFF0A0EFFFF090EFFFF090EFFFFB1
:1009F000090EFFFF090DFFFF080DFFFF080DFFFFA8
:100A0000080DFFFF0B11FFFF0814FFFF0715FFFF85
:100A1000060B1016050A11170409121804091218FA
:100A200003081318030813190208131902081319ED
:100A300002081319020813190108131901091319DF
:100A400001091319010A1319010A1319010B1319CA
:100A5000020B1318020C1218020D1217020E1216B6
:100A6000030F11150314FFFF0312FFFF0412FFFF12
:100A70000513FFFF0514FFFF0615FFFF0716FFFF15
:100A80000816FFFF0917FFFF0917FFFF0718FFFFF1
:100A9000060A0C1805090D1904090E1903080E1988
:100AA00003080F1A0208101A0208111A0107111A76
:100AB0000107121A0107121A0107121A0107131A65
:100AC0000107131A0107131A0107131A0107131A52
:100AD0000107131A01071319010713190108131944
:100AE0000208131802081218030812170309111735
:100AF000040A1116050B10150614FFFF0812FFFF5C
:100B00000A0FFFFF0B10FFFF0812FFFF0713FFFF85
:100B1000060B0F14050A1015050A11160409111603
:100B200004091117030911170309111802091218F2
:100B300002091219020912190109121901091219DF
:100B40000109121A0109121A0109121A0109121ACD
:100B50000109121A0109121A0109121A0109121ABD
:100B60000109121A0109121A0109121A0109121AAD
:100B70000109121A010A121A020A121A020A121A98
:100B8000020A121A030A121A030B121A040C111A7F
:100B9000041AFFFF051AFFFF0619FFFF070F1119BF
:100BA0000A0C11191019FFFF1018FFFF1018FFFF92
:100BB0001018FFFF0F17FFFF0F17FFFF0F16FFFFA4
:100BC0000E16FFFF0E15FFFF0E15FFFF0D14FFFFA2
:100BD0000D13FFFF0C13FFFF0B12FFFF0B11FFFFA5
:100BE0000A10FFFF090FFFFF080EFFFF070DFFFFB1
:100BF000050BFFFF040AFFFF0108FFFF0105FFFFD0
:100C00000102FFFF11241FBECFEFD8E0DEBFCDBF32
:100C100013E0A0E0B1E0ECE1F5E702C005900D9231
:100C2000A23CB107D9F714E0A2ECB3E001C01D92D9
:100C3000A83AB107E1F70E94A92D0C948C3A0C94C4
:100C400000008F929F92AF92BF92CF92DF92EF926D
:100C5000FF920F931F93CF93DF9300E010E058ECC7
:100C6000852E912C0E94F028DD24CC24AA24BB24BC
:100C7000CC2009F044C0E801C555DD4F0F5F1F4F80
:100C8000CE010E944239E82E8FEFE816B9F4DD203C
:100C900019F0CC24C39433C086ED809397040E944E
:100CA0002B21DF91CF911F910F91FF90EF90DF905B
:100CB000CF90BF90AF909F908F900895DD2019F452
:100CC0005801AE0CB11C2E2D30E0C901880F991FC0
:100CD000820F931F909581959F4F815C6D2D0E948F
:100CE000E628FE2C07C0CE010E94423960E00E9437
:100CF000EE21FA942196FF20B1F70E0D111DD39429
:100D000088E0D81609F0B4CF88E893E1F401319770
:100D1000F1F701978501D1F7A5CF0F931F930E949B
:100D2000F02880E091E060E00E94282288E062E004
:100D30000E94E6288AE091E060E00E94282288E094
:100D400064E00E94E62882E191E060E00E942822AF
:100D500088E067E00E94E62889E191E060E00E9477
:100D6000282291E004EF18E08091ED03882319F127
:100D70008091ED03823089F0843019F08130C9F41C
:100D80003FC0809143048F5F80934304809143046C
:100D9000893074F0109343040BC080914304815058
:100DA0008093430480914304843F14F400934304EC
:100DB00091E01092ED039923E9F085E362E00E944F
:100DC000E6288091430487FD03C08DE291E002C0D4
:100DD0008FE291E060E00E942822809143049927ED
:100DE00087FD909597FF03C0909581959F4F60E098
:100DF0000E94232A81E090E00E943A2A90E0B4CF3A
:100E00001F910F9108958091330181508093330198
:100E10008823F1F485E08093330180913101809340
:100E2000C20390913201980F90933101903218F0E3
:100E30008FEF80933201992319F481E0809332017E
:100E400090E08091C303882309F491E09093C30359
:100E50000895FF920F931F93082FF62E6AE00E94C9
:100E60002E38182F805D6F2D0E94EE21005D86EFD9
:100E70009FEF189F102D1124812F800F6F2D0E943E
:100E8000EE211F910F91FF9008951F93182F80E07E
:100E900060E00E94E62880915904612F0E94290792
:100EA00080915804612F0E94290786E660E00E9425
:100EB000E62880915A04612F0E94290780915704E7
:100EC000612F0E9429071F9108950F931F93082FE8
:100ED00014E1812F67E00E94E62886E0602F0E94DF
:100EE000B921185E1437A9F71F910F910895DF9269
:100EF000EF92FF920F931F93E82E90913101809112
:100F0000C203981718F4892F805A02C0892F815084
:100F100068E041E020E30E2D0E94392260E083E08A
:100F2000D82E15C080913101800F612F0E94E628D4
:100F30008091C3038D9DC00111248F0D6E2D0E94E1
:100F4000B921005F003671F7163039F0612FF62EA7
:100F5000F69400E0162F1F5FE5CF1F910F91FF90D1
:100F6000EF90DF9008951F93182F80913D04882300
:100F700059F480913E04882339F490914104809182
:100F8000C503891709F44EC010923E0480913E04B7
:100F900080933D048091C403882309F043C081E01D
:100FA0008093C403809141048093C50380918F0492
:100FB0000E94D3308093590480919A0480935804FE
:100FC00080914104833049F480919E040E94D33083
:100FD00080935A04809194041BC080914104813015
:100FE00031F484E180935A048091930411C080917C
:100FF0009D04882339F48091A40480935A0480913D
:10100000990406C08091990480935A048091A404A5
:10101000809357048091C40381508093C403812F2F
:101020000E9445071F9108951F93182F0E9477076C
:1010300080919F04882321F48091C603882339F08E
:10104000812F0E94650780919F048093C603812FA2
:101050000E94B3071F9108950F931F93182F80E0EC
:1010600060E040E820E4012F0E94392283E680936B
:10107000C503812F0E94B307812F0E944507812F4E
:101080000E947707812F0E9465071F910F91089595
:1010900081E0809331011092C20380E00E942C080D
:1010A00008952F923F924F925F926F927F928F920C
:1010B0009F92AF92BF92CF92DF92EF92FF920F93E7
:1010C0001F932090C9033090CA034090CB035090E7
:1010D000CC036090CD037090CE038090CF039090AE
:1010E000D003AA24BB246501F501E370F070EE0F74
:1010F000FF1FEE0FFF1FED58FB4FE080F1800281D4
:101100001381EA0CFB1C0C1D1D1DD401C30175E0ED
:10111000B695A795979587957A95D1F7A4019301F0
:1011200064E0220F331F441F551F6A95D1F78227B1
:101130009327A427B527860D971DA81DB91DE8265E
:10114000F9260A271B272E0C3F1C401E511E89EB37
:1011500099E7A7E3BEE9A80EB91ECA1EDB1EA201CD
:101160009101F5E05695479537952795FA95D1F772
:10117000D201C101E4E0880F991FAA1FBB1FEA95A5
:10118000D1F7282739274A275B27220D331D441D15
:10119000551DD601C5017BE0B695A7959795879516
:1011A0007A95D1F783709070880F991F880F991FD7
:1011B0008D589B4FFC0180819181A281B3818A0D62
:1011C0009B1DAC1DBD1D282739274A275B27620EB2
:1011D000731E841E951EF0E2AF16F7E3BF06FFEE06
:1011E000CF06F6ECDF0609F07FCF2092C9033092DC
:1011F000CA034092CB035092CC036092CD0370920D
:10120000CE038092CF039092D0031F910F91FF9055
:10121000EF90DF90CF90BF90AF909F908F907F9096
:101220006F905F904F903F902F90089580EB96EED7
:10123000A2E7B1EB80937F0490938004A093810494
:10124000B09382048091A50490E0A0E0B0E02EE687
:1012500031E749EE5DE282279327A427B5278093E3
:10126000730490937404A0937504B09376048091F2
:101270009A0490E0A0E0B0E021ED3DED4FE359E9A4
:1012800082279327A427B527809377049093780427
:10129000A0937904B0937A0480918F0490E0A0E049
:1012A000B0E027E53BEF47E75AE282279327A427E0
:1012B000B52780937B0490937C04A0937D04B09326
:1012C0007E041092C9031092CA031092CB031092AD
:1012D000CC031092CD031092CE031092CF03109244
:1012E000D0030E94510808958130F9F48091CD0314
:1012F0009091CE03A091CF03B091D0032091C90368
:101300003091CA034091CB035091CC03822793279D
:10131000A427B5273FE0B695A795979587953A9569
:10132000D1F79C01237030702FC08230F9F4809186
:10133000CD039091CE03A091CF03B091D003209123
:10134000C9033091CA034091CB035091CC0382274B
:101350009327A427B52721E1B695A795979587955B
:101360002A95D1F79C01217030700EC0A8950E947B
:1013700051082091CD033091CE038091C903909103
:10138000CA03282739273F77C9010895AF92CF9222
:10139000EF920F93A82FB0E0E02FF0E0CD01840F83
:1013A000911D8E179F07B4F0EC0DF11DEA17FB0796
:1013B0008CF070E04E2D50E0CB01820F911D841710
:1013C000950744F080E04A0D511D461757071CF061
:1013D00081E001C080E00F91EF90CF90AF90089531
:1013E000EF92FF920F931F9380E00E947409A0E098
:1013F000B0E0BC01CD010E94A13520E030E048E41E
:1014000052E40E94B93220E03EEF4FEF56E40E94D2
:10141000B33320E030E040EA51E40E948C327B019B
:101420008C0181E00E94740983702AE5829FC001CB
:101430001124AA2797FDA095BA2FBC01CD010E94C7
:10144000EF349B01AC01C801B7010E948C3226E544
:101450003EE049E450E40E94B93220E030E044E349
:1014600053E40E94B3331F910F91FF90EF900895C2
:101470002F923F924F925F926F927F928F929F92A4
:10148000AF92BF92CF92DF92EF92FF920F931F9392
:10149000DF93CF93CDB7DEB761970FB6F894DEBF79
:1014A0000FBECDBFEC86FD860E871F87998A888A7E
:1014B0002D833E834F835887AC01CB01DA013C0179
:1014C0004D01C501D6015C016D011A8619869FC0C8
:1014D0006D817E818F819885A60195010E948C3255
:1014E0001B012C01C401B3012C853D854E855F8510
:1014F0000E948C3269837A838B839C83C201B10101
:1015000020E030E048E652E40E945F3418167CF494
:10151000D7FAD094D7F8D0940F2EF0E02F2EF0E029
:101520003F2EF8E64F2EF2E45F2EF02D18C0C201D8
:10153000B10120E030E040E050E40E94BF34882355
:1015400074F4D7FAD094D7F8D0940F2EF0E02F2E61
:10155000F0E03F2EF0E04F2EF0E45F2EF02D698199
:101560007A818B819C810E944D356B876F368CF020
:10157000C801B70120E030E046EE52E40E94BF34DB
:1015800088233CF460E070E086EE92E4A8019701C5
:1015900013C0FB85FE3054F5C401B30120E030E0F8
:1015A00040E551E40E945F34181604F560E070E0F5
:1015B00080E591E4A40193010E945B322C853D8576
:1015C0004E855F850E94B333A60195010E94B93212
:1015D0009B01AC016D817E818F8198850E948C3248
:1015E0000E94E330E889F989608307C0F985FF2309
:1015F00021F48A858F5F8A8702C0E1E0E9872D8226
:101600003E824F82588669807A808B809C80C4019C
:10161000B30120E030E04CEE52E40E94BF34882356
:101620009CF4C401B30120E030E040E850E40E94A3
:101630008C327B018C0120E030E040E251E40E94DA
:101640005F3418160CF444CF6D817E818F819885AC
:101650000E94E330EEA1FFA160838A8561960FB6F8
:10166000F894DEBF0FBECDBFCF91DF911F910F91D8
:10167000FF90EF90DF90CF90BF90AF909F908F90B2
:101680007F906F905F904F903F902F9008958F9232
:101690009F92AF92BF92CF92DF92EF92FF920F9301
:1016A0001F93CF93DF93D82E862E922EC42FD0E097
:1016B000CC0FDD1FCC0FDD1FC85FDF4FCC24CE0168
:1016C0000E944239182D47E0E42EF12CA82EBB24AD
:1016D000C5010E2C02C0959587950A94E2F780FF0C
:1016E00009C000E0992009F401E08D2D612F42E04E
:1016F00022E005C08D2D612F42E022E0092D0E94DD
:1017000039220894E108F1081E5F8FEFE8168FEF89
:10171000F806F1F6C394219682E0D80E84E0C8164C
:1017200071F6DF91CF911F910F91FF90EF90DF90B5
:10173000CF90BF90AF909F908F900895CF92DF92FF
:10174000EF92FF920F931F93D82EC62E882309F590
:10175000E0908504F090860400918704109188043D
:1017600060916B0470916C0480916D0490916E0493
:101770000E94E33070E06A317105C4F0693271058E
:10178000ACF4C801B7010E94E33070E06531710527
:101790006CF4809159046AE00E942E38482F8EE143
:1017A00064E02C2D0E94470BDD2009F5E0908504B4
:1017B000F0908604009187041091880460916B0476
:1017C00070916C0480916D0490916E040E94E330DE
:1017D00070E069327105C4F068337105ACF4C8017A
:1017E000B7010E94E33070E0653171056CF48091BF
:1017F00059046AE00E942E388DE264E0492F2C2DB6
:101800000E94470BDD2009F5E0908504F0908604E6
:10181000009187041091880460916B0470916C04AE
:1018200080916D0490916E040E94E33070E0623408
:101830007105C4F061357105ACF4C801B7010E94AF
:10184000E33070E0653171056CF480915A046AE010
:101850000E942E38482F86E464E02C2D0E94470B0E
:10186000DD2009F5E0908504F0908604009187045E
:101870001091880460916B0470916C0480916D04E8
:1018800090916E040E94E33070E061357105B4F010
:10189000603671059CF4C801B7010E94E33070E026
:1018A000653171055CF480915A046AE00E942E381B
:1018B00085E564E0492F2C2D0E94470B1F910F9165
:1018C000FF90EF90DF90CF9008950F931F93082F14
:1018D00010E08FE3612F0E94E628002311F080EFD3
:1018E00001C08FE00E948D281F5F173091F78FE3B2
:1018F00067E00E94E628002311F080E201C08FEC2F
:101900000E948D281F910F9108959091410480911C
:10191000C803981739F081E08093C7038091410490
:101920008093C80380914104813059F1813030F0B7
:101930008230C9F1833009F048C03DC080913D0438
:10194000882321F480913E04882391F080913E0405
:10195000882339F080919B040E94D33080935904EE
:1019600004C080913D04882381F18091910420C0BE
:1019700080918F040E94D3308093590480919A04FF
:1019800017C080919D04882339F48091A40480932A
:101990005904809199040CC0809199048093590452
:1019A0008091A40405C084E180935904809193043C
:1019B00080935A04089580919E040E94D3308093AE
:1019C00059048091940480935A040895BF92CF9251
:1019D000DF92EF92FF920F931F93B82E0E94850C17
:1019E00060916B0470916C0480916D0490916E0411
:1019F0000E94E3307B018C01609185047091860424
:101A000080918704909188040E94E3309B01AC018F
:101A10008E2D622F44E024E00B2D0E943922CC242D
:101A2000BB2011F4CC24C39460916F0470917004B6
:101A300080917104909172040E94E3307B018C01CB
:101A400060916204709163048091640490916504D4
:101A50000E94E3309B01AC018E2D622F44E024E014
:101A60000C2D0E943922E0908504F09086040091AC
:101A700087041091880460916B0470916C048091CC
:101A80006D0490916E040E94E33070E06B33710539
:101A900064F0613471054CF4C801B7010E94E33071
:101AA00070E0613471050CF476C060915B04262F00
:101AB00030E080915C04992787FD909528173907BD
:101AC00031F08AE043E02CE00B2D0E9439228AE0BD
:101AD00060915C0443E02CE00C2D0E94392260915F
:101AE0008404262F30E080918304992787FD909508
:101AF0002817390731F083E743E02CE00B2D0E94D3
:101B0000392283E76091830443E02CE00C2D0E948E
:101B10003922E0908504F0908604009187041091AA
:101B20008804D090830460916B0470916C04809160
:101B30006D0490916E040E94E33070E06F36710581
:101B4000A4F0673771058CF4C801B7010E94E33037
:101B500070E02D2D30E0CB010496821793072CF016
:101B6000245F3F4F26173707D4F4109270008091FE
:101B7000C703882311F01092C70381E0809370009F
:101B80006B2D0E949E0B1F910F91FF90EF90DF90A5
:101B9000CF90BF9008958B2D0E94650C86CF83E770
:101BA0006D2D43E02CE00C2D0E943922DECF2F92C8
:101BB0003F924F925F926F927F928F929F92AF92DD
:101BC000BF92CF92DF92EF92FF920F931F93DF931A
:101BD000CF93CDB7DEB72E970FB6F894DEBF0FBE0A
:101BE000CDBF60916F0470917004809171049091E9
:101BF000720460936B0470936C0480936D049093F3
:101C00006E04E0906204F09063040091640410910B
:101C10006504E0928504F092860400938704109393
:101C200088042091660430916704409168045091C3
:101C300069040E948C325B016C0160936F047093A5
:101C40007004809371049093720460905E047090AD
:101C50005F048090600490906104C801B701A40102
:101C600093010E948C3260936204709363048093AA
:101C700064049093650420E030E048E652E40E945A
:101C80005F341816BCF480E090E0A8E6B2E48093DC
:101C9000620490936304A0936404B0936504D40138
:101CA000C301B05880935E0490935F04A0936004D6
:101CB000B093610460916204709163048091640444
:101CC0009091650420E030E040E050E40E94BF3491
:101CD0008823ECF480E090E0A0E0B0E4809362041C
:101CE00090936304A0936404B093650480915E04B0
:101CF00090915F04A0916004B0916104B05880930A
:101D00005E0490935F04A0936004B0936104C601E5
:101D1000B50120E030E048EF52E40E945F3418162D
:101D20003CF0C601B5010E944D3516160CF464C096
:101D300080E090E0ACE7B2E480936F04909370048D
:101D4000A0937104B093720480E090E0A8EFB1E436
:101D50008093620490936304A0936404B093650439
:101D60000E94F0097B018C010E94DE3820E030E007
:101D700040EA50E40E94B9326093660470936704AD
:101D80008093680490936904C801B7010E943C39AC
:101D900020E030E040EA50E40E94B93260935E04F3
:101DA00070935F0480936004909361046091D70303
:101DB0002091D603261B8AE043E000E00E943922EE
:101DC0006091DB032091DA03261B83E743E00E9446
:101DD00039221092DA031092DB031092D60310928C
:101DE000D70381E08093C70310923E0480913E04A4
:101DF00080933D040E94850C80915C048E838093C7
:101E00005B04909183049D839093840420906604E6
:101E1000309067044090680450906904C201B10199
:101E200020E030E040E050E00E945F3418160CF0F3
:101E300038C160916F047091700480917104909129
:101E400072040E944D356F360CF467C0E0906B044D
:101E5000F0906C0400916D0410916E04C801B701FC
:101E60000E944D3560370CF058C0C801B70120E022
:101E700030E040E850E40E948C329B01AC0160E00D
:101E800070E086EE92E40E945B325B016C01609030
:101E90005E0470905F048090600490906104C801BB
:101EA000B701A60195010E948C326F8378878987DC
:101EB0009A87E0908504F090860400918704109141
:101EC00088040E94E33070E06F36710534F16737A3
:101ED00071051CF5C601B501A20191010E94B33341
:101EE000A40193010E94B9329B01AC01C801B70162
:101EF0000E948C327B018C010E94E33070E0AD8146
:101F00002A2F30E0CB0104968217930734F0245F28
:101F10003F4F261737070CF02CC2E0906604F09074
:101F200067040091680410916904C801B70120E0BA
:101F300030E040E050E00E945F3418160CF0FBC126
:101F400060906F047090700480907104909072049F
:101F5000C401B30120E030E040E850E40E948C323C
:101F600020E030E046EE52E40E94BF3488230CF0BB
:101F7000E2C18091DB03882309F05DC000D020918D
:101F80006204309163044091640450916504A09010
:101F90005E04B0905F04C0906004D090610488ED4E
:101FA00093E0EDB7FEB792838183C401B301F9EDED
:101FB0008F2EF3E09F2E0E94380A8093D1039091D8
:101FC000D9038091D8030F900F90891738F480932C
:101FD000DB039C5F9093DA03945005C09093DB037E
:101FE0008C5F8093DA0380913E04882379F4892FF3
:101FF00084508093D303992787FD90950E94A72F43
:1020000086E890E061E00E94332F1AC00091DB0364
:102010001091DA030F3058F0113328F482E00E9457
:10202000740980FF04C00D500093D30309C01F5FE3
:102030001093D30305C08091D10381508093D103C5
:10204000309183046091D303832F861B482F55273B
:1020500047FD509557FF03C0509541955F4F8091C4
:10206000D10325E08202C0011124049748175907C3
:102070000CF461C1842F36173CF4463014F03B5FFA
:1020800001C0340F309383049091830469170CF0DE
:1020900052C1863014F0955001C0981B9093830470
:1020A0004AC180916F0490917004A0917104B09125
:1020B000720489839A83AB83BC83BC01CD010E94E7
:1020C0004D356E300CF07DC0E0906B04F0906C04E8
:1020D00000916D0410916E04C801B7010E944D3546
:1020E0006D300CF46EC060E070E080E591E4A80112
:1020F00097010E945B325B016C0160905E047090FE
:102100005F048090600490906104C801B701A6014B
:1021100095010E948C326B877C878D879E87E0902B
:102120008504F090860400918704109188040E9431
:10213000E33070E0663071050CF443C06E30710519
:102140000CF03FC0C601B501A20191010E94B3335A
:10215000A40193010E94B9329B01AC01C801B701EF
:102160000E948C327B018C010E94E33070E09E81E2
:10217000292F30E0CB0104968217930714F1245FD6
:102180003F4F26173707ECF024C18B859C85AD8522
:10219000BE8580936F0490937004A0937104B093F4
:1021A0007204E0926204F09263040093640410935A
:1021B00065041092D6031092D7031092D2031092A6
:1021C000D503E0906604F0906704009168041091D4
:1021D0006904C801B70120E030E040E050E00E940F
:1021E000BF3488230CF0A7C060906F047090700417
:1021F0008090710490907204C401B30120E030E03B
:1022000040E651E40E945F3418160CF094C08091AF
:10221000D703882309F054C000D020916204309184
:1022200063044091640450916504A0905E04B090F2
:102230005F04C0906004D090610484ED93E0ADB77A
:10224000BEB712969C938E931197C401B301E5ED2E
:102250008E2EE3E09E2E0E94380A8093D103909147
:10226000D5038091D4030F900F90891738F4809391
:10227000D7039C5F9093D603945005C09093D703E7
:102280008C5F8093D60380913D04882321F4945081
:102290009093D2031AC00091D7031091D6030F3048
:1022A00058F0113328F482E00E94740980FF04C0C2
:1022B0000D500093D20309C01F5F1093D20305C0D5
:1022C0008091D10381508093D10340915C0460914F
:1022D000D203242F332727FD3095862F992787FD9A
:1022E0009095281B390B37FF03C0309521953F4F40
:1022F000522F8091D10325E08202C001112404975E
:10230000252F332727FD309528173907A4F04617C6
:102310003CF4563014F04B5F01C0450F40935C0411
:1023200080915C0468173CF4563014F0855001C06D
:10233000851B80935C0480915C0483301CF483E0F3
:1023400080935C048091830483301CF483E0809349
:10235000830480915C0482331CF081E380935C04ED
:102360008091830482330CF449C081E38093830419
:1023700045C08F819885A985BA8580936F04909315
:102380007004A0937104B0937204E0926204F0921E
:1023900063040093640410936504D201C101B05832
:1023A0008093660490936704A0936804B0936904D3
:1023B0001092DA031092DB031092D3031092D90328
:1023C0001092D6031092D7031092D2031092D50325
:1023D000A4CDD201C101B0588093660490936704E4
:1023E000A0936804B093690469817A818B819C8190
:1023F0000E94E3306D3009F0C8CEDBCE2E960FB6CA
:10240000F894DEBF0FBECDBFCF91DF911F910F912A
:10241000FF90EF90DF90CF90BF90AF909F908F9004
:102420007F906F905F904F903F902F900895FF9214
:102430000F931F93F82E80E060E040E820E40F2D1A
:102440000E94392210E0FF2009F411E080E060E0F2
:1024500040E822E0012F0E94392280E06EE340E84C
:1024600022E00E9439228AE060915C0443E02CE083
:102470000E94392283E76091830443E02CE00E94AC
:1024800039220E94850C809159046AE00E942E38FE
:10249000482F8EE164E02F2D0E94470B8091590454
:1024A0006AE00E942E388DE264E0492F2F2D0E94B1
:1024B000470B80915A046AE00E942E38482F86E428
:1024C00064E02F2D0E94470B80915A046AE00E941D
:1024D0002E3885E564E0492F2F2D0E94470B8F2D64
:1024E0000E94650C1F910F91FF900895EF92FF924B
:1024F0000F931F9389E180935C0480935B04809326
:1025000083048093840480E090E0ACE7B2E480939D
:102510006F0490937004A0937104B093720480933D
:102520006B0490936C04A0936D04B0936E0480E0F0
:1025300090E0A8EFB1E48093620490936304A093C9
:102540006404B09365048093850490938604A093FB
:102550008704B09388040E94F0097B018C010E94DB
:10256000DE3820E030E040EA50E40E94B932609367
:102570006604709367048093680490936904C801AB
:10258000B7010E943C3920E030E040EA50E40E946C
:10259000B93260935E0470935F04809360049093FB
:1025A000610480E00E9417121F910F91FF90EF903D
:1025B00008958091A304882341F080913D048230E6
:1025C00021F080913E04823031F410923E048091DB
:1025D0003E0480933D040895DF92EF92FF920F93A3
:1025E0001F93D82EE62E10E0442309F411E08D2D20
:1025F0008E5F6E2D4EE026E0012F0E943922FE2CC8
:10260000F3948D2D8F5F6F2D41E024E00E943922DD
:1026100082E0E80E8D2D6E2D41E022E00E943922ED
:102620008D2D805F6F2D41E024E00E9439228D2D99
:102630008F5E6E2D41E022E00E9439221F910F91A2
:10264000FF90EF90DF900895DF92EF92FF920F934B
:102650001F93D82E162FEE24442311F4EE24E39476
:10266000612F6E5F8D2D46E025E10E2D0E943922EF
:10267000FD2CF394612F6F5F8F2D44E021E00E94C9
:10268000392282E0D80E8D2D612F42E021E00E9498
:102690003922195E8F2D612F44E021E00E943922FA
:1026A0001F5F8D2D612F42E021E00E9439221F9192
:1026B0000F91FF90EF90DF9008958436D1F085362A
:1026C00038F4823681F0833680F4813641F507C0D4
:1026D0008636C1F08636A0F0873609F51AC0862FF7
:1026E0008C5F642F09C04B5F01C04E5D862F8C5EEE
:1026F0000BC0862F8C5F6AE3422F0E94EC12089574
:102700004E5D01C04B5F862F642F422F0E94241321
:102710000895862F8C5F6DE1422F0E94EC12089580
:10272000CF92DF92EF92FF920F931F93CF93DF939D
:10273000C82ED62E022FC7E0D0E011E6E42EFF24EB
:10274000C7010C2E02C0959587950A94E2F780FF89
:1027500005C0812F6C2D4D2D202F07C020E00023B8
:1027600009F421E0812F6C2D4D2D0E945D132197DE
:102770001F5F183629F7DF91CF911F910F91FF90BE
:10278000EF90DF90CF9008950F93082F80E060E0E6
:1027900040E820E40E9439220F9108950F9380E0D1
:1027A00060E040E820E400E00E9439220F910895A3
:1027B000FF920F931F93182F062FF22E842F90E075
:1027C0004A3028F48F559D4F0E94423904C08A5DDB
:1027D0009D4F0E944239482F812F602F2F2D0E943C
:1027E00090131F910F91FF90089520E0442309F466
:1027F00021E044E00E9429230895EF92FF920F9375
:102800001F93082F809141048823C9F080914104CF
:102810008330A9F0102F011111E080E465E144E05C
:10282000212F0E94292380E46AE244E0212F0E94A4
:10283000292380E466E044E0212F0E94292380912F
:1028400041048230F1F480E060E042E0202F0E94F9
:10285000D8138EE160E040E0202F0E94D8138091D1
:10286000930464E60E942E38892F6AE00E942E3875
:10287000482F88E460E0202F0E94D81380919304B1
:1028800030C0809141048130B1F580919D0488234E
:1028900029F41091A404F090990404C010919904B3
:1028A000F090A404812F6AE00E942E38482F80E027
:1028B00060E0202F0E94D813812F6AE00E942E38FA
:1028C0008EE160E0492F202F0E94D8138F2D6AE0FF
:1028D0000E942E38482F88E460E0202F0E94D813F1
:1028E0008F2D6AE00E942E3886E660E0492F202F67
:1028F0000E94D81380C080914104882329F08091E0
:102900004104833009F077C080914104833029F479
:1029100010919E04E090940404C010918F04E09004
:102920009A0480919204882399F4812F0E94D330D5
:10293000F82E1C3020F420E0002321F402C020E017
:10294000011121E080E466E044E00E94292309C0EF
:1029500020E0011121E080E466E044E00E942923A8
:10296000F12E89E08F1548F48F2D6AE00E942E38F1
:10297000482F80E060E0202F07C020E0002309F40A
:1029800021E080E060E048E00E94D8138F2D6AE0EB
:102990000E942E388EE160E0492F202F0E94D8132C
:1029A0008E2D6AE00E942E38482F88E460E0202FA8
:1029B0000E94D8138E2D6AE00E942E3886E660E0D1
:1029C000492F202F0E94D81380913F04882399F02B
:1029D0002091A50411E02127217080E465E144E005
:1029E0000E9429232091A5042127217080E46AE216
:1029F00044E00E9429231F910F91FF90EF900895CA
:102A0000DF92EF92FF920F931F93CF93DF93D82E15
:102A1000F62EE22EF694F694F694EA0100E015C044
:102A2000FE011491802F6CE10E942E38292F2D0D6C
:102A3000802F0E942E38682F6F0D822F0E94E6286B
:102A4000812F0E948D280F5F21960E1548F3DF918C
:102A5000CF911F910F91FF90EF90DF900895CF924B
:102A6000DF92EF92FF920F931F93CF93DF93C82EC5
:102A7000F62ED22EE02EF694F694F694EA0110E0AB
:102A800019C00881812F6CE10E942E38992341F4EE
:102A9000812F0E942E38682F6F0D8C2D0E94E62802
:102AA000EE2019F0802F809501C0802F0E948D2884
:102AB0001F5F21961D1528F3DF91CF911F910F9174
:102AC000FF90EF90DF90CF9008957F928F929F922A
:102AD000AF92BF92CF92DF92EF92FF920F931F932C
:102AE000DF93CF93CDB7DEB7C05ED0400FB6F8947A
:102AF000DEBF0FBECDBFA82E962EB22E802EFE01B9
:102B0000319680EEDF011D928A95E9F7DA0150E0F7
:102B10009CE1792E81E0C82ED12C7F011CC0F901E7
:102B200084912F5F3F4FF901749121503040482F1D
:102B300009C0F801E40FF11DEE0DFF1D8081862B09
:102B400080834F5F4717A8F39F5F2E5F3F4F923000
:102B500031F75F5F14965B1588F4852F869586950F
:102B60008695879D80011124852F87706C2D01C06B
:102B7000660F8A95EAF79D0190E0D1CF8A2D692DE5
:102B8000AE014F5F5F4F20EE082D0E942F15C052FF
:102B9000DF4F0FB6F894DEBF0FBECDBFCF91DF91F0
:102BA0001F910F91FF90EF90DF90CF90BF90AF906B
:102BB0009F908F907F9008950F93942F022F592FFD
:102BC00040E04C5F5D4F20E40E9465150F91089531
:102BD0002F923F924F925F926F927F928F929F922D
:102BE000AF92BF92CF92DF92EF92FF920F931F931B
:102BF000DF93CF93CDB7DEB7C35FD0400FB6F89465
:102C0000DEBF0FBECDBFC251DF4F8883CE5ED04046
:102C1000C151DF4F6883CF5ED040C051DF4F488342
:102C2000C05FD040CF50DF4F0883C15FD040FE016E
:102C3000399680EEDF011D928A95E9F78091E103D4
:102C4000282E3324D22ECC2444E052E0C40ED51ECC
:102C5000C051DF4F8881C05FD040F82EEE24E40ED3
:102C6000F51E88249924B5E06B2E712C6C0E7D1E08
:102C7000CE50DF4FF983E883C25FD040582DC0515A
:102C8000DF4F8881C05FD0408F3F29F41C821B82B8
:102C90001A82198209C0DE011196F70184918D9381
:102CA0003196A615B705D1F79981C451DF4F9883A6
:102CB000CC5ED04030E09F3F09F031E08B818F3F08
:102CC00009F03F5FD301F60184918D933196CE5088
:102CD000DF4F88819981C25FD040A817B907A1F75B
:102CE0009D81C551DF4F9883CB5ED04090E0C551A8
:102CF000DF4FA881CB5ED040AF3F09F091E08F81DC
:102D00008F3F09F09F5F292F931708F4232FBA8173
:102D1000C351DF4FB883CD5ED0405695569556953A
:102D2000ECE15E9F20011124C4018770907041E0A6
:102D300050E002C0440F551F8A95E2F7C751DF4F9C
:102D40004883C95ED0405E81C651DF4F5883CA5E5A
:102D5000D04083015E010894A11CB11C622F70E079
:102D6000660F771F660D771D69C0D5012C912F3F27
:102D700019F01196BC910AC0C451DF4F2881CC5E76
:102D8000D040C351DF4FB881CD5ED040F801808183
:102D90008F3FB1F1A18190E030E0821B930B829DC7
:102DA000A001839D500D929D500D1124405F5F4FF7
:102DB000F5E056954795FA95E1F7420F531F50708D
:102DC0008A2F90E02B2F30E0821B930B829DD00145
:102DD000839DB00D929DB00D11245096E5E0B695FF
:102DE000A795EA95E1F7A20FB31FB070F201E40FC7
:102DF000F51F89E090E08C0F9D1FE80FF91F15C0AB
:102E0000C551DF4F8881CB5ED040C651DF4FA881CE
:102E1000CA5ED040C0CF8081C751DF4F9881C95E64
:102E2000D040892B81934F5F5F4F4A175B0798F320
:102E30000E5F1F4FA2E0B0E0AA0EBB1E06171707D9
:102E400009F093CF0894811C911CE4E0F0E0CE0ED1
:102E5000DF1EEE0EFF1EF0E48F16910409F00ECF78
:102E6000C251DF4F8881CE5ED040C151DF4F6881B3
:102E7000CF5ED040AE01475F5F4F20EECF50DF4FB7
:102E80000881C15FD0400E942F15CD50DF4F0FB693
:102E9000F894DEBF0FBECDBFCF91DF911F910F9190
:102EA000FF90EF90DF90CF90BF90AF909F908F906A
:102EB0007F906F905F904F903F902F900895EF928A
:102EC000FF920F931F93E82E162FFF24442311F433
:102ED000FF24F39413508E2D8150612F42E026E0A1
:102EE0000F2D0E9439221F5F8E2D8250612F44E0EA
:102EF00024E00E9439221F5F8E2D8350612F46E00F
:102F000022E00E9439221F910F91FF90EF900895C7
:102F10001F93182F80E464E1412F0E945F1780E423
:102F20006AE3412F0E945F171F9108958091410429
:102F3000882359F480913F04882339F010923F048C
:102F40008091A50481700E94881708950F931F93A4
:102F5000CF93DF93182F80914104882329F080912B
:102F60004104833009F0C8C0909141048091EB0383
:102F7000891709F450C08091DE03882309F04BC003
:102F80008091E6038093E2038091E7038093E3035B
:102F90008091E8038093E4038091E9038093E50343
:102FA00080914104882341F480918F040E94D330A2
:102FB000382F20919A0407C080919E040E94D3303C
:102FC000382F20919404822F6AE00E942E3890932B
:102FD000E903822F0E942E388093E803832F0E94FA
:102FE0002E388093E603832F0E942E389093E703B8
:102FF000812F0E9488178CE363E247E025E0012FD0
:103000000E943922809141048093EB038091DE037A
:103010008F5F8093DE0380914104882309F046C0CE
:1030200080913D04882321F480913E048823F1F1AE
:103030008091DE038823D1F581E08093DE038091C7
:10304000E9038093E50380919A046AE00E942E3898
:103050009093E9038091E8038093E40380919A04BC
:103060000E942E388093E80380913E048823C1F0AB
:1030700080918F040E94D330282F8091E6038093A3
:10308000E2038091E7038093E303822F6AE00E94CA
:103090002E388093E603822F0E942E389093E70308
:1030A00010923E0480913E0480933D048091EA0397
:1030B000811709F474C08091DE03882309F06FC082
:1030C00060E040E820E4012F0E943922812F0E9415
:1030D0008817C0E0D0E0FE01E45CFE4FDE01AA519B
:1030E000BC4F808160E04C91212F0E94DC1521961D
:1030F000C430D10581F753C000914104013009F07B
:1031000051C0909141048091EB03891709F447C0A5
:1031100086E990E061E00E94332F8091DE038823EE
:10312000F1F50093DE03809141048093EB038091DD
:10313000E6038093E2038091E7038093E3038091A9
:10314000E8038093E4038091E9038093E503809191
:103150009D04882329F42091A4043091990404C08B
:10316000209199043091A404822F6AE00E942E38A5
:103170008093E603822F0E942E389093E703832FDB
:103180000E942E388093E803832F0E942E3890935C
:10319000E90380E0112309F481E00E948817C0E070
:1031A000D0E04EC0009141040230C9F79091410433
:1031B0008091EB03891799F380E990E061E00E9428
:1031C000332F8091DE03882351F781E08093DE0363
:1031D0008BE890E061E00E94332F8091410480935E
:1031E000EB038091E6038093E2038091E7038093F1
:1031F000E3038091E8038093E4038091E9038093E3
:10320000E5030093E6031092E703809193046AE0DC
:103210000E942E388093E803809193040E942E38F8
:103220009093E90380E0112309F481E00E9488175C
:103230008CE363E247E025E0012F0E943922AFCF03
:10324000FE01EE51FC4F4081FE01EA51FC4F20810E
:10325000421741F0FE01E45CFE4F808160E0012FE7
:103260000E94E8152196C430D10551F79091DE03F4
:10327000992389F18091E1038F5F8093E10381328B
:1032800050F11092E1038091E6038093E203809174
:10329000E7038093E3038091E8038093E403809144
:1032A000E9038093E50391509093DE0380914104FC
:1032B000813059F400E0112309F401E08CE363E26A
:1032C00047E025E00E94392206C080914104823007
:1032D00011F0809141041093EA03DF91CF911F9187
:1032E0000F9108950F931F93CF93DF93182F80E0D2
:1032F00060E040E820E4012F0E9439221092E103AF
:1033000080918F040E94D330382F20919A048FEF40
:103310008093E5038093E4038093E3038093E203C7
:10332000822F6AE00E942E389093E903822F0E9438
:103330002E388093E803832F0E942E389093E70362
:10334000832F0E942E388093E60317C0C0E0D0E0A0
:10335000FE01E45CFE4FDE01AE51BC4F9E012A51DE
:103360003C4F808160E04C91F9012081012F0E9447
:10337000E8152196C430D10559F78091E1038F5F9C
:103380008093E1038150813208F38CE990E060E0A2
:103390000E94332F8091E6038093E2038091E7033C
:1033A0008093E3038091E8038093E4038091E90331
:1033B0008093E503812F0E9488171092E103DF912B
:1033C000CF911F910F91089580E00E947219089586
:1033D00026982E9A81E080936800EBE6F0E08081E9
:1033E0008064808382E080937C0010927B00EAE717
:1033F000F0E08EE8808380818064808308958091EE
:103400007A00877F80937A0080917A00806480932D
:103410007A0080917A0084FFFCCF2091780030916F
:103420007900C90108951F920F920FB60F921124CF
:103430002F933F934F935F936F937F938F939F93BC
:10344000AF93BF93EF93FF9378940E94B229FF91BB
:10345000EF91BF91AF919F918F917F916F915F910C
:103460004F913F912F910F900FBE0F901F90189585
:103470001F920F920FB60F9211242F933F934F93E9
:103480005F936F937F938F939F93AF93BF93EF93CC
:10349000FF937894809178009091790022E0803EAB
:1034A000920728F01092EE031092EC0373C022E012
:1034B0008336920798F18091EC0382FD6BC08AE01D
:1034C00090E00E94FF2E0E94FF19825692408E3794
:1034D000910508F05FC082E08093EF0312C00E9464
:1034E000FF19825692408E37910558F08091EC0377
:1034F0008B7F8093EC038091ED0384608093ED03D8
:1035000049C08091EF03882351F78091EC038460D8
:103510008093EC038091EE0384603AC08F50914019
:10352000E8F08091EC0381FD10C08AE090E00E94F9
:10353000FF2E0E94FF198E5091408555914050F505
:103540008091ED0382608093ED038091EC038260B3
:103550008093EC038091EE0382601AC08091EC03AB
:1035600080FD0EC08AE090E00E94FF2E0E94FF19AD
:103570008F50914078F48091ED0381608093ED034A
:103580008091EC0381608093EC038091EE03816075
:103590008093EE0380917A00886480937A00FF9193
:1035A000EF91BF91AF919F918F917F916F915F91BB
:1035B0004F913F912F910F900FBE0F901F90189534
:1035C0008091ED0380FF02C081E008958091ED03BA
:1035D000882321F48091EE03882321F08AE08093F0
:1035E000F00304C08091F003882311F080E0089577
:1035F0001092A00482E00895EF92FF920F931F9320
:10360000982F8B017A0180E0692F0E94E62880E4E0
:1036100091E060E00E942822C80160E00E94282218
:1036200087E491E060E00E942822C70160E00E94E8
:1036300028221F910F91FF90EF9008951F93182F4C
:103640008BE260E00E94E62880919704853DD9F0E6
:10365000863D38F4833DA1F0843D60F4823D21F540
:103660000CC0873DB1F0873D88F0883DA9F0893DC9
:10367000D9F415C08CE491E014C086E591E011C046
:1036800084E691E00EC08FE691E00BC08AE791E0FE
:1036900008C081E891E005C088E891E002C082E9B5
:1036A00091E0612F0E9428221F9108951F93182FE7
:1036B00088E064E00E94E62888E991E060E00E94EA
:1036C000282280919D04882339F4809192048823D4
:1036D00019F481EA91E020C080919D04882339F497
:1036E00080919204813019F48EEA91E015C08091A6
:1036F0009D04813039F480919204882319F48BEB76
:1037000091E00AC080919D04813049F48091920437
:10371000813029F488EC91E0612F0E9428221F91CA
:1037200008958F929F92AF92BF92CF92DF92EF92C5
:10373000FF920F937C016B015A01490180E060E325
:1037400040E820E100E00E94392286E0B701A601AE
:103750000E94FC1A87E0B501A4010E94FC1A0F9197
:10376000FF90EF90DF90CF90BF90AF909F908F90A1
:103770000895AC019B0185ED91E0BA0147ED51E060
:103780000E94911B08958BED91E062EE71E00E9422
:10379000B91B089587EE91E06CEE71E047ED51E0C2
:1037A00022EE31E00E94911B089587EE91E061EFD7
:1037B00071E047ED51E029EF31E00E94911B08953F
:1037C0000F931F93CF93DF93182F062F80919204AE
:1037D000882371F584E761E00E94E6281C3010F030
:1037E00080E501C081E460E00E94EE218DE460E0AC
:1037F0000E94EE2180E561E00E94E628812F90E0A2
:1038000047966CE070E00E944E38EC0189309105DB
:1038100024F09C012F5F822F10C080E260E00E94A4
:10382000EE219E012F5C822F602F0E94EE2108C0A6
:1038300080E561E00E94E628812F602F0E94232A04
:10384000DF91CF911F910F9108950F931F93CF9305
:10385000DF93082F162F809192048823D1F4802FB4
:1038600090E047966CE070E00E944E38EC018930A1
:10387000910524F09C012F5F822F14C080E260E04C
:103880000E94EE219E012F5C822F612F0E94EE216B
:103890000CC080E260E00E94EE2180E260E00E94C5
:1038A000EE21802F612F0E94232ADF91CF911F915B
:1038B0000F910895EF92FF920F931F93F82E162FFA
:1038C000E42E022F88E063E00E94E6288DEF91E06D
:1038D00060E00E94282280919D048823B1F483E057
:1038E00092E060E00E94282260E00B3009F461E081
:1038F0008F2D0E94232A8FE260E00E94EE2160E07B
:103900000C3009F461E0812F19C080919D04813051
:10391000D9F483E092E060E00E94282260E00C305D
:1039200009F461E0812F0E94232A8FE260E00E9467
:10393000EE2160E00B3009F461E08F2D0E94232A14
:103940008FE260E00E94EE2110E00D3009F411E0FA
:1039500084E1612F0E94232A8E2D612F0E94232A49
:103960001F910F91FF90EF9008951F93182F88E0FB
:1039700065E00E94E62889E092E060E00E9428224B
:103980008091B40060E0193609F461E00E94232AB6
:103990001F910895DF92EF92FF920F931F93E82EED
:1039A000F62ED42E122F88E062E00E94E62889E1EC
:1039B00092E060E00E94282200E0153609F401E060
:1039C0008E2D602F0E94251C8AE360E00E94EE216C
:1039D00060E0163609F461E08F2D0E94232A8AE305
:1039E00060E00E94EE2160E0173609F461E08D2D61
:1039F0000E94232A80919204882369F480E260E087
:103A00000E94EE218BE08E1510F480E501C081E468
:103A1000602F0E94EE211F910F91FF90EF90DF9099
:103A200008951F93182F88E061E00E94E62884E241
:103A300092E060E00E94282280919E0460E01536AA
:103A400009F461E00E94E01B8AE360E00E94EE213D
:103A50008091940460E0163609F461E00E94232A04
:103A60001F9108958091F1038F5F8093F1030E946D
:103A7000F02888E060E00E94E62881E392E060E0C0
:103A80000E94282280E00E941E1B84E00E94111DDB
:103A900080918F0460919A044091A50423E00E94D4
:103AA000CA1C8091A404609199044091930425E07C
:103AB0000E945A1C80E00E94561B86E00E94B51CA2
:103AC0000E94D51B8091F10381508093F1030895EA
:103AD0001F93182F0E94321D8091F1038F5F8093F6
:103AE000F1038091A004863011F40E94CA1B110FCB
:103AF000110F110F1D5F80E0612F47E00E94812DA3
:103B00008091F10381508093F1038AE08093F00368
:103B10008091A0041F910895CF92DF92EF92FF92BF
:103B20000F931F9382E00E94681D082F10918F044D
:103B3000D0909A04F090A50490C08091ED0381FF8D
:103B400048C01092ED038091F1038F5F8093F103E1
:103B5000033041F487E392E061E472E00E94B91B14
:103B600005E62CC0053641F48AE492E065E572E092
:103B70000E94B91B06E622C0063641F48EE592E0AB
:103B800062E672E00E94B91B07E618C00E94D51BCE
:103B900010938F04D0929A04F092A5048091A5040A
:103BA00060919A0440918F0400919904E090A404DC
:103BB000C090930420E00E94DA2A03E0812F6D2D4B
:103BC0004F2D202F0E94CA1C8091F10381508093B9
:103BD000F1038091ED0382FD04C08091EE0382FF2A
:103BE0003CC01092ED038091F1038F5F8093F1034D
:103BF000053659F4812F90E0019668E170E00E944B
:103C00004E38182F80938F0415C0063649F48D2D39
:103C100090E001966CE370E00E944E38D82E0AC006
:103C2000073641F48F2D90E001966CE370E00E941E
:103C30004E38F82E812F6D2D4F2D202F0E94CA1C3B
:103C40008091F10381508093F1038091EE0382FF14
:103C500004C088EC90E00E94FF2E0E94E01A8823A6
:103C600009F46BCF1F910F91FF90EF90DF90CF90F1
:103C700008951F9381E00E94681D182F6CC08091E9
:103C8000ED0381FF26C01092ED038091F1038F5F59
:103C90008093F103143041F48BE692E061E472E02A
:103CA0000E94B91B15E60DC0153641F48AE492E076
:103CB00065E572E00E94B91B16E603C00E94D51BA1
:103CC00014E0812F0E94111D8091F1038150809397
:103CD000F1038091ED0382FD04C08091EE0382FF29
:103CE0003AC01092ED038091F1038F5F8093F1034E
:103CF000153679F480919E0490E0019668E170E0B9
:103D00000E944E3880939E0460919E0481E090E072
:103D100010C0163681F48091940490E001966CE313
:103D200070E00E944E38809394046091940482E085
:103D300090E00E944A39812F0E94111D8091F10369
:103D400081508093F1038091EE0382FF04C088ECE0
:103D500090E00E94FF2E0E94E01A882309F48FCF82
:103D60001F9108951F9385E00E94681D182F46C07B
:103D70008091ED0381FF18C01092ED038091F10353
:103D80008F5F8093F103163021F40E94C31B19E664
:103D900003C00E94CA1B16E0812F0E94B51C8091AF
:103DA000F10381508093F1038091ED0382FD04C003
:103DB0008091EE0382FF22C01092ED031936F1F4D8
:103DC0008091B4008F5F8093B4008091B400813102
:103DD00010F01092B4008091F1038F5F8093F10393
:103DE00089E60E94B51C8091F10381508093F10314
:103DF0006091B40083E090E00E944A390E94E01A8A
:103E0000882309F4B5CF1F910895CF92DF92EF92E6
:103E1000FF920F931F9383E00E94681D082FF0907C
:103E200099041091A404D0909304F3C08091ED0301
:103E300081FF6AC01092ED038091F1038F5F809340
:103E4000F103053069F480919D04882309F1809184
:103E50009D04813059F080919D04833091F506C016
:103E60000B3061F480919D048823F9F48AE892E094
:103E700065E972E00E94B91B0CE03BC00C3009F50B
:103E800080919D04813021F080919D04833041F424
:103E900086E792E061E872E00E94B91B0BE029C05E
:103EA00080919D04882329F00CC080919D0481306D
:103EB00041F48EE992E069EA72E00E94B91B0DE0DC
:103EC00018C00E94D51BD09293041093A404F092C2
:103ED00099048091A50460919A0440918F04009107
:103EE0009904E090A404C090930420E00E94DA2A90
:103EF00005E0812F6F2D4D2D202F0E945A1C80919F
:103F0000F10381508093F1038091ED0382FD04C0A1
:103F10008091EE0382FF7DC01092ED038091F1034A
:103F20008F5F8093F1030B3071F51F5F1D3010F030
:103F300011E05CC01230D1F48D2D90E00E94E22996
:103F4000882331F08DE18F1518F42DE1F22E4EC04B
:103F50008D2D90E00E94E229882309F047C08CE172
:103F60008F1508F043C09CE1F92E40C0143031F0A9
:103F7000163021F0193011F01B30C1F58EE18F158C
:103F800008F44DC033C00C3039F5F3948FE18F1530
:103F900010F4FF24F394123099F48D2D90E00E94D8
:103FA000E229882319F08DE18F15E0F18D2D90E045
:103FB0000E94E2298823D1F48CE18F1598F116C074
:103FC000143031F0163021F0193011F01B3071F43B
:103FD0008FE1F81639F10AC00D3041F48D2D90E0D3
:103FE000019664E670E00E944E38D82E812F6F2D26
:103FF0004D2D202F0E945A1C8091F10381508093F7
:10400000F1038091EE0382FF04C088EC90E00E94EF
:10401000FF2E0E94E01A882309F408CF06C08EE123
:10402000F82EE4CFFF24F394E1CF1F910F91FF907E
:10403000EF90DF90CF9008951F9384E00E94681D59
:10404000182F64C08091ED0381FF1BC01092ED0317
:104050008091F1038F5F8093F103183039F481E090
:104060000E94561B0E94C31B18E606C080E00E94F7
:10407000561B0E94D51B18E08091F103815080935C
:10408000F1038091ED0382FD04C08091EE0382FF75
:104090003DC01092ED031836C9F580919204882333
:1040A00059F080919D048F5F80939D0480919D04C1
:1040B000823010F010929D048091920490E0882349
:1040C00009F491E0909392048091F1038F5F8093C3
:1040D000F1030E94321D0E94C31B80E063E247E0AF
:1040E0000E94812D81E00E94561B8091F103815036
:1040F0008093F10360919D0484E090E00E944A392E
:104100006091920485E090E00E944A390E94E01A92
:10411000882309F497CF1F9108950F931F9380E090
:104120000E94681D182F02ED5AC08091ED0381FF97
:104130001FC01092ED038091F1038F5F8093F10314
:10414000183C61F481E00E941E1B0E94C31B8091F9
:10415000F10381508093F10319EC0AC080E00E94C2
:104160001E1B0E94D51B1092A3041092A0043CC0F9
:104170008091ED0382FD04C08091EE0382FF2FC089
:104180001092ED03193C59F5809197048F5F80934D
:104190009704809197048A3D10F0009397048091D2
:1041A0009704883D30F46091970487E090E00E9486
:1041B0004A398091F1038F5F8093F1030E94321D91
:1041C0000E94C31B80E063E047E00E94812D81E0F4
:1041D0000E941E1B8091F10381508093F1030E9485
:1041E000E01A882309F4A1CF1F910F9108958091BF
:1041F0009704833D81F0843D18F4823D89F408C022
:10420000843D19F0853D61F409C00E94D70D0895E1
:104210000E94030708950E94D91208950E949617DC
:10422000089590919704933D81F0943D18F4923D48
:1042300089F408C0943D19F0953D61F409C00E94CD
:10424000171208950E942C0808950E94C41308951F
:104250000E94721908951F931FE080919704853D75
:10426000C9F0863D38F4833D91F0843D50F4823DA1
:1042700019F50AC0873D89F0873D88F0893DE1F452
:1042800019C00E94761218C00E94480815C00E94EA
:10429000CE1312C00E94E4190FC01093A3040E9411
:1042A000160980E090E00E94740983708E5280931A
:1042B0009704D3CF0E9421061F9108951F93182FB2
:1042C0008091A304882381F180913D04813021F005
:1042D00080913E04813041F580913D04882319F09E
:1042E00082E080933D0480913E04882319F082E0AF
:1042F00080933E048091A30481508093A304809115
:10430000A304882389F48FE08093A3048091970409
:104310008F5F8093970480919704863D18F082ED1B
:10432000809397040E942B2180919704833D91F004
:10433000843D18F4823DA9F409C0843D19F0853DFF
:1043400081F40CC0812F0E94E60C0BC0812F0E94CB
:10435000140807C0812F0E94FD1303C0812F0E9403
:10436000A6171F91089508958C5C9F4F0E944239B3
:104370000895EF92FF920F931F93CF93DF93F82E40
:10438000E62E00E010E008C0CE018C5E9D4F0E943A
:1043900042398F5F180F0F5FC12FD0E00F15A0F3C8
:1043A000CE018C5E9D4F0E944239082FCB5EDD4FBF
:1043B00010E00BC0CE010E94423991E0E91609F4E9
:1043C00080950E948D281F5F2196101798F3DF912A
:1043D000CF911F910F91FF90EF900895DF92EF9290
:1043E000FF920F931F93CF93DF93D62E95E0899F73
:1043F000C0011124EC01CC56D0408E0129E9E22EF7
:104400002FEFF22EE80EF91EDD2029F0CE010E94DA
:104410004239809503C0C8010E9442390E948D280C
:1044200021960F5F1F4FCE15DF0571F7DD2011F0CC
:104430008FEF01C080E00E948D2880E00E94D92883
:10444000DF91CF911F910F91FF90EF90DF90089532
:104450001F93CF93DF93EC01162F04C0612F0E94AE
:10446000EE21219688818823C9F7DF91CF911F9192
:1044700008952F923F924F925F926F927F928F9208
:104480009F92AF92BF92CF92DF92EF92FF920F93E3
:104490001F93CF93DF93282E162F342EF22E402E0B
:1044A000C62FD0E0C770D070209709F45BC0562E9D
:1044B000569456945694EE2467E0C62EC1228C2C56
:1044C000992487FC90945E01A20EB11C51E0652EE8
:1044D000712C35C0DE2CD20C8D2D652D0E94E62866
:1044E0000E9440280E944028082F40E050E015C05C
:1044F00081E0481641F4C30102C0880F991F2A9534
:10450000E2F7082B08C0C30102C0880F991F2A9543
:10451000E2F7809508234F5F5F4F9A01280D391D00
:104520002A153B0524F48C2D840F883009F78D2D36
:10453000652D0E94E628802F0E948D28E394E314C5
:1045400048F22F2D30E088E090E08C1B9D0B821705
:10455000930714F0FF2404C0812F87708850F80E51
:10456000187F185FE12EE694E694E694C12FD0E020
:10457000CF0DD11D43E0D595C7954A95E1F712C0FF
:10458000822D6E2D0E94E62810E009C081E04816B9
:1045900011F48FEF01C080E00E948D281F5F13157A
:1045A000A8F3E3948E2D90E08C179D074CF32F2DEC
:1045B0002770C9F100E0C22FD0E031E0A32EB12C6A
:1045C00030C0F02EF20C8F2D6E2D0E94E6280E9436
:1045D00040280E944028182F20E030E017C081E0DA
:1045E000481649F4C501022E02C0880F991F0A948B
:1045F000E2F7182B09C0C501022E02C0880F991FCF
:104600000A94E2F7809518232F5F3F4F2C173D0740
:1046100034F38F2D6E2D0E94E628812F0E948D2865
:104620000F5F031570F280E00E94D928DF91CF91CF
:104630001F910F91FF90EF90DF90CF90BF90AF90C0
:104640009F908F907F906F905F904F903F902F90B2
:1046500008952F923F924F925F926F927F928F9226
:104660009F92AF92BF92CF92DF92EF92FF920F9301
:104670001F93DF93CF9300D00F92CDB7DEB7382EC4
:10468000462E522E262E281AA42EBB24C501880F92
:10469000991F22273327281B390B2D5F3F4F3B8360
:1046A0002A838824992466247724362F3219398363
:1046B000182DD42CDA187501EE0CFF1C882D830DF3
:1046C0006D2D41E02E2D052D0E943922832D881954
:1046D0006D2D41E02E2D0E943922F42CF818110F77
:1046E00089818A0D6F2D41E0212F0E9439228D2D65
:1046F00082196F2D41E0212F0E9439228A819B81EE
:1047000097FF06C00696860D971D9B838A8311C06E
:10471000EA81FB813A96C4018A199B09880F991F87
:10472000880F991FE80FF91FFB83EA830894A108FB
:10473000B1080894811C911C24E030E0620E731EC5
:10474000A814B9040CF0B4CF0F900F900F90CF9134
:10475000DF911F910F91FF90EF90DF90CF90BF906E
:10476000AF909F908F907F906F905F904F903F9011
:104770002F900895DF92EF92FF920F931F93F82EE0
:10478000162FD42EE22E41E001E00E9439228F2D17
:1047900081508D0D612F41E02E2D0E9439228F2DE9
:1047A000612F4D2D21E00E94392211501E0D8F2DB9
:1047B000612F4D2D21E00E9439221F910F91FF9012
:1047C000EF90DF900895EF92FF920F931F93F82ED2
:1047D000162F062F069506950695602F0E94E6284F
:1047E0000E9440280E944028E82E8F2D602F0E94B2
:1047F000E628177081E090E002C0880F991F1A9593
:10480000E2F780958E210E948D2880E00E94D928B1
:104810001F910F91FF90EF900895EF92FF920F93E9
:104820001F93F82E162F062F069506950695602FD6
:104830000E94E6280E9440280E944028E82E8F2DE2
:10484000602F0E94E628177081E090E002C0880F78
:10485000991F1A95E2F78E290E948D2880E00E9408
:10486000D9281F910F91FF90EF9008953F924F929A
:104870005F926F927F928F929F92AF92BF92CF92F0
:10488000DF92EF92FF920F931F93CF93DF93D82E77
:10489000C62E322E462E481AE42EFF24C701880F5A
:1048A000991FCC27DD27C81BD90B23965D2C662EBC
:1048B000762EAA24BB248824992481E0381641F559
:1048C0000E2D0C0D8D2D602F0E940D249C2D9E19F8
:1048D000192F8D2D692F0E940D24852D602F0E9488
:1048E0000D24852D612F0E940D240419802F662D23
:1048F0000E940D24802F672D0E940D241419812FF2
:10490000662D0E940D24812F672D0E940D2427C043
:104910000E2D0C0D8D2D602F0E94E3238C2D8E19F2
:10492000182F8D2D612F0E94E323852D602F0E946B
:10493000E323852D612F0E94E3230419802F662D28
:104940000E94E323802F672D0E94E3231419812FF7
:10495000662D0E94E323812F672D0E94E323D7FF5A
:1049600004C02696C80DD91D0DC02A96C5018E1902
:104970009F09880F991F880F991FC80FD91F089486
:10498000E108F1080894A11CB11C84E090E0880EB5
:10499000991ED3945A9463947A94EA14FB040CF00D
:1049A0008CCFDF91CF911F910F91FF90EF90DF900F
:1049B000CF90BF90AF909F908F907F906F905F90BF
:1049C0004F903F900895459A449A1092390410925E
:1049D000380410923B0410923A0480E28093B800AD
:1049E000ECEBF0E08081846080831092F2038081A0
:1049F000816080838081806480837894089580E2E0
:104A00008093B800089590E0611191E08E7F982B1B
:104A10009093BA00089590933904809338040895D0
:104A200090933B0480933A040895ECEBF0E080818E
:104A30008F70806A80830895ECEBF0E080818F7046
:104A4000806D808308958091BC0087FFFCCF08951E
:104A50008093BB00ECEBF0E080818F7080688083F6
:104A60000895882329F08091BC008F70806C04C069
:104A70008091BC008F7080688093BC000895809105
:104A8000BB0008958091B9000895982F8091F2039A
:104A90008823E1F782E08093F2039E7F9093F303F3
:104AA000A4EFB3E0FA0102C081918D938E2F841B95
:104AB0008617D0F310921404609315048091BC0003
:104AC0008F70806A8093BC000895982F8091F203C4
:104AD0008823E1F783E08093F20391609093F303DE
:104AE00010923604609337048091BC008F70806A06
:104AF0008093BC008091F2038823E1F7A6E1B4E043
:104B0000FA0102C08D9181938E2F841B8617D0F3FA
:104B10000895982FFA018091BC008E7F8093BC008D
:104B20008091BC008F70806A8093BC008091BC0033
:104B300087FFFCCF9E7F9093BB008091BC008F705D
:104B400080688093BC008091BC0087FFFCCF80917F
:104B5000B900883189F091E012C080818093BB0058
:104B60008091BC008F7080688093BC008091BC00F5
:104B700087FFFCCF31966150662379F790E08091F2
:104B8000BC008F70806D8093BC008091BC0084FF5E
:104B9000FCCF8091BC0081608093BC00892F089578
:104BA0001F93CF93DF93982F162FEA018091BC00BB
:104BB0008E7F8093BC008091BC008F70806A809350
:104BC000BC008091BC0087FFFCCF91609093BB003C
:104BD0008091BC008F7080688093BC008091BC0085
:104BE00087FFFCCF8091B900803469F091E018C054
:104BF0008FEF0E9431258091BC0087FFFCCF809110
:104C0000BB0089931150123098F780E00E94312543
:104C10008091BC0087FFFCCF8091BB00888390E02F
:104C20008091BC008F70806D8093BC008091BC002F
:104C300081608093BC00892FDF91CF911F910895EF
:104C40008091F20308951F920F920FB60F921124D4
:104C50002F933F934F935F936F937F938F939F9384
:104C6000AF93BF93EF93FF938091B900887F88360D
:104C700009F4CBC0893688F5803309F495C08133B7
:104C8000B0F4803109F45AC0813138F4882309F432
:104C90003EC1883009F048C151C0803209F484C057
:104CA000883209F453C0883109F03EC14FC08834BE
:104CB00009F47AC0893438F4883309F478C0803430
:104CC00009F032C192C0883509F45DC0803609F41C
:104CD0009CC0803509F028C174C0803A09F4BEC078
:104CE000813AB0F4803809F49BC0813838F48037B9
:104CF00009F48BC0883709F017C187C0803909F4DF
:104D00008FC0883909F4A1C0883809F00DC19DC051
:104D1000883B09F4D1C0893B38F4883A09F4B6C01D
:104D2000803B09F001C1B2C0883C09F4E0C0883F73
:104D300009F4E7C0803C09F0F7C0D9C084EF91E0E6
:104D400060E00E94332F8091F30314C085ED91E061
:104D500060E00E94332F90911404809115049817FD
:104D600008F0DAC0E92FF0E0EC50FC4F80819F5F43
:104D7000909314048093BB008091BC008F70806876
:104D80008093BC00D1C080EC91E060E00E94332FA2
:104D9000809136049091BB00E82FF0E0EA5EFB4F73
:104DA00090838F5F809336048AE991E0B2C086E8F1
:104DB00091E060E00E94332F8091BC008F7080688A
:104DC000AFC082E791E060E00E94332F8091BB008A
:104DD00090913604E92FF0E0EA5EFB4F80839F5FFD
:104DE0009093360490E00E948A2F8FE591E060E076
:104DF0000E94332F2091360430E08091370490E0F8
:104E000001972817390734F51EC08CE491E060E063
:104E10000E94332F85E08093F2031092360462C023
:104E200088E391E060E00E94332F809136049091F6
:104E3000BB00E82FF0E0EA5EFB4F90838F5F80932A
:104E40003604803238F48FEF06C083E291E060E0F0
:104E50000E94332F80E00E94312566C080E191E0FE
:104E600060E00E94332F8091BC008F70806C809333
:104E7000BC00E0913804F0913904309709F452C035
:104E80008091360466E174E009954CC08DEF90E0A6
:104E900060E00E94332F84E08093F203E0913A04B3
:104EA000F0913B04309731F080E264EF73E00995B4
:104EB000809315041092140489EE90E060E00E9443
:104EC000332F90911404E92FF0E0EC50FC4F8081D7
:104ED0008093BB009F5F90931404809115049817F2
:104EE00008F04ACF8091BC008F70806C49CF87EC6E
:104EF00090E060E00E94332F8091BC008F70806C46
:104F00000FC088EB90E060E00E94332F0DC087EA6D
:104F100090E060E00E94332F8091BC008F70806D24
:104F20008093BC001092F203FF91EF91BF91AF917B
:104F30009F918F917F916F915F914F913F912F91B1
:104F40000F900FBE0F901F9018952F982D982C98AA
:104F500040985A98279A259A249A389A529A8BB14F
:104F60008F708BB985B1807F85B98AB1806F8AB91E
:104F700084B18F6084B9089540985A98882319F0B5
:104F8000813021F402C0409A08955A9A0895F89405
:104F90000E94BC278BB1806F8BB985B18F6085B9BA
:104FA0002F988AB18F708AB984B1807F84B92D9A85
:104FB0002C9A000000000AC02C980000000000009D
:104FC00000002C9A000000000000000089B193B19D
:104FD00087FDF2CF2C982D988AB1806F8AB984B161
:104FE0008F6084B9789408951F93162FF8940E94C7
:104FF000C7272F982D982C9A8AB1806F8AB984B1CF
:105000008F6084B98BB18F708BB99BB1812F807FFA
:10501000892B8BB985B1807F85B985B11F70812BB4
:1050200085B9000000000000000000000000000042
:1050300000002C9878941F910895F8940E94C72737
:105040002F988AB18F708AB984B1807F84B92D9AE4
:105050002C9A00000000000000000000000000008A
:10506000000029B183B12C982D989AB1906F9AB90C
:1050700094B19F6094B978948F70207F822B0895AB
:10508000F8948091890482958695869583700E9414
:10509000C7272F9A8AB18F708AB984B1807F84B96B
:1050A0002D9A2C9A00000000000000000000000073
:1050B0000000000099B183B12C982D9878948F70DE
:1050C000907F892B089508958093890480E060E49F
:1050D0000E94F42710928B0481E060E40E94F42780
:1050E00010928D0480918904682F6F73606482959B
:1050F0008695869583700E94F42708951F93182F34
:1051000080938A04186B80E0612F0E94F42781E06D
:10511000612F0E94F4271F9108950F931F93182F5A
:10512000009189040295069506950370F894802FE6
:105130000E94C7272F9A2D982C9A8AB1806F8AB91E
:1051400084B18F6084B98BB18F708BB99BB1812F83
:10515000807F892B8BB985B1807F85B985B11F7020
:10516000812B85B900000000000000000000000055
:10517000000000002C987894E02FF0E0EE0FFF1F65
:10518000E557FB4F80818F5F8083809189048F5F1B
:105190008093890487FF0AC080918A048F5F80937F
:1051A0008A040E947E2880E00E9464281F910F914B
:1051B00008951F93182F106C80E0612F0E94F42730
:1051C00081E0612F0E94F4271F9108951F93182FEB
:1051D000862F0E947E28812F0E9464281F910895A7
:1051E0000F931F9300E080E0602F0E94E62810E0FC
:1051F00080E00E948D281F5F1038D1F70F5F0830C4
:1052000091F71F910F91089580E00E94D92880E0C6
:1052100060E00E94E62810928B0410928C04109299
:105220008D0410928E0408950E94A52780E06FE3FC
:105230000E94F42781E06FE30E94F4270E94F02887
:105240000E9404290895982F86E0689F802D1124DC
:10525000692F0E94E628089508951F920F920FB6B5
:105260000F9211248F939F9388B198E0892788B972
:105270009F918F910F900FBE0F901F9018951F92C6
:105280000F920FB60F9211248F939F938091460433
:1052900090914704892B49F08091460490914704EE
:1052A000019790934704809346048091A1049091C4
:1052B000A204892B49F08091A1049091A204019746
:1052C0009093A2048093A10480919F04882389F184
:1052D0008091440490914504892B59F5809195045F
:1052E00090919604892BE1F48CE291E090939604DE
:1052F0008093950480918100882379F41092800036
:1053000089E08093810083E080936F0088EE93E0D2
:10531000909389008093880003C010928100439885
:1053200080919504909196040197909396048093B0
:1053300095049F918F910F900FBE0F901F9018951D
:105340001F920F920FB60F9211248F939F9388B1E3
:1053500098E0892788B99F918F910F900FBE0F9089
:105360001F9018951E9B16C080919C04882349F1BC
:1053700010929C041092A6041092450410924404CA
:1053800080919F048823E9F010929F04109281007D
:105390004398089580919C04882399F481E0809338
:1053A0009C04109245041092440483E080934104CD
:1053B00080919704853D11F083E001C085E08093E2
:1053C00040040895FC0183709070892B39F4CF015B
:1053D00064E670E00E943A38892B49F420E030E01E
:1053E000CF0160E971E00E943A38892B11F421E085
:1053F00030E0822F08950895482F6AE00E942E38E9
:10540000282F30E084E0220F331F8A95E1F7842FA4
:105410000E942E38892F822B089588E592E0909380
:105420004504809344041092810043981092A00494
:105430000895FC018181805120819AE0299F90018B
:105440001124820F08950F931F93182F062F6AE0DF
:105450000E942E38805D602F0E94EE21812F6AE02D
:105460000E942E38892F805D602F0E94EE211F91AF
:105470000F9108950F931F93082F0E942F2F182F1D
:10548000843108F46DC00023D9F080914A048F5F05
:1054900080934A04815096E0899F802D112467E013
:1054A0000E94E628812F60E00E94EE2180E260E009
:1054B0000E94EE2180914A04853110F010924A0436
:1054C000143231F481E0809356041092550448C0A0
:1054D00080915604882309F443C01C3221F48F5F65
:1054E000809356040FC0809155048A3048F4E82F09
:1054F000F0E0E55BFB4F10838F5F8093550402C0A3
:105500001092540480915604823059F482EB92E058
:105510006BE474E00E94D538009711F110925604A4
:105520001FC0833061F40023D9F082E366E00E945B
:10553000E6288BE494E060E00E94282211C08A30C3
:1055400079F4002359F08AE566E00E94E6288BE4AE
:1055500094E060E00E9428221092560481E001C08D
:1055600080E01F910F910895FF920F931F93F62EE5
:105570001092800001E810E029E0F801208323E088
:1055800020936F009C0140E050E060E079E08DE303
:1055900090E00E94833830938900209388008F2DFB
:1055A00090E00E94FF2EF801108243981F910F9106
:1055B000FF900895CF92DF92EF92FF920F931F9387
:1055C000DF93CF93CDB7DEB728970FB6F894DEBF41
:1055D0000FBECDBF162FF42ED22EFE01319698E0CD
:1055E000DF011D929A95E9F719820E94FC298A83AE
:1055F000812F0E94FC298B838F2D0E94FC298C8394
:105600008D2D0E94FC298D83802F0E94FC298E8382
:105610008E2D0E94FC298F838C2D0E94FC29888767
:10562000F89480ED68E0AE014F5F5F4F0E948925DE
:105630007894882399F080EA9FE064E60E94B42A77
:1056400084E690E00E94FF2E80EA9FE064E60E94DC
:10565000B42A88EE93E00E94FF2EEDCF28960FB675
:10566000F894DEBF0FBECDBFCF91DF911F910F9198
:10567000FF90EF90DF90CF90089580E090E00E943F
:105680004239E6EAF0E0E4918E17E1F080EA9FE02B
:1056900064E60E94B42A84E690E00E94FF2E80EA2D
:1056A0009FE064E60E94B42A84E690E00E94FF2E08
:1056B00080EA9FE064E60E94B42A88EE93E00E94AC
:1056C000FF2EE4CF0895DF93CF93CDB7DEB72997B0
:1056D0000FB6F894DEBF0FBECDBF1982F89480EDEF
:1056E00061E0AE014F5F5F4F0E948925882399F0EA
:1056F00080EA9FE064E60E94B42A84E690E00E947B
:10570000FF2E80EA9FE064E60E94B42A88EE93E0D0
:105710000E94FF2EEDCF80ED67E0AE014E5F5F4F40
:105720000E94D0257894882399F080EA9FE064E66F
:105730000E94B42A84E690E00E94FF2E80EA9FE057
:1057400064E60E94B42A88EE93E00E94FF2EEDCF1B
:105750007A81872F82958F7090E0877090709C017E
:10576000E3E0220F331FEA95E1F7880F991F280F16
:10577000391F872F8F70820F8093A5044B81842F50
:1057800082958F7090E0877090709C0153E0220F9B
:10579000331F5A95E1F7880F991F280F391F4F7053
:1057A000420F40939A048C81482F42954F70682F86
:1057B0006F7086FF22C082958695877090E0817019
:1057C00090709C01220F331F280F391F220F331FA7
:1057D000220F331F842F90E081709070AC01E3E0C2
:1057E000440F551FEA95E1F7880F991F480F591F7D
:1057F000240F260F20938F0411C0842F90E0837014
:1058000090709C01B3E0220F331FBA95E1F7880F27
:10581000991F280F391F620F60938F044E81842FC8
:1058200082958F7090E0837090709C01F3E0220F5E
:10583000331FFA95E1F7880F991F280F391F4F7012
:10584000420F409399044F81842F82958F7090E08E
:10585000817090709C0163E0220F331F6A95E1F71D
:10586000880F991F280F391F4F70420F4093A404CF
:105870002885822F82958F703AE0839FC001112482
:105880002F70280F20939304872F807829960FB6C6
:10589000F894DEBF0FBECDBFCF91DF910895CF92B8
:1058A000EF920F930E94E3240E94632B882359F008
:1058B00080E060E04CE020E001E0EE24E394F9E0D9
:1058C000CF2E0E94DA2A0E94632B82E090E00E9491
:1058D00042396CE30E942E389093940481E090E06A
:1058E0000E94423968E10E942E3890939E0487E01E
:1058F0008093B10081E08093700078940F91EF90D5
:10590000CF9008951F920F920FB60F921124FF921D
:105910000F931F932F933F934F935F936F937F93B7
:105920008F939F93AF93BF93EF93FF93A89580912D
:105930004804803579F4109248041091A504009130
:105940009A04F0908F040E94632B80918F048F152E
:1059500029F40AC08F5F80934804BFC081E0809320
:105960003E04F0929B0407C080919A04801731F0A6
:1059700081E080933D040093910409C08091A504C7
:10598000811729F081E080933F041093A704809150
:10599000A504811709F43FC080919F04882359F022
:1059A0008091440490914504009729F001979093C9
:1059B00045048093440480914004882361F18091E0
:1059C000400481508093400480914004882319F55D
:1059D00080914104809390041092410480913E0490
:1059E000882329F080919B0480938F0404C08091C8
:1059F0003D04882321F08091910480939A04809142
:105A00003E04882321F480913D04882321F0F09204
:105A10008F0400939A048091A004843061F08091F7
:105A2000A004853041F08091A004883021F080915D
:105A3000A004863069F48091F103882349F48091B1
:105A40008F0460919A044091A50423E00E94CA1C2F
:105A500080919C04882399F08091A504882379F48F
:105A600090919A0480919404981749F490918F042E
:105A700080919E04981719F481E08093A604809188
:105A80003D04882369F480913E04882349F4809181
:105A9000A604882329F081E080939F041092A60435
:105AA00080914904863039F4109249048091EF03C3
:105AB000882329F409C08F5F809349040EC0809128
:105AC000EF0381508093EF038091F003882329F046
:105AD0008091F00381508093F003FF91EF91BF918B
