:100000000C942C070C9449070C9449070C94E11BA1
:100010000C9449070C9449070C9449070C94490720
:100020000C9449070C94C32F0C9449070C944A2B49
:100030000C9449070C94D72A0C94E92A0C9449078C
:100040000C9449070C9449070C946A2A0C944907AC
:100050000C9449070C94061C0C9449070C9449070E
:100060000C9460270C9449073A002B002D004D6535
:100070006E753D457869742C205365743D2D2C2098
:100080002B004750532054696D653A2020202020D2
:100090002020205554430047505320446174653A52
:1000A00020004F66667365743A00475053205365CD
:1000B00074757000120412056472617700796561CD
:1000C000722100646174652100646F6E6520696E41
:1000D00069740041626F7574004750532053657412
:1000E000757000526F746174650052616E646F6D5B
:1000F0000054696D657353714368726F6E005844A4
:10010000414C494368726F6E00536576656E436873
:10011000726F6E00496E7472756465724368726FB7
:100120006E00524154544368726F6E0073657420C0
:10013000736563730073656300736574206D696E26
:1001400073006368616E6765206D696E0073657426
:1001500020686F7572006368616E67652068720061
:10016000736574206D696E73006368616E676520E6
:100170006D696E0073657420686F757200636861E5
:100180006E67652068722E002020202020455520B3
:1001900032346872002020202020455520313268FA
:1001A0007200202020202055532032346872002015
:1001B0002020202055532031326872005265676933
:1001C0006F6E3A2000736574207965617200636810
:1001D000616E67652079722E0073657420646174A6
:1001E00065006368616E676520646179007365749A
:1001F000206D6F6E2E006368616E6765206D6F6E97
:100200000020202020200020202020200044617495
:10021000653A004D6F64653A00536574204261632E
:100220006B6C696768743A20005365742054696D7B
:10023000653A200053657420416C61726D3A20204C
:10024000009F1058BC1C16163F3F16161CBC5800C9
:10025000000000101EB87D363C3C3C3C367DB81E8C
:1002600000000000109C9E5E76375F5F37765E9ED2
:100270009C0000000010181C9C56B65F5FB6569C90
:100280001C18000000001070187DB6BC3C3CBCB6C9
:100290007D187000000000101C5EFEB6375F5F37EF
:1002A000B6FE5E1C000000000CF8FCFEFE3F1F1FA7
:1002B0003FFEFEFCF84932433A204255535F455217
:1002C000524F520D0A004932433A204E4F5F494E79
:1002D000464F0D0A004932433A2053542D3E4441C3
:1002E00054415F4E41434B206F72204C4153545F49
:1002F000444154410D0A004932433A2053542D3EA3
:10030000444154415F41434B0D0A004932433A2076
:1003100053542D3E534C415F41434B0D0A0049322B
:10032000433A2053522D3E53525F53544F500D0ABF
:10033000004932433A2053522D3E444154415F4ECE
:1003400041434B0D0A004932433A2053522D3E445B
:100350004154415F41434B0D0A004932433A205317
:10036000522D3E534C415F41434B0D0A00493243ED
:100370003A204D522D3E534C415F41434B0D0A00F4
:100380004932433A204D522D3E444154415F41434E
:100390004B0D0A004932433A204D542D3E41524202
:1003A0005F4C4F53540D0A004932433A204D54528A
:1003B0002D3E534C415F4E41434B206F72204D54B4
:1003C0002D3E444154415F4E41434B0D0A0049329A
:1003D000433A204D522D3E444154415F4E41434BE0
:1003E0000D0A004932433A204D542D3E534C415F93
:1003F00041434B206F7220444154415F41434B0DB8
:100400000A004932433A204D2D3E53544152540D77
:100410000A000C0FFFFF0A11FFFF0912FFFF080B74
:100420001013070B1014060A1115060A1115050AF8
:100430001116050A1116040A1117040912170309E7
:1004400012180309121803091218020912180209D6
:1004500012190209121902091219020912190109C5
:10046000121A0109121A0109121A0109121A0109B4
:10047000121A0109121A0109121A0109121A0109A4
:10048000121A0109121A0009121B0009121B000995
:10049000121B0009121B0009121B0009121B000984
:1004A000121B0109121A0109121A0109121A010973
:1004B000121A0109121A0109121A0109121A010964
:1004C000121A0109121A0209121902091219020953
:1004D0001219020912190209121803091218030944
:1004E00012180309121804091217040A1117050A31
:1004F0001116050A1116060A1115060A1115070B21
:100500001014080B10130912FFFF0A11FFFF0C0F44
:10051000FFFF1111FFFF0F11FFFF0E11FFFF0C1165
:10052000FFFF0B11FFFF0911FFFF0811FFFF06116D
:10053000FFFF0511FFFF0311FFFF02050811020372
:1005400009110911FFFF0911FFFF0911FFFF0A112E
:10055000FFFF0A11FFFF0A11FFFF0A11FFFF0A1137
:10056000FFFF0A11FFFF0A11FFFF0A11FFFF0A1127
:10057000FFFF0A11FFFF0A11FFFF0A11FFFF0A1117
:10058000FFFF0A11FFFF0A11FFFF0A11FFFF0A1107
:10059000FFFF0A11FFFF0A11FFFF0A11FFFF0A11F7
:1005A000FFFF0A11FFFF0A11FFFF0A11FFFF0A11E7
:1005B000FFFF0A11FFFF0A11FFFF0A11FFFF0A11D7
:1005C000FFFF0A11FFFF0A11FFFF0A11FFFF0A11C7
:1005D000FFFF0A11FFFF0A11FFFF0A11FFFF0A11B7
:1005E000FFFF0A11FFFF0A11FFFF0A11FFFF0912A7
:1005F000FFFF0912FFFF0912FFFF0912FFFF081298
:10060000FFFF0713FFFF0416FFFF0218FFFF02188A
:10061000FFFF0C10FFFF0A12FFFF0913FFFF081472
:10062000FFFF0715FFFF0616FFFF0616FFFF051762
:10063000FFFF0517FFFF0417FFFF0418FFFF030666
:100640000D1803050E1803040F1802040F180203F7
:1006500010180203101801021118010211181118C4
:10066000FFFF1118FFFF1118FFFF1118FFFF1118EE
:10067000FFFF1118FFFF1117FFFF1117FFFF1117E1
:10068000FFFF1116FFFF1016FFFF1015FFFF1015DB
:10069000FFFF0F14FFFF0F14FFFF0F13FFFF0E13D9
:1006A000FFFF0E12FFFF0E11FFFF0D11FFFF0D10D8
:1006B000FFFF0C0FFFFF0C0FFFFF0B0EFFFF0B0DDB
:1006C000FFFF0A0D1B1B0A0C1B1B090B1A1B090B36
:1006D0001A1B080A191B0709191A0708181A06080D
:1006E000141A061AFFFF051AFFFF051AFFFF041967
:1006F000FFFF0319FFFF0319FFFF0219FFFF021994
:10070000FFFF0119FFFF0019FFFF0018FFFF00188E
:10071000FFFF0C11FFFF0A14FFFF0915FFFF08166A
:10072000FFFF0716FFFF0617FFFF0517FFFF04086F
:100730000B1804060D1803050E1803040F18020405
:1007400010180203101802031018020210181018D3
:10075000FFFF1018FFFF1018FFFF1017FFFF101703
:10076000FFFF1016FFFF1016FFFF0F15FFFF0F14FE
:10077000FFFF0E14FFFF0D15FFFF0C16FFFF0B17F9
:10078000FFFF0918FFFF0918FFFF0919FFFF0B19E9
:10079000FFFF0C19FFFF0E1AFFFF0F1AFFFF101AC1
:1007A000FFFF111AFFFF121AFFFF121AFFFF131AA1
:1007B000FFFF131AFFFF141AFFFF141AFFFF141A8A
:1007C000FFFF141AFFFF141AFFFF151AFFFF151A77
:1007D000FFFF1519FFFF1519FFFF1519FFFF02068F
:1007E0001518010714180108141800091417000936
:1007F0001416000A1316010B1215010C1114011323
:10080000FFFF0212FFFF0311FFFF040FFFFF060CA3
:10081000FFFF1317FFFF1217FFFF1217FFFF11173C
:10082000FFFF1117FFFF1017FFFF1017FFFF0F1734
:10083000FFFF0F17FFFF0E17FFFF0E17FFFF0D172C
:10084000FFFF0D17FFFF0C17FFFF0C17FFFF0B0D2E
:100850000F170B0D0F170A0C0F170A0C0F17090BA8
:100860000F17090B0F17080A0F17080A0F170709A8
:100870000F1707090F1706080F1706080F170507A8
:100880000F1705070F1704060F1704060F170305A8
:100890000F1703050F1702040F1702040F170103A8
:1008A0000F1701030F1700020F1700020F170002A6
:1008B0000F17001BFFFF001BFFFF001BFFFF001BAC
:1008C000FFFF001BFFFF001BFFFF001BFFFF001BC4
:1008D000FFFF001BFFFF001BFFFF001BFFFF0F17A9
:1008E000FFFF0F17FFFF0F17FFFF0F17FFFF0F1778
:1008F000FFFF0F17FFFF0F17FFFF0F17FFFF0F1768
:10090000FFFF0F17FFFF0F17FFFF0F17FFFF0F1757
:10091000FFFF081BFFFF081AFFFF081AFFFF081A56
:10092000FFFF071AFFFF0719FFFF0719FFFF07194E
:10093000FFFF0719FFFF0618FFFF0618FFFF061845
:10094000FFFF0607FFFF0607FFFF0607FFFF05077C
:10095000FFFF0506FFFF0506FFFF0506FFFF050673
:10096000FFFF040CFFFF040FFFFF0411FFFF041241
:10097000FFFF0414FFFF0414FFFF0315FFFF03161E
:10098000FFFF0316FFFF0317FFFF0317FFFF021808
:10099000FFFF0218FFFF0A18FFFF0C19FFFF0E19D7
:1009A000FFFF1019FFFF1119FFFF1219FFFF1319A5
:1009B000FFFF1319FFFF1419FFFF1419FFFF15198B
:1009C000FFFF1519FFFF1519FFFF1619FFFF161975
:1009D000FFFF1619FFFF1618FFFF03051618020682
:1009E0001518010815170109151700091417000A31
:1009F0001416000B1315000D12150114FFFF01133F
:100A0000FFFF0212FFFF0311FFFF040FFFFF060CA1
:100A1000FFFF181AFFFF151AFFFF131AFFFF111728
:100A2000FFFF1016FFFF0E14FFFF0D13FFFF0C1248
:100A3000FFFF0B11FFFF0A10FFFF0910FFFF080F58
:100A4000FFFF080EFFFF070EFFFF060DFFFF060D5D
:100A5000FFFF050DFFFF050CFFFF040CFFFF040C5B
:100A6000FFFF040BFFFF030BFFFF030BFFFF030B55
:100A7000FFFF020A0D110214FFFF0215FFFF02160D
:100A8000FFFF010B0E17010A1018010A10180109C7
:100A9000111901091119010911190109121A010984
:100AA000121A0109121A0109121A0109121A01096E
:100AB000121B0109121B0109121B0109121B01095A
:100AC000121B0109121B0109121B0109121A01094B
:100AD000121A0209121A0209121A0209121A02093A
:100AE0001219030A1219030A1219030A1218040A26
:100AF0001218040A1218050A1217050B1217060B12
:100B00001116070C11150814FFFF0A13FFFF0C1034
:100B1000FFFF031BFFFF031BFFFF021AFFFF021A69
:100B2000FFFF021AFFFF021AFFFF0219FFFF02195F
:100B3000FFFF0219FFFF0219FFFF0118FFFF011855
:100B4000FFFF0118FFFF010414180103141801022C
:100B500013170002131700011317000113170001E8
:100B60001216000112161216FFFF1216FFFF1116C1
:100B7000FFFF1115FFFF1115FFFF1115FFFF1115E5
:100B8000FFFF1014FFFF1014FFFF1014FFFF1014DD
:100B9000FFFF0F14FFFF0F13FFFF0F13FFFF0F13D4
:100BA000FFFF0E13FFFF0E12FFFF0E12FFFF0E12CC
:100BB000FFFF0D12FFFF0D12FFFF0D11FFFF0D11C3
:100BC000FFFF0C11FFFF0C11FFFF0C10FFFF0C10BB
:100BD000FFFF0C10FFFF0B10FFFF0B10FFFF0B0FB1
:100BE000FFFF0B0FFFFF0A0FFFFF0A0FFFFF0A0EA9
:100BF000FFFF0A0EFFFF090EFFFF090EFFFF090EA0
:100C0000FFFF090DFFFF080DFFFF080DFFFF080D97
:100C1000FFFF0B11FFFF0814FFFF0715FFFF060B77
:100C20001016050A111704091218040912180308EE
:100C300013180308131902081319020813190208DC
:100C400013190208131901081319010913190109CD
:100C50001319010A1319010A1319010B1319020BB5
:100C60001318020C1218020D1217020E1216030F9F
:100C700011150314FFFF0312FFFF0412FFFF0513FA
:100C8000FFFF0514FFFF0615FFFF0716FFFF0816FD
:100C9000FFFF0917FFFF0917FFFF0718FFFF060AED
:100CA0000C1805090D1904090E1903080E1903087B
:100CB0000F1A0208101A0208111A0107111A010767
:100CC000121A0107121A0107121A0107131A010753
:100CD000131A0107131A0107131A0107131A010740
:100CE000131A010713190107131901081319020830
:100CF0001318020812180308121703091117040A1F
:100D00001116050B10150614FFFF0812FFFF0A0F3E
:100D1000FFFF0B10FFFF0812FFFF0713FFFF060B7B
:100D20000F14050A1015050A1116040911160409F5
:100D300011170309111703091118020912180209E2
:100D400012190209121901091219010912190109CE
:100D5000121A0109121A0109121A0109121A0109BB
:100D6000121A0109121A0109121A0109121A0109AB
:100D7000121A0109121A0109121A0109121A01099B
:100D8000121A010A121A020A121A020A121A020A84
:100D9000121A030A121A030B121A040C111A041A5B
:100DA000FFFF051AFFFF0619FFFF070F11190A0CB5
:100DB00011191019FFFF1018FFFF1018FFFF10186E
:100DC000FFFF0F17FFFF0F17FFFF0F16FFFF0E1696
:100DD000FFFF0E15FFFF0E15FFFF0D14FFFF0D1394
:100DE000FFFF0C13FFFF0B12FFFF0B11FFFF0A1099
:100DF000FFFF090FFFFF080EFFFF070DFFFF050BA9
:100E0000FFFF040AFFFF0108FFFF0105FFFF0102CA
:100E1000FFFF20746F2000507265737320005345EC
:100E200054002B0073617665006368616E6765002E
:100E300073617665005345540065786974004D45CB
:100E40004E55007365740053455400616476616EBD
:100E50006365004D454E550011241FBECFEFD8E00D
:100E6000DEBFCDBF11E0A0E0B1E0EEE9FFE602C0D9
:100E700005900D92A23AB107D9F713E0A2EAB1E0CA
:100E800001C01D92AC32B107E1F70E94F4300C941E
:100E9000CD370C940000AF92BF92CF92DF92EF92C9
:100EA000FF920F931F93CF93DF9300E010E00E9417
:100EB0002D2ADD24CC24AA24BB24CC2009F045C053
:100EC000E801C75CDD4F0F5F1F4FCE010E94B737AF
:100ED000E82E8FEFE816C1F4DD2019F0CC24C3947E
:100EE00034C087E090E00E94B73780930B030E94E4
:100EF0004022DF91CF911F910F91FF90EF90DF90F3
:100F0000CF90BF90AF900895DD2019F45801AE0C3A
:100F1000B11C2E2D30E0C901880F991F820F931F3D
:100F2000909581959F4F815C6D2D0E94232AFE2C08
:100F300007C0CE010E94B73760E00E941423FA94E4
:100F40002196FF20B1F70E0D111DD39488E0D8161D
:100F500009F0B3CF84EF91E00E9464328501A7CFFE
:100F60000F931F9388E090E00E94B737809324028C
:100F70000E942D2A8AEA90E060E00E944E2388E0D9
:100F800062E00E94232A82EA90E060E00E944E2301
:100F900088E064E00E94232A87E990E060E00E94F4
:100FA0004E2388E065E00E94232A82E890E060E01A
:100FB0000E944E2388E067E00E94232A8EE690E09C
:100FC00060E00E944E2391E000ED18E38091CE0195
:100FD000882391F18091CE01823089F0843019F01C
:100FE000813041F518C0809124028F5F80932402E4
:100FF000809124028933ECF0109324021AC080916E
:10100000240281508093240280912402803D8CF43C
:10101000009324020EC087E090E00E94B7378093CF
:101020000B030E942D2A82E6809314031F910F91D7
:10103000089591E01092CE01992341F2609124022B
:1010400088E090E00E94BF3785E362E00E94232A97
:101050008091240287FF03C08CE690E002C08AE6FC
:1010600090E060E00E944E2380912402992787FD42
:10107000909597FF03C0909581959F4F9595879583
:101080009595879560E00E94B53088E690E060E035
:101090000E944E2380912402282F332727FD30956C
:1010A00037FF03C0309521953F4F23703070C90141
:1010B00034E0880F991F3A95E1F7821B60E00E94A7
:1010C000B53090E083CF809102018150809302017E
:1010D0008823F1F485E080930201809100018093E0
:1010E000A20190910101980F90930001903218F0A5
:1010F0008FEF80930101992319F481E0809301011E
:1011000090E08091A301882309F491E09093A301DA
:101110000895FF920F931F93082FF62E6AE00E9406
:101120003E37182F805D6F2D0E941423005D86EFDF
:101130009FEF189F102D1124812F800F6F2D0E947B
:1011400014231F910F91FF9008951F93182F80E093
:1011500060E00E94232A8091C902612F0E948908C1
:101160008091C802612F0E94890886E660E00E9493
:10117000232A8091CA02612F0E9489088091C702A8
:10118000612F0E9489081F9108950F931F93082FC4
:1011900014E1812F67E00E94232A86E0602F0E94DD
:1011A000E422185E1437A9F71F910F910895DF927A
:1011B000EF92FF920F931F93E82E90910001809180
:1011C000A201981718F4892F805A02C0892F8150E4
:1011D00068E041E020E30E2D0E94762360E083E08A
:1011E000D82E15C080910001800F612F0E94232A04
:1011F0008091A3018D9DC00111248F0D6E2D0E9441
:10120000E422005F003671F7163039F0612FF62EB8
:10121000F69400E0162F1F5FE5CF1F910F91FF900E
:10122000EF90DF9008951F93182F80911E0288235E
:1012300059F480911F02882339F490912202809101
:10124000A501891709F44EC010921F0280911F0258
:1012500080931E028091A401882309F043C081E09D
:101260008093A401809122028093A50180910303C1
:101270000E9438348093C90280910E038093C80283
:1012800080912202833049F4809112030E94383405
:101290008093CA02809108031BC080912202813092
:1012A00031F484E18093CA028091070311C08091D8
:1012B0001103882339F4809118038093CA02809126
:1012C0000D0306C080910D038093CA02809118031C
:1012D0008093C7028091A40181508093A401812F43
:1012E0000E94A5081F9108951F93182F0E94D708E8
:1012F00080911303882321F48091A601882339F07B
:10130000812F0E94C508809113038093A601812F2D
:101310000E9413091F9108950F931F93182F80E0C7
:1013200060E040E820E4012F0E94762383E680936A
:10133000A501812F0E941309812F0E94A508812FEA
:101340000E94D708812F0E94C5081F910F91089510
:1013500081E0809300011092A20180E00E948C093C
:101360000895803819F4E0E0F0E027C087FF08C056
:1013700081950E94B109EE27FF27E81BF90B1DC0DC
:10138000803419F4EFEFFFE718C0A82FBB27A7FDA3
:10139000B09580343CF4AA0FBB1FAB51BF4FED9109
:1013A000FC910BC0E1E7F0E0EA1BFB0BEE0FFF1F27
:1013B000ED5FFE4F0190F081E02DCF010895805C3C
:1013C0000E94B10908951F93FC0180819181A2813F
:1013D000B3819C01241B350B1EEF2D30310744F0E7
:1013E000245F31402CF4408351836283738312C0A5
:1013F000481759076A077B0728F4845F9140A0408B
:10140000B04004C08C509E4FAF4FBF4F808391833C
:10141000A283B3831F9108952F923F924F925F92C0
:101420006F927F928F929F92AF92BF92CF92DF92F4
:10143000EF92FF920F931F93DF93CF93CDB7DEB759
:1014400064970FB6F894DEBF0FBECDBF27013801F9
:101450001401E60EF71E081F191FE986FA860B878E
:101460001C87EE24FF248701E418F50806091709F4
:10147000E982FA820B831C83E4E1EE2EE5E0FE2E86
:10148000012D112DE61AF70A080B190BED82FE82C9
:101490000F83188779018A016D877E878F87988BE4
:1014A000C501D6015C016D01992420E0BAC0B601E6
:1014B000A5014E0D5F1D601F711F498B5A8B6B8BF1
:1014C0007C8B6D857E858F859889640D751D861D45
:1014D000971D6D877E878F87988B89899A89AB89BD
:1014E000BC89895A9641A040B0408CF0D094C094F9
:1014F000B094A094A11CB11CC11CD11C48EA56E1B7
:1015000060E070E0498B5A8B6B8B7C8B19C06989CA
:101510007A898B899C89683C71058105910584F4E1
:10152000D094C094B094A094A11CB11CC11CD11C37
:1015300088EC90E0A0E0B0E0898B9A8BAB8BBC8B01
:1015400049855A856B857C854C555B42604070406F
:10155000B4F08D859E85AF85B88984199509A60953
:10156000B7098C559B42A040B0404CF46D817E8100
:101570008F819885685B794D8F4F9F4F1AC0498541
:101580005A856B857C85455155406040704024F5F7
:101590008D859E85AF85B88984199509A609B709F7
:1015A00085519540A040B040BCF06D817E818F8117
:1015B0009885A30192010E949337C601B5010E944C
:1015C0001F37E60EF71E081F191FD101ED92FD927D
:1015D0000D931C93139704C0222311F4939401C01C
:1015E00021E0E984FA840B851C85E40CF51C061DBA
:1015F000171DE986FA860B871C874D815E816F81F6
:10160000788589819A81AB81BC81480F591F6A1FF7
:101610007B1F4D835E836F837887E988FA880B8907
:101620001C898D859E85AF85B88989559240A040DB
:10163000B0408F5B9B42A040B04008F438CFC80157
:10164000B70124E630E040E050E00E949337E9A57E
:10165000FAA52083318342835383892D64960FB684
:10166000F894DEBF0FBECDBFCF91DF911F910F91D8
:10167000FF90EF90DF90CF90BF90AF909F908F90B2
:101680007F906F905F904F903F902F900895EF92D2
:10169000FF920F931F9380E00E946B35A0E0B0E0B3
:1016A000BC01CD0122E230E040E050E00E941F3753
:1016B0002FEF3FE740E050E00E94713779018A0147
:1016C00081E00E946B352FE030E040E050E0E20E18
:1016D000F31E041F151F8295880F880F807C8E0DC6
:1016E0001F910F91FF90EF9008952F923F924F928C
:1016F0005F926F927F928F929F92AF92BF92CF92A2
:10170000DF92EF92FF920F931F93CF93DF931C0111
:10171000EB012A016091ED027091EE028091EF02DF
:101720009091F002E090DB02F090DC020091DD028B
:101730001091DE02A090E102B090E202C090E302BC
:10174000D090E4026090D7027090D8028090D902C5
:101750009090DA022223F9F000D0EDB7FEB7D283E1
:10176000C183A801970186017501640153014101FC
:101770000E940C0A8093DF021092E002F101808146
:101780009181A281B381F20180839183A283B3838B
:1017900080911E021DC000D0EDB7FEB732822182BB
:1017A000A801970186017501640153014E010E9451
:1017B0000C0A8093DF021092E00288819981AA814D
:1017C000BB81F20180839183A283B38380911F0246
:1017D0000F900F90882311F021E001C020E0F2016A
:1017E00080819181A281B38130E7E32E3EEFF32E19
:1017F0003FEF032F3FEF132FE80EF91E0A1F1B1FA9
:10180000E082F18202831383222399F1F5E5EF163A
:10181000F8E0FF06F0E00F07F0E01F0728F4805320
:10182000984FAF4FBF4F20C0FBEAEF16F0E1FF0625
:10183000F0E00F07F0E01F0728F0805F9A40A0401B
:10184000B04012C082E00E946B35892B29F480EAF7
:1018500096EFAFEFBFEF04C080E699E0A0E0B0E004
:101860008E0D9F1DA01FB11FF20180839183A28363
:10187000B3838091DF02DF91CF911F910F91FF9091
:10188000EF90DF90CF90BF90AF909F908F907F9020
:101890006F905F904F903F902F900895AF92BF92BE
:1018A000CF92DF92EF92FF920F931F93F62ED42EDA
:1018B000B22E882361F56091E9027091EA0280916D
:1018C000EB029091EC0224E630E040E050E00E9410
:1018D0009337122F6091F9027091FA028091FB0206
:1018E0009091FC0224E630E040E050E00E94933703
:1018F000812F622F44E024E00F2DE4E0EE2E7AE009
:10190000C72E50E1A52E0E94BD35882331F08F2DC2
:1019100064E04D2D2B2D0E94C8361F910F91FF9032
:10192000EF90DF90CF90BF90AF9008950F931F93EB
:10193000182F062F8091C9026AE00E943E37482F77
:10194000812F6EE1202F0E944E0C8091C9026AE027
:101950000E943E37812F6DE2492F202F0E944E0CAE
:101960008091CA026AE00E943E37482F812F66E4C8
:10197000202F0E944E0C8091CA026AE00E943E37DE
:10198000812F65E5492F202F0E944E0C1F910F914A
:1019900008950F931F93082F10E08FE3612F0E948B
:1019A000232A002311F080EF01C08FE00E94CA2992
:1019B0001F5F173091F78FE367E00E94232A00230F
:1019C00011F080E201C08FEC0E94CA291F910F9193
:1019D0000895909122028091A801981739F081E032
:1019E0008093A701809122028093A8018091220216
:1019F000813059F1813030F08230C9F1833009F003
:101A000048C03DC080911E02882321F480911F02AE
:101A1000882391F080911F02882339F080910F0371
:101A20000E9438348093C90204C080911E0288232A
:101A300081F18091050320C0809103030E94383416
:101A40008093C90280910E0317C0809111038823EF
:101A500039F4809118038093C90280910D030CC062
:101A600080910D038093C9028091180305C084E121
:101A70008093C902809107038093CA0208958091E0
:101A800012030E9438348093C90280910803809326
:101A9000CA020895AF92CF92DF92EF92FF920F9316
:101AA0001F93D82E0E94E90C6091E9027091EA021E
:101AB0008091EB029091EC0224E630E040E050E0AF
:101AC0000E949337122F6091F9027091FA0280916F
:101AD000FB029091FC0224E630E040E050E00E94DE
:101AE0009337812F622F44E024E00D2D0E9476234E
:101AF000FF24DD2011F4FF24F3946091ED02709136
:101B0000EE028091EF029091F00224E630E040E096
:101B100050E00E949337122F6091DB027091DC023B
:101B20008091DD029091DE0224E630E040E050E05A
:101B30000E949337812F622F44E024E00F2D0E94F2
:101B400076236091E9027091EA028091EB02909114
:101B5000EC0224E630E040E050E00E949337122F80
:101B60006091F9027091FA028091FB029091FC025F
:101B700024E630E040E050E00E949337812F622F4E
:101B800044E024E00FE3EE24CC24C39490E4A92E97
:101B90000E94BD35882319F08D2D0E94C90C20911B
:101BA000CB023091CC024091CD025091CE02809177
:101BB000CF029091D002A091D102B091D202281709
:101BC00039074A075B0779F0CA01B90124E630E01A
:101BD00040E050E00E9493378AE0622F43E02CE01F
:101BE0000D2D0E9476236091CF027091D0028091DA
:101BF000D1029091D20224E630E040E050E00E9411
:101C000093378AE0622F43E02CE00F2D0E94762369
:101C10002091F5023091F6024091F7025091F802BE
:101C20008091F1029091F202A091F302B091F4023E
:101C3000281739074A075B0779F0CA01B90124E67A
:101C400030E040E050E00E94933783E7622F43E0AA
:101C50002CE00D2D0E9476236091F1027091F2022A
:101C60008091F3029091F40224E630E040E050E0ED
:101C70000E94933783E7622F43E02CE00F2D0E94F0
:101C800076236091E9027091EA028091EB029091D3
:101C9000EC0224E630E040E050E00E949337022F4F
:101CA0006091F9027091FA028091FB029091FC021E
:101CB00024E630E040E050E00E949337122F60911C
:101CC000F1027091F2028091F3029091F40224E605
:101CD00030E040E050E00E949337E22E802F612FE9
:101CE00044E024E003E713E0C12EBCE0AB2E0E94E9
:101CF000BD358823A9F06091F1027091F2028091C4
:101D0000F3029091F40224E630E040E050E00E94BB
:101D1000933783E7622F43E02CE00F2D0E94762358
:101D20006091E9027091EA028091EB029091EC02DD
:101D300024E630E040E050E00E949337022F6091AB
:101D4000F9027091FA028091FB029091FC0224E664
:101D500030E040E050E00E949337122F6091CF02B4
:101D60007091D0028091D1029091D20224E630E0AD
:101D700040E050E00E949337E22E802F612F44E034
:101D800024E00AE0A3E0CA2EFCE0AF2E0E94BD359D
:101D90008823A9F06091CF027091D0028091D10286
:101DA0009091D20224E630E040E050E00E94933768
:101DB0008AE0622F43E02CE00F2D0E9476231092E0
:101DC00070008091A701882311F01092A70181E093
:101DD000809370006D2D0E94960C1F910F91FF90C3
:101DE000EF90DF90CF90AF9008956F927F928F9297
:101DF0009F92AF92BF92CF92DF92EF92FF920F939A
:101E00001F938091ED029091EE02A091EF02B091AC
:101E1000F0028093E9029093EA02A093EB02B09360
:101E2000EC022091DB023091DC024091DD02509106
:101E3000DE022093F9023093FA024093FB025093A2
:101E4000FC026090E1027090E2028090E3029090C8
:101E5000E40264015301A80EB91ECA1EDB1EA09243
:101E6000ED02B092EE02C092EF02D092F002E0904A
:101E7000D702F090D8020091D9021091DA02D8016D
:101E8000C701820F931FA41FB51F8093DB0290939D
:101E9000DC02A093DD02B093DE02895A9641A04095
:101EA000B040DCF088EA96E1A0E0B0E08093DB028D
:101EB0009093DC02A093DD02B093DE02882799277D
:101EC000DC018E199F09A00BB10B8093D702909370
:101ED000D802A093D902B093DA028091DB029091EC
:101EE000DC02A091DD02B091DE02883C9105A105E3
:101EF000B1051CF588EC90E0A0E0B0E08093DB0237
:101F00009093DC02A093DD02B093DE028091D702B1
:101F10009091D802A091D902B091DA02B095A09523
:101F2000909581959F4FAF4FBF4F8093D70290936D
:101F3000D802A093D902B093DA0284EDA81680E308
:101F4000B80680E0C80680E0D806ECF4C601B5010A
:101F500024E630E040E050E00E94933712169CF4F3
:101F6000611471048104910409F0CEC08091D702FC
:101F70009091D802A091D902B091DA020097A10500
:101F8000B10509F0C1C08CE998E1A0E0B0E0809310
:101F9000ED029093EE02A093EF02B093F0028CE179
:101FA0009CE0A0E0B0E08093DB029093DC02A09381
:101FB000DD02B093DE020E94470B182F84EF91E000
:101FC000A0E0B0E08093E1029093E202A093E302EC
:101FD000B093E4028093D7029093D802A093D902E1
:101FE000B093DA02812F0E94DF09AA2797FDA095FE
:101FF000BA2FBC01CD0124EF31E040E050E00E9457
:102000001F376093E1027093E2028093E3029093A2
:10201000E402A090D702B090D802C090D902D0902C
:10202000DA02812F0E94B1097C016091E102709176
:10203000E2028091E3029091E4022FEF3FE740E05B
:1020400050E00E9493372093E1023093E2024093E4
:10205000E3025093E4020027F7FC0095102FC8011B
:10206000B701A60195010E941F372FEF3FE740E01F
:1020700050E00E9493372093D7023093D8024093C8
:10208000D9025093DA026091B6012091B501261B66
:102090008AE043E000E00E9476236091B80120913D
:1020A000B701261B83E743E00E9476231092B70115
:1020B0001092B8011092B5011092B60181E08093A0
:1020C000A70110921F0280911F0280931E0220E040
:1020D0008091E1029091E202A091E302B091E402CA
:1020E000181619061A061B060CF421E089EA91E07D
:1020F0006DEA71E041EB51E00E94750B8093DF02C5
:102100001092E0020E94E90C8091CF029091D002DF
:10211000A091D102B091D2028093CB029093CC02D5
:10212000A093CD02B093CE028091F1029091F20281
:10213000A091F302B091F4028093F5029093F6021D
:10214000A093F702B093F8028091E1029091E2022D
:10215000A091E302B091E402B7FF2AC08091ED02A2
:102160009091EE02A091EF02B091F002805099415F
:10217000A040B0400CF04BC080911E02882349F073
:102180004091B1015091B2016091B3017091B401DD
:102190000CC04091DB025091DC026091DD02709135
:1021A000DE0240595140604070408FEC92E02CC0FC
:1021B0000097A105B10599F18091ED029091EE0291
:1021C000A091EF02B091F00281509941A040B0403F
:1021D00034F180911F02882349F04091B101509160
:1021E000B2016091B3017091B4010CC04091DB0267
:1021F0005091DC026091DD027091DE024059514045
:102200006040704081EF92E00E94E30915C089EAC6
:1022100091E06DEA71E041EB51E021E007C089EA0D
:1022200091E06DEA71E041EB51E020E00E94750B16
:102230008093DF021092E0028091CF029091D00251
:10224000A091D102B091D202893C9105A105B105BE
:1022500064F489EC90E0A0E0B0E08093CF0290932A
:10226000D002A093D102B093D2028091F10290915A
:10227000F202A091F302B091F402893C9105A1050C
:10228000B10564F489EC90E0A0E0B0E08093F10245
:102290009093F202A093F302B093F4028091CF02E4
:1022A0009091D002A091D102B091D202885893416E
:1022B000A040B04064F087E893E1A0E0B0E08093F4
:1022C000CF029093D002A093D102B093D20280911A
:1022D000F1029091F202A091F302B091F4028858B9
:1022E0009341A040B04064F087E893E1A0E0B0E003
:1022F0008093F1029093F202A093F302B093F40260
:102300008091E1029091E202A091E302B091E40297
:10231000181619061A061B060CF05DC06091ED0236
:102320007091EE028091EF029091F00224E630E08D
:1023300040E050E00E949337022F6091DB027091E1
:10234000DC028091DD029091DE0224E630E040E084
:1023500050E00E949337122F6091F1027091F202C7
:102360008091F3029091F40224E630E040E050E0E6
:102370000E949337E22E802F612F44E024E003E790
:10238000E3E0CE2E7CE0A72E0E94BD35882319F114
:102390008091E1029091E202A091E302B091E40207
:1023A000B095A095909581959F4FAF4FBF4F80936B
:1023B000E1029093E202A093E302B093E4028CE581
:1023C0009BE2A0E0B0E08093ED029093EE02A09338
:1023D000EF02B093F0028091E1029091E202A091AD
:1023E000E302B091E402B7FF5DC06091ED0270912D
:1023F000EE028091EF029091F00224E630E040E09E
:1024000050E00E949337022F6091DB027091DC0252
:102410008091DD029091DE0224E630E040E050E061
:102420000E949337122F6091CF027091D002809159
:10243000D1029091D20224E630E040E050E00E94C8
:102440009337E22E802F612F44E024E00AE053E02E
:10245000C52E3CE0A32E0E94BD35882319F1809142
:10246000E1029091E202A091E302B091E402B09502
:10247000A095909581959F4FAF4FBF4F8093E102FC
:102480009093E202A093E302B093E40284E195E02A
:10249000A0E0B0E08093ED029093EE02A093EF02F3
:1024A000B093F0021F910F91FF90EF90DF90CF90CB
:1024B000BF90AF909F908F907F906F900895FF9204
:1024C0000F931F93F82E80E060E040E820E40F2D8A
:1024D0000E94762310E0FF2009F411E080E060E024
:1024E00040E822E0012F0E94762380E06EE340E87E
:1024F00022E00E9476236091CF027091D0028091F9
:10250000D1029091D20224E630E040E050E00E94F7
:1025100093378AE0622F43E02CE00E94762360919B
:10252000F1027091F2028091F3029091F40224E69C
:1025300030E040E050E00E94933783E7622F43E0B1
:102540002CE00E9476230E94E90C8091C9026AE087
:102550000E943E37482F8EE164E02F2D0E94C8363E
:102560008091C9026AE00E943E378DE264E0492F03
:102570002F2D0E94C8368091CA026AE00E943E3721
:10258000482F86E464E02F2D0E94C8368091CA024D
:102590006AE00E943E3785E564E0492F2F2D0E94B6
:1025A000C8368F2D0E94C90C1F910F91FF9008957E
:1025B00084EC99E0A0E0B0E08093ED029093EE020D
:1025C000A093EF02B093F0028093E9029093EA02A5
:1025D000A093EB02B093EC028093DB029093DC02B9
:1025E000A093DD02B093DE028093F9029093FA0289
:1025F000A093FB02B093FC028093CF029093D00291
:10260000A093D102B093D2028093CB029093CC02DC
:10261000A093CD02B093CE028093F1029093F20288
:10262000A093F302B093F4028093F5029093F60224
:10263000A093F702B093F8020E940D351092D702D2
:102640001092D8021092D9021092DA021092E1028E
:102650001092E2021092E3021092E40280E00E94E3
:102660005F12089580911703882341F080911E0224
:10267000823021F080911F02823031F410921F02CB
:1026800080911F0280931E020895CF92DF92EF92F5
:10269000FF920F931F93DF93CF930F92CDB7DEB7C7
:1026A000E82EF42E122FC02E962F9E5F1450D62E99
:1026B000DA9400E0CC2009F401E08E2D692F4F2D33
:1026C000212F99830E947623E394998191508EEF74
:1026D000F80E1E5F9D1569F70F90CF91DF911F9146
:1026E0000F91FF90EF90DF90CF9008950F93362FCA
:1026F000022F90E0FC01EE0FFF1FE80FF91FE95BCE
:10270000FE4F8081882339F481816281640F830FB9
:1027100042E126E006C081816281640F830F46E0BA
:1027200029E10E9445130F910895CF92DF92EF9215
:10273000FF920F931F93CF93DF93C82ED62E022FB5
:1027400010E0C7E0D0E0E42EFF24C7010C2E02C049
:10275000959587950A94E2F780FF05C0812F6C2D2F
:102760004D2D202F07C020E0002309F421E0812F08
:102770006C2D4D2D0E9476131F5F2197173029F77E
:10278000DF91CF911F910F91FF90EF90DF90CF904D
:1027900008950F93082F80E060E040E820E40E9455
:1027A00076230F9108950F9380E060E040E820E4E5
:1027B00000E00E9476230F910895FF920F931F93DC
:1027C000182F062FF22E842F90E04A3028F4815DD6
:1027D0009D4F0E94B73704C08C549E4F0E94B7375C
:1027E000482F812F602F2F2D0E9495131F910F913D
:1027F000FF900895FF920F931F93F82E142F062F2A
:102800000F7767FF08C020E0442309F421E080E04F
:1028100060E048E008C0802F6AE00E943E37482F01
:102820008F2D60E0212F0E94DD13802F6AE00E942F
:102830003E378F2D825E60E0492F212F0E94DD13ED
:102840001F910F91FF90089520E0442309F421E0A7
:1028500044E00E9466240895EF92FF920F931F9325
:10286000082F809122028823C9F0809122028330B0
:10287000A9F0102F011111E080E465E144E0212F5F
:102880000E94662480E46AE244E0212F0E946624CC
:1028900080E466E044E0212F0E94662480912202B9
:1028A000823069F480E064E1402F0E94FA13809145
:1028B000070364E60E943E3788E4692F17C08091C1
:1028C00022028130B9F480911103882329F46091A8
:1028D000180310910D0304C060910D0310911803AB
:1028E00080E0402F0E94FA1388E4612F402F0E945D
:1028F000FA1367C080912202882329F08091220276
:10290000833009F05EC080912202833029F4109157
:102910001203E090080304C010910303E0900E033B
:1029200080910603882399F4812F0E943834F82E71
:102930001C3020F420E0002321F402C020E001112B
:1029400021E080E466E044E00E94662409C020E0C3
:10295000011121E080E466E044E00E946624F12E4B
:1029600089E08F1510F060E801C060E06F2980E019
:10297000402F0E94FA1388E46E2D402F0E94FA1314
:10298000809120028823E9F080911903817080935F
:1029900020028091200220E0882309F421E080E4D5
:1029A00065E144E00E9466248091200220E08823B3
:1029B00009F421E080E46AE244E00E946624109277
:1029C00020021F910F91FF90EF900895462F282F1E
:1029D00030E0862F6AE00E943E37ACE5B1E0FD01B1
:1029E000E20FF31F80832F5F3F4F842F0E943E37FB
:1029F000A20FB31F9C93089580911703882341F081
:102A000080911E02823021F080911F02823031F4C9
:102A100010921F0280911F0280931E0208950F934F
:102A2000502FE82FF0E030E08091BC01882369F45A
:102A30008091BA01E81BF109F7FF11C02E0F3F1F6B
:102A400037FD19C0E0E0F0E00DC0C9018E0F9F1FF7
:102A50008038910524F020E830E02E1B3F0BE03851
:102A6000F1054CF400E0442309F401E08E2F422FDD
:102A7000252F0E9476230F9108950F9322E106E0FF
:102A80000E940F150F9108950F9326E000E20E9417
:102A90000F150F910895362F90E0FC01EE0FFF1FE8
:102AA000E80FF91FE159FE4F8081882341F48181AD
:102AB0006281640F830F422F0E943D15089581812A
:102AC0006281640F830F422F0E9444150895CF92B4
:102AD000DF92EF92FF920F931F93CF93DF93C82E55
:102AE000D62E022F10E0C7E0D0E0E42EFF24C7016D
:102AF0000C2E02C0959587950A94E2F780FF06C0D8
:102B0000812F6C2D4D2D202F0E944B151F5F21977B
:102B1000173069F7DF91CF911F910F91FF90EF90E0
:102B2000DF90CF9008950F93625024E004E00E945C
:102B30000F150F910895CF92DF92EF92FF920F93AE
:102B40001F93182FC62EF42EE22E8093BC0184E131
:102B50008093BD018AE3481719F08DE2481719F4F4
:102B600086E08093BD012091BD01112341F4809145
:102B7000BA01422F481B14168CF0DD2440C0422FAE
:102B8000812F992787FD9095332727FD3095820F58
:102B9000931F8038910514F040E8411BD42E812FFB
:102BA00060E020E40E2D0E94762389E08F1568F006
:102BB0008F2D90E0815D9D4F0E94B737482F812F68
:102BC0006C2D2E2D0E9467151AC08AE3F81641F469
:102BD000812F60E14E2D0E949315812F6FE20CC072
:102BE0008DE2F81661F4812F60E04D2D20E40E2D6A
:102BF0000E947623812F6FE14E2D0E9493158D2D1B
:102C00001F910F91FF90EF90DF90CF9008958091EA
:102C10002202833019F48091120302C080910303D1
:102C20000E943834682F80E00E94E61480912202CE
:102C3000833019F46091080302C060910E0383E0B1
:102C40000E94E61480912202833011F460E002C0F9
:102C50006091190386E00E94E61480911103882395
:102C600011F08CE001C089E0609118030E94E61425
:102C700080911103882311F089E001C08CE06091FC
:102C80000D030E94E614609107038FE00E94E61492
:102C90000895FF920F931F93F82E8091BE018F5FCE
:102CA0008093BE01863008F458C01092BE01009196
:102CB000BB0180912202833059F480912102882344
:102CC00039F0109221028091BB018091BB010AC0B2
:102CD00080912202833031F48091BB01882311F46A
:102CE000109222020E94071610E035C0E02FF0E09B
:102CF000E45AFE4F40810F5F812F60E02F2D0E942C
:102D00009B15282F023108F000E0112319F522232A
:102D1000E1F49091BA018091BD01891740F480914E
:102D2000BA019091BD01891B8093BA0102C0109233
:102D3000BA018091BB018F5F8093BB018091BB0181
:102D4000823140F01092BB0105C08091BA018B5FC7
:102D50008093BA01120F17FFC9CF1F910F91FF90F7
:102D600008950F931F93182F80911303882331F434
:102D700060E040E820E4012F0E9476230E940716BD
:102D8000812F0E9449161F910F9108951092BA0148
:102D90001092BB0180E00E94B1160895DF92EF927D
:102DA000FF920F931F93CF93DF93D82EF62EE22E30
:102DB000F694F694F694EA0100E015C0FE01149131
:102DC000802F6CE10E943E37292F2D0D802F0E940D
:102DD0003E37682F6F0D822F0E94232A812F0E9479
:102DE000CA290F5F21960E1548F3DF91CF911F91ED
:102DF0000F91FF90EF90DF900895CF92DF92EF92C6
:102E0000FF920F931F93CF93DF93C82EF62ED22EEF
:102E1000E02EF694F694F694EA0110E019C00881C9
:102E2000812F6CE10E943E37992341F4812F0E944B
:102E30003E37682F6F0D8C2D0E94232AEE2019F04B
:102E4000802F809501C0802F0E94CA291F5F219684
:102E50001D1528F3DF91CF911F910F91FF90EF90F7
:102E6000DF90CF9008957F928F929F92AF92BF9202
:102E7000CF92DF92EF92FF920F931F93DF93CF9346
:102E8000CDB7DEB7C05ED0400FB6F894DEBF0FBE40
:102E9000CDBFA82E962EB22E802EFE01319680EE4A
:102EA000DF011D928A95E9F7DA0150E09CE1792E65
:102EB00081E0C82ED12C7F011CC0F90184912F5FC5
:102EC0003F4FF901749121503040482F09C0F8015B
:102ED000E40FF11DEE0DFF1D8081862B80834F5F77
:102EE0004717A8F39F5F2E5F3F4F923031F75F5F28
:102EF00014965B1588F4852F869586958695879D13
:102F000080011124852F87706C2D01C0660F8A9572
:102F1000EAF79D0190E0D1CF8A2D692DAE014F5F78
:102F20005F4F20EE082D0E94FD16C052DF4F0FB6F6
:102F3000F894DEBF0FBECDBFCF91DF911F910F91EF
:102F4000FF90EF90DF90CF90BF90AF909F908F90C9
:102F50007F9008950F93942F022F592F40E04E5EDB
:102F60005B4F20E40E9433170F9108952F923F92F8
:102F70004F925F926F927F928F929F92AF92BF9289
:102F8000CF92DF92EF92FF920F931F93DF93CF9335
:102F9000CDB7DEB7C35FD0400FB6F894DEBF0FBE2B
:102FA000CDBFC251DF4F8883CE5ED040C151DF4FCD
:102FB0006883CF5ED040C051DF4F4883C05FD040B0
:102FC000CF50DF4F0883C15FD040FE01399680EEBD
:102FD000DF011D928A95E9F78091C201282E3324E2
:102FE000D22ECC2442E154E0C40ED51EC051DF4F96
:102FF0008881C05FD040F82EEE24E40EF51E8824B0
:103000009924B5E06B2E712C6C0E7D1ECE50DF4FD7
:10301000F983E883C25FD040582DC051DF4F8881CB
:10302000C05FD0408F3F29F41C821B821A82198214
:1030300009C0DE011196F70184918D933196A61592
:10304000B705D1F79981C451DF4F9883CC5ED0404A
:1030500030E09F3F09F031E08B818F3F09F03F5F07
:10306000D301F60184918D933196CE50DF4F888144
:103070009981C25FD040A817B907A1F79D81C551BA
:10308000DF4F9883CB5ED04090E0C551DF4FA881E1
:10309000CB5ED040AF3F09F091E08F818F3F09F0C8
:1030A0009F5F292F931708F4232FBA81C351DF4F55
:1030B000B883CD5ED040569556955695ECE15E9F0F
:1030C00020011124C4018770907041E050E002C0DB
:1030D000440F551F8A95E2F7C751DF4F4883C95EF9
:1030E000D0405E81C651DF4F5883CA5ED040830115
:1030F0005E010894A11CB11C622F70E0660F771F5F
:10310000660D771D69C0D5012C912F3F19F01196DE
:10311000BC910AC0C451DF4F2881CC5ED040C3515E
:10312000DF4FB881CD5ED040F80180818F3FB1F193
:10313000A18190E030E0821B930B829DA001839DD2
:10314000500D929D500D1124405F5F4FF5E0569554
:103150004795FA95E1F7420F531F50708A2F90E080
:103160002B2F30E0821B930B829DD001839DB00DED
:10317000929DB00D11245096E5E0B695A795EA957D
:10318000E1F7A20FB31FB070F201E40FF51F89E061
:1031900090E08C0F9D1FE80FF91F15C0C551DF4F40
:1031A0008881CB5ED040C651DF4FA881CA5ED04037
:1031B000C0CF8081C751DF4F9881C95ED040892B35
:1031C00081934F5F5F4F4A175B0798F30E5F1F4F66
:1031D000A2E0B0E0AA0EBB1E0617170709F093CFB6
:1031E0000894811C911CE4E0F0E0CE0EDF1EEE0E90
:1031F000FF1EF0E48F16910409F00ECFC251DF4F8D
:103200008881CE5ED040C151DF4F6881CF5ED04013
:10321000AE01475F5F4F20EECF50DF4F0881C15FA7
:10322000D0400E94FD16CD50DF4F0FB6F894DEBFA0
:103230000FBECDBFCF91DF911F910F91FF90EF9007
:10324000DF90CF90BF90AF909F908F907F906F90C6
:103250005F904F903F902F900895EF92FF920F93C1
:103260001F93E82E162FFF24442311F4FF24F39418
:1032700013508E2D8150612F42E026E00F2D0E94C9
:1032800076231F5F8E2D8250612F44E024E00E9440
:1032900076231F5F8E2D8350612F46E022E00E942F
:1032A00076231F910F91FF90EF9008951F93182F91
:1032B00080E464E1412F0E942D1980E46AE3412FEC
:1032C0000E942D191F91089580912202882359F49C
:1032D00080912002882339F01092200280911903F6
:1032E00081700E94561908950F931F93CF93DF9317
:1032F000182F80912202882329F0809122028330A6
:1033000009F0C8C0909122028091CC01891709F47C
:1033100050C08091BF01882309F04BC08091C70144
:103320008093C3018091C8018093C4018091C90139
:103330008093C5018091CA018093C60180912202C9
:10334000882341F4809103030E943834382F209160
:103350000E0307C0809112030E943834382F209149
:103360000803822F6AE00E943E379093CA01822FA1
:103370000E943E378093C901832F0E943E3780937D
:10338000C701832F0E943E379093C801812F0E946E
:1033900056198CE363E247E025E0012F0E94762373
:1033A000809122028093CC018091BF018F5F809336
:1033B000BF0180912202882309F046C080911E023D
:1033C000882321F480911F028823F1F18091BF01AD
:1033D0008823D1F581E08093BF018091CA01809359
:1033E000C60180910E036AE00E943E379093CA01A5
:1033F0008091C9018093C50180910E030E943E37E0
:103400008093C90180911F028823C1F0809103033A
:103410000E943834282F8091C7018093C301809186
:10342000C8018093C401822F6AE00E943E378093D6
:10343000C701822F0E943E379093C80110921F024D
:1034400080911F0280931E028091CB01811709F4A5
:1034500074C08091BF01882309F06FC060E040E82C
:1034600020E4012F0E947623812F0E945619C0E08C
:10347000D0E0FE01EC57FE4FDE01A953BE4F808124
:1034800060E04C91212F0E94AA172196C430D105EB
:1034900081F753C000912202013009F051C0909190
:1034A00022028091CC01891709F447C083EC90E097
:1034B00061E00E9498328091BF018823F1F500936A
:1034C000BF01809122028093CC018091C70180933B
:1034D000C3018091C8018093C4018091C901809388
:1034E000C5018091CA018093C60180911103882390
:1034F00029F42091180330910D0304C020910D038D
:1035000030911803822F6AE00E943E378093C701F2
:10351000822F0E943E379093C801832F0E943E372E
:103520008093C901832F0E943E379093CA0180E0A7
:10353000112309F481E00E945619C0E0D0E04EC08A
:10354000009122020230C9F7909122028091CC01B1
:10355000891799F38DEB90E061E00E949832809199
:10356000BF01882351F781E08093BF0188EB90E091
:1035700061E00E949832809122028093CC01809178
:10358000C7018093C3018091C8018093C4018091D9
:10359000C9018093C5018091CA018093C60100933F
:1035A000C7011092C801809107036AE00E943E376C
:1035B0008093C901809107030E943E379093CA010E
:1035C00080E0112309F481E00E9456198CE363E244
:1035D00047E025E0012F0E947623AFCFFE01ED5397
:1035E000FE4F4081FE01E953FE4F2081421741F01A
:1035F000FE01EC57FE4F808160E0012F0E94B6175C
:103600002196C430D10551F79091BF01992389F1DA
:103610008091C2018F5F8093C201813250F110927C
:10362000C2018091C7018093C3018091C80180933A
:10363000C4018091C9018093C5018091CA01809322
:10364000C60191509093BF0180912202813059F4BC
:1036500000E0112309F401E08CE363E247E025E098
:103660000E94762306C080912202823011F0809160
:1036700022021093CB01DF91CF911F910F910895FA
:103680000F931F93CF93DF93182F80E060E040E803
:1036900020E4012F0E9476231092C201809103033F
:1036A0000E943834382F20910E038FEF8093C6018B
:1036B0008093C5018093C4018093C301822F6AE087
:1036C0000E943E379093CA01822F0E943E3780931A
:1036D000C901832F0E943E379093C801832F0E9417
:1036E0003E378093C70117C0C0E0D0E0FE01EC5721
:1036F000FE4FDE01AD53BE4F9E0129533E4F8081E8
:1037000060E04C91F9012081012F0E94B6172196AB
:10371000C430D10559F78091C2018F5F8093C201F7
:103720008150813208F389EC90E060E00E94983289
:103730008091C7018093C3018091C8018093C40127
:103740008091C9018093C5018091CA018093C6010F
:10375000812F0E9456191092C201DF91CF911F91C3
:103760000F91089580E00E94401B089526982E9A9C
:1037700081E080936800EBE6F0E0808180648083E4
:1037800082E080937C0010927B00EAE7F0E08EE814
:103790008083808180648083089580917A00877F10
:1037A00080937A0080917A00806480937A0080917F
:1037B0007A0084FFFCCF2091780030917900C90114
:1037C00008951F920F920FB60F9211242F933F93DB
:1037D0004F935F936F937F938F939F93AF93BF9319
:1037E000EF93FF9378940E945C2BFF91EF91BF9130
:1037F000AF919F918F917F916F915F914F913F9189
:103800002F910F900FBE0F901F9018951F920F923F
:103810000FB60F9211242F933F934F935F936F93A3
:103820007F938F939F93AF93BF93EF93FF9378947E
:10383000809178009091790022E0803E920728F0F4
:103840001092CF011092CD0173C022E0833692070F
:1038500098F18091CD0182FD6BC08AE090E00E94DA
:1038600064320E94CD1B825692408E37910508F03B
:103870005FC082E08093D00112C00E94CD1B8256AF
:1038800092408E37910558F08091CD018B7F8093C7
:10389000CD018091CE0184608093CE0149C080919A
:1038A000D001882351F78091CD0184608093CD01B0
:1038B0008091CF0184603AC08F509140E8F08091B0
:1038C000CD0181FD10C08AE090E00E9464320E9428
:1038D000CD1B8E5091408555914050F58091CE0181
:1038E00082608093CE018091CD0182608093CD0172
:1038F0008091CF0182601AC08091CD0180FD0EC001
:103900008AE090E00E9464320E94CD1B8F5091406B
:1039100078F48091CE0181608093CE018091CD01B9
:1039200081608093CD018091CF0181608093CF0130
:1039300080917A00886480937A00FF91EF91BF9123
:10394000AF919F918F917F916F915F914F913F9137
:103950002F910F900FBE0F901F9018951F93182F47
:103960008BE260E00E94232A80910B03863D19F1CF
:10397000873D60F4833DC9F0843D18F4823D61F5D4
:1039800011C0843D61F0853D39F512C0883DC9F014
:10399000883DA0F0893DC1F08A3DF1F418C082E273
:1039A00091E017C084E191E014C089E091E011C07A
:1039B0008EEF90E00EC081EF90E00BC08AEE90E0B9
:1039C00008C083EE90E005C089ED90E002C083ED71
:1039D00090E0612F0E944E231F9108951F93182F8E
:1039E00088E064E00E94232A8CEB91E060E00E9472
:1039F0004E2380911103882339F480910603882394
:103A000019F48FEA91E020C080911103882339F4E2
:103A100080910603813019F482EA91E015C080910B
:103A20001103813039F480910603882319F485E964
:103A300091E00AC080911103813049F4809106031E
:103A4000813029F488E891E0612F0E944E231F9174
:103A500008950F931F93CF93DF93182F062F809114
:103A60000603882371F584E761E00E94232A1C3055
:103A700010F080E501C081E460E00E9414238DE431
:103A800060E00E94142380E561E00E94232A812FD8
:103A900090E047966CE070E00E945E37EC01893060
:103AA000910524F09C012F5F822F10C080E260E01E
:103AB0000E9414239E012F5C822F602F0E941423EA
:103AC00008C080E561E00E94232A812F602F0E94B8
:103AD000B530DF91CF911F910F9108950F931F93F0
:103AE000CF93DF93082F162F809106038823D1F4FC
:103AF000802F90E047966CE070E00E945E37EC010A
:103B00008930910524F09C012F5F822F14C080E240
:103B100060E00E9414239E012F5C822F612F0E947F
:103B200014230CC080E260E00E94142380E260E075
:103B30000E941423802F612F0E94B530DF91CF9116
:103B40001F910F9108950E94B5308FE260E00E94AE
:103B500014230895EF92FF920F931F93F82E162FC0
:103B6000E42E022F88E063E00E94232A8DE092E099
:103B700060E00E944E2380911103882391F487E036
:103B800092E060E00E944E2360E00B3009F461E0B7
:103B90008F2D0E94A31D60E00C3009F461E0812F9D
:103BA00015C080911103813099F481E092E060E0CA
:103BB0000E944E2360E00C3009F461E0812F0E94E6
:103BC000A31D60E00B3009F461E08F2D0E94A31D5E
:103BD00010E00D3009F411E084E1612F0E94B5304E
:103BE0008E2D612F0E94B5301F910F91FF90EF90A5
:103BF00008951F93182F88E065E00E94232A89E129
:103C000092E060E00E944E238091B40060E019369B
:103C100009F461E00E94B5301F910895DF92EF92A0
:103C2000FF920F931F93E82EF62ED42E122F88E0CA
:103C300062E00E94232A89E292E060E00E944E2323
:103C400000E0153609F401E08E2D602F0E946E1DF4
:103C50008AE360E00E94142360E0163609F461E014
:103C60008F2D0E94B5308AE360E00E94142360E04B
:103C7000173609F461E08D2D0E94B530809106035E
:103C8000882369F480E260E00E9414238BE08E15A3
:103C900010F480E501C081E4602F0E9414231F917D
:103CA0000F91FF90EF90DF9008951F93182F88E0F9
:103CB00061E00E94232A84E392E060E00E944E23A8
:103CC0008091120360E0153609F461E00E94291D1D
:103CD0008AE360E00E9414238091080360E01636B6
:103CE00009F461E00E94B5301F9108958B3029F4EA
:103CF00086EF91E06DEE71E00DC08C3029F482EE1C
:103D000091E069ED71E006C08D3039F48EEC91E000
:103D100065EC71E00E94A13608950E94BD360895B9
:103D20008091D2018F5F8093D2010E942D2A88E07A
:103D300060E00E94232A83E192E060E00E944E232B
:103D400080E00E94AE1C84E00E94551E8091030317
:103D500060910E034091190323E00E940E1E809192
:103D6000180360910D034091070325E00E94AA1DEE
:103D700080E00E94EE1C86E00E94F91D0E94BD3684
:103D80008091D20181508093D20108951F93182F02
:103D90000E94901E8091D2018F5F8093D20180910A
:103DA0001403863011F40E94B236110F110F110F57
:103DB0001D5F80E0612F47E00E94CC308091D201EE
:103DC00081508093D2018AE08093D10180911403C5
:103DD0001F910895CF92DF92EF92FF920F931F935E
:103DE00082E00E94C61E082F10910303D0900E039C
:103DF000F090190390C08091CE0181FF48C01092CD
:103E0000CE018091D2018F5F8093D201033041F4C3
:103E100086E591E06DE471E00E94A13605E62CC0D4
:103E2000053641F482E491E069E371E00E94A13635
:103E300006E622C0063641F485E391E06CE271E0CB
:103E40000E94A13607E618C00E94BD3610930303F6
:103E5000D0920E03F09219038091190360910E0322
:103E60004091030300910D03E0901803C0900703F5
:103E700020E00E94F32B03E0812F6D2D4F2D202F8A
:103E80000E940E1E8091D20181508093D2018091B8
:103E9000CE0182FD04C08091CF0182FF3CC0109210
:103EA000CE018091D2018F5F8093D201053659F403
:103EB000812F90E0019668E170E00E945E37182F34
:103EC0008093030315C0063649F48D2D90E00196CA
:103ED0006CE370E00E945E37D82E0AC0073641F4CA
:103EE0008F2D90E001966CE370E00E945E37F82E13
:103EF000812F6D2D4F2D202F0E940E1E8091D201FB
:103F000081508093D2018091CF0182FF04C088EC60
:103F100090E00E9464320E942036882309F46BCF1F
:103F20001F910F91FF90EF90DF90CF9008951F9316
:103F300081E00E94C61E182F6CC08091CE0181FFC7
:103F400026C01092CE018091D2018F5F8093D20162
:103F5000143041F48DE791E064E771E00E94A136EE
:103F600015E60DC0153641F489E691E060E671E092
:103F70000E94A13616E603C00E94BD3614E0812FD0
:103F80000E94551E8091D20181508093D201809170
:103F9000CE0182FD04C08091CF0182FF3AC0109211
:103FA000CE018091D2018F5F8093D201153679F4D2
:103FB0008091120390E0019668E170E00E945E3704
:103FC000809312036091120381E090E010C01636D6
:103FD00081F48091080390E001966CE370E00E9408
:103FE0005E37809308036091080382E090E00E94AE
:103FF000BF37812F0E94551E8091D201815080933E
:10400000D2018091CF0182FF04C088EC90E00E9431
:1040100064320E942036882309F48FCF1F910895BF
:104020001F9385E00E94C61E182F46C08091CE01C6
:1040300081FF18C01092CE018091D2018F5F8093D2
:10404000D201163021F40E94AB3619E603C00E945B
:10405000B23616E0812F0E94F91D8091D201815065
:104060008093D2018091CE0182FD04C08091CF0166
:1040700082FF22C01092CE011936F1F48091B40073
:104080008F5F8093B4008091B400813110F0109262
:10409000B4008091D2018F5F8093D20189E60E94A3
:1040A000F91D8091D20181508093D2016091B400BA
:1040B00083E090E00E94BF370E942036882309F4F5
:1040C000B5CF1F9108958F929F92AF92BF92CF92DA
:1040D000EF920F931F93DF93CF9300D0CDB7DEB74E
:1040E00083E00E94C61E082F80910D038983809172
:1040F00018038A831091070382E0882E912C8C0E7E
:104100009D1E5E010894A11CB11C88C08091CE0147
:1041100081FF46C01092CE018091D2018F5F8093C3
:10412000D201053031F4E0911103F0E0E857FE4F81
:1041300007C00B3039F4E0911103F0E0E657FE4F71
:10414000008120C00C3031F4E0911103F0E0E4571D
:10415000FE4FF6CF109307038A818093180389815D
:1041600080930D038091190360910E034091030326
:1041700000910D03E0901803C090070320E00E9417
:10418000F32B05E0802F0E94761E8A816981412FE2
:10419000202F0E94AA1D8091D20181508093D201CC
:1041A0008091CE0182FD04C08091CF0182FF36C094
:1041B0001092CE018091D2018F5F8093D2010B309B
:1041C00021F48A818F5F8A8310C00C3021F48981A9
:1041D0008F5F89830AC00D3041F4812F90E00196F2
:1041E00064E670E00E945E37182FC401B501412FCC
:1041F00050E00E94E7358A816981412F202F0E947B
:10420000AA1D8091D20181508093D2018091CF016B
:1042100082FF04C088EC90E00E9464320E94203645
:10422000882309F473CF0F900F90CF91DF911F91E6
:104230000F91EF90CF90BF90AF909F908F90089587
:104240001F9384E00E94C61E182F64C08091CE0187
:1042500081FF1BC01092CE018091D2018F5F8093AD
:10426000D201183039F481E00E94EE1C0E94AB3676
:1042700018E606C080E00E94EE1C0E94BD3618E0E1
:104280008091D20181508093D2018091CE0182FD34
:1042900004C08091CF0182FF3DC01092CE0118363C
:1042A000C9F580910603882359F0809111038F5F2F
:1042B0008093110380911103823010F0109211034A
:1042C0008091060390E0882309F491E0909306031F
:1042D0008091D2018F5F8093D2010E94901E0E9434
:1042E000AB3680E063E247E00E94CC3081E00E9480
:1042F000EE1C8091D20181508093D2016091110314
:1043000084E090E00E94BF376091060385E090E072
:104310000E94BF370E942036882309F497CF1F914F
:1043200008950F931F9387E090E00E94B737809322
:104330000B0380E00E94C61E182F02ED5AC0809128
:10434000CE0181FF29C01092CE018091D2018F5FF2
:104350008093D201183C61F481E00E94AE1C0E945F
:10436000AB368091D20181508093D20119EC14C0F8
:1043700080E00E94AE1C0E94BD361092170310927E
:10438000140380910B03893DC8F560910B0387E00E
:1043900090E00E94BF3732C08091CE0182FD04C000
:1043A0008091CF0182FF25C01092CE01193C09F502
:1043B00080910B038F5F80930B0380910B038B3DE8
:1043C00010F000930B038091D2018F5F8093D20194
:1043D0000E94901E0E94AB3680E063E047E00E949E
:1043E000CC3081E00E94AE1C8091D201815080933C
:1043F000D2010E942036882309F4A1CF1F910F918A
:10440000089580910B03843D61F0853D28F4823D41
:1044100059F0833DA1F40BC0853D61F0863D79F4F0
:104420000CC00E94F50E08950E94630808950E9432
:10443000321308950E94641908950E94FC1408958F
:1044400090910B03943D61F0953D28F4923D59F015
:10445000933DA9F40BC0953D61F0963D81F40CC0ED
:104460000E945F1208950E948C0908950E94C9134A
:1044700008950E94401B089590E00E94B11608958F
:104480001F931FE080910B03863D19F1873D60F477
:10449000833DC9F0843D18F4823D91F511C0843DFF
:1044A00061F0853D69F512C0883DB1F0883DB0F0FE
:1044B000893D09F18A3D21F521C00E94D81220C012
:1044C0000E94A8091DC00E94D3131AC00E94B21BEB
:1044D00017C00E94C61614C0109317030E940D3512
:1044E00080E00E946B3565E070E00E944A378E5292
:1044F00080930B03C7CF0E94B00702C00E944B07F6
:104500001F9108951F93182F80911703882381F11D
:1045100080911E02813021F080911F02813041F58F
:1045200080911E02882319F082E080931E02809100
:104530001F02882319F082E080931F0280911703E5
:1045400081508093170380911703882389F48FE0AB
:104550008093170380910B038F5F80930B038091EF
:104560000B03873D19F482ED80930B030E944022D8
:1045700080910B03843D61F0853D28F4823D61F01C
:10458000833DD1F40DC0853D79F0863DA9F410C07E
:10459000812F0E944A0D10C0812F0E9474090CC007
:1045A000812F0E942C1408C0812F0E94741904C00E
:1045B000812F90E00E9449161F91089508958B5C09
:1045C0009F4F0E94B7370895FF920F931F93CF9389
:1045D000DF93482FF62E30E020E007C08E5B9D4F22
:1045E000FC0184918F5F280F3F5F822F90E034178A
:1045F000A8F3FC01EE5BFD4F0491EC01CD5BDD4FB8
:1046000010E00AC0FE018491F1E0FF1609F48095E4
:104610000E94CA291F5F21961017A0F3DF91CF9146
:104620001F910F91FF900895DF92EF92FF920F93E9
:104630001F93CF93DF93D62E95E0899FC00111245D
:10464000EC01CB56D0408E012AE9E22E2FEFF22E5C
:10465000E80EF91EDD2029F0CE010E94B7378095C3
:1046600003C0C8010E94B7370E94CA2921960F5F74
:104670001F4FCE15DF0571F7DD2011F08FEF01C060
:1046800080E00E94CA2980E00E94162ADF91CF9123
:104690001F910F91FF90EF90DF9008950F931F935C
:1046A000CF93DF93EC01062F10E004C0602F0E942F
:1046B00014231F5FFE01E10FF11D84918823B1F7E0
:1046C000DF91CF911F910F9108951F93CF93DF93A7
:1046D000EC01162F04C0612F0E94142321968881BB
:1046E0008823C9F7DF91CF911F9108952F923F92B0
:1046F0004F925F926F927F928F929F92AF92BF92F2
:10470000CF92DF92EF92FF920F931F93CF93DF939D
:10471000282E162F342EF22E402EC62FD0E0C77032
:10472000D070209709F45BC0562E56945694569438
:10473000EE2467E0C62EC1228C2C992487FC90942D
:104740005E01A20EB11C51E0652E712C35C0DE2C2D
:10475000D20C8D2D652D0E94232A0E947D290E9456
:104760007D29082F40E050E015C081E0481641F453
:10477000C30102C0880F991F2A95E2F7082B08C0D1
:10478000C30102C0880F991F2A95E2F7809508237C
:104790004F5F5F4F9A01280D391D2A153B0524F400
:1047A0008C2D840F883009F78D2D652D0E94232ACA
:1047B000802F0E94CA29E394E31448F22F2D30E0A1
:1047C00088E090E08C1B9D0B8217930714F0FF2468
:1047D00004C0812F87708850F80E187F185FE12E73
:1047E000E694E694E694C12FD0E0CF0DD11D43E0CE
:1047F000D595C7954A95E1F712C0822D6E2D0E947E
:10480000232A10E009C081E0481611F48FEF01C09F
:1048100080E00E94CA291F5F1315A8F3E3948E2D30
:1048200090E08C179D074CF32F2D2770C9F100E005
:10483000C22FD0E031E0A32EB12C30C0F02EF20C0C
:104840008F2D6E2D0E94232A0E947D290E947D2992
:10485000182F20E030E017C081E0481649F4C50168
:10486000022E02C0880F991F0A94E2F7182B09C084
:10487000C501022E02C0880F991F0A94E2F78095A5
:1048800018232F5F3F4F2C173D0734F38F2D6E2DCC
:104890000E94232A812F0E94CA290F5F031570F2FC
:1048A00080E00E94162ADF91CF911F910F91FF9017
:1048B000EF90DF90CF90BF90AF909F908F907F90C0
:1048C0006F905F904F903F902F9008952F923F925E
:1048D0004F925F926F927F928F929F92AF92BF9210
:1048E000CF92DF92EF92FF920F931F93DF93CF93BC
:1048F00000D00F92CDB7DEB7382E462E522E262E80
:10490000281AA42EBB24C501880F991F22273327FC
:10491000281B390B2D5F3F4F3B832A838824992422
:1049200066247724362F32193983182DD42CDA18BF
:104930007501EE0CFF1C882D830D6D2D41E02E2D91
:10494000052D0E947623832D88196D2D41E02E2D93
:104950000E947623F42CF818110F89818A0D6F2D8F
:1049600041E0212F0E9476238D2D82196F2D41E089
:10497000212F0E9476238A819B8197FF06C006968D
:10498000860D971D9B838A8311C0EA81FB813A962D
:10499000C4018A199B09880F991F880F991FE80F76
:1049A000F91FFB83EA830894A108B1080894811CCD
:1049B000911C24E030E0620E731EA814B9040CF0C0
:1049C000B4CF0F900F900F90CF91DF911F910F9167
:1049D000FF90EF90DF90CF90BF90AF909F908F901F
:1049E0007F906F905F904F903F902F900895DF924F
:1049F000EF92FF920F931F93F82E162FD42EE22ED4
:104A000041E001E00E9476238F2D81508D0D612FB2
:104A100041E02E2D0E9476238F2D612F4D2D21E018
:104A20000E94762311501E0D8F2D612F4D2D21E0F8
:104A30000E9476231F910F91FF90EF90DF900895D1
:104A4000EF92FF920F931F93F82E162F062F0695C5
:104A500006950695602F0E94232A0E947D290E94B8
:104A60007D29E82E8F2D602F0E94232A177081E068
:104A700090E002C0880F991F1A95E2F780958E2169
:104A80000E94CA2980E00E94162A1F910F91FF9070
:104A9000EF900895EF92FF920F931F93F82E162F29
:104AA000062F069506950695602F0E94232A0E94E0
:104AB0007D290E947D29E82E8F2D602F0E94232AB8
:104AC000177081E090E002C0880F991F1A95E2F7F5
:104AD0008E290E94CA2980E00E94162A1F910F91F8
:104AE000FF90EF9008953F924F925F926F927F9266
:104AF0008F929F92AF92BF92CF92DF92EF92FF92EE
:104B00000F931F93CF93DF93D82EC62E322E462EAF
:104B1000481AE42EFF24C701880F991FCC27DD27F0
:104B2000C81BD90B23965D2C662E762EAA24BB2497
:104B30008824992481E0381641F50E2D0C0D8D2D19
:104B4000602F0E944A259C2D9E19192F8D2D692FAB
:104B50000E944A25852D602F0E944A25852D612FB0
:104B60000E944A250419802F662D0E944A25802F15
:104B7000672D0E944A251419812F662D0E944A250F
:104B8000812F672D0E944A2527C00E2D0C0D8D2DDB
:104B9000602F0E9420258C2D8E19182F8D2D612FAE
:104BA0000E942025852D602F0E942025852D612FB4
:104BB0000E9420250419802F662D0E942025802F19
:104BC000672D0E9420251419812F662D0E94202513
:104BD000812F672D0E942025D7FF04C02696C80D7F
:104BE000D91D0DC02A96C5018E199F09880F991FDE
:104BF000880F991FC80FD91F0894E108F10808947D
:104C0000A11CB11C84E090E0880E991ED3945A94A4
:104C100063947A94EA14FB040CF08CCFDF91CF916B
:104C20001F910F91FF90EF90DF90CF90BF90AF90CA
:104C30009F908F907F906F905F904F903F900895DE
:104C4000459A449A10921A021092190210921C026C
:104C500010921B0280E28093B800ECEBF0E08081C0
:104C6000846080831092D301808181608083808101
:104C7000806480837894089580E28093B8000895DA
:104C800090E0611191E08E7F982B9093BA00089587
:104C900090931A0280931902089590931C028093B6
:104CA0001B020895ECEBF0E080818F70806A8083B6
:104CB0000895ECEBF0E080818F70806D8083089523
:104CC0008091BC0087FFFCCF08958093BB00ECEB84
:104CD000F0E080818F70806880830895882329F0B8
:104CE0008091BC008F70806C04C08091BC008F707C
:104CF00080688093BC0008958091BB0008958091E6
:104D0000B9000895982F8091D3018823E1F782E0BC
:104D10008093D3019E7F9093D401A5EDB1E0FA0179
:104D200002C081918D938E2F841B8617D0F3109231
:104D3000F5016093F6018091BC008F70806A8093CA
:104D4000BC000895982F8091D3018823E1F783E078
:104D50008093D30191609093D401109217026093D5
:104D600018028091BC008F70806A8093BC00809193
:104D7000D3018823E1F7A7EFB1E0FA0102C08D91DA
:104D800081938E2F841B8617D0F30895982FFA01F4
:104D90008091BC008E7F8093BC008091BC008F709E
:104DA000806A8093BC008091BC0087FFFCCF9E7F0F
:104DB0009093BB008091BC008F7080688093BC0092
:104DC0008091BC0087FFFCCF8091B900883189F0C9
:104DD00091E012C080818093BB008091BC008F70F5
:104DE00080688093BC008091BC0087FFFCCF319627
:104DF0006150662379F790E08091BC008F70806DE0
:104E00008093BC008091BC0084FFFCCF8091BC00EB
:104E100081608093BC00892F08951F93CF93DF9307
:104E2000982F162FEA018091BC008E7F8093BC00E2
:104E30008091BC008F70806A8093BC008091BC0020
:104E400087FFFCCF91609093BB008091BC008F7076
:104E500080688093BC008091BC0087FFFCCF80916C
:104E6000B900803469F091E018C08FEF0E946E267F
:104E70008091BC0087FFFCCF8091BB0089931150CB
:104E8000123098F780E00E946E268091BC0087FF68
:104E9000FCCF8091BB00888390E08091BC008F7034
:104EA000806D8093BC008091BC0081608093BC00C9
:104EB000892FDF91CF911F9108958091D30108959B
:104EC0001F920F920FB60F9211242F933F934F937F
:104ED0005F936F937F938F939F93AF93BF93EF9362
:104EE000FF938091B900887F883609F4CBC089365A
:104EF00088F5803309F495C08133B0F4803109F42A
:104F00005AC0813138F4882309F43EC1883009F051
:104F100048C151C0803209F484C0883209F453C0BA
:104F2000883109F03EC14FC0883409F47AC0893411
:104F300038F4883309F478C0803409F032C192C063
:104F4000883509F45DC0803609F49CC0803509F0CD
:104F500028C174C0803A09F4BEC0813AB0F48038E8
:104F600009F49BC0813838F4803709F48BC0883746
:104F700009F017C187C0803909F48FC0883909F456
:104F8000A1C0883809F00DC19DC0883B09F4D1C08B
:104F9000893B38F4883A09F4B6C0803B09F001C176
:104FA000B2C0883C09F4E0C0883F09F4E7C0803C07
:104FB00009F0F7C0D9C082E094E060E00E94983226
:104FC0008091D40114C083EE93E060E00E94983297
:104FD0009091F5018091F601981708F0DAC0E92F59
:104FE000F0E0EB52FE4F80819F5F9093F50180933C
:104FF000BB008091BC008F7080688093BC00D1C0E2
:105000008EEC93E060E00E949832809117029091BC
:10501000BB00E82FF0E0E950FE4F90838F5F809354
:10502000170288EA93E0B2C084E993E060E00E944E
:1050300098328091BC008F708068AFC080E893E0A8
:1050400060E00E9498328091BB0090911702E92F96
:10505000F0E0E950FE4F80839F5F9093170290E04D
:105060000E94EF328DE693E060E00E94983220913A
:10507000170230E08091180290E001972817390755
:1050800034F51EC08AE593E060E00E94983285E026
:105090008093D3011092170262C086E493E060E02F
:1050A0000E949832809117029091BB00E82FF0E0A7
:1050B000E950FE4F90838F5F80931702803238F45F
:1050C0008FEF06C081E393E060E00E94983280E0B9
:1050D0000E946E2666C08EE193E060E00E949832E6
:1050E0008091BC008F70806C8093BC00E0911902AD
:1050F000F0911A02309709F452C08091170267EFBD
:1051000071E009954CC08BE093E060E00E9498321A
:1051100084E08093D301E0911B02F0911C02309750
:1051200031F080E265ED71E009958093F60110920F
:10513000F50187EF92E060E00E9498329091F501CE
:10514000E92FF0E0EB52FE4F80818093BB009F5F20
:105150009093F5018091F601981708F04ACF80915D
:10516000BC008F70806C49CF85ED92E060E00E94BA
:1051700098328091BC008F70806C0FC086EC92E0FA
:1051800060E00E9498320DC085EB92E060E00E94E2
:1051900098328091BC008F70806D8093BC0010921B
:1051A000D301FF91EF91BF91AF919F918F917F912B
:1051B0006F915F914F913F912F910F900FBE0F9084
:1051C0001F9018952F982D982C9840985A98279AA8
:1051D000259A249A389A529A8BB18F708BB985B1DF
:1051E000807F85B98AB1806F8AB984B18F6084B9B4
:1051F000089540985A98882319F0813021F402C00C
:10520000409A08955A9A0895F8940E94F9288BB10B
:10521000806F8BB985B18F6085B92F988AB18F70F7
:105220008AB984B1807F84B92D9A2C9A000000003D
:105230000AC02C9800000000000000002C9A00001A
:1052400000000000000089B193B187FDF2CF2C98D7
:105250002D988AB1806F8AB984B18F6084B97894AF
:1052600008951F93162FF8940E9404292F982D98C3
:105270002C9A8AB1806F8AB984B18F6084B98BB15E
:105280008F708BB99BB1812F807F892B8BB985B1B2
:10529000807F85B985B11F70812B85B90000000022
:1052A0000000000000000000000000002C9878942E
:1052B0001F910895F8940E9404292F988AB18F7045
:1052C0008AB984B1807F84B92D9A2C9A000000009D
:1052D00000000000000000000000000029B183B1C0
:1052E0002C982D989AB1906F9AB994B19F6094B907
:1052F00078948F70207F822B0895F8948091FD021E
:1053000082958695869583700E9404292F9A8AB18A
:105310008F708AB984B1807F84B92D9A2C9A00004D
:10532000000000000000000000000000000099B133
:1053300083B12C982D9878948F70907F892B089545
:1053400008958093FD0280E060E40E94312910926C
:10535000FF0281E060E40E943129109201038091F4
:10536000FD02682F6F7360648295869586958370C1
:105370000E94312908951F93182F8093FE02186B05
:1053800080E0612F0E94312981E0612F0E94312944
:105390001F9108950F931F93182F0091FD020295FE
:1053A000069506950370F894802F0E9404292F9A81
:1053B0002D982C9A8AB1806F8AB984B18F6084B994
:1053C0008BB18F708BB99BB1812F807F892B8BB96B
:1053D00085B1807F85B985B11F70812B85B90000AB
:1053E00000000000000000000000000000002C98F9
:1053F0007894E02FF0E0EE0FFF1FE150FD4F808129
:105400008F5F80838091FD028F5F8093FD0287FF15
:105410000AC08091FE028F5F8093FE020E94BB292A
:1054200080E00E94A1291F910F9108951F93182FCA
:10543000106C80E0612F0E94312981E0612F0E9471
:1054400031291F9108951F93182F862F0E94BB2981
:10545000812F0E94A1291F9108950F931F9300E0AF
:1054600080E0602F0E94232A10E080E00E94CA2979
:105470001F5F1038D1F70F5F083091F71F910F9120
:10548000089580E00E94162A80E060E00E94232AAE
:105490001092FF0210920003109201031092020377
:1054A00008950E94E22880E06FE30E94312981E0A4
:1054B0006FE30E9431290E942D2A0E94412A0895FB
:1054C000982F86E0689F802D1124692F0E94232A3F
:1054D000089508951F920F920FB60F9211242F93E3
:1054E0003F934F935F936F937F938F939F93AF936C
:1054F000BF93EF93FF934091C600E091A702F09114
:10550000A802CF01019660E870E00E945E379C011E
:105510008091A9029091AA022817390739F0E95D14
:10552000FD4F40833093A8022093A702FF91EF9193
:10553000BF91AF919F918F917F916F915F914F91AB
:105540003F912F910F900FBE0F901F901895809153
:10555000A7029091A80280589F4F2091A9023091F4
:10556000AA02821B930B60E870E00E945E370895E8
:105570004091A9025091AA028091A7029091A8029D
:105580008417950719F42FEF3FEF0FC0FA01E95D7B
:10559000FD4F2081CA01019660E870E00E945E37ED
:1055A0009093AA028093A90230E0C90108951F9246
:1055B0000F920FB60F9211248F939F9388B198E0AA
:1055C000892788B99F918F910F900FBE0F901F90E0
:1055D00018951F920F920FB60F9211248F939F93DD
:1055E0008091AD029091AE02892B49F08091AD027D
:1055F0009091AE0201979093AE028093AD0280919C
:10560000150390911603892B49F080911503909111
:10561000160301979093160380931503809113034B
:10562000882389F18091AB029091AC02892B59F5C6
:105630008091090390910A03892BE1F48CE291E0B7
:1056400090930A038093090380918100882379F461
:105650001092800089E08093810083E080936F0046
:1056600088EE93E0909389008093880003C01092A5
:10567000810043988091090390910A0301979093C8
:105680000A03809309039F918F910F900FBE0F9093
:105690001F9018951F920F920FB60F9211248F939F
:1056A0009F9388B198E0892788B99F918F910F9037
:1056B0000FBE0F901F9018951E9B16C0809110036F
:1056C000882349F11092100310921A031092AC0231
:1056D0001092AB02809113038823E9F01092130318
:1056E000109281004398089580911003882399F4C3
:1056F00081E0809310031092AC021092AB0283E021
:105700008093220280910B03853D11F083E001C05C
:1057100085E0809321020895FC0183709070892BAD
:1057200039F4CF0164E670E00E944A37892B49F4CE
:1057300020E030E0CF0160E971E00E944A37892B18
:1057400011F421E030E0822F08950895482F6AE097
:105750000E943E37282F30E084E0220F331F8A95C5
:10576000E1F7842F0E943E37892F822B089588E528
:1057700092E09093AC028093AB0210928100439828
:10578000109214030895FC018181805120819AE0D8
:10579000299F90011124820F0895FF920F931F9368
:1057A000F62E1092800001E810E029E0F801208335
:1057B00023E020936F009C0140E050E060E079E03E
:1057C0008DE390E00E949337309389002093880006
:1057D0008F2D90E00E946432F801108243981F914F
:1057E0000F91FF900895CF92DF92EF92FF920F9367
:1057F0001F93DF93CF93CDB7DEB728970FB6F894FA
:10580000DEBF0FBECDBF162FF42ED22EFE01319675
:1058100098E0DF011D929A95E9F719820E94A62B64
:105820008A83812F0E94A62B8B838F2D0E94A62B0B
:105830008C838D2D0E94A62B8D83802F0E94A62BFA
:105840008E838E2D0E94A62B8F838C2D0E94A62BDB
:105850008887F89480ED68E0AE014F5F5F4F0E944B
:10586000C6267894882399F080EA9FE064E60E9437
:10587000CD2B84E690E00E94643280EA9FE064E6EB
:105880000E94CD2B88EE93E00E946432EDCF2896E3
:105890000FB6F894DEBF0FBECDBFCF91DF911F9141
:1058A0000F91FF90EF90DF90CF9008956F927F92CD
:1058B0008F929F92AF92BF92CF92DF92EF92FF9220
:1058C0000F931F93DF93CF93CDB7DEB72C970FB60F
:1058D000F894DEBF0FBECDBFA82E88E090E00E94F6
:1058E000B7378093240280912402992787FD9095F1
:1058F00097FF03C0909581959F4F959587959595B6
:1059000087958093250280912402992787FD9095A1
:1059100097FF03C0909581959F4F837090709C0175
:1059200044E0220F331F4A95E1F7281B390B2093DF
:1059300026028091240287FF0AC08091250281956A
:105940008093250280912602819580932602DE01B4
:105950001196E5E9F1E08CE001900D928150E1F7BC
:10596000A8C10E94B82A282F8052803608F0ABC107
:10597000243229F49092BE021092BD02A4C18091FB
:10598000BE02882309F49FC19091BD022C3251F4CC
:105990008F5F8093BE02992311F41092B20210928D
:1059A000BD020FC09A3068F4E92FF0E0EE54FD4FCD
:1059B0002083E92FEF5FE093BD02F0E0EE54FD4F4E
:1059C00010828091BE02823091F482EB92E06EE808
:1059D00071E00E94AE37009739F47092BE021092C7
:1059E000BD021092B2026FC11092BE026CC184302F
:1059F00009F0BCC06092BE02AA2061F01092B80209
:105A000084E465E00E94232A82EB92E060E00E9439
:105A1000652359C1F8942091B70220518091B602B4
:105A20008B9DC0011124280F209319032091B502EA
:105A300020518091B4028B9DC0011124280F209326
:105A40000E032091B30220518091B2028B9DC001C0
:105A50001124280F209303031092B1028091260293
:105A600087FF20C08091260290910E03282F3327B4
:105A700027FD309537FF03C0309521953F4F892F83
:105A800090E08217930774F48091250281508093EF
:105A9000250280910E0390912602845C890F8093E9
:105AA0000E0315C080910E0390912602980F9093DB
:105AB0000E0380910E038D3350F080910E038C53B2
:105AC00080930E03809125028F5F80932502809141
:105AD000250287FF1DC08091250290910303282F86
