:100000000C9402060C941F060C941F060C94761395
:100010000C941F060C941F060C941F060C941F06CC
:100020000C941F060C9418090C941F060C9494064B
:100030000C941F060C9421060C9433060C941F0696
:100040000C941F060C941F060C941F060C941F069C
:100050000C941F060C94CE120C941F060C941F06D1
:100060000C94382F0C941F0605A84CCDB2D44EB971
:100070003836A9020C50B9918688083CA6AAAA2A4B
:10008000BE000000803F000302030364726177003A
:10009000796561722100646174652100646F6E6529
:1000A00020696E6974004932433A204255535F45D6
:1000B00052524F520D0A004932433A204E4F5F4987
:1000C0004E464F0D0A004932433A2053542D3E44C8
:1000D0004154415F4E41434B206F72204C41535479
:1000E0005F444154410D0A004932433A2053542D94
:1000F0003E444154415F41434B0D0A004932433A6B
:100100002053542D3E534C415F41434B0D0A00494F
:1001100032433A2053522D3E53525F53544F500DA9
:100120000A004932433A2053522D3E444154415F24
:100130004E41434B0D0A004932433A2053522D3E63
:10014000444154415F41434B0D0A004932433A2038
:1001500053522D3E534C415F41434B0D0A004932EF
:10016000433A204D522D3E534C415F41434B0D0AC3
:10017000004932433A204D522D3E444154415F41A3
:10018000434B0D0A004932433A204D542D3E415213
:10019000425F4C4F53540D0A004932433A204D54AC
:1001A000522D3E534C415F4E41434B206F72204DC8
:1001B000542D3E444154415F4E41434B0D0A00498A
:1001C00032433A204D522D3E444154415F4E41430B
:1001D0004B0D0A004932433A204D542D3E534C41B9
:1001E0005F41434B206F7220444154415F41434B78
:1001F0000D0A004932433A204D2D3E53544152548A
:100200000D0A000C0FFFFF0A11FFFF0912FFFF0884
:100210000B1013070B1014060A1115060A11150509
:100220000A1116050A1116040A11170409121703F8
:1002300009121803091218030912180209121802E8
:1002400009121902091219020912190209121901D7
:1002500009121A0109121A0109121A0109121A01C6
:1002600009121A0109121A0109121A0109121A01B6
:1002700009121A0109121A0009121B0009121B00A7
:1002800009121B0009121B0009121B0009121B0096
:1002900009121B0109121A0109121A0109121A0185
:1002A00009121A0109121A0109121A0109121A0176
:1002B00009121A0109121A02091219020912190265
:1002C0000912190209121902091218030912180356
:1002D0000912180309121804091217040A11170544
:1002E0000A1116050A1116060A1115060A11150734
:1002F0000B1014080B10130912FFFF0A11FFFF0C5B
:100300000FFFFF1111FFFF0F11FFFF0E11FFFF0C79
:1003100011FFFF0B11FFFF0911FFFF0811FFFF067F
:1003200011FFFF0511FFFF0311FFFF020508110276
:100330000309110911FFFF0911FFFF0911FFFF0A4E
:1003400011FFFF0A11FFFF0A11FFFF0A11FFFF0A49
:1003500011FFFF0A11FFFF0A11FFFF0A11FFFF0A39
:1003600011FFFF0A11FFFF0A11FFFF0A11FFFF0A29
:1003700011FFFF0A11FFFF0A11FFFF0A11FFFF0A19
:1003800011FFFF0A11FFFF0A11FFFF0A11FFFF0A09
:1003900011FFFF0A11FFFF0A11FFFF0A11FFFF0AF9
:1003A00011FFFF0A11FFFF0A11FFFF0A11FFFF0AE9
:1003B00011FFFF0A11FFFF0A11FFFF0A11FFFF0AD9
:1003C00011FFFF0A11FFFF0A11FFFF0A11FFFF0AC9
:1003D00011FFFF0A11FFFF0A11FFFF0A11FFFF09BA
:1003E00012FFFF0912FFFF0912FFFF0912FFFF08AA
:1003F00012FFFF0713FFFF0416FFFF0218FFFF02A3
:1004000018FFFF0C10FFFF0A12FFFF0913FFFF0880
:1004100014FFFF0715FFFF0616FFFF0616FFFF0577
:1004200017FFFF0517FFFF0417FFFF0418FFFF0367
:10043000060D1803050E1803040F1802040F180206
:1004400003101802031018010211180102111811EB
:1004500018FFFF1118FFFF1118FFFF1118FFFF1100
:1004600018FFFF1118FFFF1117FFFF1117FFFF11F2
:1004700017FFFF1116FFFF1016FFFF1015FFFF10EB
:1004800015FFFF0F14FFFF0F14FFFF0F13FFFF0EE9
:1004900013FFFF0E12FFFF0E11FFFF0D11FFFF0DE7
:1004A00010FFFF0C0FFFFF0C0FFFFF0B0EFFFF0BEA
:1004B0000DFFFF0A0D1B1B0A0C1B1B090B1A1B0946
:1004C0000B1A1B080A191B0709191A0708181A061C
:1004D00008141A061AFFFF051AFFFF051AFFFF048A
:1004E00019FFFF0319FFFF0319FFFF0219FFFF02A6
:1004F00019FFFF0119FFFF0019FFFF0018FFFF00A0
:1005000018FFFF0C11FFFF0A14FFFF0915FFFF087A
:1005100016FFFF0716FFFF0617FFFF0517FFFF0473
:10052000080B1804060D1803050E1803040F180213
:1005300004101802031018020310180202101810F9
:1005400018FFFF1018FFFF1018FFFF1017FFFF1014
:1005500017FFFF1016FFFF1016FFFF0F15FFFF0F0D
:1005600014FFFF0E14FFFF0D15FFFF0C16FFFF0B0E
:1005700017FFFF0918FFFF0918FFFF0919FFFF0BFD
:1005800019FFFF0C19FFFF0E1AFFFF0F1AFFFF10D4
:100590001AFFFF111AFFFF121AFFFF121AFFFF13B3
:1005A0001AFFFF131AFFFF141AFFFF141AFFFF149C
:1005B0001AFFFF141AFFFF141AFFFF151AFFFF1589
:1005C0001AFFFF1519FFFF1519FFFF1519FFFF028D
:1005D000061518010714180108141800091417004B
:1005E000091416000A1316010B1215010C1114013F
:1005F00013FFFF0212FFFF0311FFFF040FFFFF06AF
:100600000CFFFF1317FFFF1217FFFF1217FFFF1159
:1006100017FFFF1117FFFF1017FFFF1017FFFF0F46
:1006200017FFFF0F17FFFF0E17FFFF0E17FFFF0D3E
:1006300017FFFF0D17FFFF0C17FFFF0C17FFFF0B36
:100640000D0F170B0D0F170A0C0F170A0C0F1709B8
:100650000B0F17090B0F17080A0F17080A0F1707B8
:10066000090F1707090F1706080F1706080F1705B8
:10067000070F1705070F1704060F1704060F1703B8
:10068000050F1703050F1702040F1702040F1701B8
:10069000030F1701030F1700020F1700020F1700B7
:1006A000020F17001BFFFF001BFFFF001BFFFF00D7
:1006B0001BFFFF001BFFFF001BFFFF001BFFFF00D6
:1006C0001BFFFF001BFFFF001BFFFF001BFFFF0FB7
:1006D00017FFFF0F17FFFF0F17FFFF0F17FFFF0F8A
:1006E00017FFFF0F17FFFF0F17FFFF0F17FFFF0F7A
:1006F00017FFFF0F17FFFF0F17FFFF0F17FFFF0F6A
:1007000017FFFF081BFFFF081AFFFF081AFFFF086B
:100710001AFFFF071AFFFF0719FFFF0719FFFF075F
:1007200019FFFF0719FFFF0618FFFF0618FFFF0656
:1007300018FFFF0607FFFF0607FFFF0607FFFF057D
:1007400007FFFF0506FFFF0506FFFF0506FFFF0584
:1007500006FFFF040CFFFF040FFFFF0411FFFF045F
:1007600012FFFF0414FFFF0414FFFF0315FFFF0334
:1007700016FFFF0316FFFF0317FFFF0317FFFF021C
:1007800018FFFF0218FFFF0A18FFFF0C19FFFF0EEA
:1007900019FFFF1019FFFF1119FFFF1219FFFF13B7
:1007A00019FFFF1319FFFF1419FFFF1419FFFF159D
:1007B00019FFFF1519FFFF1519FFFF1619FFFF1687
:1007C00019FFFF1619FFFF1618FFFF030516180281
:1007D0000615180108151701091517000914170047
:1007E0000A1416000B1315000D12150114FFFF015A
:1007F00013FFFF0212FFFF0311FFFF040FFFFF06AD
:100800000CFFFF181AFFFF151AFFFF131AFFFF1145
:1008100017FFFF1016FFFF0E14FFFF0D13FFFF0C55
:1008200012FFFF0B11FFFF0A10FFFF0910FFFF0867
:100830000FFFFF080EFFFF070EFFFF060DFFFF066D
:100840000DFFFF050DFFFF050CFFFF040CFFFF046C
:100850000CFFFF040BFFFF030BFFFF030BFFFF0366
:100860000BFFFF020A0D110214FFFF0215FFFF022A
:1008700016FFFF010B0E17010A1018010A101801CC
:1008800009111901091119010911190109121A0196
:1008900009121A0109121A0109121A0109121A0180
:1008A00009121B0109121B0109121B0109121B016C
:1008B00009121B0109121B0109121B0109121A015D
:1008C00009121A0209121A0209121A0209121A024C
:1008D000091219030A1219030A1219030A12180439
:1008E0000A1218040A1218050A1217050B12170625
:1008F0000B1116070C11150814FFFF0A13FFFF0C4C
:1009000010FFFF031BFFFF031BFFFF021AFFFF0285
:100910001AFFFF021AFFFF021AFFFF0219FFFF0270
:1009200019FFFF0219FFFF0219FFFF0118FFFF0166
:1009300018FFFF0118FFFF01041418010314180128
:1009400002131700021317000113170001131700F9
:10095000011216000112161216FFFF1216FFFF11E8
:1009600016FFFF1115FFFF1115FFFF1115FFFF11F6
:1009700015FFFF1014FFFF1014FFFF1014FFFF10EE
:1009800014FFFF0F14FFFF0F13FFFF0F13FFFF0FE5
:1009900013FFFF0E13FFFF0E12FFFF0E12FFFF0EDD
:1009A00012FFFF0D12FFFF0D12FFFF0D11FFFF0DD4
:1009B00011FFFF0C11FFFF0C11FFFF0C10FFFF0CCC
:1009C00010FFFF0C10FFFF0B10FFFF0B10FFFF0BC2
:1009D0000FFFFF0B0FFFFF0A0FFFFF0A0FFFFF0ABA
:1009E0000EFFFF0A0EFFFF090EFFFF090EFFFF09B2
:1009F0000EFFFF090DFFFF080DFFFF080DFFFF08A9
:100A00000DFFFF0B11FFFF0814FFFF0715FFFF0687
:100A10000B1016050A1117040912180409121803FD
:100A200008131803081319020813190208131902EE
:100A300008131902081319010813190109131901E0
:100A4000091319010A1319010A1319010B131902C9
:100A50000B1318020C1218020D1217020E121603B5
:100A60000F11150314FFFF0312FFFF0412FFFF0510
:100A700013FFFF0514FFFF0615FFFF0716FFFF0812
:100A800016FFFF0917FFFF0917FFFF0718FFFF06F3
:100A90000A0C1805090D1904090E1903080E19038B
:100AA000080F1A0208101A0208111A0107111A0178
:100AB00007121A0107121A0107121A0107131A0165
:100AC00007131A0107131A0107131A0107131A0152
:100AD00007131A0107131901071319010813190243
:100AE0000813180208121803081217030911170433
:100AF0000A1116050B10150614FFFF0812FFFF0A56
:100B00000FFFFF0B10FFFF0812FFFF0713FFFF0689
:100B10000B0F14050A1015050A1116040911160405
:100B200009111703091117030911180209121802F4
:100B300009121902091219010912190109121901E0
:100B400009121A0109121A0109121A0109121A01CD
:100B500009121A0109121A0109121A0109121A01BD
:100B600009121A0109121A0109121A0109121A01AD
:100B700009121A010A121A020A121A020A121A0297
:100B80000A121A030A121A030B121A040C111A047D
:100B90001AFFFF051AFFFF0619FFFF070F11190AB9
:100BA0000C11191019FFFF1018FFFF1018FFFF108C
:100BB00018FFFF0F17FFFF0F17FFFF0F16FFFF0EA6
:100BC00016FFFF0E15FFFF0E15FFFF0D14FFFF0DA3
:100BD00013FFFF0C13FFFF0B12FFFF0B11FFFF0AA8
:100BE00010FFFF090FFFFF080EFFFF070DFFFF05B6
:100BF0000BFFFF040AFFFF0108FFFF0105FFFF01D4
:100C000002FFFF0011241FBECFEFD8E0DEBFCDBF33
:100C100013E0A0E0B1E0E8EBF4E702C005900D922C
:100C2000A437B107D9F714E0A4E7B3E001C01D92DF
:100C3000AA34B107E1F70E94560A0C945A3A0C9470
:100C400000001F920F920FB60F9211248F939F9363
:100C500088B198E0892788B99F918F910F900FBE36
:100C60000F901F9018951F920F920FB60F9211249C
:100C70008F939F9380917C0390917D03892B49F002
:100C800080917C0390917D03019790937D038093E5
:100C90007C0380910B0490910C04892B49F0809186
:100CA0000B0490910C04019790930C0480930B0417
:100CB00080910904882389F180917A0390917B03C4
:100CC000892B59F58091FF0390910004892BE1F461
:100CD0008CE291E0909300048093FF038091810067
:100CE000882379F41092800089E08093810083E06A
:100CF00080936F0088EE93E0909389008093880042
:100D000003C01092810043988091FF0390910004EA
:100D10000197909300048093FF039F918F910F9010
:100D20000FBE0F901F9018951F920F920FB60F9243
:100D300011248F939F9388B198E0892788B99F9158
:100D40008F910F900FBE0F901F901895AF92BF928A
:100D5000CF92DF92EF92FF920F931F93E62E1092A5
:100D6000800029E02093810023E020936F009C0104
:100D700040E050E060E079E08DE390E00E945A3876
:100D80003093890020938800FF2400E010E0C80120
:100D9000B7010E9478355B016C0120E030E04AEF3A
:100DA00054E40E9490327B018C0120E030E040E866
:100DB0005FE30E94963488231CF461E070E024C055
:100DC000C801B70120E03FEF4FE757E40E943634F7
:100DD0001816B4F4C601B50120E030E040E251E459
:100DE0000E9490320E94BA3088EC90E005C0FC016D
:100DF0003197F1F76150704061157105C1F707C077
:100E0000C801B7010E94BA30CB010197F1F71092E7
:100E1000810043981F910F91FF90EF90DF90CF904A
:100E2000BF90AF9008951E9B16C080910604882342
:100E300049F11092060410920F0410927B03109255
:100E40007A03809109048823E9F010920904109232
:100E500081004398089580910604882399F481E0E5
:100E60008093060410927B0310927A0383E08093B0
:100E7000790380910104853D11F083E001C085E094
:100E8000809378030895FC0183709070892B39F466
:100E9000CF0164E670E00E941138892B49F420E00C
:100EA00030E0CF0160E971E00E941138892B11F424
:100EB00021E030E0822F08950895482F6AE00E94D3
:100EC0000538282F30E084E0220F331F8A95E1F7A0
:100ED000842F0E940538892F822B089588E592E09F
:100EE00090937B0380937A03109281004398109231
:100EF0000A040895CF92DF92EF92FF920F931F930F
:100F0000DF93CF93CDB7DEB728970FB6F894DEBF47
:100F10000FBECDBF162FF42ED22EFE01319698E0D3
:100F2000DF011D929A95E9F719820E945D078A8375
:100F3000812F0E945D078B838F2D0E945D078C831C
:100F40008D2D0E945D078D83802F0E945D078E830B
:100F50008E2D0E945D078F838C2D0E945D078887F0
:100F6000F89480ED68E0AE014F5F5F4F0E949E2EC7
:100F700078948823D9F008EC10E080EA9FE064E6DA
:100F80000E94A60688EE93E0F8013197F1F70197E9
:100F9000D9F780EA9FE064E60E94A60680E197E226
:100FA000F8013197F1F70197D9F7E7CF28960FB6F7
:100FB000F894DEBF0FBECDBFCF91DF911F910F918F
:100FC000FF90EF90DF90CF9008950F931F93DF93E2
:100FD000CF93CDB7DEB729970FB6F894DEBF0FBE1B
:100FE000CDBF1982F89480ED61E0AE014F5F5F4F95
:100FF0000E949E2E8823D9F008EC10E080EA9FE042
:1010000064E60E94A60688EE93E0F8013197F1F7B6
:101010000197D9F780EA9FE064E60E94A60680E186
:1010200097E2F8013197F1F70197D9F7E7CF80ED13
:1010300067E0AE014E5F5F4F0E94E52E78948823F3
:10104000D9F008EC10E080EA9FE064E60E94A60672
:1010500088EE93E0F8013197F1F70197D9F780EA2C
:101060009FE064E60E94A60680E197E2F8013197CE
:10107000F1F70197D9F7E7CF7A81872F82958F70A3
:1010800090E0877090709C01A3E0220F331FAA9517
:10109000E1F7880F991F280F391F872F8F70820F54
:1010A00080930E044B81842F82958F7090E087701F
:1010B00090709C01E3E0220F331FEA95E1F7880F5F
:1010C000991F280F391F4F70420F409304048C81E1
:1010D000482F42954F70682F6F7086FF22C082950F
:1010E0008695877090E0817090709C01220F331F6D
:1010F000280F391F220F331F220F331F842F90E038
:1011000081709070AC0103E0440F551F0A95E1F720
:10111000880F991F480F591F240F260F2093F9039A
:1011200011C0842F90E0837090709C01B3E0220F77
:10113000331FBA95E1F7880F991F280F391F620FE7
:101140006093F9034E81842F82958F7090E08370B5
:1011500090709C01F3E0220F331FFA95E1F7880F9E
:10116000991F280F391F4F70420F409303044F817E
:10117000842F82958F7090E0817090709C0163E065
:10118000220F331F6A95E1F7880F991F280F391F27
:101190004F70420F40930D042885822F82958F70E7
:1011A0003AE0839FC00111242F70280F2093FD0384
:1011B000872F807829960FB6F894DEBF0FBECDBF7B
:1011C000CF91DF911F910F910895CF92EF920F93DE
:1011D0000E94F82D0E94E507882359F080E060E026
:1011E0004CE020E001E0EE24E394B9E0CB2E0E9435
:1011F0007A070E94E50781E090E00E9410396CE3D5
:101200000E9405389093FE0380E090E00E94103920
:1012100068E10E9405389093080487E08093B1004C
:1012200081E08093700078940F91EF90CF900895B3
:101230001F920F920FB60F921124FF920F931F93DC
:101240002F933F934F935F936F937F938F939F93CE
:10125000AF93BF93EF93FF93A89580917E03803562
:1012600079F410927E0310910E0400910404F09022
:10127000F9030E94E5078091F9038F1529F40AC04C
:101280008F5F80937E03BFC081E080937603F092EE
:10129000050407C080910404801731F081E0809339
:1012A00075030093FB0309C080910E04811729F098
:1012B00081E0809377031093100480910E048117CE
:1012C00009F43FC080910904882359F080917A0382
:1012D00090917B03009729F0019790937B03809373
:1012E0007A0380917803882361F18091780381509B
:1012F0008093780380917803882319F5809179038E
:101300008093FA031092790380917603882329F061
:10131000809105048093F90304C0809175038823AC
:1013200021F08091FB03809304048091760388234D
:1013300021F480917503882321F0F092F903009342
:10134000040480910A04843061F080910A0485309D
:1013500041F080910A04883021F080910A0486309F
:1013600069F480918103882349F48091F9036091A5
:10137000040440910E0423E00E94500D8091060465
:10138000882399F080910E04882379F490910404C5
:101390008091FE03981749F49091F9038091080415
:1013A000981719F481E080930F04809175038823C6
:1013B00069F480917603882349F480910F0488238F
:1013C00029F081E08093090410920F0480917F033B
:1013D000863039F410927F0380918503882329F4A5
:1013E00009C08F5F80937F030EC080918503815079
:1013F0008093850380918003882329F08091800366
:10140000815080938003FF91EF91BF91AF919F91A5
:101410008F917F916F915F914F913F912F911F918C
:101420000F91FF900F900FBE0F901F9018950F9384
:101430001F93182F062F6AE00E940538805D602FE9
:101440000E947B29812F6AE00E940538892F805DE8
:10145000602F0E947B291F910F910895EF92FF92B8
:101460000F931F93F82E162FE42E21E001E00E9427
:10147000C629FE0C0F2D02501150802F612F0E94A3
:101480009A2B1E5F802F612F0E949A2B01501350C0
:10149000802F612F0E949A2B1C5F802F612F0E944A
:1014A0009A2B1F910F91FF90EF9008956F927F926A
:1014B0008F929F92AF92BF92CF92DF92EF92FF9264
:1014C0000F931F93CF93DF9384B714BE88E10FB6B9
:1014D000F89480936000109260000FBE8AE190E063
:1014E0000E9456273B9A0E94E50883E090E00E9404
:1014F00010398093070484E090E00E9410398093B3
:10150000FC030E94A3120E94130782E084BD83E0C3
:1015100085BD8DE787BD80916E00826080936E00EF
:10152000539A80E28093B0008091B00083608093F2
:10153000B0008091B10088608093B10080E1809319
:10154000B30082E090E00E9410398093B400259AA5
:1015500080EA9FE064E60E94A6062FE088E190E022
:101560000FB6F894A895809360000FBE209360009A
:101570000E94DF2D0E94BB2D86E090E00E94103972
:10158000809301040E94FF1300E010E07BE4E72E4B
:10159000F12CC8E5D2E062E0762E55E0652E43E0FE
:1015A000942E8824839436E0B32E24E0A22E98E073
:1015B000C92E88ECD82EF0920C04E0920B04809196
:1015C0008303882379F080910904882359F01092CD
:1015D0008303D0937B03C0937A03109281004398D6
:1015E00010920A04133081F480917803882361F407
:1015F0007092790380910104853D11F083E001C070
:1016000085E08093780310E080918303867071F009
:10161000109283038092790380910104853D11F03B
:1016200083E001C085E08093780313E08091830319
:1016300080FF43C0109283031092790310927803C5
:1016400080910A048430C1F0853028F4882351F059
:10165000833041F518C0883001F1883C41F0853075
:1016600009F516C0D0920A040E94CD101DC0A092A8
:101670000A040E94150F18C090920A040E94EE0DF1
:101680001092000111C060920A040E945E110CC009
:10169000C0920A040E94BC0F07C0B0920A040E94C4
:1016A000531002C010920A0480910A04882321F486
:1016B0000E94BB2D0E94FF1310E00E949B1380919B
:1016C0000A04882339F5002369F4809109048823EA
:1016D00069F080910E0480FF09C081E00E94DE1352
:1016E00001E018C080910904882351F08091090419
:1016F000882359F0002349F080910E0480FD05C035
:1017000080E00E94DE1300E005C02D9A802F0E9429
:10171000BC132D9880910B0490910C04892BD1F768
:101720004ACFEF92FF920F931F93982F8B017A016C
:1017300080E0692F0E94B12D81E091E060E00E947D
:10174000B529C80160E00E94B52988E091E060E019
:101750000E94B529C70160E00E94B5291F910F9131
:10176000FF90EF9008951F93182F8BE260E00E9486
:10177000B12D80910104843D61F0853D28F4823DC6
:1017800059F0833DB9F40BC0853D61F0863D91F47D
:101790000CC08DE091E00BC087E191E008C085E2CC
:1017A00091E005C080E391E002C08BE391E0612FFE
:1017B0000E94B5291F9108951F93182F88E064E0B7
:1017C0000E94B12D82E491E060E00E94B5298091F1
:1017D0000704882339F48091FC03882319F48BE4EF
:1017E00091E020C080910704882339F48091FC03A4
:1017F000813019F488E591E015C0809107048130AB
:1018000039F48091FC03882319F485E691E00AC03D
:1018100080910704813049F48091FC03813029F4E0
:1018200082E791E0612F0E94B5291F9108958F9260
:101830009F92AF92BF92CF92DF92EF92FF920F935F
:101840007C016B015A01490180E060E340E820E13E
:1018500000E00E94C62986E0B701A6010E94910B14
:1018600087E0B501A4010E94910B0F91FF90EF90CA
:10187000DF90CF90BF90AF909F908F900895AC0174
:101880009B018FE791E0BA0141E851E00E94170CFB
:10189000089585E891E06CE871E00E943F0C08959E
:1018A00081E991E066E971E041E851E02CE831E03E
:1018B0000E94170C089581E991E06BE971E041E81D
:1018C00051E023EA31E00E94170C08950F931F9313
:1018D000CF93DF93182F062F8091FC03882371F597
:1018E00084E761E00E94B12D1C3010F080E501C05A
:1018F00081E460E00E947B298DE460E00E947B2906
:1019000080E561E00E94B12D812F90E047966CE068
:1019100070E00E942538EC018930910524F09C018B
:101920002F5F822F10C080E260E00E947B299E0121
:101930002F5C822F602F0E947B2908C080E561E028
:101940000E94B12D812F602F0E94170ADF91CF9145
:101950001F910F9108950F931F93CF93DF93082F3B
:10196000162F8091FC038823D1F4802F90E04796B6
:101970006CE070E00E942538EC018930910524F07C
:101980009C012F5F822F14C080E260E00E947B29BF
:101990009E012F5C822F612F0E947B290CC080E268
:1019A00060E00E947B2980E260E00E947B29802F1A
:1019B000612F0E94170ADF91CF911F910F91089517
:1019C000EF92FF920F931F93F82E162FE42E022F03
:1019D00088E063E00E94B12D87EA91E060E00E9418
:1019E000B529809107048823B1F48DEA91E060E085
:1019F0000E94B52960E00B3009F461E08F2D0E9450
:101A0000170A8FE260E00E947B2960E00C3009F445
:101A100061E0812F19C0809107048130D9F48DEAEB
:101A200091E060E00E94B52960E00C3009F461E0CB
:101A3000812F0E94170A8FE260E00E947B2960E0FC
:101A40000B3009F461E08F2D0E94170A8FE260E0ED
:101A50000E947B2910E00D3009F411E084E1612F30
:101A60000E94170A8E2D612F0E94170A1F910F9155
:101A7000FF90EF9008951F93182F88E065E00E9473
:101A8000B12D83EB91E060E00E94B5298091B40014
:101A900060E0193609F461E00E94170A1F91089569
:101AA000DF92EF92FF920F931F93E82EF62ED42E23
:101AB000122F88E062E00E94B12D83EC91E060E09B
:101AC0000E94B52900E0153609F401E08E2D602F43
:101AD0000E94AB0C8AE360E00E947B2960E016362E
:101AE00009F461E08F2D0E94170A8AE360E00E94EA
:101AF0007B2960E0173609F461E08D2D0E94170AFA
:101B00008091FC03882369F480E260E00E947B29D5
:101B10008BE08E1510F480E501C081E4602F0E94F7
:101B20007B291F910F91FF90EF90DF9008951F93F5
:101B3000182F88E061E00E94B12D8EEC91E060E00A
:101B40000E94B5298091080460E0153609F461E02F
:101B50000E94660C8AE360E00E947B298091FE036C
:101B600060E0163609F461E00E94170A1F9108959B
:101B7000809181038F5F809381030E94BB2D88E059
:101B800060E00E94B12D8BED91E060E00E94B529EC
:101B900080E00E94B30B84E00E94970D8091F903CE
:101BA0006091040440910E0423E00E94500D809146
:101BB0000D04609103044091FD0325E00E94E00CB8
:101BC00080E00E94DC0B86E00E943B0D0E945B0CD3
:101BD000809181038150809381030895BF92CF92B9
:101BE000DF92EF92FF920F931F93CF93DF931091A9
:101BF000F903D0900404F0900E040E94B80D809177
:101C000081038F5F8093810380E063E147E00E945E
:101C10002E0A809181038150809381038AE0809312
:101C2000800303E08AE0B82EC8ECD0E08091830303
:101C300080FDF1C080918303882321F48091840387
:101C4000882319F0B092800305C080918003882317
:101C500009F492C08091830381FF48C010928303EE
:101C6000809181038F5F80938103033041F481EE83
:101C700091E06BEE71E00E943F0C05E62CC005364A
:101C800041F484EF91E06FEF71E00E943F0C06E6B3
:101C900022C0063641F488E092E06CE072E00E94D7
:101CA0003F0C07E618C00E945B0C1093F903D0921A
:101CB0000404F0920E0480910E046091040440919B
:101CC000F90300910304E0900D04C090FD0320E0AF
:101CD0000E947A0703E0812F6D2D4F2D202F0E9447
:101CE000500D809181038150809381038091840302
:101CF00080FF06C090910604809111049817B1F3FB
:101D000084EF91E0FE013197F1F70197D9F78091C7
:101D1000840380FF34C090910604809111049817C9
:101D200071F10E94BB2D1FC00F5F612F0E94B12D6A
:101D300005C0082F892F60E00E947B29802F90E04A
:101D4000895F9F4F0E941039982F802F8F5F9923B2
:101D500081F7082F1F5F802F90E0895F9F4F0E94BF
:101D60001039882309F7909106048091110498177F
:101D700019F010E000E0EFCF10920A044CC08091FF
:101D80000604809311048091830382FD04C0809136
:101D9000840382FF4BCF10928303809181038F5F76
:101DA00080938103053659F4812F90E0019668E114
:101DB00070E00E942538182F8093F90315C006366D
:101DC00049F48D2D90E001966CE370E00E94253877
:101DD000D82E0AC0073641F48F2D90E001966CE3AF
:101DE00070E00E942538F82E812F6D2D4F2D202F69
:101DF0000E94500D809181038150809381038091D6
:101E0000840382FF13CF80ED97E0FE013197F1F755
:101E10000197D9F70BCFDF91CF911F910F91FF90D1
:101E2000EF90DF90CF90BF9008950F931F93CF93C3
:101E3000DF930E94B80D809181038F5F80938103AF
:101E400080E06BE047E00E942E0A80918103815080
:101E5000809381038AE08093800314E00AE0C8EC59
:101E6000D0E08091830380FD82C08091830388232A
:101E700021F480918403882319F00093800307C024
:101E800080918003882319F410920A0470C0809115
:101E9000830381FF26C010928303809181038F5FAB
:101EA00080938103143041F485E192E06BEE71E0A0
:101EB0000E943F0C15E60DC0153641F484EF91E009
:101EC0006FEF71E00E943F0C16E603C00E945B0CAE
:101ED00014E0812F0E94970D80918103815080939F
:101EE00081038091830382FD04C08091840382FF7B
:101EF000B8CF10928303809181038F5F8093810319
:101F0000153679F48091080490E0019668E170E05C
:101F10000E942538809308046091080480E090E0D6
:101F200010C0163681F48091FE0390E001966CE3B8
:101F300070E00E9425388093FE036091FE0381E0EB
:101F400090E00E941839812F0E94970D80918103A3
:101F50008150809381038091840382FF82CF80ED42
:101F600097E0FE013197F1F70197D9F77ACFDF912A
:101F7000CF911F910F9108950F931F930E94B80D59
:101F8000809181038F5F8093810380E063E247E06B
:101F90000E942E0A809181038150809381038AE000
:101FA0008093800318E00AE08091830380FD78C06D
:101FB00080918303882321F480918403882319F07E
:101FC0000093800307C080918003882319F4109246
:101FD0000A0466C08091830381FF1BC010928303B3
:101FE000809181038F5F80938103183039F481E001
:101FF0000E94DC0B0E94490C18E606C080E00E949B
:10200000DC0B0E945B0C18E080918103815080936F
:1020100081038091830382FD04C08091840382FF49
:10202000C3CF10928303183609F0BECF8091FC0312
:10203000882359F0809107048F5F80930704809173
:102040000704823010F0109207048091FC0390E0A6
:10205000882309F491E09093FC03809181038F5FC2
:10206000809381030E94B80D0E94490C80E063E2D6
:1020700047E00E942E0A81E00E94DC0B80918103E0
:102080008150809381036091070483E090E00E9477
:1020900018396091FC0384E090E00E94183984CFE5
:1020A0001F910F9108950F931F930E94B80D809177
:1020B00081038F5F809381030E94500C80E06BE26C
:1020C00047E00E942E0A8091810381508093810312
:1020D0008AE08093800316E00AE08091830380FD0C
:1020E00059C080918303882321F48091840388233D
:1020F00019F00093800307C080918003882319F4AE
:1021000010920A0447C08091830381FF18C0109287
:102110008303809181038F5F80938103163021F4C4
:102120000E94490C19E603C00E94500C16E0812F52
:102130000E943B0D809181038150809381038091A7
:10214000830382FD04C08091840382FFC6CF109276
:102150008303193611F68091B4008F5F8093B40029
:102160008091B400813110F01092B400809181030D
:102170008F5F8093810389E60E943B0D80918103EC
:102180008150809381036091B40082E090E00E94CE
:102190001839A3CF1F910F910895FF920F931F93AA
:1021A0000E94B80D809181038F5F809381030E940C
:1021B0005B0C80E063E047E00E942E0A809181037F
:1021C00081508093810380910604809311048AE0FA
:1021D0008093800318EC9AE0F92E02ED01C018EC10
:1021E0008091830380FD66C080918303882321F45E
:1021F00080918403882319F0F092800307C08091B6
:102200008003882319F410920A0454C08091830338
:1022100081FF1BC010928303809181038F5F8093A5
:102220008103183C39F481E00E94B30B0E94490CF1
:1022300019EC06C080E00E94B30B0E945B0C18EC06
:10224000809181038150809381038091830382FD7B
:1022500004C08091840382FFC3CF10928303193C92
:1022600009F0BDCF809101048F5F809301048091BC
:102270000104873D10F0009301046091010486E0A1
:1022800090E00E941839809181038F5F80938103D1
:102290000E94B80D0E94490C80E063E047E00E9474
:1022A0002E0A81E00E94B30B8091810381508093BC
:1022B000810396CF1F910F91FF900895BF92CF9207
:1022C000DF92EF92FF920F931F93CF93DF93F090E3
:1022D000030410910D04D090FD030E94B80D80916D
:1022E00081038F5F8093810380E06BE147E00E9470
:1022F0002E0A809181038150809381038AE080932C
:10230000800305E05AE0B52EC8ECD0E0809183034D
:1023100080FD0FC180918303882321F48091840381
:10232000882319F0B092800307C08091800388232E
:1023300019F410920A04FDC08091830381FF6AC0E2
:1023400010928303809181038F5F80938103053016
:1023500069F480910704882309F180910704813092
:1023600059F080910704833091F506C00B3061F479
:10237000809107048823F9F484E392E06FE372E02C
:102380000E943F0C0CE03BC00C3009F58091070423
:10239000813021F080910704833041F480E292E0A3
:1023A0006BE272E00E943F0C0BE029C080910704B1
:1023B000882329F00CC080910704813041F488E41F
:1023C00092E063E572E00E943F0C0DE018C00E94AD
:1023D0005B0CD092FD0310930D04F09203048091E6
:1023E0000E04609104044091F90300910304E0900D
:1023F0000D04C090FD0320E00E947A0705E0812FC4
:102400006F2D4D2D202F0E94E00C80918103815073
:10241000809381038091830382FD04C080918403B3
:1024200082FF74CF10928303809181038F5F80932A
:1024300081030B3071F51F5F1D3010F011E05CC09F
:102440001230D1F48D2D90E00E944307882331F0A3
:102450008DE18F1518F44DE1F42E4EC08D2D90E0D6
:102460000E944307882309F047C08CE18F1508F0CC
:1024700043C03CE1F32E40C0143031F0163021F05F
:10248000193011F01B30C1F58EE18F1508F44BC0E7
:1024900033C00C3039F5F3948FE18F1510F4FF241D
:1024A000F394123099F48D2D90E00E944307882315
:1024B00019F08DE18F15D0F18D2D90E00E9443072A
:1024C0008823D1F48CE18F1588F116C0143031F0D7
:1024D000163021F0193011F01B3071F48FE1F8162D
:1024E00029F10AC00D3041F48D2D90E0019664E68B
:1024F00070E00E942538D82E812F6F2D4D2D202F72
:102500000E94E00C8091810381508093810380912F
:10251000840382FFFBCE80ED97E0FE013197F1F757
:102520000197D9F7F3CE2EE1F22EE6CFFF24F394F4
:10253000E3CFDF91CF911F910F91FF90EF90DF904C
:10254000CF90BF90089526982E9A81E080936800DE
:10255000EBE6F0E080818064808382E080937C0001
:1025600010927B00EAE7F0E08EE88083808180644F
:102570008083089580917A00877F80937A0080918C
:102580007A00806480937A0080917A0084FFFCCF87
:102590002091780030917900C90108951F920F921F
:1025A0000FB60F9211242F933F934F935F936F9326
:1025B0007F938F939F93AF93BF93EF93FF93789401
:1025C000809178009091790022E0803E920728F077
:1025D000109284031092820373C022E08336920724
:1025E00098F18091820382FD6BC080E29EE40197A6
:1025F000F1F70E94BA12825692408E37910508F088
:102600005FC082E08093850312C00E94BA12825696
:1026100092408E37910558F0809182038B7F809392
:1026200082038091830384608093830349C08091F7
:102630008503882351F7809182038460809382030D
:102640008091840384603AC08F509140E8F080917B
:10265000820381FD10C080E29EE40197F1F70E94A1
:10266000BA128E5091408555914050F58091830368
:1026700082608093830380918203826080938203CF
:102680008091840382601AC08091820380FD0EC015
:1026900080E29EE40197F1F70E94BA128F509140B8
:1026A00078F4809183038160809383038091820317
:1026B000816080938203809184038160809384038E
:1026C00080917A00886480937A00FF91EF91BF91A6
:1026D000AF919F918F917F916F915F914F913F91BA
:1026E0002F910F900FBE0F901F9018951F920F9271
:1026F0000FB60F9211242F933F934F935F936F93D5
:102700007F938F939F93AF93BF93EF93FF937894AF
:102710000E941307FF91EF91BF91AF919F918F910D
:102720007F916F915F914F913F912F910F900FBECD
:102730000F901F9018958091010490910204833DA1
:102740009105A1F0843D910524F4823D910599F411
:102750000AC0843D910521F0853D910561F409C0D1
:102760000E94CE1A08950E94212108950E940E1FF2
:1027700008950E945F22089520910104309102047F
:10278000233D3105A1F0243D310524F4223D3105DE
:10279000A1F40AC0243D310521F0253D310569F43D
:1027A00009C00E94F71808950E942A2208950E94E5
:1027B0002620089590E00E94F624089520910104B7
:1027C00030910204233D3105A1F0243D310524F46C
:1027D000223D310599F40AC0243D310521F0253D03
:1027E000310561F409C00E94E81908950E9433225E
:1027F00008950E94ED1F08950E94D62608958091A5
:10280000010490910204843D910589F0853D910574
:102810003CF4823D910571F0833D910519F50DC0A1
:10282000853D910569F0863D9105E1F40CC00E945B
:102830007F1A08950E94562208950E94F71F089556
:102840000E94522708950E94F81480E090E00E94B0
:102850005615837090708E529F4F90930204809310
:102860000104CDCF08952F923F924F925F926F92C5
:102870007F928F929F92AF92BF92CF92DF92EF9210
:10288000FF920F931F93209088033090890340900C
:102890008A0350908B0360908C0370908D0380901E
:1028A0008E0390908F03AA24BB246501F501E37089
:1028B000F070EE0FFF1FEE0FFF1FE65DFB4FE08095
:1028C000F18002811381EA0CFB1C0C1D1D1DD4013B
:1028D000C30175E0B695A795979587957A95D1F739
:1028E000A401930164E0220F331F441F551F6A9512
:1028F000D1F782279327A427B527860D971DA81DFA
:10290000B91DE826F9260A271B272E0C3F1C401E5E
:10291000511E89EB99E7A7E3BEE9A80EB91ECA1EAE
:10292000DB1EA2019101F5E0569547953795279555
:10293000FA95D1F7D201C101E4E0880F991FAA1FCF
:10294000BB1FEA95D1F7282739274A275B27220D95
:10295000331D441D551DD601C5017BE0B695A795D5
:10296000979587957A95D1F783709070880F991F06
:10297000880F991F865D9B4FFC0180819181A28108
:10298000B3818A0D9B1DAC1DBD1D282739274A2701
:102990005B27620E731E841E951EF0E2AF16F7E3EE
:1029A000BF06FFEECF06F6ECDF0609F07FCF2092E0
:1029B00088033092890340928A0350928B0360927D
:1029C0008C0370928D0380928E0390928F031F91DF
:1029D0000F91FF90EF90DF90CF90BF90AF909F90BE
:1029E0008F907F906F905F904F903F902F900895C1
:1029F00080EB96EEA2E7B1EB809336049093370418
:102A0000A0933804B093390480910E0490E0A0E0C4
:102A1000B0E02EE631E749EE5DE282279327A42756
:102A2000B52780932A0490932B04A0932C04B09391
:102A30002D048091040490E0A0E0B0E021ED3DED94
:102A40004FE359E982279327A427B52780932E04C3
:102A500090932F04A0933004B09331048091F90334
:102A600090E0A0E0B0E027E53BEF47E75AE282279D
:102A70009327A427B5278093320490933304A0931F
:102A80003404B09335041092880310928903109295
:102A90008A0310928B0310928C0310928D03109274
:102AA0008E0310928F030E94331408958130F9F43D
:102AB00080918C0390918D03A0918E03B0918F0330
:102AC000209188033091890340918A0350918B03B0
:102AD00082279327A427B5273FE0B695A79597951A
:102AE00087953A95D1F79C01237030702FC08230C2
:102AF000F9F480918C0390918D03A0918E03B09195
:102B00008F03209188033091890340918A0350916B
:102B10008B0382279327A427B52721E1B695A79594
:102B2000979587952A95D1F79C01217030700EC03A
:102B3000A8950E94331420918C0330918D038091CD
:102B4000880390918903282739273F77C901089581
:102B50009091790380918703981739F081E08093F1
:102B60008603809179038093870380917903813074
:102B700039F1813030F08230A9F1833009F042C060
:102B800039C080917503882321F4809176038823CE
:102B900081F080917603882329F080910504809349
:102BA000400404C080917503882361F18091FB0388
:102BB0001EC08091F903809340048091040417C0E3
:102BC00080910704882339F480910D048093400498
:102BD000809103040CC08091030480934004809191
:102BE0000D0405C084E1809340048091FD0380932F
:102BF0004104089580910804809340048091FE036D
:102C0000809341040895AF92CF92EF920F93A82F33
:102C1000B0E0E02FF0E0CD01840F911D8E179F07EB
:102C2000B4F0EC0DF11DEA17FB078CF070E04E2DAF
:102C300050E0CB01820F911D8417950744F080E08E
:102C40004A0D511D461757071CF081E001C080E076
:102C50000F91EF90CF90AF900895EF92FF920F9366
:102C60001F9380E00E945615A0E0B0E0BC01CD01AA
:102C70000E94783520E030E048E452E40E9490322F
:102C800020E03EEF4FEF56E40E948A3320E030E030
:102C900040EA51E40E9463327B018C0181E00E9492
:102CA000561583702AE5829FC0011124AA2797FD3B
:102CB000A095BA2FBC01CD010E94C6349B01AC0186
:102CC000C801B7010E94633226E53EE049E450E4C2
:102CD0000E94903220E030E044E353E40E948A33C3
:102CE0001F910F91FF90EF9008952F923F924F9276
:102CF0005F926F927F928F929F92AF92BF92CF928C
:102D0000DF92EF92FF920F931F93DF93CF93CDB794
:102D1000DEB761970FB6F894DEBF0FBECDBFEC866D
:102D2000FD860E871F87998A888A2D833E834F836D
:102D30005887AC01CB01DA013C014D01C501D60138
:102D40005C016D011A8619869FC06D817E818F811D
:102D50009885A60195010E9463321B012C01C401D4
:102D6000B3012C853D854E855F850E946332698362
:102D70007A838B839C83C201B10120E030E048E676
:102D800052E40E94363418167CF4D7FAD094D7F85F
:102D9000D0940F2EF0E02F2EF0E03F2EF8E64F2ECD
:102DA000F2E45F2EF02D18C0C201B10120E030E046
:102DB00040E050E40E949634882374F4D7FAD0940B
:102DC000D7F8D0940F2EF0E02F2EF0E03F2EF0E059
:102DD0004F2EF0E45F2EF02D69817A818B819C81EA
:102DE0000E9424356B876F368CF0C801B70120E054
:102DF00030E046EE52E40E94963488233CF460E0D2
:102E000070E086EE92E4A801970113C0FB85FE30C6
:102E100054F5C401B30120E030E040E551E40E94E4
:102E20003634181604F560E070E080E591E4A40102
:102E300093010E9432322C853D854E855F850E942C
:102E40008A33A60195010E9490329B01AC016D81ED
:102E50007E818F8198850E9463320E94BA30E88912
:102E6000F989608307C0F985FF2321F48A858F5F84
:102E70008A8702C0E1E0E9872D823E824F82588630
:102E800069807A808B809C80C401B30120E030E0AF
:102E90004CEE52E40E94963488239CF4C401B301A2
:102EA00020E030E040E850E40E9463327B018C0176
:102EB00020E030E040E251E40E94363418160CF471
:102EC00044CF6D817E818F8198850E94BA30EEA1BA
:102ED000FFA160838A8561960FB6F894DEBF0FBEAE
:102EE000CDBFCF91DF911F910F91FF90EF90DF90B9
:102EF000CF90BF90AF909F908F907F906F905F909A
:102F00004F903F902F9008958F929F92AF92BF92D3
:102F1000CF92DF92EF92FF920F931F93CF93DF93A5
:102F2000D82E862E922EC42FD0E0CC0FDD1FCC0FD2
:102F3000DD1FC156DF4FCC24CE010E941039182D61
:102F400047E0E42EF12CA82EBB24C5010E2C02C0B4
:102F5000959587950A94E2F780FF09C000E09920D3
:102F600009F401E08D2D612F42E022E005C08D2D96
:102F7000612F42E022E0092D0E94C6290894E10851
:102F8000F1081E5F8FEFE8168FEFF806F1F6C39495
:102F9000219682E0D80E84E0C81671F6DF91CF91B9
:102FA0001F910F91FF90EF90DF90CF90BF90AF9067
:102FB0009F908F900895CF92DF92EF92FF920F93A0
:102FC0001F93C82ED62E8823F1F4E0903C04F09095
:102FD0003D0400913E0410913F04609122047091E1
:102FE000230480912404909125040E94BA3070E05B
:102FF0006B30710584F5C801B7010E94BA3070E0EA
:103000006531710544F58091FC038823B9F4809102
:103010007903882321F080917903833079F48091BA
:10302000400490E047966CE070E00E9425380196DD
:103030006AE070E00E942538462F06C08091400467
:103040006AE00E940538482F80E064E02D2D0E9440
:103050008417CC2009F5E0903C04F0903D040091E9
:103060003E0410913F0460912204709123048091EA
:103070002404909125040E94BA3070E06A317105F1
:10308000ACF16932710594F5C801B7010E94BA30FC
:1030900070E06531710554F58091FC038823C9F413
:1030A00080917903882321F080917903833089F41A
:1030B0008091400490E047966CE070E00E942538D3
:1030C00001966AE070E00E942538482F8EE164E0A6
:1030D00008C0809140046AE00E9405388EE164E0F7
:1030E000492F2D2D0E948417CC2009F5E0903C0437
:1030F000F0903D0400913E0410913F046091220441
:103100007091230480912404909125040E94BA3088
:1031100070E064347105C4F063357105ACF4C80126
:10312000B7010E94BA3070E0653171056CF480918E
:1031300041046AE00E940538482F88E464E02D2DA0
:103140000E948417CC2009F5E0903C04F0903D04E7
:1031500000913E0410913F04609122047091230479
:1031600080912404909125040E94BA3070E0623668
:103170007105B4F0613771059CF4C801B7010E9474
:10318000BA3070E0653171055CF4809141046AE009
:103190000E94053886E664E0492F2D2D0E94841791
:1031A0001F910F91FF90EF90DF90CF9008950F93B4
:1031B0001F93082F10E08FE3612F0E94B12D002391
:1031C00011F080EF01C08FE00E94582D1F5F173073
:1031D00091F78FE367E00E94B12D002311F080E2A8
:1031E00001C08FEC0E94582D1F910F910895BF923E
:1031F000CF92DF92EF92FF920F931F93B82E0E940F
:10320000A815609122047091230480912404909168
:1032100025040E94BA307B018C0160913C047091BE
:103220003D0480913E0490913F040E94BA309B017E
:10323000AC018E2D622F44E024E00B2D0E94C629A4
:10324000CC24BB2011F4CC24C3946091260470914B
:10325000270480912804909129040E94BA307B01B0
:103260008C016091190470911A0480911B04909153
:103270001C040E94BA309B01AC018E2D622F44E0E9
:1032800024E00C2D0E94C629E0903C04F0903D04FF
:1032900000913E0410913F04609122047091230438
:1032A00080912404909125040E94BA3070E06B3321
:1032B000710564F0613471054CF4C801B7010E94D6
:1032C000BA3070E0613471050CF476C0609112047C
:1032D000262F30E080911304992787FD90952817B9
:1032E000390771F08AE043E02CE00B2D0E94C629DB
:1032F0008AE06091130443E02CE00C2D0E94C62963
:1033000060913B04262F30E080913A04992787FD95
:1033100090952817390771F083E743E02CE00B2DD7
:103320000E94C62983E760913A0443E02CE00C2D0B
:103330000E94C629E0903C04F0903D0400913E04B8
:1033400010913F04D0903A046091220470912304BC
:1033500080912404909125040E94BA3070E06F3669
:103360007105A4F0673771058CF4C801B7010E949C
:10337000BA3070E02D2D30E0CB0104968217930710
:103380002CF0245F3F4F26173707D4F410927000BB
:1033900080918603882311F01092860381E0809348
:1033A00070006B2D0E94DB171F910F91FF90EF9023
:1033B000DF90CF90BF9008958B2D0E94D71886CFB5
:1033C00083E76D2D43E02CE00C2D0E94C629DECF53
:1033D000FF920F931F93F82E80E060E040E820E416
:1033E0000F2D0E94C62910E0FF2009F411E080E0B3
:1033F00060E040E822E0012F0E94C62980E06EE3F1
:1034000040E822E00E94C6298AE06091130443E06C
:103410002CE00E94C62983E760913A0443E02CE047
:103420000E94C6290E94A8158091FC038823B9F444
:1034300080917903882321F080917903833079F496
:103440008091400490E047966CE070E00E9425383F
:1034500001966AE070E00E942538462F06C08091F0
:1034600040046AE00E940538482F80E064E02F2D78
:103470000E9484178091FC038823C9F4809179030A
:10348000882321F080917903833089F4809140046E
:1034900090E047966CE070E00E94253801966AE063
:1034A00070E00E942538482F8EE164E008C08091CA
:1034B00040046AE00E9405388EE164E0492F2F2D18
:1034C0000E948417809141046AE00E940538482FC9
:1034D00088E464E02F2D0E948417809141046AE003
:1034E0000E94053886E664E0492F2F2D0E9484173C
:1034F0008F2D0E94D7181F910F91FF900895EF9282
:10350000FF920F931F9389E18093130480933A04F1
:1035100080E090E0ACE7B2E4809326049093270427
:10352000A0932804B093290480E090E0A8EFB1E4D0
:103530008093190490931A04A0931B04B0931C0465
:103540000E942D167B018C010E94AC3820E030E0F7
:1035500040EA50E40E94903260931D0470931E0470
:1035600080931F0490932004C801B7010E940A3978
:1035700020E030E040EA50E40E949032609315046D
:1035800070931604809317049093180480E00E94AF
:10359000E8191F910F91FF90EF9008952F923F929D
:1035A0004F925F926F927F928F929F92AF92BF9253
:1035B000CF92DF92EF92FF920F931F93DF93CF93FF
:1035C000CDB7DEB72E970FB6F894DEBF0FBECDBFD6
:1035D0006091260470912704809128049091290419
:1035E0006093220470932304809324049093250411
:1035F000E0901904F0901A0400911B0410911C042F
:10360000E0923C04F0923D0400933E0410933F048A
:1036100020911D0430911E0440911F0450912004FC
:103620000E9463325B016C0160932604709327044F
:1036300080932804909329046090150470901604D8
:103640008090170490901804C801B701A401930159
:103650000E9463326093190470931A0480931B04D0
:1036600090931C0420E030E048E652E40E94363497
:103670001816BCF480E090E0A8E6B2E48093190448
:1036800090931A04A0931B04B0931C04D401C301AB
:10369000B0588093150490931604A0931704B09328
:1036A00018046091190470911A0480911B04909180
:1036B0001C0420E030E040E050E40E94963488236F
:1036C000ECF480E090E0A0E0B0E4809319049093E3
:1036D0001A04A0931B04B0931C04809115049091CC
:1036E0001604A0911704B0911804B05880931504E3
:1036F00090931604A0931704B0931804C601B50163
:1037000020E030E048EF52E40E94363418163CF0D6
:10371000C601B5010E94243516160CF464C080E081
:1037200090E0ACE7B2E48093260490932704A09342
:103730002804B093290480E090E0A8EFB1E48093DE
:10374000190490931A04A0931B04B0931C040E94C4
:103750002D167B018C010E94AC3820E030E040EA5D
:1037600050E40E94903260931D0470931E04809375
:103770001F0490932004C801B7010E940A3920E079
:1037800030E040EA50E40E94903260931504709358
:103790001604809317049093180460919603209167
:1037A0009503261B8AE043E000E00E94C629609151
:1037B0009A0320919903261B83E743E00E94C629C0
:1037C0001092990310929A03109295031092960307
:1037D00081E0809386031092760380917603809334
:1037E00075030E94A815809113048E8380931204A0
:1037F00090913A049D8390933B0420901D04309057
:103800001E0440901F0450902004C201B10120E02A
:1038100030E040E050E00E94363418160CF038C119
:1038200060912604709127048091280490912904C6
:103830000E9424356F360CF467C0E0902204F090AB
:1038400023040091240410912504C801B7010E94AB
:10385000243560370CF058C0C801B70120E030E0D3
:1038600040E850E40E9463329B01AC0160E070E0EC
:1038700086EE92E40E9432325B016C016090150486
:10388000709016048090170490901804C801B70136
:10389000A60195010E9463326F83788789879A8792
:1038A000E0903C04F0903D0400913E0410913F04F0
:1038B0000E94BA3070E06F36710534F167377105D8
:1038C0001CF5C601B501A20191010E948A33A40131
:1038D00093010E9490329B01AC01C801B7010E9484
:1038E00063327B018C010E94BA3070E0AD812A2FD7
:1038F00030E0CB0104968217930734F0245F3F4FEA
:10390000261737070CF02CC2E0901D04F0901E041F
:1039100000911F0410912004C801B70120E030E09D
:1039200040E050E00E94363418160CF0FBC1609065
:103930002604709027048090280490902904C401E4
:10394000B30120E030E040E850E40E94633220E020
:1039500030E046EE52E40E94963488230CF0E2C137
:1039600080919A03882309F05DC000D0209119044A
:1039700030911A0440911B0450911C04A09015042E
:10398000B0901604C0901704D090180487E993E013
:10399000EDB7FEB792838183C401B301F8E98F2E9E
:1039A000F3E09F2E0E9475168093900390919803E8
:1039B000809197030F900F90891738F480939A03A2
:1039C0009C5F90939903945005C090939A038C5FE9
:1039D0008093990380917603882379F4892F84500A
:1039E00080939203992787FD90950E94052886E889
:1039F00090E061E00E9491271AC000919A03109113
:103A000099030F3058F0113328F482E00E945615C4
:103A100080FF04C00D500093920309C01F5F1093F4
:103A2000920305C080919003815080939003309160
:103A30003A0460919203832F861B482F552747FD38
:103A4000509557FF03C0509541955F4F809190036B
:103A500025E08202C00111240497481759070CF48D
:103A600061C1842F36173CF4463014F03B5F01C02F
:103A7000340F30933A0490913A0469170CF052C114
:103A8000863014F0955001C0981B90933A044AC1B7
:103A90008091260490912704A0912804B0912904D4
:103AA00089839A83AB83BC83BC01CD010E942435FA
:103AB0006E300CF07DC0E0902204F0902304009161
:103AC000240410912504C801B7010E9424356D30EB
:103AD0000CF46EC060E070E080E591E4A80197010D
:103AE0000E9432325B016C016090150470901604E4
:103AF0008090170490901804C801B701A6019501A1
:103B00000E9463326B877C878D879E87E0903C04A0
:103B1000F0903D0400913E0410913F040E94BA30A1
:103B200070E0663071050CF443C06E3071050CF026
:103B30003FC0C601B501A20191010E948A33A401D0
:103B400093010E9490329B01AC01C801B7010E9411
:103B500063327B018C010E94BA3070E09E81292F74
:103B600030E0CB0104968217930714F1245F3F4F96
:103B700026173707ECF024C18B859C85AD85BE8563
:103B80008093260490932704A0932804B0932904DB
:103B9000E0921904F0921A0400931B0410931C0481
:103BA0001092950310929603109291031092940331
:103BB000E0901D04F0901E0400911F041091200459
:103BC000C801B70120E030E040E050E00E949634A8
:103BD00088230CF0A7C06090260470902704809082
:103BE000280490902904C401B30120E030E040E6AD
:103BF00051E40E94363418160CF094C0809196035C
:103C0000882309F054C000D02091190430911A047F
:103C100040911B0450911C04A0901504B090160410
:103C2000C0901704D090180483E993E0ADB7BEB7F5
:103C300012969C938E931197C401B301E4E98E2EE2
:103C4000E3E09E2E0E94751680939003909194035A
:103C5000809193030F900F90891738F48093960307
:103C60009C5F90939503945005C0909396038C5F4E
:103C70008093950380917503882321F49450909349
:103C800091031AC000919603109195030F3058F0DC
:103C9000113328F482E00E94561580FF04C00D50B5
:103CA0000093910309C01F5F1093910305C0809199
:103CB000900381508093900340911304609191038D
:103CC000242F332727FD3095862F992787FD909540
:103CD000281B390B37FF03C0309521953F4F522FDA
:103CE0008091900325E08202C00111240497252FC2
:103CF000332727FD309528173907A4F046173CF4E1
:103D0000563014F04B5F01C0450F4093130480916F
:103D1000130468173CF4563014F0855001C0851B1D
:103D2000809313048091130483301CF483E0809308
:103D3000130480913A0483301CF483E080933A04A6
:103D40008091130482331CF081E3809313048091EB
:103D50003A0482330CF449C081E380933A0445C0AD
:103D60008F819885A985BA8580932604909327042E
:103D7000A0932804B0932904E0921904F0921A0445
:103D800000931B0410931C04D201C101B05880930E
:103D90001D0490931E04A0931F04B093200410925E
:103DA000990310929A031092920310929803109222
:103DB0009503109296031092910310929403A4CD50
:103DC000D201C101B05880931D0490931E04A093AA
:103DD0001F04B093200469817A818B819C810E94A9
:103DE000BA306D3009F0C8CEDBCE2E960FB6F894FF
:103DF000DEBF0FBECDBFCF91DF911F910F91FF901E
:103E0000EF90DF90CF90BF90AF909F908F907F907A
:103E10006F905F904F903F902F900895109276038F
:103E200080917603809375030895DF92EF92FF925D
:103E30000F931F93D82EE62E10E0442309F411E0CF
:103E40008D2D8E5F6E2D4EE026E0012F0E94C6293B
:103E5000FE2CF3948D2D8F5F6F2D41E024E00E94A6
:103E6000C62982E0E80E8D2D6E2D41E022E00E94F1
:103E7000C6298D2D805F6F2D41E024E00E94C62968
:103E80008D2D8F5E6E2D41E022E00E94C6291F918C
:103E90000F91FF90EF90DF900895DF92EF92FF92E5
:103EA0000F931F93D82E162FEE24442311F4EE24E3
:103EB000E394612F6E5F8D2D46E025E10E2D0E946B
:103EC000C629FD2CF394612F6F5F8F2D44E021E014
:103ED0000E94C62982E0D80E8D2D612F42E021E09C
:103EE0000E94C629195E8F2D612F44E021E00E94B7
:103EF000C6291F5F8D2D612F42E021E00E94C62957
:103F00001F910F91FF90EF90DF9008958436D1F0CC
:103F1000853638F4823681F0833680F4813641F577
:103F200007C08636C1F08636A0F0873609F51AC07C
:103F3000862F8C5F642F09C04B5F01C04E5D862FBA
:103F40008C5E0BC0862F8C5F6AE3422F0E94151F88
:103F500008954E5D01C04B5F862F642F422F0E9453
:103F60004D1F0895862F8C5F6DE1422F0E94151F13
:103F70000895CF92DF92EF92FF920F931F93CF930A
:103F8000DF93C82ED62E022FC7E0D0E011E6E42E34
:103F9000FF24C7010C2E02C0959587950A94E2F77D
:103FA00080FF05C0812F6C2D4D2D202F07C020E0F4
:103FB000002309F421E0812F6C2D4D2D0E94861FD6
:103FC00021971F5F183629F7DF91CF911F910F912D
:103FD000FF90EF90DF90CF9008950F93082F80E02F
:103FE00060E040E820E40E94C6290F9108950F93F5
:103FF00080E060E040E820E400E00E94C6290F91E4
:104000000895FF920F931F93182F062FF22E842FDF
:1040100090E04A3028F48B519F4F0E94103904C021
:1040200086599F4F0E941039482F812F602F2F2DC6
:104030000E94B91F1F910F91FF90089520E0442323
:1040400009F421E044E00E94B62A0895FF920F93FC
:104050001F93809179038823B1F080917903833095
:1040600091F080E465E144E020E00E94B62A80E41B
:104070006AE244E020E00E94B62A80E466E044E080
:1040800020E00E94B62A809179038230F1F480E02A
:1040900060E042E020E00E9401208EE160E040E02C
:1040A00020E00E9401208091FD0364E60E94053813
:1040B000892F6AE00E940538482F88E460E020E0FC
:1040C0000E9401208091FD0330C0809179038130EE
:1040D000B1F580910704882329F410910D04009113
:1040E000030404C01091030400910D04812F6AE0C1
:1040F0000E940538482F80E060E020E00E94012007
:10410000812F6AE00E9405388EE160E0492F20E0AF
:104110000E940120802F6AE00E940538482F88E421
:1041200060E020E00E940120802F6AE00E940538B4
:1041300086E660E0492F20E00E9401207EC0809149
:104140007903882329F080917903833009F075C0C1
:1041500080917903833029F410910804F090FE03D4
:1041600004C01091F903F09004048091FC038823AB
:10417000B9F4812F90E047966CE070E00E942538FA
:10418000082F0F5F1C3028F480E466E044E021E053
:1041900004C080E466E044E020E00E94B62A07C044
:1041A00080E466E044E020E00E94B62A012F0A3055
:1041B00048F0802F6AE00E940538482F80E060E0D8
:1041C00020E004C080E060E048E021E00E9401209F
:1041D000802F6AE00E9405388EE160E0492F20E0E0
:1041E0000E9401208F2D6AE00E940538482F88E444
:1041F00060E020E00E9401208F2D6AE00E940538D7
:1042000086E660E0492F20E00E940120809177033C
:10421000882399F020910E0411E02127217080E479
:1042200065E144E00E94B62A20910E042127217006
:1042300080E46AE244E00E94B62A1F910F91FF9049
:104240000895809166028150809366028823F1F47C
:1042500085E0809366028091640280939D03909133
:104260006502980F90936402903218F08FEF80935C
:104270006502992319F481E08093650290E08091B2
:104280009E03882309F491E090939E030895FF9282
:104290000F931F93082FF62E6AE00E940538182FFF
:1042A000805D6F2D0E947B29005D86EF9FEF189F38
:1042B000102D1124812F800F6F2D0E947B291F91BB
:1042C0000F91FF9008951F93182F80E060E00E94E7
:1042D000B12D80914004612F0E94472180914304B9
:1042E000612F0E94472186E660E00E94B12D8091F7
:1042F0004104612F0E94472180914204612F0E9456
:1043000047211F910895282F80917503882359F420
:1043100080917603882339F4909179038091A003EA
:10432000891709F45EC0109276038091760380931A
:10433000750380919F03882309F053C0809179030E
:104340008093A0039091F9038091FC03882319F0D6
:1043500068E170E002C06CE070E0892F90E00E949C
:104360002538809340048091040480934304809115
:1043700079038330A1F4909108048091FC03882391
:1043800019F068E170E002C06CE070E0892F90E005
:104390000E942538809341048091FE031BC08091C8
:1043A0007903813031F484E1809341048091FD03ED
:1043B00011C080910704882339F480910D04809303
:1043C00041048091030406C080910304809341045A
:1043D00080910D048093420410929F03822F0E94CB
:1043E00063210895EF92FF920F931F9390916402BF
:1043F00080919D03981718F4892F805A02C0892F45
:10440000815068E041E020E300E00E94C62960E0BE
:1044100083E0E82E14C080916402800F612F0E9417
:10442000B12D80919E038E9DC00111248F0D0E949D
:104430004D29005F003679F7163039F0612FF62EDE
:10444000F69400E0162F1F5FE6CF1F910F91FF90AB
:10445000EF9008951F93182F0E94F221812F0E9440
:1044600083211F9108950F931F93182F80E060E020
:1044700040E820E4012F0E94C62983E68093A00330
:10448000812F0E948321812F0E9463210E94F221AB
:1044900014E1812F67E00E94B12D86E00E944D2932
:1044A000185E1437B1F71F910F91089581E0809342
:1044B000640210929D0380E00E94332208950895C3
:1044C000DF92EF92FF920F931F93CF93DF93D82E3B
:1044D000F62EE22EF694F694F694EA0100E015C06A
:1044E000FE011491802F6CE10E940538292F2D0DBB
:1044F000802F0E940538682F6F0D822F0E94B12DEA
:10450000812F0E94582D0F5F21960E1548F3DF91E1
:10451000CF911F910F91FF90EF90DF900895CF9270
:10452000DF92EF92FF920F931F93CF93DF93C82EEA
:10453000F62ED22EE02EF694F694F694EA0110E0D0
:1045400019C00881812F6CE10E940538992341F43C
:10455000812F0E940538682F6F0D8C2D0E94B12D80
:10456000EE2019F0802F809501C0802F0E94582DD9
:104570001F5F21961D1528F3DF91CF911F910F9199
:10458000FF90EF90DF90CF9008957F928F929F924F
:10459000AF92BF92CF92DF92EF92FF920F931F9351
:1045A000DF93CF93CDB7DEB7C05ED0400FB6F8949F
:1045B000DEBF0FBECDBFA82E962EB22E802EFE01DE
:1045C000319680EEDF011D928A95E9F7DA0150E01D
:1045D0009CE1792E81E0C82ED12C7F011CC0F9010D
:1045E00084912F5F3F4FF901749121503040482F43
:1045F00009C0F801E40FF11DEE0DFF1D8081862B2F
:1046000080834F5F4717A8F39F5F2E5F3F4F923025
:1046100031F75F5F14965B1588F4852F8695869534
:104620008695879D80011124852F87706C2D01C090
:10463000660F8A95EAF79D0190E0D1CF8A2D692D0A
:10464000AE014F5F5F4F20EE082D0E948F22C052B7
:10465000DF4F0FB6F894DEBF0FBECDBFCF91DF9115
:104660001F910F91FF90EF90DF90CF90BF90AF9090
:104670009F908F907F9008950F93942F022F592F22
:1046800040E04D5F5D4F20E40E94C5220F910895E8
:104690002F923F924F925F926F927F928F929F9252
:1046A000AF92BF92CF92DF92EF92FF920F931F9340
:1046B000DF93CF93CDB7DEB7C35FD0400FB6F8948A
:1046C000DEBF0FBECDBFC251DF4F8883CE5ED0406C
:1046D000C151DF4F6883CF5ED040C051DF4F488368
:1046E000C05FD040CF50DF4F0883C15FD040FE0194
:1046F000399680EEDF011D928A95E9F78091A40337
:10470000282E3324D22ECC2443E052E0C40ED51EF2
:10471000C051DF4F8881C05FD040F82EEE24E40EF8
:10472000F51E88249924B5E06B2E712C6C0E7D1E2D
:10473000CE50DF4FF983E883C25FD040582DC0517F
:10474000DF4F8881C05FD0408F3F29F41C821B82DD
:104750001A82198209C0DE011196F70184918D93A6
:104760003196A615B705D1F79981C451DF4F9883CB
:10477000CC5ED04030E09F3F09F031E08B818F3F2D
:1047800009F03F5FD301F60184918D933196CE50AD
:10479000DF4F88819981C25FD040A817B907A1F780
:1047A0009D81C551DF4F9883CB5ED04090E0C551CD
:1047B000DF4FA881CB5ED040AF3F09F091E08F8101
:1047C0008F3F09F09F5F292F931708F4232FBA8199
:1047D000C351DF4FB883CD5ED04056955695569560
:1047E000ECE15E9F20011124C4018770907041E0CC
:1047F00050E002C0440F551F8A95E2F7C751DF4FC2
:104800004883C95ED0405E81C651DF4F5883CA5E7F
:10481000D04083015E010894A11CB11C622F70E09E
:10482000660F771F660D771D69C0D5012C912F3F4C
:1048300019F01196BC910AC0C451DF4F2881CC5E9B
:10484000D040C351DF4FB881CD5ED040F8018081A8
:104850008F3FB1F1A18190E030E0821B930B829DEC
:10486000A001839D500D929D500D1124405F5F4F1C
:10487000F5E056954795FA95E1F7420F531F5070B2
:104880008A2F90E02B2F30E0821B930B829DD0016A
:10489000839DB00D929DB00D11245096E5E0B69524
:1048A000A795EA95E1F7A20FB31FB070F201E40FEC
:1048B000F51F89E090E08C0F9D1FE80FF91F15C0D0
:1048C000C551DF4F8881CB5ED040C651DF4FA881F4
:1048D000CA5ED040C0CF8081C751DF4F9881C95E8A
:1048E000D040892B81934F5F5F4F4A175B0798F346
:1048F0000E5F1F4FA2E0B0E0AA0EBB1E06171707FF
:1049000009F093CF0894811C911CE4E0F0E0CE0EF6
:10491000DF1EEE0EFF1EF0E48F16910409F00ECF9D
:10492000C251DF4F8881CE5ED040C151DF4F6881D8
:10493000CF5ED040AE01475F5F4F20EECF50DF4FDC
:104940000881C15FD0400E948F22CD50DF4F0FB64B
:10495000F894DEBF0FBECDBFCF91DF911F910F91B5
:10496000FF90EF90DF90CF90BF90AF909F908F908F
:104970007F906F905F904F903F902F900895EF92AF
:10498000FF920F931F93E82E162FFF24442311F458
:10499000FF24F39413508E2D8150612F42E026E0C6
:1049A0000F2D0E94C6291F5F8E2D8250612F44E07B
:1049B00024E00E94C6291F5F8E2D8350612F46E0A0
:1049C00022E00E94C6291F910F91FF90EF90089559
:1049D0001F93182F80E464E1412F0E94BF2480E4DC
:1049E0006AE3412F0E94BF241F9108950F931F93E4
:1049F000CF93DF93182F80917903882329F080913A
:104A00007903833009F0DCC0909179038091AE0383
:104A1000891709F457C08091A103882309F052C077
:104A20008091A9038093A5038091AA038093A60394
:104A30008091AB038093A7038091AC038093A8037C
:104A400080917903882329F42091F903309104049B
:104A500004C0209108043091FE038091FC03882358
:104A600049F4822F90E047966CE070E00E94253870
:104A7000282F2F5F832F6AE00E9405389093AC03A4
:104A8000832F0E9405388093AB03822F0E94053844
:104A90008093A903822F0E9405389093AA03812F47
:104AA0000E94E8248CE363E247E025E0012F0E94A6
:104AB000C629809179038093AE038091A1038F5F13
:104AC0008093A10380917903882309F053C08091DA
:104AD0007503882329F480917603882309F44AC05A
:104AE0008091A103882309F045C081E08093A10350
:104AF0008091AC038093A803809104046AE00E9433
:104B000005389093AC038091AB038093A703809109
:104B100004040E9405388093AB03809176038823B8
:104B200019F12091F9038091FC03882351F48091BD
:104B3000F90390E047966CE070E00E942538282F3A
:104B40002F5F8091A9038093A5038091AA0380938E
:104B5000A603822F6AE00E9405388093A903822F62
:104B60000E9405389093AA031092760380917603F1
:104B7000809375038091AD03811709F474C080910F
:104B8000A103882309F06FC060E040E820E4012F12
:104B90000E94C629812F0E94E824C0E0D0E0FE01D7
:104BA000E959FD4FDE01A755BC4F808160E04C9173
:104BB000212F0E943C232196C430D10581F753C098
:104BC00000917903013009F051C0909179038091EF
:104BD000AE03891709F447C086E990E061E00E94BE
:104BE00091278091A1038823F1F50093A10380917F
:104BF00079038093AE038091A9038093A5038091EC
:104C0000AA038093A6038091AB038093A7038091AE
:104C1000AC038093A80380910704882329F4209192
:104C20000D043091030404C02091030430910D045D
:104C3000822F6AE00E9405388093A903822F0E9488
:104C400005389093AA03832F0E9405388093AB0305
:104C5000832F0E9405389093AC0380E0112309F460
:104C600081E00E94E824C0E0D0E04EC000917903CA
:104C70000230C9F7909179038091AE03891799F3B7
:104C800080E990E061E00E9491278091A103882350
:104C900051F781E08093A1038BE890E061E00E94EE
:104CA0009127809179038093AE038091A90380932B
:104CB000A5038091AA038093A6038091AB03809300
:104CC000A7038091AC038093A8030093A9031092DB
:104CD000AA038091FD036AE00E9405388093AB032C
:104CE0008091FD030E9405389093AC0380E011236E
:104CF00009F481E00E94E8248CE363E247E025E0C8
:104D0000012F0E94C629AFCFFE01EB55FC4F408119
:104D1000FE01E755FC4F2081421741F0FE01E959A1
:104D2000FD4F808160E0012F0E9448232196C4300E
:104D3000D10551F79091A103992389F18091A403A2
:104D40008F5F8093A403813250F11092A40380916D
:104D5000A9038093A5038091AA038093A603809161
:104D6000AB038093A7038091AC038093A803915079
:104D70009093A10380917903813059F400E01123CD
:104D800009F401E08CE363E247E025E00E94C629D4
:104D900006C080917903823011F0809179031093DD
:104DA000AD03DF91CF911F910F9108950F931F9342
:104DB000CF93DF93182F80E060E040E820E4012FDC
:104DC0000E94C6291092A4032091F9033091040493
:104DD0008091FC03882349F4822F90E047966CE091
:104DE00070E00E942538282F2F5F8FEF8093A80353
:104DF0008093A7038093A6038093A503832F6AE083
:104E00000E9405389093AC03832F0E94053880934D
:104E1000AB03822F0E9405389093AA03822F0E9431
:104E200005388093A90317C0C0E0D0E0FE01E9591E
:104E3000FD4FDE01AB55BC4F9E0127553C4F808195
:104E400060E04C91F9012081012F0E9448232196B6
:104E5000C430D10559F78091A4038F5F8093A403D8
:104E60008150813208F38CE990E060E00E94912744
:104E70008091A9038093A5038091AA038093A60340
:104E80008091AB038093A7038091AC038093A80328
:104E9000812F0E94E8241092A403DF91CF911F91EB
:104EA0000F91089580E00E94D62608959093C50042
:104EB0008093C40088E18093C1008EE08093C2009B
:104EC000519A5098089506C090E000009F5F9E316F
:104ED000E1F781508823C1F7089548EC50E009C0FC
:104EE00020E137E2FA013197F1F721503040D1F754
:104EF00081508823A9F70895982F8091C00085FFDD
:104F0000FCCF9093C60080E090E008958091C000AF
:104F100087FFFCCF8091C60008958091C000807803
:104F20000895AC0120E007C08091C00085FFFCCF50
:104F30003093C6002F5FFA01E20FF11D3491332345
:104F400099F7662371F08091C00085FFFCCF8AE05D
:104F50008093C6008091C00085FFFCCF8DE08093D8
:104F6000C6000895FC0107C08091C00085FFFCCFFA
:104F700031969093C60090819923B1F70895282F18
:104F8000982F92959F709A3030F48091C00085FFE1
:104F9000FCCF905D05C08091C00085FFFCCF995A81
:104FA0009093C600822F90E08F7090700A973CF427
:104FB0008091C00085FFFCCF2F70205D06C08091DE
:104FC000C00085FFFCCF2F70295A2093C60008959A
:104FD0001F93182F892F0E94BF27812F0E94BF2760
:104FE0001F910895EF92FF920F931F937B018C0105
:104FF000C801AA27BB270E94E827C7010E94E8270B
:105000001F910F91FF90EF9008950F931F93CF93EF
:10501000DF938C01E0E1F7E240E0C0E0D0E0C801BE
:10502000BF010E941138262F662329F4442319F466
:10503000E130F10549F48091C00085FFFCCF205D8F
:105040002093C600205341E0CF016AE070E00E9447
:1050500011382196C530D10571F0822F90E09C0166
:105060002E9FC0012F9F900D3E9F900D1124081B75
:10507000190BFB01D4CFDF91CF911F910F910895B0
:105080001F93CF93DF93482F87FF08C08091C00004
:1050900085FFFCCF8DE28093C6004195E4E6F0E009
:1050A00010E0C0E0D0E0842F992787FD9095BF01E4
:1050B0000E941138262F16162CF0112319F4E13016
:1050C000F10549F48091C00085FFFCCF205D20935D
:1050D000C600205311E0CF016AE070E00E94113851
:1050E0002196C330D10531F02E9F802D1124481B0D
:1050F000FB01D9CFDF91CF911F9108954F925F921D
:105100006F927F928F929F92AF92BF92CF92DF92D7
:10511000EF92FF920F931F93CF93DF934B015C01AC
:10512000E12C9AECF92E9AE9092F9BE3192F4424DC
:10513000C0E0D0E0C501B401A80197010E94383851
:10514000D22E222341F4442031F481E0E816F10408
:105150000105110561F48091C00085FFFCCF80E35B
:10516000D80ED092C60080EDD80E44244394C801D6
:10517000B7012AE030E040E050E00E943838C22E0B
:10518000732E642E552E2196CA30D105A9F06D2DAF
:1051900070E080E090E0A80197010E94E637861A4F
:1051A000970AA80AB90A2C2D372D462D552DC9016D
:1051B000DA017C018D01BECFDF91CF911F910F915C
:1051C000FF90EF90DF90CF90BF90AF909F908F9027
:1051D0007F906F905F904F900895CF93DF93C82F8B
:1051E000D0E0E42FF0E0E053F84F833010F42C9639
:1051F0003197262F30E02F5F3F4F2E0F3F1FCE01FC
:10520000880F991F280F391FCF019695879596957E
:105210008795280F391FCF0160E971E00E9411388E
:10522000260F371FCF0164E670E00E941138261B5D
:10523000370BAE014F5F5F4FCA01880F991F840F74
:10524000951F880F991F6AE070E00E941138C9010C
:10525000860F971F67E070E00E941138DF91CF91B1
:10526000089593E0899FC0011124860F911D8B5FE3
:105270009E4F0E941039089593E0899FC001112428
:10528000860F911D81519F4F0E94103908950895F6
:10529000835D9E4F0E9410390895FF920F931F93D4
:1052A000CF93DF93F82E00E010E008C0CE01835FBB
:1052B0009C4F0E9410398F5F180F0F5FC12FD0E0F5
:1052C0000F15A0F3CE01835F9C4F0E941039082F69
:1052D000C25FDC4F10E007C0CE010E9410390E946F
:1052E000582D1F5F21961017B8F3DF91CF911F91B2
:1052F0000F91FF900895DF92EF92FF920F931F930B
:10530000CF93DF93D62E95E0899FC0011124EC0145
:10531000C357DF4F8E0122E9E22E20E0F22EE80E85
:10532000F91EDD2029F0CE010E941039809503C0BE
:10533000C8010E9410390E94582D21960F5F1F4FFF
:10534000CE15DF0571F7DD2011F08FEF01C080E091
:105350000E94582D80E00E94A42DDF91CF911F91D3
:105360000F91FF90EF90DF9008951F93CF93DF93FD
:10537000EC01162F04C0612F0E947B2921968881A1
:105380008823C9F7DF91CF911F9108952F923F9203
:105390004F925F926F927F928F929F92AF92BF9245
:1053A000CF92DF92EF92FF920F931F93CF93DF93F1
:1053B000282E162F342EF22E402EC62FD0E0C77086
:1053C000D070209709F45BC0562E5694569456948C
:1053D000EE2467E0C62EC1228C2C992487FC909481
:1053E0005E01A20EB11C51E0652E712C35C0DE2C81
:1053F000D20C8D2D652D0E94B12D0E940B2D0E9487
:105400000B2D082F40E050E015C081E0481641F414
:10541000C30102C0880F991F2A95E2F7082B08C024
:10542000C30102C0880F991F2A95E2F780950823CF
:105430004F5F5F4F9A01280D391D2A153B0524F453
:105440008C2D840F883009F78D2D652D0E94B12D8C
:10545000802F0E94582DE394E31448F22F2D30E062
:1054600088E090E08C1B9D0B8217930714F0FF24BB
:1054700004C0812F87708850F80E187F185FE12EC6
:10548000E694E694E694C12FD0E0CF0DD11D43E021
:10549000D595C7954A95E1F712C0822D6E2D0E94D1
:1054A000B12D10E009C081E0481611F48FEF01C062
:1054B00080E00E94582D1F5F1315A8F3E3948E2DF2
:1054C00090E08C179D074CF32F2D2770C9F100E059
:1054D000C22FD0E031E0A32EB12C30C0F02EF20C60
:1054E0008F2D6E2D0E94B12D0E940B2D0E940B2D31
:1054F000182F20E030E017C081E0481649F4C501BC
:10550000022E02C0880F991F0A94E2F7182B09C0D7
:10551000C501022E02C0880F991F0A94E2F78095F8
:1055200018232F5F3F4F2C173D0734F38F2D6E2D1F
:105530000E94B12D812F0E94582D0F5F031570F22C
:1055400080E00E94A42DDF91CF911F910F91FF90D9
:10555000EF90DF90CF90BF90AF909F908F907F9013
:105560006F905F904F903F902F9008952F923F92B1
:105570004F925F926F927F928F929F92AF92BF9263
:10558000CF92DF92EF92FF920F931F93DF93CF930F
:1055900000D00F92CDB7DEB7382E462E522E262ED3
:1055A000281AA42EBB24C501880F991F2227332750
:1055B000281B390B2D5F3F4F3B832A838824992476
:1055C00066247724362F32193983182DD42CDA1813
:1055D0007501EE0CFF1C882D830D6D2D41E02E2DE5
:1055E000052D0E94C629832D88196D2D41E02E2D91
:1055F0000E94C629F42CF818110F89818A0D6F2D8D
:1056000041E0212F0E94C6298D2D82196F2D41E086
:10561000212F0E94C6298A819B8197FF06C006968A
:10562000860D971D9B838A8311C0EA81FB813A9680
:10563000C4018A199B09880F991F880F991FE80FC9
:10564000F91FFB83EA830894A108B1080894811C20
:10565000911C24E030E0620E731EA814B9040CF013
:10566000B4CF0F900F900F90CF91DF911F910F91BA
:10567000FF90EF90DF90CF90BF90AF909F908F9072
:105680007F906F905F904F903F902F900895DF92A2
:10569000EF92FF920F931F93F82E162FD42EE22E27
:1056A00041E001E00E94C6298F2D81508D0D612FB0
:1056B00041E02E2D0E94C6298F2D612F4D2D21E016
:1056C0000E94C62911501E0D8F2D612F4D2D21E0F6
:1056D0000E94C6291F910F91FF90EF90DF900895CF
:1056E000EF92FF920F931F93F82E162F062F069519
:1056F00006950695602F0E94B12D0E940B2D0E94E9
:105700000B2DE82E8F2D602F0E94B12D177081E098
:1057100090E002C0880F991F1A95E2F780958E21BC
:105720000E94582D80E00E94A42D1F910F91FF90A0
:10573000EF900895EF92FF920F931F93F82E162F7C
:10574000062F069506950695602F0E94B12D0E94A2
:105750000B2D0E940B2DE82E8F2D602F0E94B12D56
:10576000177081E090E002C0880F991F1A95E2F748
:105770008E290E94582D80E00E94A42D1F910F9128
:10578000FF90EF9008953F924F925F926F927F92B9
:105790008F929F92AF92BF92CF92DF92EF92FF9241
:1057A0000F931F93CF93DF93D82EC62E322E462E03
:1057B000481AE42EFF24C701880F991FCC27DD2744
:1057C000C81BD90B23965D2C662E762EAA24BB24EB
:1057D0008824992481E0381641F50E2D0C0D8D2D6D
:1057E000602F0E949A2B9C2D9E19192F8D2D692FA9
:1057F0000E949A2B852D602F0E949A2B852D612F58
:105800000E949A2B0419802F662D0E949A2B802FBC
:10581000672D0E949A2B1419812F662D0E949A2BB6
:10582000812F672D0E949A2B27C00E2D0C0D8D2DD8
:10583000602F0E94702B8C2D8E19182F8D2D612FAB
:105840000E94702B852D602F0E94702B852D612F5B
:105850000E94702B0419802F662D0E94702B802FC0
:10586000672D0E94702B1419812F662D0E94702BBA
:10587000812F672D0E94702BD7FF04C02696C80D7C
:10588000D91D0DC02A96C5018E199F09880F991F31
:10589000880F991FC80FD91F0894E108F1080894D0
:1058A000A11CB11C84E090E0880E991ED3945A94F8
:1058B00063947A94EA14FB040CF08CCFDF91CF91BF
:1058C0001F910F91FF90EF90DF90CF90BF90AF901E
:1058D0009F908F907F906F905F904F903F90089532
:1058E0002F982D982C9840985A98279A259A249A60
:1058F000389A529A8BB18F708BB985B1807F85B9F8
:105900008AB1806F8AB984B18F6084B90895409854
:105910005A98882319F0813021F402C0409A0895E2
:105920005A9A0895F8940E94872C8BB1806F8BB996
:1059300085B18F6085B92F988AB18F708AB984B18B
:10594000807F84B92D9A2C9A000000000AC02C9800
:1059500000000000000000002C9A00000000000081
:10596000000089B193B187FDF2CF2C982D988AB1B0
:10597000806F8AB984B18F6084B9789408951F9339
:10598000162FF8940E94922C2F982D982C9A8AB159
:10599000806F8AB984B18F6084B98BB18F708BB9F5
:1059A0009BB1812F807F892B8BB985B1807F85B991
:1059B00085B11F70812B85B9000000000000000038
:1059C00000000000000000002C9878941F910895BA
:1059D000F8940E94922C2F988AB18F708AB984B162
:1059E000807F84B92D9A2C9A0000000000000000EE
:1059F000000000000000000029B183B12C982D9810
:105A00009AB1906F9AB994B19F6094B978948F705D
:105A1000207F822B0895F894809144048295869586
:105A2000869583700E94922C2F9A8AB18F708AB9C2
:105A300084B1807F84B92D9A2C9A00000000000068
:105A40000000000000000000000099B183B12C9814
:105A50002D9878948F70907F892B08950895809366
:105A6000440480E060E40E94BF2C1092460481E070
:105A700060E40E94BF2C1092480480914404682F77
:105A80006F73606482958695869583700E94BF2CA3
:105A900008951F93182F80934504186B80E0612FA1
:105AA0000E94BF2C81E0612F0E94BF2C1F9108959E
:105AB0000F931F93182F00914404029506950695A5
:105AC0000370F894802F0E94922C2F9A2D982C9A74
:105AD0008AB1806F8AB984B18F6084B98BB18F70BD
