:100000000C9400070C941D070C941D070C944A1ABD
:100010000C941D070C941D070C941D070C941D07D0
:100020000C941D070C94FE2E0C941D070C94852A2D
:100030000C941D070C94122A0C94242A0C941D076E
:100040000C941D070C941D070C94A5290C941D07F6
:100050000C941D070C946F1A0C941D070C941D072B
:100060000C949B260C941D073A002B002D004D6527
:100070006E753D457869742C205365743D2D2C2098
:100080002B004750532054696D653A2020202020D2
:100090002020205554430047505320446174653A52
:1000A00020004F66667365743A00475053205365CD
:1000B00074757000000400056472617700796561F1
:1000C000722100646174652100646F6E6520696E41
:1000D00069740020746F20005072657373200053A0
:1000E0004554002B0073617665006368616E676537
:1000F0000073617665005345540065786974004D5E
:10010000454E550073657400534554006164766133
:100110006E6365004D454E550041626F7574004732
:10012000505320536574757000526F74617465008C
:1001300052616E646F6D005844414C494368726F60
:100140006E00536576656E4368726F6E00496E741B
:1001500072756465724368726F6E00524154544305
:1001600068726F6E007365742073656373007365E6
:100170006300736574206D696E73006368616E67F8
:1001800065206D696E0073657420686F7572006319
:1001900068616E676520687200736574206D696EB2
:1001A00073006368616E6765206D696E00736574C6
:1001B00020686F7572006368616E67652068722ED3
:1001C0000020202020204555203234687200202055
:1001D0002020204555203132687200202020202028
:1001E000555320323468720020202020205553209F
:1001F0003132687200526567696F6E3A200073652C
:10020000742079656172006368616E676520797238
:100210002E00736574206D6F6E2E006368616E67CB
:1002200065206D6F6E007365742064617465006392
:1002300068616E676520646179007365742064612C
:100240007465006368616E67652064617900736539
:1002500074206D6F6E2E006368616E6765206D6F30
:100260006E0020202020200020202020200044613B
:1002700074653A004D6F64653A00536574204261BD
:10028000636B6C696768743A200053657420546925
:100290006D653A200053657420416C61726D3A209F
:1002A00020009E4932433A204255535F4552524FF7
:1002B000520D0A004932433A204E4F5F494E464F95
:1002C0000D0A004932433A2053542D3E44415441D3
:1002D0005F4E41434B206F72204C4153545F444169
:1002E00054410D0A004932433A2053542D3E4441B3
:1002F00054415F41434B0D0A004932433A20535465
:100300002D3E534C415F41434B0D0A004932433A65
:100310002053522D3E53525F53544F500D0A004903
:1003200032433A2053522D3E444154415F4E4143A3
:100330004B0D0A004932433A2053522D3E4441545A
:10034000415F41434B0D0A004932433A2053522D3D
:100350003E534C415F41434B0D0A004932433A2022
:100360004D522D3E534C415F41434B0D0A004932E3
:10037000433A204D522D3E444154415F41434B0D81
:100380000A004932433A204D542D3E4152425F4CBF
:100390004F53540D0A004932433A204D54522D3EDA
:1003A000534C415F4E41434B206F72204D542D3EC4
:1003B000444154415F4E41434B0D0A004932433A98
:1003C000204D522D3E444154415F4E41434B0D0A56
:1003D000004932433A204D542D3E534C415F414336
:1003E0004B206F7220444154415F41434B0D0A0042
:1003F0004932433A204D2D3E53544152540D0A0088
:100400000C0FFFFF0A11FFFF0912FFFF080B10136B
:10041000070B1014060A1115060A1115050A111604
:10042000050A1116040A11170409121703091218F4
:1004300003091218030912180209121802091219E5
:100440000209121902091219020912190109121AD4
:100450000109121A0109121A0109121A0109121AC4
:100460000109121A0109121A0109121A0109121AB4
:100470000109121A0009121B0009121B0009121BA4
:100480000009121B0009121B0009121B0009121B94
:100490000109121A0109121A0109121A0109121A84
:1004A0000109121A0109121A0109121A0109121A74
:1004B0000109121A02091219020912190209121964
:1004C0000209121902091218030912180309121855
:1004D0000309121804091217040A1117050A111644
:1004E000050A1116060A1115060A1115070B101434
:1004F000080B10130912FFFF0A11FFFF0C0FFFFF7B
:100500001111FFFF0F11FFFF0E11FFFF0C11FFFF75
:100510000B11FFFF0911FFFF0811FFFF0611FFFF7D
:100520000511FFFF0311FFFF020508110203091166
:100530000911FFFF0911FFFF0911FFFF0A11FFFF5A
:100540000A11FFFF0A11FFFF0A11FFFF0A11FFFF47
:100550000A11FFFF0A11FFFF0A11FFFF0A11FFFF37
:100560000A11FFFF0A11FFFF0A11FFFF0A11FFFF27
:100570000A11FFFF0A11FFFF0A11FFFF0A11FFFF17
:100580000A11FFFF0A11FFFF0A11FFFF0A11FFFF07
:100590000A11FFFF0A11FFFF0A11FFFF0A11FFFFF7
:1005A0000A11FFFF0A11FFFF0A11FFFF0A11FFFFE7
:1005B0000A11FFFF0A11FFFF0A11FFFF0A11FFFFD7
:1005C0000A11FFFF0A11FFFF0A11FFFF0A11FFFFC7
:1005D0000A11FFFF0A11FFFF0A11FFFF0912FFFFB7
:1005E0000912FFFF0912FFFF0912FFFF0812FFFFA8
:1005F0000713FFFF0416FFFF0218FFFF0218FFFF9B
:100600000C10FFFF0A12FFFF0913FFFF0814FFFF82
:100610000715FFFF0616FFFF0616FFFF0517FFFF72
:100620000517FFFF0417FFFF0418FFFF03060D184F
:1006300003050E1803040F1802040F180203101804
:100640000203101801021118010211181118FFFFFE
:100650001118FFFF1118FFFF1118FFFF1118FFFFFE
:100660001118FFFF1117FFFF1117FFFF1117FFFFF1
:100670001116FFFF1016FFFF1015FFFF1015FFFFEB
:100680000F14FFFF0F14FFFF0F13FFFF0E13FFFFE9
:100690000E12FFFF0E11FFFF0D11FFFF0D10FFFFE8
:1006A0000C0FFFFF0C0FFFFF0B0EFFFF0B0DFFFFEB
:1006B0000A0D1B1B0A0C1B1B090B1A1B090B1A1B0F
:1006C000080A191B0709191A0708181A0608141A24
:1006D000061AFFFF051AFFFF051AFFFF0419FFFFA7
:1006E0000319FFFF0319FFFF0219FFFF0219FFFFA4
:1006F0000119FFFF0019FFFF0018FFFF0018FFFF9F
:100700000C11FFFF0A14FFFF0915FFFF0816FFFF7A
:100710000716FFFF0617FFFF0517FFFF04080B185A
:1007200004060D1803050E1803040F180204101810
:100730000203101802031018020210181018FFFF0D
:100740001018FFFF1018FFFF1017FFFF1017FFFF13
:100750001016FFFF1016FFFF0F15FFFF0F14FFFF0E
:100760000E14FFFF0D15FFFF0C16FFFF0B17FFFF09
:100770000918FFFF0918FFFF0919FFFF0B19FFFFF9
:100780000C19FFFF0E1AFFFF0F1AFFFF101AFFFFD1
:10079000111AFFFF121AFFFF121AFFFF131AFFFFB1
:1007A000131AFFFF141AFFFF141AFFFF141AFFFF9A
:1007B000141AFFFF141AFFFF151AFFFF151AFFFF87
:1007C0001519FFFF1519FFFF1519FFFF0206151870
:1007D0000107141801081418000914170009141649
:1007E000000A1316010B1215010C11140113FFFF5F
:1007F0000212FFFF0311FFFF040FFFFF060CFFFFB4
:100800001317FFFF1217FFFF1217FFFF1117FFFF4C
:100810001117FFFF1017FFFF1017FFFF0F17FFFF44
:100820000F17FFFF0E17FFFF0E17FFFF0D17FFFF3C
:100830000D17FFFF0C17FFFF0C17FFFF0B0D0F1716
:100840000B0D0F170A0C0F170A0C0F17090B0F17B8
:10085000090B0F17080A0F17080A0F1707090F17B8
:1008600007090F1706080F1706080F1705070F17B8
:1008700005070F1704060F1704060F1703050F17B8
:1008800003050F1702040F1702040F1701030F17B8
:1008900001030F1700020F1700020F1700020F17B6
:1008A000001BFFFF001BFFFF001BFFFF001BFFFFE4
:1008B000001BFFFF001BFFFF001BFFFF001BFFFFD4
:1008C000001BFFFF001BFFFF001BFFFF0F17FFFFB9
:1008D0000F17FFFF0F17FFFF0F17FFFF0F17FFFF88
:1008E0000F17FFFF0F17FFFF0F17FFFF0F17FFFF78
:1008F0000F17FFFF0F17FFFF0F17FFFF0F17FFFF68
:10090000081BFFFF081AFFFF081AFFFF081AFFFF66
:10091000071AFFFF0719FFFF0719FFFF0719FFFF5E
:100920000719FFFF0618FFFF0618FFFF0618FFFF55
:100930000607FFFF0607FFFF0607FFFF0507FFFF8C
:100940000506FFFF0506FFFF0506FFFF0506FFFF83
:10095000040CFFFF040FFFFF0411FFFF0412FFFF51
:100960000414FFFF0414FFFF0315FFFF0316FFFF2E
:100970000316FFFF0317FFFF0317FFFF0218FFFF18
:100980000218FFFF0A18FFFF0C19FFFF0E19FFFFE7
:100990001019FFFF1119FFFF1219FFFF1319FFFFB5
:1009A0001319FFFF1419FFFF1419FFFF1519FFFF9B
:1009B0001519FFFF1519FFFF1619FFFF1619FFFF85
:1009C0001619FFFF1618FFFF030516180206151863
:1009D000010815170109151700091417000A141644
:1009E000000B1315000D12150114FFFF0113FFFF7B
:1009F0000212FFFF0311FFFF040FFFFF060CFFFFB2
:100A0000181AFFFF151AFFFF131AFFFF1117FFFF38
:100A10001016FFFF0E14FFFF0D13FFFF0C12FFFF58
:100A20000B11FFFF0A10FFFF0910FFFF080FFFFF68
:100A3000080EFFFF070EFFFF060DFFFF060DFFFF6D
:100A4000050DFFFF050CFFFF040CFFFF040CFFFF6B
:100A5000040BFFFF030BFFFF030BFFFF030BFFFF65
:100A6000020A0D110214FFFF0215FFFF0216FFFF1D
:100A7000010B0E17010A1018010A101801091119AB
:100A800001091119010911190109121A0109121A92
:100A90000109121A0109121A0109121A0109121B7D
:100AA0000109121B0109121B0109121B0109121B6A
:100AB0000109121B0109121B0109121A0109121A5C
:100AC0000209121A0209121A0209121A020912194B
:100AD000030A1219030A1219030A1218040A121837
:100AE000040A1218050A1217050B1217060B111625
:100AF000070C11150814FFFF0A13FFFF0C10FFFF6E
:100B0000031BFFFF031BFFFF021AFFFF021AFFFF79
:100B1000021AFFFF021AFFFF0219FFFF0219FFFF6F
:100B20000219FFFF0219FFFF0118FFFF0118FFFF65
:100B30000118FFFF01041418010314180102131710
:100B400000021317000113170001131700011216FA
:100B5000000112161216FFFF1216FFFF1116FFFFFB
:100B60001115FFFF1115FFFF1115FFFF1115FFFFF5
:100B70001014FFFF1014FFFF1014FFFF1014FFFFED
:100B80000F14FFFF0F13FFFF0F13FFFF0F13FFFFE4
:100B90000E13FFFF0E12FFFF0E12FFFF0E12FFFFDC
:100BA0000D12FFFF0D12FFFF0D11FFFF0D11FFFFD3
:100BB0000C11FFFF0C11FFFF0C10FFFF0C10FFFFCB
:100BC0000C10FFFF0B10FFFF0B10FFFF0B0FFFFFC1
:100BD0000B0FFFFF0A0FFFFF0A0FFFFF0A0EFFFFB9
:100BE0000A0EFFFF090EFFFF090EFFFF090EFFFFB0
:100BF000090DFFFF080DFFFF080DFFFF080DFFFFA8
:100C00000B11FFFF0814FFFF0715FFFF060B10165F
:100C1000050A1117040912180409121803081318F9
:100C200003081319020813190208131902081319EB
:100C300002081319010813190109131901091319DD
:100C4000010A1319010A1319010B1319020B1318C6
:100C5000020C1218020D1217020E1216030F1115B4
:100C60000314FFFF0312FFFF0412FFFF0513FFFF32
:100C70000514FFFF0615FFFF0716FFFF0816FFFF0D
:100C80000917FFFF0917FFFF0718FFFF060A0C18D7
:100C900005090D1904090E1903080E1903080F1A86
:100CA0000208101A0208111A0107111A0107121A74
:100CB0000107121A0107121A0107131A0107131A62
:100CC0000107131A0107131A0107131A0107131A50
:100CD0000107131901071319010813190208131842
:100CE000020812180308121703091117040A111633
:100CF000050B10150614FFFF0812FFFF0A0FFFFF78
:100D00000B10FFFF0812FFFF0713FFFF060B0F1466
:100D1000050A1015050A1116040911160409111700
:100D200003091117030911180209121802091219EF
:100D30000209121901091219010912190109121ADD
:100D40000109121A0109121A0109121A0109121ACB
:100D50000109121A0109121A0109121A0109121ABB
:100D60000109121A0109121A0109121A0109121AAB
:100D7000010A121A020A121A020A121A020A121A94
:100D8000030A121A030B121A040C111A041AFFFF99
:100D9000051AFFFF0619FFFF070F11190A0C111999
:100DA0001019FFFF1018FFFF1018FFFF1018FFFFAA
:100DB0000F17FFFF0F17FFFF0F16FFFF0E16FFFFA6
:100DC0000E15FFFF0E15FFFF0D14FFFF0D13FFFFA4
:100DD0000C13FFFF0B12FFFF0B11FFFF0A10FFFFA9
:100DE000090FFFFF080EFFFF070DFFFF050BFFFFB9
:100DF000040AFFFF0108FFFF0105FFFF0102FFFFDB
:100E000011241FBECFEFD8E0DEBFCDBF11E0A0E0C0
:100E1000B1E0E2E5FCE602C005900D92AA39B10707
:100E2000D9F713E0AAE9B1E001C01D92AF31B107D3
:100E3000E1F70E942F300C9427360C9400008F921B
:100E40009F92AF92BF92CF92DF92EF92FF920F9359
:100E50001F93CF93DF9300E010E058EC852E912C88
:100E60000E946829AA24BB24DD24CC24CC2009F0CC
:100E700047C0E801C455DD4F0F5F1F4FCE010E94F0
:100E80001136E82E8FEFE816D1F4DD2019F0CC24CE
:100E9000C39436C087E090E00E9411368093FE0232
:100EA0000E948821DF91CF911F910F91FF90EF90C9
:100EB000DF90CF90BF90AF909F908F900895DD20EE
:100EC00019F45801AE0CB11C2E2D30E0C901880F69
:100ED000991F820F931F909581959F4F815C6D2D77
:100EE0000E945E29FE2C07C0CE010E94113660E0F0
:100EF0000E944F22FA942196FF20B1F70E0D111D8A
:100F0000D39488E0D81609F0B1CF88E893E1F401D2
:100F10003197F1F701978501D1F7A2CF0F931F9376
:100F200088E090E00E941136809317020E946829A1
:100F30008AEA90E060E00E94892288E062E00E94F4
:100F40005E2982EA90E060E00E94892288E064E005
:100F50000E945E2987E990E060E00E94892288E093
:100F600065E00E945E2982E890E060E00E948922AC
:100F700088E067E00E945E298EE690E060E00E94D3
:100F8000892291E000ED18E38091C101882391F15D
:100F90008091C101823089F0843019F0813041F5AF
:100FA00018C0809117028F5F8093170280911702FB
:100FB0008933ECF0109317021AC080911702815008
:100FC0008093170280911702803D8CF400931702E2
:100FD0000EC087E090E00E9411368093FE020E94CE
:100FE000682982E6809307031F910F91089591E08D
:100FF0001092C101992341F26091170288E090E0BC
:101000000E94193685E362E00E945E2980911702F2
:1010100087FF03C08CE690E002C08AE690E060E0C3
:101020000E94892280911702992787FD909597FF4A
:1010300003C0909581959F4F959587959595879538
:1010400060E00E94F02F88E690E060E00E94892234
:1010500080911702282F332727FD309537FF03C0D3
:10106000309521953F4F23703070C90134E0880FCF
:10107000991F3A95E1F7821B60E00E94F02F90E003
:1010800083CF809102018150809302018823F1F483
:1010900085E0809302018091000180939A019091F4
:1010A0000101980F90930001903218F08FEF809318
:1010B0000101992319F481E08093010190E080916E
:1010C0009B01882309F491E090939B010895FF927E
:1010D0000F931F93082FF62E6AE00E949835182F61
:1010E000805D6F2D0E944F22005D86EF9FEF189F5D
:1010F000102D1124812F800F6F2D0E944F221F91E0
:101100000F91FF9008951F93182F80E060E00E94D8
:101110005E298091BC02612F0E9467088091BB020A
:10112000612F0E94670886E660E00E945E29809138
:10113000BD02612F0E9467088091BA02612F0E9450
:1011400067081F9108950F931F93082F14E1812FB3
:1011500067E00E945E2986E0602F0E941A22185ED6
:101160001437A9F71F910F910895DF92EF92FF9224
:101170000F931F93E82E9091000180919A01981788
:1011800018F4892F805A02C0892F815068E041E00D
:1011900020E30E2D0E94B12260E083E0D82E15C01E
:1011A00080910001800F612F0E945E2980919B0138
:1011B0008D9DC00111248F0D6E2D0E941A22005F9B
:1011C000003671F7163039F0612FF62EF69400E0F4
:1011D000162F1F5FE5CF1F910F91FF90EF90DF90CB
:1011E00008951F93182F80911102882359F480913C
:1011F0001202882339F49091150280919D0189177C
:1012000009F44EC0109212028091120280931102D2
:1012100080919C01882309F043C081E080939C0168
:101220008091150280939D018091F6020E94733394
:101230008093BC02809101038093BB0280911502D0
:10124000833049F4809105030E9473338093BD027B
:101250008091FB021BC080911502813031F484E142
:101260008093BD028091FA0211C08091040388230B
:1012700039F480910B038093BD028091000306C076
:10128000809100038093BD0280910B038093BA028A
:1012900080919C01815080939C01812F0E94830842
:1012A0001F9108951F93182F0E94B508809106037F
:1012B000882321F480919E01882339F0812F0E9498
:1012C000A3088091060380939E01812F0E94F1085C
:1012D0001F9108950F931F93182F80E060E040E85E
:1012E00020E4012F0E94B12283E680939D01812F8B
:1012F0000E94F108812F0E948308812F0E94B50867
:10130000812F0E94A3081F910F91089581E080937F
:10131000000110929A0180E00E946A0908958038C5
:1013200019F4E0E0F0E027C087FF08C081950E9433
:101330008F09EE27FF27E81BF90B1DC0803419F435
:10134000EFEFFFE718C0A82FBB27A7FDB0958034AB
:101350003CF4AA0FBB1FAD5FBE4FED91FC910BC0DB
:10136000E0E8F0E0EA1BFB0BEE0FFF1FED5FFE4F26
:101370000190F081E02DCF010895805C0E948F09DB
:1013800008951F93FC0180819181A281B3819C010A
:10139000241B350B1EEF2D30310744F0245F314004
:1013A0002CF4408351836283738312C0481759071A
:1013B0006A077B0728F4845F9140A040B04004C0D6
:1013C0008C509E4FAF4FBF4F80839183A283B383D6
:1013D0001F9108952F923F924F925F926F927F924A
:1013E0008F929F92AF92BF92CF92DF92EF92FF9235
:1013F0000F931F93DF93CF93CDB7DEB764970FB6EC
:10140000F894DEBF0FBECDBF270138011401E60EF0
:10141000F71E081F191FE986FA860B871C87EE2422
:10142000FF248701E418F50806091709E982FA8202
:101430000B831C83E4E1EE2EE5E0FE2E012D112D41
:10144000E61AF70A080B190BED82FE820F83188744
:1014500079018A016D877E878F87988BC501D601B8
:101460005C016D01992420E0BAC0B601A5014E0DC2
:101470005F1D601F711F498B5A8B6B8B7C8B6D8539
:101480007E858F859889640D751D861D971D6D87D6
:101490007E878F87988B89899A89AB89BC89895A7D
:1014A0009641A040B0408CF0D094C094B094A094E9
:1014B000A11CB11CC11CD11C48EA56E160E070E0DF
:1014C000498B5A8B6B8B7C8B19C069897A898B8984
:1014D0009C89683C71058105910584F4D094C09481
:1014E000B094A094A11CB11CC11CD11C88EC90E04C
:1014F000A0E0B0E0898B9A8BAB8BBC8B49855A8579
:101500006B857C854C555B4260407040B4F08D85A6
:101510009E85AF85B88984199509A609B7098C55A8
:101520009B42A040B0404CF46D817E818F819885B4
:10153000685B794D8F4F9F4F1AC049855A856B85DF
:101540007C85455155406040704024F58D859E85D1
:10155000AF85B88984199509A609B70985519540C1
:10156000A040B040BCF06D817E818F819885A30141
:1015700092010E94ED35C601B5010E947935E60E53
:10158000F71E081F191FD101ED92FD920D931C93B8
:10159000139704C0222311F4939401C021E0E9843D
:1015A000FA840B851C85E40CF51C061D171DE986C5
:1015B000FA860B871C874D815E816F8178858981D2
:1015C0009A81AB81BC81480F591F6A1F7B1F4D83D5
:1015D0005E836F837887E988FA880B891C898D85FB
:1015E0009E85AF85B88989559240A040B0408F5BF9
:1015F0009B42A040B04008F438CFC801B70124E6B0
:1016000030E040E050E00E94ED35E9A5FAA52083E6
:10161000318342835383892D64960FB6F894DEBFDD
:101620000FBECDBFCF91DF911F910F91FF90EF9033
:10163000DF90CF90BF90AF909F908F907F906F90F2
:101640005F904F903F902F900895EF92FF920F93ED
:101650001F9380E00E94A634A0E0B0E0BC01CD0161
:1016600022E230E040E050E00E9479352FEF3FE782
:1016700040E050E00E94CB3579018A0181E00E9470
:10168000A6342FE030E040E050E0E20EF31E041FED
:10169000151F8295880F880F807C8E0D1F910F91EA
:1016A000FF90EF9008952F923F924F925F926F922A
:1016B0007F928F929F92AF92BF92CF92DF92EF92E2
:1016C000FF920F931F93CF93DF931C01EB012A012D
:1016D0006091E0027091E1028091E2029091E30258
:1016E000E090CE02F090CF020091D0021091D10292
:1016F000A090D402B090D502C090D602D090D7026C
:101700006090CA027090CB028090CC029090CD0283
:101710002223F9F000D0EDB7FEB7D283C183A80130
:101720009701860175016401530141010E94EA0994
:101730008093D2021092D302F10180819181A28123
:10174000B381F20180839183A283B38380911102DC
:101750001DC000D0EDB7FEB732822182A8019701EB
:1017600086017501640153014E010E94EA098093CC
:10177000D2021092D30288819981AA81BB81F201A1
:1017800080839183A283B383809112020F900F9084
:10179000882311F021E001C020E0F20180819181D5
:1017A000A281B38130E7E32E3EEFF32E3FEF032F0C
:1017B0003FEF132FE80EF91E0A1F1B1FE082F18274
:1017C00002831383222399F1F5E5EF16F8E0FF0673
:1017D000F0E00F07F0E01F0728F48053984FAF4F59
:1017E000BF4F20C0FBEAEF16F0E1FF06F0E00F0765
:1017F000F0E01F0728F0805F9A40A040B04012C080
:1018000082E00E94A634892B29F480EA96EFAFEF9C
:10181000BFEF04C080E699E0A0E0B0E08E0D9F1D10
:10182000A01FB11FF20180839183A283B3838091B3
:10183000D202DF91CF911F910F91FF90EF90DF9037
:10184000CF90BF90AF909F908F907F906F905F9060
:101850004F903F902F900895AF92BF92CF92DF921A
:10186000EF92FF920F931F93F62ED42EB22E882361
:1018700061F56091DC027091DD028091DE02909151
:10188000DF0224E630E040E050E00E94ED35122F08
:101890006091EC027091ED028091EE029091EF0266
:1018A00024E630E040E050E00E94ED35812F622FC9
:1018B00044E024E00F2DE4E0EE2E7AE0C72E50E164
:1018C000A52E0E94F834882331F08F2D64E04D2D31
:1018D0002B2D0E9422351F910F91FF90EF90DF90EA
:1018E000CF90BF90AF9008950F931F93182F062F9E
:1018F0008091BC026AE00E949835482F812F6EE1EA
:10190000202F0E942C0C8091BC026AE00E94983526
:10191000812F6DE2492F202F0E942C0C8091BD0257
:101920006AE00E949835482F812F66E4202F0E949C
:101930002C0C8091BD026AE00E949835812F65E5EC
:10194000492F202F0E942C0C1F910F9108950F9367
:101950001F93082F10E08FE3612F0E945E29002360
:1019600011F080EF01C08FE00E9405291F5F173042
:1019700091F78FE367E00E945E29002311F080E277
:1019800001C08FEC0E9405291F910F91089590913D
:1019900015028091A001981739F081E080939F0192
:1019A000809115028093A00180911502813059F138
:1019B000813030F08230C9F1833009F048C03DC039
:1019C00080911102882321F480911202882391F0E2
:1019D00080911202882339F0809102030E947333B0
:1019E0008093BC0204C080911102882381F1809110
:1019F000F80220C08091F6020E9473338093BC02EB
:101A00008091010317C080910403882339F48091E9
:101A10000B038093BC02809100030CC080910003F3
:101A20008093BC0280910B0305C084E18093BC02CB
:101A30008091FA028093BD020895809105030E946F
:101A400073338093BC028091FB028093BD020895A2
:101A5000AF92CF92DF92EF92FF920F931F93D82E07
:101A60000E94C70C6091DC027091DD028091DE0261
:101A70009091DF0224E630E040E050E00E94ED3536
:101A8000122F6091EC027091ED028091EE02909124
:101A9000EF0224E630E040E050E00E94ED35812F77
:101AA000622F44E024E00D2D0E94B122FF24DD20AE
:101AB00011F4FF24F3946091E0027091E1028091AF
:101AC000E2029091E30224E630E040E050E00E9420
:101AD000ED35122F6091CE027091CF028091D0022D
:101AE0009091D10224E630E040E050E00E94ED35D4
:101AF000812F622F44E024E00F2D0E94B1226091DB
:101B0000DC027091DD028091DE029091DF0224E61A
:101B100030E040E050E00E94ED35122F6091EC0281
:101B20007091ED028091EE029091EF0224E630E098
:101B300040E050E00E94ED35812F622F44E024E028
:101B40000FE3EE24CC24C39490E4A92E0E94F83431
:101B5000882319F08D2D0E94A70C2091BE02309190
:101B6000BF024091C0025091C1028091C202909187
:101B7000C302A091C402B091C502281739074A07D1
:101B80005B0779F0CA01B90124E630E040E050E09B
:101B90000E94ED358AE0622F43E02CE00D2D0E947B
:101BA000B1226091C2027091C3028091C4029091EF
:101BB000C50224E630E040E050E00E94ED358AE0C6
:101BC000622F43E02CE00F2D0E94B1222091E80209
:101BD0003091E9024091EA025091EB028091E402D7
:101BE0009091E502A091E602B091E702281739072B
:101BF0004A075B0779F0CA01B90124E630E040E00A
:101C000050E00E94ED3583E7622F43E02CE00D2D7C
:101C10000E94B1226091E4027091E5028091E60297
:101C20009091E70224E630E040E050E00E94ED357C
:101C300083E7622F43E02CE00F2D0E94B1226091D8
:101C4000DC027091DD028091DE029091DF0224E6D9
:101C500030E040E050E00E94ED35022F6091EC0250
:101C60007091ED028091EE029091EF0224E630E057
:101C700040E050E00E94ED35122F6091E402709137
:101C8000E5028091E6029091E70224E630E040E030
:101C900050E00E94ED35E22E802F612F44E024E0D9
:101CA00003E713E0C12EBCE0AB2E0E94F83488237A
:101CB000A9F06091E4027091E5028091E6029091B2
:101CC000E70224E630E040E050E00E94ED3583E793
:101CD000622F43E02CE00F2D0E94B1226091DC02C4
:101CE0007091DD028091DE029091DF0224E630E007
:101CF00040E050E00E94ED35022F6091EC027091BF
:101D0000ED028091EE029091EF0224E630E040E097
:101D100050E00E94ED35122F6091C2027091C30213
:101D20008091C4029091C50224E630E040E050E08A
:101D30000E94ED35E22E802F612F44E024E00AE07E
:101D4000A3E0CA2EFCE0AF2E0E94F8348823A9F04D
:101D50006091C2027091C3028091C4029091C50249
:101D600024E630E040E050E00E94ED358AE0622F4A
:101D700043E02CE00F2D0E94B12210927000809160
:101D80009F01882311F010929F0181E080937000E1
:101D90006D2D0E94740C1F910F91FF90EF90DF90BA
:101DA000CF90AF9008956F927F928F929F92AF9253
:101DB000BF92CF92DF92EF92FF920F931F93809189
:101DC000E0029091E102A091E202B091E3028093DF
:101DD000DC029093DD02A093DE02B093DF0220913B
:101DE000CE023091CF024091D0025091D102209387
:101DF000EC023093ED024093EE025093EF026090BC
:101E0000D4027090D5028090D6029090D7026401DF
:101E10005301A80EB91ECA1EDB1EA092E002B092AA
:101E2000E102C092E202D092E302E090CA02F09096
:101E3000CB020091CC021091CD02D801C701820FD4
:101E4000931FA41FB51F8093CE029093CF02A0933F
:101E5000D002B093D102895A9641A040B040DCF044
:101E600088EA96E1A0E0B0E08093CE029093CF02A2
:101E7000A093D002B093D10288279927DC018E1954
:101E80009F09A00BB10B8093CA029093CB02A09341
:101E9000CC02B093CD028091CE029091CF02A0915E
:101EA000D002B091D102883C9105A105B1051CF585
:101EB00088EC90E0A0E0B0E08093CE029093CF0257
:101EC000A093D002B093D1028091CA029091CB022C
:101ED000A091CC02B091CD02B095A095909581953E
:101EE0009F4FAF4FBF4F8093CA029093CB02A093F6
:101EF000CC02B093CD0284EDA81680E3B80680E052
:101F0000C80680E0D806ECF4C601B50124E630E04E
:101F100040E050E00E94ED3512169CF4611471040B
:101F20008104910409F0CEC08091CA029091CB0245
:101F3000A091CC02B091CD020097A105B10509F0A6
:101F4000C1C08CE998E1A0E0B0E08093E0029093FA
:101F5000E102A093E202B093E3028CE19CE0A0E0F6
:101F6000B0E08093CE029093CF02A093D002B093C2
:101F7000D1020E94250B182F84EF91E0A0E0B0E081
:101F80008093D4029093D502A093D602B093D70247
:101F90008093CA029093CB02A093CC02B093CD025F
:101FA000812F0E94BD09AA2797FDA095BA2FBC01D9
:101FB000CD0124EF31E040E050E00E94793560939C
:101FC000D4027093D5028093D6029093D702A0904A
:101FD000CA02B090CB02C090CC02D090CD02812F2B
:101FE0000E948F097C016091D4027091D50280918A
:101FF000D6029091D7022FEF3FE740E050E00E94D9
:10200000ED352093D4023093D5024093D6025093FD
:10201000D7020027F7FC0095102FC801B701A601D1
:1020200095010E9479352FEF3FE740E050E00E9494
:10203000ED352093CA023093CB024093CC025093EB
:10204000CD026091AE012091AD01261B8AE043E0F4
:1020500000E00E94B1226091B0012091AF01261BE7
:1020600083E743E00E94B1221092AF011092B001C9
:102070001092AD011092AE0181E080939F01109209
:102080001202809112028093110220E08091D4020A
:102090009091D502A091D602B091D70218161906D8
:1020A0001A061B060CF421E081EA91E065EA71E072
:1020B00049EA51E00E94530B8093D2021092D3025E
:1020C0000E94C70C8091C2029091C302A091C402E9
:1020D000B091C5028093BE029093BF02A093C0024C
:1020E000B093C1028091E4029091E502A091E602D2
:1020F000B091E7028093E8029093E902A093EA028C
:10210000B093EB028091D4029091D502A091D602B7
:10211000B091D702B7FF2AC08091E0029091E1020E
:10212000A091E202B091E30280509941A040B040FA
:102130000CF04BC080911102882349F04091A90115
:102140005091AA016091AB017091AC010CC040911B
:10215000CE025091CF026091D0027091D1024059CD
:1021600051406040704082EC92E02CC00097A10585
:10217000B10599F18091E0029091E102A091E20213
:10218000B091E30281509941A040B04034F1809178
:102190001202882349F04091A9015091AA0160914F
:1021A000AB017091AC010CC04091CE025091CF02B6
:1021B0006091D0027091D10240595140604070400E
:1021C00084EE92E00E94C10915C081EA91E065EABF
:1021D00071E049EA51E021E007C081EA91E065EA57
:1021E00071E049EA51E020E00E94530B8093D20253
:1021F0001092D3028091C2029091C302A091C402B6
:10220000B091C502893C9105A105B10564F489EC42
:1022100090E0A0E0B0E08093C2029093C302A0934C
:10222000C402B093C5028091E4029091E502A091AE
:10223000E602B091E702893C9105A105B10564F47D
:1022400089EC90E0A0E0B0E08093E4029093E50296
:10225000A093E602B093E7028091C2029091C3027C
:10226000A091C402B091C50288589341A040B040EB
:1022700064F087E893E1A0E0B0E08093C20290931D
:10228000C302A093C402B093C5028091E40290916E
:10229000E502A091E602B091E70288589341A04080
:1022A000B04064F087E893E1A0E0B0E08093E402FE
:1022B0009093E502A093E602B093E7028091D402E6
:1022C0009091D502A091D602B091D70218161906A6
:1022D0001A061B060CF05DC06091E0027091E102ED
:1022E0008091E2029091E30224E630E040E050E089
:1022F0000E94ED35022F6091CE027091CF02809145
:10230000D0029091D10224E630E040E050E00E94FB
:10231000ED35122F6091E4027091E5028091E602A2
:102320009091E70224E630E040E050E00E94ED3575
:10233000E22E802F612F44E024E003E7E3E0CE2E7D
:102340007CE0A72E0E94F834882319F18091D402F2
:102350009091D502A091D602B091D702B095A095E8
:10236000909581959F4FAF4FBF4F8093D40290932C
:10237000D502A093D602B093D7028CE59BE2A0E0F1
:10238000B0E08093E0029093E102A093E202B09368
:10239000E3028091D4029091D502A091D602B0912F
:1023A000D702B7FF5DC06091E0027091E1028091B9
:1023B000E2029091E30224E630E040E050E00E9427
:1023C000ED35022F6091CE027091CF028091D00244
:1023D0009091D10224E630E040E050E00E94ED35DB
:1023E000122F6091C2027091C3028091C402909139
:1023F000C50224E630E040E050E00E94ED35E22ED8
:10240000802F612F44E024E00AE053E0C52E3CE039
:10241000A32E0E94F834882319F18091D402909160
:10242000D502A091D602B091D702B095A095909513
:1024300081959F4FAF4FBF4F8093D4029093D502A9
:10244000A093D602B093D70284E195E0A0E0B0E07B
:102450008093E0029093E102A093E202B093E30242
:102460001F910F91FF90EF90DF90CF90BF90AF90B2
:102470009F908F907F906F900895FF920F931F937E
:10248000F82E80E060E040E820E40F2D0E94B122A9
:1024900010E0FF2009F411E080E060E040E822E075
:1024A000012F0E94B12280E06EE340E822E00E940A
:1024B000B1226091C2027091C3028091C4029091D6
:1024C000C50224E630E040E050E00E94ED358AE0AD
:1024D000622F43E02CE00E94B1226091E4027091EF
:1024E000E5028091E6029091E70224E630E040E0C8
:1024F00050E00E94ED3583E7622F43E02CE00E941C
:10250000B1220E94C70C8091BC026AE00E949835FB
:10251000482F8EE164E02F2D0E9422358091BC026D
:102520006AE00E9498358DE264E0492F2F2D0E94C9
:1025300022358091BD026AE00E949835482F86E4DA
:1025400064E02F2D0E9422358091BD026AE00E9436
:10255000983585E564E0492F2F2D0E9422358F2D77
:102560000E94A70C1F910F91FF90089584EC99E0B1
:10257000A0E0B0E08093E0029093E102A093E20239
:10258000B093E3028093DC029093DD02A093DE021D
:10259000B093DF028093CE029093CF02A093D0023B
:1025A000B093D1028093EC029093ED02A093EE02DF
:1025B000B093EF028093C2029093C302A093C4022F
:1025C000B093C5028093BE029093BF02A093C00255
:1025D000B093C1028093E4029093E502A093E602D7
:1025E000B093E7028093E8029093E902A093EA0295
:1025F000B093EB020E9448341092CA021092CB02B0
:102600001092CC021092CD021092D4021092D502F8
:102610001092D6021092D70280E00E943D120895D7
:1026200080910A03882341F080911102823021F0C9
:1026300080911202823031F41092120280911202C3
:10264000809311020895DF92EF92FF920F931F93F0
:10265000D82EE62E10E0442309F411E08D2D8E5F74
:102660006E2D4EE026E0012F0E94B122FE2CF39445
:102670008D2D8F5F6F2D41E024E00E94B12282E01A
:10268000E80E8D2D6E2D41E022E00E94B1228D2DAD
:10269000805F6F2D41E024E00E94B1228D2D8F5E7E
:1026A0006E2D41E022E00E94B1221F910F91FF9018
:1026B000EF90DF900895DF92EF92FF920F931F93B8
:1026C000D82E162FEE24442311F4EE24E394612F28
:1026D0006E5F8D2D46E025E10E2D0E94B122FD2C6E
:1026E000F394612F6F5F8F2D44E021E00E94B122AF
:1026F00082E0D80E8D2D612F42E021E00E94B122B0
:10270000195E8F2D612F44E021E00E94B1221F5FEE
:102710008D2D612F42E021E00E94B1221F910F9187
:10272000FF90EF90DF9008958436D1F0853638F42D
:10273000823681F0833680F4813641F507C08636D3
:10274000C1F08636A0F0873609F51AC0862F8C5F57
:10275000642F09C04B5F01C04E5D862F8C5E0BC09D
:10276000862F8C5F6AE3422F0E94231308954E5DEB
:1027700001C04B5F862F642F422F0E945B13089588
:10278000862F8C5F6DE1422F0E9423130895CF9214
:10279000DF92EF92FF920F931F93CF93DF93C82E98
:1027A000D62E022FC7E0D0E011E6E42EFF24C701A9
:1027B0000C2E02C0959587950A94E2F780FF05C01C
:1027C000812F6C2D4D2D202F07C020E0002309F410
:1027D00021E0812F6C2D4D2D0E94941321971F5FB6
:1027E000183629F7DF91CF911F910F91FF90EF904D
:1027F000DF90CF9008950F93082F80E060E040E8CD
:1028000020E40E94B1220F9108950F9380E060E0D0
:1028100040E820E400E00E94B1220F910895FF9269
:102820000F931F93182F062FF22E842F90E04A301B
:1028300028F48E559D4F0E94113604C0895D9D4F2E
:102840000E941136482F812F602F2F2D0E94C71311
:102850001F910F91FF90089520E0442309F421E097
:1028600044E00E94A1230895EF92FF920F931F93DB
:10287000082F809115028823C9F0809115028330BA
:10288000A9F0102F011111E080E465E144E0212F4F
:102890000E94A12380E46AE244E0212F0E94A12348
:1028A00080E466E044E0212F0E94A123809115027C
:1028B0008230F1F480E060E042E0202F0E940F14AB
:1028C0008EE160E040E0202F0E940F148091FA0218
:1028D00064E60E949835892F6AE00E949835482F57
:1028E00088E460E0202F0E940F148091FA0230C02B
:1028F000809115028130B1F580910403882329F479
:1029000010910B03F090000304C010910003F090AD
:102910000B03812F6AE00E949835482F80E060E029
:10292000202F0E940F14812F6AE00E9498358EE1BB
:1029300060E0492F202F0E940F148F2D6AE00E9423
:102940009835482F88E460E0202F0E940F148F2DC7
:102950006AE00E94983586E660E0492F202F0E94A9
:102960000F1480C080911502882329F080911502F0
:10297000833009F077C080911502833029F41091DB
:102980000503E090FB0204C01091F602E090010301
:102990008091F902882399F4812F0E947333F82ED5
:1029A0001C3020F420E0002321F402C020E00111BB
:1029B00021E080E466E044E00E94A12309C020E019
:1029C000011121E080E466E044E00E94A123F12EA1
:1029D00089E08F1548F48F2D6AE00E949835482FC2
:1029E00080E060E0202F07C020E0002309F421E010
:1029F00080E060E048E00E940F148F2D6AE00E94A2
:102A000098358EE160E0492F202F0E940F148E2D03
:102A10006AE00E949835482F88E460E0202F0E94E9
:102A20000F148E2D6AE00E94983586E660E0492FEB
:102A3000202F0E940F1480911302882399F0209177
:102A40000C0311E02127217080E465E144E00E943D
:102A5000A12320910C032127217080E46AE244E045
:102A60000E94A1231F910F91FF90EF900895DF9294
:102A7000EF92FF920F931F93CF93DF93D82EF62EF2
:102A8000E22EF694F694F694EA0100E015C0FE01F9
:102A90001491802F6CE10E949835292F2D0D802FE5
:102AA0000E949835682F6F0D822F0E945E29812F1A
:102AB0000E9405290F5F21960E1548F3DF91CF91F3
:102AC0001F910F91FF90EF90DF900895CF92DF92CA
:102AD000EF92FF920F931F93CF93DF93C82EF62EA2
:102AE000D22EE02EF694F694F694EA0110E019C086
:102AF0000881812F6CE10E949835992341F4812F40
:102B00000E949835682F6F0D8C2D0E945E29EE2053
:102B100019F0802F809501C0802F0E9405291F5F2A
:102B200021961D1528F3DF91CF911F910F91FF90F2
:102B3000EF90DF90CF9008957F928F929F92AF9207
:102B4000BF92CF92DF92EF92FF920F931F93DF938A
:102B5000CF93CDB7DEB7C05ED0400FB6F894DEBFDE
:102B60000FBECDBFA82E962EB22E802EFE0131961E
:102B700080EEDF011D928A95E9F7DA0150E09CE1D1
:102B8000792E81E0C82ED12C7F011CC0F9018491DF
:102B90002F5F3F4FF901749121503040482F09C0F9
:102BA000F801E40FF11DEE0DFF1D8081862B80835F
:102BB0004F5F4717A8F39F5F2E5F3F4F923031F76B
:102BC0005F5F14965B1588F4852F869586958695AC
:102BD000879D80011124852F87706C2D01C0660FA1
:102BE0008A95EAF79D0190E0D1CF8A2D692DAE013B
:102BF0004F5F5F4F20EE082D0E946615C052DF4FD9
:102C00000FB6F894DEBF0FBECDBFCF91DF911F91FD
:102C10000F91FF90EF90DF90CF90BF90AF909F907B
:102C20008F907F9008950F93942F022F592F40E09B
:102C300040505C4F20E40E949C150F9108952F9204
:102C40003F924F925F926F927F928F929F92AF923C
:102C5000BF92CF92DF92EF92FF920F931F93DF9379
:102C6000CF93CDB7DEB7C35FD0400FB6F894DEBFC9
:102C70000FBECDBFC251DF4F8883CE5ED040C15161
:102C8000DF4F6883CF5ED040C051DF4F4883C05FC5
:102C9000D040CF50DF4F0883C15FD040FE0139964E
:102CA00080EEDF011D928A95E9F78091B501282E0B
:102CB0003324D22ECC2440E054E0C40ED51EC051A3
:102CC000DF4F8881C05FD040F82EEE24E40EF51E61
:102CD00088249924B5E06B2E712C6C0E7D1ECE508D
:102CE000DF4FF983E883C25FD040582DC051DF4FDA
:102CF0008881C05FD0408F3F29F41C821B821A82DA
:102D0000198209C0DE011196F70184918D933196E5
:102D1000A615B705D1F79981C451DF4F9883CC5ED2
:102D2000D04030E09F3F09F031E08B818F3F09F0C8
:102D30003F5FD301F60184918D933196CE50DF4FE2
:102D400088819981C25FD040A817B907A1F79D81FA
:102D5000C551DF4F9883CB5ED04090E0C551DF4F27
:102D6000A881CB5ED040AF3F09F091E08F818F3FCB
:102D700009F09F5F292F931708F4232FBA81C351BD
:102D8000DF4FB883CD5ED040569556955695ECE111
:102D90005E9F20011124C4018770907041E050E0D3
:102DA00002C0440F551F8A95E2F7C751DF4F488391
:102DB000C95ED0405E81C651DF4F5883CA5ED040A5
:102DC00083015E010894A11CB11C622F70E0660FA4
:102DD000771F660D771D69C0D5012C912F3F19F023
:102DE0001196BC910AC0C451DF4F2881CC5ED040FF
:102DF000C351DF4FB881CD5ED040F80180818F3F55
:102E0000B1F1A18190E030E0821B930B829DA00183
:102E1000839D500D929D500D1124405F5F4FF5E052
:102E200056954795FA95E1F7420F531F50708A2F38
:102E300090E02B2F30E0821B930B829DD001839D6D
:102E4000B00D929DB00D11245096E5E0B695A79572
:102E5000EA95E1F7A20FB31FB070F201E40FF51F7E
:102E600089E090E08C0F9D1FE80FF91F15C0C55138
:102E7000DF4F8881CB5ED040C651DF4FA881CA5E4C
:102E8000D040C0CF8081C751DF4F9881C95ED0400C
:102E9000892B81934F5F5F4F4A175B0798F30E5F53
:102EA0001F4FA2E0B0E0AA0EBB1E0617170709F0DD
:102EB00093CF0894811C911CE4E0F0E0CE0EDF1E5D
:102EC000EE0EFF1EF0E48F16910409F00ECFC251F2
:102ED000DF4F8881CE5ED040C151DF4F6881CF5E29
:102EE000D040AE01475F5F4F20EECF50DF4F0881EB
:102EF000C15FD0400E946615CD50DF4F0FB6F894E9
:102F0000DEBF0FBECDBFCF91DF911F910F91FF901C
:102F1000EF90DF90CF90BF90AF909F908F907F9079
:102F20006F905F904F903F902F900895EF92FF9297
:102F30000F931F93E82E162FFF24442311F4FF2430
:102F4000F39413508E2D8150612F42E026E00F2D17
:102F50000E94B1221F5F8E2D8250612F44E024E039
:102F60000E94B1221F5F8E2D8350612F46E022E028
:102F70000E94B1221F910F91FF90EF9008951F932F
:102F8000182F80E464E1412F0E94961780E46AE3E1
:102F9000412F0E9496171F91089580911502882352
:102FA00059F480911302882339F010921302809112
:102FB0000C0381700E94BF1708950F931F93CF9346
:102FC000DF93182F80911502882329F08091150234
:102FD000833009F0C8C0909115028091BF01891714
:102FE00009F450C08091B201882309F04BC0809150
:102FF000BA018093B6018091BB018093B7018091A3
:10300000BC018093B8018091BD018093B90180918A
:103010001502882341F48091F6020E947333382F01
:103020002091010307C0809105030E947333382F5C
:103030002091FB02822F6AE00E9498359093BD0197
:10304000822F0E9498358093BC01832F0E9498356F
:103050008093BA01832F0E9498359093BB01812FF2
:103060000E94BF178CE363E247E025E0012F0E9436
:10307000B122809115028093BF018091B2018F5FD0
:103080008093B20180911502882309F046C0809197
:103090001102882321F4809112028823F1F180919A
:1030A000B2018823D1F581E08093B2018091BD0106
:1030B0008093B901809101036AE00E949835909352
:1030C000BD018091BC018093B801809101030E94F1
:1030D00098358093BC01809112028823C1F08091C1
:1030E000F6020E947333282F8091BA018093B601B3
:1030F0008091BB018093B701822F6AE00E949835CE
:103100008093BA01822F0E9498359093BB01109250
:10311000120280911202809311028091BE018117E8
:1031200009F474C08091B201882309F06FC060E097
:1031300040E820E4012F0E94B122812F0E94BF1796
:10314000C0E0D0E0FE01ED57FE4FDE01A654BE4FB9
:10315000808160E04C91212F0E9413162196C4308B
:10316000D10581F753C000911502013009F051C01B
:10317000909115028091BF01891709F447C083EC33
:1031800090E061E00E94D3318091B2018823F1F593
:103190000093B201809115028093BF018091BA0122
:1031A0008093B6018091BB018093B7018091BC01EF
:1031B0008093B8018091BD018093B901809104038F
:1031C000882329F420910B033091000304C020913F
:1031D000000330910B03822F6AE00E9498358093A0
:1031E000BA01822F0E9498359093BB01832F0E94D1
:1031F00098358093BC01832F0E9498359093BD0130
:1032000080E0112309F481E00E94BF17C0E0D0E004
:103210004EC0009115020230C9F7909115028091BD
:10322000BF01891799F38DEB90E061E00E94D331E3
:103230008091B201882351F781E08093B20188EB3D
:1032400090E061E00E94D331809115028093BF012C
:103250008091BA018093B6018091BB018093B70140
:103260008091BC018093B8018091BD018093B90128
:103270000093BA011092BB018091FA026AE00E94A9
:1032800098358093BC018091FA020E949835909302
:10329000BD0180E0112309F481E00E94BF178CE397
:1032A00063E247E025E0012F0E94B122AFCFFE018B
:1032B000EA54FE4F4081FE01E654FE4F2081421742
:1032C00041F0FE01ED57FE4F808160E0012F0E942A
:1032D0001F162196C430D10551F79091B201992360
:1032E00089F18091B5018F5F8093B501813250F1F2
:1032F0001092B5018091BA018093B6018091BB0113
:103300008093B7018091BC018093B8018091BD0189
:103310008093B90191509093B20180911502813050
:1033200059F400E0112309F401E08CE363E247E083
:1033300025E00E94B12206C080911502823011F072
:10334000809115021093BE01DF91CF911F910F91D3
:1033500008950F931F93CF93DF93182F80E060E0C1
:1033600040E820E4012F0E94B1221092B501809123
:10337000F6020E947333382F209101038FEF809360
:10338000B9018093B8018093B7018093B601822F71
:103390006AE00E9498359093BD01822F0E94983573
:1033A0008093BC01832F0E9498359093BB01832F9B
:1033B0000E9498358093BA0117C0C0E0D0E0FE01AA
:1033C000ED57FE4FDE01AA54BE4F9E0126543E4FDC
:1033D000808160E04C91F9012081012F0E941F162D
:1033E0002196C430D10559F78091B5018F5F809344
:1033F000B5018150813208F389EC90E060E00E94D1
:10340000D3318091BA018093B6018091BB01809342
:10341000B7018091BC018093B8018091BD01809378
:10342000B901812F0E94BF171092B501DF91CF9192
:103430001F910F91089580E00E94A9190895269880
:103440002E9A81E080936800EBE6F0E08081806452
:10345000808382E080937C0010927B00EAE7F0E0BA
:103460008EE88083808180648083089580917A00D3
:10347000877F80937A0080917A00806480937A00BD
:1034800080917A0084FFFCCF209178003091790000
:10349000C90108951F920F920FB60F9211242F9316
:1034A0003F934F935F936F937F938F939F93AF93CC
:1034B000BF93EF93FF9378940E94972AFF91EF9127
:1034C000BF91AF919F918F917F916F915F914F913C
:1034D0003F912F910F900FBE0F901F9018951F9244
:1034E0000F920FB60F9211242F933F934F935F9338
:1034F0006F937F938F939F93AF93BF93EF93FF93BC
:103500007894809178009091790022E0803E920733
:1035100028F01092C2011092C00173C022E08336DD
:10352000920798F18091C00182FD6BC08AE090E023
:103530000E949F310E94361A825692408E37910522
:1035400008F05FC082E08093C30112C00E94361A67
:10355000825692408E37910558F08091C0018B7F42
:103560008093C0018091C10184608093C10149C0F2
:103570008091C301882351F78091C00184608093BA
:10358000C0018091C20184603AC08F509140E8F040
:103590008091C00181FD10C08AE090E00E949F31BF
:1035A0000E94361A8E5091408555914050F5809179
:1035B000C10182608093C1018091C00182608093CB
:1035C000C0018091C20182601AC08091C00180FD5B
:1035D0000EC08AE090E00E949F310E94361A8F5000
:1035E000914078F48091C10181608093C101809104
:1035F000C00181608093C0018091C201816080938D
:10360000C20180917A00886480937A00FF91EF91E3
:10361000BF91AF919F918F917F916F915F914F91EA
:103620003F912F910F900FBE0F901F901895EF9222
:10363000FF920F931F93982F8B017A0180E0692FDF
:103640000E945E2988ED90E060E00E948922C80116
:1036500060E00E94892283ED90E060E00E94892270
:10366000C70160E00E9489221F910F91FF90EF90A7
:1036700008951F93182F8BE260E00E945E298091CD
:10368000FE02853DD9F0863D38F4833DA1F0843DAE
:1036900060F4823D21F50CC0873DB1F0873D88F094
:1036A000883DA9F0893DD9F415C08BE591E014C09F
:1036B0008DE491E011C082E491E00EC087E391E0D7
:1036C0000BC080E391E008C089E291E005C08FE182
:1036D00091E002C089E191E0612F0E9489221F914F
:1036E00008951F93182F88E064E00E945E2985EFFB
:1036F00091E060E00E94892280910403882339F4DC
:103700008091F902882319F488EE91E020C080911D
:103710000403882339F48091F902813019F48BED88
:1037200091E015C080910403813039F48091F90251
:10373000882319F48EEC91E00AC080910403813053
:1037400049F48091F902813029F481EC91E0612FF4
:103750000E9489221F9108958F929F92AF92BF92EB
:10376000CF92DF92EF92FF920F937C016B015A018F
:10377000490180E060E340E820E100E00E94B122DE
:1037800086E0B701A6010E94171B87E0B501A401DE
:103790000E94171B0F91FF90EF90DF90CF90BF908A
:1037A000AF909F908F900895AC019B0183EE90E0C5
:1037B000BA014FED50E00E94AC1B08958AEE90E0F4
:1037C00065EE70E00E94D41B08958FEF90E06AEFE1
:1037D00070E046EF50E021EF30E00E94AC1B08950E
:1037E00084E191E06CE071E048E051E024E031E0F8
:1037F0000E94AC1B08950F931F93CF93DF93182F54
:10380000062F8091F902882371F584E761E00E9418
:103810005E291C3010F080E501C081E460E00E9468
:103820004F228DE460E00E944F2280E561E00E941B
:103830005E29812F90E047966CE070E00E94B835D9
:10384000EC018930910524F09C012F5F822F10C07C
:1038500080E260E00E944F229E012F5C822F602F49
:103860000E944F2208C080E561E00E945E29812FFE
:10387000602F0E94F02FDF91CF911F910F9108953B
:103880000F931F93CF93DF93082F162F8091F90288
:103890008823D1F4802F90E047966CE070E00E947E
:1038A000B835EC018930910524F09C012F5F822FFF
:1038B00014C080E260E00E944F229E012F5C822FA4
:1038C000612F0E944F220CC080E260E00E944F22D4
:1038D00080E260E00E944F22802F612F0E94F02F33
:1038E000DF91CF911F910F910895EF92FF920F9367
:1038F0001F93F82E162FE42E022F88E063E00E941B
:103900005E298EE692E060E00E94892280910403A5
:103910008823B1F488E692E060E00E94892260E0AA
:103920000B3009F461E08F2D0E94F02F8FE260E0F0
:103930000E944F2260E00C3009F461E0812F19C031
:10394000809104038130D9F482E692E060E00E9425
:10395000892260E00C3009F461E0812F0E94F02F91
:103960008FE260E00E944F2260E00B3009F461E0DA
:103970008F2D0E94F02F8FE260E00E944F2210E016
:103980000D3009F411E084E1612F0E94F02F8E2D9B
:10399000612F0E94F02F1F910F91FF90EF900895DB
:1039A0001F93182F88E065E00E945E298AE792E065
:1039B00060E00E9489228091B40060E0193609F429
:1039C00061E00E94F02F1F910895DF92EF92FF9225
:1039D0000F931F93E82EF62ED42E122F88E062E06C
:1039E0000E945E298AE892E060E00E94892200E05D
:1039F000153609F401E08E2D602F0E94401C8AE3E9
:103A000060E00E944F2260E0163609F461E08F2DDD
:103A10000E94F02F8AE360E00E944F2260E0173698
:103A200009F461E08D2D0E94F02F8091F902882326
:103A300069F480E260E00E944F228BE08E1510F462
:103A400080E501C081E4602F0E944F221F910F91F9
:103A5000FF90EF90DF90089580910703833099F0F5
:103A60008091C5018F5F8093C5018091F6026091BE
:103A7000010340910C0323E00E94E51C8091C501E5
:103A800081508093C5018091C10180FF02C081E017
:103A900008958091C101882321F48091C201882377
:103AA00021F08AE08093C40104C08091C40188237E
:103AB00011F080E008951092070382E008951F93AB
:103AC000182F88E061E00E945E2985E992E060E0BD
:103AD0000E9489228091050360E0153609F461E0B7
:103AE0000E94FB1B8AE360E00E944F228091FB0250
:103AF00060E0163609F461E00E94F02F1F910895EE
:103B00008091C5018F5F8093C5010E94682988E07C
:103B100060E00E945E2984E792E060E00E948922D2
:103B200080E00E94391B84E00E945F1D8091F602B4
:103B30006091010340910C0323E00E94E51C8091F9
:103B40000B03609100034091FA0225E00E94751C6E
:103B500080E00E94711B86E00E94D01C0E94F01B36
:103B60008091C50181508093C50108951F93182F3E
:103B70000E94801D8091C5018F5F8093C501809157
:103B80000703863011F40E94E51B110F110F110F6E
:103B90001D5F80E0612F47E00E9407308091C501E2
:103BA00081508093C5018AE08093C401809107030E
:103BB0001F910895CF92DF92EF92FF920F931F9380
:103BC00082E00E94B61D082F1091F602D0900103EA
:103BD000F0900C0390C08091C10181FF48C0109209
:103BE000C1018091C5018F5F8093C501033041F40D
:103BF0008FE891E066E871E00E94D41B05E62CC0D6
:103C0000053641F48BE791E062E771E00E94D41B36
:103C100006E622C0063641F48EE691E065E671E0E4
:103C20000E94D41B07E618C00E94F01B1093F602F6
:103C3000D0920103F0920C0380910C036091010378
:103C40004091F60200910003E0900B03C090FA024D
:103C500020E00E942E2B03E0812F6D2D4F2D202F71
:103C60000E94E51C8091C50181508093C50180911F
:103C7000C10182FD04C08091C20182FF3CC010924C
:103C8000C1018091C5018F5F8093C501053659F44C
:103C9000812F90E0019668E170E00E94B835182FFE
:103CA0008093F60215C0063649F48D2D90E00196FA
:103CB0006CE370E00E94B835D82E0AC0073641F494
:103CC0008F2D90E001966CE370E00E94B835F82EDD
:103CD000812F6D2D4F2D202F0E94E51C8091C50155
:103CE00081508093C5018091C20182FF04C088EC9D
:103CF00090E00E949F310E942C1D882309F46BCF15
:103D00001F910F91FF90EF90DF90CF9008951F9338
:103D100081E00E94B61D182F6CC08091C10181FF07
:103D200026C01092C1018091C5018F5F8093C501AB
:103D3000143041F486EB91E06DEA71E00E94D41BEF
:103D400015E60DC0153641F482EA91E069E971E0AB
:103D50000E94D41B16E603C00E94F01B14E0812FC2
:103D60000E945F1D8091C50181508093C5018091A3
:103D7000C10182FD04C08091C20182FF3AC010924D
:103D8000C1018091C5018F5F8093C501153679F41B
:103D90008091050390E0019668E170E00E94B835DB
:103DA000809305036091050381E090E010C0163612
:103DB00081F48091FB0290E001966CE370E00E9438
:103DC000B8358093FB026091FB0282E090E00E9494
:103DD0001936812F0E945F1D8091C501815080930B
:103DE000C5018091C20182FF04C088EC90E00E946E
:103DF0009F310E942C1D882309F48FCF1F910895B5
:103E00001F9385E00E94B61D182F46C08091C10106
:103E100081FF18C01092C1018091C5018F5F80930E
:103E2000C501163021F40E94DE1B19E603C00E9472
:103E3000E51B16E0812F0E94D01C8091C5018150A6
:103E40008093C5018091C10182FD04C08091C201AF
:103E500082FF22C01092C1011936F1F48091B400A2
:103E60008F5F8093B4008091B400813110F0109284
:103E7000B4008091C5018F5F8093C50189E60E94DF
:103E8000D01C8091C50181508093C5016091B40020
:103E900083E090E00E9419360E942C1D882309F4CB
:103EA000B5CF1F910895CF92DF92EF92FF920F93BB
:103EB0001F9383E00E94B61D082FF090000310911D
:103EC0000B03D090FA02FCC08091C10181FF73C046
:103ED0001092C1018091C5018F5F8093C5010530AB
:103EE000B1F480910403882329F487E592E06EE41D
:103EF00072E029C080910403813021F08091040395
:103F00008330B1F583E492E06AE372E00AC00B30DB
:103F100061F4809104038823F9F48FE292E066E271
:103F200072E00E94D41B0CE03BC00C3009F580917C
:103F30000403813021F080910403833041F48BE14C
:103F400092E062E172E00E94D41B0BE029C08091F4
:103F50000403882329F00CC080910403813041F4CC
:103F600087E092E06EEF71E00E94D41B0DE018C074
:103F70000E94F01BD092FA0210930B03F092000300
:103F800080910C03609101034091F60200910003BF
:103F9000E0900B03C090FA0220E00E942E2B05E077
:103FA000812F6F2D4D2D202F0E94751C8091C501F2
:103FB00081508093C5018091C10182FD04C0809130
:103FC000C20182FF7DC01092C1018091C5018F5F47
:103FD0008093C5010B3071F51F5F1D3010F011E0AB
:103FE0005CC01230D1F48D2D90E00E94C72A882346
:103FF00031F08DE18F1518F42DE1F22E4EC08D2D8C
:1040000090E00E94C72A882309F047C08CE18F15F1
:1040100008F043C09CE1F92E40C0143031F0163056
:1040200021F0193011F01B30C1F58EE18F1508F425
:104030004DC033C00C3039F5F3948FE18F1510F477
:10404000FF24F394123099F48D2D90E00E94C72A3A
:10405000882319F08DE18F15E0F18D2D90E00E94FD
:10406000C72A8823D1F48CE18F1598F116C014303B
:1040700031F0163021F0193011F01B3071F48FE15E
:10408000F81639F10AC00D3041F48D2D90E00196FB
:1040900064E670E00E94B835D82E812F6F2D4D2D2B
:1040A000202F0E94751C8091C50181508093C5010D
:1040B0008091C20182FF04C088EC90E00E949F3191
:1040C0000E942C1D882309F4FFCE06C08EE1F82E35
:1040D000E4CFFF24F394E1CF1F910F91FF90EF9075
:1040E000DF90CF9008951F9384E00E94B61D182F93
:1040F00064C08091C10181FF1BC01092C1018091F9
:10410000C5018F5F8093C501183039F481E00E94AA
:10411000711B0E94DE1B18E606C080E00E94711B26
:104120000E94F01B18E08091C50181508093C50169
:104130008091C10182FD04C08091C20182FF3DC017
:104140001092C1011836C9F58091F902882359F0FF
:10415000809104038F5F8093040380910403823075
:1041600010F0109204038091F90290E0882309F482
:1041700091E09093F9028091C5018F5F8093C50112
:104180000E94801D0E94DE1B80E063E247E00E94E7
:10419000073081E00E94711B8091C501815080939E
:1041A000C5016091040384E090E00E94193660919B
:1041B000F90285E090E00E9419360E942C1D8823A8
:1041C00009F497CF1F9108950F931F9387E090E014
:1041D0000E9411368093FE0280E00E94B61D182FC7
:1041E00002ED5AC08091C10181FF29C01092C10126
:1041F0008091C5018F5F8093C501183C61F481E017
:104200000E94391B0E94DE1B8091C5018150809362
:10421000C50119EC14C080E00E94391B0E94F01BFC
:1042200010920A03109207038091FE02883DC8F5A0
:104230006091FE0287E090E00E94193632C08091C2
:10424000C10182FD04C08091C20182FF25C010928D
:10425000C101193C09F58091FE028F5F8093FE0237
:104260008091FE028A3D10F00093FE028091C5010C
:104270008F5F8093C5010E94801D0E94DE1B80E03D
:1042800063E047E00E94073081E00E94391B809183
:10429000C50181508093C5010E942C1D882309F41B
:1042A000A1CF1F910F9108958091FE02833D81F06F
:1042B000843D18F4823D89F408C0843D19F0853DA1
:1042C00061F409C00E94D30E08950E944108089528
:1042D0000E94101308950E94CD1708959091FE0238
:1042E000933D81F0943D18F4923D89F408C0943DCB
:1042F00019F0953D61F409C00E943D1208950E9495
:104300006A0908950E94FB1308950E94A91908954F
:104310001F931FE08091FE02853DD9F0863D38F461
:10432000833DA1F0843D60F4823D39F50CC0873DAA
:1043300099F0873D98F0883DD9F0893DF1F41BC094
:104340000E94B6121AC00E94860917C00E94051466
:1043500014C00E941B1A11C010930A030E94483413
:1043600080E00E94A63483708E528093FE02D2CFEA
:104370000E948E0702C00E941F071F9108951F937D
:10438000182F80910A03882381F1809111028130D6
:1043900021F080911202813041F580911102882331
:1043A00019F082E08093110280911202882319F0A3
:1043B00082E08093120280910A03815080930A0365
:1043C00080910A03882389F48FE080930A03809107
:1043D000FE028F5F8093FE028091FE02863D19F4FB
:1043E00082ED8093FE020E9488218091FE02833D2F
:1043F00091F0843D18F4823DA9F409C0843D19F080
:10440000853D81F40CC0812F0E94280D0BC0812FA7
:104410000E94520907C0812F0E94341403C0812FCB
:104420000E94DD171F91089508958B5C9F4F0E9495
:1044300011360895EF92FF920F931F93CF93DF935E
:10444000F82EE62E00E010E008C0CE018B5E9D4FF6
:104450000E9411368F5F180F0F5FC12FD0E00F152C
:10446000A0F3CE018B5E9D4F0E941136082FCA5ECD
:10447000DD4F10E00BC0CE010E94113691E0E9162D
:1044800009F480950E9405291F5F2196101798F363
:10449000DF91CF911F910F91FF90EF900895DF92E0
:1044A000EF92FF920F931F93CF93DF93D62E95E059
:1044B000899FC0011124EC01CB56D0408E012AE91E
:1044C000E22E2FEFF22EE80EF91EDD2029F0CE01AC
:1044D0000E941136809503C0C8010E9411360E94C7
:1044E000052921960F5F1F4FCE15DF0571F7DD20DF
:1044F00011F08FEF01C080E00E94052980E00E944A
:104500005129DF91CF911F910F91FF90EF90DF9094
:1045100008950F931F93CF93DF93EC01062F10E0C4
:1045200004C0602F0E944F221F5FFE01E10FF11DAA
:1045300084918823B1F7DF91CF911F910F91089556
:104540001F93CF93DF93EC01162F04C0612F0E94BD
:104550004F22219688818823C9F7DF91CF911F913F
:1045600008952F923F924F925F926F927F928F9217
:104570009F92AF92BF92CF92DF92EF92FF920F93F2
:104580001F93CF93DF93282E162F342EF22E402E1A
:10459000C62FD0E0C770D070209709F45BC0562EAC
:1045A000569456945694EE2467E0C62EC1228C2C65
:1045B000992487FC90945E01A20EB11C51E0652EF7
:1045C000712C35C0DE2CD20C8D2D652D0E945E29FC
:1045D0000E94B8280E94B828082F40E050E015C07B
:1045E00081E0481641F4C30102C0880F991F2A9543
:1045F000E2F7082B08C0C30102C0880F991F2A9553
:10460000E2F7809508234F5F5F4F9A01280D391D0F
:104610002A153B0524F48C2D840F883009F78D2D45
:10462000652D0E945E29802F0E940529E394E314E2
:1046300048F22F2D30E088E090E08C1B9D0B821714
:10464000930714F0FF2404C0812F87708850F80E60
:10465000187F185FE12EE694E694E694C12FD0E02F
:10466000CF0DD11D43E0D595C7954A95E1F712C00E
:10467000822D6E2D0E945E2910E009C081E048164F
:1046800011F48FEF01C080E00E9405291F5F131510
:10469000A8F3E3948E2D90E08C179D074CF32F2DFB
:1046A0002770C9F100E0C22FD0E031E0A32EB12C79
:1046B00030C0F02EF20C8F2D6E2D0E945E290E94CC
:1046C000B8280E94B828182F20E030E017C081E0F9
:1046D000481649F4C501022E02C0880F991F0A949A
:1046E000E2F7182B09C0C501022E02C0880F991FDE
:1046F0000A94E2F7809518232F5F3F4F2C173D0750
:1047000034F38F2D6E2D0E945E29812F0E94052982
:104710000F5F031570F280E00E945129DF91CF9165
:104720001F910F91FF90EF90DF90CF90BF90AF90CF
:104730009F908F907F906F905F904F903F902F90C1
:1047400008952F923F924F925F926F927F928F9235
:104750009F92AF92BF92CF92DF92EF92FF920F9310
:104760001F93DF93CF9300D00F92CDB7DEB7382ED3
:10477000462E522E262E281AA42EBB24C501880FA1
:10478000991F22273327281B390B2D5F3F4F3B836F
:104790002A838824992466247724362F3219398372
:1047A000182DD42CDA187501EE0CFF1C882D830D02
:1047B0006D2D41E02E2D052D0E94B122832D8819EB
:1047C0006D2D41E02E2D0E94B122F42CF818110F0E
:1047D00089818A0D6F2D41E0212F0E94B1228D2DFC
:1047E00082196F2D41E0212F0E94B1228A819B8185
:1047F00097FF06C00696860D971D9B838A8311C07E
:10480000EA81FB813A96C4018A199B09880F991F96
:10481000880F991FE80FF91FFB83EA830894A1080A
:10482000B1080894811C911C24E030E0620E731ED4
:10483000A814B9040CF0B4CF0F900F900F90CF9143
:10484000DF911F910F91FF90EF90DF90CF90BF907D
:10485000AF909F908F907F906F905F904F903F9020
:104860002F900895DF92EF92FF920F931F93F82EEF
:10487000162FD42EE22E41E001E00E94B1228F2DAE
:1048800081508D0D612F41E02E2D0E94B1228F2D80
:10489000612F4D2D21E00E94B12211501E0D8F2D50
:1048A000612F4D2D21E00E94B1221F910F91FF90A9
:1048B000EF90DF900895EF92FF920F931F93F82EE1
:1048C000162F062F069506950695602F0E945E29E5
:1048D0000E94B8280E94B828E82E8F2D602F0E94D1
:1048E0005E29177081E090E002C0880F991F1A9529
:1048F000E2F780958E210E94052980E00E945129CF
:104900001F910F91FF90EF900895EF92FF920F93F8
:104910001F93F82E162F062F069506950695602FE5
:104920000E945E290E94B8280E94B828E82E8F2D88
:10493000602F0E945E29177081E090E002C0880F0E
:10494000991F1A95E2F78E290E94052980E00E949E
:1049500051291F910F91FF90EF9008953F924F9230
:104960005F926F927F928F929F92AF92BF92CF92FF
:10497000DF92EF92FF920F931F93CF93DF93D82E86
:10498000C62E322E462E481AE42EFF24C701880F69
:10499000991FCC27DD27C81BD90B23965D2C662ECB
:1049A000762EAA24BB248824992481E0381641F568
:1049B0000E2D0C0D8D2D602F0E9485249C2D9E198F
:1049C000192F8D2D692F0E948524852D602F0E941F
:1049D0008524852D612F0E9485240419802F662D42
:1049E0000E948524802F672D0E9485241419812F11
:1049F000662D0E948524812F672D0E94852427C063
:104A00000E2D0C0D8D2D602F0E945B248C2D8E1988
:104A1000182F8D2D612F0E945B24852D602F0E9401
:104A20005B24852D612F0E945B240419802F662D45
:104A30000E945B24802F672D0E945B241419812F14
:104A4000662D0E945B24812F672D0E945B24D7FF77
:104A500004C02696C80DD91D0DC02A96C5018E1911
:104A60009F09880F991F880F991FC80FD91F089495
:104A7000E108F1080894A11CB11C84E090E0880EC4
:104A8000991ED3945A9463947A94EA14FB040CF01C
:104A90008CCFDF91CF911F910F91FF90EF90DF901E
:104AA000CF90BF90AF909F908F907F906F905F90CE
:104AB0004F903F900895459A449A10920D0210929B
:104AC0000C0210920F0210920E0280E28093B80046
:104AD000ECEBF0E08081846080831092C6018081DD
:104AE000816080838081806480837894089580E2EF
:104AF0008093B800089590E0611191E08E7F982B2B
:104B00009093BA00089590930D0280930C0208953B
:104B100090930F0280930E020895ECEBF0E08081F9
:104B20008F70806A80830895ECEBF0E080818F7055
:104B3000806D808308958091BC0087FFFCCF08952D
:104B40008093BB00ECEBF0E080818F708068808305
:104B50000895882329F08091BC008F70806C04C078
:104B60008091BC008F7080688093BC000895809114
:104B7000BB0008958091B9000895982F8091C601D7
:104B80008823E1F782E08093C6019E7F9093C7015E
:104B9000A8ECB1E0FA0102C081918D938E2F841BA5
:104BA0008617D0F31092E8016093E9018091BC0070
:104BB0008F70806A8093BC000895982F8091C60101
:104BC0008823E1F783E08093C60191609093C70149
:104BD00010920A0260930B028091BC008F70806A71
:104BE0008093BC008091C6018823E1F7AAEEB1E072
:104BF000FA0102C08D9181938E2F841B8617D0F30A
:104C00000895982FFA018091BC008E7F8093BC009C
:104C10008091BC008F70806A8093BC008091BC0042
:104C200087FFFCCF9E7F9093BB008091BC008F706C
:104C300080688093BC008091BC0087FFFCCF80918E
:104C4000B900883189F091E012C080818093BB0067
:104C50008091BC008F7080688093BC008091BC0004
:104C600087FFFCCF31966150662379F790E0809101
:104C7000BC008F70806D8093BC008091BC0084FF6D
:104C8000FCCF8091BC0081608093BC00892F089587
:104C90001F93CF93DF93982F162FEA018091BC00CA
:104CA0008E7F8093BC008091BC008F70806A80935F
:104CB000BC008091BC0087FFFCCF91609093BB004B
:104CC0008091BC008F7080688093BC008091BC0094
:104CD00087FFFCCF8091B900803469F091E018C063
:104CE0008FEF0E94A9258091BC0087FFFCCF8091A7
:104CF000BB0089931150123098F780E00E94A925DB
:104D00008091BC0087FFFCCF8091BB00888390E03E
:104D10008091BC008F70806D8093BC008091BC003E
:104D200081608093BC00892FDF91CF911F910895FE
:104D30008091C60108951F920F920FB60F92112411
:104D40002F933F934F935F936F937F938F939F9393
:104D5000AF93BF93EF93FF938091B900887F88361C
:104D600009F4CBC0893688F5803309F495C08133C6
:104D7000B0F4803109F45AC0813138F4882309F441
:104D80003EC1883009F048C151C0803209F484C066
:104D9000883209F453C0883109F03EC14FC08834CD
:104DA00009F47AC0893438F4883309F478C080343F
:104DB00009F032C192C0883509F45DC0803609F42B
:104DC0009CC0803509F028C174C0803A09F4BEC087
:104DD000813AB0F4803809F49BC0813838F48037C8
:104DE00009F48BC0883709F017C187C0803909F4EE
:104DF0008FC0883909F4A1C0883809F00DC19DC061
:104E0000883B09F4D1C0893B38F4883A09F4B6C02C
:104E1000803B09F001C1B2C0883C09F4E0C0883F82
:104E200009F4E7C0803C09F0F7C0D9C080EF93E0F7
:104E300060E00E94D3318091C70114C081ED93E0FE
:104E400060E00E94D3319091E8018091E9019817C8
:104E500008F0DAC0E92FF0E0E853FE4F80819F5F51
:104E60009093E8018093BB008091BC008F708068B4
:104E70008093BC00D1C08CEB93E060E00E94D33102
:104E800080910A029091BB00E82FF0E0E651FE4FBE
:104E900090838F5F80930A0286E993E0B2C082E834
:104EA00093E060E00E94D3318091BC008F708068F5
:104EB000AFC08EE693E060E00E94D3318091BB00EA
:104EC00090910A02E92FF0E0E651FE4F80839F5F48
:104ED00090930A0290E00E942A328BE593E060E012
:104EE0000E94D33120910A0230E080910B0290E0C1
:104EF00001972817390734F51EC088E493E060E075
:104F00000E94D33185E08093C60110920A0262C0EC
:104F100084E393E060E00E94D33180910A02909193
:104F2000BB00E82FF0E0E651FE4F90838F5F809347
:104F30000A02803238F48FEF06C08FE193E060E020
:104F40000E94D33180E00E94A92566C08CE093E0E6
:104F500060E00E94D3318091BC008F70806C8093A0
:104F6000BC00E0910C02F0910D02309709F452C0A0
:104F700080910A026AEE71E009954CC089EF92E0D7
:104F800060E00E94D33184E08093C601E0910E027C
:104F9000F0910F02309731F080E268EC71E00995F2
:104FA0008093E9011092E80185EE92E060E00E94B2
:104FB000D3319091E801E92FF0E0E853FE4F808172
:104FC0008093BB009F5F9093E8018091E90198175F
:104FD00008F04ACF8091BC008F70806C49CF83EC81
:104FE00092E060E00E94D3318091BC008F70806CB1
:104FF0000FC084EB92E060E00E94D3310DC083EAE1
:1050000092E060E00E94D3318091BC008F70806D8F
:105010008093BC001092C601FF91EF91BF91AF91B8
:105020009F918F917F916F915F914F913F912F91C0
:105030000F900FBE0F901F9018952F982D982C98B9
:1050400040985A98279A259A249A389A529A8BB15E
:105050008F708BB985B1807F85B98AB1806F8AB92D
:1050600084B18F6084B9089540985A98882319F0C4
:10507000813021F402C0409A08955A9A0895F89414
:105080000E9434288BB1806F8BB985B18F6085B950
:105090002F988AB18F708AB984B1807F84B92D9A94
:1050A0002C9A000000000AC02C98000000000000AC
:1050B00000002C9A000000000000000089B193B1AC
:1050C00087FDF2CF2C982D988AB1806F8AB984B170
:1050D0008F6084B9789408951F93162FF8940E94D6
:1050E0003F282F982D982C9A8AB1806F8AB984B165
:1050F0008F6084B98BB18F708BB99BB1812F807F0A
:10510000892B8BB985B1807F85B985B11F70812BC3
:1051100085B9000000000000000000000000000051
:1051200000002C9878941F910895F8940E943F28CD
:105130002F988AB18F708AB984B1807F84B92D9AF3
:105140002C9A000000000000000000000000000099
:10515000000029B183B12C982D989AB1906F9AB91B
:1051600094B19F6094B978948F70207F822B0895BA
:10517000F8948091F00282958695869583700E94BE
:105180003F282F9A8AB18F708AB984B1807F84B901
:105190002D9A2C9A00000000000000000000000082
:1051A0000000000099B183B12C982D9878948F70ED
:1051B000907F892B089508958093F00280E060E449
:1051C0000E946C281092F20281E060E40E946C2838
:1051D0001092F4028091F002682F6F7360648295E0
:1051E0008695869583700E946C2808951F93182FCA
:1051F0008093F102186B80E0612F0E946C2881E09F
:10520000612F0E946C281F9108950F931F93182FF0
:105210000091F0020295069506950370F894802F90
:105220000E943F282F9A2D982C9A8AB1806F8AB9B4
:1052300084B18F6084B98BB18F708BB99BB1812F92
:10524000807F892B8BB985B1807F85B985B11F702F
:10525000812B85B900000000000000000000000064
:10526000000000002C987894E02FF0E0EE0FFF1F74
:10527000EE50FD4F80818F5F80838091F0028F5FC1
:105280008093F00287FF0AC08091F1028F5F8093C4
:10529000F1020E94F62880E00E94DC281F910F9105
:1052A00008951F93182F106C80E0612F0E946C28C6
:1052B00081E0612F0E946C281F9108951F93182F81
:1052C000862F0E94F628812F0E94DC281F910895C6
:1052D0000F931F9300E080E0602F0E945E2910E092
:1052E00080E00E9405291F5F1038D1F70F5F08305A
:1052F00091F71F910F91089580E00E94512980E05D
:1053000060E00E945E291092F2021092F302109265
:10531000F4021092F50208950E941D2880E06FE3C8
:105320000E946C2881E06FE30E946C280E9468292B
:105330000E947C290895982F86E0689F802D112473
:10534000692F0E945E29089508951F920F920FB64B
:105350000F9211242F933F934F935F936F937F93FB
:105360008F939F93AF93BF93EF93FF934091C600AA
:10537000E0919A02F0919B02CF01019660E870E003
:105380000E94B8359C0180919C0290919D02281743
:10539000390739F0E65EFD4F408330939B0220933E
:1053A0009A02FF91EF91BF91AF919F918F917F9161
:1053B0006F915F914F913F912F910F900FBE0F9082
:1053C0001F90189580919A0290919B0280589F4F50
:1053D00020919C0230919D02821B930B60E870E04B
:1053E0000E94B835089540919C0250919D02809191
:1053F0009A0290919B028417950719F42FEF3FEFC3
:105400000FC0FA01E65EFD4F2081CA01019660E8F7
:1054100070E00E94B83590939D0280939C0230E02A
:10542000C90108951F920F920FB60F9211248F9306
:105430009F9388B198E0892788B99F918F910F90A9
:105440000FBE0F901F9018951F920F920FB60F92DC
:1054500011248F939F938091A0029091A102892B98
:1054600049F08091A0029091A10201979093A1022E
:105470008093A0028091080390910903892B49F041
:1054800080910803909109030197909309038093F9
:10549000080380910603882389F180919E029091F0
:1054A0009F02892B59F58091FC029091FD02892B76
:1054B000E1F48CE291E09093FD028093FC028091F4
:1054C0008100882379F41092800089E08093810024
:1054D00083E080936F0088EE93E09093890080933F
:1054E000880003C01092810043988091FC02909143
:1054F000FD0201979093FD028093FC029F918F9192
:105500000F900FBE0F901F9018951F920F920FB61D
:105510000F9211248F939F9388B198E0892788B9BF
:105520009F918F910F900FBE0F901F9018951E9B0B
:1055300016C080910303882349F11092030310924F
:105540000D0310929F0210929E0280910603882301
:10555000E9F010920603109281004398089580911B
:105560000303882399F481E08093030310929F0240
:1055700010929E0283E0809315028091FE02853D89
:1055800011F083E001C085E0809314020895FC01CE
:1055900083709070892B39F4CF0164E670E00E942B
:1055A000A435892B49F420E030E0CF0160E971E0B7
:1055B0000E94A435892B11F421E030E0822F089558
:1055C0000895482F6AE00E949835282F30E084E043
:1055D000220F331F8A95E1F7842F0E949835892F77
:1055E000822B089588E592E090939F0280939E021B
:1055F000109281004398109207030895FC01818165
:10560000805120819AE0299F90011124820F0895F2
:10561000FF920F931F93F62E1092800001E810E086
:1056200029E0F801208323E020936F009C0140E0F3
:1056300050E060E079E08DE390E00E94ED3530933A
:105640008900209388008F2D90E00E949F31F801FF
:10565000108243981F910F91FF900895CF92DF928F
:10566000EF92FF920F931F93DF93CF93CDB7DEB7E7
:1056700028970FB6F894DEBF0FBECDBF162FF42EBD
:10568000D22EFE01319698E0DF011D929A95E9F73E
:1056900019820E94E12A8A83812F0E94E12A8B834A
:1056A0008F2D0E94E12A8C838D2D0E94E12A8D830B
:1056B000802F0E94E12A8E838E2D0E94E12A8F8303
:1056C0008C2D0E94E12A8887F89480ED68E0AE0175
:1056D0004F5F5F4F0E9401267894882399F080EAFB
:1056E0009FE064E60E94082B84E690E00E949F31D0
:1056F00080EA9FE064E60E94082B88EE93E00E9417
:105700009F31EDCF28960FB6F894DEBF0FBECDBF08
:10571000CF91DF911F910F91FF90EF90DF90CF908D
:1057200008956F927F928F929F92AF92BF92CF9285
:10573000DF92EF92FF920F931F93DF93CF93CDB73A
:10574000DEB72C970FB6F894DEBF0FBECDBFA82EE4
:1057500088E090E00E941136809317028091170232
:10576000992787FD909597FF03C0909581959F4F4E
:105770009595879595958795809318028091170246
:10578000992787FD909597FF03C0909581959F4F2E
:10579000837090709C0144E0220F331F4A95E1F71B
:1057A000281B390B209319028091170287FF0AC02A
:1057B0008091180281958093180280911902819539
:1057C00080931902DE011196EEE8F1E08CE0019081
:1057D0000D928150E1F7A8C10E94F329282F805231
:1057E000803608F0ABC1243229F49092B1021092B5
:1057F000B002A4C18091B102882309F49FC19091A5
:10580000B0022C3251F48F5F8093B102992311F4CE
:105810001092A5021092B0020FC09A3068F4E92FDE
:10582000F0E0EB55FD4F2083E92FEF5FE093B002EE
:10583000F0E0EB55FD4F10828091B102823091F47F
:1058400085EA92E067E871E00E940836009739F433
:105850007092B1021092B0021092A5026FC1109224
:10586000B1026CC1843009F0BCC06092B102AA20C0
:1058700061F01092AB0284E465E00E945E2985EA43
:1058800092E060E00E94A02259C1F8942091AA02FF
:1058900020518091A9028B9DC0011124280F2093D3
:1058A0000C032091A80220518091A7028B9DC0017A
:1058B0001124280F209301032091A60220518091EA
:1058C000A5028B9DC0011124280F2093F60210928F
:1058D000A4028091190287FF20C080911902909143
:1058E0000103282F332727FD309537FF03C030955C
:1058F00021953F4F892F90E08217930774F4809190
:10590000180281508093180280910103909119022E
:10591000845C890F8093010315C0809101039091ED
:105920001902980F90930103809101038D3350F079
:10593000809101038C5380930103809118028F5F43
:10594000809318028091180287FF1DC08091180271
:105950009091F602282F332727FD309537FF03C09B
:10596000309521953F4F892F90E0821793075CF483
:105970008092A4028091F60290911802885E890FAD
:105980008093F60212C08091F60290911802980F4F
:105990009093F6028091F602893138F08091F602F8
:1059A00088518093F6029092A40210910C03F0901B
:1059B0000103D090F60280910B03609100034091A7
:1059C000FA020E942F33282F00910003E0900B036E
:1059D000C090FA02812F6F2D4D2D0E942E2B7894AE
:1059E000ADC08D3009F0AAC0AA2061F084E464E063
:1059F0000E945E2985EA92E060E00E94A022109257
:105A0000B10290C0F8942091A60220518091A50285
:105A10003AE0839FC0011124280F209300032091B6
:105A2000A80220518091A702839FC0011124280F52
:105A300020930B032091AA0220518091A902839FF9
:105A4000C0011124280F2093FA028091FA0290E0FD
:105A500083709070892B11F08CE101C08DE19091E1
:105A6000A402992309F443C08A8380910003980F0C
:105A700090930003809100038823E1F480910B034D
:105A8000815080930B0380910B03882351F4809104
:105A9000FA0281508093FA028CE080930B038FE12D
:105AA00006C080910B03FE01E80FF11D80818093F9
:105AB00000031DC09091000380910B03FE01E80FCD
:105AC000F11D8081891798F491E0909300038091F3
:105AD0000B038F5F80930B0380910B038D3038F0A5
