:100000000C9402060C941F060C941F060C948B187B
:100010000C941F060C941F060C941F060C941F06CC
:100020000C941F060C94B32C0C941F060C943928C6
:100030000C941F060C94C6270C94D8270C941F060A
:100040000C941F060C941F060C941F060C941F069C
:100050000C941F060C94B0180C941F060C941F06E9
:100060000C94BC240C941F0605A84CCDB2D44EB9F8
:100070003836A9020C50B9918688083CA6AAAA2A4B
:10008000BE000000803F0004020403647261770038
:10009000796561722100646174652100646F6E6529
:1000A00020696E6974009E4932433A204255535F7D
:1000B0004552524F520D0A004932433A204E4F5F8B
:1000C000494E464F0D0A004932433A2053542D3EC3
:1000D000444154415F4E41434B206F72204C415389
:1000E000545F444154410D0A004932433A2053546D
:1000F0002D3E444154415F41434B0D0A0049324378
:100100003A2053542D3E534C415F41434B0D0A005E
:100110004932433A2053522D3E53525F53544F506D
:100120000D0A004932433A2053522D3E4441544176
:100130005F4E41434B0D0A004932433A2053522D42
:100140003E444154415F41434B0D0A004932433A1A
:100150002053522D3E534C415F41434B0D0A004901
:1001600032433A204D522D3E534C415F41434B0D9B
:100170000A004932433A204D522D3E444154415FDA
:1001800041434B0D0A004932433A204D542D3E4124
:1001900052425F4C4F53540D0A004932433A204DAE
:1001A00054522D3E534C415F4E41434B206F7220C1
:1001B0004D542D3E444154415F4E41434B0D0A0086
:1001C0004932433A204D522D3E444154415F4E4105
:1001D000434B0D0A004932433A204D542D3E534CB7
:1001E000415F41434B206F7220444154415F414382
:1001F0004B0D0A004932433A204D2D3E5354415293
:10020000540D0A000C0FFFFF0A11FFFF0912FFFF38
:10021000080B1013070B1014060A1115060A111506
:10022000050A1116050A1116040A111704091217F6
:1002300003091218030912180309121802091218E7
:1002400002091219020912190209121902091219D6
:100250000109121A0109121A0109121A0109121AC6
:100260000109121A0109121A0109121A0109121AB6
:100270000109121A0109121A0009121B0009121BA6
:100280000009121B0009121B0009121B0009121B96
:100290000009121B0109121A0109121A0109121A86
:1002A0000109121A0109121A0109121A0109121A76
:1002B0000109121A0109121A020912190209121966
:1002C0000209121902091219020912180309121857
:1002D000030912180309121804091217040A111746
:1002E000050A1116050A1116060A1115060A111536
:1002F000070B1014080B10130912FFFF0A11FFFF60
:100300000C0FFFFF1111FFFF0F11FFFF0E11FFFF79
:100310000C11FFFF0B11FFFF0911FFFF0811FFFF79
:100320000611FFFF0511FFFF0311FFFF0205081172
:10033000020309110911FFFF0911FFFF0911FFFF56
:100340000A11FFFF0A11FFFF0A11FFFF0A11FFFF49
:100350000A11FFFF0A11FFFF0A11FFFF0A11FFFF39
:100360000A11FFFF0A11FFFF0A11FFFF0A11FFFF29
:100370000A11FFFF0A11FFFF0A11FFFF0A11FFFF19
:100380000A11FFFF0A11FFFF0A11FFFF0A11FFFF09
:100390000A11FFFF0A11FFFF0A11FFFF0A11FFFFF9
:1003A0000A11FFFF0A11FFFF0A11FFFF0A11FFFFE9
:1003B0000A11FFFF0A11FFFF0A11FFFF0A11FFFFD9
:1003C0000A11FFFF0A11FFFF0A11FFFF0A11FFFFC9
:1003D0000A11FFFF0A11FFFF0A11FFFF0A11FFFFB9
:1003E0000912FFFF0912FFFF0912FFFF0912FFFFA9
:1003F0000812FFFF0713FFFF0416FFFF0218FFFF9D
:100400000218FFFF0C10FFFF0A12FFFF0913FFFF86
:100410000814FFFF0715FFFF0616FFFF0616FFFF74
:100420000517FFFF0517FFFF0417FFFF0418FFFF65
:1004300003060D1803050E1803040F1802040F1805
:1004400002031018020310180102111801021118FA
:100450001118FFFF1118FFFF1118FFFF1118FFFF00
:100460001118FFFF1118FFFF1117FFFF1117FFFFF2
:100470001117FFFF1116FFFF1016FFFF1015FFFFEA
:100480001015FFFF0F14FFFF0F14FFFF0F13FFFFE7
:100490000E13FFFF0E12FFFF0E11FFFF0D11FFFFE6
:1004A0000D10FFFF0C0FFFFF0C0FFFFF0B0EFFFFE8
:1004B0000B0DFFFF0A0D1B1B0A0C1B1B090B1A1B44
:1004C000090B1A1B080A191B0709191A0708181A19
:1004D0000608141A061AFFFF051AFFFF051AFFFF88
:1004E0000419FFFF0319FFFF0319FFFF0219FFFFA4
:1004F0000219FFFF0119FFFF0019FFFF0018FFFF9E
:100500000018FFFF0C11FFFF0A14FFFF0915FFFF82
:100510000816FFFF0716FFFF0617FFFF0517FFFF6F
:1005200004080B1804060D1803050E1803040F1811
:100530000204101802031018020310180202101807
:100540001018FFFF1018FFFF1018FFFF1017FFFF14
:100550001017FFFF1016FFFF1016FFFF0F15FFFF0C
:100560000F14FFFF0E14FFFF0D15FFFF0C16FFFF0A
:100570000B17FFFF0918FFFF0918FFFF0919FFFFFD
:100580000B19FFFF0C19FFFF0E1AFFFF0F1AFFFFD9
:10059000101AFFFF111AFFFF121AFFFF121AFFFFB6
:1005A000131AFFFF131AFFFF141AFFFF141AFFFF9D
:1005B000141AFFFF141AFFFF141AFFFF151AFFFF8A
:1005C000151AFFFF1519FFFF1519FFFF1519FFFF7A
:1005D0000206151801071418010814180009141749
:1005E00000091416000A1316010B1215010C111440
:1005F0000113FFFF0212FFFF0311FFFF040FFFFFB4
:10060000060CFFFF1317FFFF1217FFFF1217FFFF64
:100610001117FFFF1117FFFF1017FFFF1017FFFF44
:100620000F17FFFF0F17FFFF0E17FFFF0E17FFFF3C
:100630000D17FFFF0D17FFFF0C17FFFF0C17FFFF34
:100640000B0D0F170B0D0F170A0C0F170A0C0F17B6
:10065000090B0F17090B0F17080A0F17080A0F17B6
:1006600007090F1707090F1706080F1706080F17B6
:1006700005070F1705070F1704060F1704060F17B6
:1006800003050F1703050F1702040F1702040F17B6
:1006900001030F1701030F1700020F1700020F17B6
:1006A00000020F17001BFFFF001BFFFF001BFFFFD7
:1006B000001BFFFF001BFFFF001BFFFF001BFFFFD6
:1006C000001BFFFF001BFFFF001BFFFF001BFFFFC6
:1006D0000F17FFFF0F17FFFF0F17FFFF0F17FFFF8A
:1006E0000F17FFFF0F17FFFF0F17FFFF0F17FFFF7A
:1006F0000F17FFFF0F17FFFF0F17FFFF0F17FFFF6A
:100700000F17FFFF081BFFFF081AFFFF081AFFFF64
:10071000081AFFFF071AFFFF0719FFFF0719FFFF5E
:100720000719FFFF0719FFFF0618FFFF0618FFFF55
:100730000618FFFF0607FFFF0607FFFF0607FFFF7C
:100740000507FFFF0506FFFF0506FFFF0506FFFF84
:100750000506FFFF040CFFFF040FFFFF0411FFFF5E
:100760000412FFFF0414FFFF0414FFFF0315FFFF33
:100770000316FFFF0316FFFF0317FFFF0317FFFF1B
:100780000218FFFF0218FFFF0A18FFFF0C19FFFFF6
:100790000E19FFFF1019FFFF1119FFFF1219FFFFBC
:1007A0001319FFFF1319FFFF1419FFFF1419FFFF9F
:1007B0001519FFFF1519FFFF1519FFFF1619FFFF88
:1007C0001619FFFF1619FFFF1618FFFF030516186D
:1007D0000206151801081517010915170009141745
:1007E000000A1416000B1315000D12150114FFFF5B
:1007F0000113FFFF0212FFFF0311FFFF040FFFFFB2
:10080000060CFFFF181AFFFF151AFFFF131AFFFF50
:100810001117FFFF1016FFFF0E14FFFF0D13FFFF50
:100820000C12FFFF0B11FFFF0A10FFFF0910FFFF63
:10083000080FFFFF080EFFFF070EFFFF060DFFFF6B
:10084000060DFFFF050DFFFF050CFFFF040CFFFF6A
:10085000040CFFFF040BFFFF030BFFFF030BFFFF65
:10086000030BFFFF020A0D110214FFFF0215FFFF29
:100870000216FFFF010B0E17010A1018010A1018CB
:100880000109111901091119010911190109121A96
:100890000109121A0109121A0109121A0109121A80
:1008A0000109121B0109121B0109121B0109121B6C
:1008B0000109121B0109121B0109121B0109121A5D
:1008C0000109121A0209121A0209121A0209121A4D
:1008D00002091219030A1219030A1219030A12183B
:1008E000040A1218040A1218050A1217050B121727
:1008F000060B1116070C11150814FFFF0A13FFFF52
:100900000C10FFFF031BFFFF031BFFFF021AFFFF7B
:10091000021AFFFF021AFFFF021AFFFF0219FFFF70
:100920000219FFFF0219FFFF0219FFFF0118FFFF65
:100930000118FFFF0118FFFF010414180103141828
:1009400001021317000213170001131700011317F8
:1009500000011216000112161216FFFF1216FFFFF9
:100960001116FFFF1115FFFF1115FFFF1115FFFFF6
:100970001115FFFF1014FFFF1014FFFF1014FFFFED
:100980001014FFFF0F14FFFF0F13FFFF0F13FFFFE4
:100990000F13FFFF0E13FFFF0E12FFFF0E12FFFFDC
:1009A0000E12FFFF0D12FFFF0D12FFFF0D11FFFFD3
:1009B0000D11FFFF0C11FFFF0C11FFFF0C10FFFFCB
:1009C0000C10FFFF0C10FFFF0B10FFFF0B10FFFFC1
:1009D0000B0FFFFF0B0FFFFF0A0FFFFF0A0FFFFFB9
:1009E0000A0EFFFF0A0EFFFF090EFFFF090EFFFFB1
:1009F000090EFFFF090DFFFF080DFFFF080DFFFFA8
:100A0000080DFFFF0B11FFFF0814FFFF0715FFFF85
:100A1000060B1016050A11170409121804091218FA
:100A200003081318030813190208131902081319ED
:100A300002081319020813190108131901091319DF
:100A400001091319010A1319010A1319010B1319CA
:100A5000020B1318020C1218020D1217020E1216B6
:100A6000030F11150314FFFF0312FFFF0412FFFF12
:100A70000513FFFF0514FFFF0615FFFF0716FFFF15
:100A80000816FFFF0917FFFF0917FFFF0718FFFFF1
:100A9000060A0C1805090D1904090E1903080E1988
:100AA00003080F1A0208101A0208111A0107111A76
:100AB0000107121A0107121A0107121A0107131A65
:100AC0000107131A0107131A0107131A0107131A52
:100AD0000107131A01071319010713190108131944
:100AE0000208131802081218030812170309111735
:100AF000040A1116050B10150614FFFF0812FFFF5C
:100B00000A0FFFFF0B10FFFF0812FFFF0713FFFF85
:100B1000060B0F14050A1015050A11160409111603
:100B200004091117030911170309111802091218F2
:100B300002091219020912190109121901091219DF
:100B40000109121A0109121A0109121A0109121ACD
:100B50000109121A0109121A0109121A0109121ABD
:100B60000109121A0109121A0109121A0109121AAD
:100B70000109121A010A121A020A121A020A121A98
:100B8000020A121A030A121A030B121A040C111A7F
:100B9000041AFFFF051AFFFF0619FFFF070F1119BF
:100BA0000A0C11191019FFFF1018FFFF1018FFFF92
:100BB0001018FFFF0F17FFFF0F17FFFF0F16FFFFA4
:100BC0000E16FFFF0E15FFFF0E15FFFF0D14FFFFA2
:100BD0000D13FFFF0C13FFFF0B12FFFF0B11FFFFA5
:100BE0000A10FFFF090FFFFF080EFFFF070DFFFFB1
:100BF000050BFFFF040AFFFF0108FFFF0105FFFFD0
:100C00000102FFFF11241FBECFEFD8E0DEBFCDBF32
:100C100013E0A0E0B1E0E8E4F8E702C005900D922F
:100C2000A83CB107D9F714E0A8ECB3E001C01D92CD
:100C3000A23BB107E1F70E94BD2D0C94223C0C941D
:100C400000008F929F92AF92BF92CF92DF92EF926D
:100C5000FF920F931F93CF93DF9300E010E058ECC7
:100C6000852E912C0E948927CC24AA24BB24DD2424
:100C7000CC2009F047C0E801C455DD4F0F5F1F4F7E
:100C8000CE010E94D83AE82E8FEFE816D1F4DD208D
:100C900019F0CC24C39436C087E090E00E94D83A83
:100CA000809391040E94C01FDF91CF911F910F91FB
:100CB000FF90EF90DF90CF90BF90AF909F908F907C
:100CC0000895DD2019F45801AE0CB11C2E2D30E032
:100CD000C901880F991F820F931F909581959F4F8F
:100CE000815C6D2D0E947F27FE2C07C0CE010E94E3
:100CF000D83A60E00E948720FA942196FF20B1F74D
:100D00000E0D111DD39488E0D81609F0B1CF88E8F4
:100D100093E1F4013197F1F701978501D1F7A2CF63
:100D20000F931F9388E090E00E94D83A809341048B
:100D30000E94892780E091E060E00E94C12088E065
:100D400062E00E947F278AE091E060E00E94C1207B
:100D500088E064E00E947F2782E191E060E00E94E9
:100D6000C12088E067E00E947F2789E191E060E090
:100D70000E94C12091E000ED18E38091EB038823ED
:100D800069F18091EB03823089F0843019F0813071
:100D900019F518C0809141048F5F809341048091C0
:100DA00041048933C4F01093410415C0809141047B
:100DB00081508093410480914104803D64F400930C
:100DC000410409C087E090E00E94D83A80939104E2
:100DD0001F910F91089591E01092EB03992309F46C
:100DE00043C06091410488E090E00E94E03A85E3CE
:100DF00062E00E947F278091410487FD03C08DE25D
:100E000091E002C08FE291E060E00E94C1208091F9
:100E10004104992787FD909597FF03C09095819590
:100E20009F4F959587959595879560E00E94BC2882
:100E300081E391E060E00E94C12080914104282F6D
:100E4000332727FD309537FF03C0309521953F4F5D
:100E500023703070C90134E0880F991F3A95E1F78B
:100E6000821B60E00E94BC2881E00E945C2990E027
:100E700084CF809135018150809335018823F1F42E
:100E800085E080933501809133018093C803909170
:100E90003401980F90933301903218F08FEF8093C4
:100EA0003401992319F481E08093340190E080911A
:100EB000C903882309F491E09093C9030895FF9230
:100EC0000F931F93082FF62E6AE00E94C439182F43
:100ED000805D6F2D0E948720005D86EF9FEF189F39
:100EE000102D1124812F800F6F2D0E9487201F91BC
:100EF0000F91FF9008951F93182F80E060E00E94EB
:100F00007F2780916304612F0E945F0780916204B4
:100F1000612F0E945F0786E660E00E947F27809134
:100F20006404612F0E945F0780916104612F0E9419
:100F30005F071F9108950F931F93082F14E1812FCE
:100F400067E00E947F2786E0602F0E945220185E93
:100F50001437A9F71F910F910895DF92EF92FF9236
:100F60000F931F93E82E909133018091C803981737
:100F700018F4892F805A02C0892F815068E041E01F
:100F800020E30E2D0E94D22060E083E0D82E15C011
:100F900080913301800F612F0E947F278091C903C8
:100FA0008D9DC00111248F0D6E2D0E945220005F77
:100FB000003671F7163039F0612FF62EF69400E006
:100FC000162F1F5FE5CF1F910F91FF90EF90DF90DD
:100FD00008951F93182F80913B04882359F4809122
:100FE0003C04882339F490913F048091CB03891706
:100FF00009F44EC010923C0480913C0480933B0461
:101000008091CA03882309F043C081E08093CA031A
:1010100080913F048093CB03809189040E94F43037
:1010200080936304809194048093620480913F04D0
:10103000833049F4809198040E94F43080936404D2
:1010400080918E041BC080913F04813031F484E193
:101050008093640480918D0411C08091970488234B
:1010600039F480919E04809364048091930406C0B7
:10107000809193048093640480919E048093610422
:101080008091CA0381508093CA03812F0E947B07FD
:101090001F9108951F93182F0E94AD078091990406
:1010A000882321F48091CC03882339F0812F0E947A
:1010B0009B07809199048093CC03812F0E94E907BC
:1010C0001F9108950F931F93182F80E060E040E870
:1010D00020E4012F0E94D22083E68093CB03812F4E
:1010E0000E94E907812F0E947B07812F0E94AD0794
:1010F000812F0E949B071F910F91089581E080939B
:1011000033011092C80380E00E9462080895AF92F4
:10111000CF92EF920F93A82FB0E0E02FF0E0CD0137
:10112000840F911D8E179F07B4F0EC0DF11DEA1787
:10113000FB078CF070E04E2D50E0CB01820F911D2B
:101140008417950744F080E04A0D511D4617570754
:101150001CF081E001C080E00F91EF90CF90AF9044
:1011600008952F923F924F925F926F927F928F924B
:101170009F92AF92BF92CF92DF92EF92FF920F9326
:101180001F93DF93CF93CDB7DEB761970FB6F89477
:10119000DEBF0FBECDBFEC86FD860E871F87998A06
:1011A000888A2D833E834F835887AC01CB01DA01B7
:1011B0003C014D01C501D6015C016D011A861986FD
:1011C0009FC06D817E818F819885A60195010E94C7
:1011D00022341B012C01C401B3012C853D854E85B1
:1011E0005F850E94223469837A838B839C83C2014A
:1011F000B10120E030E048E652E40E94F5351816CF
:101200007CF4D7FAD094D7F8D0940F2EF0E02F2E9C
:10121000F0E03F2EF8E64F2EF2E45F2EF02D18C0DE
:10122000C201B10120E030E040E050E40E945536B8
:10123000882374F4D7FAD094D7F8D0940F2EF0E026
:101240002F2EF0E03F2EF0E04F2EF0E45F2EF02D39
:1012500069817A818B819C810E94E3366B876F362E
:101260008CF0C801B70120E030E046EE52E40E9465
:10127000553688233CF460E070E086EE92E4A801E5
:10128000970113C0FB85FE3054F5C401B30120E083
:1012900030E040E551E40E94F535181604F560E0B1
:1012A00070E080E591E4A40193010E94F1332C8564
:1012B0003D854E855F850E944935A60195010E94B6
:1012C0004F349B01AC016D817E818F8198850E9496
:1012D00022340E947932E889F989608307C0F98550
:1012E000FF2321F48A858F5F8A8702C0E1E0E987C6
:1012F0002D823E824F82588669807A808B809C80C6
:10130000C401B30120E030E04CEE52E40E945536B7
:1013100088239CF4C401B30120E030E040E850E4AD
:101320000E9422347B018C0120E030E040E251E455
:101330000E94F53518160CF444CF6D817E818F81A3
:1013400098850E947932EEA1FFA160838A8561961B
:101350000FB6F894DEBF0FBECDBFCF91DF911F91C6
:101360000F91FF90EF90DF90CF90BF90AF909F9044
:101370008F907F906F905F904F903F902F90089547
:10138000EF92FF920F931F9380E00E942732A0E01C
:10139000B0E0BC01CD010E94373720E030E048E4E6
:1013A00052E40E944F3420E03EEF4FEF56E40E949B
:1013B000493520E030E040EA51E40E9422347B01CC
:1013C0008C0181E00E94273283702AE5829FC00150
:1013D0001124AA2797FDA095BA2FBC01CD010E9428
:1013E00085369B01AC01C801B7010E94223426E575
:1013F0003EE049E450E40E944F3420E030E044E312
:1014000053E40E9449351F910F91FF90EF9008958A
:101410008F929F92AF92BF92CF92DF92EF92FF9204
:101420000F931F93CF93DF93D82E862E922EC42F27
:10143000D0E0CC0FDD1FCC0FDD1FC75FDF4FCC240A
:10144000CE010E94D83A182D97E0E92EF12CA82E53
:10145000BB24C5010E2C02C0959587950A94E2F72E
:1014600080FF09C000E0992009F401E08D2D612F73
:1014700042E022E005C08D2D612F42E022E0092DDF
:101480000E94D2200894E108F1081E5F8FEFE81651
:101490008FEFF806F1F6C394219682E0D80E84E02F
:1014A000C81671F6DF91CF911F910F91FF90EF90C9
:1014B000DF90CF90BF90AF909F908F900895BF9294
:1014C000CF92DF92EF92FF920F931F93D62EC42EEE
:1014D000B22E882339F5E0907F04F09080040091CB
:1014E000810410918204609175047091760480915A
:1014F0007704909178040E94793270E02D2D30E0CD
:10150000CB010496821793079CF0265F3F4F261766
:10151000370774F0C801B7010E94793270E0653175
:10152000710534F48D2D64E04C2D2B2D0E94080A9A
:101530001F910F91FF90EF90DF90CF90BF90089593
:101540000F931F93182F062F809163046AE00E9467
:10155000C439482F812F6EE1202F0E945F0A8091AD
:1015600063046AE00E94C439812F6DE2492F202F65
:101570000E945F0A809164046AE00E94C439482F87
:10158000812F66E4202F0E945F0A809164046AE044
:101590000E94C439812F65E5492F202F0E945F0AE0
:1015A0001F910F9108950F931F93082F10E08FE361
:1015B000612F0E947F27002311F080EF01C08FE090
:1015C0000E9426271F5F173091F78FE367E00E9484
:1015D0007F27002311F080E201C08FEC0E942627B4
:1015E0001F910F91089590913F048091CE03981719
:1015F00039F081E08093CD0380913F048093CE0346
:1016000080913F04813059F1813030F08230C9F14E
:10161000833009F048C03DC080913B04882321F409
:1016200080913C04882391F080913C04882339F018
:10163000809195040E94F4308093630404C08091EB
:101640003B04882381F180918B0420C08091890420
:101650000E94F430809363048091940417C08091B9
:101660009704882339F480919E04809363048091C9
:1016700093040CC0809193048093630480919E0432
:1016800005C084E18093630480918D048093640499
:101690000895809198040E94F430809363048091AF
:1016A0008E04809364040895BF92CF92DF92EF92EC
:1016B000FF920F931F93B82E0E94F30A6091750456
:1016C0007091760480917704909178040E94793229
:1016D0007B018C0160917F04709180048091810472
:1016E000909182040E9479329B01AC018E2D622F71
:1016F00044E024E00B2D0E94D220CC24BB2011F426
:10170000CC24C3946091790470917A0480917B0415
:1017100090917C040E9479327B018C0160916C0471
:1017200070916D0480916E0490916F040E947932E3
:101730009B01AC018E2D622F44E024E00C2D0E9411
:10174000D220E0907F04F0908004009181041091F9
:101750008204609175047091760480917704909171
:1017600078040E94793270E06B33710564F0613463
:1017700071054CF4C801B7010E94793270E0613400
:1017800071050CF476C060916504262F30E08091DD
:101790006604992787FD90952817390731F08AE06C
:1017A00043E02CE00B2D0E94D2208AE06091660479
:1017B00043E02CE00C2D0E94D22060917E04262F65
:1017C00030E080917D04992787FD9095281739078F
:1017D00031F083E743E02CE00B2D0E94D22083E719
:1017E00060917D0443E02CE00C2D0E94D220E0901B
:1017F0007F04F09080040091810410918204D090C5
:101800007D046091750470917604809177049091C5
:1018100078040E94793270E06F367105A4F0673762
:1018200071058CF4C801B7010E94793270E02D2D4A
:1018300030E0CB010496821793072CF0245F3F4FD2
:1018400026173707D4F4109270008091CD038823B7
:1018500011F01092CD0381E0809370006B2D0E94F7
:10186000A00A1F910F91FF90EF90DF90CF90BF9053
:1018700008958B2D0E94D30A86CF83E76D2D43E018
:101880002CE00C2D0E94D220DECF2F923F924F925F
:101890005F926F927F928F929F92AF92BF92CF9200
:1018A000DF92EF92FF920F931F93DF93CF93CDB709
:1018B000DEB72E970FB6F894DEBF0FBECDBF609196
:1018C000790470917A0480917B0490917C046093F8
:1018D0007504709376048093770490937804E09075
:1018E0006C04F0906D0400916E0410916F04E0920E
:1018F0007F04F0928004009381041093820420916D
:1019000070043091710440917204509173040E94EC
:1019100022345B016C016093790470937A048093A4
:101920007B0490937C0460906804709069048090BC
:101930006A0490906B04C801B701A40193010E944E
:10194000223460936C0470936D0480936E049093C2
:101950006F0420E030E048E652E40E94F5351816A6
:10196000BCF480E090E0A8E6B2E480936C0490932D
:101970006D04A0936E04B0936F04D401C301B058FA
:101980008093680490936904A0936A04B0936B04F5
:1019900060916C0470916D0480916E0490916F045D
:1019A00020E030E040E050E40E9455368823ECF41B
:1019B00080E090E0A0E0B0E480936C0490936D042C
:1019C000A0936E04B0936F048091680490916904B1
:1019D000A0916A04B0916B04B0588093680490930E
:1019E0006904A0936A04B0936B04C601B50120E0BA
:1019F00030E048EF52E40E94F53518163CF0C6017D
:101A0000B5010E94E33616160CF464C080E090E045
:101A1000ACE7B2E48093790490937A04A0937B04BA
:101A2000B0937C0480E090E0A8EFB1E480936C0474
:101A300090936D04A0936E04B0936F040E94C0094C
:101A40007B018C010E94743A20E030E040EA50E4CF
:101A50000E944F34609370047093710480937204F9
:101A600090937304C801B7010E94D23A20E030E09D
:101A700040EA50E40E944F34609368047093690414
:101A800080936A0490936B046091D5032091D403F2
:101A9000261B8AE043E000E00E94D2206091D90337
:101AA0002091D803261B83E743E00E94D2201092A6
:101AB000D8031092D9031092D4031092D50381E079
:101AC0008093CD0310923C0480913C0480933B04AE
:101AD0000E94F30A809166048E838093650490913E
:101AE0007D049D8390937E04209070043090710457
:101AF0004090720450907304C201B10120E030E0C4
:101B000040E050E00E94F53518160CF03EC160919F
:101B1000790470917A0480917B0490917C040E94F6
:101B2000E3366F360CF467C0E0907504F0907604ED
:101B30000091770410917804C801B7010E94E33640
:101B400060370CF058C0C801B70120E030E040E831
:101B500050E40E9422349B01AC0160E070E086EE0C
:101B600092E40E94F1335B016C0160906804709014
:101B7000690480906A0490906B04C801B701A601C3
:101B800095010E9422346F83788789879A87E09035
:101B90007F04F090800400918104109182040E94DF
:101BA000793270E06F36710534F1673771051CF5D5
:101BB000C601B501A20191010E944935A40193011A
:101BC0000E944F349B01AC01C801B7010E9422342E
:101BD0007B018C010E94793270E0AD812A2F30E0C8
:101BE000CB0104968217930734F0245F3F4F2617EA
:101BF00037070CF036C2E0907004F0907104009149
:101C0000720410917304C801B70120E030E040E095
:101C100050E00E94F53518160CF005C2609079046A
:101C200070907A0480907B0490907C04C401B3018E
:101C300020E030E040E850E40E94223420E030E030
:101C400046EE52E40E94553688230CF0ECC1809198
:101C5000D903882309F063C000D020916C0430912F
:101C60006D0440916E0450916F04A0906804B09090
:101C70006904C0906A04D0906B0486ED93E0EDB7E0
:101C8000FEB792838183C401B301F7ED8F2EF3E099
:101C90009F2E0E94B1088093CF039091D70380912B
:101CA000D6030F900F90891738F48093D9039C5F67
:101CB0009093D803945005C09093D9038C5F809380
:101CC000D80380913C04882379F4892F8450809331
:101CD000D103992787FD90950E94C82F86E890E050
:101CE00061E00E94542F20C09091D9038091D803C5
:101CF0009F3098F0813320F09D509093D10314C011
:101D000082E00E94273280FF06C08091D9038D5067
:101D10008093D10309C08091D8038F5FF9CF809160
:101D2000CF0381508093CF0330917D046091D10324
:101D3000832F861B482F552747FD509557FF03C01B
:101D4000509541955F4F8091CF0325E08202C001FD
:101D500011240497481759070CF465C1842F3617CE
:101D60003CF4463014F03B5F01C0340F30937D04E7
:101D700090917D0469170CF056C1863014F095508F
:101D800001C0981B90937D044EC18091790490917D
:101D90007A04A0917B04B0917C0489839A83AB83FD
:101DA000BC83BC01CD010E94E3366E300CF07DC0D7
:101DB000E0907504F0907604009177041091780417
:101DC000C801B7010E94E3366D300CF46EC060E0CC
:101DD00070E080E591E4A80197010E94F1335B0176
:101DE0006C01609068047090690480906A0490901F
:101DF0006B04C801B701A60195010E9422346B87CC
:101E00007C878D879E87E0907F04F090800400910E
:101E10008104109182040E94793270E0663071056D
:101E20000CF443C06E3071050CF03FC0C601B50123
:101E3000A20191010E944935A40193010E944F34EF
:101E40009B01AC01C801B7010E9422347B018C01C7
:101E50000E94793270E09E81292F30E0CB010496F8
:101E60008217930714F1245F3F4F26173707ECF0D2
:101E700028C18B859C85AD85BE8580937904909320
:101E80007A04A0937B04B0937C04E0926C04F092FB
:101E90006D0400936E0410936F041092D40310929B
:101EA000D5031092D0031092D303E0907004F09009
:101EB00071040091720410917304C801B70120E00D
:101EC00030E040E050E00E94553688230CF0ABC073
:101ED0006090790470907A0480907B0490907C04E8
:101EE000C401B30120E030E040E651E40E94F53542
:101EF00018160CF098C08091D503882309F058C0BB
:101F000000D020916C0430916D0440916E0450918A
:101F10006F04A0906804B0906904C0906A04D090E7
:101F20006B0482ED93E0ADB7BEB712969C938E938F
:101F30001197C401B301E3ED8E2EE3E09E2E0E94C3
:101F4000B1088093CF039091D3038091D2030F9077
:101F50000F90891738F48093D5039C5F9093D40336
:101F6000945005C09093D5038C5F8093D4038091E7
:101F70003B04882311F4945009C09091D5038091BB
:101F8000D4039F3088F0813320F09D509093D0038C
:101F900014C082E00E94273280FF04C08091D503E4
:101FA0008D5003C08091D4038F5F8093D00305C010
:101FB0008091CF0381508093CF034091660460915C
:101FC000D003242F332727FD3095862F992787FDAF
:101FD0009095281B390B37FF03C0309521953F4F53
:101FE000522F8091CF0325E08202C0011124049773
:101FF000252F332727FD309528173907A4F04617DA
:102000003CF4563014F04B5F01C0450F409366041A
:102010008091660468173CF4563014F0855001C076
:10202000851B809366048091660483301CF483E0F2
:102030008093660480917D0483301CF483E0809358
:102040007D048091660482331CF081E380936604F2
:1020500080917D0482330CF449C081E380937D0438
:1020600045C08F819885A985BA858093790490931E
:102070007A04A0937B04B0937C04E0926C04F09209
:102080006D0400936E0410936F04D201C101B05827
:102090008093700490937104A0937204B0937304BE
:1020A0001092D8031092D9031092D1031092D70343
:1020B0001092D4031092D5031092D0031092D30340
:1020C0009ACDD201C101B0588093700490937104ED
:1020D000A0937204B093730469817A818B819C818F
:1020E0000E9479326D3009F0C4CED7CE2E960FB64D
:1020F000F894DEBF0FBECDBFCF91DF911F910F913E
:10210000FF90EF90DF90CF90BF90AF909F908F9017
:102110007F906F905F904F903F902F900895FF9227
:102120000F931F93F82E80E060E040E820E40F2D2D
:102130000E94D22010E0FF2009F411E080E060E06E
:1021400040E822E0012F0E94D22080E06EE340E8C8
:1021500022E00E94D2208AE06091660443E02CE0F5
:102160000E94D22083E760917D0443E02CE00E942E
:10217000D2200E94F30A809163046AE00E94C4396D
:10218000482F8EE164E02F2D0E94080A809163049D
:102190006AE00E94C4398DE264E0492F2F2D0E942D
:1021A000080A809164046AE00E94C439482F86E4DA
:1021B00064E02F2D0E94080A809164046AE00E9466
:1021C000C43985E564E0492F2F2D0E94080A8F2D20
:1021D0000E94D30A1F910F91FF900895EF92FF92F2
:1021E0000F931F9389E18093660480936504809325
:1021F0007D0480937E0480E090E0ACE7B2E48093BD
:10220000790490937A04A0937B04B0937C04809328
:10221000750490937604A0937704B093780480E0DB
:1022200090E0A8EFB1E480936C0490936D04A093C8
:102230006E04B0936F0480937F0490938004A09306
:102240008104B09382040E94C0097B018C010E942A
:10225000743A20E030E040EA50E40E944F3460934A
:102260007004709371048093720490937304C80196
:10227000B7010E94D23A20E030E040EA50E40E94E8
:102280004F34609368047093690480936A04909358
:102290006B0480E00E948F101F910F91FF90EF90D0
:1022A000089580919D04882341F080913B04823001
:1022B00021F080913C04823031F410923C048091F2
:1022C0003C0480933B040895DF92EF92FF920F93BA
:1022D0001F93D82EE62E10E0442309F411E08D2D33
:1022E0008E5F6E2D4EE026E0012F0E94D220FE2C44
:1022F000F3948D2D8F5F6F2D41E024E00E94D2205A
:1023000082E0E80E8D2D6E2D41E022E00E94D22069
:102310008D2D805F6F2D41E024E00E94D2208D2D15
:102320008F5E6E2D41E022E00E94D2201F910F911E
:10233000FF90EF90DF900895DF92EF92FF920F935E
:102340001F93D82E162FEE24442311F4EE24E39489
:10235000612F6E5F8D2D46E025E10E2D0E94D2206B
:10236000FD2CF394612F6F5F8F2D44E021E00E94DC
:10237000D22082E0D80E8D2D612F42E021E00E9414
:10238000D220195E8F2D612F44E021E00E94D220DF
:102390001F5F8D2D612F42E021E00E94D2201F910E
:1023A0000F91FF90EF90DF9008958436D1F085363D
:1023B00038F4823681F0833680F4813641F507C0E7
:1023C0008636C1F08636A0F0873609F51AC0862F0A
:1023D0008C5F642F09C04B5F01C04E5D862F8C5E01
:1023E0000BC0862F8C5F6AE3422F0E946411089510
:1023F0004E5D01C04B5F862F642F422F0E949C11BF
:102400000895862F8C5F6DE1422F0E94641108951C
:10241000CF92DF92EF92FF920F931F93CF93DF93B0
:10242000C82ED62E022FC7E0D0E011E6E42EFF24FE
:10243000C7010C2E02C0959587950A94E2F780FF9C
:1024400005C0812F6C2D4D2D202F07C020E00023CB
:1024500009F421E0812F6C2D4D2D0E94D51121977B
:102460001F5F183629F7DF91CF911F910F91FF90D1
:10247000EF90DF90CF9008950F93082F80E060E0F9
:1024800040E820E40E94D2200F9108950F9380E04D
:1024900060E040E820E400E00E94D2200F9108951F
:1024A000FF920F931F93182F062FF22E842F90E088
:1024B0004A3028F48E559D4F0E94D83A04C0895D59
:1024C0009D4F0E94D83A482F812F602F2F2D0E94B8
:1024D00008121F910F91FF90089520E0442309F402
:1024E00021E044E00E94C2210895EF92FF920F93F1
:1024F0001F93082F80913F048823C9F080913F04E7
:102500008330A9F0102F011111E080E465E144E06F
:10251000212F0E94C22180E46AE244E0212F0E9420
:10252000C22180E466E044E0212F0E94C221809114
:102530003F048230F1F480E060E042E0202F0E940E
:1025400050128EE160E040E0202F0E9450128091F6
:102550008D0464E60E94C439892F6AE00E94C43960
:10256000482F88E460E0202F0E94501280918D0453
:1025700030C080913F048130B1F580919704882369
:1025800029F410919E04F090930404C010919304D8
:10259000F0909E04812F6AE00E94C439482F80E0A9
:1025A00060E0202F0E945012812F6AE00E94C439FF
:1025B0008EE160E0492F202F0E9450128F2D6AE09B
:1025C0000E94C439482F88E460E0202F0E945012F6
:1025D0008F2D6AE00E94C43986E660E0492F202FE3
:1025E0000E94501280C080913F04882329F080917E
:1025F0003F04833009F077C080913F04833029F491
:1026000010919804E0908E0404C010918904E09029
:10261000940480918C04882399F4812F0E94F430D3
:10262000F82E1C3020F420E0002321F402C020E02A
:10263000011121E080E466E044E00E94C22109C06B
:1026400020E0011121E080E466E044E00E94C22124
:10265000F12E89E08F1548F48F2D6AE00E94C4396D
:10266000482F80E060E0202F07C020E0002309F41D
:1026700021E080E060E048E00E9450128F2D6AE087
:102680000E94C4398EE160E0492F202F0E94501231
:102690008E2D6AE00E94C439482F88E460E0202F24
:1026A0000E9450128E2D6AE00E94C43986E660E0D6
:1026B000492F202F0E94501280913D04882399F0C9
:1026C00020919F0411E02127217080E465E144E01E
:1026D0000E94C22120919F042127217080E46AE298
:1026E00044E00E94C2211F910F91FF90EF90089546
:1026F000DF92EF92FF920F931F93CF93DF93D82E29
:10270000F62EE22EF694F694F694EA0100E015C057
:10271000FE011491802F6CE10E94C439292F2D0DE8
:10272000802F0E94C439682F6F0D822F0E947F274F
:10273000812F0E9426270F5F21960E1548F3DF9107
:10274000CF911F910F91FF90EF90DF900895CF925E
:10275000DF92EF92FF920F931F93CF93DF93C82ED8
:10276000F62ED22EE02EF694F694F694EA0110E0BE
:1027700019C00881812F6CE10E94C439992341F46A
:10278000812F0E94C439682F6F0D8C2D0E947F27E6
:10279000EE2019F0802F809501C0802F0E942627FF
:1027A0001F5F21961D1528F3DF91CF911F910F9187
:1027B000FF90EF90DF90CF9008957F928F929F923D
:1027C000AF92BF92CF92DF92EF92FF920F931F933F
:1027D000DF93CF93CDB7DEB7C05ED0400FB6F8948D
:1027E000DEBF0FBECDBFA82E962EB22E802EFE01CC
:1027F000319680EEDF011D928A95E9F7DA0150E00B
:102800009CE1792E81E0C82ED12C7F011CC0F901FA
:1028100084912F5F3F4FF901749121503040482F30
:1028200009C0F801E40FF11DEE0DFF1D8081862B1C
:1028300080834F5F4717A8F39F5F2E5F3F4F923013
:1028400031F75F5F14965B1588F4852F8695869522
:102850008695879D80011124852F87706C2D01C07E
:10286000660F8A95EAF79D0190E0D1CF8A2D692DF8
:10287000AE014F5F5F4F20EE082D0E94A713C0529C
:10288000DF4F0FB6F894DEBF0FBECDBFCF91DF9103
:102890001F910F91FF90EF90DF90CF90BF90AF907E
:1028A0009F908F907F9008950F93942F022F592F10
:1028B00040E04C5F5D4F20E40E94DD130F910895CE
:1028C0002F923F924F925F926F927F928F929F9240
:1028D000AF92BF92CF92DF92EF92FF920F931F932E
:1028E000DF93CF93CDB7DEB7C35FD0400FB6F89478
:1028F000DEBF0FBECDBFC251DF4F8883CE5ED0405A
:10290000C151DF4F6883CF5ED040C051DF4F488355
:10291000C05FD040CF50DF4F0883C15FD040FE0181
:10292000399680EEDF011D928A95E9F78091DF03E9
:10293000282E3324D22ECC2444E052E0C40ED51EDF
:10294000C051DF4F8881C05FD040F82EEE24E40EE6
:10295000F51E88249924B5E06B2E712C6C0E7D1E1B
:10296000CE50DF4FF983E883C25FD040582DC0516D
:10297000DF4F8881C05FD0408F3F29F41C821B82CB
:102980001A82198209C0DE011196F70184918D9394
:102990003196A615B705D1F79981C451DF4F9883B9
:1029A000CC5ED04030E09F3F09F031E08B818F3F1B
:1029B00009F03F5FD301F60184918D933196CE509B
:1029C000DF4F88819981C25FD040A817B907A1F76E
:1029D0009D81C551DF4F9883CB5ED04090E0C551BB
:1029E000DF4FA881CB5ED040AF3F09F091E08F81EF
:1029F0008F3F09F09F5F292F931708F4232FBA8187
:102A0000C351DF4FB883CD5ED0405695569556954D
:102A1000ECE15E9F20011124C4018770907041E0B9
:102A200050E002C0440F551F8A95E2F7C751DF4FAF
:102A30004883C95ED0405E81C651DF4F5883CA5E6D
:102A4000D04083015E010894A11CB11C622F70E08C
:102A5000660F771F660D771D69C0D5012C912F3F3A
:102A600019F01196BC910AC0C451DF4F2881CC5E89
:102A7000D040C351DF4FB881CD5ED040F801808196
:102A80008F3FB1F1A18190E030E0821B930B829DDA
:102A9000A001839D500D929D500D1124405F5F4F0A
:102AA000F5E056954795FA95E1F7420F531F5070A0
:102AB0008A2F90E02B2F30E0821B930B829DD00158
:102AC000839DB00D929DB00D11245096E5E0B69512
:102AD000A795EA95E1F7A20FB31FB070F201E40FDA
:102AE000F51F89E090E08C0F9D1FE80FF91F15C0BE
:102AF000C551DF4F8881CB5ED040C651DF4FA881E2
:102B0000CA5ED040C0CF8081C751DF4F9881C95E77
:102B1000D040892B81934F5F5F4F4A175B0798F333
:102B20000E5F1F4FA2E0B0E0AA0EBB1E06171707EC
:102B300009F093CF0894811C911CE4E0F0E0CE0EE4
:102B4000DF1EEE0EFF1EF0E48F16910409F00ECF8B
:102B5000C251DF4F8881CE5ED040C151DF4F6881C6
:102B6000CF5ED040AE01475F5F4F20EECF50DF4FCA
:102B70000881C15FD0400E94A713CD50DF4F0FB630
:102B8000F894DEBF0FBECDBFCF91DF911F910F91A3
:102B9000FF90EF90DF90CF90BF90AF909F908F907D
:102BA0007F906F905F904F903F902F900895EF929D
:102BB000FF920F931F93E82E162FFF24442311F446
:102BC000FF24F39413508E2D8150612F42E026E0B4
:102BD0000F2D0E94D2201F5F8E2D8250612F44E066
:102BE00024E00E94D2201F5F8E2D8350612F46E08B
:102BF00022E00E94D2201F910F91FF90EF90089544
:102C00001F93182F80E464E1412F0E94D71580E4C0
:102C10006AE3412F0E94D7151F91089580913F04C8
:102C2000882359F480913D04882339F010923D04A3
:102C300080919F0481700E94001608950F931F9346
:102C4000CF93DF93182F80913F04882329F0809140
:102C50003F04833009F0C8C090913F048091E9039C
:102C6000891709F450C08091DC03882309F04BC018
:102C70008091E4038093E0038091E5038093E10376
:102C80008091E6038093E2038091E7038093E3035E
:102C900080913F04882341F4809189040E94F4309C
:102CA000382F2091940407C0809198040E94F4303A
:102CB000382F20918E04822F6AE00E94C4399093AD
:102CC000E703822F0E94C4398093E603832F0E947A
:102CD000C4398093E403832F0E94C4399093E503A1
:102CE000812F0E9400168CE363E247E025E0012F6C
:102CF0000E94D22080913F048093E9038091DC03FD
:102D00008F5F8093DC0380913F04882309F046C0E5
:102D100080913B04882321F480913C048823F1F1C5
:102D20008091DC038823D1F581E08093DC038091DE
:102D3000E7038093E303809194046AE00E94C4391E
:102D40009093E7038091E6038093E20380919404DB
:102D50000E94C4398093E60380913C048823C1F02B
:102D6000809189040E94F430282F8091E40380939D
:102D7000E0038091E5038093E103822F6AE00E94E3
:102D8000C4398093E403822F0E94C4399093E503F1
:102D900010923C0480913C0480933B048091E803B2
:102DA000811709F474C08091DC03882309F06FC097
:102DB00060E040E820E4012F0E94D220812F0E9491
:102DC0000016C0E0D0E0FE01EA5CFE4FDE01AC512F
:102DD000BC4F808160E04C91212F0E9454142196B9
:102DE000C430D10581F753C000913F04013009F090
:102DF00051C090913F048091E903891709F447C0BD
:102E000086E990E061E00E94542F8091DC038823E2
:102E1000F1F50093DC0380913F048093E9038091F6
:102E2000E4038093E0038091E5038093E1038091C4
:102E3000E6038093E2038091E7038093E3038091AC
:102E40009704882329F420919E043091930404C0B0
:102E50002091930430919E04822F6AE00E94C4392D
:102E60008093E403822F0E94C4399093E503832F5B
:102E70000E94C4398093E603832F0E94C439909343
:102E8000E70380E0112309F481E00E940016C0E00E
:102E9000D0E04EC000913F040230C9F790913F044A
:102EA0008091E903891799F380E990E061E00E943D
:102EB000542F8091DC03882351F781E08093DC0359
:102EC0008BE890E061E00E94542F80913F04809352
:102ED000E9038091E4038093E0038091E50380930C
:102EE000E1038091E6038093E2038091E7038093FE
:102EF000E3030093E4031092E50380918D046AE0FC
:102F00000E94C4398093E60380918D040E94C439E5
:102F10009093E70380E0112309F481E00E940016FA
:102F20008CE363E247E025E0012F0E94D220AFCF7F
:102F3000FE01E052FC4F4081FE01EC51FC4F20812C
:102F4000421741F0FE01EA5CFE4F808160E0012FF4
:102F50000E9460142196C430D10551F79091DC0392
:102F6000992389F18091DF038F5F8093DF038132A2
:102F700050F11092DF038091E4038093E00380918D
:102F8000E5038093E1038091E6038093E20380915F
:102F9000E7038093E30391509093DC0380913F0417
:102FA000813059F400E0112309F401E08CE363E27D
:102FB00047E025E00E94D22006C080913F04823085
:102FC00011F080913F041093E803DF91CF911F919E
:102FD0000F9108950F931F93CF93DF93182F80E0E5
:102FE00060E040E820E4012F0E94D2201092DF032D
:102FF000809189040E94F430382F209194048FEF3F
:103000008093E3038093E2038093E1038093E003E2
:10301000822F6AE00E94C4399093E703822F0E94B6
:10302000C4398093E603832F0E94C4399093E5034B
:10303000832F0E94C4398093E40317C0C0E0D0E01E
:10304000FE01EA5CFE4FDE01A052BC4F9E012C51F6
:103050003C4F808160E04C91F9012081012F0E945A
:1030600060142196C430D10559F78091DF038F5F3A
:103070008093DF038150813208F38CE990E060E0B7
:103080000E94542F8091E4038093E0038091E50334
:103090008093E1038091E6038093E2038091E7034C
:1030A0008093E303812F0E9400161092DF03DF91CB
:1030B000CF911F910F91089580E00E94EA17089523
:1030C00026982E9A81E080936800EBE6F0E08081FC
:1030D0008064808382E080937C0010927B00EAE72A
:1030E000F0E08EE880838081806480830895809101
:1030F0007A00877F80937A0080917A008064809341
:103100007A0080917A0084FFFCCF20917800309182
:103110007900C90108951F920F920FB60F921124E2
:103120002F933F934F935F936F937F938F939F93CF
:10313000AF93BF93EF93FF9378940E944B28FF9136
:10314000EF91BF91AF919F918F917F916F915F911F
:103150004F913F912F910F900FBE0F901F90189598
:103160001F920F920FB60F9211242F933F934F93FC
:103170005F936F937F938F939F93AF93BF93EF93DF
:10318000FF937894809178009091790022E0803EBE
:10319000920728F01092EC031092EA0373C022E029
:1031A0008336920798F18091EA0382FD6BC08AE032
:1031B00090E00E94202F0E947718825692408E370E
:1031C000910508F05FC082E08093ED0312C00E9479
:1031D0007718825692408E37910558F08091EA0315
:1031E0008B7F8093EA038091EB0384608093EB03F1
:1031F00049C08091ED03882351F78091EA038460F0
:103200008093EA038091EC0384603AC08F50914030
:10321000E8F08091EA0381FD10C08AE090E00E940E
:10322000202F0E9477188E5091408555914050F57F
:103230008091EB0382608093EB038091EA038260CC
:103240008093EA038091EC0382601AC08091EA03C4
:1032500080FD0EC08AE090E00E94202F0E94771827
:103260008F50914078F48091EB0381608093EB0361
:103270008091EA0381608093EA038091EC0381608E
:103280008093EC0380917A00886480937A00FF91A8
:10329000EF91BF91AF919F918F917F916F915F91CE
:1032A0004F913F912F910F900FBE0F901F90189547
:1032B000EF92FF920F931F93982F8B017A0180E07A
:1032C000692F0E947F278AE391E060E00E94C1207D
:1032D000C80160E00E94C12081E491E060E00E94AA
:1032E000C120C70160E00E94C1201F910F91FF9093
:1032F000EF9008951F93182F8BE260E00E947F27C4
:1033000080919104853DD9F0863D38F4833DA1F04C
:10331000843D60F4823D21F50CC0873DB1F0873DCE
:1033200088F0883DA9F0893DD9F415C086E491E084
:1033300014C080E591E011C08EE591E00EC089E6F1
:1033400091E00BC084E791E008C08BE791E005C0F5
:1033500082E891E002C08CE891E0612F0E94C120D8
:103360001F9108951F93182F88E064E00E947F2723
:1033700082E991E060E00E94C12080919704882357
:1033800039F480918C04882319F48BE991E020C0F2
:1033900080919704882339F480918C04813019F44A
:1033A00088EA91E015C080919704813039F48091CA
:1033B0008C04882319F485EB91E00AC0809197046E
:1033C000813049F480918C04813029F482EC91E0C1
:1033D000612F0E94C1201F9108958F929F92AF92FA
:1033E000BF92CF92DF92EF92FF920F937C016B011D
:1033F0005A01490180E060E340E820E100E00E94DA
:10340000D22086E0B701A6010E94581987E0B501D5
:10341000A4010E9458190F91FF90EF90DF90CF9078
:10342000BF90AF909F908F900895AC019B018FEC5F
:1034300091E0BA0141ED51E00E94ED19089585ED4A
:1034400091E06CED71E00E94151A089581EE91E013
:1034500066EE71E041ED51E02CED31E00E94ED1996
:10346000089581EE91E06BEE71E041ED51E023EFC4
:1034700031E00E94ED1908950F931F93CF93DF93CE
:10348000182F062F80918C04882371F584E761E062
:103490000E947F271C3010F080E501C081E460E0CD
:1034A0000E9487208DE460E00E94872080E561E033
:1034B0000E947F27812F90E047966CE070E00E9489
:1034C000E439EC018930910524F09C012F5F822FB3
:1034D00010C080E260E00E9487209E012F5C822F56
:1034E000602F0E94872008C080E561E00E947F274E
:1034F000812F602F0E94BC28DF91CF911F910F91E7
:1035000008950F931F93CF93DF93082F162F809169
:103510008C048823D1F4802F90E047966CE070E013
:103520000E94E439EC018930910524F09C012F5F61
:10353000822F14C080E260E00E9487209E012F5CF1
:10354000822F612F0E9487200CC080E260E00E94E1
:10355000872080E260E00E948720802F612F0E94F8
:10356000BC28DF91CF911F910F910895EF92FF92A8
:103570000F931F93F82E162FE42E022F88E063E09E
:103580000E947F2787EF91E060E00E94C120809138
:1035900097048823B1F48DEF91E060E00E94C12090
:1035A00060E00B3009F461E08F2D0E94BC288FE2AF
:1035B00060E00E94872060E00C3009F461E0812F18
:1035C00019C0809197048130D9F48DEF91E060E0CB
:1035D0000E94C12060E00C3009F461E0812F0E945C
:1035E000BC288FE260E00E94872060E00B3009F485
:1035F00061E08F2D0E94BC288FE260E00E9487204E
:1036000010E00D3009F411E084E1612F0E94BC2824
:103610008E2D612F0E94BC281F910F91FF90EF907B
:1036200008951F93182F88E065E00E947F2783E0AC
:1036300092E060E00E94C1208091B40060E0193601
:1036400009F461E00E94BC281F910895DF92EF9277
:10365000FF920F931F93E82EF62ED42E122F88E0A0
:1036600062E00E947F2783E192E060E00E94C12037
:1036700000E0153609F401E08E2D602F0E94811ABA
:103680008AE360E00E94872060E0163609F461E07A
:103690008F2D0E94BC288AE360E00E94872060E0B2
:1036A000173609F461E08D2D0E94BC2880918C04AE
:1036B000882369F480E260E00E9487208BE08E1509
:1036C00010F480E501C081E4602F0E9487201F91E3
:1036D0000F91FF90EF90DF90089580919A048330CE
:1036E00099F08091EF038F5F8093EF0380918904BD
:1036F0006091940440919F0423E00E94261B8091D6
:10370000EF0381508093EF038091EB0380FF02C0B1
:1037100081E008958091EB03882321F48091EC03EC
:10372000882321F08AE08093EE0304C08091EE03A9
:10373000882311F080E0089510929A0482E00895A1
:103740001F93182F88E061E00E947F278EE192E0AE
:1037500060E00E94C1208091980460E0153609F471
:1037600061E00E943C1A8AE360E00E948720809119
:103770008E0460E0163609F461E00E94BC281F91B7
:1037800008958091EF038F5F8093EF030E94892754
:1037900088E060E00E947F278BE292E060E00E9478
:1037A000C12080E00E947A1984E00E94A01B8091D1
:1037B00089046091940440919F0423E00E94261B99
:1037C00080919E046091930440918D0425E00E94B5
:1037D000B61A80E00E94B21986E00E94111B0E9476
:1037E000311A8091EF0381508093EF0308951F9366
:1037F000182F0E94C11B8091EF038F5F8093EF030E
:1038000080919A04863011F40E94261A110F110F2C
:10381000110F1D5F80E0612F47E00E94952D809180
:10382000EF0381508093EF038AE08093EE03809151
:103830009A041F910895CF92DF92EF92FF920F9317
:103840001F9382E00E94F71B082F10918904D090EB
:103850009404F0909F0490C08091EB0381FF48C0D6
:103860001092EB038091EF038F5F8093EF0303309F
:1038700041F481E392E06BE372E00E94151A05E6E1
:103880002CC0053641F484E492E06FE472E00E94BB
:10389000151A06E622C0063641F488E592E06CE58A
:1038A00072E00E94151A07E618C00E94311A1093A0
:1038B0008904D0929404F0929F0480919F046091B7
:1038C00094044091890400919304E0909E04C09078
:1038D0008D0420E00E94F92803E0812F6D2D4F2DEB
:1038E000202F0E94261B8091EF0381508093EF03CD
:1038F0008091EB0382FD04C08091EC0382FF3CC009
:103900001092EB038091EF038F5F8093EF030536F6
:1039100059F4812F90E0019668E170E00E94E4394B
:10392000182F8093890415C0063649F48D2D90E038
:1039300001966CE370E00E94E439D82E0AC0073685
:1039400041F48F2D90E001966CE370E00E94E43921
:10395000F82E812F6D2D4F2D202F0E94261B809138
:10396000EF0381508093EF038091EC0382FF04C04A
:1039700088EC90E00E94202F0E946D1B882309F4A0
:103980006BCF1F910F91FF90EF90DF90CF90089534
:103990001F9381E00E94F71B182F6CC08091EB03EE
:1039A00081FF26C01092EB038091EF038F5F80931D
:1039B000EF03143041F485E692E06BE372E00E947D
:1039C000151A15E60DC0153641F484E492E06FE453
:1039D00072E00E94151A16E603C00E94311A14E024
:1039E000812F0E94A01B8091EF0381508093EF03F1
:1039F0008091EB0382FD04C08091EC0382FF3AC00A
:103A00001092EB038091EF038F5F8093EF031536E5
:103A100079F48091980490E0019668E170E00E944A
:103A2000E439809398046091980481E090E010C09C
:103A3000163681F480918E0490E001966CE370E07C
:103A40000E94E43980938E0460918E0482E090E0BD
:103A50000E94E03A812F0E94A01B8091EF038150C9
:103A60008093EF038091EC0382FF04C088EC90E028
:103A70000E94202F0E946D1B882309F48FCF1F9175
:103A800008951F9385E00E94F71B182F46C0809170
:103A9000EB0381FF18C01092EB038091EF038F5F5F
:103AA0008093EF03163021F40E941F1A19E603C019
:103AB0000E94261A16E0812F0E94111B8091EF03AD
:103AC00081508093EF038091EB0382FD04C08091CD
:103AD000EC0382FF22C01092EB031936F1F48091BF
:103AE000B4008F5F8093B4008091B400813110F0F6
:103AF0001092B4008091EF038F5F8093EF0389E60B
:103B00000E94111B8091EF0381508093EF0360911D
:103B1000B40083E090E00E94E03A0E946D1B88238D
:103B200009F4B5CF1F910895CF92DF92EF92FF92E3
:103B30000F931F9383E00E94F71B082FF0909304CC
:103B400010919E04D0908D04F3C08091EB0381FF0F
:103B50006AC01092EB038091EF038F5F8093EF03B5
:103B6000053069F480919704882309F180919704C6
:103B7000813059F080919704833091F506C00B3065
:103B800061F4809197048823F9F484E892E06FE867
:103B900072E00E94151A0CE03BC00C3009F58091D0
:103BA0009704813021F080919704833041F480E7BD
:103BB00092E06BE772E00E94151A0BE029C0809139
:103BC0009704882329F00CC080919704813041F438
:103BD00088E992E063EA72E00E94151A0DE018C0CD
:103BE0000E94311AD0928D0410939E04F092930497
:103BF00080919F0460919404409189040091930402
:103C0000E0909E04C0908D0420E00E94F92805E019
:103C1000812F6F2D4D2D202F0E94B61A8091EF031A
:103C200081508093EF038091EB0382FD04C080916B
:103C3000EC0382FF7DC01092EB038091EF038F5F56
:103C40008093EF030B3071F51F5F1D3010F011E012
:103C50005CC01230D1F48D2D90E00E947B28882327
:103C600031F08DE18F1518F42DE1F22E4EC08D2D1F
:103C700090E00E947B28882309F047C08CE18F15D3
:103C800008F043C09CE1F92E40C0143031F01630EA
:103C900021F0193011F01B30C1F58EE18F1508F4B9
:103CA0004DC033C00C3039F5F3948FE18F1510F40B
:103CB000FF24F394123099F48D2D90E00E947B281C
:103CC000882319F08DE18F15E0F18D2D90E00E9491
:103CD0007B288823D1F48CE18F1598F116C014301D
:103CE00031F0163021F0193011F01B3071F48FE1F2
:103CF000F81639F10AC00D3041F48D2D90E001968F
:103D000064E670E00E94E439D82E812F6F2D4D2D8E
:103D1000202F0E94B61A8091EF0381508093EF0309
:103D20008091EC0382FF04C088EC90E00E94202F79
:103D30000E946D1B882309F408CF06C08EE1F82E7F
:103D4000E4CFFF24F394E1CF1F910F91FF90EF9008
:103D5000DF90CF9008951F9384E00E94F71B182FE7
:103D600064C08091EB0381FF1BC01092EB03809134
:103D7000EF038F5F8093EF03183039F481E00E94E6
:103D8000B2190E941F1A18E606C080E00E94B219FC
:103D90000E94311A18E08091EF0381508093EF0365
:103DA0008091EB0382FD04C08091EC0382FF3DC053
:103DB0001092EB031836C9F580918C04882359F0D2
:103DC000809197048F5F809397048091970482304D
:103DD00010F01092970480918C0490E0882309F4ED
:103DE00091E090938C048091EF038F5F8093EF03B9
:103DF0000E94C11B0E941F1A80E063E247E00E94FC
:103E0000952D81E00E94B2198091EF03815080933B
:103E1000EF036091970484E090E00E94E03A6091A3
:103E20008C0485E090E00E94E03A0E946D1B88239C
:103E300009F497CF1F9108950F931F9387E090E0A7
:103E40000E94D83A8093910480E00E94F71B182FBB
:103E500002ED5AC08091EB0381FF29C01092EB0361
:103E60008091EF038F5F8093EF03183C61F481E052
:103E70000E947A190E941F1A8091EF03815080934B
:103E8000EF0319EC14C080E00E947A190E94311AE5
:103E900010929D0410929A0480919104883DC8F577
:103EA0006091910487E090E00E94E03A32C08091F6
:103EB000EB0382FD04C08091EC0382FF25C01092C9
:103EC000EB03193C09F5809191048F5F8093910475
:103ED000809191048A3D10F0009391048091EF034A
:103EE0008F5F8093EF030E94C11B0E941F1A80E026
:103EF00063E047E00E94952D81E00E947A1980914D
:103F0000EF0381508093EF030E946D1B882309F417
:103F1000A1CF1F910F91089580919104833D81F06D
:103F2000843D18F4823D89F408C0843D19F0853D34
:103F300061F409C00E94450C08950E943907089554
:103F40000E94511108950E940E16089590919104B7
:103F5000933D81F0943D18F4923D89F408C0943D5E
:103F600019F0953D61F409C00E948F1008950E94D8
:103F7000620808950E943C1208950E94EA1708956D
:103F80001F931FE080919104853DD9F0863D38F460
:103F9000833DA1F0843D60F4823D39F50CC0873D3E
:103FA00099F0873D98F0883DD9F0893DF1F41BC028
:103FB0000E94EE101AC00E947E0817C00E9446128E
:103FC00014C00E945C1811C010939D040E94C93156
:103FD00080E00E94273283708E5280939104D2CF6A
:103FE0000E94900602C00E9421061F9108951F930F
:103FF000182F80919D04882381F180913B048130AA
:1040000021F080913C04813041F580913B0488236C
:1040100019F082E080933B0480913C04882319F0DE
:1040200082E080933C0480919D04815080939D04A4
:1040300080919D04882389F48FE080939D04809172
:1040400091048F5F8093910480919104863D19F4CF
:1040500082ED809391040E94C01F80919104833D62
:1040600091F0843D18F4823DA9F409C0843D19F013
:10407000853D81F40CC0812F0E94540B0BC0812F11
:104080000E944A0807C0812F0E94751203C0812F29
:104090000E941E161F91089508958B5C9F4F0E94E9
:1040A000D83A0895EF92FF920F931F93CF93DF9327
:1040B000F82EE62E00E010E008C0CE018B5E9D4F8A
:1040C0000E94D83A8F5F080F1F5FC02FD0E01F15E6
:1040D000A0F3CE018B5E9D4F0E94D83A082FCA5E96
:1040E000DD4F10E00BC0CE010E94D83A91E0E916F6
:1040F00009F480950E9426271F5F2196101798F3D8
:10410000DF91CF911F910F91FF90EF900895DF9273
:10411000EF92FF920F931F93CF93DF93D62E95E0EC
:10412000899FC0011124EC01CB56D0408E012AE9B1
:10413000E22E2FEFF22EE80EF91EDD2029F0CE013F
:104140000E94D83A809503C0C8010E94D83A0E94C4
:10415000262721960F5F1F4FCE15DF0571F7DD2053
:1041600011F08FEF01C080E00E94262780E00E94BE
:104170007227DF91CF911F910F91FF90EF90DF9009
:1041800008951F93CF93DF93EC01162F04C0612F86
:104190000E948720219688818823C9F7DF91CF91DB
:1041A0001F9108952F923F924F925F926F927F924C
:1041B0008F929F92AF92BF92CF92DF92EF92FF9237
:1041C0000F931F93CF93DF93282E162F342EF22EAA
:1041D000402EC62FD0E0C770D070209709F45BC086
:1041E000562E569456945694EE2467E0C62EC1225D
:1041F0008C2C992487FC90945E01A20EB11C51E096
:10420000652E712C35C0DE2CD20C8D2D652D0E94B3
:104210007F270E94D9260E94D926082F40E050E02F
:1042200015C081E0481641F4C30102C0880F991FF0
:104230002A95E2F7082B08C0C30102C0880F991F16
:104240002A95E2F7809508234F5F5F4F9A01280D6A
:10425000391D2A153B0524F48C2D840F883009F76D
:104260008D2D652D0E947F27802F0E942627E394A5
:10427000E31448F22F2D30E088E090E08C1B9D0B7A
:104280008217930714F0FF2404C0812F8770885091
:10429000F80E187F185FE12EE694E694E694C12F9D
:1042A000D0E0CF0DD11D43E0D595C7954A95E1F7F4
:1042B00012C0822D6E2D0E947F2710E009C081E080
:1042C000481611F48FEF01C080E00E9426271F5F7F
:1042D0001315A8F3E3948E2D90E08C179D074CF3F3
:1042E0002F2D2770C9F100E0C22FD0E031E0A32EBE
:1042F000B12C30C0F02EF20C8F2D6E2D0E947F2736
:104300000E94D9260E94D926182F20E030E017C03D
:1043100081E0481649F4C501022E02C0880F991F9A
:104320000A94E2F7182B09C0C501022E02C0880FBB
:10433000991F0A94E2F7809518232F5F3F4F2C179F
:104340003D0734F38F2D6E2D0E947F27812F0E9411
:1043500026270F5F031570F280E00E947227DF911D
:10436000CF911F910F91FF90EF90DF90CF90BF9072
:10437000AF909F908F907F906F905F904F903F9005
:104380002F9008952F923F924F925F926F927F925B
:104390008F929F92AF92BF92CF92DF92EF92FF9255
:1043A0000F931F93DF93CF9300D00F92CDB7DEB75B
:1043B000382E462E522E262E281AA42EBB24C50196
:1043C000880F991F22273327281B390B2D5F3F4F5A
:1043D0003B832A838824992466247724362F321934
:1043E0003983182DD42CDA187501EE0CFF1C882D9A
:1043F000830D6D2D41E02E2D052D0E94D220832DA1
:1044000088196D2D41E02E2D0E94D220F42CF81831
:10441000110F89818A0D6F2D41E0212F0E94D2203A
:104420008D2D82196F2D41E0212F0E94D2208A818B
:104430009B8197FF06C00696860D971D9B838A83F6
:1044400011C0EA81FB813A96C4018A199B09880F41
:10445000991F880F991FE80FF91FFB83EA830894BF
:10446000A108B1080894811C911C24E030E0620E80
:10447000731EA814B9040CF0B4CF0F900F900F90D6
:10448000CF91DF911F910F91FF90EF90DF90CF9030
:10449000BF90AF909F908F907F906F905F904F9064
:1044A0003F902F900895DF92EF92FF920F931F930A
:1044B000F82E162FD42EE22E41E001E00E94D220E9
:1044C0008F2D81508D0D612F41E02E2D0E94D22025
:1044D0008F2D612F4D2D21E00E94D22011501E0DF5
:1044E0008F2D612F4D2D21E00E94D2201F910F9121
:1044F000FF90EF90DF900895EF92FF920F931F933C
:10450000F82E162F062F069506950695602F0E9409
:104510007F270E94D9260E94D926E82E8F2D602F52
:104520000E947F27177081E090E002C0880F991FDA
:104530001A95E2F780958E210E94262780E00E943E
:1045400072271F910F91FF90EF900895EF92FF92C5
:104550000F931F93F82E162F062F06950695069596
:10456000602F0E947F270E94D9260E94D926E82E1C
:104570008F2D602F0E947F27177081E090E002C08E
:10458000880F991F1A95E2F78E290E94262780E04E
:104590000E9472271F910F91FF90EF9008953F9214
:1045A0004F925F926F927F928F929F92AF92BF9243
:1045B000CF92DF92EF92FF920F931F93CF93DF93EF
:1045C000D82EC62E322E462E481AE42EFF24C701BE
:1045D000880F991FCC27DD27C81BD90B23965D2C8C
:1045E000662E762EAA24BB248824992481E03816CE
:1045F00041F50E2D0C0D8D2D602F0E94A6229C2DB5
:104600009E19192F8D2D692F0E94A622852D602FAE
:104610000E94A622852D612F0E94A6220419802FB8
:10462000662D0E94A622802F672D0E94A6221419B3
:10463000812F662D0E94A622812F672D0E94A6221F
:1046400027C00E2D0C0D8D2D602F0E947C228C2DED
:104650008E19182F8D2D612F0E947C22852D602FA1
:104660000E947C22852D612F0E947C220419802FBC
:10467000662D0E947C22802F672D0E947C221419B7
:10468000812F662D0E947C22812F672D0E947C2223
:10469000D7FF04C02696C80DD91D0DC02A96C501A6
:1046A0008E199F09880F991F880F991FC80FD91F4E
:1046B0000894E108F1080894A11CB11C84E090E082
:1046C000880E991ED3945A9463947A94EA14FB0446
:1046D0000CF08CCFDF91CF911F910F91FF90EF9055
:1046E000DF90CF90BF90AF909F908F907F906F9012
:1046F0005F904F903F900895459A449A10923704E6
:1047000010923604109239041092380480E280939B
:10471000B800ECEBF0E08081846080831092F003BD
:104720008081816080838081806480837894089513
:1047300080E28093B800089590E0611191E08E7F4F
:10474000982B9093BA000895909337048093360481
:10475000089590933904809338040895ECEBF0E0C9
:1047600080818F70806A80830895ECEBF0E0808117
:104770008F70806D808308958091BC0087FFFCCF8F
:1047800008958093BB00ECEBF0E080818F7080682F
:1047900080830895882329F08091BC008F70806CFD
:1047A00004C08091BC008F7080688093BC00089525
:1047B0008091BB0008958091B9000895982F809151
:1047C000F0038823E1F782E08093F0039E7F9093CB
:1047D000F103A2EFB3E0FA0102C081918D938E2F15
:1047E000841B8617D0F310921204609313048091F7
:1047F000BC008F70806A8093BC000895982F8091D0
:10480000F0038823E1F783E08093F00391609093B5
:10481000F10310923404609335048091BC008F70D2
:10482000806A8093BC008091F0038823E1F7A4E1C3
:10483000B4E0FA0102C08D9181938E2F841B8617FC
:10484000D0F30895982FFA018091BC008E7F809359
:10485000BC008091BC008F70806A8093BC00809106
:10486000BC0087FFFCCF9E7F9093BB008091BC0073
:104870008F7080688093BC008091BC0087FFFCCF64
:104880008091B900883189F091E012C080818093D5
:10489000BB008091BC008F7080688093BC008091C9
:1048A000BC0087FFFCCF31966150662379F790E01A
:1048B0008091BC008F70806D8093BC008091BC00A3
:1048C00084FFFCCF8091BC0081608093BC00892F65
:1048D00008951F93CF93DF93982F162FEA018091AD
:1048E000BC008E7F8093BC008091BC008F70806A7A
:1048F0008093BC008091BC0087FFFCCF91609093B7
:10490000BB008091BC008F7080688093BC00809158
:10491000BC0087FFFCCF8091B900803469F091E042
:1049200018C08FEF0E94CA238091BC0087FFFCCF84
:104930008091BB0089931150123098F780E00E945B
:10494000CA238091BC0087FFFCCF8091BB00888385
:1049500090E08091BC008F70806D8093BC0080914E
:10496000BC0081608093BC00892FDF91CF911F91A3
:1049700008958091F00308951F920F920FB60F9241
:1049800011242F933F934F935F936F937F938F9354
:104990009F93AF93BF93EF93FF938091B900887F6C
:1049A000883609F4CBC0893688F5803309F495C080
:1049B0008133B0F4803109F45AC0813138F488234E
:1049C00009F43EC1883009F048C151C0803209F471
:1049D00084C0883209F453C0883109F03EC14FC009
:1049E000883409F47AC0893438F4883309F478C0FB
:1049F000803409F032C192C0883509F45DC0803638
:104A000009F49CC0803509F028C174C0803A09F4CB
:104A1000BEC0813AB0F4803809F49BC0813838F4C4
:104A2000803709F48BC0883709F017C187C08039F7
:104A300009F48FC0883909F4A1C0883809F00DC184
:104A40009DC0883B09F4D1C0893B38F4883A09F409
:104A5000B6C0803B09F001C1B2C0883C09F4E0C097
:104A6000883F09F4E7C0803C09F0F7C0D9C084EF63
:104A700091E060E00E94542F8091F10314C085ED15
:104A800091E060E00E94542F9091120480911304F1
:104A9000981708F0DAC0E92FF0E0EE50FC4F808163
:104AA0009F5F909312048093BB008091BC008F7035
:104AB00080688093BC00D1C080EC91E060E00E94EF
:104AC000542F809134049091BB00E82FF0E0EC5E0D
:104AD000FB4F90838F5F809334048AE991E0B2C0EA
:104AE00086E891E060E00E94542F8091BC008F70B6
:104AF0008068AFC082E791E060E00E94542F80910F
:104B0000BB0090913404E92FF0E0EC5EFB4F808312
:104B10009F5F9093340490E00E94AB2F8FE591E06B
:104B200060E00E94542F2091340430E080913504DD
:104B300090E001972817390734F51EC08CE491E006
:104B400060E00E94542F85E08093F00310923404BB
:104B500062C088E391E060E00E94542F80913404A9
:104B60009091BB00E82FF0E0EC5EFB4F90838F5FED
:104B700080933404803238F48FEF06C083E291E0F2
:104B800060E00E94542F80E00E94CA2366C080E14A
:104B900091E060E00E94542F8091BC008F70806C87
:104BA0008093BC00E0913604F0913704309709F40B
:104BB00052C08091340464E174E009954CC08DEFDB
:104BC00090E060E00E94542F84E08093F003E09135
:104BD0003804F0913904309731F080E262EF73E0ED
:104BE0000995809313041092120489EE90E060E01E
:104BF0000E94542F90911204E92FF0E0EE50FC4FE8
:104C000080818093BB009F5F909312048091130476
:104C1000981708F04ACF8091BC008F70806C49CF04
:104C200087EC90E060E00E94542F8091BC008F7070
:104C3000806C0FC088EB90E060E00E94542F0DC0A4
:104C400087EA90E060E00E94542F8091BC008F7052
:104C5000806D8093BC001092F003FF91EF91BF91A3
:104C6000AF919F918F917F916F915F914F913F9104
:104C70002F910F900FBE0F901F9018952F982D9881
:104C80002C9840985A98279A259A249A389A529A9A
:104C90008BB18F708BB985B1807F85B98AB1806FF8
:104CA0008AB984B18F6084B9089540985A9888234E
:104CB00019F0813021F402C0409A08955A9A08955B
:104CC000F8940E9455268BB1806F8BB985B18F60A7
:104CD00085B92F988AB18F708AB984B1807F84B9E1
:104CE0002D9A2C9A000000000AC02C9800000000A9
:104CF000000000002C9A000000000000000089B1B4
:104D000093B187FDF2CF2C982D988AB1806F8AB924
:104D100084B18F6084B9789408951F93162FF89406
:104D20000E9460262F982D982C9A8AB1806F8AB99C
:104D300084B18F6084B98BB18F708BB99BB1812F97
:104D4000807F892B8BB985B1807F85B985B11F7034
:104D5000812B85B900000000000000000000000069
:104D6000000000002C9878941F910895F8940E94F8
:104D700060262F988AB18F708AB984B1807F84B9F8
:104D80002D9A2C9A00000000000000000000000096
:104D90000000000029B183B12C982D989AB1906F32
:104DA0009AB994B19F6094B978948F70207F822BC8
:104DB0000895F894809183048295869586958370F2
:104DC0000E9460262F9A8AB18F708AB984B1807F41
:104DD00084B92D9A2C9A0000000000000000000009
:104DE00000000000000099B183B12C982D987894B0
:104DF0008F70907F892B089508958093830480E0BD
:104E000060E40E948D261092850481E060E40E9497
:104E10008D261092870480918304682F6F736064DD
:104E200082958695869583700E948D2608951F939E
:104E3000182F80938404186B80E0612F0E948D26C8
:104E400081E0612F0E948D261F9108950F931F937B
:104E5000182F009183040295069506950370F89427
:104E6000802F0E9460262F9A2D982C9A8AB1806FED
:104E70008AB984B18F6084B98BB18F708BB99BB1C3
:104E8000812F807F892B8BB985B1807F85B985B1D2
:104E90001F70812B85B90000000000000000000099
:104EA0000000000000002C987894E02FF0E0EE0F56
:104EB000FF1FEB57FB4F80818F5F808380918304BE
:104EC0008F5F8093830487FF0AC0809184048F5F83
:104ED000809384040E94172780E00E94FD261F9182
:104EE0000F9108951F93182F106C80E0612F0E947E
:104EF0008D2681E0612F0E948D261F9108951F93BA
:104F0000182F862F0E941727812F0E94FD261F91A0
:104F100008950F931F9300E080E0602F0E947F2789
:104F200010E080E00E9426271F5F1038D1F70F5F46
:104F3000083091F71F910F91089580E00E94722729
:104F400080E060E00E947F27109285041092860422
:104F5000109287041092880408950E943E2680E0F3
:104F60006FE30E948D2681E06FE30E948D260E94F0
:104F700089270E949D270895982F86E0689F802D9D
:104F80001124692F0E947F27089508951F920F9280
:104F90000FB60F9211248F939F9388B198E08927C1
:104FA00088B99F918F910F900FBE0F901F90189509
:104FB0001F920F920FB60F9211248F939F9380919F
:104FC000460490914704892B49F0809146049091C2
:104FD00047040197909347048093460480919B0473
:104FE00090919C04892B49F080919B0490919C04A2
:104FF000019790939C0480939B048091990488234B
:1050000089F18091440490914504892B59F5809150
:105010008F0490919004892BE1F48CE291E09093BD
:10502000900480938F0480918100882379F41092FA
:10503000800089E08093810083E080936F0088EE98
:1050400093E0909389008093880003C010928100C0
:10505000439880918F0490919004019790939004CD
:1050600080938F049F918F910F900FBE0F901F9090
:1050700018951F920F920FB60F9211248F939F9342
:1050800088B198E0892788B99F918F910F900FBEC2
:105090000F901F9018951E9B16C080919604882330
:1050A00049F1109296041092A004109245041092B7
:1050B0004404809199048823E9F010929904109295
:1050C00081004398089580919604882399F481E0A3
:1050D00080939604109245041092440483E08093D8
:1050E0003F0480919104853D11F083E001C085E08B
:1050F00080933E040895FC0183709070892B39F4ED
:10510000CF0164E670E00E94D039892B49F420E099
:1051100030E0CF0160E971E00E94D039892B11F4B1
:1051200021E030E0822F08950895482F6AE00E9420
:10513000C439282F30E084E0220F331F8A95E1F72D
:10514000842F0E94C439892F822B089588E592E02C
:1051500090934504809344041092810043981092E8
:105160009A040895FC018181805120819AE0299F51
:1051700090011124820F08950F931F93182F062F6B
:105180006AE00E94C439805D602F0E948720812FD1
:105190006AE00E94C439892F805D602F0E948720B9
:1051A0001F910F910895FF920F931F93F62E109267
:1051B000800001E810E029E0F801208323E020933B
:1051C0006F009C0140E050E060E079E08DE390E00A
:1051D0000E94193A30938900209388008F2D90E027
:1051E0000E94202FF801108243981F910F91FF9089
:1051F0000895CF92DF92EF92FF920F931F93DF9368
:10520000CF93CDB7DEB728970FB6F894DEBF0FBEA9
:10521000CDBF162FF42ED22EFE01319698E0DF017D
:105220001D929A95E9F719820E9495288A83812F09
:105230000E9495288B838F2D0E9495288C838D2D1D
:105240000E9495288D83802F0E9495288E838E2D15
:105250000E9495288F838C2D0E9495288887F8942A
:1052600080ED68E0AE014F5F5F4F0E94222478948A
:10527000882399F080EA9FE064E60E94D32884E6C0
:1052800090E00E94202F80EA9FE064E60E94D328ED
:1052900088EE93E00E94202FEDCF28960FB6F89469
:1052A000DEBF0FBECDBFCF91DF911F910F91FF9059
:1052B000EF90DF90CF900895CF92DF92EF92FF9220
:1052C0000F931F93DF93CF93CDB7DEB72C970FB615
:1052D000F894DEBF0FBECDBF082F88E090E00E949B
:1052E000D83A8093410480914104992787FD909595
:1052F00097FF03C0909581959F4F959587959595BC
:1053000087958093420480914104992787FD909569
:1053100097FF03C0909581959F4F837090709C017B
:1053200044E0220F331F4A95E1F7281B390B2093E5
:1053300043048091410487FF0AC080914204819513
:105340008093420480914304819580934304DE015D
:105350001196E3EBF2E08CE001900D928150E1F7C1
:105360000E94502F182F8052803608F0A7C10023CA
:10537000D9F080914A048F5F80934A04815096E06F
:10538000899F802D112466E00E947F27812F60E095
:105390000E94872080E260E00E94872080914A047A
:1053A000863110F010924A04143231F481E0809377
:1053B00058041092570482C180915804882309F43C
:1053C0007DC1909157041C3251F48F5F8093580433
:1053D000992311F410924C04109257040FC09A3084
:1053E00068F4E92FF0E0E45BFB4F1083E92FEF5FF7
:1053F000E0935704F0E0E45BFB4F10828091580487
:10540000823099F48CE494E06CEA72E00E946B3A8A
:10541000009741F483E0809358041092570410924F
:105420004C044CC11092580449C1843009F0A5C005
:1054300085E080935804002361F01092520482E3C7
:1054400066E00E947F278CE494E060E00E94C12027
:1054500035C1209151042051809150043AE0839F3E
:10546000C0011124280F20939F0420914F04205144
:1054700080914E04839FC0011124280F209394042F
:1054800020914D04205180914C04839FC001112430
:10549000280F2093890410924B048091430487FFC6
:1054A00020C08091430490919404282F332727FD36
:1054B000309537FF03C0309521953F4F892F90E0FD
:1054C0008217930774F480914204815080934204C0
:1054D0008091940490914304845C890F8093940498
:1054E00015C08091940490914304980F9093940474
:1054F000809194048D3350F0809194048C53809368
:105500009404809142048F5F80934204809142040E
:1055100087FF1EC08091420490918904282F332771
:1055200027FD309537FF03C0309521953F4F892FD8
:1055300090E08217930764F48FEF80934B0480917F
:10554000890490914204885E890F80938904B6C0D3
:105550008091890490914204980F909389048091DE
:105560008904893108F4AAC0809189048851809304
:10557000890481E080934B04A1C08D3009F09EC066
:10558000002361F08AE566E00E947F278CE494E0C6
:1055900060E00E94C120109258048EC020914D04FA
:1055A000205180914C043AE0839FC0011124280FC0
:1055B0002093930420914F04205180914E04839FA7
:1055C000C0011124280F20939E04209151042051E2
:1055D00080915004839FC0011124280F20938D04D3
:1055E00080918D0490E083709070892B11F08CE194
:1055F00001C08DE190914B04992309F443C08A8343
:1056000080919304980F909393048091930488233E
:10561000E1F480919E04815080939E0480919E04C9
:10562000882351F480918D04815080938D048CE007
:1056300080939E048FE106C080919E04FE01E80FD6
:10564000F11D8081809393041DC0909193048091FB
:105650009E04FE01E80FF11D8081891798F491E006
:105660009093930480919E048F5F80939E04809119
:105670009E048D3038F080918D048F5F80938D046F
:1056800090939E0410919F04F0909404D09089040C
:1056900080919E046091930440918D040E94B030EB
:1056A000282F00919304E0909E04C0908D04812FD8
:1056B0006F2D4D2D0E94F92881E001C080E02C96CD
:1056C0000FB6F894DEBF0FBECDBFCF91DF911F9113
:1056D0000F91FF90EF90DF90CF90089580E090E0E1
:1056E0000E94D83AE6EAF0E0E4918E17E1F080EA11
:1056F0009FE064E60E94D32884E690E00E94202F79
:1057000080EA9FE064E60E94D32884E690E00E944D
:10571000202F80EA9FE064E60E94D32888EE93E081
:105720000E94202FE4CF0895DF93CF93CDB7DEB74B
:1057300029970FB6F894DEBF0FBECDBF1982F8943B
:1057400080ED61E0AE014F5F5F4F0E94222488230D
:1057500099F080EA9FE064E60E94D32884E690E016
:105760000E94202F80EA9FE064E60E94D32888EE02
:1057700093E00E94202FEDCF80ED67E0AE014E5FF9
:105780005F4F0E9469247894882399F080EA9FE013
:1057900064E60E94D32884E690E00E94202F80EAED
:1057A0009FE064E60E94D32888EE93E00E94202FB9
:1057B000EDCF7A81872F82958F7090E087709070FF
:1057C0009C01F3E0220F331FFA95E1F7880F991F30
:1057D000280F391F872F8F70820F80939F044B8172
:1057E000842F82958F7090E0877090709C0163E0A9
:1057F000220F331F6A95E1F7880F991F280F391F71
:105800004F70420F409394048C81482F42954F7003
:10581000682F6F7086FF22C082958695877090E012
:10582000817090709C01220F331F280F391F220FA7
:10583000331F220F331F842F90E081709070AC01D2
:10584000F3E0440F551FFA95E1F7880F991F480FB1
:10585000591F240F260F2093890411C0842F90E034
:10586000837090709C0143E0220F331F4A95E1F74B
:10587000880F991F280F391F620F609389044E818A
:10588000842F82958F7090E0837090709C01A3E0CC
:10589000220F331FAA95E1F7880F991F280F391F90
:1058A0004F70420F409393044F81842F82958F70E5
:1058B00090E0817090709C01E3E0220F331FEA9525
:1058C000E1F7880F991F280F391F4F70420F40933F
:1058D0009E042885822F82958F703AE0839FC001B5
:1058E00011242F70280F20938D04872F80782996FC
:1058F0000FB6F894DEBF0FBECDBFCF91DF910895F4
:10590000CF92EF920F930E947C230E94942B8823C6
:1059100059F080E060E04CE020E001E0EE24E39408
:10592000A9E0CA2E0E94F9280E94942B82E090E000
:105930000E94D83A6CE30E94C43990938E0481E0AF
:1059400090E00E94D83A68E10E94C439909398048C
:1059500087E08093B10081E08093700078940F918C
:10596000EF90CF9008951F920F920FB60F921124CF
:10597000FF920F931F932F933F934F935F936F93D8
:105980007F938F939F93AF93BF93EF93FF93A895CC
:1059900080914804803579F41092480410919F0456
:1059A00000919404F09089040E94942B80918904C2
:1059B0008F1529F40AC08F5F80934804A2C081E04C
:1059C00080933C04F092950407C080919404801762
:1059D00031F081E080933B0400938B0409C08091F7
:1059E0009F04811729F081E080933D041093A10466
:1059F00080919F04811709F43FC080919904882306
:105A000059F08091440490914504009729F0019742
:105A1000909345048093440480913E04882361F16F
:105A200080913E04815080933E0480913E048823FF
:105A300019F580913F0480938A0410923F0480916D
:105A40003C04882329F0809195048093890404C044
:105A500080913B04882321F080918B0480939404EF
:105A600080913C04882321F480913B04882321F019
:105A7000F09289040093940480919604882399F00D
:105A800080919F04882379F49091940480918E04EE
:105A9000981749F49091890480919804981719F403
:105AA00081E08093A00480913B04882369F4809175
:105AB0003C04882349F48091A004882329F081E0E4
:105AC000809399041092A00480914904863039F49F
:105AD000109249048091ED03882329F409C08F5F57
