:100000000C9402060C941F060C941F060C94461ABE
:100010000C941F060C941F060C941F060C941F06CC
:100020000C941F060C94572E0C941F060C94DD297B
:100030000C941F060C946A290C947C290C941F06BE
:100040000C941F060C941F060C941F060C941F069C
:100050000C941F060C946B1A0C941F060C941F062C
:100060000C9460260C941F0605A84CCDB2D44EB952
:100070003836A9020C50B9918688083CA6AAAA2A4B
:10008000BE000000803F0004020403647261770038
:10009000796561722100646174652100646F6E6529
:1000A00020696E697400C54932433A204255535F56
:1000B0004552524F520D0A004932433A204E4F5F8B
:1000C000494E464F0D0A004932433A2053542D3EC3
:1000D000444154415F4E41434B206F72204C415389
:1000E000545F444154410D0A004932433A2053546D
:1000F0002D3E444154415F41434B0D0A0049324378
:100100003A2053542D3E534C415F41434B0D0A005E
:100110004932433A2053522D3E53525F53544F506D
:100120000D0A004932433A2053522D3E4441544176
:100130005F4E41434B0D0A004932433A2053522D42
:100140003E444154415F41434B0D0A004932433A1A
:100150002053522D3E534C415F41434B0D0A004901
:1001600032433A204D522D3E534C415F41434B0D9B
:100170000A004932433A204D522D3E444154415FDA
:1001800041434B0D0A004932433A204D542D3E4124
:1001900052425F4C4F53540D0A004932433A204DAE
:1001A00054522D3E534C415F4E41434B206F7220C1
:1001B0004D542D3E444154415F4E41434B0D0A0086
:1001C0004932433A204D522D3E444154415F4E4105
:1001D000434B0D0A004932433A204D542D3E534CB7
:1001E000415F41434B206F7220444154415F414382
:1001F0004B0D0A004932433A204D2D3E5354415293
:10020000540D0A000C0FFFFF0A11FFFF0912FFFF38
:10021000080B1013070B1014060A1115060A111506
:10022000050A1116050A1116040A111704091217F6
:1002300003091218030912180309121802091218E7
:1002400002091219020912190209121902091219D6
:100250000109121A0109121A0109121A0109121AC6
:100260000109121A0109121A0109121A0109121AB6
:100270000109121A0109121A0009121B0009121BA6
:100280000009121B0009121B0009121B0009121B96
:100290000009121B0109121A0109121A0109121A86
:1002A0000109121A0109121A0109121A0109121A76
:1002B0000109121A0109121A020912190209121966
:1002C0000209121902091219020912180309121857
:1002D000030912180309121804091217040A111746
:1002E000050A1116050A1116060A1115060A111536
:1002F000070B1014080B10130912FFFF0A11FFFF60
:100300000C0FFFFF1111FFFF0F11FFFF0E11FFFF79
:100310000C11FFFF0B11FFFF0911FFFF0811FFFF79
:100320000611FFFF0511FFFF0311FFFF0205081172
:10033000020309110911FFFF0911FFFF0911FFFF56
:100340000A11FFFF0A11FFFF0A11FFFF0A11FFFF49
:100350000A11FFFF0A11FFFF0A11FFFF0A11FFFF39
:100360000A11FFFF0A11FFFF0A11FFFF0A11FFFF29
:100370000A11FFFF0A11FFFF0A11FFFF0A11FFFF19
:100380000A11FFFF0A11FFFF0A11FFFF0A11FFFF09
:100390000A11FFFF0A11FFFF0A11FFFF0A11FFFFF9
:1003A0000A11FFFF0A11FFFF0A11FFFF0A11FFFFE9
:1003B0000A11FFFF0A11FFFF0A11FFFF0A11FFFFD9
:1003C0000A11FFFF0A11FFFF0A11FFFF0A11FFFFC9
:1003D0000A11FFFF0A11FFFF0A11FFFF0A11FFFFB9
:1003E0000912FFFF0912FFFF0912FFFF0912FFFFA9
:1003F0000812FFFF0713FFFF0416FFFF0218FFFF9D
:100400000218FFFF0C10FFFF0A12FFFF0913FFFF86
:100410000814FFFF0715FFFF0616FFFF0616FFFF74
:100420000517FFFF0517FFFF0417FFFF0418FFFF65
:1004300003060D1803050E1803040F1802040F1805
:1004400002031018020310180102111801021118FA
:100450001118FFFF1118FFFF1118FFFF1118FFFF00
:100460001118FFFF1118FFFF1117FFFF1117FFFFF2
:100470001117FFFF1116FFFF1016FFFF1015FFFFEA
:100480001015FFFF0F14FFFF0F14FFFF0F13FFFFE7
:100490000E13FFFF0E12FFFF0E11FFFF0D11FFFFE6
:1004A0000D10FFFF0C0FFFFF0C0FFFFF0B0EFFFFE8
:1004B0000B0DFFFF0A0D1B1B0A0C1B1B090B1A1B44
:1004C000090B1A1B080A191B0709191A0708181A19
:1004D0000608141A061AFFFF051AFFFF051AFFFF88
:1004E0000419FFFF0319FFFF0319FFFF0219FFFFA4
:1004F0000219FFFF0119FFFF0019FFFF0018FFFF9E
:100500000018FFFF0C11FFFF0A14FFFF0915FFFF82
:100510000816FFFF0716FFFF0617FFFF0517FFFF6F
:1005200004080B1804060D1803050E1803040F1811
:100530000204101802031018020310180202101807
:100540001018FFFF1018FFFF1018FFFF1017FFFF14
:100550001017FFFF1016FFFF1016FFFF0F15FFFF0C
:100560000F14FFFF0E14FFFF0D15FFFF0C16FFFF0A
:100570000B17FFFF0918FFFF0918FFFF0919FFFFFD
:100580000B19FFFF0C19FFFF0E1AFFFF0F1AFFFFD9
:10059000101AFFFF111AFFFF121AFFFF121AFFFFB6
:1005A000131AFFFF131AFFFF141AFFFF141AFFFF9D
:1005B000141AFFFF141AFFFF141AFFFF151AFFFF8A
:1005C000151AFFFF1519FFFF1519FFFF1519FFFF7A
:1005D0000206151801071418010814180009141749
:1005E00000091416000A1316010B1215010C111440
:1005F0000113FFFF0212FFFF0311FFFF040FFFFFB4
:10060000060CFFFF1317FFFF1217FFFF1217FFFF64
:100610001117FFFF1117FFFF1017FFFF1017FFFF44
:100620000F17FFFF0F17FFFF0E17FFFF0E17FFFF3C
:100630000D17FFFF0D17FFFF0C17FFFF0C17FFFF34
:100640000B0D0F170B0D0F170A0C0F170A0C0F17B6
:10065000090B0F17090B0F17080A0F17080A0F17B6
:1006600007090F1707090F1706080F1706080F17B6
:1006700005070F1705070F1704060F1704060F17B6
:1006800003050F1703050F1702040F1702040F17B6
:1006900001030F1701030F1700020F1700020F17B6
:1006A00000020F17001BFFFF001BFFFF001BFFFFD7
:1006B000001BFFFF001BFFFF001BFFFF001BFFFFD6
:1006C000001BFFFF001BFFFF001BFFFF001BFFFFC6
:1006D0000F17FFFF0F17FFFF0F17FFFF0F17FFFF8A
:1006E0000F17FFFF0F17FFFF0F17FFFF0F17FFFF7A
:1006F0000F17FFFF0F17FFFF0F17FFFF0F17FFFF6A
:100700000F17FFFF081BFFFF081AFFFF081AFFFF64
:10071000081AFFFF071AFFFF0719FFFF0719FFFF5E
:100720000719FFFF0719FFFF0618FFFF0618FFFF55
:100730000618FFFF0607FFFF0607FFFF0607FFFF7C
:100740000507FFFF0506FFFF0506FFFF0506FFFF84
:100750000506FFFF040CFFFF040FFFFF0411FFFF5E
:100760000412FFFF0414FFFF0414FFFF0315FFFF33
:100770000316FFFF0316FFFF0317FFFF0317FFFF1B
:100780000218FFFF0218FFFF0A18FFFF0C19FFFFF6
:100790000E19FFFF1019FFFF1119FFFF1219FFFFBC
:1007A0001319FFFF1319FFFF1419FFFF1419FFFF9F
:1007B0001519FFFF1519FFFF1519FFFF1619FFFF88
:1007C0001619FFFF1619FFFF1618FFFF030516186D
:1007D0000206151801081517010915170009141745
:1007E000000A1416000B1315000D12150114FFFF5B
:1007F0000113FFFF0212FFFF0311FFFF040FFFFFB2
:10080000060CFFFF181AFFFF151AFFFF131AFFFF50
:100810001117FFFF1016FFFF0E14FFFF0D13FFFF50
:100820000C12FFFF0B11FFFF0A10FFFF0910FFFF63
:10083000080FFFFF080EFFFF070EFFFF060DFFFF6B
:10084000060DFFFF050DFFFF050CFFFF040CFFFF6A
:10085000040CFFFF040BFFFF030BFFFF030BFFFF65
:10086000030BFFFF020A0D110214FFFF0215FFFF29
:100870000216FFFF010B0E17010A1018010A1018CB
:100880000109111901091119010911190109121A96
:100890000109121A0109121A0109121A0109121A80
:1008A0000109121B0109121B0109121B0109121B6C
:1008B0000109121B0109121B0109121B0109121A5D
:1008C0000109121A0209121A0209121A0209121A4D
:1008D00002091219030A1219030A1219030A12183B
:1008E000040A1218040A1218050A1217050B121727
:1008F000060B1116070C11150814FFFF0A13FFFF52
:100900000C10FFFF031BFFFF031BFFFF021AFFFF7B
:10091000021AFFFF021AFFFF021AFFFF0219FFFF70
:100920000219FFFF0219FFFF0219FFFF0118FFFF65
:100930000118FFFF0118FFFF010414180103141828
:1009400001021317000213170001131700011317F8
:1009500000011216000112161216FFFF1216FFFFF9
:100960001116FFFF1115FFFF1115FFFF1115FFFFF6
:100970001115FFFF1014FFFF1014FFFF1014FFFFED
:100980001014FFFF0F14FFFF0F13FFFF0F13FFFFE4
:100990000F13FFFF0E13FFFF0E12FFFF0E12FFFFDC
:1009A0000E12FFFF0D12FFFF0D12FFFF0D11FFFFD3
:1009B0000D11FFFF0C11FFFF0C11FFFF0C10FFFFCB
:1009C0000C10FFFF0C10FFFF0B10FFFF0B10FFFFC1
:1009D0000B0FFFFF0B0FFFFF0A0FFFFF0A0FFFFFB9
:1009E0000A0EFFFF0A0EFFFF090EFFFF090EFFFFB1
:1009F000090EFFFF090DFFFF080DFFFF080DFFFFA8
:100A0000080DFFFF0B11FFFF0814FFFF0715FFFF85
:100A1000060B1016050A11170409121804091218FA
:100A200003081318030813190208131902081319ED
:100A300002081319020813190108131901091319DF
:100A400001091319010A1319010A1319010B1319CA
:100A5000020B1318020C1218020D1217020E1216B6
:100A6000030F11150314FFFF0312FFFF0412FFFF12
:100A70000513FFFF0514FFFF0615FFFF0716FFFF15
:100A80000816FFFF0917FFFF0917FFFF0718FFFFF1
:100A9000060A0C1805090D1904090E1903080E1988
:100AA00003080F1A0208101A0208111A0107111A76
:100AB0000107121A0107121A0107121A0107131A65
:100AC0000107131A0107131A0107131A0107131A52
:100AD0000107131A01071319010713190108131944
:100AE0000208131802081218030812170309111735
:100AF000040A1116050B10150614FFFF0812FFFF5C
:100B00000A0FFFFF0B10FFFF0812FFFF0713FFFF85
:100B1000060B0F14050A1015050A11160409111603
:100B200004091117030911170309111802091218F2
:100B300002091219020912190109121901091219DF
:100B40000109121A0109121A0109121A0109121ACD
:100B50000109121A0109121A0109121A0109121ABD
:100B60000109121A0109121A0109121A0109121AAD
:100B70000109121A010A121A020A121A020A121A98
:100B8000020A121A030A121A030B121A040C111A7F
:100B9000041AFFFF051AFFFF0619FFFF070F1119BF
:100BA0000A0C11191019FFFF1018FFFF1018FFFF92
:100BB0001018FFFF0F17FFFF0F17FFFF0F16FFFFA4
:100BC0000E16FFFF0E15FFFF0E15FFFF0D14FFFFA2
:100BD0000D13FFFF0C13FFFF0B12FFFF0B11FFFFA5
:100BE0000A10FFFF090FFFFF080EFFFF070DFFFFB1
:100BF000050BFFFF040AFFFF0108FFFF0105FFFFD0
:100C00000102FFFF11241FBECFEFD8E0DEBFCDBF32
:100C100013E0A0E0B1E0E6ECF8E702C005900D9229
:100C2000A03DB107D9F714E0A0EDB3E001C01D92DB
:100C3000AA3BB107E1F70E947E2F0C94613C0C9413
:100C400000008F929F92AF92BF92CF92DF92EF926D
:100C5000FF920F931F93CF93DF9300E010E058ECC7
:100C6000852E912C0E942D29DD24CC24AA24BB247E
:100C7000CC2009F044C0E801C455DD4F0F5F1F4F81
:100C8000CE010E94173BE82E8FEFE816B9F4DD2065
:100C900019F0CC24C39433C086ED8093A9040E943C
:100CA0006421DF91CF911F910F91FF90EF90DF9022
:100CB000CF90BF90AF909F908F900895DD2019F452
:100CC0005801AE0CB11C2E2D30E0C901880F991FC0
:100CD000820F931F909581959F4F815C6D2D0E948F
:100CE0002329FE2C07C0CE010E94173B60E00E9422
:100CF0002B22FA942196FF20B1F70E0D111DD394EB
:100D000088E0D81609F0B4CF88E893E1F401319770
:100D1000F1F701978501D1F7A5CF0F931F9388E0D5
:100D200090E00E94173B809351040E942D2980E09F
:100D300091E060E00E94652288E062E00E94232941
:100D40008AE091E060E00E94652288E064E00E9411
:100D5000232982E191E060E00E94652288E067E05B
:100D60000E94232989E191E060E00E94652291E0E0
:100D700000ED18E38091FB03882369F18091FB0368
:100D8000823089F0843019F0813019F518C08091D3
:100D900051048F5F80935104809151048933C4F0D2
:100DA0001093510415C080915104815080935104D7
:100DB00080915104803D64F40093510409C087E0A0
:100DC00090E00E94173B8093A9041F910F91089512
:100DD00091E01092FB03992309F443C06091510400
:100DE00088E090E00E941F3B85E362E00E94232997
:100DF0008091510487FD03C08DE291E002C08FE233
:100E000091E060E00E94652280915104992787FD5E
:100E1000909597FF03C0909581959F4F95958795E5
:100E20009595879560E00E94602A81E391E060E0FB
:100E30000E94652280915104282F332727FD309589
:100E400037FF03C0309521953F4F23703070C901A3
:100E500034E0880F991F3A95E1F7821B60E00E9409
:100E6000602A81E00E94002B90E084CF80913501C0
:100E70008150809335018823F1F485E0809335011A
:100E8000809133018093D00390913401980F909317
:100E90003301903218F08FEF80933401992319F4C5
:100EA00081E08093340190E08091D103882309F49C
:100EB00091E09093D1030895FF920F931F93082F11
:100EC000F62E6AE00E94033A182F805D6F2D0E9473
:100ED0002B22005D86EF9FEF189F102D1124812F8C
:100EE000800F6F2D0E942B221F910F91FF9008956C
:100EF0001F93182F80E060E00E94232980916B04EB
:100F0000612F0E945C0780916A04612F0E945C0738
:100F100086E660E00E94232980916C04612F0E9484
:100F20005C0780916904612F0E945C071F910895FE
:100F30000F931F93082F14E1812F67E00E9423294C
:100F400086E0602F0E94F621185E1437A9F71F91E2
:100F50000F910895DF92EF92FF920F931F93E82E67
:100F6000909133018091D003981718F4892F805AFB
:100F700002C0892F815068E041E020E30E2D0E94DD
:100F8000762260E083E0D82E15C080913301800F77
:100F9000612F0E9423298091D1038D9DC0011124CE
:100FA0008F0D6E2D0E94F621005F003671F716300E
:100FB00039F0612FF62EF69400E0162F1F5FE5CF73
:100FC0001F910F91FF90EF90DF9008951F93182FBE
:100FD00080914B04882359F480914C04882339F480
:100FE00090914F048091D303891709F44EC0109259
:100FF0004C0480914C0480934B048091D20388234D
:1010000009F043C081E08093D20380914F04809324
:10101000D3038091A1040E94A83280936B04809135
:10102000AC0480936A0480914F04833049F480912A
:10103000B0040E94A83280936C048091A6041BC067
:1010400080914F04813031F484E180936C0480916D
:10105000A50411C08091AF04882339F48091B604AF
:1010600080936C048091AB0406C08091AB048093A4
:101070006C048091B604809369048091D2038150FE
:101080008093D203812F0E9478071F9108951F93A8
:10109000182F0E94AA078091B104882321F480911F
:1010A000D403882339F0812F0E9498078091B104DE
:1010B0008093D403812F0E94E6071F9108950F9318
:1010C0001F93182F80E060E040E820E4012F0E9489
:1010D000762283E68093D303812F0E94E607812F37
:1010E0000E947807812F0E94AA07812F0E949807EB
:1010F0001F910F91089581E0809333011092D003E6
:1011000080E00E945F0808952F923F924F925F9275
:101110006F927F928F929F92AF92BF92CF92DF9207
:10112000EF92FF920F931F932090D7033090D80334
:101130004090D9035090DA036090DB037090DC0399
:101140008090DD039090DE03AA24BB246501F501A5
:10115000E370F070EE0FFF1FEE0FFF1FEB57FB4F1A
:10116000E080F18002811381EA0CFB1C0C1D1D1D27
:10117000D401C30175E0B695A795979587957A95A3
:10118000D1F7A401930164E0220F331F441F551FC0
:101190006A95D1F782279327A427B527860D971D37
:1011A000A81DB91DE826F9260A271B272E0C3F1C6F
:1011B000401E511E89EB99E7A7E3BEE9A80EB91EB0
:1011C000CA1EDB1EA2019101F5E0569547953795A1
:1011D0002795FA95D1F7D201C101E4E0880F991F54
:1011E000AA1FBB1FEA95D1F7282739274A275B2773
:1011F000220D331D441D551DD601C5017BE0B6955A
:10120000A795979587957A95D1F783709070880FF9
:10121000991F880F991F8B579B4FFC0180819181EB
:10122000A281B3818A0D9B1DAC1DBD1D28273927C6
:101230004A275B27620E731E841E951EF0E2AF16CE
:10124000F7E3BF06FFEECF06F6ECDF0609F07FCF2F
:101250002092D7033092D8034092D9035092DA03F8
:101260006092DB037092DC038092DD039092DE03D8
:101270001F910F91FF90EF90DF90CF90BF90AF90B4
:101280009F908F907F906F905F904F903F902F90A6
:10129000089580EB96EEA2E7B1EB809391049093D2
:1012A0009204A0939304B09394048091B70490E0C7
:1012B000A0E0B0E02EE631E749EE5DE28227932719
:1012C000A427B5278093850490938604A093870470
:1012D000B09388048091AC0490E0A0E0B0E021EDF0
:1012E0003DED4FE359E982279327A427B527809343
:1012F000890490938A04A0938B04B0938C0480910A
:10130000A10490E0A0E0B0E027E53BEF47E75AE218
:1013100082279327A427B52780938D0490938E046A
:10132000A0938F04B09390041092D7031092D80327
:101330001092D9031092DA031092DB031092DC03AF
:101340001092DD031092DE030E948408089581301C
:10135000F9F48091DB039091DC03A091DD03B0915F
:10136000DE032091D7033091D8034091D9035091E7
:10137000DA0382279327A427B5273FE0B695A795E0
:10138000979587953A95D1F79C01237030702FC0BF
:101390008230F9F48091DB039091DC03A091DD03AE
:1013A000B091DE032091D7033091D8034091D90347
:1013B0005091DA0382279327A427B52721E1B69518
:1013C000A795979587952A95D1F79C012170307044
:1013D0000EC0A8950E9484082091DB033091DC03A5
:1013E0008091D7039091D803282739273F77C901E7
:1013F0000895AF92CF92EF920F93A82FB0E0E02F15
:10140000F0E0CD01840F911D8E179F07B4F0EC0D15
:10141000F11DEA17FB078CF070E04E2D50E0CB0178
:10142000820F911D8417950744F080E04A0D511DED
:10143000461757071CF081E001C080E00F91EF9044
:10144000CF90AF900895EF92FF920F931F9380E09B
:101450000E94A709A0E0B0E0BC01CD010E94763750
:1014600020E030E048E452E40E948E3420E03EEF79
:101470004FEF56E40E94883520E030E040EA51E426
:101480000E9461347B018C0181E00E94A709837076
:101490002AE5829FC0011124AA2797FDA095BA2FA3
:1014A000BC01CD010E94C4369B01AC01C801B7014B
:1014B0000E94613426E53EE049E450E40E948E3407
:1014C00020E030E044E353E40E9488351F910F91FF
:1014D000FF90EF9008952F923F924F925F926F92FC
:1014E0007F928F929F92AF92BF92CF92DF92EF92B4
:1014F000FF920F931F93DF93CF93CDB7DEB7619722
:101500000FB6F894DEBF0FBECDBFEC86FD860E870A
:101510001F87998A888A2D833E834F835887AC0121
:10152000CB01DA013C014D01C501D6015C016D0121
:101530001A8619869FC06D817E818F819885A6014C
:1015400095010E9461341B012C01C401B3012C855B
:101550003D854E855F850E94613469837A838B83E4
:101560009C83C201B10120E030E048E652E40E94D1
:10157000343618167CF4D7FAD094D7F8D0940F2EBE
:10158000F0E02F2EF0E03F2EF8E64F2EF2E45F2E33
:10159000F02D18C0C201B10120E030E040E050E47D
:1015A0000E949436882374F4D7FAD094D7F8D09454
:1015B0000F2EF0E02F2EF0E03F2EF0E04F2EF0E463
:1015C0005F2EF02D69817A818B819C810E94223768
:1015D0006B876F368CF0C801B70120E030E046EE33
:1015E00052E40E94943688233CF460E070E086EE7A
:1015F00092E4A801970113C0FB85FE3054F5C401A5
:10160000B30120E030E040E551E40E943436181682
:1016100004F560E070E080E591E4A40193010E948C
:1016200030342C853D854E855F850E948835A60126
:1016300095010E948E349B01AC016D817E818F816A
:1016400098850E9461340E94B832E889F9896083E4
:1016500007C0F985FF2321F48A858F5F8A8702C03E
:10166000E1E0E9872D823E824F82588669807A8048
:101670008B809C80C401B30120E030E04CEE52E44A
:101680000E94943688239CF4C401B30120E030E02A
:1016900040E850E40E9461347B018C0120E030E09E
:1016A00040E251E40E94343618160CF444CF6D81A8
:1016B0007E818F8198850E94B832EEA1FFA1608360
:1016C0008A8561960FB6F894DEBF0FBECDBFCF916D
:1016D000DF911F910F91FF90EF90DF90CF90BF901F
:1016E000AF909F908F907F906F905F904F903F90C2
:1016F0002F9008958F929F92AF92BF92CF92DF92D8
:10170000EF92FF920F931F93CF93DF93D82E862EE5
:10171000922EC42FD0E0CC0FDD1FCC0FDD1FC75F92
:10172000DF4FCC24CE010E94173B182D47E0E42E5A
:10173000F12CA82EBB24C5010E2C02C095958795CF
:101740000A94E2F780FF09C000E0992009F401E063
:101750008D2D612F42E022E005C08D2D612F42E0EA
:1017600022E0092D0E9476220894E108F1081E5F0C
:101770008FEFE8168FEFF806F1F6C394219682E01A
:10178000D80E84E0C81671F6DF91CF911F910F91AA
:10179000FF90EF90DF90CF90BF90AF909F908F9091
:1017A0000895CF92DF92EF92FF920F931F93D82E5E
:1017B000C62E882309F5E0909704F09098040091D4
:1017C000990410919A0460917D0470917E04809137
:1017D0007F04909180040E94B83270E06A317105F4
:1017E000C4F069327105ACF4C801B7010E94B83287
:1017F00070E0653171056CF480916B046AE00E94C1
:10180000033A482F8EE164E02C2D0E947A0BDD20F4
:1018100009F5E0909704F0909804009199041091D4
:101820009A0460917D0470917E0480917F04909170
:1018300080040E94B83270E069327105C4F06833E8
:101840007105ACF4C801B7010E94B83270E065318F
:1018500071056CF480916B046AE00E94033A8DE29A
:1018600064E0492F2C2D0E947A0BDD2009F5E090D1
:101870009704F09098040091990410919A04609153
:101880007D0470917E0480917F04909180040E9479
:10189000B83270E062347105C4F061357105ACF4A2
:1018A000C801B7010E94B83270E0653171056CF46F
:1018B00080916C046AE00E94033A482F86E464E059
:1018C0002C2D0E947A0BDD2009F5E0909704F09012
:1018D00098040091990410919A0460917D0470918C
:1018E0007E0480917F04909180040E94B83270E061
:1018F00061357105B4F0603671059CF4C801B7011B
:101900000E94B83270E0653171055CF480916C041E
:101910006AE00E94033A85E564E0492F2C2D0E947D
:101920007A0B1F910F91FF90EF90DF90CF90089569
:101930000F931F93082F10E08FE3612F0E9423293C
:10194000002311F080EF01C08FE00E94CA281F5FC2
:10195000173091F78FE367E00E942329002311F0ED
:1019600080E201C08FEC0E94CA281F910F91089558
:1019700090914F048091D603981739F081E08093BD
:10198000D50380914F048093D60380914F0481301A
:1019900059F1813030F08230C9F1833009F048C00C
:1019A0003DC080914B04882321F480914C0488230E
:1019B00091F080914C04882339F08091AD040E940D
:1019C000A83280936B0404C080914B04882381F17A
:1019D0008091A30420C08091A1040E94A83280932A
:1019E0006B048091AC0417C08091AF04882339F454
:1019F0008091B60480936B048091AB040CC08091FD
:101A0000AB0480936B048091B60405C084E180939D
:101A10006B048091A50480936C0408958091B004B8
:101A20000E94A83280936B048091A60480936C047A
:101A30000895BF92CF92DF92EF92FF920F931F9380
:101A4000B82E0E94B80C60917D0470917E04809144
:101A50007F04909180040E94B8327B018C016091D8
:101A60009704709198048091990490919A040E942F
:101A7000B8329B01AC018E2D622F44E024E00B2D87
:101A80000E947622CC24BB2011F4CC24C394609114
:101A900081047091820480918304909184040E9457
:101AA000B8327B018C01609174047091750480914F
:101AB0007604909177040E94B8329B01AC018E2D80
:101AC000622F44E024E00C2D0E947622E0909704DF
:101AD000F09098040091990410919A0460917D040B
:101AE00070917E0480917F04909180040E94B832AE
:101AF00070E06B33710564F0613471054CF4C8011A
:101B0000B7010E94B83270E0613471050CF476C000
:101B100060916D04262F30E080916E04992787FD37
:101B200090952817390731F08AE043E02CE00B2D1F
:101B30000E9476228AE060916E0443E02CE00C2D36
:101B40000E94762260919604262F30E080919504C1
:101B5000992787FD90952817390731F083E743E0EF
:101B60002CE00B2D0E94762283E76091950443E0E0
:101B70002CE00C2D0E947622E0909704F0909804BF
:101B80000091990410919A04D090950460917D047D
:101B900070917E0480917F04909180040E94B832FD
:101BA00070E06F367105A4F0673771058CF4C801D9
:101BB000B7010E94B83270E02D2D30E0CB010496C1
:101BC000821793072CF0245F3F4F26173707D4F472
:101BD000109270008091D503882311F01092D503E4
:101BE00081E0809370006B2D0E94D10B1F910F91AB
:101BF000FF90EF90DF90CF90BF9008958B2D0E94C3
:101C0000980C86CF83E76D2D43E02CE00C2D0E94CD
:101C10007622DECF2F923F924F925F926F927F9209
:101C20008F929F92AF92BF92CF92DF92EF92FF92EC
:101C30000F931F93DF93CF93CDB7DEB72E970FB6D9
:101C4000F894DEBF0FBECDBF609181047091820415
:101C5000809183049091840460937D0470937E044A
:101C600080937F0490938004E0907404F090750456
:101C70000091760410917704E0929704F092980412
:101C80000093990410939A04209178043091790478
:101C900040917A0450917B040E9461345B016C0195
:101CA00060938104709382048093830490938404EE
:101CB000609070047090710480907204909073042E
:101CC000C801B701A40193010E94613460937404B8
:101CD00070937504809376049093770420E030E04D
:101CE00048E652E40E9434361816BCF480E090E0D6
:101CF000A8E6B2E48093740490937504A0937604EC
:101D0000B0937704D401C301B058809370049093CA
:101D10007104A0937204B093730460917404709181
:101D20007504809176049091770420E030E040E0E3
:101D300050E40E9494368823ECF480E090E0A0E028
:101D4000B0E48093740490937504A0937604B093E8
:101D500077048091700490917104A0917204B09105
:101D60007304B0588093700490937104A09372042C
:101D7000B0937304C601B50120E030E048EF52E4AF
:101D80000E94343618163CF0C601B5010E94223775
:101D900016160CF464C080E090E0ACE7B2E48093E7
:101DA000810490938204A0938304B093840480E020
:101DB00090E0A8EFB1E48093740490937504A0932D
:101DC0007604B09377040E94230A7B018C010E9461
:101DD000B33A20E030E040EA50E40E948E34609351
:101DE00078047093790480937A0490937B04C801FB
:101DF000B7010E94113B20E030E040EA50E40E942D
:101E00008E34609370047093710480937204909385
:101E100073046091E5032091E403261B8AE043E00C
:101E200000E00E9476226091E9032091E803261BDE
:101E300083E743E00E9476221092E8031092E903C0
:101E40001092E4031092E50381E08093D503109291
:101E50004C0480914C0480934B040E94B80C8091F8
:101E60006E048E8380936D04909195049D8390936E
:101E70009604209078043090790440907A04509031
:101E80007B04C201B10120E030E040E050E00E945C
:101E9000343618160CF038C16091810470918204B8
:101EA00080918304909184040E9422376F360CF451
:101EB00067C0E0907D04F0907E0400917F04109153
:101EC0008004C801B7010E94223760370CF058C067
:101ED000C801B70120E030E040E850E40E946134DE
:101EE0009B01AC0160E070E086EE92E40E94303429
:101EF0005B016C01609070047090710480907204BA
:101F000090907304C801B701A60195010E94613445
:101F10006F83788789879A87E0909704F090980478
:101F20000091990410919A040E94B83270E06F36C3
:101F3000710534F1673771051CF5C601B501A201C1
:101F400091010E948835A40193010E948E349B0167
:101F5000AC01C801B7010E9461347B018C010E9471
:101F6000B83270E0AD812A2F30E0CB0104968217A1
:101F7000930734F0245F3F4F261737070CF02CC22D
:101F8000E0907804F090790400917A0410917B0439
:101F9000C801B70120E030E040E050E00E94343654
:101FA00018160CF0FBC16090810470908204809040
:101FB000830490908404C401B30120E030E040E841
:101FC00050E40E94613420E030E046EE52E40E948A
:101FD000943688230CF0E2C18091E903882309F04C
:101FE0005DC000D020917404309175044091760456
:101FF00050917704A0907004B0907104C090720466
:10200000D090730486EE93E0EDB7FEB792838183A0
:10201000C401B301F7EE8F2EF3E09F2E0E946B0AEE
:102020008093DF039091E7038091E6030F900F9078
:10203000891738F48093E9039C5F9093E8039450E8
:1020400005C09093E9038C5F8093E80380914C0472
:10205000882379F4892F84508093E103992787FDA1
:1020600090950E947C3186E890E061E00E94083102
:102070001AC00091E9031091E8030F3058F01133B2
:1020800028F482E00E94A70980FF04C00D5000934D
:10209000E10309C01F5F1093E10305C08091DF03D6
:1020A00081508093DF03309195046091E103832F89
:1020B000861B482F552747FD509557FF03C0509565
:1020C00041955F4F8091DF0325E08202C00111241A
:1020D0000497481759070CF461C1842F36173CF454
:1020E000463014F03B5F01C0340F3093950490915B
:1020F000950469170CF052C1863014F0955001C058
:10210000981B909395044AC1809181049091820418
:10211000A0918304B091840489839A83AB83BC83A8
:10212000BC01CD010E9422376E300CF07DC0E090E2
:102130007D04F0907E0400917F0410918004C8011A
:10214000B7010E9422376D300CF46EC060E070E081
:1021500080E591E4A80197010E9430345B016C0195
:102160006090700470907104809072049090730479
:10217000C801B701A60195010E9461346B877C8775
:102180008D879E87E0909704F090980400919904C1
:1021900010919A040E94B83270E0663071050CF418
:1021A00043C06E3071050CF03FC0C601B501A201FD
:1021B00091010E948835A40193010E948E349B01F5
:1021C000AC01C801B7010E9461347B018C010E94FF
:1021D000B83270E09E81292F30E0CB01049682173F
:1021E000930714F1245F3F4F26173707ECF024C103
:1021F0008B859C85AD85BE858093810490938204F8
:10220000A0938304B0938404E0927404F092750464
:1022100000937604109377041092E4031092E50380
:102220001092E0031092E303E0907804F0907904B8
:1022300000917A0410917B04C801B70120E030E0DE
:1022400040E050E00E94943688230CF0A7C06090D4
:102250008104709082048090830490908404C4016F
:10226000B30120E030E040E651E40E943436181615
:102270000CF094C08091E503882309F054C000D08D
:102280002091740430917504409176045091770444
:10229000A0907004B0907104C0907204D090730448
:1022A00082EE93E0ADB7BEB712969C938E931197D2
:1022B000C401B301E3EE8E2EE3E09E2E0E946B0A72
:1022C0008093DF039091E3038091E2030F900F90DE
:1022D000891738F48093E5039C5F9093E40394504E
:1022E00005C09093E5038C5F8093E40380914B04D9
:1022F000882321F494509093E0031AC00091E503E1
:102300001091E4030F3058F0113328F482E00E945A
:10231000A70980FF04C00D500093E00309C01F5FB0
:102320001093E00305C08091DF0381508093DF03A9
:1023300040916E046091E003242F332727FD3095F0
:10234000862F992787FD9095281B390B37FF03C0EF
:10235000309521953F4F522F8091DF0325E0820277
:10236000C00111240497252F332727FD3095281706
:102370003907A4F046173CF4563014F04B5F01C007
:10238000450F40936E0480916E0468173CF45630FC
:1023900014F0855001C0851B80936E0480916E04FB
:1023A00083301CF483E080936E0480919504833025
:1023B0001CF483E08093950480916E0482331CF0BA
:1023C00081E380936E048091950482330CF449C0BC
:1023D00081E38093950445C08F819885A985BA854E
:1023E0008093810490938204A0938304B093840427
:1023F000E0927404F09275040093760410937704CD
:10240000D201C101B0588093780490937904A093CD
:102410007A04B0937B041092E8031092E9031092BF
:10242000E1031092E7031092E4031092E503109287
:10243000E0031092E303A4CDD201C101B058809310
:10244000780490937904A0937A04B0937B04698113
:102450007A818B819C810E94B8326D3009F0C8CEA0
:10246000DBCE2E960FB6F894DEBF0FBECDBFCF9158
:10247000DF911F910F91FF90EF90DF90CF90BF9071
:10248000AF909F908F907F906F905F904F903F9014
:102490002F900895FF920F931F93F82E80E060E035
:1024A00040E820E40F2D0E94762210E0FF2009F47E
:1024B00011E080E060E040E822E0012F0E947622F7
:1024C00080E06EE340E822E00E9476228AE060919C
:1024D0006E0443E02CE00E94762283E7609195042D
:1024E00043E02CE00E9476220E94B80C80916B049D
:1024F0006AE00E94033A482F8EE164E02F2D0E948B
:102500007A0B80916B046AE00E94033A8DE264E0EA
:10251000492F2F2D0E947A0B80916C046AE00E9453
:10252000033A482F86E464E02F2D0E947A0B8091B5
:102530006C046AE00E94033A85E564E0492F2F2D80
:102540000E947A0B8F2D0E94980C1F910F91FF9083
:102550000895EF92FF920F931F9389E180936E0489
:1025600080936D04809395048093960480E090E0BE
:10257000ACE7B2E48093810490938204A093830437
:10258000B093840480937D0490937E04A0937F0491
:10259000B093800480E090E0A8EFB1E480937404ED
:1025A00090937504A0937604B09377048093970476
:1025B00090939804A0939904B0939A040E94230ADC
:1025C0007B018C010E94B33A20E030E040EA50E405
:1025D0000E948E34609378047093790480937A0417
:1025E00090937B04C801B7010E94113B20E030E0CA
:1025F00040EA50E40E948E3460937004709371043A
:10260000809372049093730480E00E944A121F9199
:102610000F91FF90EF9008958091B504882341F0C9
:1026200080914B04823021F080914C04823031F44F
:1026300010924C0480914C0480934B040895DF92D7
:10264000EF92FF920F931F93D82EE62E10E04423B3
:1026500009F411E08D2D8E5F6E2D4EE026E0012FE6
:102660000E947622FE2CF3948D2D8F5F6F2D41E01A
:1026700024E00E94762282E0E80E8D2D6E2D41E04E
:1026800022E00E9476228D2D805F6F2D41E024E0B4
:102690000E9476228D2D8F5E6E2D41E022E00E94F9
:1026A00076221F910F91FF90EF90DF900895DF92B7
:1026B000EF92FF920F931F93D82E162FEE244423F0
:1026C00011F4EE24E394612F6E5F8D2D46E025E139
:1026D0000E2D0E947622FD2CF394612F6F5F8F2DBB
:1026E00044E021E00E94762282E0D80E8D2D612FF9
:1026F00042E021E00E947622195E8F2D612F44E096
:1027000021E00E9476221F5F8D2D612F42E021E0A3
:102710000E9476221F910F91FF90EF90DF90089515
:102720008436D1F0853638F4823681F0833680F4F1
:10273000813641F507C08636C1F08636A0F087366F
:1027400009F51AC0862F8C5F642F09C04B5F01C04A
:102750004E5D862F8C5E0BC0862F8C5F6AE3422F06
:102760000E941F1308954E5D01C04B5F862F642F9A
:10277000422F0E9457130895862F8C5F6DE1422FE0
:102780000E941F130895CF92DF92EF92FF920F9352
:102790001F93CF93DF93C82ED62E022FC7E0D0E031
:1027A00011E6E42EFF24C7010C2E02C095958795F3
:1027B0000A94E2F780FF05C0812F6C2D4D2D202F4C
:1027C00007C020E0002309F421E0812F6C2D4D2D5E
:1027D0000E94901321971F5F183629F7DF91CF9140
:1027E0001F910F91FF90EF90DF90CF9008950F937E
:1027F000082F80E060E040E820E40E9476220F91FC
:1028000008950F9380E060E040E820E400E00E943B
:1028100076220F910895FF920F931F93182F062F82
:10282000F22E842F90E04A3028F48E559D4F0E945E
:10283000173B04C0895D9D4F0E94173B482F812F95
:10284000602F2F2D0E94C3131F910F91FF900895A9
:1028500020E0442309F421E044E00E946623089527
:10286000EF92FF920F931F93082F80914F048823BC
:10287000C9F080914F048330A9F0102F011111E0AD
:1028800080E465E144E0212F0E94662380E46AE24F
:1028900044E0212F0E94662380E466E044E0212F7B
:1028A0000E94662380914F048230F1F480E060E062
:1028B00042E0202F0E940B148EE160E040E0202FC8
:1028C0000E940B148091A50464E60E94033A892FAC
:1028D0006AE00E94033A482F88E460E0202F0E94BB
:1028E0000B148091A50430C080914F048130B1F564
:1028F0008091AF04882329F41091B604F090AB04C2
:1029000004C01091AB04F090B604812F6AE00E94DD
:10291000033A482F80E060E0202F0E940B14812FA3
:102920006AE00E94033A8EE160E0492F202F0E9466
:102930000B148F2D6AE00E94033A482F88E460E070
:10294000202F0E940B148F2D6AE00E94033A86E626
:1029500060E0492F202F0E940B1480C080914F040B
:10296000882329F080914F04833009F077C080914B
:102970004F04833029F41091B004E090A60404C001
:102980001091A104E090AC048091A404882399F4F0
:10299000812F0E94A832F82E1C3020F420E0002362
:1029A00021F402C020E0011121E080E466E044E06F
:1029B0000E94662309C020E0011121E080E466E066
:1029C00044E00E946623F12E89E08F1548F48F2D94
:1029D0006AE00E94033A482F80E060E0202F07C0A1
:1029E00020E0002309F421E080E060E048E00E945C
:1029F0000B148F2D6AE00E94033A8EE160E0492FAC
:102A0000202F0E940B148E2D6AE00E94033A482F5B
:102A100088E460E0202F0E940B148E2D6AE00E9453
:102A2000033A86E660E0492F202F0E940B14809124
:102A30004D04882399F02091B70411E021272170DB
:102A400080E465E144E00E9466232091B7042127D9
:102A5000217080E46AE244E00E9466231F910F9196
:102A6000FF90EF900895DF92EF92FF920F931F93E4
:102A7000CF93DF93D82EF62EE22EF694F694F694AA
:102A8000EA0100E015C0FE011491802F6CE10E9464
:102A9000033A292F2D0D802F0E94033A682F6F0DC6
:102AA000822F0E942329812F0E94CA280F5F21961E
:102AB0000E1548F3DF91CF911F910F91FF90EF908A
:102AC000DF900895CF92DF92EF92FF920F931F93C2
:102AD000CF93DF93C82EF62ED22EE02EF694F694E6
:102AE000F694EA0110E019C00881812F6CE10E9480
:102AF000033A992341F4812F0E94033A682F6F0D06
:102B00008C2D0E942329EE2019F0802F809501C082
:102B1000802F0E94CA281F5F21961D1528F3DF9180
:102B2000CF911F910F91FF90EF90DF90CF9008957C
:102B30007F928F929F92AF92BF92CF92DF92EF924D
:102B4000FF920F931F93DF93CF93CDB7DEB7C05E95
:102B5000D0400FB6F894DEBF0FBECDBFA82E962E84
:102B6000B22E802EFE01319680EEDF011D928A95F5
:102B7000E9F7DA0150E09CE1792E81E0C82ED12CF2
:102B80007F011CC0F90184912F5F3F4FF9017491BF
:102B900021503040482F09C0F801E40FF11DEE0D1F
:102BA000FF1D8081862B80834F5F4717A8F39F5FAF
:102BB0002E5F3F4F923031F75F5F14965B1588F4BC
:102BC000852F869586958695879D80011124852F72
:102BD00087706C2D01C0660F8A95EAF79D0190E021
:102BE000D1CF8A2D692DAE014F5F5F4F20EE082DAA
:102BF0000E946215C052DF4F0FB6F894DEBF0FBEC1
:102C0000CDBFCF91DF911F910F91FF90EF90DF909B
:102C1000CF90BF90AF909F908F907F9008950F932B
:102C2000942F022F592F40E04C5F5D4F20E40E940B
:102C300098150F9108952F923F924F925F926F9245
:102C40007F928F929F92AF92BF92CF92DF92EF923C
:102C5000FF920F931F93DF93CF93CDB7DEB7C35F80
:102C6000D0400FB6F894DEBF0FBECDBFC251DF4FCC
:102C70008883CE5ED040C151DF4F6883CF5ED040A5
:102C8000C051DF4F4883C05FD040CF50DF4F088333
:102C9000C15FD040FE01399680EEDF011D928A951A
:102CA000E9F78091EF03282E3324D22ECC2444E080
:102CB00052E0C40ED51EC051DF4F8881C05FD040A6
:102CC000F82EEE24E40EF51E88249924B5E06B2E30
:102CD000712C6C0E7D1ECE50DF4FF983E883C25FEE
:102CE000D040582DC051DF4F8881C05FD0408F3F0A
:102CF00029F41C821B821A82198209C0DE011196F6
:102D0000F70184918D933196A615B705D1F7998176
:102D1000C451DF4F9883CC5ED04030E09F3F09F034
:102D200031E08B818F3F09F03F5FD301F601849141
:102D30008D933196CE50DF4F88819981C25FD0400C
:102D4000A817B907A1F79D81C551DF4F9883CB5EC6
:102D5000D04090E0C551DF4FA881CB5ED040AF3F5F
:102D600009F091E08F818F3F09F09F5F292F931722
:102D700008F4232FBA81C351DF4FB883CD5ED04012
:102D8000569556955695ECE15E9F20011124C4019D
:102D90008770907041E050E002C0440F551F8A9543
:102DA000E2F7C751DF4F4883C95ED0405E81C6510C
:102DB000DF4F5883CA5ED04083015E010894A11C96
:102DC000B11C622F70E0660F771F660D771D69C01A
:102DD000D5012C912F3F19F01196BC910AC0C45116
:102DE000DF4F2881CC5ED040C351DF4FB881CD5E2C
:102DF000D040F80180818F3FB1F1A18190E030E0B7
:102E0000821B930B829DA001839D500D929D500DBE
:102E10001124405F5F4FF5E056954795FA95E1F72D
:102E2000420F531F50708A2F90E02B2F30E0821BEF
:102E3000930B829DD001839DB00D929DB00D112406
:102E40005096E5E0B695A795EA95E1F7A20FB31F76
:102E5000B070F201E40FF51F89E090E08C0F9D1F28
:102E6000E80FF91F15C0C551DF4F8881CB5ED040F8
:102E7000C651DF4FA881CA5ED040C0CF8081C75104
:102E8000DF4F9881C95ED040892B81934F5F5F4FA0
:102E90004A175B0798F30E5F1F4FA2E0B0E0AA0E3F
:102EA000BB1E0617170709F093CF0894811C911CCD
:102EB000E4E0F0E0CE0EDF1EEE0EFF1EF0E48F1613
:102EC000910409F00ECFC251DF4F8881CE5ED04011
:102ED000C151DF4F6881CF5ED040AE01475F5F4F89
:102EE00020EECF50DF4F0881C15FD0400E946215B5
:102EF000CD50DF4F0FB6F894DEBF0FBECDBFCF91E0
:102F0000DF911F910F91FF90EF90DF90CF90BF90D6
:102F1000AF909F908F907F906F905F904F903F9079
:102F20002F900895EF92FF920F931F93E82E162F84
:102F3000FF24442311F4FF24F39413508E2D815069
:102F4000612F42E026E00F2D0E9476221F5F8E2D1A
:102F50008250612F44E024E00E9476221F5F8E2D74
:102F60008350612F46E022E00E9476221F910F914C
:102F7000FF90EF9008951F93182F80E464E1412F94
:102F80000E94921780E46AE3412F0E9492171F91DA
:102F9000089580914F04882359F480914D0488232B
:102FA00039F010924D048091B70481700E94BB17D4
:102FB00008950F931F93CF93DF93182F80914F04A1
:102FC000882329F080914F04833009F0C8C0909184
:102FD0004F048091F903891709F450C08091EC03E4
:102FE000882309F04BC08091F4038093F003809113
:102FF000F5038093F1038091F6038093F2038091AF
:10300000F7038093F30380914F04882341F4809168
:10301000A1040E94A832382F2091AC0407C08091EF
:10302000B0040E94A832382F2091A604822F6AE0B3
:103030000E94033A9093F703822F0E94033A8093F1
:10304000F603832F0E94033A8093F403832F0E9498
:10305000033A9093F503812F0E94BB178CE363E240
:1030600047E025E0012F0E94762280914F04809353
:10307000F9038091EC038F5F8093EC0380914F0400
:10308000882309F046C080914B04882321F4809165
:103090004C048823F1F18091EC038823D1F581E081
:1030A0008093EC038091F7038093F3038091AC0449
:1030B0006AE00E94033A9093F7038091F6038093AD
:1030C000F2038091AC040E94033A8093F60380914E
:1030D0004C048823C1F08091A1040E94A832282FBB
:1030E0008091F4038093F0038091F5038093F103C2
:1030F000822F6AE00E94033A8093F403822F0E9499
:10310000033A9093F50310924C0480914C04809301
:103110004B048091F803811709F474C08091EC038B
:10312000882309F06FC060E040E820E4012F0E948E
:103130007622812F0E94BB17C0E0D0E0FE01E25C46
:10314000FE4FDE01AC50BC4F808160E04C91212FDE
:103150000E940F162196C430D10581F753C000910B
:103160004F04013009F051C090914F048091F90350
:10317000891709F447C086E990E061E00E940831B0
:103180008091EC038823F1F50093EC0380914F04C8
:103190008093F9038091F4038093F0038091F50309
:1031A0008093F1038091F6038093F2038091F703FB
:1031B0008093F3038091AF04882329F42091B6040F
:1031C0003091AB0404C02091AB043091B604822F3F
:1031D0006AE00E94033A8093F403822F0E94033A2C
:1031E0009093F503832F0E94033A8093F603832F75
:1031F0000E94033A9093F70380E0112309F481E0E1
:103200000E94BB17C0E0D0E04EC000914F040230D6
:10321000C9F790914F048091F903891799F380E9D8
:1032200090E061E00E9408318091EC03882351F71F
:1032300081E08093EC038BE890E061E00E9408312C
:1032400080914F048093F9038091F4038093F003FD
:103250008091F5038093F1038091F6038093F2034C
:103260008091F7038093F3030093F4031092F50326
:103270008091A5046AE00E94033A8093F60380914E
:10328000A5040E94033A9093F70380E0112309F408
:1032900081E00E94BB178CE363E247E025E0012F49
:1032A0000E947622AFCFFE01E051FC4F4081FE012B
:1032B000EC50FC4F2081421741F0FE01E25CFE4FD2
:1032C000808160E0012F0E941B162196C430D10539
:1032D00051F79091EC03992389F18091EF038F5F6F
:1032E0008093EF03813250F11092EF038091F40349
:1032F0008093F0038091F5038093F1038091F603AE
:103300008093F2038091F7038093F303915090939D
:10331000EC0380914F04813059F400E0112309F44B
:1033200001E08CE363E247E025E00E94762206C0DC
:1033300080914F04823011F080914F041093F80374
:10334000DF91CF911F910F9108950F931F93CF930A
:10335000DF93182F80E060E040E820E4012F0E9416
:1033600076221092EF038091A1040E94A832382F98
:103370002091AC048FEF8093F3038093F20380934A
:10338000F1038093F003822F6AE00E94033A909346
:10339000F703822F0E94033A8093F603832F0E9443
:1033A000033A9093F503832F0E94033A8093F4032A
:1033B00017C0C0E0D0E0FE01E25CFE4FDE01A0518C
:1033C000BC4F9E012C503C4F808160E04C91F90134
:1033D0002081012F0E941B162196C430D10559F778
:1033E0008091EF038F5F8093EF038150813208F368
:1033F0008CE990E060E00E9408318091F4038093B2
:10340000F0038091F5038093F1038091F60380939C
:10341000F2038091F7038093F303812F0E94BB177F
:103420001092EF03DF91CF911F910F91089580E0EB
:103430000E94A519089526982E9A81E0809368002D
:10344000EBE6F0E080818064808382E080937C0002
:1034500010927B00EAE7F0E08EE880838081806450
:103460008083089580917A00877F80937A0080918D
:103470007A00806480937A0080917A0084FFFCCF88
:103480002091780030917900C90108951F920F9220
:103490000FB60F9211242F933F934F935F936F9327
:1034A0007F938F939F93AF93BF93EF93FF93789402
:1034B0000E94EF29FF91EF91BF91AF919F918F9162
:1034C0007F916F915F914F913F912F910F900FBE20
:1034D0000F901F9018951F920F920FB60F92112404
:1034E0002F933F934F935F936F937F938F939F930C
:1034F000AF93BF93EF93FF9378948091780090916E
:10350000790022E0803E920728F01092FC0310928E
:10351000FA0373C022E08336920798F18091FA0390
:1035200082FD6BC08AE090E00E94D4300E94321A83
:10353000825692408E37910508F05FC082E08093FA
:10354000FD0312C00E94321A825692408E379105B6
:1035500058F08091FA038B7F8093FA038091FB03EC
:1035600084608093FB0349C08091FD03882351F759
:103570008091FA0384608093FA038091FC03846055
:103580003AC08F509140E8F08091FA0381FD10C05D
:103590008AE090E00E94D4300E94321A8E5091400E
:1035A0008555914050F58091FB0382608093FB0329
:1035B0008091FA0382608093FA038091FC03826019
:1035C0001AC08091FA0380FD0EC08AE090E00E944C
:1035D000D4300E94321A8F50914078F48091FB03CE
:1035E00081608093FB038091FA0381608093FA03EA
:1035F0008091FC0381608093FC0380917A00886451
:1036000080937A00FF91EF91BF91AF919F918F913D
:103610007F916F915F914F913F912F910F900FBECE
:103620000F901F9018958091FB0380FF02C081E0EE
:1036300008958091FB03882321F48091FC03882363
:1036400021F08AE08093FE0304C08091FE0388236A
:1036500011F080E008951092B20482E00895EF9294
:10366000FF920F931F93982F8B017A0180E0692FAF
:103670000E94232982E491E060E00E946522C80153
:1036800060E00E94652289E491E060E00E9465228A
:10369000C70160E00E9465221F910F91FF90EF909B
:1036A00008951F93182F8BE260E00E9423298091D8
:1036B000A904853DD9F0863D38F4833DA1F0843DD1
:1036C00060F4823D21F50CC0873DB1F0873D88F064
:1036D000883DA9F0893DD9F415C08EE491E014C06D
:1036E00088E591E011C086E691E00EC081E791E0A7
:1036F0000BC08CE791E008C083E891E005C08AE840
:1037000091E002C084E991E0612F0E9465221F913F
:1037100008951F93182F88E064E00E9423298AE906
:1037200091E060E00E9465228091AF04882339F423
:103730008091A404882319F483EA91E020C0809149
:10374000AF04882339F48091A404813019F480EB0C
:1037500091E015C08091AF04813039F48091A404C8
:10376000882319F48DEB91E00AC08091AF04813079
:1037700049F48091A404813029F48AEC91E0612F0E
:103780000E9465221F9108958F929F92AF92BF92DF
:10379000CF92DF92EF92FF920F937C016B015A015F
:1037A000490180E060E340E820E100E00E947622E9
:1037B00086E0B701A6010E942F1B87E0B501A40196
:1037C0000E942F1B0F91FF90EF90DF90CF90BF9042
:1037D000AF909F908F900895AC019B0187ED91E091
:1037E000BA0149ED51E00E94C41B08958DED91E0AE
:1037F00064EE71E00E94EC1B089589EE91E06EEE9C
:1038000071E049ED51E024EE31E00E94C41B0895BF
:1038100089EE91E063EF71E049ED51E02BEF31E08B
:103820000E94C41B08950F931F93CF93DF93182F0B
:10383000062F8091A404882371F584E761E00E943B
:1038400023291C3010F080E501C081E460E00E9473
:103850002B228DE460E00E942B2280E561E00E9433
:103860002329812F90E047966CE070E00E94233A74
:10387000EC018930910524F09C012F5F822F10C04C
:1038800080E260E00E942B229E012F5C822F602F3D
:103890000E942B2208C080E561E00E942329812F2D
:1038A000602F0E94602ADF91CF911F910F910895A0
:1038B0000F931F93CF93DF93082F162F8091A404AB
:1038C0008823D1F4802F90E047966CE070E00E944E
:1038D000233AEC018930910524F09C012F5F822F5F
:1038E00014C080E260E00E942B229E012F5C822F98
:1038F000612F0E942B220CC080E260E00E942B22EC
:1039000080E260E00E942B22802F612F0E94602ABB
:10391000DF91CF911F910F910895EF92FF920F9336
:103920001F93F82E162FE42E022F88E063E00E94EA
:1039300023298FEF91E060E00E9465228091AF041F
:103940008823B1F485E092E060E00E94652260E0A7
:103950000B3009F461E08F2D0E94602A8FE260E055
:103960000E942B2260E00C3009F461E0812F19C025
:103970008091AF048130D9F485E092E060E00E944C
:10398000652260E00C3009F461E0812F0E94602A1A
:103990008FE260E00E942B2260E00B3009F461E0CE
:1039A0008F2D0E94602A8FE260E00E942B2210E09F
:1039B0000D3009F411E084E1612F0E94602A8E2D00
:1039C000612F0E94602A1F910F91FF90EF90089540
:1039D0001F93182F88E065E00E9423298BE092E076
:1039E00060E00E9465228091B40060E0193609F41D
:1039F00061E00E94602A1F910895DF92EF92FF928A
:103A00000F931F93E82EF62ED42E122F88E062E03B
:103A10000E9423298BE192E060E00E94652200E091
:103A2000153609F401E08E2D602F0E94581C8AE3A0
:103A300060E00E942B2260E0163609F461E08F2DD1
:103A40000E94602A8AE360E00E942B2260E0173621
:103A500009F461E08D2D0E94602A8091A4048823DE
:103A600069F480E260E00E942B228BE08E1510F456
:103A700080E501C081E4602F0E942B221F910F91ED
:103A8000FF90EF90DF9008951F93182F88E061E07A
:103A90000E94232986E292E060E00E9465228091E4
:103AA000B00460E0153609F461E00E94131C8AE35B
:103AB00060E00E942B228091A60460E0163609F493
:103AC00061E00E94602A1F9108958091FF038F5F3B
:103AD0008093FF030E942D2988E060E00E94232943
:103AE00083E392E060E00E94652280E00E94511B27
:103AF00084E00E94441D8091A1046091AC04409137
:103B0000B70423E00E94FD1C8091B6046091AB04D1
:103B10004091A50425E00E948D1C80E00E94891B35
:103B200086E00E94E81C0E94081C8091FF038150DF
:103B30008093FF0308951F93182F0E94651D8091A5
:103B4000FF038F5F8093FF038091B204863011F4EE
:103B50000E94FD1B110F110F110F1D5F80E0612FDF
:103B600047E00E94562F8091FF0381508093FF030E
:103B70008AE08093FE038091B2041F910895CF9252
:103B8000DF92EF92FF920F931F9382E00E949B1DA2
:103B9000082F1091A104D090AC04F090B70490C00D
:103BA0008091FB0381FF48C01092FB038091FF03CB
:103BB0008F5F8093FF03033041F489E392E063E475
:103BC00072E00E94EC1B05E62CC0053641F48CE443
:103BD00092E067E572E00E94EC1B06E622C0063622
:103BE00041F480E692E064E672E00E94EC1B07E696
:103BF00018C00E94081C1093A104D092AC04F0924B
:103C0000B7048091B7046091AC044091A104009185
:103C1000AB04E090B604C090A50420E00E949D2A69
:103C200003E0812F6D2D4F2D202F0E94FD1C8091D0
:103C3000FF0381508093FF038091FB0382FD04C04A
:103C40008091FC0382FF3CC01092FB038091FF0334
:103C50008F5F8093FF03053659F4812F90E0019622
:103C600068E170E00E94233A182F8093A10415C0E8
:103C7000063649F48D2D90E001966CE370E00E94C9
:103C8000233AD82E0AC0073641F48F2D90E00196D2
:103C90006CE370E00E94233AF82E812F6D2D4F2D9A
:103CA000202F0E94FD1C8091FF0381508093FF0311
:103CB0008091FC0382FF04C088EC90E00E94D43025
:103CC0000E94131B882309F46BCF1F910F91FF9063
:103CD000EF90DF90CF9008951F9381E00E949B1D8D
:103CE000182F6CC08091FB0381FF26C01092FB034C
:103CF0008091FF038F5F8093FF03143041F48DE6C2
:103D000092E063E472E00E94EC1B15E60DC01536EC
:103D100041F48CE492E067E572E00E94EC1B16E649
:103D200003C00E94081C14E0812F0E94441D809152
:103D3000FF0381508093FF038091FB0382FD04C049
:103D40008091FC0382FF3AC01092FB038091FF0335
:103D50008F5F8093FF03153679F48091B00490E073
:103D6000019668E170E00E94233A8093B00460916C
:103D7000B00481E090E010C0163681F48091A60472
:103D800090E001966CE370E00E94233A8093A604D1
:103D90006091A60482E090E00E941F3B812F0E9468
:103DA000441D8091FF0381508093FF038091FC03A9
:103DB00082FF04C088EC90E00E94D4300E94131B64
:103DC000882309F48FCF1F9108951F9385E00E94E7
:103DD0009B1D182F46C08091FB0381FF18C01092D5
:103DE000FB038091FF038F5F8093FF03163021F464
:103DF0000E94F61B19E603C00E94FD1B16E0812FEE
:103E00000E94E81C8091FF0381508093FF03809102
:103E1000FB0382FD04C08091FC0382FF22C010924C
:103E2000FB031936F1F48091B4008F5F8093B400E6
:103E30008091B400813110F01092B4008091FF03A2
:103E40008F5F8093FF0389E60E94E81C8091FF0347
:103E500081508093FF036091B40083E090E00E9462
:103E60001F3B0E94131B882309F4B5CF1F910895AF
:103E7000CF92DF92EF92FF920F931F9383E00E9405
:103E80009B1D082FF090AB041091B604D090A504B0
:103E9000F3C08091FB0381FF6AC01092FB03809105
:103EA000FF038F5F8093FF03053069F48091AF04B7
:103EB000882309F18091AF04813059F08091AF04DB
:103EC000833091F506C00B3061F48091AF048823F4
:103ED000F9F48CE892E067E972E00E94EC1B0CE0D8
:103EE0003BC00C3009F58091AF04813021F0809106
:103EF000AF04833041F488E792E063E872E00E9407
:103F0000EC1B0BE029C08091AF04882329F00CC082
:103F10008091AF04813041F480EA92E06BEA72E074
:103F20000E94EC1B0DE018C00E94081CD092A50452
:103F30001093B604F092AB048091B7046091AC0486
:103F40004091A1040091AB04E090B604C090A50498
:103F500020E00E949D2A05E0812F6F2D4D2D202FFE
:103F60000E948D1C8091FF0381508093FF038091FC
:103F7000FB0382FD04C08091FC0382FF7DC0109290
:103F8000FB038091FF038F5F8093FF030B3071F57C
:103F90001F5F1D3010F011E05CC01230D1F48D2D88
:103FA00090E00E941F2A882331F08DE18F1518F4CC
:103FB0002DE1F22E4EC08D2D90E00E941F2A882305
:103FC00009F047C08CE18F1508F043C09CE1F92E41
:103FD00040C0143031F0163021F0193011F01B3090
:103FE000C1F58EE18F1508F44DC033C00C3039F5A2
:103FF000F3948FE18F1510F4FF24F394123099F4A9
:104000008D2D90E00E941F2A882319F08DE18F15D5
:10401000E0F18D2D90E00E941F2A8823D1F48CE1DD
:104020008F1598F116C0143031F0163021F0193088
:1040300011F01B3071F48FE1F81639F10AC00D3020
:1040400041F48D2D90E0019664E670E00E94233AE1
:10405000D82E812F6F2D4D2D202F0E948D1C8091E9
:10406000FF0381508093FF038091FC0382FF04C013
:1040700088EC90E00E94D4300E94131B882309F43E
:1040800008CF06C08EE1F82EE4CFFF24F394E1CFF1
:104090001F910F91FF90EF90DF90CF9008951F93A5
:1040A00084E00E949B1D182F64C08091FB0381FF58
:1040B0001BC01092FB038091FF038F5F8093FF036F
:1040C000183039F481E00E94891B0E94F61B18E623
:1040D00006C080E00E94891B0E94081C18E08091A5
:1040E000FF0381508093FF038091FB0382FD04C096
:1040F0008091FC0382FF3DC01092FB031836C9F586
:104100008091A404882359F08091AF048F5F80933D
:10411000AF048091AF04823010F01092AF04809110
:10412000A40490E0882309F491E09093A404809182
:10413000FF038F5F8093FF030E94651D0E94F61BA3
:1041400080E063E247E00E94562F81E00E94891BD5
:104150008091FF0381508093FF036091AF0484E05E
:1041600090E00E941F3B6091A40485E090E00E94D3
:104170001F3B0E94131B882309F497CF1F910895BA
:104180000F931F9387E090E00E94173B8093A90450
:1041900080E00E949B1D182F02ED5AC08091FB0306
:1041A00081FF29C01092FB038091FF038F5F8093F2
:1041B000FF03183C61F481E00E94511B0E94F61B32
:1041C0008091FF0381508093FF0319EC14C080E0BD
:1041D0000E94511B0E94081C1092B5041092B20458
:1041E0008091A904883DC8F56091A90487E090E01A
:1041F0000E941F3B32C08091FB0382FD04C080916E
:10420000FC0382FF25C01092FB03193C09F5809145
:10421000A9048F5F8093A9048091A9048A3D10F0BE
:104220000093A9048091FF038F5F8093FF030E9496
:10423000651D0E94F61B80E063E047E00E94562F58
:1042400081E00E94511B8091FF0381508093FF0306
:104250000E94131B882309F4A1CF1F910F91089589
:104260008091A904833D81F0843D18F4823D89F456
:1042700008C0843D19F0853D61F409C00E940A0E12
:1042800008950E94360708950E940C1308950E9415
:10429000C91708959091A904933D81F0943D18F4B5
:1042A000923D89F408C0943D19F0953D61F409C030
:1042B0000E944A1208950E945F0808950E94F71311
:1042C00008950E94A51908951F931FE08091A904E5
:1042D000853DD9F0863D38F4833DA1F0843D60F4FE
:1042E000823D39F50CC0873D99F0873D98F0883DB7
:1042F000D9F0893DF1F41BC00E94A9121AC00E9496
:104300007B0817C00E94011414C00E94171A11C024
:104310001093B5040E94490980E00E94A7098370A8
:104320008E528093A904D2CF0E948D0602C00E94B3
:1043300021061F9108951F93182F8091B50488239B
:1043400081F180914B04813021F080914C048130C7
:1043500041F580914B04882319F082E080934B044F
:1043600080914C04882319F082E080934C04809162
:10437000B50481508093B5048091B504882389F4F5
:104380008FE08093B5048091A9048F5F8093A90486
:104390008091A904863D18F082ED8093A9040E94C3
:1043A00064218091A904833D91F0843D18F4823DFD
:1043B000A9F409C0843D19F0853D81F40CC0812F1A
:1043C0000E94190D0BC0812F0E94470807C0812F42
:1043D0000E94301403C0812F0E94D9171F910895A5
:1043E00008958B5C9F4F0E94173B0895EF92FF92B8
:1043F0000F931F93CF93DF93F82EE62E00E010E08B
:1044000008C0CE018B5E9D4F0E94173B8F5F080F47
:104410001F5FC02FD0E01F15A0F3CE018B5E9D4F14
:104420000E94173B082FCA5EDD4F10E00BC0CE0183
:104430000E94173B91E0E91609F480950E94CA2872
:104440001F5F2196101798F3DF91CF911F910F9165
:10445000FF90EF900895DF92EF92FF920F931F93DA
:10446000CF93DF93D62E95E0899FC0011124EC01F4
:10447000CB56D0408E012AE9E22E2FEFF22EE80E25
:10448000F91EDD2029F0CE010E94173B809503C064
:10449000C8010E94173B0E94CA2821960F5F1F4F38
:1044A000CE15DF0571F7DD2011F08FEF01C080E040
:1044B0000E94CA2880E00E941629DF91CF911F91A7
:1044C0000F91FF90EF90DF9008951F93CF93DF93AC
:1044D000EC01162F04C0612F0E942B2221968881A7
:1044E0008823C9F7DF91CF911F9108952F923F92B2
:1044F0004F925F926F927F928F929F92AF92BF92F4
:10450000CF92DF92EF92FF920F931F93CF93DF939F
:10451000282E162F342EF22E402EC62FD0E0C77034
:10452000D070209709F45BC0562E5694569456943A
:10453000EE2467E0C62EC1228C2C992487FC90942F
:104540005E01A20EB11C51E0652E712C35C0DE2C2F
:10455000D20C8D2D652D0E9423290E947D280E945A
:104560007D28082F40E050E015C081E0481641F456
:10457000C30102C0880F991F2A95E2F7082B08C0D3
:10458000C30102C0880F991F2A95E2F7809508237E
:104590004F5F5F4F9A01280D391D2A153B0524F402
:1045A0008C2D840F883009F78D2D652D0E942329CD
:1045B000802F0E94CA28E394E31448F22F2D30E0A4
:1045C00088E090E08C1B9D0B8217930714F0FF246A
:1045D00004C0812F87708850F80E187F185FE12E75
:1045E000E694E694E694C12FD0E0CF0DD11D43E0D0
:1045F000D595C7954A95E1F712C0822D6E2D0E9480
:10460000232910E009C081E0481611F48FEF01C0A2
:1046100080E00E94CA281F5F1315A8F3E3948E2D33
:1046200090E08C179D074CF32F2D2770C9F100E007
:10463000C22FD0E031E0A32EB12C30C0F02EF20C0E
:104640008F2D6E2D0E9423290E947D280E947D2897
:10465000182F20E030E017C081E0481649F4C5016A
:10466000022E02C0880F991F0A94E2F7182B09C086
:10467000C501022E02C0880F991F0A94E2F78095A7
:1046800018232F5F3F4F2C173D0734F38F2D6E2DCE
:104690000E942329812F0E94CA280F5F031570F200
:1046A00080E00E941629DF91CF911F910F91FF901A
:1046B000EF90DF90CF90BF90AF909F908F907F90C2
:1046C0006F905F904F903F902F9008952F923F9260
:1046D0004F925F926F927F928F929F92AF92BF9212
:1046E000CF92DF92EF92FF920F931F93DF93CF93BE
:1046F00000D00F92CDB7DEB7382E462E522E262E82
:10470000281AA42EBB24C501880F991F22273327FE
:10471000281B390B2D5F3F4F3B832A838824992424
:1047200066247724362F32193983182DD42CDA18C1
:104730007501EE0CFF1C882D830D6D2D41E02E2D93
:10474000052D0E947622832D88196D2D41E02E2D96
:104750000E947622F42CF818110F89818A0D6F2D92
:1047600041E0212F0E9476228D2D82196F2D41E08C
:10477000212F0E9476228A819B8197FF06C0069690
:10478000860D971D9B838A8311C0EA81FB813A962F
:10479000C4018A199B09880F991F880F991FE80F78
:1047A000F91FFB83EA830894A108B1080894811CCF
:1047B000911C24E030E0620E731EA814B9040CF0C2
:1047C000B4CF0F900F900F90CF91DF911F910F9169
:1047D000FF90EF90DF90CF90BF90AF909F908F9021
:1047E0007F906F905F904F903F902F900895DF9251
:1047F000EF92FF920F931F93F82E162FD42EE22ED6
:1048000041E001E00E9476228F2D81508D0D612FB5
:1048100041E02E2D0E9476228F2D612F4D2D21E01B
:104820000E94762211501E0D8F2D612F4D2D21E0FB
:104830000E9476221F910F91FF90EF90DF900895D4
:10484000EF92FF920F931F93F82E162F062F0695C7
:1048500006950695602F0E9423290E947D280E94BC
:104860007D28E82E8F2D602F0E942329177081E06C
:1048700090E002C0880F991F1A95E2F780958E216B
:104880000E94CA2880E00E9416291F910F91FF9074
:10489000EF900895EF92FF920F931F93F82E162F2B
:1048A000062F069506950695602F0E9423290E94E3
:1048B0007D280E947D28E82E8F2D602F0E942329BD
:1048C000177081E090E002C0880F991F1A95E2F7F7
:1048D0008E290E94CA2880E00E9416291F910F91FC
:1048E000FF90EF9008953F924F925F926F927F9268
:1048F0008F929F92AF92BF92CF92DF92EF92FF92F0
:104900000F931F93CF93DF93D82EC62E322E462EB1
:10491000481AE42EFF24C701880F991FCC27DD27F2
:10492000C81BD90B23965D2C662E762EAA24BB2499
:104930008824992481E0381641F50E2D0C0D8D2D1B
:10494000602F0E944A249C2D9E19192F8D2D692FAE
:104950000E944A24852D602F0E944A24852D612FB4
:104960000E944A240419802F662D0E944A24802F19
:10497000672D0E944A241419812F662D0E944A2413
:10498000812F672D0E944A2427C00E2D0C0D8D2DDE
:10499000602F0E9420248C2D8E19182F8D2D612FB1
:1049A0000E942024852D602F0E942024852D612FB8
:1049B0000E9420240419802F662D0E942024802F1D
:1049C000672D0E9420241419812F662D0E94202417
:1049D000812F672D0E942024D7FF04C02696C80D82
:1049E000D91D0DC02A96C5018E199F09880F991FE0
:1049F000880F991FC80FD91F0894E108F10808947F
:104A0000A11CB11C84E090E0880E991ED3945A94A6
:104A100063947A94EA14FB040CF08CCFDF91CF916D
:104A20001F910F91FF90EF90DF90CF90BF90AF90CC
:104A30009F908F907F906F905F904F903F900895E0
:104A4000459A449A109247041092460410924904E1
:104A50001092480480E28093B800ECEBF0E0808193
:104A600084608083109200048081816080838081D3
:104A7000806480837894089580E28093B8000895DC
:104A800090E0611191E08E7F982B9093BA00089589
:104A9000909347048093460408959093490480932B
:104AA00048040895ECEBF0E080818F70806A808389
:104AB0000895ECEBF0E080818F70806D8083089525
:104AC0008091BC0087FFFCCF08958093BB00ECEB86
:104AD000F0E080818F70806880830895882329F0BA
:104AE0008091BC008F70806C04C08091BC008F707E
:104AF00080688093BC0008958091BB0008958091E8
:104B0000B9000895982F809100048823E1F782E08E
:104B1000809300049E7F90930104A2E0B4E0FA0128
:104B200002C081918D938E2F841B8617D0F3109233
:104B30002204609323048091BC008F70806A80936C
:104B4000BC000895982F809100048823E1F783E04A
:104B50008093000491609093010410924404609348
:104B600045048091BC008F70806A8093BC00809166
:104B700000048823E1F7A4E2B4E0FA0102C08D91B9
:104B800081938E2F841B8617D0F30895982FFA01F6
:104B90008091BC008E7F8093BC008091BC008F70A0
:104BA000806A8093BC008091BC0087FFFCCF9E7F11
:104BB0009093BB008091BC008F7080688093BC0094
:104BC0008091BC0087FFFCCF8091B900883189F0CB
:104BD00091E012C080818093BB008091BC008F70F7
:104BE00080688093BC008091BC0087FFFCCF319629
:104BF0006150662379F790E08091BC008F70806DE2
:104C00008093BC008091BC0084FFFCCF8091BC00ED
:104C100081608093BC00892F08951F93CF93DF9309
:104C2000982F162FEA018091BC008E7F8093BC00E4
:104C30008091BC008F70806A8093BC008091BC0022
:104C400087FFFCCF91609093BB008091BC008F7078
:104C500080688093BC008091BC0087FFFCCF80916E
:104C6000B900803469F091E018C08FEF0E946E2582
:104C70008091BC0087FFFCCF8091BB0089931150CD
:104C8000123098F780E00E946E258091BC0087FF6B
:104C9000FCCF8091BB00888390E08091BC008F7036
:104CA000806D8093BC008091BC0081608093BC00CB
:104CB000892FDF91CF911F9108958091000408956D
:104CC0001F920F920FB60F9211242F933F934F9381
:104CD0005F936F937F938F939F93AF93BF93EF9364
:104CE000FF938091B900887F883609F4CBC089365C
:104CF00088F5803309F495C08133B0F4803109F42C
:104D00005AC0813138F4882309F43EC1883009F053
:104D100048C151C0803209F484C0883209F453C0BC
:104D2000883109F03EC14FC0883409F47AC0893413
:104D300038F4883309F478C0803409F032C192C065
:104D4000883509F45DC0803609F49CC0803509F0CF
:104D500028C174C0803A09F4BEC0813AB0F48038EA
:104D600009F49BC0813838F4803709F48BC0883748
:104D700009F017C187C0803909F48FC0883909F458
:104D8000A1C0883809F00DC19DC0883B09F4D1C08D
:104D9000893B38F4883A09F4B6C0803B09F001C178
:104DA000B2C0883C09F4E0C0883F09F4E7C0803C09
:104DB00009F0F7C0D9C084EF91E060E00E940831AB
:104DC0008091010414C085ED91E060E00E940831FB
:104DD0009091220480912304981708F0DAC0E92FFB
:104DE000F0E0EE5FFB4F80819F5F90932204809301
:104DF000BB008091BC008F7080688093BC00D1C0E4
:104E000080EC91E060E00E94083180914404909130
:104E1000BB00E82FF0E0EC5DFB4F90838F5F809349
:104E200044048AE991E0B2C086E891E060E00E9423
:104E300008318091BC008F708068AFC082E791E03C
:104E400060E00E9408318091BB0090914404E92FFA
:104E5000F0E0EC5DFB4F80839F5F9093440490E013
:104E60000E945F318FE591E060E00E94083120915F
:104E7000440430E08091450490E0019728173907F9
:104E800034F51EC08CE491E060E00E94083185E0BA
:104E9000809300041092440462C088E391E060E0D3
:104EA0000E940831809144049091BB00E82FF0E00B
:104EB000EC5DFB4F90838F5F80934404803238F425
:104EC0008FEF06C083E291E060E00E94083180E04D
:104ED0000E946E2566C080E191E060E00E9408318A
:104EE0008091BC008F70806C8093BC00E091460480
:104EF000F0914704309709F452C08091440464E271
:104F000074E009954CC08DEF90E060E00E9408319C
:104F100084E080930004E0914804F09149043097C4
:104F200031F080E262E074E00995809323041092EE
:104F3000220489EE90E060E00E9408319091220402
:104F4000E92FF0E0EE5FFB4F80818093BB009F5F15
:104F50009093220480912304981708F04ACF8091FF
:104F6000BC008F70806C49CF87EC90E060E00E94BD
:104F700008318091BC008F70806C0FC088EB90E08E
:104F800060E00E9408310DC087EA90E060E00E9476
:104F900008318091BC008F70806D8093BC001092AE
:104FA0000004FF91EF91BF91AF919F918F917F91FD
:104FB0006F915F914F913F912F910F900FBE0F9086
:104FC0001F9018952F982D982C9840985A98279AAA
:104FD000259A249A389A529A8BB18F708BB985B1E1
:104FE000807F85B98AB1806F8AB984B18F6084B9B6
:104FF000089540985A98882319F0813021F402C00E
:10500000409A08955A9A0895F8940E94F9278BB10E
:10501000806F8BB985B18F6085B92F988AB18F70F9
:105020008AB984B1807F84B92D9A2C9A000000003F
:105030000AC02C9800000000000000002C9A00001C
:1050400000000000000089B193B187FDF2CF2C98D9
:105050002D988AB1806F8AB984B18F6084B97894B1
:1050600008951F93162FF8940E9404282F982D98C6
:105070002C9A8AB1806F8AB984B18F6084B98BB160
:105080008F708BB99BB1812F807F892B8BB985B1B4
:10509000807F85B985B11F70812B85B90000000024
:1050A0000000000000000000000000002C98789430
:1050B0001F910895F8940E9404282F988AB18F7048
:1050C0008AB984B1807F84B92D9A2C9A000000009F
:1050D00000000000000000000000000029B183B1C2
:1050E0002C982D989AB1906F9AB994B19F6094B909
:1050F00078948F70207F822B0895F89480919B0480
:1051000082958695869583700E9404282F9A8AB18D
:105110008F708AB984B1807F84B92D9A2C9A00004F
:10512000000000000000000000000000000099B135
:1051300083B12C982D9878948F70907F892B089547
:10514000089580939B0480E060E40E9431281092CF
:105150009D0481E060E40E94312810929F048091B8
:105160009B04682F6F736064829586958695837023
:105170000E94312808951F93182F80939C04186B68
:1051800080E0612F0E94312881E0612F0E94312848
:105190001F9108950F931F93182F00919B04029560
:1051A000069506950370F894802F0E9404282F9A84
:1051B0002D982C9A8AB1806F8AB984B18F6084B996
:1051C0008BB18F708BB99BB1812F807F892B8BB96D
:1051D00085B1807F85B985B11F70812B85B90000AD
:1051E00000000000000000000000000000002C98FB
:1051F0007894E02FF0E0EE0FFF1FE356FB4F808125
:105200008F5F808380919B048F5F80939B0487FFD7
:105210000AC080919C048F5F80939C040E94BB28ED
:1052200080E00E94A1281F910F9108951F93182FCD
:10523000106C80E0612F0E94312881E0612F0E9474
:1052400031281F9108951F93182F862F0E94BB2885
:10525000812F0E94A1281F9108950F931F9300E0B2
:1052600080E0602F0E94232910E080E00E94CA287D
:105270001F5F1038D1F70F5F083091F71F910F9122
:10528000089580E00E94162980E060E00E942329B2
:1052900010929D0410929E0410929F041092A004FC
:1052A00008950E94E22780E06FE30E94312881E0A8
:1052B0006FE30E9431280E942D290E944129089500
:1052C000982F86E0689F802D1124692F0E94232942
:1052D000089508951F920F920FB60F9211248F9385
:1052E0009F9388B198E0892788B99F918F910F90FB
:1052F0000FBE0F901F9018951F920F920FB60F922E
:1053000011248F939F938091560490915704892B79
:1053100049F0809156049091570401979093570457
:10532000809356048091B3049091B404892B49F082
:105330008091B3049091B40401979093B404809346
:10534000B3048091B104882389F180915404909131
:105350005504892B59F58091A7049091A804892BB5
:10536000E1F48CE291E09093A8048093A7048091EB
:105370008100882379F41092800089E08093810075
:1053800083E080936F0088EE93E090938900809390
:10539000880003C01092810043988091A7049091E7
:1053A000A80401979093A8048093A7049F918F91DC
:1053B0000F900FBE0F901F9018951F920F920FB66F
:1053C0000F9211248F939F9388B198E0892788B911
:1053D0009F918F910F900FBE0F901F9018951E9B5D
:1053E00016C08091AE04882349F11092AE04109249
:1053F000B80410925504109254048091B10488238B
:10540000E9F01092B10410928100439808958091C0
:10541000AE04882399F481E08093AE041092550481
:105420001092540483E080934F048091A904853D39
:1054300011F083E001C085E080934E040895FC01E3
:1054400083709070892B39F4CF0164E670E00E947C
:105450000F3A892B49F420E030E0CF0160E971E098
:105460000E940F3A892B11F421E030E0822F089539
:105470000895482F6AE00E94033A282F30E084E024
:10548000220F331F8A95E1F7842F0E94033A892F58
:10549000822B089588E592E09093550480935404FC
:1054A0001092810043981092B2040895FC0181810A
:1054B000805120819AE0299F90011124820F089544
:1054C0000F931F93182F062F6AE00E94033A805D06
:1054D000602F0E942B22812F6AE00E94033A892FBD
:1054E000805D602F0E942B221F910F910895FF92E3
:1054F0000F931F93F62E1092800001E810E029E030
:10550000F801208323E020936F009C0140E050E0ED
:1055100060E079E08DE390E00E94583A3093890092
:10552000209388008F2D90E00E94D430F8011082E3
:1055300043981F910F91FF900895CF92DF92EF92C1
:10554000FF920F931F93DF93CF93CDB7DEB72897CA
:105550000FB6F894DEBF0FBECDBF162FF42ED22E9D
:10556000FE01319698E0DF011D929A95E9F71982C4
:105570000E94392A8A83812F0E94392A8B838F2D9A
:105580000E94392A8C838D2D0E94392A8D83802F89
:105590000E94392A8E838E2D0E94392A8F838C2D6A
:1055A0000E94392A8887F89480ED68E0AE014F5F49
:1055B0005F4F0E94C6257894882399F080EA9FE087
:1055C00064E60E94772A84E690E00E94D43080EA64
:1055D0009FE064E60E94772A88EE93E00E94D43030
:1055E000EDCF28960FB6F894DEBF0FBECDBFCF919A
:1055F000DF911F910F91FF90EF90DF90CF90089572
:10560000CF92DF92EF92FF920F931F93DF93CF938E
:10561000CDB7DEB72C970FB6F894DEBF0FBECDBF67
:10562000082F88E090E00E94173B809351048091FE
:105630005104992787FD909597FF03C09095819518
:105640009F4F959587959595879580935204809166
:105650005104992787FD909597FF03C090958195F8
:105660009F4F837090709C0144E0220F331F4A9536
:10567000E1F7281B390B209353048091510487FFD5
:105680000AC0809152048195809352048091530402
:10569000819580935304DE011196EBEBF2E08CE0F0
:1056A00001900D928150E1F70E940431182F805231
:1056B000803608F0A7C10023D9F080915A048F5F8B
:1056C00080935A04815096E0899F802D112466E0D2
:1056D0000E942329812F60E00E942B2280E260E05B
:1056E0000E942B2280915A04863110F010925A04A5
:1056F000143231F481E0809368041092670482C10F
:1057000080916804882309F47DC1909167041C325C
:1057100051F48F5F80936804992311F410925C0414
:10572000109267040FC09A3068F4E92FF0E0E45A51
:10573000FB4F1083E92FEF5FE0936704F0E0E45A3A
:10574000FB4F108280916804823099F48CE594E0DC
:1057500064EB72E00E94AA3A009741F483E08093E0
:1057600068041092670410925C044CC110926804A3
:1057700049C1843009F0A5C085E080936804002306
:1057800061F01092620482E366E00E9423298CE5B6
:1057900094E060E00E94652235C1209161042051AF
:1057A000809160043AE0839FC0011124280F209368
:1057B000B70420915F04205180915E04839FC00153
:1057C0001124280F2093AC0420915D042051809176
:1057D0005C04839FC0011124280F2093A104109220
:1057E0005B048091530487FF20C080915304909103
:1057F000AC04282F332727FD309537FF03C03095A1
:1058000021953F4F892F90E08217930774F4809180
:1058100052048150809352048091AC0490915304BF
:10582000845C890F8093AC0415C08091AC04909186
:105830005304980F9093AC048091AC048D3350F0D6
:105840008091AC048C538093AC04809152048F5FA0
:10585000809352048091520487FF1EC080915204AD
:105860009091A104282F332727FD309537FF03C0DF
:10587000309521953F4F892F90E08217930764F46C
:105880008FEF80935B048091A10490915204885E15
:10589000890F8093A104B6C08091A1049091520415
:1058A000980F9093A1048091A104893108F4AAC0B3
:1058B0008091A10488518093A10481E080935B04CE
:1058C000A1C08D3009F09EC0002361F08AE566E03A
:1058D0000E9423298CE594E060E00E9465221092EA
:1058E00068048EC020915D04205180915C043AE0F0
:1058F000839FC0011124280F2093AB0420915F04E3
:10590000205180915E04839FC0011124280F2093B1
:10591000B60420916104205180916004839FC001EE
:105920001124280F2093A5048091A50490E0837092
:105930009070892B11F08CE101C08DE190915B0496
:10594000992309F443C08A838091AB04980F909304
:10595000AB048091AB048823E1F48091B6048150BC
:105960008093B6048091B604882351F48091A504F5
:1059700081508093A5048CE08093B6048FE106C02B
:105980008091B604FE01E80FF11D80818093AB0485
:105990001DC09091AB048091B604FE01E80FF11D8B
:1059A0008081891798F491E09093AB048091B604BC
:1059B0008F5F8093B6048091B6048D3038F080916B
:1059C000A5048F5F8093A5049093B6041091B7044B
:1059D000F090AC04D090A1048091B6046091AB0427
:1059E0004091A5040E946432282F0091AB04E090FE
:1059F000B604C090A504812F6F2D4D2D0E949D2AC5
:105A000081E001C080E02C960FB6F894DEBF0FBE97
:105A1000CDBFCF91DF911F910F91FF90EF90DF905D
:105A2000CF90089580E090E00E94173BE6EAF0E016
:105A3000E4918E17E1F080EA9FE064E60E94772A05
:105A400084E690E00E94D43080EA9FE064E60E9401
:105A5000772A84E690E00E94D43080EA9FE064E6F2
:105A60000E94772A88EE93E00E94D430E4CF089514
:105A7000DF93CF93CDB7DEB729970FB6F894DEBF8B
:105A80000FBECDBF1982F89480ED61E0AE014F5F8B
:105A90005F4F0E94C625882399F080EA9FE064E664
:105AA0000E94772A84E690E00E94D43080EA9FE04A
:105AB00064E60E94772A88EE93E00E94D430EDCF0E
:105AC00080ED67E0AE014E5F5F4F0E940D26789437
:105AD000882399F080EA9FE064E60E94772A84E6B2
