:100000000C942C070C9449070C9449070C940D1C74
:100010000C9449070C9449070C9449070C94490720
:100020000C9449070C94EF2F0C9449070C94762BF1
:100030000C9449070C94032B0C94152B0C94490732
:100040000C9449070C9449070C94962A0C94490780
:100050000C9449070C94321C0C9449070C944907E2
:100060000C948C270C9449073A002B002D004D6509
:100070006E753D457869742C205365743D2D2C2098
:100080002B004750532054696D653A2020202020D2
:100090002020205554430047505320446174653A52
:1000A00020004F66667365743A00475053205365CD
:1000B00074757000120412056472617700796561CD
:1000C000722100646174652100646F6E6520696E41
:1000D00069740041626F7574004750532053657412
:1000E000757000526F746174650052616E646F6D5B
:1000F0000054696D657353714368726F6E005844A4
:10010000414C494368726F6E00536576656E436873
:10011000726F6E00496E7472756465724368726FB7
:100120006E00524154544368726F6E0073657420C0
:10013000736563730073656300736574206D696E26
:1001400073006368616E6765206D696E0073657426
:1001500020686F7572006368616E67652068720061
:10016000736574206D696E73006368616E676520E6
:100170006D696E0073657420686F757200636861E5
:100180006E67652068722E002020202020455520B3
:1001900032346872002020202020455520313268FA
:1001A0007200202020202055532032346872002015
:1001B0002020202055532031326872005265676933
:1001C0006F6E3A2000736574207965617200636810
:1001D000616E67652079722E0073657420646174A6
:1001E00065006368616E676520646179007365749A
:1001F000206D6F6E2E006368616E6765206D6F6E97
:100200000020202020200020202020200044617495
:10021000653A004D6F64653A00536574204261632E
:100220006B6C696768743A20005365742054696D7B
:10023000653A200053657420416C61726D3A20204C
:10024000009F1058BC1C16163F3F16161CBC5800C9
:10025000000000101EB87D363C3C3C3C367DB81E8C
:1002600000000000109C9E5E76375F5F37765E9ED2
:100270009C0000000010181C9C56B65F5FB6569C90
:100280001C18000000001070187DB6BC3C3CBCB6C9
:100290007D187000000000101C5EFEB6375F5F37EF
:1002A000B6FE5E1C000000000CF8FCFEFE3F1F1FA7
:1002B0003FFEFEFCF84932433A204255535F455217
:1002C000524F520D0A004932433A204E4F5F494E79
:1002D000464F0D0A004932433A2053542D3E4441C3
:1002E00054415F4E41434B206F72204C4153545F49
:1002F000444154410D0A004932433A2053542D3EA3
:10030000444154415F41434B0D0A004932433A2076
:1003100053542D3E534C415F41434B0D0A0049322B
:10032000433A2053522D3E53525F53544F500D0ABF
:10033000004932433A2053522D3E444154415F4ECE
:1003400041434B0D0A004932433A2053522D3E445B
:100350004154415F41434B0D0A004932433A205317
:10036000522D3E534C415F41434B0D0A00493243ED
:100370003A204D522D3E534C415F41434B0D0A00F4
:100380004932433A204D522D3E444154415F41434E
:100390004B0D0A004932433A204D542D3E41524202
:1003A0005F4C4F53540D0A004932433A204D54528A
:1003B0002D3E534C415F4E41434B206F72204D54B4
:1003C0002D3E444154415F4E41434B0D0A0049329A
:1003D000433A204D522D3E444154415F4E41434BE0
:1003E0000D0A004932433A204D542D3E534C415F93
:1003F00041434B206F7220444154415F41434B0DB8
:100400000A004932433A204D2D3E53544152540D77
:100410000A000C0FFFFF0A11FFFF0912FFFF080B74
:100420001013070B1014060A1115060A1115050AF8
:100430001116050A1116040A1117040912170309E7
:1004400012180309121803091218020912180209D6
:1004500012190209121902091219020912190109C5
:10046000121A0109121A0109121A0109121A0109B4
:10047000121A0109121A0109121A0109121A0109A4
:10048000121A0109121A0009121B0009121B000995
:10049000121B0009121B0009121B0009121B000984
:1004A000121B0109121A0109121A0109121A010973
:1004B000121A0109121A0109121A0109121A010964
:1004C000121A0109121A0209121902091219020953
:1004D0001219020912190209121803091218030944
:1004E00012180309121804091217040A1117050A31
:1004F0001116050A1116060A1115060A1115070B21
:100500001014080B10130912FFFF0A11FFFF0C0F44
:10051000FFFF1111FFFF0F11FFFF0E11FFFF0C1165
:10052000FFFF0B11FFFF0911FFFF0811FFFF06116D
:10053000FFFF0511FFFF0311FFFF02050811020372
:1005400009110911FFFF0911FFFF0911FFFF0A112E
:10055000FFFF0A11FFFF0A11FFFF0A11FFFF0A1137
:10056000FFFF0A11FFFF0A11FFFF0A11FFFF0A1127
:10057000FFFF0A11FFFF0A11FFFF0A11FFFF0A1117
:10058000FFFF0A11FFFF0A11FFFF0A11FFFF0A1107
:10059000FFFF0A11FFFF0A11FFFF0A11FFFF0A11F7
:1005A000FFFF0A11FFFF0A11FFFF0A11FFFF0A11E7
:1005B000FFFF0A11FFFF0A11FFFF0A11FFFF0A11D7
:1005C000FFFF0A11FFFF0A11FFFF0A11FFFF0A11C7
:1005D000FFFF0A11FFFF0A11FFFF0A11FFFF0A11B7
:1005E000FFFF0A11FFFF0A11FFFF0A11FFFF0912A7
:1005F000FFFF0912FFFF0912FFFF0912FFFF081298
:10060000FFFF0713FFFF0416FFFF0218FFFF02188A
:10061000FFFF0C10FFFF0A12FFFF0913FFFF081472
:10062000FFFF0715FFFF0616FFFF0616FFFF051762
:10063000FFFF0517FFFF0417FFFF0418FFFF030666
:100640000D1803050E1803040F1802040F180203F7
:1006500010180203101801021118010211181118C4
:10066000FFFF1118FFFF1118FFFF1118FFFF1118EE
:10067000FFFF1118FFFF1117FFFF1117FFFF1117E1
:10068000FFFF1116FFFF1016FFFF1015FFFF1015DB
:10069000FFFF0F14FFFF0F14FFFF0F13FFFF0E13D9
:1006A000FFFF0E12FFFF0E11FFFF0D11FFFF0D10D8
:1006B000FFFF0C0FFFFF0C0FFFFF0B0EFFFF0B0DDB
:1006C000FFFF0A0D1B1B0A0C1B1B090B1A1B090B36
:1006D0001A1B080A191B0709191A0708181A06080D
:1006E000141A061AFFFF051AFFFF051AFFFF041967
:1006F000FFFF0319FFFF0319FFFF0219FFFF021994
:10070000FFFF0119FFFF0019FFFF0018FFFF00188E
:10071000FFFF0C11FFFF0A14FFFF0915FFFF08166A
:10072000FFFF0716FFFF0617FFFF0517FFFF04086F
:100730000B1804060D1803050E1803040F18020405
:1007400010180203101802031018020210181018D3
:10075000FFFF1018FFFF1018FFFF1017FFFF101703
:10076000FFFF1016FFFF1016FFFF0F15FFFF0F14FE
:10077000FFFF0E14FFFF0D15FFFF0C16FFFF0B17F9
:10078000FFFF0918FFFF0918FFFF0919FFFF0B19E9
:10079000FFFF0C19FFFF0E1AFFFF0F1AFFFF101AC1
:1007A000FFFF111AFFFF121AFFFF121AFFFF131AA1
:1007B000FFFF131AFFFF141AFFFF141AFFFF141A8A
:1007C000FFFF141AFFFF141AFFFF151AFFFF151A77
:1007D000FFFF1519FFFF1519FFFF1519FFFF02068F
:1007E0001518010714180108141800091417000936
:1007F0001416000A1316010B1215010C1114011323
:10080000FFFF0212FFFF0311FFFF040FFFFF060CA3
:10081000FFFF1317FFFF1217FFFF1217FFFF11173C
:10082000FFFF1117FFFF1017FFFF1017FFFF0F1734
:10083000FFFF0F17FFFF0E17FFFF0E17FFFF0D172C
:10084000FFFF0D17FFFF0C17FFFF0C17FFFF0B0D2E
:100850000F170B0D0F170A0C0F170A0C0F17090BA8
:100860000F17090B0F17080A0F17080A0F170709A8
:100870000F1707090F1706080F1706080F170507A8
:100880000F1705070F1704060F1704060F170305A8
:100890000F1703050F1702040F1702040F170103A8
:1008A0000F1701030F1700020F1700020F170002A6
:1008B0000F17001BFFFF001BFFFF001BFFFF001BAC
:1008C000FFFF001BFFFF001BFFFF001BFFFF001BC4
:1008D000FFFF001BFFFF001BFFFF001BFFFF0F17A9
:1008E000FFFF0F17FFFF0F17FFFF0F17FFFF0F1778
:1008F000FFFF0F17FFFF0F17FFFF0F17FFFF0F1768
:10090000FFFF0F17FFFF0F17FFFF0F17FFFF0F1757
:10091000FFFF081BFFFF081AFFFF081AFFFF081A56
:10092000FFFF071AFFFF0719FFFF0719FFFF07194E
:10093000FFFF0719FFFF0618FFFF0618FFFF061845
:10094000FFFF0607FFFF0607FFFF0607FFFF05077C
:10095000FFFF0506FFFF0506FFFF0506FFFF050673
:10096000FFFF040CFFFF040FFFFF0411FFFF041241
:10097000FFFF0414FFFF0414FFFF0315FFFF03161E
:10098000FFFF0316FFFF0317FFFF0317FFFF021808
:10099000FFFF0218FFFF0A18FFFF0C19FFFF0E19D7
:1009A000FFFF1019FFFF1119FFFF1219FFFF1319A5
:1009B000FFFF1319FFFF1419FFFF1419FFFF15198B
:1009C000FFFF1519FFFF1519FFFF1619FFFF161975
:1009D000FFFF1619FFFF1618FFFF03051618020682
:1009E0001518010815170109151700091417000A31
:1009F0001416000B1315000D12150114FFFF01133F
:100A0000FFFF0212FFFF0311FFFF040FFFFF060CA1
:100A1000FFFF181AFFFF151AFFFF131AFFFF111728
:100A2000FFFF1016FFFF0E14FFFF0D13FFFF0C1248
:100A3000FFFF0B11FFFF0A10FFFF0910FFFF080F58
:100A4000FFFF080EFFFF070EFFFF060DFFFF060D5D
:100A5000FFFF050DFFFF050CFFFF040CFFFF040C5B
:100A6000FFFF040BFFFF030BFFFF030BFFFF030B55
:100A7000FFFF020A0D110214FFFF0215FFFF02160D
:100A8000FFFF010B0E17010A1018010A10180109C7
:100A9000111901091119010911190109121A010984
:100AA000121A0109121A0109121A0109121A01096E
:100AB000121B0109121B0109121B0109121B01095A
:100AC000121B0109121B0109121B0109121A01094B
:100AD000121A0209121A0209121A0209121A02093A
:100AE0001219030A1219030A1219030A1218040A26
:100AF0001218040A1218050A1217050B1217060B12
:100B00001116070C11150814FFFF0A13FFFF0C1034
:100B1000FFFF031BFFFF031BFFFF021AFFFF021A69
:100B2000FFFF021AFFFF021AFFFF0219FFFF02195F
:100B3000FFFF0219FFFF0219FFFF0118FFFF011855
:100B4000FFFF0118FFFF010414180103141801022C
:100B500013170002131700011317000113170001E8
:100B60001216000112161216FFFF1216FFFF1116C1
:100B7000FFFF1115FFFF1115FFFF1115FFFF1115E5
:100B8000FFFF1014FFFF1014FFFF1014FFFF1014DD
:100B9000FFFF0F14FFFF0F13FFFF0F13FFFF0F13D4
:100BA000FFFF0E13FFFF0E12FFFF0E12FFFF0E12CC
:100BB000FFFF0D12FFFF0D12FFFF0D11FFFF0D11C3
:100BC000FFFF0C11FFFF0C11FFFF0C10FFFF0C10BB
:100BD000FFFF0C10FFFF0B10FFFF0B10FFFF0B0FB1
:100BE000FFFF0B0FFFFF0A0FFFFF0A0FFFFF0A0EA9
:100BF000FFFF0A0EFFFF090EFFFF090EFFFF090EA0
:100C0000FFFF090DFFFF080DFFFF080DFFFF080D97
:100C1000FFFF0B11FFFF0814FFFF0715FFFF060B77
:100C20001016050A111704091218040912180308EE
:100C300013180308131902081319020813190208DC
:100C400013190208131901081319010913190109CD
:100C50001319010A1319010A1319010B1319020BB5
:100C60001318020C1218020D1217020E1216030F9F
:100C700011150314FFFF0312FFFF0412FFFF0513FA
:100C8000FFFF0514FFFF0615FFFF0716FFFF0816FD
:100C9000FFFF0917FFFF0917FFFF0718FFFF060AED
:100CA0000C1805090D1904090E1903080E1903087B
:100CB0000F1A0208101A0208111A0107111A010767
:100CC000121A0107121A0107121A0107131A010753
:100CD000131A0107131A0107131A0107131A010740
:100CE000131A010713190107131901081319020830
:100CF0001318020812180308121703091117040A1F
:100D00001116050B10150614FFFF0812FFFF0A0F3E
:100D1000FFFF0B10FFFF0812FFFF0713FFFF060B7B
:100D20000F14050A1015050A1116040911160409F5
:100D300011170309111703091118020912180209E2
:100D400012190209121901091219010912190109CE
:100D5000121A0109121A0109121A0109121A0109BB
:100D6000121A0109121A0109121A0109121A0109AB
:100D7000121A0109121A0109121A0109121A01099B
:100D8000121A010A121A020A121A020A121A020A84
:100D9000121A030A121A030B121A040C111A041A5B
:100DA000FFFF051AFFFF0619FFFF070F11190A0CB5
:100DB00011191019FFFF1018FFFF1018FFFF10186E
:100DC000FFFF0F17FFFF0F17FFFF0F16FFFF0E1696
:100DD000FFFF0E15FFFF0E15FFFF0D14FFFF0D1394
:100DE000FFFF0C13FFFF0B12FFFF0B11FFFF0A1099
:100DF000FFFF090FFFFF080EFFFF070DFFFF050BA9
:100E0000FFFF040AFFFF0108FFFF0105FFFF0102CA
:100E1000FFFF20746F2000507265737320005345EC
:100E200054002B0073617665006368616E6765002E
:100E300073617665005345540065786974004D45CB
:100E40004E55007365740053455400616476616EBD
:100E50006365004D454E550011241FBECFEFD8E00D
:100E6000DEBFCDBF11E0A0E0B1E0E6EFFFE602C0DB
:100E700005900D92AA37B107D9F713E0AAE7B1E0C0
:100E800001C01D92A330B107E1F70E9420310C94FC
:100E9000F9370C940000AF92BF92CF92DF92EF929D
:100EA000FF920F931F93CF93DF9300E010E00E9417
:100EB000592ADD24CC24AA24BB24CC2009F045C027
:100EC000E801C75CDD4F0F5F1F4FCE010E94E33783
:100ED000E82E8FEFE816C1F4DD2019F0CC24C3947E
:100EE00034C087E090E00E94E3378093E2020E94E2
:100EF0006C22DF91CF911F910F91FF90EF90DF90C7
:100F0000CF90BF90AF900895DD2019F45801AE0C3A
:100F1000B11C2E2D30E0C901880F991F820F931F3D
:100F2000909581959F4F815C6D2D0E944F2AFE2CDC
:100F300007C0CE010E94E33760E00E944023FA948C
:100F40002196FF20B1F70E0D111DD39488E0D8161D
:100F500009F0B3CF84EF91E00E9490328501A7CFD2
:100F60000F931F9388E090E00E94E3378093FB018A
:100F70000E94592A8AEA90E060E00E947A2388E081
:100F800062E00E944F2A82EA90E060E00E947A23A9
:100F900088E064E00E944F2A87E990E060E00E94C8
:100FA0007A2388E065E00E944F2A82E890E060E0C2
:100FB0000E947A2388E067E00E944F2A8EE690E044
:100FC00060E00E947A2391E000ED18E38091A50192
:100FD000882391F18091A501823089F0843019F045
:100FE000813041F518C08091FB018F5F8093FB0138
:100FF0008091FB018933ECF01093FB011AC08091C2
:10100000FB0181508093FB018091FB01803D8CF4BA
:101010000093FB010EC087E090E00E94E3378093CD
:10102000E2020E94592A82E68093EB021F910F91FF
:10103000089591E01092A501992341F26091FB017E
:1010400088E090E00E94EB3785E362E00E944F2A3F
:101050008091FB0187FF03C08CE690E002C08AE626
:1010600090E060E00E947A238091FB01992787FD40
:10107000909597FF03C0909581959F4F9595879583
:101080009595879560E00E94E13088E690E060E009
:101090000E947A238091FB01282F332727FD30956A
:1010A00037FF03C0309521953F4F23703070C90141
:1010B00034E0880F991F3A95E1F7821B60E00E94A7
:1010C000E13090E083CF8091020181508093020152
:1010D0008823F1F485E080930201809100018093E0
:1010E0007A0190910101980F90930001903218F0CD
:1010F0008FEF80930101992319F481E0809301011E
:1011000090E080917B01882309F491E090937B012A
:101110000895FF920F931F93082FF62E6AE00E9406
:101120006A37182F805D6F2D0E944023005D86EF87
:101130009FEF189F102D1124812F800F6F2D0E947B
:1011400040231F910F91FF9008951F93182F80E067
:1011500060E00E944F2A8091A002612F0E948908BE
:1011600080919F02612F0E94890886E660E00E94BC
:101170004F2A8091A102612F0E94890880919E02CE
:10118000612F0E9489081F9108950F931F93082FC4
:1011900014E1812F67E00E944F2A86E0602F0E94B1
:1011A0001023185E1437A9F71F910F910895DF924D
:1011B000EF92FF920F931F93E82E90910001809180
:1011C0007A01981718F4892F805A02C0892F81500C
:1011D00068E041E020E30E2D0E94A22360E083E05E
:1011E000D82E15C080910001800F612F0E944F2AD8
:1011F00080917B018D9DC00111248F0D6E2D0E9469
:101200001023005F003671F7163039F0612FF62E8B
:10121000F69400E0162F1F5FE5CF1F910F91FF900E
:10122000EF90DF9008951F93182F8091F501882388
:1012300059F48091F601882339F49091F901809155
:101240007D01891709F44EC01092F6018091F601D4
:101250008093F50180917C01882309F043C081E0EF
:1012600080937C018091F90180937D018091DA0265
:101270000E9464348093A0028091E50280939F02D3
:101280008091F901833049F48091E9020E9464342D
:101290008093A1028091DF021BC08091F90181300F
:1012A00031F484E18093A1028091DE0211C080912B
:1012B000E802882339F48091EF028093A1028091A3
:1012C000E40206C08091E4028093A1028091EF02C3
:1012D00080939E0280917C01815080937C01812FBC
:1012E0000E94A5081F9108951F93182F0E94D708E8
:1012F0008091EA02882321F480917E01882339F0CD
:10130000812F0E94C5088091EA0280937E01812F7F
:101310000E9413091F9108950F931F93182F80E0C7
:1013200060E040E820E4012F0E94A22383E680933E
:101330007D01812F0E941309812F0E94A508812F12
:101340000E94D708812F0E94C5081F910F91089510
:1013500081E08093000110927A0180E00E948C0964
:101360000895803819F4E0E0F0E027C087FF08C056
:1013700081950E94B109EE27FF27E81BF90B1DC0DC
:10138000803419F4EFEFFFE718C0A82FBB27A7FDA3
:10139000B09580343CF4AA0FBB1FAB51BF4FED9109
:1013A000FC910BC0E1E7F0E0EA1BFB0BEE0FFF1F27
:1013B000ED5FFE4F0190F081E02DCF010895805C3C
:1013C0000E94B10908951F93FC0180819181A2813F
:1013D000B3819C01241B350B1EEF2D30310744F0E7
:1013E000245F31402CF4408351836283738312C0A5
:1013F000481759076A077B0728F4845F9140A0408B
:10140000B04004C08C509E4FAF4FBF4F808391833C
:10141000A283B3831F9108952F923F924F925F92C0
:101420006F927F928F929F92AF92BF92CF92DF92F4
:10143000EF92FF920F931F93DF93CF93CDB7DEB759
:1014400064970FB6F894DEBF0FBECDBF27013801F9
:101450001401E60EF71E081F191FE986FA860B878E
:101460001C87EE24FF248701E418F50806091709F4
:10147000E982FA820B831C83E4E1EE2EE5E0FE2E86
:10148000012D112DE61AF70A080B190BED82FE82C9
:101490000F83188779018A016D877E878F87988BE4
:1014A000C501D6015C016D01992420E0BAC0B601E6
:1014B000A5014E0D5F1D601F711F498B5A8B6B8BF1
:1014C0007C8B6D857E858F859889640D751D861D45
:1014D000971D6D877E878F87988B89899A89AB89BD
:1014E000BC89895A9641A040B0408CF0D094C094F9
:1014F000B094A094A11CB11CC11CD11C48EA56E1B7
:1015000060E070E0498B5A8B6B8B7C8B19C06989CA
:101510007A898B899C89683C71058105910584F4E1
:10152000D094C094B094A094A11CB11CC11CD11C37
:1015300088EC90E0A0E0B0E0898B9A8BAB8BBC8B01
:1015400049855A856B857C854C555B42604070406F
:10155000B4F08D859E85AF85B88984199509A60953
:10156000B7098C559B42A040B0404CF46D817E8100
:101570008F819885685B794D8F4F9F4F1AC0498541
:101580005A856B857C85455155406040704024F5F7
:101590008D859E85AF85B88984199509A609B709F7
:1015A00085519540A040B040BCF06D817E818F8117
:1015B0009885A30192010E94BF37C601B5010E9420
:1015C0004B37E60EF71E081F191FD101ED92FD9251
:1015D0000D931C93139704C0222311F4939401C01C
:1015E00021E0E984FA840B851C85E40CF51C061DBA
:1015F000171DE986FA860B871C874D815E816F81F6
:10160000788589819A81AB81BC81480F591F6A1FF7
:101610007B1F4D835E836F837887E988FA880B8907
:101620001C898D859E85AF85B88989559240A040DB
:10163000B0408F5B9B42A040B04008F438CFC80157
:10164000B70124E630E040E050E00E94BF37E9A552
:10165000FAA52083318342835383892D64960FB684
:10166000F894DEBF0FBECDBFCF91DF911F910F91D8
:10167000FF90EF90DF90CF90BF90AF909F908F90B2
:101680007F906F905F904F903F902F900895EF92D2
:10169000FF920F931F9380E00E949735A0E0B0E087
:1016A000BC01CD0122E230E040E050E00E944B3727
:1016B0002FEF3FE740E050E00E949D3779018A011B
:1016C00081E00E9497352FE030E040E050E0E20EEC
:1016D000F31E041F151F8295880F880F807C8E0DC6
:1016E0001F910F91FF90EF9008952F923F924F928C
:1016F0005F926F927F928F929F92AF92BF92CF92A2
:10170000DF92EF92FF920F931F93CF93DF931C0111
:10171000EB012A016091C4027091C5028091C6025A
:101720009091C702E090B202F090B3020091B4022F
:101730001091B502A090B802B090B902C090BA0260
:10174000D090BB026090AE027090AF028090B00269
:101750009090B1022223F9F000D0EDB7FEB7D2830A
:10176000C183A801970186017501640153014101FC
:101770000E940C0A8093B6021092B702F101808198
:101780009181A281B381F20180839183A283B3838B
:101790008091F5011DC000D0EDB7FEB732822182E5
:1017A000A801970186017501640153014E010E9451
:1017B0000C0A8093B6021092B70288819981AA819F
:1017C000BB81F20180839183A283B3838091F60170
:1017D0000F900F90882311F021E001C020E0F2016A
:1017E00080819181A281B38130E7E32E3EEFF32E19
:1017F0003FEF032F3FEF132FE80EF91E0A1F1B1FA9
:10180000E082F18202831383222399F1F5E5EF163A
:10181000F8E0FF06F0E00F07F0E01F0728F4805320
:10182000984FAF4FBF4F20C0FBEAEF16F0E1FF0625
:10183000F0E00F07F0E01F0728F0805F9A40A0401B
:10184000B04012C082E00E949735892B29F480EACB
:1018500096EFAFEFBFEF04C080E699E0A0E0B0E004
:101860008E0D9F1DA01FB11FF20180839183A28363
:10187000B3838091B602DF91CF911F910F91FF90BA
:10188000EF90DF90CF90BF90AF909F908F907F9020
:101890006F905F904F903F902F900895AF92BF92BE
:1018A000CF92DF92EF92FF920F931F93F62ED42EDA
:1018B000B22E882361F56091C0027091C1028091BF
:1018C000C2029091C30224E630E040E050E00E9462
:1018D000BF37122F6091D0027091D1028091D20255
:1018E0009091D30224E630E040E050E00E94BF3700
:1018F000812F622F44E024E00F2DE4E0EE2E7AE009
:10190000C72E50E1A52E0E94E935882331F08F2D96
:1019100064E04D2D2B2D0E94F4361F910F91FF9006
:10192000EF90DF90CF90BF90AF9008950F931F93EB
:10193000182F062F8091A0026AE00E946A37482F74
:10194000812F6EE1202F0E944E0C8091A0026AE050
:101950000E946A37812F6DE2492F202F0E944E0C82
:101960008091A1026AE00E946A37482F812F66E4C5
:10197000202F0E944E0C8091A1026AE00E946A37DB
:10198000812F65E5492F202F0E944E0C1F910F914A
:1019900008950F931F93082F10E08FE3612F0E948B
:1019A0004F2A002311F080EF01C08FE00E94F6293A
:1019B0001F5F173091F78FE367E00E944F2A0023E3
:1019C00011F080E201C08FEC0E94F6291F910F9167
:1019D00008959091F90180918001981739F081E084
:1019E00080937F018091F901809380018091F901BA
:1019F000813059F1813030F08230C9F1833009F003
:101A000048C03DC08091F501882321F48091F60102
:101A1000882391F08091F601882339F08091E602C5
:101A20000E9464348093A00204C08091F501882351
:101A300081F18091DC0220C08091DA020E9464343E
:101A40008093A0028091E50217C08091E80288236C
:101A500039F48091EF028093A0028091E4020CC0DF
:101A60008091E4028093A0028091EF0205C084E19E
:101A70008093A0028091DE028093A102089580915C
:101A8000E9020E9464348093A0028091DF02809377
:101A9000A1020895AF92CF92DF92EF92FF920F933F
:101AA0001F93D82E0E94E90C6091C0027091C10270
:101AB0008091C2029091C30224E630E040E050E001
:101AC0000E94BF37122F6091D0027091D102809195
:101AD000D2029091D30224E630E040E050E00E9430
:101AE000BF37812F622F44E024E00D2D0E94A223F6
:101AF000FF24DD2011F4FF24F3946091C40270915F
:101B0000C5028091C6029091C70224E630E040E011
:101B100050E00E94BF37122F6091B2027091B30261
:101B20008091B4029091B50224E630E040E050E0AC
:101B30000E94BF37812F622F44E024E00F2D0E94C6
:101B4000A2236091C0027091C1028091C202909163
:101B5000C30224E630E040E050E00E94BF37122F7D
:101B60006091D0027091D1028091D2029091D30203
:101B700024E630E040E050E00E94BF37812F622F22
:101B800044E024E00FE3EE24CC24C39490E4A92E97
:101B90000E94E935882319F08D2D0E94C90C2091EF
:101BA000A2023091A3024091A4025091A50280911B
:101BB000A6029091A702A091A802B091A9022817AD
:101BC00039074A075B0779F0CA01B90124E630E01A
:101BD00040E050E00E94BF378AE0622F43E02CE0F3
:101BE0000D2D0E94A2236091A6027091A702809100
:101BF000A8029091A90224E630E040E050E00E9463
:101C0000BF378AE0622F43E02CE00F2D0E94A22311
:101C10002091CC023091CD024091CE025091CF0262
:101C20008091C8029091C902A091CA02B091CB02E2
:101C3000281739074A075B0779F0CA01B90124E67A
:101C400030E040E050E00E94BF3783E7622F43E07E
:101C50002CE00D2D0E94A2236091C8027091C90250
:101C60008091CA029091CB0224E630E040E050E03F
:101C70000E94BF3783E7622F43E02CE00F2D0E94C4
:101C8000A2236091C0027091C1028091C202909122
:101C9000C30224E630E040E050E00E94BF37022F4C
:101CA0006091D0027091D1028091D2029091D302C2
:101CB00024E630E040E050E00E94BF37122F6091F0
:101CC000C8027091C9028091CA029091CB0224E6A9
:101CD00030E040E050E00E94BF37E22E802F612FBD
:101CE00044E024E003E713E0C12EBCE0AB2E0E94E9
:101CF000E9358823A9F06091C8027091C9028091EA
:101D0000CA029091CB0224E630E040E050E00E940D
:101D1000BF3783E7622F43E02CE00F2D0E94A22300
:101D20006091C0027091C1028091C2029091C30281
:101D300024E630E040E050E00E94BF37022F60917F
:101D4000D0027091D1028091D2029091D30224E608
:101D500030E040E050E00E94BF37122F6091A602B1
:101D60007091A7028091A8029091A90224E630E028
:101D700040E050E00E94BF37E22E802F612F44E008
:101D800024E00AE0A3E0CA2EFCE0AF2E0E94E93571
:101D90008823A9F06091A6027091A7028091A80201
:101DA0009091A90224E630E040E050E00E94BF3765
:101DB0008AE0622F43E02CE00F2D0E94A2231092B4
:101DC000700080917F01882311F010927F0181E0E3
:101DD000809370006D2D0E94960C1F910F91FF90C3
:101DE000EF90DF90CF90AF9008956F927F928F9297
:101DF0009F92AF92BF92CF92DF92EF92FF920F939A
:101E00001F938091C4029091C502A091C602B09127
:101E1000C7028093C0029093C102A093C202B09304
:101E2000C3022091B2023091B3024091B4025091AA
:101E3000B5022093D0023093D1024093D202509346
:101E4000D3026090B8027090B9028090BA0290906C
:101E5000BB0264015301A80EB91ECA1EDB1EA0926C
:101E6000C402B092C502C092C602D092C702E090EE
:101E7000AE02F090AF020091B0021091B102D80111
:101E8000C701820F931FA41FB51F8093B2029093C6
:101E9000B302A093B402B093B502895A9641A04010
:101EA000B040DCF088EA96E1A0E0B0E08093B202B6
:101EB0009093B302A093B402B093B50288279927F8
:101EC000DC018E199F09A00BB10B8093AE02909399
:101ED000AF02A093B002B093B1028091B202909190
:101EE000B302A091B402B091B502883C9105A1055E
:101EF000B1051CF588EC90E0A0E0B0E08093B20260
:101F00009093B302A093B402B093B5028091AE0255
:101F10009091AF02A091B002B091B102B095A0959E
:101F2000909581959F4FAF4FBF4F8093AE02909396
:101F3000AF02A093B002B093B10284EDA81680E383
:101F4000B80680E0C80680E0D806ECF4C601B5010A
:101F500024E630E040E050E00E94BF3712169CF4C7
:101F6000611471048104910409F0CEC08091AE0225
:101F70009091AF02A091B002B091B1020097A1057B
:101F8000B10509F0C1C08CE998E1A0E0B0E0809310
:101F9000C4029093C502A093C602B093C7028CE11D
:101FA0009CE0A0E0B0E08093B2029093B302A093D3
:101FB000B402B093B5020E94470B182F84EF91E052
:101FC000A0E0B0E08093B8029093B902A093BA0267
:101FD000B093BB028093AE029093AF02A093B00285
:101FE000B093B102812F0E94DF09AA2797FDA09527
:101FF000BA2FBC01CD0124EF31E040E050E00E9457
:102000004B376093B8027093B9028093BA029093F1
:10201000BB02A090AE02B090AF02C090B002D090D0
:10202000B102812F0E94B1097C016091B8027091C8
:10203000B9028091BA029091BB022FEF3FE740E0D6
:1020400050E00E94BF372093B8023093B90240930A
:10205000BA025093BB020027F7FC0095102FC8016D
:10206000B701A60195010E944B372FEF3FE740E0F3
:1020700050E00E94BF372093AE023093AF024093EE
:10208000B0025093B10260918E0120918D01261B08
:102090008AE043E000E00E94A22360919001209139
:1020A0008F01261B83E743E00E94A22310928F0139
:1020B0001092900110928D0110928E0181E0809318
:1020C0007F011092F6018091F6018093F50120E0E6
:1020D0008091B8029091B902A091BA02B091BB026E
:1020E000181619061A061B060CF421E081E891E087
:1020F00065E871E049E851E00E94750B8093B602F3
:102100001092B7020E94E90C8091A6029091A7025A
:10211000A091A802B091A9028093A2029093A30279
:10212000A093A402B093A5028091C8029091C90225
:10213000A091CA02B091CB028093CC029093CD02C1
:10214000A093CE02B093CF028091B8029091B902D1
:10215000A091BA02B091BB02B7FF2AC08091C4021D
:102160009091C502A091C602B091C70280509941DA
:10217000A040B0400CF04BC08091F501882349F09D
:102180004091890150918A0160918B0170918C017D
:102190000CC04091B2025091B3026091B4027091B0
:1021A000B502405951406040704086EA92E02CC030
:1021B0000097A105B10599F18091C4029091C502E3
:1021C000A091C602B091C70281509941A040B04091
:1021D00034F18091F601882349F0409189015091B2
:1021E0008A0160918B0170918C010CC04091B20208
:1021F0005091B3026091B4027091B50240595140C0
:102200006040704088EC92E00E94E30915C081E8CC
:1022100091E065E871E049E851E021E007C081E81C
:1022200091E065E871E049E851E020E00E94750B1B
:102230008093B6021092B7028091A6029091A702F5
:10224000A091A802B091A902893C9105A105B10510
:1022500064F489EC90E0A0E0B0E08093A602909353
:10226000A702A093A802B093A9028091C8029091FE
:10227000C902A091CA02B091CB02893C9105A10587
:10228000B10564F489EC90E0A0E0B0E08093C8026E
:102290009093C902A093CA02B093CB028091A60288
:1022A0009091A702A091A802B091A90288589341E9
:1022B000A040B04064F087E893E1A0E0B0E08093F4
:1022C000A6029093A702A093A802B093A9028091BE
:1022D000C8029091C902A091CA02B091CB0288585D
:1022E0009341A040B04064F087E893E1A0E0B0E003
:1022F0008093C8029093C902A093CA02B093CB0204
:102300008091B8029091B902A091BA02B091BB023B
:10231000181619061A061B060CF05DC06091C4025F
:102320007091C5028091C6029091C70224E630E008
:1023300040E050E00E94BF37022F6091B2027091DE
:10234000B3028091B4029091B50224E630E040E0FF
:1023500050E00E94BF37122F6091C8027091C902ED
:102360008091CA029091CB0224E630E040E050E038
:102370000E94BF37E22E802F612F44E024E003E764
:10238000E3E0CE2E7CE0A72E0E94E935882319F1E8
:102390008091B8029091B902A091BA02B091BB02AB
:1023A000B095A095909581959F4FAF4FBF4F80936B
:1023B000B8029093B902A093BA02B093BB028CE525
:1023C0009BE2A0E0B0E08093C4029093C502A0938A
:1023D000C602B093C7028091B8029091B902A09151
:1023E000BA02B091BB02B7FF5DC06091C4027091A8
:1023F000C5028091C6029091C70224E630E040E019
:1024000050E00E94BF37022F6091B2027091B30278
:102410008091B4029091B50224E630E040E050E0B3
:102420000E94BF37122F6091A6027091A70280917F
:10243000A8029091A90224E630E040E050E00E941A
:10244000BF37E22E802F612F44E024E00AE053E002
:10245000C52E3CE0A32E0E94E935882319F1809116
:10246000B8029091B902A091BA02B091BB02B095A6
:10247000A095909581959F4FAF4FBF4F8093B80225
:102480009093B902A093BA02B093BB0284E195E0A5
:10249000A0E0B0E08093C4029093C502A093C6026E
:1024A000B093C7021F910F91FF90EF90DF90CF90F4
:1024B000BF90AF909F908F907F906F900895FF9204
:1024C0000F931F93F82E80E060E040E820E40F2D8A
:1024D0000E94A22310E0FF2009F411E080E060E0F8
:1024E00040E822E0012F0E94A22380E06EE340E852
:1024F00022E00E94A2236091A6027091A70280911F
:10250000A8029091A90224E630E040E050E00E9449
:10251000BF378AE0622F43E02CE00E94A223609143
:10252000C8027091C9028091CA029091CB0224E640
:1025300030E040E050E00E94BF3783E7622F43E085
:102540002CE00E94A2230E94E90C8091A0026AE084
:102550000E946A37482F8EE164E02F2D0E94F436E6
:102560008091A0026AE00E946A378DE264E0492F00
:102570002F2D0E94F4368091A1026AE00E946A37F2
:10258000482F86E464E02F2D0E94F4368091A1024A
:102590006AE00E946A3785E564E0492F2F2D0E948A
:1025A000F4368F2D0E94C90C1F910F91FF90089552
:1025B00084EC99E0A0E0B0E08093C4029093C5025F
:1025C000A093C602B093C7028093C0029093C10249
:1025D000A093C202B093C3028093B2029093B3025D
:1025E000A093B402B093B5028093D0029093D1022D
:1025F000A093D202B093D3028093A6029093A70235
:10260000A093A802B093A9028093A2029093A30280
:10261000A093A402B093A5028093C8029093C9022C
:10262000A093CA02B093CB028093CC029093CD02C8
:10263000A093CE02B093CF020E9439351092AE0221
:102640001092AF021092B0021092B1021092B80232
:102650001092B9021092BA021092BB0280E00E945E
:102660005F1208958091EE02882341F08091F50178
:10267000823021F08091F601823031F41092F6011F
:102680008091F6018093F5010895DF92EF92FF9219
:102690000F931F93D82EE62E10E0442309F411E087
:1026A0008D2D8E5F6E2D4EE026E0012F0E94A2231D
:1026B000FE2CF3948D2D8F5F6F2D41E024E00E945E
:1026C000A22382E0E80E8D2D6E2D41E022E00E94D3
:1026D000A2238D2D805F6F2D41E024E00E94A22374
:1026E0008D2D8F5E6E2D41E022E00E94A2231F916E
:1026F0000F91FF90EF90DF900895DF92EF92FF929D
:102700000F931F93D82E162FEE24442311F4EE249A
:10271000E394612F6E5F8D2D46E025E10E2D0E9422
:10272000A223FD2CF394612F6F5F8F2D44E021E0F5
:102730000E94A22382E0D80E8D2D612F42E021E07D
:102740000E94A223195E8F2D612F44E021E00E9498
:10275000A2231F5F8D2D612F42E021E00E94A22362
:102760001F910F91FF90EF90DF9008958436D1F084
:10277000853638F4823681F0833680F4813641F52F
:1027800007C08636C1F08636A0F0873609F51AC034
:10279000862F8C5F642F09C04B5F01C04E5D862F72
:1027A0008C5E0BC0862F8C5F6AE3422F0E9445131C
:1027B00008954E5D01C04B5F862F642F422F0E940B
:1027C0007D130895862F8C5F6DE1422F0E94451383
:1027D0000895CF92DF92EF92FF920F931F93CF93C2
:1027E000DF93C82ED62E022FC7E0D0E011E6E42EEC
:1027F000FF24C7010C2E02C0959587950A94E2F735
:1028000080FF05C0812F6C2D4D2D202F07C020E0AB
:10281000002309F421E0812F6C2D4D2D0E94B61369
:1028200021971F5F183629F7DF91CF911F910F91E4
:10283000FF90EF90DF90CF9008950F93082F80E0E6
:1028400060E040E820E40E94A2230F9108950F93D6
:1028500080E060E040E820E400E00E94A2230F91C5
:102860000895FF920F931F93182F062FF22E842F97
:1028700090E04A3028F4815D9D4F0E94E33704C008
:102880008C549E4F0E94E337482F812F602F2F2DAD
:102890000E94E9131F910F91FF90089520E04423B7
:1028A00009F421E044E00E9492240895EF92FF92FF
:1028B0000F931F93082F8091F9018823C9F080910D
:1028C000F9018330A9F0102F011111E080E465E1D6
:1028D00044E0212F0E94922480E46AE244E0212F08
:1028E0000E94922480E466E044E0212F0E9492241A
:1028F0008091F9018230F1F480E060E042E0202F25
:102900000E9431148EE160E040E0202F0E943114DB
:102910008091DE0264E60E946A37892F6AE00E9495
:102920006A37482F88E460E0202F0E94311480919C
:10293000DE0230C08091F9018130B1F58091E8026A
:10294000882329F41091EF02F090E40204C0109162
:10295000E402F090EF02812F6AE00E946A37482F6C
:1029600080E060E0202F0E943114812F6AE00E94F5
:102970006A378EE160E0492F202F0E9431148F2D9D
:102980006AE00E946A37482F88E460E0202F0E94A6
:1029900031148F2D6AE00E946A3786E660E0492F85
:1029A000202F0E94311480C08091F901882329F0E2
:1029B0008091F901833009F077C08091F90183306B
:1029C00029F41091E902E090DF0204C01091DA02CC
:1029D000E090E5028091DD02882399F4812F0E9426
:1029E0006434F82E1C3020F420E0002321F402C0CF
:1029F00020E0011121E080E466E044E00E9492249E
:102A000009C020E0011121E080E466E044E00E947A
:102A10009224F12E89E08F1548F48F2D6AE00E94F0
:102A20006A37482F80E060E0202F07C020E00023B5
:102A300009F421E080E060E048E00E9431148F2D2D
:102A40006AE00E946A378EE160E0492F202F0E94E1
:102A500031148E2D6AE00E946A37482F88E460E0C6
:102A6000202F0E9431148E2D6AE00E946A3786E67C
:102A700060E0492F202F0E9431148091F7018823B4
:102A800099F02091F00211E02127217080E465E1A6
:102A900044E00E9492242091F0022127217080E4DA
:102AA0006AE244E00E9492241F910F91FF90EF9000
:102AB0000895462F282F30E0862F6AE00E946A375B
:102AC000A7E4B1E0FD01E20FF31F80832F5F3F4FCA
:102AD000842F0E946A37A20FB31F9C9308958091A0
:102AE000F901833019F46091E90202C06091DA02C1
:102AF00080E00E9459158091F901833019F46091AA
:102B0000DF0202C06091E50283E00E9459158091C6
:102B1000F901833011F460E002C06091F00286E0B8
:102B20000E9459158091E802882311F08DE001C0C0
:102B30008AE06091EF020E9459158091E802882393
:102B400011F08AE001C08DE06091E4020E94591505
:102B50006091DE0280E10E94591508958091EE0295
:102B6000882341F08091F501823021F08091F601B7
:102B7000823031F41092F6018091F6018093F501D4
:102B800008950F93502FE82FF0E030E080919401EA
:102B9000D901AE0FBF1F882399F48091920190E074
:102BA000A817B907ECF080919201E81BF109F7FF33
:102BB0000EC02E0F3F1F37FD13C0E0E0F0E007C04E
:102BC000A038B10524F020E830E02E1B3F0B00E0D8
:102BD000442309F401E08E2F422F252F0E94A223C7
:102BE0000F9108950F9322E106E00E94C1150F9105
:102BF00008950F9326E000E20E94C1150F910895F9
:102C00008436C9F0853638F4823679F0833680F41C
:102C1000813629F507C08636B9F0863690F08736BA
:102C2000F1F418C0862F642F08C0862F845F0DC072
:102C3000862F845F07C0862F6AE3422F0E94F21519
:102C40000895862F60E202C0862F642F422F0E94D3
:102C5000F9150895862F6DE1422F0E94F21508950F
:102C6000CF92DF92EF92FF920F931F93CF93DF9358
:102C7000C82ED62E022FC7E0D0E011E6E42EFF24A6
:102C8000C7010C2E02C0959587950A94E2F780FF44
:102C900006C0812F6C2D4D2D202F0E9400162197EC
:102CA0001F5F183669F7DF91CF911F910F91FF9049
:102CB000EF90DF90CF9008950F93625024E004E0EE
:102CC0000E94C1150F910895FF920F931F93182F23
:102CD000F62E022F809394014A3068F4842F90E0FE
:102CE000815D9D4F0E94E337482F812F6F2D202F4C
:102CF0000E9430160BC04A3339F460E1422F0E9423
:102D00005C16812F6FE205C04D3211F094E105C0D1
:102D10006FE1402F0E945C1696E080919401882319
:102D200019F480919201981B892F1F910F91FF90A8
:102D30000895FF920F931F93F82E809195018F5F56
:102D4000809395018230C0F11092950180E060E09F
:102D500040E820E40F2D0E94A223109193010E94CD
:102D60006F1500E0E12FF0E0E95BFE4F40811F5F4F
:102D7000802F60E02F2D0E946416982F143108F0E8
:102D800010E00023B1F4809192018D5F8093920155
:102D900080919201981768F41092920180919301AA
:102DA0008F5F8093930180919301843110F0109292
:102DB0009301090F0337B0F21F910F91FF9008950F
:102DC0000F931F93182F80E060E040E820E4012F6C
:102DD0000E94A22310929201109293010E946F15FB
:102DE000812F0E9499161F910F91089580E00E94F3
:102DF000E0160895DF92EF92FF920F931F93CF9307
:102E0000DF93D82EF62EE22EF694F694F694EA018D
:102E100000E015C0FE011491802F6CE10E946A371A
:102E2000292F2D0D802F0E946A37682F6F0D822F5A
:102E30000E944F2A812F0E94F6290F5F21960E15BE
:102E400048F3DF91CF911F910F91FF90EF90DF90AA
:102E50000895CF92DF92EF92FF920F931F93CF933B
:102E6000DF93C82EF62ED22EE02EF694F694F6942A
:102E7000EA0110E019C00881812F6CE10E946A37D5
:102E8000992341F4812F0E946A37682F6F0D8C2D92
:102E90000E944F2AEE2019F0802F809501C0802FCC
:102EA0000E94F6291F5F21961D1528F3DF91CF910F
:102EB0001F910F91FF90EF90DF90CF9008957F9238
:102EC0008F929F92AF92BF92CF92DF92EF92FF923A
:102ED0000F931F93DF93CF93CDB7DEB7C05ED04083
:102EE0000FB6F894DEBF0FBECDBFA82E962EB22E21
:102EF000802EFE01319680EEDF011D928A95E9F762
:102F0000DA0150E09CE1792E81E0C82ED12C7F01BE
:102F10001CC0F90184912F5F3F4FF901749121503A
:102F20003040482F09C0F801E40FF11DEE0DFF1DE0
:102F30008081862B80834F5F4717A8F39F5F2E5FAA
:102F40003F4F923031F75F5F14965B1588F4852F01
:102F5000869586958695879D80011124852F87709B
:102F60006C2D01C0660F8A95EAF79D0190E0D1CFE4
:102F70008A2D692DAE014F5F5F4F20EE082D0E9414
:102F80002917C052DF4F0FB6F894DEBF0FBECDBF7A
:102F9000CF91DF911F910F91FF90EF90DF90CF9035
:102FA000BF90AF909F908F907F9008950F93942F34
:102FB000022F592F40E04E5E5B4F20E40E945F17C6
:102FC0000F9108952F923F924F925F926F927F924E
:102FD0008F929F92AF92BF92CF92DF92EF92FF9229
:102FE0000F931F93DF93CF93CDB7DEB7C35FD0406E
:102FF0000FB6F894DEBF0FBECDBFC251DF4F88833E
:10300000CE5ED040C151DF4F6883CF5ED040C0510B
:10301000DF4F4883C05FD040CF50DF4F0883C15F90
:10302000D040FE01399680EEDF011D928A95E9F7C6
:1030300080919901282E3324D22ECC2442E154E0F1
:10304000C40ED51EC051DF4F8881C05FD040F82E1E
:10305000EE24E40EF51E88249924B5E06B2E712C25
:103060006C0E7D1ECE50DF4FF983E883C25FD040E7
:10307000582DC051DF4F8881C05FD0408F3F29F469
:103080001C821B821A82198209C0DE011196F70187
:1030900084918D933196A615B705D1F79981C451C6
:1030A000DF4F9883CC5ED04030E09F3F09F031E0A5
:1030B0008B818F3F09F03F5FD301F60184918D939F
:1030C0003196CE50DF4F88819981C25FD040A817DA
:1030D000B907A1F79D81C551DF4F9883CB5ED040E2
:1030E00090E0C551DF4FA881CB5ED040AF3F09F0E3
:1030F00091E08F818F3F09F09F5F292F931708F48C
:10310000232FBA81C351DF4FB883CD5ED04056958F
:1031100056955695ECE15E9F20011124C4018770FD
:10312000907041E050E002C0440F551F8A95E2F7CD
:10313000C751DF4F4883C95ED0405E81C651DF4F23
:103140005883CA5ED04083015E010894A11CB11C63
:10315000622F70E0660F771F660D771D69C0D5017D
:103160002C912F3F19F01196BC910AC0C451DF4F2A
:103170002881CC5ED040C351DF4FB881CD5ED040B6
:10318000F80180818F3FB1F1A18190E030E0821B96
:10319000930B829DA001839D500D929D500D112493
:1031A000405F5F4FF5E056954795FA95E1F7420F7E
:1031B000531F50708A2F90E02B2F30E0821B930B0F
:1031C000829DD001839DB00D929DB00D112450962B
:1031D000E5E0B695A795EA95E1F7A20FB31FB070A9
:1031E000F201E40FF51F89E090E08C0F9D1FE80FBE
:1031F000F91F15C0C551DF4F8881CB5ED040C65145
:10320000DF4FA881CA5ED040C0CF8081C751DF4F59
:103210009881C95ED040892B81934F5F5F4F4A17D9
:103220005B0798F30E5F1F4FA2E0B0E0AA0EBB1E33
:103230000617170709F093CF0894811C911CE4E04E
:10324000F0E0CE0EDF1EEE0EFF1EF0E48F169104AE
:1032500009F00ECFC251DF4F8881CE5ED040C15100
:10326000DF4F6881CF5ED040AE01475F5F4F20EEF9
:10327000CF50DF4F0881C15FD0400E942917CD5049
:10328000DF4F0FB6F894DEBF0FBECDBFCF91DF91F9
:103290001F910F91FF90EF90DF90CF90BF90AF9074
:1032A0009F908F907F906F905F904F903F902F9066
:1032B0000895EF92FF920F931F93E82E162FFF248D
:1032C000442311F4FF24F39413508E2D8150612F69
:1032D00042E026E00F2D0E94A2231F5F8E2D825018
:1032E000612F44E024E00E94A2231F5F8E2D8350B3
:1032F000612F46E022E00E94A2231F910F91FF90D0
:10330000EF9008951F93182F80E464E1412F0E94ED
:10331000591980E46AE3412F0E9459191F910895B9
:103320008091F901882359F48091F701882339F0BD
:103330001092F7018091F00281700E948219089525
:103340000F931F93CF93DF93182F8091F901882358
:1033500029F08091F901833009F0C8C09091F901FA
:103360008091A301891709F450C0809196018823A8
:1033700009F04BC080919E0180939A0180919F013A
:1033800080939B018091A00180939C018091A10179
:1033900080939D018091F901882341F48091DA02A4
:1033A0000E946434382F2091E50207C08091E90221
:1033B0000E946434382F2091DF02822F6AE00E943D
:1033C0006A379093A101822F0E946A378093A001EF
:1033D000832F0E946A3780939E01832F0E946A3751
:1033E00090939F01812F0E9482198CE363E247E052
:1033F00025E0012F0E94A2238091F9018093A3016F
:10340000809196018F5F809396018091F9018823C6
:1034100009F046C08091F501882321F48091F601DE
:103420008823F1F1809196018823D1F581E0809382
:1034300096018091A10180939D018091E5026AE04F
:103440000E946A379093A1018091A00180939C0112
:103450008091E5020E946A378093A0018091F60175
:103460008823C1F08091DA020E946434282F809171
:103470009E0180939A0180919F0180939B01822FEE
:103480006AE00E946A3780939E01822F0E946A3709
:1034900090939F011092F6018091F6018093F501BF
:1034A0008091A201811709F474C08091960188234C
:1034B00009F06FC060E040E820E4012F0E94A223E1
:1034C000812F0E948219C0E0D0E0FE01E45AFE4F35
:1034D000DE01A256BE4F808160E04C91212F0E94F8
:1034E000D6172196C430D10581F753C00091F90158
:1034F000013009F051C09091F9018091A301891721
:1035000009F447C083EC90E061E00E94C4328091EE
:1035100096018823F1F5009396018091F90180933B
:10352000A30180919E0180939A0180919F018093D5
:103530009B018091A00180939C018091A1018093C7
:103540009D018091E802882329F42091EF023091B7
:10355000E40204C02091E4023091EF02822F6AE07D
:103560000E946A3780939E01822F0E946A3790934F
:103570009F01832F0E946A378093A001832F0E94AE
:103580006A379093A10180E0112309F481E00E9441
:103590008219C0E0D0E04EC00091F9010230C9F7B5
:1035A0009091F9018091A301891799F38DEB90E037
:1035B00061E00E94C43280919601882351F781E036
:1035C0008093960188EB90E061E00E94C432809184
:1035D000F9018093A30180919E0180939A018091CB
:1035E0009F0180939B018091A00180939C01809119
:1035F000A10180939D0100939E0110929F018091F3
:10360000DE026AE00E946A378093A0018091DE02A8
:103610000E946A379093A10180E0112309F481E0B0
:103620000E9482198CE363E247E025E0012F0E94AB
:10363000A223AFCFFE01E656FE4F4081FE01E256C7
:10364000FE4F2081421741F0FE01E45AFE4F808177
:1036500060E0012F0E94E2172196C430D10551F796
:1036600090919601992389F1809199018F5F8093C0
:103670009901813250F11092990180919E018093BD
:103680009A0180919F0180939B018091A00180937A
:103690009C018091A10180939D019150909396018E
:1036A0008091F901813059F400E0112309F401E01F
:1036B0008CE363E247E025E00E94A22306C08091EC
:1036C000F901823011F08091F9011093A201DF918C
:1036D000CF911F910F9108950F931F93CF93DF9375
:1036E000182F80E060E040E820E4012F0E94A22330
:1036F000109299018091DA020E946434382F20914F
:10370000E5028FEF80939D0180939C0180939B0144
:1037100080939A01822F6AE00E946A379093A101F8
:10372000822F0E946A378093A001832F0E946A37FC
:1037300090939F01832F0E946A3780939E0117C048
:10374000C0E0D0E0FE01E45AFE4FDE01A656BE4FB7
:103750009E0122563E4F808160E04C91F90120810C
:10376000012F0E94E2172196C430D10559F78091AC
:1037700099018F5F809399018150813208F389EC20
:1037800090E060E00E94C43280919E0180939A0193
:1037900080919F0180939B018091A00180939C0167
:1037A0008091A10180939D01812F0E948219109226
:1037B0009901DF91CF911F910F91089580E00E94B0
:1037C0006C1B089526982E9A81E080936800EBE6A2
:1037D000F0E080818064808382E080937C0010929E
:1037E0007B00EAE7F0E08EE880838081806480835C
:1037F000089580917A00877F80937A0080917A0083
:10380000806480937A0080917A0084FFFCCF2091BD
:10381000780030917900C90108951F920F920FB678
:103820000F9211242F933F934F935F936F937F9346
:103830008F939F93AF93BF93EF93FF9378940E94DE
:10384000882BFF91EF91BF91AF919F918F917F91C5
:103850006F915F914F913F912F910F900FBE0F90FD
:103860001F9018951F920F920FB60F9211242F934D
:103870003F934F935F936F937F938F939F93AF93F8
:10388000BF93EF93FF9378948091780090917900A3
:1038900022E0803E920728F01092A6011092A40127
:1038A00073C022E08336920798F18091A40182FDD3
:1038B0006BC08AE090E00E9490320E94F91B825611
:1038C00092408E37910508F05FC082E08093A70197
:1038D00012C00E94F91B825692408E37910558F013
:1038E0008091A4018B7F8093A4018091A5018460C5
:1038F0008093A50149C08091A701882351F7809149
:10390000A40184608093A4018091A60184603AC0E0
:103910008F509140E8F08091A40181FD10C08AE0B1
:1039200090E00E9490320E94F91B8E509140855584
:10393000914050F58091A50182608093A50180910E
:10394000A40182608093A4018091A60182601AC0C4
:103950008091A40180FD0EC08AE090E00E94903228
:103960000E94F91B8F50914078F48091A5018160ED
:103970008093A5018091A40181608093A40180912E
:10398000A60181608093A60180917A00886480936B
:103990007A00FF91EF91BF91AF919F918F917F91AD
:1039A0006F915F914F913F912F910F900FBE0F90AC
:1039B0001F9018951F93182F8BE260E00E944F2AEA
:1039C0008091E202863D19F1873D60F4833DC9F0A4
:1039D000843D18F4823D61F511C0843D61F0853D60
:1039E00039F512C0883DC9F0883DA0F0893DC1F08D
:1039F0008A3DF1F418C082E291E017C084E191E0C1
:103A000014C089E091E011C08EEF90E00EC081EF0C
:103A100090E00BC08AEE90E008C083EE90E005C015
:103A200089ED90E002C083ED90E0612F0E947A233F
:103A30001F9108951F93182F88E064E00E944F2A79
:103A40008CEB91E060E00E947A238091E802882369
:103A500039F48091DD02882319F48FEA91E020C0C7
:103A60008091E802882339F48091DD02813019F4D5
:103A700082EA91E015C08091E802813039F48091AA
:103A8000DD02882319F485E991E00AC08091E802FB
:103A9000813049F48091DD02813029F488E891E099
:103AA000612F0E947A231F9108950F931F93CF9344
:103AB000DF93182F062F8091DD02882371F584E7AC
:103AC00061E00E944F2A1C3010F080E501C081E4C3
:103AD00060E00E9440238DE460E00E94402380E586
:103AE00061E00E944F2A812F90E047966CE070E0E1
:103AF0000E948A37EC018930910524F09C012F5FE8
:103B0000822F10C080E260E00E9440239E012F5C63
:103B1000822F602F0E94402308C080E561E00E9450
:103B20004F2A812F602F0E94E130DF91CF911F91AA
:103B30000F9108950F931F93CF93DF93082F162FA4
:103B40008091DD028823D1F4802F90E047966CE0CD
:103B500070E00E948A37EC018930910524F09C01C5
:103B60002F5F822F14C080E260E00E9440239E01FC
:103B70002F5C822F612F0E9440230CC080E260E006
:103B80000E94402380E260E00E944023802F612F4A
:103B90000E94E130DF91CF911F910F9108950E9413
:103BA000E1308FE260E00E9440230895EF92FF929F
:103BB0000F931F93F82E162FE42E022F88E063E058
:103BC0000E944F2A8DE092E060E00E947A2380916B
:103BD000E802882391F487E092E060E00E947A2373
:103BE00060E00B3009F461E08F2D0E94CF1D60E092
:103BF0000C3009F461E0812F15C08091E80281301A
:103C000099F481E092E060E00E947A2360E00C3059
:103C100009F461E0812F0E94CF1D60E00B3009F4B0
:103C200061E08F2D0E94CF1D10E00D3009F411E0EE
:103C300084E1612F0E94E1308E2D612F0E94E130DE
:103C40001F910F91FF90EF9008951F93182F88E018
:103C500065E00E944F2A89E192E060E00E947A23A9
:103C60008091B40060E0193609F461E00E94E1300F
:103C70001F910895DF92EF92FF920F931F93E82E0A
:103C8000F62ED42E122F88E062E00E944F2A89E29D
:103C900092E060E00E947A2300E0153609F401E02A
:103CA0008E2D602F0E949A1D8AE360E00E944023BF
:103CB00060E0163609F461E08F2D0E94E1308AE35E
:103CC00060E00E94402360E0173609F461E08D2D2A
:103CD0000E94E1308091DD02882369F480E260E097
:103CE0000E9440238BE08E1510F480E501C081E432
:103CF000602F0E9440231F910F91FF90EF90DF9063
:103D000008951F93182F88E061E00E944F2A84E3F2
:103D100092E060E00E947A238091E90260E015362B
:103D200009F461E00E94551D8AE360E00E9440238F
:103D30008091DF0260E0163609F461E00E94E13014
:103D40001F9108958B3029F486EF91E06DEE71E0BC
:103D50000DC08C3029F482EE91E069ED71E006C06F
:103D60008D3039F48EEC91E065EC71E00E94CD3637
:103D700008950E94E93608958091A9018F5F80938C
:103D8000A9010E94592A88E060E00E944F2A83E13D
:103D900092E060E00E947A2380E00E94DA1C84E0D6
:103DA0000E94811E8091DA026091E5024091F0024A
:103DB00023E00E943A1E8091EF026091E40240915C
:103DC000DE0225E00E94D61D80E00E941A1D86E0DA
:103DD0000E94251E0E94E9368091A901815080939E
:103DE000A90108951F93182F0E94BC1E8091A9015C
:103DF0008F5F8093A9018091EB02863011F40E94BD
:103E0000DE36110F110F110F1D5F80E0612F47E0AB
:103E10000E94F8308091A90181508093A9018AE025
:103E20008093A8018091EB021F910895CF92DF92B9
:103E3000EF92FF920F931F9382E00E94F21E082FD1
:103E40001091DA02D090E502F090F00290C08091DB
:103E5000A50181FF48C01092A5018091A9018F5F43
:103E60008093A901033041F486E591E06DE471E0AF
:103E70000E94CD3605E62CC0053641F482E491E07F
:103E800069E371E00E94CD3606E622C0063641F4B1
:103E900085E391E06CE271E00E94CD3607E618C040
:103EA0000E94E9361093DA02D092E502F092F00215
:103EB0008091F0026091E5024091DA020091E40203
:103EC000E090EF02C090DE0220E00E941F2C03E091
:103ED000812F6D2D4F2D202F0E943A1E8091A90118
:103EE00081508093A9018091A50182FD04C0809139
:103EF000A60182FF3CC01092A5018091A9018F5FAD
:103F00008093A901053659F4812F90E0019668E16C
:103F100070E00E948A37182F8093DA0215C00636A7
:103F200049F48D2D90E001966CE370E00E948A3791
:103F3000D82E0AC0073641F48F2D90E001966CE32D
:103F400070E00E948A37F82E812F6D2D4F2D202F83
:103F50000E943A1E8091A90181508093A90180910D
:103F6000A60182FF04C088EC90E00E9490320E947B
:103F70004C36882309F46BCF1F910F91FF90EF907F
:103F8000DF90CF9008951F9381E00E94F21E182FBA
:103F90006CC08091A50181FF26C01092A50180917F
:103FA000A9018F5F8093A901143041F48DE791E05E
:103FB00064E771E00E94CD3615E60DC0153641F478
:103FC00089E691E060E671E00E94CD3616E603C016
:103FD0000E94E93614E0812F0E94811E8091A90180
:103FE00081508093A9018091A50182FD04C0809138
:103FF000A60182FF3AC01092A5018091A9018F5FAE
:104000008093A901153679F48091E90290E0019638
:1040100068E170E00E948A378093E9026091E902CA
:1040200081E090E010C0163681F48091DF0290E0CC
:1040300001966CE370E00E948A378093DF02609102
:10404000DF0282E090E00E94EB37812F0E94811E08
:104050008091A90181508093A9018091A60182FFDE
:1040600004C088EC90E00E9490320E944C36882375
:1040700009F48FCF1F9108951F9385E00E94F21ECF
:10408000182F46C08091A50181FF18C01092A5018C
:104090008091A9018F5F8093A901163021F40E94BD
:1040A000D73619E603C00E94DE3616E0812F0E9443
:1040B000251E8091A90181508093A9018091A501BD
:1040C00082FD04C08091A60182FF22C01092A5014A
:1040D0001936F1F48091B4008F5F8093B400809121
:1040E000B400813110F01092B4008091A9018F5F6B
:1040F0008093A90189E60E94251E8091A901815023
:104100008093A9016091B40083E090E00E94EB37B6
:104110000E944C36882309F4B5CF1F9108958F92E1
:104120009F92AF92BF92CF92EF920F931F93DF9324
:10413000CF9300D0CDB7DEB783E00E94F21E082FE8
:104140008091E40289838091EF028A831091DE02DC
:1041500082E0882E912C8C0E9D1E5E010894A11C7D
:10416000B11C88C08091A50181FF46C01092A501B5
:104170008091A9018F5F8093A901053031F4E0910E
:10418000E802F0E0E05AFE4F07C00B3039F4E0914E
:10419000E802F0E0EE59FE4F008120C00C3031F40F
:1041A000E091E802F0E0EC59FE4FF6CF1093DE020A
:1041B0008A818093EF0289818093E4028091F002EA
:1041C0006091E5024091DA020091E402E090EF0292
:1041D000C090DE0220E00E941F2C05E0802F0E948C
:1041E000A21E8A816981412F202F0E94D61D8091B5
:1041F000A90181508093A9018091A50182FD04C08D
:104200008091A60182FF36C01092A5018091A9017C
:104210008F5F8093A9010B3021F48A818F5F8A839D
:1042200010C00C3021F489818F5F89830AC00D3062
:1042300041F4812F90E0019664E670E00E948A3795
:10424000182FC401B501412F50E00E9413368A8116
:104250006981412F202F0E94D61D8091A901815094
:104260008093A9018091A60182FF04C088EC90E0B0
:104270000E9490320E944C36882309F473CF0F902D
:104280000F90CF91DF911F910F91EF90CF90BF9042
:10429000AF909F908F9008951F9384E00E94F21E2C
:1042A000182F64C08091A50181FF1BC01092A50149
:1042B0008091A9018F5F8093A901183039F481E0C2
:1042C0000E941A1D0E94D73618E606C080E00E94A0
:1042D0001A1D0E94E93618E08091A901815080934F
:1042E000A9018091A50182FD04C08091A60182FFF1
:1042F0003DC01092A5011836C9F58091DD028823D2
:1043000059F08091E8028F5F8093E8028091E80283
:10431000823010F01092E8028091DD0290E0882354
:1043200009F491E09093DD028091A9018F5F809361
:10433000A9010E94BC1E0E94D73680E063E247E0DC
:104340000E94F83081E00E941A1D8091A9018150DD
:104350008093A9016091E80284E090E00E94EB372D
:104360006091DD0285E090E00E94EB370E944C36C0
:10437000882309F497CF1F9108950F931F9387E027
:1043800090E00E94E3378093E20280E00E94F21EF8
:10439000182F02ED5AC08091A50181FF29C010920B
:1043A000A5018091A9018F5F8093A901183C61F458
:1043B00081E00E94DA1C0E94D7368091A9018150C9
:1043C0008093A90119EC14C080E00E94DA1C0E94BD
:1043D000E9361092EE021092EB028091E202893DE2
:1043E000C8F56091E20287E090E00E94EB3732C0AE
:1043F0008091A50182FD04C08091A60182FF25C0A5
:104400001092A501193C09F58091E2028F5F80931B
:10441000E2028091E2028B3D10F00093E202809173
:10442000A9018F5F8093A9010E94BC1E0E94D7360C
:1044300080E063E047E00E94F83081E00E94DA1CEF
:104440008091A90181508093A9010E944C36882354
:1044500009F4A1CF1F910F9108958091E202843D4C
:1044600061F0853D28F4823D59F0833DA1F40BC0F5
:10447000853D61F0863D79F40CC00E94F50E0895EB
:104480000E94630808950E94321308950E949019B3
:1044900008950E94AE1508959091E202943D61F056
:1044A000953D28F4923D59F0933DA9F40BC0953DFC
:1044B00061F0963D81F40CC00E945F1208950E9445
:1044C0008C0908950E941D1408950E946C1B089584
:1044D00090E00E94E01608951F931FE08091E20291
:1044E000863D19F1873D60F4833DC9F0843D18F4A1
:1044F000823D91F511C0843D61F0853D69F512C0A2
:10450000883DB1F0883DB0F0893D09F18A3D21F543
:1045100021C00E94D81220C00E94A8091DC00E947C
:1045200027141AC00E94DE1B17C00E94F61614C082
:104530001093EE020E94393580E00E94973565E0C5
:1045400070E00E9476378E528093E202C7CF0E94BD
:10455000B00702C00E944B071F9108951F93182FA8
:104560008091EE02882381F18091F501813021F064
:104570008091F601813041F58091F501882319F091
:1045800082E08093F5018091F601882319F082E0A2
:104590008093F6018091EE0281508093EE0280912B
:1045A000EE02882389F48FE08093EE028091E2028C
:1045B0008F5F8093E2028091E202873D19F482EDE1
:1045C0008093E2020E946C228091E202843D61F0BD
:1045D000853D28F4823D61F0833DD1F40DC0853DD9
:1045E00079F0863DA9F410C0812F0E944A0D10C0B9
:1045F000812F0E9474090CC0812F0E94561408C09C
:10460000812F0E94A01904C0812F90E00E9499166A
:104610001F91089508958B5C9F4F0E94E337089582
:10462000FF920F931F93CF93DF93482FF62E30E026
:1046300020E007C08E5B9D4FFC0184918F5F280FA7
:104640003F5F822F90E03417A8F3FC01EE5BFD4F33
:104650000491EC01CD5BDD4F10E00AC0FE018491B6
:10466000F1E0FF1609F480950E94F6291F5F21965C
:104670001017A0F3DF91CF911F910F91FF90089534
:10468000DF92EF92FF920F931F93CF93DF93D62E7B
:1046900095E0899FC0011124EC01CB56D0408E01DA
:1046A0002AE9E22E2FEFF22EE80EF91EDD2029F086
:1046B000CE010E94E337809503C0C8010E94E33712
:1046C0000E94F62921960F5F1F4FCE15DF0571F767
:1046D000DD2011F08FEF01C080E00E94F62980E01C
:1046E0000E94422ADF91CF911F910F91FF90EF908E
:1046F000DF9008950F931F93CF93DF93EC01062F64
:1047000010E004C0602F0E9440231F5FFE01E10FF4
:10471000F11D84918823B1F7DF91CF911F910F9103
:1047200008951F93CF93DF93EC01162F04C0612FE0
:104730000E944023219688818823C9F7DF91CF9179
:104740001F9108952F923F924F925F926F927F92A6
:104750008F929F92AF92BF92CF92DF92EF92FF9291
:104760000F931F93CF93DF93282E162F342EF22E04
:10477000402EC62FD0E0C770D070209709F45BC0E0
:10478000562E569456945694EE2467E0C62EC122B7
:104790008C2C992487FC90945E01A20EB11C51E0F0
:1047A000652E712C35C0DE2CD20C8D2D652D0E940E
:1047B0004F2A0E94A9290E94A929082F40E050E011
:1047C00015C081E0481641F4C30102C0880F991F4B
:1047D0002A95E2F7082B08C0C30102C0880F991F71
:1047E0002A95E2F7809508234F5F5F4F9A01280DC5
:1047F000391D2A153B0524F48C2D840F883009F7C8
:104800008D2D652D0E944F2A802F0E94F629E3945A
:10481000E31448F22F2D30E088E090E08C1B9D0BD4
:104820008217930714F0FF2404C0812F87708850EB
:10483000F80E187F185FE12EE694E694E694C12FF7
:10484000D0E0CF0DD11D43E0D595C7954A95E1F74E
:1048500012C0822D6E2D0E944F2A10E009C081E007
:10486000481611F48FEF01C080E00E94F6291F5F07
:104870001315A8F3E3948E2D90E08C179D074CF34D
:104880002F2D2770C9F100E0C22FD0E031E0A32E18
:10489000B12C30C0F02EF20C8F2D6E2D0E944F2ABD
:1048A0000E94A9290E94A929182F20E030E017C0F2
:1048B00081E0481649F4C501022E02C0880F991FF5
:1048C0000A94E2F7182B09C0C501022E02C0880F16
:1048D000991F0A94E2F7809518232F5F3F4F2C17FA
:1048E0003D0734F38F2D6E2D0E944F2A812F0E9499
:1048F000F6290F5F031570F280E00E94422ADF91D3
:10490000CF911F910F91FF90EF90DF90CF90BF90CC
:10491000AF909F908F907F906F905F904F903F905F
:104920002F9008952F923F924F925F926F927F92B5
:104930008F929F92AF92BF92CF92DF92EF92FF92AF
:104940000F931F93DF93CF9300D00F92CDB7DEB7B5
:10495000382E462E522E262E281AA42EBB24C501F0
:10496000880F991F22273327281B390B2D5F3F4FB4
:104970003B832A838824992466247724362F32198E
:104980003983182DD42CDA187501EE0CFF1C882DF4
:10499000830D6D2D41E02E2D052D0E94A223832D28
:1049A00088196D2D41E02E2D0E94A223F42CF818B9
:1049B000110F89818A0D6F2D41E0212F0E94A223C2
:1049C0008D2D82196F2D41E0212F0E94A2238A8113
:1049D0009B8197FF06C00696860D971D9B838A8351
:1049E00011C0EA81FB813A96C4018A199B09880F9C
:1049F000991F880F991FE80FF91FFB83EA8308941A
:104A0000A108B1080894811C911C24E030E0620EDA
:104A1000731EA814B9040CF0B4CF0F900F900F9030
:104A2000CF91DF911F910F91FF90EF90DF90CF908A
:104A3000BF90AF909F908F907F906F905F904F90BE
:104A40003F902F900895DF92EF92FF920F931F9364
:104A5000F82E162FD42EE22E41E001E00E94A22370
:104A60008F2D81508D0D612F41E02E2D0E94A223AC
:104A70008F2D612F4D2D21E00E94A22311501E0D7C
:104A80008F2D612F4D2D21E00E94A2231F910F91A8
:104A9000FF90EF90DF900895EF92FF920F931F9396
:104AA000F82E162F062F069506950695602F0E9464
:104AB0004F2A0E94A9290E94A929E82E8F2D602F34
:104AC0000E944F2A177081E090E002C0880F991F62
:104AD0001A95E2F780958E210E94F62980E00E94C7
:104AE000422A1F910F91FF90EF900895EF92FF924D
:104AF0000F931F93F82E162F062F069506950695F1
:104B0000602F0E944F2A0E94A9290E94A929E82EFD
:104B10008F2D602F0E944F2A177081E090E002C015
:104B2000880F991F1A95E2F78E290E94F62980E0D6
:104B30000E94422A1F910F91FF90EF9008953F929B
:104B40004F925F926F927F928F929F92AF92BF929D
:104B5000CF92DF92EF92FF920F931F93CF93DF9349
:104B6000D82EC62E322E462E481AE42EFF24C70118
:104B7000880F991FCC27DD27C81BD90B23965D2CE6
:104B8000662E762EAA24BB248824992481E0381628
:104B900041F50E2D0C0D8D2D602F0E9476259C2D3C
:104BA0009E19192F8D2D692F0E947625852D602F36
:104BB0000E947625852D612F0E9476250419802F6D
:104BC000662D0E947625802F672D0E947625141968
:104BD000812F662D0E947625812F672D0E947625D4
:104BE00027C00E2D0C0D8D2D602F0E944C258C2D75
:104BF0008E19182F8D2D612F0E944C25852D602F29
:104C00000E944C25852D612F0E944C250419802F70
:104C1000662D0E944C25802F672D0E944C2514196B
:104C2000812F662D0E944C25812F672D0E944C25D7
:104C3000D7FF04C02696C80DD91D0DC02A96C50100
:104C40008E199F09880F991F880F991FC80FD91FA8
:104C50000894E108F1080894A11CB11C84E090E0DC
:104C6000880E991ED3945A9463947A94EA14FB04A0
:104C70000CF08CCFDF91CF911F910F91FF90EF90AF
:104C8000DF90CF90BF90AF909F908F907F906F906C
:104C90005F904F903F900895459A449A1092F10189
:104CA0001092F0011092F3011092F20180E28093D1
:104CB000B800ECEBF0E08081846080831092AA0160
:104CC000808181608083808180648083789408956E
:104CD00080E28093B800089590E0611191E08E7FAA
:104CE000982B9093BA0008959093F1018093F0016E
:104CF00008959093F3018093F2010895ECEBF0E0B6
:104D000080818F70806A80830895ECEBF0E0808171
:104D10008F70806D808308958091BC0087FFFCCFE9
:104D200008958093BB00ECEBF0E080818F70806889
:104D300080830895882329F08091BC008F70806C57
:104D400004C08091BC008F7080688093BC0008957F
:104D50008091BB0008958091B9000895982F8091AB
:104D6000AA018823E1F782E08093AA019E7F9093B5
:104D7000AB01ACEAB1E0FA0102C081918D938E2FB4
:104D8000841B8617D0F31092CC016093CD018091E3
:104D9000BC008F70806A8093BC000895982F80912A
:104DA000AA018823E1F783E08093AA0191609093A0
:104DB000AB011092EE016093EF018091BC008F7007
:104DC000806A8093BC008091AA018823E1F7AEEC51
:104DD000B1E0FA0102C08D9181938E2F841B86175A
:104DE000D0F30895982FFA018091BC008E7F8093B4
:104DF000BC008091BC008F70806A8093BC00809161
:104E0000BC0087FFFCCF9E7F9093BB008091BC00CD
:104E10008F7080688093BC008091BC0087FFFCCFBE
:104E20008091B900883189F091E012C0808180932F
:104E3000BB008091BC008F7080688093BC00809123
:104E4000BC0087FFFCCF31966150662379F790E074
:104E50008091BC008F70806D8093BC008091BC00FD
:104E600084FFFCCF8091BC0081608093BC00892FBF
:104E700008951F93CF93DF93982F162FEA01809107
:104E8000BC008E7F8093BC008091BC008F70806AD4
:104E90008093BC008091BC0087FFFCCF9160909311
:104EA000BB008091BC008F7080688093BC008091B3
:104EB000BC0087FFFCCF8091B900803469F091E09D
:104EC00018C08FEF0E949A268091BC0087FFFCCF0C
:104ED0008091BB0089931150123098F780E00E94B6
:104EE0009A268091BC0087FFFCCF8091BB0088830D
:104EF00090E08091BC008F70806D8093BC008091A9
:104F0000BC0081608093BC00892FDF91CF911F91FD
:104F100008958091AA0108951F920F920FB60F92E3
:104F200011242F933F934F935F936F937F938F93AE
:104F30009F93AF93BF93EF93FF938091B900887FC6
:104F4000883609F4CBC0893688F5803309F495C0DA
:104F50008133B0F4803109F45AC0813138F48823A8
:104F600009F43EC1883009F048C151C0803209F4CB
:104F700084C0883209F453C0883109F03EC14FC063
:104F8000883409F47AC0893438F4883309F478C055
:104F9000803409F032C192C0883509F45DC0803692
:104FA00009F49CC0803509F028C174C0803A09F426
:104FB000BEC0813AB0F4803809F49BC0813838F41F
:104FC000803709F48BC0883709F017C187C0803952
:104FD00009F48FC0883909F4A1C0883809F00DC1DF
:104FE0009DC0883B09F4D1C0893B38F4883A09F464
:104FF000B6C0803B09F001C1B2C0883C09F4E0C0F2
:10500000883F09F4E7C0803C09F0F7C0D9C082E0CE
:1050100094E060E00E94C4328091AB0114C083EE42
:1050200093E060E00E94C4329091CC018091CD0168
:10503000981708F0DAC0E92FF0E0E455FE4F8081C0
:105040009F5F9093CC018093BB008091BC008F70D8
:1050500080688093BC00D1C08EEC93E060E00E9439
:10506000C4328091EE019091BB00E82FF0E0E25352
:10507000FE4F90838F5F8093EE0188EA93E0B2C089
:1050800084E993E060E00E94C4328091BC008F709C
:105090008068AFC080E893E060E00E94C4328091F5
:1050A000BB009091EE01E92FF0E0E253FE4F8083C8
:1050B0009F5F9093EE0190E00E941B338DE693E09A
:1050C00060E00E94C4322091EE0130E08091EF0157
:1050D00090E001972817390734F51EC08AE593E060
:1050E00060E00E94C43285E08093AA011092EE0134
:1050F00062C086E493E060E00E94C4328091EE01D9
:105100009091BB00E82FF0E0E253FE4F90838F5F59
:105110008093EE01803238F48FEF06C081E393E094
:1051200060E00E94C43280E00E949A2666C08EE150
:1051300093E060E00E94C4328091BC008F70806C6C
:105140008093BC00E091F001F091F101309709F4F7
:1051500052C08091EE016EEC71E009954CC08BE07D
:1051600093E060E00E94C43284E08093AA01E09161
:10517000F201F091F301309731F080E26CEA71E0D6
:1051800009958093CD011092CC0187EF92E060E009
:105190000E94C4329091CC01E92FF0E0E455FE4F1B
:1051A00080818093BB009F5F9093CC018091CD0163
:1051B000981708F04ACF8091BC008F70806C49CF5F
:1051C00085ED92E060E00E94C4328091BC008F7057
:1051D000806C0FC086EC92E060E00E94C4320DC08B
:1051E00085EB92E060E00E94C4328091BC008F7039
:1051F000806D8093BC001092AA01FF91EF91BF9146
:10520000AF919F918F917F916F915F914F913F915E
:105210002F910F900FBE0F901F9018952F982D98DB
:105220002C9840985A98279A259A249A389A529AF4
:105230008BB18F708BB985B1807F85B98AB1806F52
:105240008AB984B18F6084B9089540985A988823A8
:1052500019F0813021F402C0409A08955A9A0895B5
:10526000F8940E9425298BB1806F8BB985B18F602E
:1052700085B92F988AB18F708AB984B1807F84B93B
:105280002D9A2C9A000000000AC02C980000000003
:10529000000000002C9A000000000000000089B10E
:1052A00093B187FDF2CF2C982D988AB1806F8AB97F
:1052B00084B18F6084B9789408951F93162FF89461
:1052C0000E9430292F982D982C9A8AB1806F8AB924
:1052D00084B18F6084B98BB18F708BB99BB1812FF2
:1052E000807F892B8BB985B1807F85B985B11F708F
:1052F000812B85B9000000000000000000000000C4
:10530000000000002C9878941F910895F8940E9452
:1053100030292F988AB18F708AB984B1807F84B97F
:105320002D9A2C9A000000000000000000000000F0
:105330000000000029B183B12C982D989AB1906F8C
:105340009AB994B19F6094B978948F70207F822B22
:105350000895F8948091D4028295869586958370FD
:105360000E9430292F9A8AB18F708AB984B1807FC8
:1053700084B92D9A2C9A0000000000000000000063
:1053800000000000000099B183B12C982D9878940A
:105390008F70907F892B089508958093D40280E0C8
:1053A00060E40E945D291092D60281E060E40E94D0
:1053B0005D291092D8028091D402682F6F736064C7
:1053C00082958695869583700E945D2908951F9326
:1053D000182F8093D502186B80E0612F0E945D2901
:1053E00081E0612F0E945D291F9108950F931F9303
:1053F000182F0091D4020295069506950370F89433
:10540000802F0E9430292F9A2D982C9A8AB1806F74
:105410008AB984B18F6084B98BB18F708BB99BB11D
:10542000812F807F892B8BB985B1807F85B985B12C
:105430001F70812B85B900000000000000000000F3
:105440000000000000002C987894E02FF0E0EE0FB0
:10545000FF1FEA52FD4F80818F5F80838091D402CD
:105460008F5F8093D40287FF0AC08091D5028F5F3F
:105470008093D5020E94E72980E00E94CD291F91E8
:105480000F9108951F93182F106C80E0612F0E94D8
:105490005D2981E0612F0E945D291F9108951F936E
:1054A000182F862F0E94E729812F0E94CD291F9156
:1054B00008950F931F9300E080E0602F0E944F2A11
:1054C00010E080E00E94F6291F5F1038D1F70F5FCF
:1054D000083091F71F910F91089580E00E94422AB1
:1054E00080E060E00E944F2A1092D6021092D7020C
:1054F0001092D8021092D90208950E940E2980E0DD
:105500006FE30E945D2981E06FE30E945D290E94A4
:10551000592A0E946D2A0895982F86E0689F802D51
:105520001124692F0E944F2A089508951F920F9207
:105530000FB60F9211242F933F934F935F936F9366
:105540007F938F939F93AF93BF93EF93FF9340917C
:10555000C600E0917E02F0917F02CF01019660E8E3
:1055600070E00E948A379C018091800290918102B4
:105570002817390739F0E250FE4F408330937F02FD
:1055800020937E02FF91EF91BF91AF919F918F91F8
:105590007F916F915F914F913F912F910F900FBE2F
:1055A0000F901F90189580917E0290917F028058F5
:1055B0009F4F2091800230918102821B930B60E803
:1055C00070E00E948A3708954091800250918102D4
:1055D00080917E0290917F028417950719F42FEF36
:1055E0003FEF0FC0FA01E250FE4F2081CA01019641
:1055F00060E870E00E948A37909381028093800275
:1056000030E0C90108951F920F920FB60F92112436
:105610008F939F9388B198E0892788B99F918F9144
:105620000F900FBE0F901F9018951F920F920FB6FC
:105630000F9211248F939F93809184029091850201
:10564000892B49F080918402909185020197909373
:105650008502809384028091EC029091ED02892B67
:1056600049F08091EC029091ED0201979093ED0248
:105670008093EC028091EA02882389F18091820272
:1056800090918302892B59F58091E0029091E1027B
:10569000892BE1F48CE291E09093E1028093E002A7
:1056A00080918100882379F41092800089E08093B2
:1056B000810083E080936F0088EE93E090938900EF
:1056C0008093880003C01092810043988091E0028B
:1056D0009091E10201979093E1028093E0029F9103
:1056E0008F910F900FBE0F901F9018951F920F92E1
:1056F0000FB60F9211248F939F9388B198E089275A
:1057000088B99F918F910F900FBE0F901F901895A1
:105710001E9B16C08091E702882349F11092E70290
:105720001092F10210928302109282028091EA029A
:105730008823E9F01092EA021092810043980895BC
:105740008091E702882399F481E08093E702109228
:1057500083021092820283E08093F9018091E20239
:10576000853D11F083E001C085E08093F801089544
:10577000FC0183709070892B39F4CF0164E670E0EE
:105780000E947637892B49F420E030E0CF0160E9B0
:1057900071E00E947637892B11F421E030E0822FEE
:1057A00008950895482F6AE00E946A37282F30E054
:1057B00084E0220F331F8A95E1F7842F0E946A3715
:1057C000892F822B089588E592E09093830280933D
:1057D00082021092810043981092EB020895FC011E
:1057E0008181805120819AE0299F90011124820FAC
:1057F0000895FF920F931F93F62E1092800001E8F8
:1058000010E029E0F801208323E020936F009C0141
:1058100040E050E060E079E08DE390E00E94BF3727
:1058200030938900209388008F2D90E00E94903261
:10583000F801108243981F910F91FF900895CF9225
:10584000DF92EF92FF920F931F93DF93CF93CDB729
:10585000DEB728970FB6F894DEBF0FBECDBF162F68
:10586000F42ED22EFE01319698E0DF011D929A951A
:10587000E9F719820E94D22B8A83812F0E94D22BB2
:105880008B838F2D0E94D22B8C838D2D0E94D22B47
:105890008D83802F0E94D22B8E838E2D0E94D22B3F
:1058A0008F838C2D0E94D22B8887F89480ED68E03E
:1058B000AE014F5F5F4F0E94F2267894882399F0E3
:1058C00080EA9FE064E60E94F92B84E690E00E9463
:1058D000903280EA9FE064E60E94F92B88EE93E024
:1058E0000E949032EDCF28960FB6F894DEBF0FBE1F
:1058F000CDBFCF91DF911F910F91FF90EF90DF907F
:10590000CF9008956F927F928F929F92AF92BF92A5
:10591000CF92DF92EF92FF920F931F93DF93CF937B
:10592000CDB7DEB72C970FB6F894DEBF0FBECDBF54
:10593000A82E88E090E00E94E3378093FB018091DD
:10594000FB01992787FD909597FF03C0909581955E
:105950009F4F95958795959587958093FC018091AC
:10596000FB01992787FD909597FF03C0909581953E
:105970009F4F837090709C0144E0220F331F4A9523
:10598000E1F7281B390B2093FD018091FB0187FF74
:105990000AC08091FC0181958093FC018091FD01FA
:1059A00081958093FD01DE011196EDE6F1E08CE03A
:1059B00001900D928150E1F7A8C10E94E42A282F9E
:1059C0008052803608F0ABC1243229F490929502BF
:1059D00010929402A4C180919502882309F49FC17A
:1059E000909194022C3251F48F5F80939502992309
:1059F00011F410928902109294020FC09A3068F448
:105A0000E92FF0E0E757FD4F2083E92FEF5FE093A8
:105A10009402F0E0E757FD4F1082809195028230AA
:105A200091F489E892E066E671E00E94DA37009727
:105A300039F47092950210929402109289026FC10B
:105A4000109295026CC1843009F0BCC0609295023E
:105A5000AA2061F010928F0284E465E00E944F2A30
:105A600089E892E060E00E94912359C1F894209166
:105A70008E02205180918D028B9DC0011124280F30
:105A80002093F00220918C02205180918B028B9DFB
:105A9000C0011124280F2093E50220918A02205191
:105AA000809189028B9DC0011124280F2093DA0276
:105AB000109288028091FD0187FF20C08091FD0136
:105AC0009091E502282F332727FD309537FF03C03B
:105AD000309521953F4F892F90E08217930774F4FA
