:100000000C94270A0C94440A0C94440A0C949E2CD9
:100010000C94440A0C94440A0C94440A0C94440A28
:100020000C94440A0C9454420C94440A0C94903D51
:100030000C94440A0C941D3D0C942F3D0C94440ADE
:100040000C94440A0C94440A0C94B03C0C94440A5A
:100050000C94440A0C94C32C0C94440A0C94440A47
:100060000C94440A0C94440AE512170F79105711A6
:100070007365742068742E006368616E676520681C
:10008000742E0073657420626D69006368616E6729
:100090006520626D6900207365742077742E00639B
:1000A00068616E67652077742E0073657420756EC5
:1000B0006974006368616E67652075742E004D6514
:1000C0006E7500436F6E66696700446561746843CE
:1000D00068726F6E00204E6F0059657300536D6F2C
:1000E0006B65723F3A202020202020202020002015
:1000F000202020202020202000424D493A00636D1E
:10010000006B6720004D65743A006674006C6220D5
:1001100000496D703A00536574200020202053611F
:1001200064697374696300204F7074696D697374D6
:1001300069630050657373696D6973746963002046
:10014000202020204E6F726D616C00536574204D2D
:100150006F64653A0046656D616C650020204D61F5
:100160006C65005365742047656E6465723A2020A3
:10017000200053657420444F423A2020000A475023
:10018000532053657475700001000B4F66667365EC
:100190007420203A20001153746174757320203A42
:1001A000204E4F4C4F434B000B475053204461743B
:1001B000653A2000154750532054696D653A202058
:1001C000202020202020555443000100144D656E4E
:1001D000753D457869742C205365743D2D2C202B7A
:1001E000003A002B002D0017051706647261770096
:1001F000796561722100646174652100646F6E65C8
:1002000020696E697400202020202055532031324F
:10021000687200202020202055532032346872005C
:1002200020202020204555203132687200202020D7
:1002300020204555203234687200D4524154544332
:1002400068726F6E00D2496E74727564657243682D
:10025000726F6E00D3536576656E4368726F6E0081
:10026000D55844414C494368726F6E00D654696D4D
:10027000657353714368726F6E00D744656174682B
:100280004368726F6E00D852616E646F6D00D95210
:100290006F7461746500DA44656174684368726FF5
:1002A0006E2043666700DB475053205365747570BA
:1002B00000DC41626F757400FF73657420736563C1
:1002C00073006368616E67652073656300736574AE
:1002D000206D696E73006368616E6765206D696E7D
:1002E0000073657420686F7572006368616E67657E
:1002F00020687200736574206D696E7300636861B5
:100300006E6765206D696E0073657420686F757225
:10031000006368616E67652068722E0052656769C8
:100320006F6E3A20007365742079656172006368AE
:10033000616E67652079722E007365742064617444
:1003400065006368616E6765206461790073657438
:10035000206D6F6E2E006368616E6765206D6F6E35
:100360000020202020200020202020200044617434
:10037000653A004D6F64653A0053657420426163CD
:100380006B6C696768743A20005365742054696D1A
:10039000653A200053657420416C61726D3A2020EB
:1003A0000028001111222333444556683200011100
:1003B000122223344455573C0000111122233344A8
:1003C00045564600111112222333444400C8000050
:1003D00000000000000000051E01111223334455E7
:1003E00066778D280111122233344556667B320020
:1003F00001112223334445566A3C000001111222A8
:10040000333444574600000011112222233335C8EB
:1004100000000000001111111122C800000011118C
:1004200011222223341E00000111112222333346EF
:10043000C8000001111112222333351E00B30A2314
:10044000008F0A2800FD092D00D80932006A0937FB
:1004500000D9083C00FE074100FE0646004706C8DA
:1004600000B5041E003F092D001B093200F60837B5
:1004700000D1083C0090084100F606460022074BD8
:10048000006505C80048041E00FE04C800DA041E0A
:10049000009005C8006C051F1C1F1E1F1E1F1F1E7D
:1004A0001F1E1FA11058BC1C16163F3F16161CBC61
:1004B0005800000000101EB87D363C3C3C3C367DA8
:1004C000B81E00000000109C9E5E76375F5F377696
:1004D0005E9E9C0000000010181C9C56B65F5FB624
:1004E000569C1C18000000001070187DB6BC3C3CE7
:1004F000BCB67D187000000000101C5EFEB6375FB1
:100500005F37B6FE5E1C000000000CF8FCFEFE3FEC
:100510001F1F3FFEFEFCF80C0FFFFF0A11FFFF0933
:1005200012FFFF080B1013070B1014060A11150613
:100530000A1115050A1116050A1116040A111704E5
:1005400009121703091218030912180309121802D5
:1005500009121802091219020912190209121902C4
:100560000912190109121A0109121A0109121A01B4
:1005700009121A0109121A0109121A0109121A01A3
:1005800009121A0109121A0109121A0009121B0094
:1005900009121B0009121B0009121B0009121B0083
:1005A00009121B0009121B0109121A0109121A0172
:1005B00009121A0109121A0109121A0109121A0163
:1005C00009121A0109121A0109121A020912190252
:1005D0000912190209121902091219020912180343
:1005E0000912180309121803091218040912170432
:1005F0000A1117050A1116050A1116060A11150621
:100600000A1115070B1014080B10130912FFFF0A2B
:1006100011FFFF0C0FFFFF1111FFFF0F11FFFF0E66
:1006200011FFFF0C11FFFF0B11FFFF0911FFFF0866
:1006300011FFFF0611FFFF0511FFFF0311FFFF026E
:10064000050811020309110911FFFF0911FFFF0934
:1006500011FFFF0A11FFFF0A11FFFF0A11FFFF0A36
:1006600011FFFF0A11FFFF0A11FFFF0A11FFFF0A26
:1006700011FFFF0A11FFFF0A11FFFF0A11FFFF0A16
:1006800011FFFF0A11FFFF0A11FFFF0A11FFFF0A06
:1006900011FFFF0A11FFFF0A11FFFF0A11FFFF0AF6
:1006A00011FFFF0A11FFFF0A11FFFF0A11FFFF0AE6
:1006B00011FFFF0A11FFFF0A11FFFF0A11FFFF0AD6
:1006C00011FFFF0A11FFFF0A11FFFF0A11FFFF0AC6
:1006D00011FFFF0A11FFFF0A11FFFF0A11FFFF0AB6
:1006E00011FFFF0A11FFFF0A11FFFF0A11FFFF0AA6
:1006F00011FFFF0912FFFF0912FFFF0912FFFF0997
:1007000012FFFF0812FFFF0713FFFF0416FFFF028F
:1007100018FFFF0218FFFF0C10FFFF0A12FFFF096E
:1007200013FFFF0814FFFF0715FFFF0616FFFF0664
:1007300016FFFF0517FFFF0517FFFF0417FFFF0454
:1007400018FFFF03060D1803050E1803040F180207
:10075000040F1802031018020310180102111801E7
:100760000211181118FFFF1118FFFF1118FFFF11D8
:1007700018FFFF1118FFFF1118FFFF1117FFFF11DE
:1007800017FFFF1117FFFF1116FFFF1016FFFF10D5
:1007900015FFFF1015FFFF0F14FFFF0F14FFFF0FD2
:1007A00013FFFF0E13FFFF0E12FFFF0E11FFFF0DD1
:1007B00011FFFF0D10FFFF0C0FFFFF0C0FFFFF0BD2
:1007C0000EFFFF0B0DFFFF0A0D1B1B0A0C1B1B0965
:1007D0000B1A1B090B1A1B080A191B0709191A0700
:1007E00008181A0608141A061AFFFF051AFFFF0553
:1007F0001AFFFF0419FFFF0319FFFF0319FFFF0290
:1008000019FFFF0219FFFF0119FFFF0019FFFF0089
:1008100018FFFF0018FFFF0C11FFFF0A14FFFF096C
:1008200015FFFF0816FFFF0716FFFF0617FFFF055E
:1008300017FFFF04080B1804060D1803050E180314
:10084000040F1802041018020310180203101802F3
:100850000210181018FFFF1018FFFF1018FFFF10EC
:1008600017FFFF1017FFFF1016FFFF1016FFFF0FF7
:1008700015FFFF0F14FFFF0E14FFFF0D15FFFF0CF8
:1008800016FFFF0B17FFFF0918FFFF0918FFFF09ED
:1008900019FFFF0B19FFFF0C19FFFF0E1AFFFF0FC7
:1008A0001AFFFF101AFFFF111AFFFF121AFFFF12A3
:1008B0001AFFFF131AFFFF131AFFFF141AFFFF148A
:1008C0001AFFFF141AFFFF141AFFFF141AFFFF1577
:1008D0001AFFFF151AFFFF1519FFFF1519FFFF1566
:1008E00019FFFF0206151801071418010814180053
:1008F00009141700091416000A1316010B1215012A
:100900000C11140113FFFF0212FFFF0311FFFF047C
:100910000FFFFF060CFFFF1317FFFF1217FFFF1259
:1009200017FFFF1117FFFF1117FFFF1017FFFF1031
:1009300017FFFF0F17FFFF0F17FFFF0E17FFFF0E29
:1009400017FFFF0D17FFFF0D17FFFF0C17FFFF0C21
:1009500017FFFF0B0D0F170B0D0F170A0C0F170AC0
:100960000C0F17090B0F17090B0F17080A0F1708A1
:100970000A0F1707090F1707090F1706080F1706A1
:10098000080F1705070F1705070F1704060F1704A1
:10099000060F1703050F1703050F1702040F1702A1
:1009A000040F1701030F1701030F1700020F1700A1
:1009B000020F1700020F17001BFFFF001BFFFF00B5
:1009C0001BFFFF001BFFFF001BFFFF001BFFFF00C3
:1009D0001BFFFF001BFFFF001BFFFF001BFFFF00B3
:1009E0001BFFFF0F17FFFF0F17FFFF0F17FFFF0F73
:1009F00017FFFF0F17FFFF0F17FFFF0F17FFFF0F67
:100A000017FFFF0F17FFFF0F17FFFF0F17FFFF0F56
:100A100017FFFF0F17FFFF081BFFFF081AFFFF0854
:100A20001AFFFF081AFFFF071AFFFF0719FFFF074A
:100A300019FFFF0719FFFF0719FFFF0618FFFF0641
:100A400018FFFF0618FFFF0607FFFF0607FFFF0658
:100A500007FFFF0507FFFF0506FFFF0506FFFF0570
:100A600006FFFF0506FFFF040CFFFF040FFFFF0456
:100A700011FFFF0412FFFF0414FFFF0414FFFF0324
:100A800015FFFF0316FFFF0316FFFF0317FFFF030A
:100A900017FFFF0218FFFF0218FFFF0A18FFFF0CE5
:100AA00019FFFF0E19FFFF1019FFFF1119FFFF12A9
:100AB00019FFFF1319FFFF1319FFFF1419FFFF148C
:100AC00019FFFF1519FFFF1519FFFF1519FFFF1675
:100AD00019FFFF1619FFFF1619FFFF1618FFFF0376
:100AE0000516180206151801081517010915170033
:100AF000091417000A1416000B1315000D12150126
:100B000014FFFF0113FFFF0212FFFF0311FFFF0499
:100B10000FFFFF060CFFFF181AFFFF151AFFFF1348
:100B20001AFFFF1117FFFF1016FFFF0E14FFFF0D36
:100B300013FFFF0C12FFFF0B11FFFF0A10FFFF094D
:100B400010FFFF080FFFFF080EFFFF070EFFFF0655
:100B50000DFFFF060DFFFF050DFFFF050CFFFF0456
:100B60000CFFFF040CFFFF040BFFFF030BFFFF0351
:100B70000BFFFF030BFFFF020A0D110214FFFF0220
:100B800015FFFF0216FFFF010B0E17010A101801D7
:100B90000A10180109111901091119010911190186
:100BA00009121A0109121A0109121A0109121A016D
:100BB00009121A0109121B0109121B0109121B015A
:100BC00009121B0109121B0109121B0109121B0149
:100BD00009121A0109121A0209121A0209121A023A
:100BE00009121A02091219030A1219030A12190327
:100BF0000A1218040A1218040A1218050A12170514
:100C00000B1217060B1116070C11150814FFFF0A1B
:100C100013FFFF0C10FFFF031BFFFF031BFFFF026F
:100C20001AFFFF021AFFFF021AFFFF021AFFFF025C
:100C300019FFFF0219FFFF0219FFFF0219FFFF0151
:100C400018FFFF0118FFFF0118FFFF01041418012E
:100C500003141801021317000213170001131700E1
:100C600001131700011216000112161216FFFF12CF
:100C700016FFFF1116FFFF1115FFFF1115FFFF11E2
:100C800015FFFF1115FFFF1014FFFF1014FFFF10D9
:100C900014FFFF1014FFFF0F14FFFF0F13FFFF0FD0
:100CA00013FFFF0F13FFFF0E13FFFF0E12FFFF0EC8
:100CB00012FFFF0E12FFFF0D12FFFF0D12FFFF0DBF
:100CC00011FFFF0D11FFFF0C11FFFF0C11FFFF0CB7
:100CD00010FFFF0C10FFFF0C10FFFF0B10FFFF0BAE
:100CE00010FFFF0B0FFFFF0B0FFFFF0A0FFFFF0AA5
:100CF0000FFFFF0A0EFFFF0A0EFFFF090EFFFF099D
:100D00000EFFFF090EFFFF090DFFFF080DFFFF0893
:100D10000DFFFF080DFFFF0B11FFFF0814FFFF077A
:100D200015FFFF060B1016050A1117040912180407
:100D300009121803081318030813190208131902DB
:100D400008131902081319020813190108131901CD
:100D500009131901091319010A1319010A131901B9
:100D60000B1319020B1318020C1218020D121702A2
:100D70000E1216030F11150314FFFF0312FFFF04D9
:100D800012FFFF0513FFFF0514FFFF0615FFFF0706
:100D900016FFFF0816FFFF0917FFFF0917FFFF07E0
:100DA00018FFFF060A0C1805090D1904090E19038E
:100DB000080E1903080F1A0208101A0208111A0166
:100DC00007111A0107121A0107121A0107121A0154
:100DD00007131A0107131A0107131A0107131A013F
:100DE00007131A0107131A01071319010713190131
:100DF000081319020813180208121803081217031F
:100E0000091117040A1116050B10150614FFFF0827
:100E100012FFFF0A0FFFFF0B10FFFF0812FFFF0773
:100E200013FFFF060B0F14050A1015050A1116040F
:100E300009111604091117030911170309111802E2
:100E400009121802091219020912190109121901CD
:100E50000912190109121A0109121A0109121A01BB
:100E600009121A0109121A0109121A0109121A01AA
:100E700009121A0109121A0109121A0109121A019A
:100E800009121A0109121A010A121A020A121A0286
:100E90000A121A020A121A030A121A030B121A046D
:100EA0000C111A041AFFFF051AFFFF0619FFFF07AE
:100EB0000F11190A0C11191019FFFF1018FFFF105C
:100EC00018FFFF1018FFFF0F17FFFF0F17FFFF0F8F
:100ED00016FFFF0E16FFFF0E15FFFF0E15FFFF0D8D
:100EE00014FFFF0D13FFFF0C13FFFF0B12FFFF0B8F
:100EF00011FFFF0A10FFFF090FFFFF080EFFFF079A
:100F00000DFFFF050BFFFF040AFFFF0108FFFF01B4
:100F100005FFFF0102FFFF0000012226011C2B013B
:100F20001A2D01182E011730011631011532011446
:100F30003301133401123501123501113601113616
:100F40000111370110370110370110380110380135
:100F50001038011038030608103841430304091003
:100F6000383F4404030A10181E373E4505030A1192
:100F70001820292E373E4605030C1117212830373B
:100F80003D4605020E1117222830373B4605020F59
:100F90001218212931363947050110131A1F29303B
:100FA00036384704011013292F353847040210132F
:100FB000292D3538470403111324273537460605F4
:100FC000060C1113222735373C4245040F1113211B
:100FD0002635373A02142027350214202835021509
:100FE0002028350216252734011B31011C2E011D36
:100FF0002D011D2C031819242B303205181A252613
:101000002B2B30323535041416181A30313437078B
:101010001116191A1D1F2124262D3031343A030EC2
:10102000161931343C0504060B161931343F444877
:10103000030217193033490301171A2F33490301EB
:10104000151B2F364A0301131C2E38490301101DAE
:101050002D3A4903010D1E2B3D4903020B21294066
:101060004802020A404802020A4148020309414775
:1010700002040842460000000000000000000117C2
:101080001B01121F011022010F24010E25010D2743
:10109000020C101D27020B0E2028020A0C22270327
:1010A0000A0B141C222603090A101D212303080918
:1010B0000F1C2123020F1C212202101C20220211CE
:1010C0001C202202121B1F2102121B1F2102111BB6
:1010D0001F2002101B1E20020F1A1E20020E1A1DB6
:1010E0001F020E1A1D1F020D1A1D1E020D191C1EB5
:1010F000020C191C1E010C1D010B1D010B1E010B06
:101100001D010B1D010A1C010A1B010A1A010A1A02
:10111000010A1A010A1A010A19010919010919011A
:10112000091901091A01091A01091A01081A010805
:101130001B01071B01061B01041B01021B01011CF3
:1011400001021D01031E01042001051F01081D01EC
:101150000D1A0111150000000000011219010E1EE8
:10116000010C21010A2303090C1214192503080A92
:1011700014141C260207091E28020608202902064C
:1011800007222A020507232B020506242C02050646
:10119000262D020506272E020506272E0304050923
:1011A0000A282F030406080E292F03040608112914
:1011B00030040406081317192A30060406080B0F1A
:1011C00013171A1E202A31060406080B11141719CA
:1011D0001E252B31050406081416191E272B310570
:1011E0000405081316191E282B31070406080B0DD9
:1011F0001216191E2125292B32070405080A0E1183
:1012000016191E2126292C32060405070A0F12166C
:10121000191D292C32060405070A0F1216191D285C
:101220002C32060406090A101316191D272C320544
:101230000406111416181D202B320504061313166C
:10124000181D202A320304061D202C320204062C0D
:10125000320204062C320204062C320204062C321E
:101260000204062C320204062C320205062C32023D
:1012700004052C320204052C320204052B32020430
:10128000052B320204052C320204072C320205071A
:101290002C320205072C320205062C320204062CE1
:1012A000320203082C320203092C320201092C34C9
:1012B0000403080D1014152C34020F152C330312DF
:1012C0001A2C32343602141D2C350215202C34030E
:1012D00015181D242C330220272C3201233201271C
:1012E00031012B2D000000000001212101202101EE
:1012F0001E22011D22011C22011B23011A23011A97
:1013000023011924011824011824011824020309B7
:10131000172402010E1724020110172402011116CE
:1013200024030113161C2024030114161B2024027D
:10133000011B202402021A202404020F111A202566
:101340002A2D03020E141A203003030E161A1F3121
:1013500003030E171A1F3303040F181A1E34030554
:1013600011181A1D35020712183602091E273702F6
:101370000A1D2836020B1D2836020B1D2835030BCB
:101380001318202634030A12181B1D3403091118E0
:101390001A1E33030710171A1F33040710161A1FDB
:1013A00023263204060F161A1F23283104050F14B2
:1013B0001A20242A2F03050F131A202402041B20AD
:1013C0002502041B2025030415181B2026030314E3
:1013D000181C2026020313182702031218270203E1
:1013E00011192702030F192702030C1927011A27C5
:1013F000011A27011B27011C26011D26011E25019C
:101400002024000000000020746F200050726573DB
:10141000732000534554002B0073617665006368A8
:10142000616E6765007361766500534554006578A9
:101430006974004D454E5500736574005345540062
:10144000616476616E6365004D454E550000112460
:101450001FBECFEFD8E0DEBFCDBF11E0A0E0B1E00E
:10146000E8E7F5E902C005900D92A63DB107D9F76E
:1014700013E0A6EDB1E001C01D92A135B107E1F77F
:101480000E9480430C94BA4A0C940000AF92BF9221
:10149000CF92DF92EF92FF920F931F93CF93DF9340
:1014A00080E060E040E820E401E00E94973884E2B8
:1014B00090E060E045EE52E129E300E4EE24E3949D
:1014C0000E94EC0E80913E0390E005966CE370E084
:1014D0000E94304A982F80913E039817E1F700E070
:1014E00010E00E94733CDD24CC24AA24BB24CC2031
:1014F00009F045C0E801CA59DD4F0F5F1F4FCE010B
:101500000E94894AF82E8FEFF816C1F4DD2019F0F9
:10151000CC24C39434C087E090E00E94894A809331
:1015200030030E945E37DF91CF911F910F91FF90A2
:10153000EF90DF90CF90BF90AF900895DD2019F429
:101540005801AF0CB11C2F2D30E0C901880F991F35
:10155000820F931F909581959F4F815C6D2D0E9406
:10156000693CEF2C07C0CE010E94894A60E00E94CE
:101570004438EA942196EE20B1F70F0D111DD39453
:1015800088E0D81609F0B3CF84EF91E00E941645A9
:101590008501A7CFEF92FF920F931F9390911F02A7
:1015A0008091D801981739F081E08093D70180911C
:1015B0001F028093D80180911F02833009F458C123
:1015C000843038F4813009F443C0823008F064C0BC
:1015D0000DC0853009F40FC1853008F46CC0863029
:1015E00009F42DC1873009F032C25DC180911B0220
:1015F000882321F480911C028823D1F080911C0261
:10160000882371F08091340390E0A0E0B0E08093F3
:10161000D3029093D402A093D502B093D60205C012
:1016200080911B02882309F412C280912A032FC1E2
:101630008091290390E0A0E0B0E08093D3029093E2
:10164000D402A093D502B093D602809133031FC178
:1016500080913603882381F480913D0390E0A0E0DF
:10166000B0E08093D3029093D402A093D502B093BC
:10167000D602809132030BC18091320390E0A0E04A
:10168000B0E08093D3029093D402A093D502B0939C
:10169000D60280913D03FBC084E190E0A0E0B0E081
:1016A0008093D3029093D402A093D502B093D60234
:1016B00080912C03ECC080911B02882321F480913F
:1016C0001C028823F9F060911E0370911F03809122
:1016D00020039091210320E137E240E050E00E9496
:1016E000654A2093D3023093D4024093D50250939D
:1016F000D60260911E0370911F0380912003909188
:1017000021034CC02091110230911202409113022A
:101710005091140280912203833029F080E090E000
:10172000A0E0B0E008C080913E036FE00E94104A44
:1017300090E0A0E0B0E0281B390B4A0B5B0BCA011C
:10174000B90120E137E240E050E00E94654A209371
:10175000D3023093D4024093D5025093D602209105
:1017600011023091120240911302509114028091A3
:101770002203833029F080E090E0A0E0B0E008C0D0
:1017800080913E036FE00E94104A90E0A0E0B0E03C
:10179000281B390B4A0B5B0BCA01B90120E137E268
:1017A00040E050E00E94654A6093D7027093D802EF
:1017B0008093D9029093DA028091110290911202E3
:1017C000A0911302B0911402181619061A061B06EE
:1017D0000CF43DC11092D7021092D8021092D90297
:1017E0001092DA021092D3021092D4021092D50213
:1017F0001092D6022CC180913603882381F4809107
:101800001D0390E0A0E0B0E08093D3029093D40257
:10181000A093D502B093D60280911A0338C080916C
:101820001A0390E0A0E0B0E08093D3029093D4023A
:10183000A093D502B093D60280911D0328C0809159
:101840001C0364E60E94104A90E04396AA2797FD85
:10185000A095BA2F8093D3029093D402A093D5027F
:10186000B093D60280911C030E94104A892F0FC0AA
:101870008091370390E0A0E0B0E08093D302909392
:10188000D402A093D502B093D60280912D0390E0AC
:10189000A0E0B0E08093D7029093D802A093D90241
:1018A000B093DA02D4C0E0901102F09012020091DD
:1018B000130210911402E092C702F092C802009342
:1018C000C9021093CA0290912903809137038917A6
:1018D000E0F09091290380913703981731F49091AB
:1018E000330380912D03891780F090912903809113
:1018F00037039817A1F59091330380912D03981722
:1019000071F580913E03882351F190913703209126
:101910002D0340912903E09133038091220383300A
:1019200019F061E070E002C064E070E030E0205641
:101930003A4F8CE3989FC0011124280F391F50E0C3
:1019400084EC9FEFDC014A9FC0014B9F900D5A9F92
:10195000900D1124280F391F2E1B310927C090919B
:101960003703F0912D0340912903E09133038091D7
:101970002203833019F061E070E002C064E070E09F
:101980008CE3989FC001112450E024EC3FEFD90173
:101990004A9F90014B9F300D5A9F300D1124820FAA
:1019A000931F8F0F911D8E1B91099C01629FC00197
:1019B000639F900D729F900D1124AA2797FDA0950B
:1019C000BA2FE81AF90A0A0B1B0BE092C702F09231
:1019D000C8020093C9021093CA02E090C702F090B7
:1019E000C8020091C9021091CA02C801B70120E1E2
:1019F00037E240E050E00E94654A2093D3023093E2
:101A0000D4024093D5025093D602C801B70120E119
:101A100037E240E050E00E94654A6093D70270933D
:101A2000D8028093D9029093DA0217FF10C0109267
:101A3000D3021092D4021092D5021092D6021092C4
:101A4000D7021092D8021092D9021092DA021F9196
:101A50000F91FF90EF9008959F92AF92BF92CF9217
:101A6000DF92EF92FF920F931F93E090D302F090DA
:101A7000D4020091D5021091D6029E2C4F2DA09039
:101A8000D702B090D802C090D902D090DA023A2D95
:101A90002B2D80911F02843009F4FBC080911F021E
:101AA000873009F4F6C080912B038823C9F4809114
:101AB0001F02882321F080911F02833089F4C8011E
:101AC000B701695E7F4F8F4F9F4F2CE030E040E0C1
:101AD00050E00E94434A6F5F7F4F8F4F9F4F02C07D
:101AE000C801B7012AE030E040E050E00E94434ADC
:101AF0002093CB0280912B038823E9F480911F026D
:101B0000882321F080911F028330A9F487E190E0BF
:101B1000A0E0B0E0E80EF91E0A1F1B1FC801B701C4
:101B20002CE030E040E050E00E94434A6F5F7F4F7E
:101B30008F4F9F4F02C0C801B7012AE030E040E05C
:101B400050E00E94434A6093CC02C601B5012AE0EE
:101B500030E040E050E00E94434A2093CE02C601AC
:101B6000B5012AE030E040E050E00E94434A609333
:101B7000CF0280911F02882371F580912B03882367
:101B8000A9F480913E0380FD02C08AE807C08091DD
:101B90003E038E3110F080E901C081E98093CD02CF
:101BA0008CE08093D0028091290325C08AE0809345
:101BB000D0028093CD0280913E036AE00E94104AD9
:101BC00080688093D10280913E030E94104A906801
:101BD0009093D2028FC080911F028330E1F48AE09B
:101BE0008093CD029CE09093D00280912B038823B8
:101BF00069F4809137038C3010F48DE001C08EE0E1
:101C00008093D1028FE08093D20274C09093D2026D
:101C10009093D1026FC080911F02813021F080919A
:101C20001F028530A9F46093D1028091CE02809387
:101C3000D0028BE08093CF028091CC028093CE02C1
:101C40008091CB028093CD028CE08093D2021CC0A5
:101C500080911F02823029F080911F02863009F0A6
:101C600049C06093D1028091CE028093D0028091CE
:101C7000CC028093CF028091CB028093CE028CE085
:101C80008093D2028093CD028093CC028093CB02CA
:101C900031C0E114F1040105110519F0EEECF2E098
:101CA00006C0A114B104C104D104C1F723C0892D19
:101CB000942F6AE070E00E941C4A8083832F922F49
:101CC0006AE070E00E941C4A8483892D942F6AE0A8
:101CD00070E00E941C4A962E472F832F922F6AE0B5
:101CE00070E00E941C4A362F272F319792E0EA3C81
:101CF000F907E9F61F910F91FF90EF90DF90CF90D9
:101D0000BF90AF909F9008956F927F928F929F9215
:101D1000AF92BF92CF92DF92EF92FF920F931F93F9
:101D2000CF93DF936C01B42E39014801AE2C840FA0
:101D3000911D8F5F9F4F0CF440C0E62EE694E69411
:101D4000E69400E010E036C0F301E00FF11FF080F0
:101D5000C8016B2D70E00E941C4AEC010097D9F479
:101D600009C00F5F1F4FF080C8016B2D70E00E940B
:101D70001C4AEC013196CE018C0D9D1D97FDF1CFD3
:101D8000C8016B2D70E00E941C4A6E0D9E012C0D47
:101D9000822F0E94693CCC0DDD1DC038D10544F472
:101DA000AA2019F08F2D809501C08F2D0E94103C24
:101DB0000F5F1F4F0815190538F2DF91CF911F9162
:101DC0000F91FF90EF90DF90CF90BF90AF909F90DA
:101DD0008F907F906F9008952F923F924F925F92D5
:101DE0006F927F928F929F92AF92BF92CF92DF922B
:101DF000EF92FF920F931F93DF93CF93CDB7DEB790
:101E0000C156D2400FB6F894DEBF0FBECDBF6C01F5
:101E1000362E4A01B22E202ECF59DD4FE882C15610
:101E2000D2402CE42B1508F476C00B2D10E0C8012D
:101E30008C0D9D1D97FD6FC030E8C316D1040CF0CA
:101E40006AC08FE3861708F466C0FE01319680E60B
:101E500092E0DF019C011D9221503040E1F720E02B
:101E600030E040E061E0462E512C3F013FC0F401DC
:101E7000E20FF31F6491842F86958695869590E0F6
:101E8000809F7001819FF00C909FF00C1124842F93
:101E90008770A42C01C0AA0C8A95EAF72F5F3F4FE8
:101EA000D401A20FB31F21503040762F15C0FD0181
:101EB00084911196FD0154911197982F09C0F70153
:101EC000E90FF11DE60DF71D80818A2980839F5F50
:101ED0005917A8F771501296772349F7862F90E08B
:101EE000880F991F0196280F391F4F5F421508F47C
:101EF000BECF83E0000F111F8A95E1F7C601632D65
:101F00004B2D9E012F5F3F4FCF59DD4FE880C156CB
:101F1000D2400E94840ECF59DD4F0FB6F894DEBF39
:101F20000FBECDBFCF91DF911F910F91FF90EF902A
:101F3000DF90CF90BF90AF909F908F907F906F90E9
:101F40005F904F903F902F9008950F938091D9010B
:101F5000882309F455C000E08091DC01823008F448
:101F600001E08091DA016091DB0142E022E00E9411
:101F700097388091DC018F5F8093DC01843010F012
:101F80001092DC019091DA019923C9F48091DB0170
:101F9000882359F48091DC018E5F8093DC018430CA
:101FA00010F01092DC0182E003C08E3320F48E5FCB
:101FB0008093DB0125C08E3321F482E015C09E376B
:101FC00030F48091DB018E3311F49E5F17C09E3791
:101FD00071F48091DB018E3311F48CE3E9CF882317
:101FE00011F08250E5CF8CE78093DA0109C0992384
:101FF00039F08091DB01882319F492509093DA0133
:102000000F910895EF920F931F93CF93DF93EB01FE
:10201000142F823009F1833059F1813069F0CB01FE
:10202000855B9F4F8B3C910508F0A5C0CB0160E01C
:1020300047E15FE02CE40BC0CB018996893A91051A
:1020400008F099C0CB0160E049E750E12AE200E4E2
:10205000E12E0E94EC0E8FC0CB01C796873B910505
:1020600008F089C0CB0160E047E551E128E3EFCFFC
:10207000CB01C7968C35910548F4CB0160E047E56C
:1020800051E128E300E4E12E0E94EC0ECE018F59CD
:102090009F4F8553914050F4CE01C89660E049E7C8
:1020A00050E12AE200E4E12E0E94EC0ECE014E96B1
:1020B000069738F49E01225E822F65E00E94693CFB
:1020C00050C0CE014896069738F49E01285E822FB4
:1020D00065E00E94693C38C0CE014296069738F40C
:1020E0009E012E5E822F65E00E94693C1EC0CE01DB
:1020F0000C96C09720F49E01245F822F03C0A49702
:10210000D4F180E365E00E94693C80911C0364E6A1
:102110000E94104A90E043966AE070E00E94304AC4
:10212000862F805D612F0E94443880911C0364E6F5
:102130000E94104A90E043966AE070E00E94304AA4
:10214000805D612F0E94443880911C0364E60E94E8
:10215000104A892F6AE00E94104A805D612F0E9418
:10216000443880911C036AE00E94104A892F805DE8
:10217000612F0E944438DF91CF911F910F91EF9012
:1021800008950F931F93CF93DF93182F80E060E0A3
:1021900040E820E4012F0E9497380E94CA0A0E945A
:1021A0002C0D80911F028823A1F48AE08093CD0238
:1021B00080912B03813069F480913E036AE00E9494
:1021C000104A8093D10280913E030E94104A90935E
:1021D000D20280911F02843021F080911F0287304B
:1021E00061F48091D3029091D402A091D502B09174
:1021F000D6020097A105B10521F0CBECD2E005E0B5
:102200000DC08091D7029091D802A091D902B091CF
:10221000DA020097A105B10581F70AC0802F6CE0B2
:102220004991212F0E948A49015F0D37B9F758C0A3
:102230000E94A33580911B03882391F481E0809351
:102240001B03C4E9DFEF83E0BE01412F0E940210AF
:1022500080E190E00E9416452196C235D10599F79C
:1022600082E064E270E0412F0E94021080E365E0AA
:102270000E94693C80911C0364E60E94104A90E031
:1022800043966AE070E00E94304A862F805D60E0ED
:102290000E94443880911C0364E60E94104A90E03A
:1022A00043966AE070E00E94304A805D60E00E94E0
:1022B000443880911C0364E60E94104A892F6AE02A
:1022C0000E94104A805D60E00E94443880911C03A7
:1022D0006AE00E94104A892F805D60E00E944438C5
:1022E000DF91CF911F910F9108958F929F92AF929E
:1022F000CF92EF92FF920F931F93DF93CF930F92A2
:10230000CDB7DEB7F82E1982109270008091D701F8
:10231000882321F081E089831092D70181E08093A6
:10232000700080911C02882311F40E942C0D809172
:102330001F02843021F080911F02873071F4809158
:10234000110290911202A0911302B091140218167A
:1023500019061A061B060CF05FC08091C502909109
:10236000C6028050914049F48FEF90E09093C602EE
:102370008093C5028F2D0E943937BBEC8B2EB2E0C3
:102380009B2E15E089818823A1F48091C50260E02D
:1023900048E320E4012FACE0EA2EFAE0CF2EE0E1A2
:1023A000AE2E0E947F48882321F4F401808187FFAC
:1023B00008C0F40140814F77812F6CE02F2D0E94DF
:1023C0008A490894811C911C115F1D37D9F68091B0
:1023D0001F02843060F081E08093D9019091D60192
:1023E0008091DD01981791F10E94A50F2FC00091F7
:1023F000DA011091DB0173E0E72EE092DC010E942C
:10240000A50F8091DA018017C1F78091DB01811758
:10241000A1F71092D9011AC080911C02882311F0F3
:1024200010921C028981882341F48091C502909109
:10243000C6028F3F910509F04CF480E091E0909343
:10244000C6028093C5028F2D0E94C1108091D601D3
:102450008093DD0180913E038093DE0119820F900D
:10246000CF91DF911F910F91FF90EF90CF90AF90A0
:102470009F908F9008950E94CA0A80911F0288231E
:1024800029F080911F02843009F0E1C080911B0285
:10249000882341F181E08093D7012091110230918E
:1024A0001202409113025091140280912203833052
:1024B00029F081E090E0A0E0B0E004C084E090E08A
:1024C000A0E0B0E0281B390B4A0B5B0B20931102F4
:1024D00030931202409313025093140210921B0285
:1024E0000E94CA0A80911C02882309F4B0C020917E
:1024F0001102309112024091130250911402809106
:102500002203833029F081E090E0A0E0B0E004C035
:1025100084E090E0A0E0B0E0281B390B4A0B5B0B95
:10252000209311023093120240931302509314022D
:1025300081E00E94C1108CEC9FEF78C06F5F7F4FED
:1025400081E041E00E94021080E190E00E94164587
:102550002091C5023091C602C9016FE070E00E946F
:10256000304A069731F5273031051CF10E942C0DB9
:102570008091C5029091C6026FE070E00E94304ADF
:102580009B01FB01E553FD4F40E050E008C0808116
:10259000806481934F5F5F4F4430510529F0CA0139
:1025A000820F931F08979CF381E08093D7010E94CC
:1025B00075118091C5029091C6028B9791F584EFB9
:1025C00091E00E94164510921C020E94CA0A81E006
:1025D00080931C020E942C0D8091C5029091C6022E
:1025E0006FE070E00E94304A9B01FB01E553FD4F14
:1025F00040E050E008C08081806481934F5F5F4F6E
:102600004430510529F0CA01820F931F08979CF3AB
:1026100081E08093D7010E94751184EF91E00E94C0
:1026200016458091C5029091C60201969093C6020C
:102630008093C5026091C5027091C6026A38710527
:102640000CF47CCF10921C0280E00E94C11008950F
:102650000F9300E080910001909101018C5A9F4FEF
:1026600009F401E080E060E040E820E40E9497384F
:102670001BC080E041E00E94021080E190E00E94D7
:10268000164580910001909101014A9721F480ED57
:1026900097E00E94164580910001909101010196FA
:1026A00090930101809300016091000170910101FC
:1026B0006A387105F4F284E080931F0210921C02C4
:1026C00080911C0280931B020E94213680E00E94B0
:1026D00039370F9108951F93DF93CF93CDB7DEB7AE
:1026E00028970FB6F894DEBF0FBECDBF60912C03C4
:1026F000DE011196E2E0F1E088E001900D92815058
:10270000E1F720912C038091DC02E091DD029091B1
:10271000DB0230E02C593F4F281B3109F0E0EE0F6F
:10272000FF1FE90FF11DDE011196EA0FFB1F8081EB
:1027300090E0821793071CF0162F1C590FC01091C0
:10274000DC028091DD022091DB0290E0880F991F6E
:10275000820F911DA80FB91F8C91180F60913D0336
:102760008BE090E00E94974A609132038CE090E009
:102770000E94974A8DE090E0612F0E94974A6091F5
:10278000290386E190E00E94974A6091330387E134
:1027900090E00E94974A60913E0388E190E00E9499
:1027A000974A0E94213628960FB6F894DEBF0FBED6
:1027B000CDBFCF91DF911F9108951F93182F88E00F
:1027C00065E00E94693C8DED90E060E00E946F380A
:1027D0008091E302882319F089ED90E002C085ED35
:1027E00090E0612F0E946F381F9108951F93182F5A
:1027F00088E063E00E94693C8BE491E060E00E9425
:102800006F388091DD02882319F48FE391E010C0C6
:102810008091DD02813019F483E391E009C0809159
:10282000DD02823019F487E291E002C08BE191E091
:10283000612F0E946F381F9108951F93182F88E011
:1028400062E00E94693C83E691E060E00E946F389C
:102850008091DB02882319F48CE591E002C085E5C4
:1028600091E0612F0E946F381F9108950F931F937D
:10287000082F88E061E00E94693C82E791E060E017
:102880000E946F3880913603882391F48091E10291
:1028900060E0003109F461E00E941D3E8FE260E0DB
:1028A0000E9444388091DE0260E0013199F411C049
:1028B0008091DE0260E0013109F461E00E941D3E7A
:1028C0008FE260E00E9444388091E10260E00031D4
:1028D00009F461E00E941D3E8FE260E00E944438EE
:1028E0008091DC0210E0023109F411E090E084599B
:1028F000984F64E670E00E94304A862F612F0E9454
:102900001D3E8091DC0290E08459984F64E670E0AF
:102910000E94304A612F0E941D3E1F910F91089521
:10292000FF920F931F938C01F62E64E670E00E94D5
:102930001C4A862F805D6F2D0E944438C80164E6D2
:1029400070E00E941C4A6F2D0E941D3E1F910F9146
:10295000FF9008950F931F93082F88E064E00E9472
:10296000693C86E191E060E00E946F388091E2026C
:10297000882399F5602F617081E191E00E946F38A2
:102980008091DF029091E002102F1270612F0E945F
:1029900090148DE091E0612F0E946F388091E402E5
:1029A0009091E502102F14706CE070E00E941C4AB8
:1029B000862F612F0E941D3E8AE091E0612F0E94C8
:1029C0006F388091E4029091E5026CE070E00E9423
:1029D0001C4A612F0E941D3E3BC08091E202602F85
:1029E0006170102F1270813019F585E091E00E941E
:1029F0006F3880E260E00E9444388091DF0290915D
:102A0000E002612F0E94901481E091E0612F0E940A
:102A10006F388091E4029091E502102F1470612FBD
:102A20000E9490148EEF90E0612F0E946F3810C0CA
:102A300089EF90E00E946F388FEE90E060E00E9496
:102A40006F388091DF029091E002612F0E94901414
:102A50001F910F91089588E090E00E94894A809329
:102A6000E10289E090E00E94894A8093DE028AE0D8
:102A700090E00E94894A8093DC028EE090E00E9400
:102A8000894A8093DB028FE090E00E94894A80931C
:102A9000DD0280E190E00E94894A8093E20283E1B6
:102AA00090E00E94914A9093E5028093E40281E1D4
:102AB00090E00E94914A9093E0028093DF0285E1CA
:102AC00090E00E94894A8093E302809110028F5F18
:102AD000809310020E94733C80E060E00E94693C99
:102AE0008AEC90E060E00E946F3880E460E00E9431
:102AF000693C83EC90E060E00E946F3888E660E01B
:102B00000E94693C8EEB90E060E00E946F388091FB
:102B100039030E94361480E00E941D1480E00E9458
:102B2000F61380E00E94AA1480E00E94DD130E9448
:102B30007F498091100281508093100208951F9365
:102B4000182F0E942B15809110028F5F8093100226
:102B5000809139038F3611F40E947449110F110FBF
:102B6000110F1D5F80E0612F47E00E945843809164
:102B700010028150809310028AE080930F028091AE
:102B800039031F9108951F9385E00E949F15182F08
:102B900048C080910C0281FF1BC010920C028091F2
:102BA00010028F5F809310021F3039F481E00E9481
:102BB000DD130E946D491FE606C080E00E94DD1310
:102BC0000E9474491FE0809110028150809310028E
:102BD00080910C0282FD04C080910D0282FF21C011
:102BE00010920C021F36E9F48091E30290E08823F2
:102BF00009F491E09093E302809110028F5F80933B
:102C0000100281E00E94DD138091100281508093B8
:102C100010026091E30285E190E00E94974A0E94D1
:102C20006B130E94E248882309F4B3CF1F910895E3
:102C30001F9383E00E949F15182F48C080910C02BB
:102C400081FF1BC010920C02809110028F5F809355
:102C500010021D3039F481E00E94F6130E946D4984
:102C60001BE606C080E00E94F6130E947F491DE02B
:102C70008091100281508093100280910C0282FD9D
:102C800004C080910D0282FF21C010920C021B36FD
:102C9000E9F48091DD0290E001968370907080935A
:102CA000DD02809110028F5F8093100281E00E940C
:102CB000F613809110028150809310026091DD0222
:102CC0008FE090E00E94974A0E946B130E94E248B6
:102CD000882309F4B3CF1F9108951F9382E00E94C7
:102CE0009F15182F48C080910C0281FF1BC01092C5
:102CF0000C02809110028F5F809310021C3039F417
:102D000081E00E941D140E946D491AE606C080E011
:102D10000E941D140E947F491CE080911002815086
:102D20008093100280910C0282FD04C080910D02FC
:102D300082FF21C010920C021A36E9F48091DB0266
:102D400090E0882309F491E09093DB0280911002D7
:102D50008F5F8093100281E00E941D148091100209
:102D60008150809310026091DB028EE090E00E941F
:102D7000974A0E946B130E94E248882309F4B3CF5C
:102D80001F9108951F9381E00E949F15182F8AC0FC
:102D900080910C0281FF40C010920C0280911002C1
:102DA0008F5F809310021B3031F4E0913603F0E026
:102DB000E259FE4F07C0103139F4E0913603F0E0DC
:102DC000E059FE4F10811DC0113131F4E0913603FE
:102DD000F0E0EE58FE4FF6CF6091E10288E090E01F
:102DE0000E94974A6091DE0289E090E00E94974A33
:102DF0006091DC028AE090E00E94974A0E946B1387
:102E00001BE0812F0E943614812F0E94D52E8091C5
:102E1000100281508093100280910C0282FD04C048
:102E200080910D0282FF3EC010920C028091100230
:102E30008F5F80931002103131F48091E1028F5F37
:102E40008093E10214C0113131F48091DE028F5F72
:102E50008093DE020CC0123151F48091DC0290E0CC
:102E6000019668EC70E00E94304A8093DC02409149
:102E7000DE0250E04459584F81EE92E06EED72E070
:102E80000E94A948812F0E9436148091100281501F
:102E90008093100280910D0282FF04C088EC90E0C4
:102EA0000E9416450E94E248882309F471CF1F91C1
:102EB0000895AF92BF92CF92DF92EF92FF921F934D
:102EC000CF93DF9384E00E949F15182F7CE5A72EF7
:102ED000B12C64E2C62ED12C5FE0E52EF12CC3E2CA
:102EE000D0E021C180910C0281FF46C010920C02FB
:102EF000809110028F5F809310021E3059F481E0A0
:102F00000E94AA1483EB90E06AEA70E00E94634991
:102F10001CE62DC01C36A1F482E00E94AA14809108
:102F2000E202823029F08FE990E066E970E004C0A7
:102F30008BE890E063E870E00E9463491DE617C0EB
:102F40001D3679F48091E202823059F084E00E94CB
:102F5000AA1488E790E060E770E00E9463491EE6EB
:102F600006C080E00E94AA140E947F491EE0809162
:102F7000100281508093100280910C0282FD04C0E7
:102F800080910D0282FFCFC010920C02809110023E
:102F90008F5F809310021C3651F58091E20290E021
:102FA000019663E070E00E94304A8093E2028091D3
:102FB000E202882349F4D093E002C093DF02D0926A
:102FC000E502C092E40211C08091E202813049F42E
:102FD000F092E002E092DF02B092E502A092E402F9
:102FE00004C01092E0021092DF0281E075C01D362D
:102FF00009F03EC08091E2028823A9F48091DF02AB
:103000009091E00205969093E0028093DF02809118
:10301000DF029091E0028559924040F1D093E002A6
:10302000C093DF0223C08091E2028130A9F4809135
:10303000DF029091E00205969093E0028093DF0218
:103040008091DF029091E0028D52914078F0F092F1
:10305000E002E092DF020AC08091DF029091E0027C
:10306000019690709093E0028093DF0282E034C07A
:103070001E36A1F58091E2028823A9F48091E40232
:103080009091E50201969093E5028093E40280918D
:10309000E4029091E50289379105E8F0D092E502CB
:1030A000C092E40218C08091E2028130A1F48091C4
:1030B000E4029091E50201969093E5028093E40288
:1030C0008091E4029091E5028253914020F0B09209
:1030D000E502A092E40284E00E94AA146091E20258
:1030E00080E190E00E94974A6091DF027091E002D7
:1030F00081E190E00E94A54A6091E4027091E502AE
:1031000083E190E00E94A54A0E946B138091100217
:1031100081508093100280910D0282FF04C088ECE0
:1031200090E00E9416450E94E248882309F4DACE16
:10313000DF91CF911F91FF90EF90DF90CF90BF90E4
:10314000AF900895DF92EF92FF920F931F930E942A
:103150002136AFE0DA2EFDE0EF2EEEE0FE2E0CE0A1
:103160001BE080910C0280FF02C010920C02809143
:103170003903882329F4109339030E94C21623C00F
:10318000809139038B3029F4009339030E946D1626
:103190001AC0809139038D3029F4F09239030E94CE
:1031A000591711C0809139038C3029F4E09239030A
:1031B0000E94181608C0809139038E3021F4D092F5
:1031C00039030E94C31580913903882321F080912F
:1031D00039038F3031F681E080930C0282E68093D0
:1031E000390387E090E00E94894A809330030E946F
:1031F000733C1F910F91FF90EF90DF9008950F9314
:103200001F93CF93DF9389E190E00E94894A8093D6
:1032100021020E94733C00E010E004C088E0602FAF
:103220000E94693CC12FD0E0CE0182589E4F60E0E1
:103230000E946F38C358DE4FFE018491180F1F5F44
:103240000F5F083059F791E000ED18E380910C0210
:103250008823A1F180910C02823089F0843019F02A
:10326000813051F518C0809121028F5F8093210237
:10327000809121028933FCF0109321021CC08091BF
:10328000210281508093210280912102803D9CF493
:103290000093210210C087E090E00E94894A809349
:1032A00030030E94733C82E680933903DF91CF9113
:1032B0001F910F91089591E010920C02992331F221
:1032C0006091210289E190E00E94974A85E362E0E3
:1032D0000E94693C8091210287FF03C085EE91E046
:1032E00002C083EE91E060E00E946F38809121027D
:1032F000992787FD909597FF03C0909581959F4FE3
:10330000959587959595879560E00E941D3E81EE85
:1033100091E060E00E946F3880912102282F3327CE
:1033200027FD309537FF03C0309521953F4F23701F
:103330003070C90134E0880F991F3A95E1F7821B7C
:1033400060E00E941D3E90E081CF80910C01815091
:1033500080930C018823F1F485E080930C01809127
:103360000A018093DF0190910B01980F90930A015D
:10337000903218F08FEF80930B01992319F481E0BC
:1033800080930B0190E08091E001882309F491E0A3
:103390009093E00108951F93182F80E060E00E9451
:1033A000693C8091D302612F0E941D3E8091E7020B
:1033B000612F0E941D3E86E660E00E94693C80917C
:1033C000D702612F0E941D3E8091E602612F0E946C
:1033D0001D3E1F9108950F931F93082F14E1812F15
:1033E00067E00E94693C86E0602F0E941438185EF6
:1033F0001437A9F71F910F910895DF92EF92FF9272
:103400000F931F93E82E90910A018091DF01981786
:1034100018F4892F805A02C0892F815068E041E05A
:1034200020E30E2D0E94973860E083E0D82E15C06F
:1034300080910A01800F612F0E94693C8091E00118
:103440008D9DC00111248F0D6E2D0E941438005FD8
:10345000003671F7163039F0612FF62EF69400E041
:10346000162F1F5FE5CF1F910F91FF90EF90DF9018
:1034700008951F93182F80911B02882359F480917F
:103480001C02882339F490911F028091E201891770
:1034900009F44EC010921C0280911C0280931B0202
:1034A0008091E101882309F043C081E08093E1012C
:1034B00080911F028093E201809129030E94EA46D5
:1034C0008093D302809133038093E70280911F029F
:1034D000833049F4809137030E94EA468093D702F3
:1034E00080912D031BC080911F02813031F484E153
:1034F0008093D70280912C0311C0809136038823DA
:1035000039F480913D038093D7028091320306C045
:10351000809132038093D70280913D038093E6022D
:103520008091E10181508093E101812F0E94CB19AC
:103530001F9108951F93182F0E94FD198091380341
:10354000882321F48091E301882339F0812F0E94A0
:10355000EB19809138038093E301812F0E94391A7F
:103560001F9108950F931F93182F80E060E040E8AB
:1035700020E4012F0E94973883E68093E201812F97
:103580000E94391A812F0E94CB19812F0E94FD19A8
:10359000812F0E94EB191F910F91089581E0809374
:1035A0000A011092DF0180E00E94B21A08951F9371
:1035B000FC0180819181A281B3819C01241B350B88
:1035C0001EEF2D30310744F0245F31402CF440834E
:1035D00051836283738312C0481759076A077B07B8
:1035E00028F4845F9140A040B04004C08C509E4FAE
:1035F000AF4FBF4F80839183A283B3831F91089500
:103600002F923F924F925F926F927F928F929F92F2
:10361000AF92BF92CF92DF92EF92FF920F931F93E0
:10362000DF93CF93CDB7DEB764970FB6F894DEBFC4
:103630000FBECDBF270138011401E60EF71E081F8B
:10364000191FE986FA860B871C87EE24FF24870161
:10365000E418F50806091709E982FA820B831C832E
:10366000E4E1EE2EE5E0FE2E012D112DE61AF70A1B
:10367000080B190BED82FE820F83188779018A01EE
:103680006D877E878F87988BC501D6015C016D01A0
:10369000992420E0BAC0B601A5014E0D5F1D601F40
:1036A000711F498B5A8B6B8B7C8B6D857E858F85CB
:1036B0009889640D751D861D971D6D877E878F8780
:1036C000988B89899A89AB89BC89895A9641A0408F
:1036D000B0408CF0D094C094B094A094A11CB11CC4
:1036E000C11CD11C48EA56E160E070E0498B5A8B5E
:1036F0006B8B7C8B19C069897A898B899C89683C22
:1037000071058105910584F4D094C094B094A0947F
:10371000A11CB11CC11CD11C88EC90E0A0E0B0E061
:10372000898B9A8BAB8BBC8B49855A856B857C8545
:103730004C555B4260407040B4F08D859E85AF85EE
:10374000B88984199509A609B7098C559B42A040F0
:10375000B0404CF46D817E818F819885685B794D96
:103760008F4F9F4F1AC049855A856B857C8545517F
:1037700055406040704024F58D859E85AF85B889A1
:1037800084199509A609B70985519540A040B04014
:10379000BCF06D817E818F819885A30192010E948A
:1037A000654AC601B5010E94F149E60EF71E081FE1
:1037B000191FD101ED92FD920D931C93139704C034
:1037C000222311F4939401C021E0E984FA840B854B
:1037D0001C85E40CF51C061D171DE986FA860B876F
:1037E0001C874D815E816F81788589819A81AB814B
:1037F000BC81480F591F6A1F7B1F4D835E836F83F7
:103800007887E988FA880B891C898D859E85AF8524
:10381000B88989559240A040B0408F5B9B42A04040
:10382000B04008F438CFC801B70124E630E040E0EA
:1038300050E00E94654AE9A5FAA5208331834283BE
:103840005383892D64960FB6F894DEBF0FBECDBFAB
:10385000CF91DF911F910F91FF90EF90DF90CF906C
:10386000BF90AF909F908F907F906F905F904F90A0
:103870003F902F90089580E00E942D488F71089509
:103880002F923F924F925F926F927F928F929F9270
:10389000AF92BF92CF92DF92EF92FF920F931F935E
:1038A000CF93DF931C01EB012A0160910A03709111
:1038B0000B0380910C0390910D03E090F802F090BF
:1038C000F9020091FA021091FB02A090FE02B09062
:1038D000FF02C0900003D09001036090F40270904A
:1038E000F5028090F6029090F7022223F9F000D0C2
:1038F000EDB7FEB7D283C183A80197018601750198
:103900006401530141010E94001B8093FC0210924C
:10391000FD02F10180819181A281B381F201808356
:103920009183A283B38380911B021DC000D0EDB7A9
:10393000FEB732822182A8019701860175016401D8
:1039400053014E010E94001B8093FC021092FD0265
:1039500088819981AA81BB81F20180839183A283AE
:10396000B38380911C020F900F90882311F021E007
:1039700001C020E0F20180819181A281B38130E712
:10398000E32E3EEFF32E3FEF032F3FEF132FE80E12
:10399000F91E0A1F1B1FE082F18202831383222378
:1039A00099F1F5E5EF16F8E0FF06F0E00F07F0E01B
:1039B0001F0728F48053984FAF4FBF4F20C0FBEA3A
:1039C000EF16F0E1FF06F0E00F07F0E01F0728F028
:1039D000805F9A40A040B04012C082E00E942D4813
:1039E000892B29F480EA96EFAFEFBFEF04C080E6A1
:1039F00099E0A0E0B0E08E0D9F1DA01FB11FF20165
:103A000080839183A283B3838091FC02DF91CF9165
:103A10001F910F91FF90EF90DF90CF90BF90AF90EC
:103A20009F908F907F906F905F904F903F902F90DE
:103A30000895AF92BF92CF92DF92EF92FF920F93D1
:103A40001F93F62ED42EB22E882361F560910603C3
:103A500070910703809108039091090324E630E0F8
:103A600040E050E00E94654A122F60911603709169
:103A70001703809118039091190324E630E040E089
:103A800050E00E94654A812F622F44E024E00F2D10
:103A9000E4E0EE2E7AE0C72E50E1A52E0E947F488A
:103AA000882331F08F2D64E04D2D2B2D0E948A4903
:103AB0001F910F91FF90EF90DF90CF90BF90AF904C
:103AC00008950F931F93182F062F8091D3026AE059
:103AD0000E94104A482F812F6EE1202F0E94191D4D
:103AE0008091D3026AE00E94104A812F6DE2492F33
:103AF000202F0E94191D8091D7026AE00E94104A6F
:103B0000482F812F66E4202F0E94191D8091D70233
:103B10006AE00E94104A812F65E5492F202F0E94FC
:103B2000191D1F910F9108950F931F93082F10E0F7
:103B30008FE3612F0E94693C002311F080EF01C0E8
:103B40008FE00E94103C1F5F173091F78FE367E012
:103B50000E94693C002311F080E201C08FEC0E94BA
:103B6000103C1F910F91089590911F028091E501E3
:103B7000981739F081E08093E40180911F028093CF
:103B8000E50180911F02813059F1813030F082309F
:103B9000C9F1833009F048C03DC080911B028823E1
:103BA00021F480911C02882391F080911C028823CB
:103BB00039F0809134030E94EA468093D30204C016
:103BC00080911B02882381F180912A0320C080917B
:103BD00029030E94EA468093D3028091330317C0E1
:103BE00080913603882339F480913D038093D3027A
:103BF000809132030CC0809132038093D302809174
:103C00003D0305C084E18093D30280912C0380930F
:103C1000D7020895809137030E94EA468093D30229
:103C200080912D038093D7020895AF92CF92DF92B7
:103C3000EF92FF920F931F93D82E0E94B41D6091B4
:103C4000060370910703809108039091090324E60D
:103C500030E040E050E00E94654A122F6091160368
:103C600070911703809118039091190324E630E0B6
:103C700040E050E00E94654A812F622F44E024E03A
:103C80000D2D0E949738FF24DD2011F4FF24F394BA
:103C900060910A0370910B0380910C0390910D03C6
:103CA00024E630E040E050E00E94654A122F609127
:103CB000F8027091F9028091FA029091FB0224E6D9
:103CC00030E040E050E00E94654A812F622F44E0DE
:103CD00024E00F2D0E94973860910603709107032E
:103CE000809108039091090324E630E040E050E021
:103CF0000E94654A122F60911603709117038091FC
:103D000018039091190324E630E040E050E00E944F
:103D1000654A812F622F44E024E00FE3EE24CC2497
:103D2000C39490E4A92E0E947F48882319F08D2D1A
:103D30000E94941D2091E8023091E9024091EA022C
:103D40005091EB028091EC029091ED02A091EE0275
:103D5000B091EF02281739074A075B0779F0CA01CB
:103D6000B90124E630E040E050E00E94654A8AE074
:103D7000622F43E02CE00D2D0E9497386091EC02F9
:103D80007091ED028091EE029091EF0224E630E016
:103D900040E050E00E94654A8AE0622F43E02CE058
:103DA0000F2D0E94973820911203309113034091F8
:103DB00014035091150380910E0390910F03A0916D
:103DC0001003B0911103281739074A075B0779F0F0
:103DD000CA01B90124E630E040E050E00E94654AA3
:103DE00083E7622F43E02CE00D2D0E94973860910D
:103DF0000E0370910F03809110039091110324E63C
:103E000030E040E050E00E94654A83E7622F43E0E3
:103E10002CE00F2D0E9497386091060370910703E4
:103E2000809108039091090324E630E040E050E0DF
:103E30000E94654A022F60911603709117038091CA
:103E400018039091190324E630E040E050E00E940E
:103E5000654A122F60910E0370910F038091100339
:103E60009091110324E630E040E050E00E94654A62
:103E7000E22E802F612F44E024E003E713E0C12EFF
:103E8000BCE0AB2E0E947F488823A9F060910E030E
:103E900070910F03809110039091110324E630E09C
:103EA00040E050E00E94654A83E7622F43E02CE047
:103EB0000F2D0E949738609106037091070380913F
:103EC00008039091090324E630E040E050E00E94AE
:103ED000654A022F609116037091170380911803B1
:103EE0009091190324E630E040E050E00E94654ADA
:103EF000122F6091EC027091ED028091EE02909190
:103F0000EF0224E630E040E050E00E94654AE22EF5
:103F1000802F612F44E024E00AE0A3E0CA2EFCE0F9
:103F2000AF2E0E947F488823A9F06091EC02709127
:103F3000ED028091EE029091EF0224E630E040E045
:103F400050E00E94654A8AE0622F43E02CE00F2D8A
:103F50000E949738109270008091E401882311F03C
:103F60001092E40181E0809370006D2D0E94611D2C
:103F70001F910F91FF90EF90DF90CF90AF90089539
:103F80006F927F928F929F92AF92BF92CF92DF9269
:103F9000EF92FF920F931F9380910A0390910B036E
:103FA000A0910C03B0910D03809306039093070337
:103FB000A0930803B09309032091F8023091F9020D
:103FC0004091FA025091FB0220931603309317039D
:103FD00040931803509319036090FE027090FF0203
:103FE000809000039090010364015301A80EB91E54
:103FF000CA1EDB1EA0920A03B0920B03C0920C03F0
:10400000D0920D03E090F402F090F5020091F602D8
:104010001091F702D801C701820F931FA41FB51F8B
:104020008093F8029093F902A093FA02B093FB02F6
:10403000895A9641A040B040DCF088EA96E1A0E0C1
:10404000B0E08093F8029093F902A093FA02B09343
:10405000FB0288279927DC018E199F09A00BB10B61
:104060008093F4029093F502A093F602B093F702C6
:104070008091F8029091F902A091FA02B091FB02AE
:10408000883C9105A105B1051CF588EC90E0A0E005
:10409000B0E08093F8029093F902A093FA02B093F3
:1040A000FB028091F4029091F502A091F602B0918A
:1040B000F702B095A095909581959F4FAF4FBF4F58
:1040C0008093F4029093F502A093F602B093F70266
:1040D00084EDA81680E3B80680E0C80680E0D80624
:1040E000ECF4C601B50124E630E040E050E00E9467
:1040F000654A12169CF4611471048104910409F05C
:10410000CAC08091F4029091F502A091F602B0919C
:10411000F7020097A105B10509F0BDC08CE998E14F
:10412000A0E0B0E080930A0390930B03A0930C03EC
:10413000B0930D038CE19CE0A0E0B0E08093F80226
:104140009093F902A093FA02B093FB020E943B1CE9
:10415000282F332727FD3095ECE2F1E0E21BF30B2B
:10416000808190E0880F991FAA2797FDA095BA2F0C
:104170008093FE029093FF02A0930003B09301038B
:10418000235F3E4FF901808190E0880F991FAA2795
:1041900097FDA095BA2F8093F4029093F502A09317
:1041A000F602B093F70281E00E942D488370282F19
:1041B00080FF17C08091FE029091FF02A091000342
:1041C000B0910103B095A095909581959F4FAF4F09
:1041D000BF4F8093FE029093FF02A0930003B09321
:1041E000010321FF17C08091F4029091F502A09184
:1041F000F602B091F702B095A095909581959F4FEA
:10420000AF4FBF4F8093F4029093F502A093F60254
:10421000B093F7026091F3012091F201261B8AE02E
:1042200043E000E00E9497386091F5012091F4018D
:10423000261B83E743E00E9497381092F401109206
:10424000F5011092F2011092F30181E08093E401F4
:1042500010921C0280911C0280931B0220E080912E
:10426000FE029091FF02A0910003B0910103181685
:1042700019061A061B060CF421E086EE91E06AEEA0
:1042800071E04EEE51E00E94401C8093FC021092BF
:10429000FD020E94B41D8091EC029091ED02A0916C
:1042A000EE02B091EF028093E8029093E902A093AE
:1042B000EA02B093EB0280910E0390910F03A0915C
:1042C0001003B09111038093120390931303A093F2
:1042D0001403B09315038091FE029091FF02A09108
:1042E0000003B0910103B7FF2AC080910A039091A7
:1042F0000B03A0910C03B0910D0380509941A04095
:10430000B0400CF04BC080911B02882349F04091D3
:10431000EE015091EF016091F0017091F1010CC03C
:104320004091F8025091F9026091FA027091FB02FB
:1043300040595140604070408CEE92E02CC0009794
:10434000A105B10599F180910A0390910B03A09109
:104350000C03B0910D0381509941A040B04034F15D
:1043600080911C02882349F04091EE015091EF01A9
:104370006091F0017091F1010CC04091F8025091F0
:10438000F9026091FA027091FB024059514060407D
:1043900070408EE093E00E94D71A15C086EE91E03F
:1043A0006AEE71E04EEE51E021E007C086EE91E04A
:1043B0006AEE71E04EEE51E020E00E94401C8093D6
:1043C000FC021092FD028091EC029091ED02A0910E
:1043D000EE02B091EF02893C9105A105B10564F4AC
:1043E00089EC90E0A0E0B0E08093EC029093ED02C5
:1043F000A093EE02B093EF0280910E0390910F0311
:10440000A0911003B0911103893C9105A105B1055C
:1044100064F489EC90E0A0E0B0E080930E03909308
:104420000F03A0931003B09311038091EC029091BD
:10443000ED02A091EE02B091EF0288589341A040A6
:10444000B04064F087E893E1A0E0B0E08093EC0234
:104450009093ED02A093EE02B093EF0280910E03D1
:1044600090910F03A0911003B091110388589341CC
:10447000A040B04064F087E893E1A0E0B0E0809312
:104480000E0390930F03A0931003B0931103809138
:10449000FE029091FF02A0910003B0910103181653
:1044A00019061A061B060CF05DC060910A03709194
:1044B0000B0380910C0390910D0324E630E040E063
:1044C00050E00E94654A022F6091F8027091F90253
:1044D0008091FA029091FB0224E630E040E050E047
:1044E0000E94654A122F60910E0370910F03809114
:1044F00010039091110324E630E040E050E00E9468
:10450000654AE22E802F612F44E024E003E7E3E0D8
:10451000CE2E7CE0A72E0E947F48882319F180913F
:10452000FE029091FF02A0910003B0910103B095AB
:10453000A095909581959F4FAF4FBF4F8093FE02FE
:104540009093FF02A0930003B09301038CE59BE2DC
:10455000A0E0B0E080930A0390930B03A0930C03B8
:10456000B0930D038091FE029091FF02A091000391
:10457000B0910103B7FF5DC060910A0370910B0316
:1045800080910C0390910D0324E630E040E050E070
:104590000E94654A022F6091F8027091F9028091A1
:1045A000FA029091FB0224E630E040E050E00E94E5
:1045B000654A122F6091EC027091ED028091EE023B
:1045C0009091EF0224E630E040E050E00E94654A1E
:1045D000E22E802F612F44E024E00AE053E0C52E54
:1045E0003CE0A32E0E947F48882319F18091FE02AF
:1045F0009091FF02A0910003B0910103B095A095A6
:10460000909581959F4FAF4FBF4F8093FE0290933F
:10461000FF02A0930003B093010384E195E0A0E0C2
:10462000B0E080930A0390930B03A0930C03B09324
:104630000D031F910F91FF90EF90DF90CF90BF90EF
:10464000AF909F908F907F906F900895FF920F93FF
:104650001F93F82E80E060E040E820E40F2D0E94D8
:10466000973810E0FF2009F411E080E060E040E8B6
:1046700022E0012F0E94973880E06EE340E822E0BC
:104680000E9497386091EC027091ED028091EE02E9
:104690009091EF0224E630E040E050E00E94654A4D
:1046A0008AE0622F43E02CE00E94973860910E036D
:1046B00070910F03809110039091110324E630E074
:1046C00040E050E00E94654A83E7622F43E02CE01F
:1046D0000E9497380E94B41D8091D3026AE00E9424
:1046E000104A482F8EE164E02F2D0E948A49809164
:1046F000D3026AE00E94104A8DE264E0492F2F2D18
:104700000E948A498091D7026AE00E94104A482F8D
:1047100086E464E02F2D0E948A498091D7026AE0E6
:104720000E94104A85E564E0492F2F2D0E948A4996
:104730008F2D0E94941D1F910F91FF90089584EC7E
:1047400099E0A0E0B0E080930A0390930B03A0935C
:104750000C03B0930D038093060390930703A0937B
:104760000803B09309038093F8029093F902A09391
:10477000FA02B093FB028093160390931703A09361
:104780001803B09319038093EC029093ED02A09369
:10479000EE02B093EF028093E8029093E902A093B7
:1047A000EA02B093EB0280930E0390930F03A09361
:1047B0001003B09311038093120390931303A093FB
:1047C0001403B09315030E9424481092F40210922F
:1047D000F5021092F6021092F7021092FE02109269
:1047E000FF02109200031092010380E00E94262332
:1047F000089580913C03882341F080911B02823010
:1048000021F080911C02823031F410921C028091C0
:104810001C0280931B020895CF92DF92EF92FF92C9
:104820000F931F93DF93CF930F92CDB7DEB7E82E90
:10483000F42E122FC02E962F9E5F1450D62EDA948F
:1048400000E0CC2009F401E08E2D692F4F2D212F9F
:1048500099830E949738E394998191508EEFF80ED6
:104860001E5F9D1569F70F90CF91DF911F910F91FA
:10487000FF90EF90DF90CF9008950F93362F022F87
:1048800090E0FC01EE0FFF1FE80FF91FE35DFE4F04
:104890008081882339F481816281640F830F42E132
:1048A00026E006C081816281640F830F46E029E122
:1048B0000E940C240F910895CF92DF92EF92FF9205
:1048C0000F931F93CF93DF93C82ED62E022F10E0A5
:1048D000C7E0D0E0E42EFF24C7010C2E02C095955E
:1048E00087950A94E2F780FF05C0812F6C2D4D2D2E
:1048F000202F07C020E0002309F421E0812F6C2D38
:104900004D2D0E943D241F5F2197173029F7DF911D
:10491000CF911F910F91FF90EF90DF90CF9008956E
:104920000F93082F80E060E040E820E40E94973871
:104930000F9108950F9380E060E040E820E400E0EC
:104940000E9497380F910895FF920F931F93182F8D
:10495000062FF22E842F90E04A3028F4845A9D4F7F
:104960000E94894A04C08F519E4F0E94894A482F55
:10497000812F602F2F2D0E945C241F910F91FF909B
:104980000895FF920F931F93F82E142F062F0F7781
:1049900067FF08C020E0442309F421E080E060E0E4
:1049A00048E008C0802F6AE00E94104A482F8F2DEF
:1049B00060E0212F0E94A424802F6AE00E94104A08
:1049C0008F2D825E60E0492F212F0E94A4241F9129
:1049D0000F91FF90089520E0442309F421E044E082
:1049E0000E9487390895EF92FF920F931F93082F2B
:1049F00080911F028823C9F080911F028330A9F0A3
:104A0000102F011111E080E465E144E0212F0E94A4
:104A1000873980E46AE244E0212F0E94873980E4EC
:104A200066E044E0212F0E94873980911F02823086
:104A300069F480E064E1402F0E94C12480912C033E
:104A400064E60E94104A88E4692F17C080911F0213
:104A50008130B9F480913603882329F460913D03B5
:104A60001091320304C06091320310913D0380E045
:104A7000402F0E94C12488E4612F402F0E94C1244E
:104A800067C080911F02882329F080911F02833024
:104A900009F05EC080911F02833029F41091370322
:104AA000E0902D0304C010912903E090330380911E
:104AB0002B03882399F4812F0E94EA46F82E1C309C
:104AC00020F420E0002321F402C020E0011121E0C5
:104AD00080E466E044E00E94873909C020E00111CB
:104AE00021E080E466E044E00E948739F12E89E00D
:104AF0008F1510F060E801C060E06F2980E0402F62
:104B00000E94C12488E46E2D402F0E94C124809110
:104B10001D028823E9F080913E03817080931D027D
:104B200080911D0220E0882309F421E080E465E102
:104B300044E00E94873980911D0220E0882309F417
:104B400021E080E46AE244E00E94873910921D026D
:104B50001F910F91FF90EF900895462F282F30E07E
:104B6000862F6AE00E94104AA2E4B1E0FD01E20F44
:104B7000F31F80832F5F3F4F842F0E94104AA20FA4
:104B8000B31F9C93089580913C03882341F080914A
:104B90001B02823021F080911C02823031F410928D
:104BA0001C0280911C0280931B0208950F93502FCA
:104BB000E82FF0E030E08091F901882369F48091DA
:104BC000F701E81BF109F7FF11C02E0F3F1F37FD5A
:104BD00019C0E0E0F0E00DC0C9018E0F9F1F8038C2
:104BE000910524F020E830E02E1B3F0BE038F10562
:104BF0004CF400E0442309F401E08E2F422F252FCE
:104C00000E9497380F9108950F93362F90E0FC0182
:104C1000EE0FFF1FE80FF91FEB5AFE4F808188232C
:104C200041F481816281640F830F422F22E106E00B
:104C300007C081816281640F830F422F26E000E26A
:104C40000E94D6250F910895CF92DF92EF92FF92A6
:104C50000F931F93CF93DF93C82ED62E022F10E011
:104C6000C7E0D0E0E42EFF24C7010C2E02C09595CA
:104C700087950A94E2F780FF06C0812F6C2D4D2D99
:104C8000202F0E9404261F5F2197173069F7DF91BC
:104C9000CF911F910F91FF90EF90DF90CF900895EB
:104CA0000F93625024E004E00E94D6250F910895EE
:104CB000CF92DF92EF92FF920F931F93182FC62E81
:104CC000F42EE22E8093F90184E18093FA018AE3C5
:104CD000481719F08DE2481719F486E08093FA011D
:104CE0002091FA01112341F48091F701422F481BD2
:104CF00014168CF0DD2440C0422F812F992787FDA8
:104D00009095332727FD3095820F931F80389105AA
:104D100014F040E8411BD42E812F60E020E40E2DDA
:104D20000E94973889E08F1568F08F2D90E0845AA3
:104D30009D4F0E94894A482F812F6C2D2E2D0E9455
:104D400024261AC08AE3F81641F4812F60E14E2D23
:104D50000E945026812F6FE20CC08DE2F81661F49C
:104D6000812F60E04D2D20E40E2D0E949738812F79
:104D70006FE14E2D0E9450268D2D1F910F91FF90B7
:104D8000EF90DF90CF90089580911F02833019F447
:104D90008091370302C0809129030E94EA46682F60
:104DA00080E00E94AD2580911F02833019F460914C
:104DB0002D0302C06091330383E00E94AD258091F2
:104DC0001F02833011F460E002C060913E0386E070
:104DD0000E94AD2580913603882311F08CE001C03C
:104DE00089E060913D030E94AD25809136038823C0
:104DF00011F089E001C08CE0609132030E94AD2582
:104E000060912C038FE00E94AD250895FF920F93CF
:104E10001F93F82E8091FB018F5F8093FB018630FA
:104E200008F458C01092FB010091F80180911F0214
:104E3000833059F480911E02882339F010921E02AB
:104E40008091F8018091F8010AC080911F0283309F
:104E500031F48091F801882311F410921F020E940E
:104E6000C42610E035C0E02FF0E0EE5BFE4F40813D
:104E70000F5F812F60E02F2D0E945826282F0231CE
:104E800008F000E0112319F52223E1F49091F701D5
:104E90008091FA01891740F48091F7019091FA010D
:104EA000891B8093F70102C01092F7018091F801ED
:104EB0008F5F8093F8018091F801823140F0109269
:104EC000F80105C08091F7018B5F8093F701120F05
:104ED00017FFC9CF1F910F91FF9008950F931F9354
:104EE000182F80913803882331F460E040E820E4F3
:104EF000012F0E9497380E94C426812F0E94062706
:104F00001F910F9108951092F7011092F80180E01F
:104F10000E946E270895DF92EF92FF920F931F93E6
:104F2000CF93DF93D82EF62EE22EF694F694F694D5
:104F3000EA0100E015C0FE011491802F6CE10E948F
:104F4000104A292F2D0D802F0E94104A682F6F0DB7
:104F5000822F0E94693C812F0E94103C0F5F219696
:104F60000E1548F3DF91CF911F910F91FF90EF90B5
:104F7000DF900895CF92DF92EF92FF920F931F93ED
:104F8000CF93DF93C82EF62ED22EE02EF694F69411
:104F9000F694EA0110E019C00881812F6CE10E94AB
:104FA000104A992341F4812F0E94104A682F6F0DF7
:104FB0008C2D0E94693CEE2019F0802F809501C055
:104FC000802F0E94103C1F5F21961D1528F3DF9152
:104FD000CF911F910F91FF90EF90DF90CF900895A8
:104FE0007F928F929F92AF92BF92CF92DF92EF9279
:104FF000FF920F931F93DF93CF93CDB7DEB7C05EC1
:10500000D0400FB6F894DEBF0FBECDBFA82E962EAF
:10501000B22E802EFE01319680EEDF011D928A9520
:10502000E9F7DA0150E09CE1792E81E0C82ED12C1D
:105030007F011CC0F90184912F5F3F4FF9017491EA
:1050400021503040482F09C0F801E40FF11DEE0D4A
:10505000FF1D8081862B80834F5F4717A8F39F5FDA
:105060002E5F3F4F923031F75F5F14965B1588F4E7
:10507000852F869586958695879D80011124852F9D
:1050800087706C2D01C0660F8A95EAF79D0190E04C
:10509000D1CF8A2D692DAE014F5F5F4F20EE082DD5
:1050A0000E94BA27C052DF4F0FB6F894DEBF0FBE82
:1050B000CDBFCF91DF911F910F91FF90EF90DF90C7
:1050C000CF90BF90AF909F908F907F9008950F9357
:1050D000942F022F592F40E0495E5A4F20E40E943E
:1050E000F0270F9108952F923F924F925F926F9207
:1050F0007F928F929F92AF92BF92CF92DF92EF9268
:10510000FF920F931F93DF93CF93CDB7DEB7C35FAB
:10511000D0400FB6F894DEBF0FBECDBFC251DF4FF7
:105120008883CE5ED040C151DF4F6883CF5ED040D0
:10513000C051DF4F4883C05FD040CF50DF4F08835E
:10514000C15FD040FE01399680EEDF011D928A9545
:10515000E9F78091FF01282E3324D22ECC2447E199
:1051600055E0C40ED51EC051DF4F8881C05FD040CE
:10517000F82EEE24E40EF51E88249924B5E06B2E5B
:10518000712C6C0E7D1ECE50DF4FF983E883C25F19
:10519000D040582DC051DF4F8881C05FD0408F3F35
:1051A00029F41C821B821A82198209C0DE01119621
:1051B000F70184918D933196A615B705D1F79981A2
:1051C000C451DF4F9883CC5ED04030E09F3F09F060
:1051D00031E08B818F3F09F03F5FD301F60184916D
:1051E0008D933196CE50DF4F88819981C25FD04038
:1051F000A817B907A1F79D81C551DF4F9883CB5EF2
:10520000D04090E0C551DF4FA881CB5ED040AF3F8A
:1052100009F091E08F818F3F09F09F5F292F93174D
:1052200008F4232FBA81C351DF4FB883CD5ED0403D
:10523000569556955695ECE15E9F20011124C401C8
:105240008770907041E050E002C0440F551F8A956E
:10525000E2F7C751DF4F4883C95ED0405E81C65137
:10526000DF4F5883CA5ED04083015E010894A11CC1
:10527000B11C622F70E0660F771F660D771D69C045
:10528000D5012C912F3F19F01196BC910AC0C45141
:10529000DF4F2881CC5ED040C351DF4FB881CD5E57
:1052A000D040F80180818F3FB1F1A18190E030E0E2
:1052B000821B930B829DA001839D500D929D500DEA
:1052C0001124405F5F4FF5E056954795FA95E1F759
:1052D000420F531F50708A2F90E02B2F30E0821B1B
:1052E000930B829DD001839DB00D929DB00D112432
:1052F0005096E5E0B695A795EA95E1F7A20FB31FA2
:10530000B070F201E40FF51F89E090E08C0F9D1F53
:10531000E80FF91F15C0C551DF4F8881CB5ED04023
:10532000C651DF4FA881CA5ED040C0CF8081C7512F
:10533000DF4F9881C95ED040892B81934F5F5F4FCB
:105340004A175B0798F30E5F1F4FA2E0B0E0AA0E6A
:10535000BB1E0617170709F093CF0894811C911CF8
:10536000E4E0F0E0CE0EDF1EEE0EFF1EF0E48F163E
:10537000910409F00ECFC251DF4F8881CE5ED0403C
:10538000C151DF4F6881CF5ED040AE01475F5F4FB4
:1053900020EECF50DF4F0881C15FD0400E94BA2776
:1053A000CD50DF4F0FB6F894DEBF0FBECDBFCF910B
:1053B000DF911F910F91FF90EF90DF90CF90BF9002
:1053C000AF909F908F907F906F905F904F903F90A5
:1053D0002F900895EF92FF920F931F93E82E162FB0
:1053E000FF24442311F4FF24F39413508E2D815095
:1053F000612F42E026E00F2D0E9497381F5F8E2D0F
:105400008250612F44E024E00E9497381F5F8E2D68
:105410008350612F46E022E00E9497381F910F9140
:10542000FF90EF9008951F93182F80E464E1412FBF
:105430000E94EA2980E46AE3412F0E94EA291F9131
:10544000089580911F02882359F480911D028823BA
:1054500039F010921D0280913E0381700E94132A40
:1054600008950F931F93CF93DF93182F80911F02FE
:10547000882329F080911F02833009F0C8C09091E1
:105480001F0280910902891709F450C08091FC0124
:10549000882309F04BC08091040280930002809120
:1054A000050280930102809106028093020280919E
:1054B00007028093030280911F02882341F48091A8
:1054C00029030E94EA46382F2091330307C08091B8
:1054D00037030E94EA46382F20912D03822F6AE07D
:1054E0000E94104A90930702822F0E94104A8093D4
:1054F0000602832F0E94104A80930402832F0E9489
:10550000104A90930502812F0E94132A8CE363E2D4
:1055100047E025E0012F0E94973880911F02809379
:1055200009028091FC018F5F8093FC0180911F0232
:10553000882309F046C080911B02882321F48091C2
:105540001C028823F1F18091FC018823D1F581E0D0
:105550008093FC01809107028093030280913303C2
:105560006AE00E94104A909307028091060280939D
:105570000202809133030E94104A809306028091B8
:105580001C028823C1F0809129030E94EA46282F3B
:1055900080910402809300028091050280930102B1
:1055A000822F6AE00E94104A80930402822F0E9498
:1055B000104A9093050210921C0280911C02809365
:1055C0001B0280910802811709F474C08091FC01CC
:1055D000882309F06FC060E040E820E4012F0E94BA
:1055E0009738812F0E94132AC0E0D0E0FE01E659CF
:1055F000FE4FDE01AC5FBD4F808160E04C91212FFA
:105600000E9467282196C430D10581F753C00091CC
:105610001F02013009F051C090911F0280910902D0
:10562000891709F447C086EF91E061E00E944A457E
:105630008091FC018823F1F50093FC0180911F0209
:1056400080930902809104028093000280910502F8
:1056500080930102809106028093020280910702EA
:105660008093030280913603882329F420913D031F
:105670003091320304C02091320330913D03822FD8
:105680006AE00E94104A80930402822F0E94104A0E
:1056900090930502832F0E94104A80930602832F65
:1056A0000E94104A9093070280E0112309F481E0E0
:1056B0000E94132AC0E0D0E04EC000911F020230C9
:1056C000C9F790911F0280910902891799F380EF21
:1056D00091E061E00E944A458091FC01882351F7E6
:1056E00081E08093FC018BEE91E061E00E944A45ED
:1056F00080911F028093090280910402809300022E
:10570000809105028093010280910602809302023B
:105710008091070280930302009304021092050215
:1057200080912C036AE00E94104A809306028091C7
:105730002C030E94104A9093070280E0112309F481
:1057400081E00E94132A8CE363E247E025E0012F09
:105750000E949738AFCFFE01E050FE4F4081FE011E
:10576000EC5FFD4F2081421741F0FE01E659FE4FEC
:10577000808160E0012F0E9473282196C430D105FA
:1057800051F79091FC01992389F18091FF018F5F7E
:105790008093FF01813250F11092FF018091040249
:1057A000809300028091050280930102809106029D
:1057B000809302028091070280930302915090939C
:1057C000FC0180911F02813059F400E0112309F49B
:1057D00001E08CE363E247E025E00E94973806C0D1
:1057E00080911F02823011F080911F0210930802F5
:1057F000DF91CF911F910F9108950F931F93CF9336
:10580000DF93182F80E060E040E820E4012F0E9441
:1058100097381092FF01809129030E94EA46382FA1
:10582000209133038FEF80930302809302028093D1
:10583000010280930002822F6AE00E94104A909336
:105840000702822F0E94104A80930602832F0E9433
:10585000104A90930502832F0E94104A80930402FD
:1058600017C0C0E0D0E0FE01E659FE4FDE01A050B7
:10587000BE4F9E012C5F3D4F808160E04C91F9014D
:105880002081012F0E9473282196C430D10559F739
:105890008091FF018F5F8093FF018150813208F377
:1058A0008CEF91E060E00E944A4580910402809371
:1058B000000280910502809301028091060280938C
:1058C00002028091070280930302812F0E94132A13
:1058D0001092FF01DF91CF911F910F91089580E009
:1058E0000E94FD2B089526982E9A81E080936800EF
:1058F000EBE6F0E080818064808382E080937C002E
:1059000010927B00EAE7F0E08EE88083808180647B
:105910008083089580917A00877F80937A008091B8
:105920007A00806480937A0080917A0084FFFCCFB3
:105930002091780030917900C90108951F920F924B
:105940000FB60F9211242F933F934F935F936F9352
:105950007F938F939F93AF93BF93EF93FF9378942D
:105960000E94A23DFF91EF91BF91AF919F918F91C6
:105970007F916F915F914F913F912F910F900FBE4B
:105980000F901F9018951F920F920FB60F9211242F
:105990002F933F934F935F936F937F938F939F9337
:1059A000AF93BF93EF93FF93789480917800909199
:1059B000790022E0803E920728F010920D021092AA
:1059C0000A024AC022E083369207F0F080910A0270
:1059D0008823A1F48AE090E00E9416450E948A2C58
:1059E000825692408E379105B8F582E080930E0280
:1059F00084E080930A0280930C022EC080910E02F4
:105A0000882351F584E026C08F50914088F0809122
:105A10000A02882309F58AE090E00E9416450E9458
:105A20008A2C8E50914085559140B0F482E00EC092
:105A300080910A02882381F48AE090E00E94164552
:105A40000E948A2C8F50914038F481E080930C02A0
:105A500080930A0280930D0280917A00886480937B
:105A60007A00FF91EF91BF91AF919F918F917F91BC
:105A70006F915F914F913F912F910F900FBE0F90BB
:105A80001F9018951F93182F8BE260E00E94693CCD
:105A900020E030E090E006C0F901E65CFD4F2F5FAA
:105AA0003F4F949180913003981719F09F3FA1F7D1
:105AB00008C09F3F31F0C901865C9D4F612F0E9455
:105AC0006F381F9108951F93182F88E064E00E949B
:105AD000693C8CE193E060E00E946F38809136036E
